:100000000C94DA000C9402010C9402010C9402018D
:100010000C9402010C9402010C9402010C94020154
:100020000C9402010C9402010C94C90D0C94380E2E
:100030000C9402010C9402010C9402010C94020134
:100040000C9402010C9402010C9402010C94020124
:100050000C9402010C9402010C9402010C947F0D8B
:100060000C9402010C9402010C9402010C94020104
:100070000C9402010C9402010C9402010C940201F4
:100080000C9402010C9402010C9402010C940201E4
:100090000C9402010C9402010C9402010C940201D4
:1000A0000C9402010C9402010C9402010000000067
:1000B0002300260029002C002F00080B000202025A
:1000C00000000904000001020200000524001001E4
:1000D0000524010101042402060524060001070588
:1000E000810310004009040100020A000000070516
:1000F00002024000000705830240000004030904D7
:1001000012010002EF020140412337800001010289
:10011000030141726475696E6F204C4C430041725B
:100120006475696E6F204D6963726F000000000096
:10013000240027002A002D003000000000002500C8
:1001400028002B002E0031000404040404030405DD
:100150000202020204030202020206060606060664
:10016000040402020204040408020110408040104A
:1001700020408040800802040180402010020110CD
:100180008010204040200000000200090F00000302
:100190000401000C0000000000000000000000004E
:1001A0000000000000070605040100080A0B0C0D02
:1001B0000900081311241FBECFEFDAE0DEBFCDBF68
:1001C00013E0A0E0B1E0EAEAF5E302C005900D9289
:1001D000A230B107D9F724E0A2E0B3E001C01D923C
:1001E000AB30B207E1F710E0CAEDD0E004C02197D0
:1001F000FE010E94F415C93DD107C9F70E941911EB
:100200000C94D31A0C940000ECEAF1E0E491909184
:100210007B008E2F880F880F80729F7D892B8093A3
:100220007B00E770E064E0937C0080917A0080645A
:1002300080937A0080917A0086FDFCCF80917800CF
:10024000909179000895CF93DF93FC01389623E0D5
:1002500030E0EC01A991CE012A0F311DEC17FD070A
:10026000C1F7FB01CB0108966191260F311D8E1756
:100270009F07D1F7FA01CA0109964191240F311D58
:100280008E179F07D1F7822FDF91CF910895FC0140
:100290008091A603882311F13FB7F89482E0809300
:1002A000E9002091F200822F90E01816190614F44C
:1002B00081E090E0882339F0289A44E64093A50332
:1002C0004091F1004083222339F02091F200211166
:1002D00003C02BE62093E8003FBF08958FEF9FEF08
:1002E00008952FB7F89483E08093E9009091E80097
:1002F000892F807295FF04C09091F20080E4891BE1
:100300002FBF089580919D0381110DC082E08093DD
:10031000990384E080939A0310929C0310929B03AC
:1003200081E080939D0389E993E0089581508F30A7
:1003300008F047C0E82FF0E0E056FE4F0C94F415AB
:10034000BD01C101AF01B501B901E101E101E10167
:10035000C401CA01CE01D201D801E101DC018091C2
:1003600080008F77809380000895809180008F7D3A
:10037000F9CF80918000877FF5CF84B58F7784BDDA
:10038000089584B58F7DFBCF809190008F77809307
:1003900090000895809190008F7DF9CF809190001A
:1003A000877FF5CF8091C0008F778093C00008953C
:1003B0008091C0008F7DF9CF8091C200877F8093AC
:1003C000C20008951F93CF93DF93282F30E0F901E7
:1003D000EA57FE4F8491F901E959FE4FD491F90192
:1003E000E85BFE4FC491CC23A9F0162F81110E9427
:1003F0009601EC2FF0E0EE0FFF1FE65CFE4FA5919B
:10040000B4918FB7F894EC91111108C0D095DE2308
:10041000DC938FBFDF91CF911F910895DE2BF8CF32
:10042000CF93DF9390E0FC01E959FE4F2491885B64
:100430009E4FFC0184918823C9F090E0880F991F9A
:10044000FC01E45DFE4FA591B491FC01E65CFE4F1A
:10045000C591D49161110DC09FB7F8948C912095EE
:1004600082238C938881282328839FBFDF91CF919B
:100470000895623051F49FB7F8943C91822F809593
:1004800083238C93E8812E2BEFCF8FB7F894EC91D8
:100490002E2B2C938FBFEACF3FB7F8948091950312
:1004A00090919603A0919703B091980326B5A89BCD
:1004B00005C02F3F19F00196A11DB11D3FBFBA2FF6
:1004C000A92F982F8827BC01CD01620F711D811DB6
:1004D000911D42E0660F771F881F991F4A95D1F73B
:1004E00008958F929F92AF92BF92CF92DF92EF9238
:1004F000FF924B015C010E944C026B017C010E9447
:100500004C026C197D098E099F09683E7340810574
:100510009105A8F321E0821A9108A108B10888EE9C
:10052000C80E83E0D81EE11CF11C81149104A104C3
:10053000B10429F7FF90EF90DF90CF90BF90AF907C
:100540009F908F9008954091110350911203209134
:100550000F033091100342175307B4F49091E80051
:100560009570E1F39091E80092FD19C08093F1003D
:10057000809111039091120301968F739927892B13
:1005800019F48EEF8093E80080911103909112038B
:100590000196909312038093110381E0089580E007
:1005A0000895EF92FF920F931F93CF93DF93F82E4E
:1005B000192FE62E042F81E0860F880F0E94A302D8
:1005C00083E00E94A302CF2DD12FEC0EFD2EF11C53
:1005D000CE15DF05B9F007FF13C0FE0184910E941C
:1005E000A302182F80E00E94A3028123219681118B
:1005F000EFCFDF91CF911F910F91FF90EF90089572
:100600008881EDCF81E0F5CFDF92EF92FF920F93DB
:100610001F93CF93DF93D82E8A01EB017B01E40E69
:10062000F51ECE15DF0559F0D7FE12C0FE018491EC
:100630000E94A30221968111F4CF0FEF1FEFC80192
:10064000DF91CF911F910F91FF90EF90DF90089570
:100650008881EECF0F931F93CF93DF931F92CDB777
:10066000DEB782E0898342E450E06AEB70E080E824
:100670000E9404030E948201DC0112960D911C91DC
:100680000115110589F0D801ED91FC910280F381EB
:10069000E02DBE016F5F7F4FC801099597FD04C033
:1006A000F80100851185ECCF89810F90DF91CF9102
:1006B0001F910F910895615030F02091F100FC01DD
:1006C00020830196F8CF289A84E68093A5030895A5
:1006D0008F929F92AF92BF92CF92DF92EF92FF9252
:1006E0000F931F93CF93DF936C017B018A0180915D
:1006F0001201882309F45CC08091A603882309F4C1
:1007000057C08091150380FF05C08091E000826092
:100710008093E000E801B12C8AEFA82E93E0892EA7
:100720002AE3922E209711F4BB20D9F10E94710187
:1007300081110AC0AA94AA20D9F161E070E080E09A
:1007400090E00E947102EECF8C171D0611F00CF0A4
:100750008C2F9FB7F8948092E9002091E80025FD46
:1007600002C09FBFDFCF282F30E0C21BD30BF701A1
:10077000815020F041914093F100FACFE20EF31E38
:10078000BB2021F09092E800B12CEBCF8091E800E3
:1007900085FDE7CF9092E800BB24B394209709F33E
:1007A000F3CF5D9A84E680931403101611063CF093
:1007B00081E090E0F6019383828310E000E0C801BD
:1007C000DF91CF911F910F91FF90EF90DF90CF902D
:1007D000BF90AF909F908F900895CF93DF931F921B
:1007E000CDB7DEB76983DC01ED91FC910280F38126
:1007F000E02D41E050E0BE016F5F7F4F09950F9003
:10080000DF91CF91089583E08093E9008091F20019
:10081000882319F08AE38093E80008950E9471010B
:1008200090E00895CF93DF931F92CDB7DEB7FC0120
:100830008485958597FD08C02FEF3FEF3587248786
:100840000F90DF91CF910895CE0101960E9447014C
:10085000019719F4898190E0F3CF8FEF9FEFF0CFEC
:100860002FB7F8948091A7039091A803A091A903B2
:10087000B091AA032FBF8093BD039093BE03A093B2
:10088000BF03B093C00385EB93E00E94120497FF6F
:1008900026C02FB7F8948091A7039091A803A09148
:1008A000A903B091AA032FBF4091BD035091BE038D
:1008B0006091BF037091C003841B950BA60BB70B0F
:1008C0004091B9035091BA036091BB037091BC038E
:1008D00084179507A607B707B0F28FEF9FEF08952B
:1008E0000F931F93CF93DF931F92CDB7DEB78C0189
:1008F000FC018485958597FF0BC0CE0101960E946F
:100900004701019771F4898190E0F8019587848708
:10091000F801848595850F90DF91CF911F910F91FC
:1009200008958FEF9FEFF1CFFC018485958597FDAA
:100930000BC09FB7F89482E08093E9008091F200A9
:100940009FBF90E0019608959FB7F89482E080934E
:10095000E9008091F2009FBF90E00895CF93DF936C
:100960008F3F910519F014F08FEF90E097FF02C0D0
:1009700090E080E0CFEFD0E0C81BD90B61E083E0CE
:100980000E941002209731F460E083E0DF91CF9164
:100990000C94E201CF3FD10511F461E0F6CFE9E814
:1009A000F1E0E491E150EF3008F07EC0F0E0E55274
:1009B000FB4F0C94F415EA04F104F60400050A0553
:1009C00054055405540514051E05280532053F0538
:1009D0005405470584B5806884BDC7BDDF91CF91BC
:1009E000089584B5806284BDC8BDF8CF8091800031
:1009F000806880938000D0938900C0938800EECFF8
:100A000080918000806280938000D0938B00C0939F
:100A10008A00E4CF80918000886080938000D0932A
:100A20008D00C0938C00DACF809190008068809315
:100A30009000D0939900C0939800D0CF80919000FF
:100A4000806280939000D0939B00C0939A00C6CFA1
:100A500080919000886080939000D0939D00C09317
:100A60009C00BCCF8091C00080688093C0008091C2
:100A7000C0008F7B8093C000C093CF00AFCF809128
:100A8000C00080628093C000C093D000A7CF809147
:100A9000C20088608093C2008091C2008B7F8093E7
:100AA000C200C093D2009ACFC038D1050CF075CFE8
:100AB0006BCFFC0101900020E9F73197AF01481B93
:100AC000590BBC0185EB93E00C946803CF93DF9343
:100AD0000E945905EC0186E791E00E9459058C0FB0
:100AE0009D1FDF91CF910895CF92DF92EF92FF92F9
:100AF0000F931F93CF93DF93CDB7DEB761970FB6F8
:100B0000F894DEBF0FBECDBF0E9404018C010E948D
:100B10004C02012E000C220B330B600F711F821F41
:100B2000931F611571058105910511F00E94B8139D
:100B300081E1E9E7F1E0DE01119601900D928A95DD
:100B4000E1F70BEA13E080E1C82ED12CE12CF12C67
:100B50000E946913A70196010E94681521E030E008
:100B60002C0F3D1F620F731FFB018081F8018193E1
:100B70008F01F3E0033B1F0759F71092B30361960F
:100B80000FB6F894DEBF0FBECDBFDF91CF911F919E
:100B90000F91FF90EF90DF90CF900895AF92BF92AA
:100BA000CF92DF92EF92FF920F931F93CF93DF9339
:100BB000DC01CD90DC901197C114D10439F014966A
:100BC000CD91DC918C017601209761F4DF91CF917A
:100BD0001F910F91FF90EF90DF90CF90BF90AF905B
:100BE000089575015701BFEFAB1ABB0AF701808169
:100BF000082E000C990B0E94FF14892B91F7219766
:100C0000CC0DDD1D8881082E000C990B0E94FF146D
:100C1000892B29F0CE15DF0510F02197F3CFAE0117
:100C20004F5F5F4F4E195F09D80115965C934E9345
:100C30001497CE14DF0420F4B701C6010E940018F7
:100C4000D801ED91FC91119714968D919C91E80F2C
:100C5000F91F1082BBCFEF92FF920F931F93CF9398
:100C6000DF938617970769F1FC0124813581FB0129
:100C70004481558124173507E1F4232B11F1FC0140
:100C800000811181FB01C081D181F80181918F0127
:100C90008823B9F0082E000C990B0E94F0177C01F4
:100CA0008991082E000C990B0E94F017E816F9069E
:100CB00061F380E0DF91CF911F910F91FF90EF9052
:100CC000089581E0F7CFFC0180819181009711F0B8
:100CD0000C94AA1608950F931F93CF93DF93EC0102
:100CE00088819981009759F02A813B81261737071F
:100CF00030F081E0DF91CF911F910F9108958B012A
:100D00006F5F7F4F0E943317009759F09983888354
:100D10001B830A832C813D81232B59F7FC01108210
:100D2000E8CF80E0E7CFEF92FF920F931F93CF932E
:100D3000DF93EC017B018A01BA010E946B062881D6
:100D40003981811114C02115310519F0C9010E94A2
:100D5000AA16198218821D821C821B821A82CE0159
:100D6000DF91CF911F910F91FF90EF9008951D8318
:100D70000C83B701C9010E941D18F1CFFC0111823B
:100D800010821382128215821482FB0101900020CE
:100D9000E9F73197AF01461B570B0C9493060C945F
:100DA0002015CF93DF9360E082E00E94E201D091B2
:100DB0009303C8E06D2F661F6627661F87E00E94B9
:100DC000E201DD0F61E085E00E94E20160E085E084
:100DD0000E94E201C15071F761E082E0DF91CF91A2
:100DE0000C94E201FF920F931F93CF93DF93EC01DA
:100DF000F62E08811981C8010E942015F81621F0ED
:100E00006F2DC8010E942815CE01DF91CF911F914F
:100E10000F91FF9008954F925F926F927F928F9201
:100E20009F92AF92BF92CF92DF92EF92FF920F9379
:100E30001F93CF93DF93CDB7DEB76B970FB6F894C0
:100E4000DEBF0FBECDBF2CE131E0F90101900020E3
:100E5000E9F79F012D5131405E01FAE0AF0EB11C60
:100E6000F50190E080E0450140E28217930724F409
:100E7000DC01A45EBE4F4C914193019688309105F0
:100E800099F723E131E0F90101900020E9F79F0192
:100E9000245131406E01F2E1CF0ED11CF60190E0F9
:100EA00080E0360140E28217930724F4DC01AD5E56
:100EB000BE4F4C91419301968830910599F72BEAEA
:100EC00033E0F90101900020E9F79F012C5A3340EB
:100ED000CE0101967C01FC0190E080E0270140E218
:100EE0008217930724F4DC01A555BC4F4C91419324
:100EF00001968830910599F719861B8E1A8E6AE53E
:100F0000CE014A960E94F20681E090E09B8F8A8F84
:100F100065EACE014A960E94F20682E090E09B8F3D
:100F20008A8F63E0CE014A960E94F20603E010E049
:100F3000F50161915F011B8F0A8FCE014A960E94D5
:100F4000F2060F5F1F4F0B30110591F7F60161910B
:100F50006F011B8F0A8FCE014A960E94F2060F5F27
:100F60001F4F0331110591F7F70161917F011B8F2D
:100F70000A8FCE014A960E94F2060F5F1F4F0C3176
:100F8000110591F7A201B301C4010E9423011B8F37
:100F90000A8F682FCE014A960E94F2066B960FB612
:100FA000F894DEBF0FBECDBFDF91CF911F910F919F
:100FB000FF90EF90DF90CF90BF90AF909F908F9079
:100FC0007F906F905F904F9008958F929F92AF9215
:100FD000BF92CF92DF92EF92FF920F931F93CF9326
:100FE000DF93CDB7DEB7C254D1090FB6F894DEBF98
:100FF0000FBECDBFEAE8F1E08491EBE6F1E00491A9
:10100000ECE4F1E01491112309F4E9C081110E948C
:101010009601E12FF0E0EE0FFF1FE455FF4FA59181
:10102000B491EC91E02331E020E009F430E0832F2B
:10103000922F209105013091060128173907F1F010
:10104000909306018093050121E0892B09F020E0AF
:101050001F922F938AE891E09F938F938E010F5FE9
:101060001F4F1F930F930E943218C8010E946605FC
:101070000F900F900F900F900F900F90E0900D0336
:10108000F0900E03C701880F991F8C01055E1C4F5D
:10109000D8014D915C91052E000C660B770B80906A
:1010A000170390901803A0901903B0901A03841AA4
:1010B000950AA60AB70A0E940401F8019183808369
:1010C000092E000CAA0BBB0B880E991EAA1EBB1E74
:1010D0008092170390921803A0921903B0921A03FA
:1010E0002091250130912601C7010196B9010E9486
:1010F000E01590930E0380930D03032E000C440B18
:10110000550BC501B4010E946815F90160910301F6
:101110007091040177FD0FC0C901861B970B97FFE3
:1011200003C0919581959109A0910001B0910101B1
:101130008A179B07FCF0F7FD1DC0E617F707D1F0F3
:1011400030930401209303013F932F9384E991E0AE
:101150009F938F938E010F5F1F4F1F930F930E94DA
:101160003218C8010E9466050F900F900F900F90E3
:101170000F900F9085EB93E00E949404892B09F463
:10118000E6C068E771E0CE01CD960E94BE060E94DF
:10119000300497FD27C08A30910521F189831A8296
:1011A00023960EAD1FAD23970F5F1F4FB801CE01E1
:1011B000CD960E946B06882351F32DAD3EAD23964C
:1011C0008EAD9FAD2397BE016F5F7F4F820F931F40
:1011D0000E941D1823961FAF0EAF2397D8CF90E023
:1011E00080E027CFCE01CD960E94CE0523968EAD0E
:1011F0009FAD2397892B09F4F4C36DE971E08E014B
:101200000F5F1F4FC8010E94BE06B801CE01CD96E8
:101210000E942B06F82EC8010E946306FF20E9F009
:1012200083EA91E00E94590586E491E00E94590505
:101230008091AB03882361F08AEA91E00E9459050E
:101240008EE391E00E9459058BEA93E00E945905D4
:1012500084E292E00E94660576C060EB71E0C8010E
:101260000E94BE06B801CE01CD960E942B06F82E34
:10127000C8010E946306FF2039F084EB91E00E94D0
:1012800059058AE391E0E2CF69EB71E0C8010E9461
:10129000BE06B801CE01CD960E942B06F82EC801DD
:1012A0000E946306FF20A9F08FEB91E00E94660583
:1012B00062E370E080E090E00E94710288E198E0D3
:1012C0000FB6F894A895809360000FBE90936000CD
:1012D000FFCF6AEC71E0C8010E94BE06B801CE01E2
:1012E000CD960E942B06F82EC8010E946306FF20AF
:1012F00009F478C0809193031F928F938EEC91E054
:101300009F938F937E01F1E2EF0EF11CFF92EF921B
:101310000E943218C7010E94660580912A018F93AE
:10132000809129018F9389ED91E09F938F931F9373
:101330000F930E943218C8010E9466050FB6F894F8
:10134000DEBF0FBECDBFCE01CD960E946306809159
:101350000B03882309F449C32FB7F8948091A7039E
:101360009091A803A091A903B091AA032FBF209147
:10137000090330910A032130310509F469C30CF0E7
:1013800048C3232B09F031C3409105035091060354
:1013900060910703709108038C019D01041B150BDC
:1013A000260B370BB901A8014431510561057105C0
:1013B00008F41BC38093050390930603A0930703CF
:1013C000B093080380910303909104038E3F91052D
:1013D0000CF033C3019690930403809303030E949F
:1013E000AE0403C360EE71E0C8010E94BE06B801FE
:1013F000CE01CD960E948010F82EC8010E9463068F
:10140000FF2009F449C042E050E0BE01635C7F4F19
:10141000CE0181960E94D11089A19AA10097C1F1B5
:101420000E94D8147B016F3F710521F01CF0EE245F
:10143000EA94F12CF7FE02C0F12CE12C80912701F7
:10144000909128018E159F05F1F0F0922A01E0920B
:101450002901C7010E94AE04F0922801E092270101
:10146000FF92EF9289ED91E09F938F931F930F93DB
:101470000E943218C8010E9466050F900F900F90CD
:101480000F900F900F90CE0181960E9463065BCF64
:1014900060E070E0CB01C6CF63EE71E0C8010E944E
:1014A000BE06B801CE01CD960E948010F82EC8016C
:1014B0000E946306FF2009F44BC045E050E0BE01E6
:1014C000635C7F4FCE0181960E94D1108DA19EA1B9
:1014D0000897A1F529A13AA190E080E0F12C47E01E
:1014E00050E061E070E0F901E80FF91F21153105C6
:1014F00021F410920203E2E0F3E0E081E13351F4E1
:10150000FA01E81BF90BDB0102C0AA0FBB1FEA9529
:10151000E2F7FA2A01968830910529F780910201B5
:101520008F1509F4B0CFF09293030E94D106F09288
:1015300002011F92FF928EEC91E096CF40E150E0C5
:1015400070E060E089A19AA10E94C113F62EE6CF57
:1015500069EE71E0C8010E94BE06B801CE01CD96C9
:101560000E942B06F82EC8010E946306FF2051F14D
:101570008FEF809393030E94D10681E080930B0349
:1015800010920A03109209031092040310920303AD
:1015900090E080E00E94AE042FB7F8948091A703FA
:1015A0009091A803A091A903B091AA032FBF8093A3
:1015B000050390930603A0930703B09308038EEEF0
:1015C00091E048CE6AEF71E0C8010E94BE06B80102
:1015D000CE01CD960E948010F82EC8010E946306AD
:1015E000FF2009F473C043E050E0BE01635C7F4F0D
:1015F000CE0181960E94D11089A19AA1009709F489
:1016000061C00E94D8147B016D3371051CF02CE37E
:10161000E22EF12C1E141F041CF0EE24E394F12C96
:10162000F0922601E092250110920E0310920D0314
:1016300010921703109218031092190310921A03B4
:101640008BE1A82E83E0B82ED12CC12C0E9404017E
:10165000F501819391935F01092E000CAA0BBB0B3E
:1016600040911703509118036091190370911A0368
:10167000840F951FA61FB71F80931703909318031D
:10168000A0931903B0931A03FFEFCF1ADF0ACE1409
:10169000DF04E4F2FF92EF928EEF91E09F938F933D
:1016A0001F930F930E943218C8010E946605CE0155
:1016B00081960E9463060F900F900F900F900F90ED
:1016C0000F9041CE60E070E0CB019DCF66E072E00C
:1016D000C8010E94BE06B801CE01CD960E948010BE
:1016E000F82EC8010E946306FF2029F143E050E074
:1016F000BE01635C7F4FCE0181960E94D11089A10B
:101700009AA10097A1F00E94D8146333710514F0D8
:1017100062E370E077FF02C070E060E07093010167
:10172000609300017F936F938AE092E0B7CF60E00F
:1017300070E0CB01EACF62E172E0C8010E94BE0610
:10174000B801CE01CD960E948010F82EC8010E94EB
:101750006306FF2009F4F7CD44E050E0BE01635C6E
:101760007F4FCE01C1960E94D110CE01C1960E943A
:10177000CE05ADA8BEA8C9A8DAA8A114B10409F481
:1017800054C06AE370E0C6010E940918009709F48A
:101790004CC07C01EC18FD08F7FC47C068E771E01D
:1017A000CE0181960E94BE068DA99EA90097B1F038
:1017B00067018E159F0508F46C01E9A9FAA9EC0DE3
:1017C000FD1DB080108269A97AA9CE0181960E9480
:1017D000B010E9A9FAA9EC0DFD1DB082A7014F5F79
:1017E0005F4FBE016F5C7F4FC8010E94D110CE01D8
:1017F00081960E946A10C8010E94CE0567E172E0DE
:10180000CE0181960E949B10882339F165E371E037
:10181000C8010E949B108823E9F081E080930C03AB
:101820008BE192E00E9466058CC01AA219A21CA24C
:101830001BA21EA21DA2C114D10431F0A501B60144
:10184000CE0181960E94930668E771E0C8010E946C
:10185000BE06CDCF86E292E0E5CF65E372E0CE0131
:1018600081960E949B10882309F44FC040910C037D
:10187000442309F44AC08D819E81089709F06EC007
:1018800029813A81F901B901695F7F4F80E0211513
:10189000310509F0808190ED980F9A3008F461C00D
:1018A0008F7D815491E0863008F090E06E177F07BD
:1018B00009F051C0992309F451C0C8010E946A106F
:1018C0006D817E8149815A81ABEAB3E0FA0190E0F3
:1018D00080E08617970708F046C04115510509F4C6
:1018E00042C020812D93019631968830910589F769
:1018F0001092B3038DE392E00E9459058EE391E0CC
:101900000E9459058BEA93E08DCF68E372E0CE0127
:1019100081960E949B10811128C066E672E0CE017C
:1019200081960E949B10882321F080910C038111E5
:1019300021C06AE672E0CE0181960E949B1081115F
:1019400042C0C8010E946306CE0181960E946306D0
:10195000CE01C1969ACD3196911198CF88E492E04C
:1019600061CF942FA3CF20E0BDCF10920C0388E568
:1019700092E058CF60E772E0CE01C7960E94BE06A3
:10198000BE01695C7F4FC8010E942B06F82ECE0174
:10199000C7960E946306FF2099F00E940B071092E1
:1019A0000C0384E792E00E94660588E198E00FB698
:1019B000F894A895809360000FBE90936000FFCFCD
:1019C00081E892E02FCF80910C03882339F00E94A8
:1019D0000B0710920C0382E992E024CF8DE992E08C
:1019E00021CFCE01CD960E946306CE5BDF4F0FB6AE
:1019F000F894DEBF0FBECDBFDF91CF911F910F9145
:101A0000FF90EF90DF90CF90BF90AF909F908F901E
:101A100008952230310509F442C02330310529F7F9
:101A2000109293030E94D10690E080E00E94AE04E1
:101A300010920B0382EE92E008C081E090E0909358
:101A40000A03809309038CEA92E00E946605CDCFD9
:101A500040910503509106036091070370910803BC
:101A60008C019D01041B150B260B370BB901A80136
:101A7000483B5B406105710508F4B7CF22E030E0D8
:101A800030930A0320930903809305039093060380
:101A9000A0930703B09308038FEB92E0D6CF409159
:101AA00005035091060360910703709108038C01B0
:101AB0009D01041B150B260B370BB901A8014431FE
:101AC00051056105710508F490CF8093050390934B
:101AD0000603A0930703B09308038091030390913A
:101AE00004031816190614F4019775CC83E090E0EE
:101AF00090930A03809309038DEC92E0A6CF1F9286
:101B00000F920FB60F9211242F933F938F939F93B1
:101B1000AF93BF938091A7039091A803A091A903CD
:101B2000B091AA033091940323E0230F2D3758F589
:101B30000196A11DB11D209394038093A703909358
:101B4000A803A093A903B093AA0380919503909151
:101B50009603A0919703B09198030196A11DB11D22
:101B60008093950390939603A0939703B093980363
:101B7000BF91AF919F918F913F912F910F900FBE89
:101B80000F901F90189526E8230F0296A11DB11DF6
:101B9000D2CF1F920F920FB60F9211248F939F9363
:101BA0008091E1009091E100937F9093E10083FFA9
:101BB0000FC01092E90091E09093EB001092EC00BE
:101BC00092E39093ED001092A60398E09093F000BA
:101BD00082FF22C093E09093E9009091F200992354
:101BE00019F09AE39093E80090911403992341F03F
:101BF00090911403915090931403911101C05D983A
:101C00009091A503992341F09091A5039150909351
:101C1000A503911101C0289884FF18C08091E200AB
:101C20008E7E81608093E2008091E1008F7E8093C0
:101C3000E100809115038E7E8061809315039F9152
:101C40008F910F900FBE0F901F90189580FFF7CFC8
:101C50008091E2008E7E80618093E2008091E100BD
:101C60008E7E8093E100809115038E7E8160E5CFAA
:101C70001F920F920FB60F921124CF92DF92EF9224
:101C8000FF920F931F932F933F934F935F936F9305
:101C90007F938F939F93AF93BF93EF93FF93CF93D4
:101CA000DF93CDB7DEB76C97DEBFCDBF1092E900F2
:101CB0008091E80083FF25C068E0CE0145960E9430
:101CC0005B0382EF8093E8008D8987FF39C0909194
:101CD000E80090FFFCCF982F907609F034C19E89E0
:101CE0004F89588D2F89F88C911131C0803861F55A
:101CF000809116038093F1001092F1008EEF809393
:101D0000E8006C960FB6F894DEBF0FBECDBFDF9132
:101D1000CF91FF91EF91BF91AF919F918F917F9163
:101D20006F915F914F913F912F911F910F91FF9074
:101D3000EF90DF90CF900F900FBE0F901F901895EF
:101D40009EEF9093E800C7CF1092F100D5CF91306D
:101D500059F48111D3CF4130510581F6809116039A
:101D60008D7F80931603CACF933049F48111C6CF7B
:101D70004130510519F6809116038260F2CF9530FB
:101D800041F48091E80080FFFCCF20682093E300BD
:101D9000B5CF963009F0A9C00B8D1C8D22E01092B2
:101DA000E9001092120310921103F2122EC0109249
:101DB000100310920F030E942A031F8299E0998357
:101DC000FA8291E09E8390EA98879AEF9987209112
:101DD000110330911203275F3F4F3C832B838D8388
:101DE0001092E90010921203109211031093100345
:101DF00000930F0349E050E0BE016F5F7F4F80E02A
:101E00000E9404030E942A0379CF109310030093C9
:101E10000F030E948201DC0112960D911C910115A5
:101E2000110509F451C1D801ED91FC910480F581AF
:101E3000E02DBE016B5E7F4FC8010995009709F048
:101E40003EC1F80100851185EACFF3E0FF120EC014
:101E50008F89882309F440C0823061F440E86DE046
:101E60008EE191E00E94D102811148CF81E28093FE
:101E7000EB0047CF813029F440E86BE082E191E04C
:101E8000F1CF833099F70E948201DC011296ED9028
:101E9000FC908E010F5F1F4F6801E114F10479F08F
:101EA000D701ED91FC910680F781E02DB801C701C3
:101EB0000995080F111DF701E084F184EECFD801D8
:101EC0001C92F60101900020E9F73197BF016C19CF
:101ED0007D0940E0C601C6CF6CEF70E0FB01449184
:101EE00050E080E80E94040309CF973009F4BECF88
:101EF000983021F481E08093F10000CF993009F00F
:101F0000FDCE837009F0B2CFE0E7F1E081E031E08F
:101F100096E32191222371F08093E9003093EB0046
:101F2000DF0111972C912093EC009093ED008F5FCF
:101F3000873079F78EE78093EA001092EA008F8964
:101F40008093A603DBCE8B8D9C8D1092E9001092BE
:101F50001203109211039093100380930F03898D45
:101F6000811192C08E899D89913A49F4813209F09C
:101F70007DCF47E050E06BE071E080E0B3CF91327D
:101F800009F074CF833269F48F89988DB0E0A0E0B6
:101F90008093070190930801A0930901B0930A016F
:101FA000ADCE803269F48091E80082FFFCCF67E01B
:101FB0008BE091E00E945B038BEF8093E8009ECE64
:101FC000823209F09BCE8F8980931201EEEFFFE7FA
:101FD000859194918B3F9C4D51F1E0E0F8E0809128
:101FE0000B0190910C01A0910D01B0910E01803B6D
:101FF0009440A105B105F1F48091120180FD1AC051
:10200000EE3F8AE0F80789F587E797E791838083B9
:10201000809160008093130388E19BE00FB6F894F1
:10202000A895809360000FBE9093600067CEEEEF9E
:10203000FAE0D5CF808191818737974709F05ECE4E
:10204000A89580916000886180936000809113035F
:1020500080936000EE3F2AE0F20789F08091FE0A4B
:102060009091FF0A9183808349CE80819181873747
:10207000980751F29093FF0A8093FE0AC5CF109201
:10208000FF0A1092FE0A3ACE0E948201DC011296EB
:102090000D911C910115110509F4E8CED801ED91BF
:1020A000FC910190F081E02DBE016B5E7F4FC80175
:1020B0000995811123CEF80100851185EBCF181603
:1020C00019060CF41BCED2CEF1E0FF12BECE60E0BA
:1020D00071E004CFCF93DF93FC01C081D1812097C1
:1020E00061F08991882349F0082E000C990B0E9419
:1020F000F817FE0131978083F4CFDF91CF910895D7
:10210000FB0144815581FC01248135812417350769
:1021100078F080819181009759F0FB016081718195
:102120006115710529F00E94241821E0892B09F01E
:1021300020E0822F0895FC0124813581232B39F47E
:1021400021E0FB018081882349F020E007C08081E5
:1021500091810E94141821E0892BB9F7822F0895EC
:10216000CF93DF93EC016115710571F0FB010190D4
:102170000020E9F73197AF01461B570B0E949306E9
:10218000CE01DF91CF91089588819981009711F058
:102190000E94AA16198218821D821C821B821A8232
:1021A000EFCFAF92BF92CF92DF92EF92FF920F9359
:1021B0001F93CF93DF935C016B017A01DB011496CF
:1021C0000D911C910417150720F48F2D7801042F11
:1021D000182F68E771E0C5010E94BE06F601C481B0
:1021E000D581EC16FD06C8F40C171D0708F4E801AC
:1021F000D601ED91FC911197EC0FFD1F108110821B
:102200006D917C916E0D7F1DC5010E94B010F6018D
:1022100080819181C80FD91F1883C501DF91CF91AB
:102220001F910F91FF90EF90DF90CF90BF90AF90F4
:102230000895CF93DF93CDB7DEB76C970FB6F894C0
:10224000DEBF0FBECDBF789484B5826084BD84B5F7
:10225000816084BD85B5826085BD85B5816085BDA1
:1022600080916E00816080936E0010928100809159
:1022700081008260809381008091810081608093E1
:102280008100809180008160809380008091910026
:102290008260809391008091910081608093910091
:1022A000809190008160809390008091C100846053
:1022B0008093C1008091C10082608093C1008091B1
:1022C000C10081608093C1008091C30081608093D0
:1022D000C3008091C00082608093C0008091C200E2
:1022E00081608093C20080917A00846080937A003C
:1022F00080917A00826080937A0080917A00816078
:1023000080937A0080917A00806880937A0010929E
:10231000A60310921603109215038091D7008160D6
:102320008093D70080EA8093D80089B5806189BD09
:1023300089B5826089BD09B400FEFDCF61E070E01F
:1023400080E090E00E9471028091D8008F7C8061D3
:102350008093D8008091E000807F8093E00080919E
:10236000E1008E7E8093E1008DE08093E200559A3B
:10237000209A5D9828988FEF9FEF9093C2038093E7
:10238000C10390E080E00E94CF06182F81E090E02A
:102390000E94CF06982F812F8A35954A09F44CC0A8
:1023A0000E9474050E940B0761E082E00E94100207
:1023B00061E085E00E94100261E087E00E94100267
:1023C00061E083E00E94100262E084E00E9410025B
:1023D00060E089E10E9410020E94D1060BE113E047
:1023E000F12CE12C8091250190912601E816F90647
:1023F0000CF0B4C00E940401F801819391938F0105
:10240000092E000CAA0BBB0B409117035091180327
:102410006091190370911A03840F951FA61FB71FAF
:102420008093170390931803A0931903B0931A0392
:10243000FFEFEF1AFF0AD6CF82E090E00E94CF06AE
:10244000782E6E0184E1C80ED11C7E01EBE0EE0E09
:10245000F11C5701460103E010E0C8010E94CF06BD
:10246000F40181934F01C80108960E94CF06F5013F
:1024700081935F010F5F1F4F0B30110571F71C8EA9
:102480001B8AF3E07F128CCF8E010F5F1F4F480134
:1024900083E1A82EB12CC5010E94CF06F4018193DF
:1024A0004F01FFEFAF1ABF0A2CE1A216B10499F752
:1024B0001A868CE190E00E94CF06B82EA801B701E1
:1024C000C6010E942301B8126BCFA601485F5F4F7F
:1024D00090E080E0F60121916F01322F3F7D29F0DD
:1024E000FC01E45EFE4F208301964C155D0591F7DB
:1024F000845E9E4FFC011082A701485F5F4F90E011
:1025000080E0F70121917F01322F3F7D29F0FC010E
:10251000ED5EFE4F208301964E155F0591F78D5EAF
:102520009E4FFC011082A801485F5F4F90E080E061
:10253000F80121918F01322F3F7D29F0FC01E555F3
:10254000FC4F208301960417150791F7FC01E55510
:10255000FC4F1082892B09F027CF22CF8FEF809379
:1025600093030E94D1068EEF90E00E94AE040E9479
:10257000D1066AEF70E080E090E00E94710290E086
:1025800080E00E94AE040E94D1066AEF70E080E015
:1025900090E00E9471028EEF90E00E94AE040E94D3
:1025A000D1066AEF70E080E090E00E94710290E056
:1025B00080E00E94AE040E94D1066AEF70E080E0E5
:1025C00090E00E947102109293030E94D10690E065
:1025D00080E00E94AE0481EF92E00E9466050091C7
:1025E000290110912A01C8010E94AE04109328010C
:1025F000009327018AEF92E00E94660500E010E058
:102600000E94E50701151105D9F30E940000F8CFDB
:10261000E5EBF3E01382128288EE93E0A0E0B0E0F5
:1026200084839583A683B78381E691E09183808339
:102630008FEF9FEF9587848708958F929F92AF9237
:10264000BF92CF92DF92EF92FF92CF93DF93EC0194
:10265000688179818A819B81611571058105910568
:1026600021F464E279ED8BE597E02DE133EF41E071
:1026700050E00E94681549015A019B01AC01A7EA8C
:10268000B1E40E9487156B017C01ACEEB4EFA501AB
:1026900094010E949515C60ED71EE81EF91EF7FE7E
:1026A00006C081E0C81AD108E10880E8F80AC882AB
:1026B000D982EA82FB82C701B6019F77DF91CF9171
:1026C000FF90EF90DF90CF90BF90AF909F908F9052
:1026D00008958F929F92AF92BF92CF92DF92EF9226
:1026E000FF9260912B0170912C0180912D019091AE
:1026F0002E01611571058105910521F464E279EDE2
:102700008BE597E02DE133EF41E050E00E94681542
:1027100049015A019B01AC01A7EAB1E40E94871567
:102720006B017C01ACEEB4EFA50194010E949515FC
:10273000C60ED71EE81EF91EF7FE06C081E0C81AB5
:10274000D108E10880E8F80AC0922B01D0922C0150
:10275000E0922D01F0922E01C701B6019F77FF9004
:10276000EF90DF90CF90BF90AF909F908F900895A3
:1027700060932B0170932C0180932D0190932E0177
:102780000895B0E0A0E0E7ECF3E10C949B155C0148
:102790006B017A016115710519F0FB01918380834A
:1027A000E114F10451F0C7010297839730F040E043
:1027B00030E020E090E072C05E01E5012196F50175
:1027C0001081812F90E00E94FF14892BA9F71D3200
:1027D00001F52196F501118101E0E114F10409F4FC
:1027E000DAC0F0E1EF16F10409F082C0103359F4B9
:1027F00088818F7D883509F076C019812296026024
:10280000F0E1EF2EF12C812C912CA12C88E0B82E38
:102810008CC01B3221F4E5012296F501118100E004
:10282000DCCFEAE0EE16F10409F4BBC0F0E1EF16EC
:10283000F10409F06DC0E7CF78E0E72EF12C812C90
:10284000912CA12C60E1B62E70C03FE9310F3A31D6
:1028500028F439EA332E80C021E09AC0302F31703D
:10286000C114D10431F0222309F12197F601D1835B
:10287000C08327FF21C060E070E080E090E8311164
:1028800004C06FEF7FEF8FEF9FE722E230E03093DD
:10289000060420930504462F372F282F642F732F0B
:1028A000822FCDB7DEB7E1E10C94B71501FF04C06C
:1028B0002297F601D183C083332341F09095809510
:1028C000709561957F4F8F4F9F4FE5CF97FFE3CF77
:1028D00082E290E090930604809305046FEF7FEF0F
:1028E0008FEF9FE7D8CF10E3E114F10409F4A4CFF0
:1028F00028E0E216F10409F4A2CF0CF092CF812C6B
:10290000912CA12CE0E4BE2E82E0E816F10469F0DF
:1029100060E070E080E090E897010F2C000C440B21
:10292000550B0E94461549015A0120E060E070E015
:10293000CB0127010F2C000C66087708FE0150ED33
:10294000352E310E39E0331540F43FEB310F3A317B
:1029500008F07BCF49EC342E310E3E141F040CF0EE
:102960007DCF27FD15C086169706A806B90678F014
:10297000A30192010E943615630D711D811D911DE9
:1029800061307105810520E8920708F465CF2FEFCB
:1029900021961081D3CF103309F42ACF2AE0E22EFA
:1029A000F12C9CEC892E982CA82C9CE0B92EBDCF44
:1029B0001F93FC0199278827BC01E89411911032DC
:1029C000E9F3193010F01E30C8F31B3251F01D32FC
:1029D00049F4689406C00E940815610F711D811D9D
:1029E000911D119110531A30B0F33EF490958095DB
:1029F000709561957F4F8F4F9F4F1F910895911153
:102A00000C941D15803219F089508550C8F708952F
:102A1000592F482F372F262F660F771F881F991F92
:102A2000660F771F881F991F620F731F841F951FE2
:102A3000660F771F881F991F089599278827089583
:102A4000F999FECF92BD81BDF89A992780B5089576
:102A5000262FF999FECF1FBA92BD81BD20BD0FB6BA
:102A6000F894FA9AF99A0FBE01960895DB018F93B4
:102A70009F930E948715BF91AF91A29F800D911DDA
:102A8000A39F900DB29F900D11240895A1E21A2EDC
:102A9000AA1BBB1BFD010DC0AA1FBB1FEE1FFF1F02
:102AA000A217B307E407F50720F0A21BB30BE40B52
:102AB000F50B661F771F881F991F1A9469F7609599
:102AC0007095809590959B01AC01BD01CF01089553
:102AD000052E97FB1EF400940E947F1557FD07D02A
:102AE0000E94461507FC03D04EF40C947F155095B8
:102AF0004095309521953F4F4F4F5F4F08959095EA
:102B00008095709561957F4F8F4F9F4F08950E94DC
:102B1000D115A59F900DB49F900DA49F800D911D80
:102B200011240895B7FF0C9487150E948715821B06
:102B3000930B08952F923F924F925F926F927F92E4
:102B40008F929F92AF92BF92CF92DF92EF92FF92BD
:102B50000F931F93CF93DF93CDB7DEB7CA1BDB0B69
:102B60000FB6F894DEBF0FBECDBF09942A8839880E
:102B700048885F846E847D848C849B84AA84B98415
:102B8000C884DF80EE80FD800C811B81AA81B98121
:102B9000CE0FD11D0FB6F894DEBF0FBECDBFED0135
:102BA0000895A29FB001B39FC001A39F700D811D26
:102BB0001124911DB29F700D811D1124911D089546
:102BC00097FB072E16F4009407D077FD09D00E94DA
:102BD000FA1507FC05D03EF4909581959F4F089516
:102BE000709561957F4F0895EE0FFF1F0590F4914A
:102BF000E02D0994AA1BBB1B51E107C0AA1FBB1FF4
:102C0000A617B70710F0A61BB70B881F991F5A9578
:102C1000A9F780959095BC01CD0108950F931F935E
:102C2000CF93DF938230910510F482E090E0E09141
:102C30000904F0910A0430E020E0B0E0A0E0309711
:102C400099F42115310509F44AC0281B390B2430A9
:102C50003105D8F58A819B816115710589F1FB01E8
:102C600093838283FE0111C04081518102811381CF
:102C700048175907E0F04817590799F4109761F081
:102C800012960C93129713961C933296CF01DF91F4
:102C9000CF911F910F9108950093090410930A0496
:102CA000F4CF2115310551F04217530738F0A9012F
:102CB000DB019A01BD01DF01F801C1CFEF01F9CFBE
:102CC00090930A0480930904CDCFFE01E20FF31F15
:102CD000819391932250310939832883D7CF209152
:102CE000070430910804232B41F4209131013091E5
:102CF0003201309308042093070420912F01309172
:102D000030012115310541F42DB73EB74091330113
:102D100050913401241B350BE0910704F091080415
:102D2000E217F307A0F42E1B3F0B2817390778F0A2
:102D3000AC014E5F5F4F2417350748F04E0F5F1F01
:102D40005093080440930704819391939FCFF0E040
:102D5000E0E09CCFCF93DF930097E9F0FC0132973E
:102D600013821282A0910904B0910A04ED0130E0AF
:102D700020E01097A1F420813181820F931F2091D0
:102D80000704309108042817390709F061C0F0934F
:102D90000804E0930704DF91CF910895EA01CE176C
:102DA000DF07E8F54A815B819E0141155105B1F7C6
:102DB000E901FB83EA8349915991C40FD51FEC17B0
:102DC000FD0761F4808191810296840F951FE901CE
:102DD00099838883828193819B838A83F0E0E0E0FA
:102DE00012968D919C9113970097B9F52D913C9176
:102DF0001197CD010296820F931F20910704309105
:102E000008042817390739F6309751F510920A044B
:102E100010920904B0930804A0930704BCCFD38395
:102E2000C28340815181840F951FC817D90761F46F
:102E30004E5F5F4F88819981480F591F51834083AE
:102E40008A819B81938382832115310509F0B0CF5C
:102E5000F0930A04E09309049ECFFD01DC01C0CF8A
:102E600013821282D7CFB0E0A0E0E9E3F7E10C943F
:102E70009C158C01009751F4CB010E940E168C0119
:102E8000C801CDB7DEB7E0E10C94B815FC01E60F40
:102E9000F71F9C0122503109E217F30708F49DC087
:102EA000D901CD91DC911197C617D70798F0C5309D
:102EB000D10530F3CE0104978617970708F3C61B98
:102EC000D70B2297C193D1936D937C93CF010E942E
:102ED000AA16D6CF5B01AC1ABD0A4C018C0E9D1E02
:102EE000A0910904B0910A04512C412CF12CE12C41
:102EF000109731F580910704909108048815990581
:102F000009F05CC04616570608F058C080912F01A2
:102F100090913001009741F48DB79EB740913301F5
:102F200050913401841B950BE817F90708F055C040
:102F3000F0930804E0930704F90171836083A0CF44
:102F40008D919C91119712966C90129713967C908C
:102F50001397A815B90559F56C0142E0C40ED11CB0
:102F6000CA14DB0420F1AC014A195B09DA0112969C
:102F7000159780F06282738251834083D9016D93EB
:102F80007C93E114F10471F0D7011396FC93EE9356
:102F9000129776CF22968C0F9D1FF9019183808323
:102FA000F301EFCFF0930A04E093090469CF4816C8
:102FB000590608F42C017D01D3019ACFCB010E9460
:102FC0000E167C01009749F0AE01B8010E9400186E
:102FD000C8010E94AA16870153CF10E000E050CF2D
:102FE0009111089581548A5108F4805E855A08959C
:102FF0009111089581568A5108F480528558089598
:10300000FB01DC0102C001900D9241505040D8F705
:103010000895FC018191861721F08823D9F799271B
:1030200008953197CF010895FB01DC018D91019046
:1030300080190110D9F3990B0895FB01DC0101906F
:103040000D920020E1F70895FB01DC014150504052
:1030500030F08D910190801919F40020B9F7881B88
:10306000990B0895AEE0B0E0E8E3F8E10C94A81500
:103070000D891E8986E08C831A8309838FEF9FE771
:103080009E838D83AE01475E5F4F6F89788DCE0141
:1030900001960E9455182F813885020F131FF801E1
:1030A00010822E96E4E00C94C415ABE0B0E0EBE5A2
:1030B000F8E10C949A157C013B018A01FC0117820E
:1030C0001682838181FFC8C1CE0101965C01F701A0
:1030D0009381F30193FD859193FF81913F018823B3
:1030E00009F453C1853239F493FD859193FF8191A1
:1030F0003F01853229F4B70190E00E94451AE7CFDD
:10310000912C212C312CFFE1F31538F08B3211F189
:1031100090F4803209F1833229F137FC3CC020ED74
:10312000280F2A3050F536FE20C08AE0989E200DE8
:103130001124922E06C08D3291F0803371F768947D
:1031400030F8F30193FD859193FF81913F01811147
:10315000DACF21C0689431F8689432F8F2CF6894DD
:1031600033F8EFCF689434F8ECCFEAE02E9E200DD0
:103170001124222E689435F8E4CF8E3229F436FCDF
:1031800004C1689436F8DDCF8C3619F4689437F8AA
:10319000D8CF8836B1F2982F9F7D95549330E0F0C8
:1031A0008336A1F18337C1F1833509F063C028016B
:1031B000F2E04F0E511CF801C080D180692D70E003
:1031C00036FC02C06FEF7FEFC6010E942F1A4C0140
:1031D000689437F882010AC00C5F1F4FFFE3F98340
:1031E00088248394912C6501E89437F833FE2DC030
:1031F000522C8114910471F5552009F468CFB70160
:1032000080E290E00E94451A5A94F6CFF80180813E
:1032100089830E5F1F4FE4CF2801F2E04F0E511C4F
:10322000F801C080D180692D70E036FC02C06FEFDC
:103230007FEFC6010E943A1A4C018201D5CFB70137
:1032400080E290E00E94451A2A942814190409F09B
:10325000B0F7CECFF60137FC859137FE81916F0133
:10326000B70190E00E94451A51105A94F1E08F1A6C
:103270009108BFCF843619F0893609F077C0F8017C
:1032800037FE6BC060817181828193810C5F1F4F1B
:10329000F32DFF763F2E97FF09C09095809570958E
:1032A00061957F4F8F4F9F4F689437F82AE030E049
:1032B000A5010E94751AC82ECA188C2C432C36FE04
:1032C0000CC0E89440F8C91440F434FE05C032FC48
:1032D00003C0F32DFE7E4F2E892C44FE95C0FE01C7
:1032E000EC0DF11D8081803309F087C0242D297EEB
:1032F000422E842D8870582E43FC95C040FE8FC00E
:103300009C2C821418F42C0C922C981844FE91C01A
:10331000B70180E390E00E94451A42FE09C088E7A9
:1033200090E041FE02C088E590E0B7010E94451A96
:10333000C91408F48AC0CA94D12C9FEFC91AD90ABB
:10334000CA0CDB1CF60182916F01B70190E00E946C
:10335000451AAC14BD04B1F74FCF60817181072EBF
:10336000000C880B990B0E5F1F4F92CFD32CE89463
:10337000D4F82AE030E0853739F1232D297FD22E89
:103380008F3601F148F48835A9F0F70186819781DD
:103390002B96E2E10C94B615803749F08837A9F7EF
:1033A000D4FE02C06894D2F820E130E00DC06894E9
:1033B000D4F8F6CF34FE03C0822F8660D82E20E1E9
:1033C00032E002C028E030E0F801D7FE0FC0608193
:1033D0007181828193810C5F1F4FA5010E94751A34
:1033E000C82ECA183D2CE89437F867CF60817181E8
:1033F00090E080E00E5F1F4FF0CF42FC02C083944C
:1034000078CF8394839475CF842D867809F471CF17
:10341000F6CFB70180E290E00E94451A83948214AF
:10342000C0F3512C73CF522C5818821408F46ECF6D
:10343000F8CF842D867809F47BCF8BE241FE80E2C1
:1034400047FC8DE2B70190E071CFB70180E390E0D7
:103450000E94451A9A946CCF8FEF9FEF99CFFC0191
:103460000590615070400110D8F7809590958E0FAF
:103470009F1F0895FC016150704001900110D8F722
:10348000809590958E0F9F1F08950F931F93CF9354
:10349000DF93182F092FEB018B8181FD09C01FEFEE
:1034A0000FEF812F902FDF91CF911F910F910895F2
:1034B00082FF14C02E813F818C819D81281739079E
:1034C0003CF4E881F981CF010196998388831083C8
:1034D0008E819F8101969F838E83E3CFE885F98556
:1034E000812F0995892BA1F3DACFFA01AA27283079
:1034F00051F1203181F1E8946F936E7F6E5F7F4FC1
:103500008F4F9F4FAF4FB1E03ED0B4E03CD0670F3C
:10351000781F891F9A1FA11D680F791F8A1F911D8F
:10352000A11D6A0F711D811D911DA11D20D009F4DF
:1035300068943F912AE0269F11243019305D319321
:10354000DEF6CF010895462F4770405D4193B3E00A
:103550000FD0C9F7F6CF462F4F70405D4A3318F0B1
:10356000495D31FD4052419302D0A9F7EACFB4E062
:10357000A6959795879577956795BA95C9F700971A
:103580006105710508959B01AC010A2E06945795BB
:10359000479537952795BA95C9F7620F731F841F12
:0A35A000951FA01D0895F894FFCFB9
:1035AA000500FFFFFFFFFFFFFFFFFF00E100000034
:1035BA0000000050434220312E300000442D413398
:1035CA0032300000003C00FFFFC80001000000008C
:1035DA00000B0480003038313500312E3200544956
:1035EA004C4C45522D0054494C4C455220312043F5
:1035FA0050542C2076312E32204D415100000000CB
:10360A0000ED0368030E040304940412047004001A
:10361A00C180810000000D0A003031323334353662
:10362A0037383941424344454600494E313A2530FC
:10363A0038623B0041373A253034643B00494445FF
:10364A004E54004944454E543A002C20534E3A00F9
:10365A00564552005645523A005245534554005277
:10366A004553455454494E473B00524551004C4539
:10367A0044313A253038623B0042523A25643B00D5
:10368A004252004C4544313A0044494147004449BA
:10369A0041473A53544152543B00534D4F00534D06
:1036AA004F3A25643B00444244004442443A25646C
:1036BA003B005345542000454E4100534554204594
:1036CA004E413E203B0053455420454E413A464127
:1036DA00494C203B00534E00455849540053455429
:1036EA0020534E3A4F4B3A0053455420534E3A46D4
:1036FA004F524D4154203B0053455420455849549C
:10370A003A4F4B203B005752490057524954450003
:10371A0059455300534554205752493A4F4B203B81
:10372A0000534554205752493A464F524D4154206E
:10373A003B0057524954453A4F4B203B0057524998
:10374A0054453A4C4F434B4544203B00444941477A
:10375A003A464144455F55505F444F4E453B00440D
:10376A004941473A484F4C44494E473B0044494136
:10377A00473A464144455F444F574E5F444F4E4592
:10378A003B00444941473A434F4D504C4554453B11
:10379A0000504F53543A4F4B3B0052454144593B1A
:0237AA0000001D
:00000001FF
