:100000000C9435010C9466010C9466010C94660105
:100010000C9466010C9466010C9466010C946601C4
:100020000C9466010C9466010C9466010C946601B4
:100030000C9466010C9466010C9466010C946601A4
:100040000C9466010C9466010C9466010C94660194
:100050000C9466010C9466010C9466010C94C8081B
:100060000C9466010C943C090C9412090C946601E2
:100070000C9466010C9466010C9466010C94660164
:100080000C9466010C9466010C9466010C94660154
:100090000C9466010C9466010C9466010C94660144
:1000A0000C9466010C9466010C9466010C94660134
:1000B0000C9466010C9466010C9466010C94660124
:1000C0000C9466010C9466010C9466010C94660114
:1000D0000C9466010C9466010C9466010C94660104
:1000E0000C9466010C949C030C9433030C94D7017C
:1000F0000C94EB010C94B0010C94B8010C94CF015A
:100100000C94E1010C94B4010C9464030C94C901A7
:100110000C94D3010C9406030C9442030C945603E4
:100120000C94E5010C94BF010C94DD010C94BC010E
:100130000C94B2120C94C5010C94E9030C94EA01DE
:100140000C94EF010C94AA01000021002400270068
:100150002A002D00300033000101000004010701D6
:100160000A0100002200250028002B002E0031008B
:10017000340002010000050108010B01000020000D
:100180002300260029002C002F003200000100006F
:10019000030106010901050505050705080808080A
:1001A000020202020A0A080804040404010101010F
:1001B000010101010303030303030303040707070A
:1001C0000C0C0C0C0C0C0C0C0202020206060606AF
:1001D000060606060B0B0B0B0B0B0B0B010210207C
:1001E000200808102040102040800201020108046D
:1001F0000201010204081020408080402010080401
:100200000201800402018040201008040201080459
:10021000020101020408102040800102040810209D
:10022000408000000A0B02090C0D0E0807030401B0
:1002300000000000000000000000000000000000BE
:10024000000000000000000000000000000012118B
:10025000100000000000000000000000000000008E
:100260000000000000000000B21211241FBECFEFFA
:10027000D1E2DEBFCDBF00E00CBF15E0A0E0B2E0F0
:10028000E6ECFEE200E00BBF02C007900D92AA3040
:10029000B107D9F726E0AAE0B5E001C01D92A83762
:1002A000B207E1F711E0C5E3D1E000E006C0219715
:1002B0000109802FFE010E941014C433D10780E091
:1002C0000807A9F70E948D090C9461170C9400008F
:1002D000CF93DF93FC01389623E030E0EC01A99145
:1002E000CE012A0F311DEC17FD07C1F7FB01CB0131
:1002F00008966191260F311D8E179F07D1F7FA01DD
:10030000CA0109964191240F311D8E179F07D1F71D
:10031000822FDF91CF9108958150823108F05AC029
:10032000E82FF0E08827E856FE4F8F4F0C9410140A
:10033000B801BC01AA01B001B401EA01BF01C501C5
:10034000C901CF01D301D701DD01E101EA01E501D6
:10035000EB01EF01809180008F77809380000895FA
:10036000809180008F7DF9CF80918000877FF5CFCD
:1003700084B58F7784BD089584B58F7DFBCF809140
:10038000B0008F778093B00008958091B0008F7D8A
:10039000F9CF809190008F7780939000089580919D
:1003A00090008F7DF9CF80919000877FF5CF80916D
:1003B000A0008F778093A00008958091A0008F7D8A
:1003C000F9CF8091A000877FF5CF809120018F77B2
:1003D000809320010895809120018F7DF9CF809135
:1003E0002001877FF5CFCF93DF93282F30E0F901ED
:1003F000EE5DFD4F8491F901E452FE4FD491F90175
:10040000EA56FE4FC491CC23A1F081110E948C01C9
:10041000EC2FF0E0EE0FFF1FE458FE4FA591B491D2
:10042000EC91ED2381E090E009F480E0DF91CF9141
:10043000089580E090E0FACF1F93CF93DF93282FA9
:1004400030E0F901EE5DFD4F8491F901E452FE4F79
:10045000D491F901EA56FE4FC491CC23A9F0162F8E
:1004600081110E948C01EC2FF0E0EE0FFF1FEE597E
:10047000FE4FA591B4918FB7F894EC91111108C07B
:10048000D095DE23DC938FBFDF91CF911F9108952C
:10049000DE2BF8CFCF93DF9390E0FC01E452FE4FC8
:1004A00024918A569E4FFC0184918823C9F090E0E4
:1004B000880F991FFC01E85BFE4FA591B491FC01E8
:1004C000EE59FE4FC591D49161110DC09FB7F894BC
:1004D0008C91209582238C938881282328839FBF29
:1004E000DF91CF910895623051F49FB7F8943C9119
:1004F000822F809583238C93E8812E2BEFCF8FB7AB
:10050000F894EC912E2B2C938FBFEACF863308F012
:10051000865320917B00982F9870277F922B909381
:100520007B008770806480937C0080917A00806477
:1005300080937A0080917A0086FDFCCF80917800CC
:100540009091790008953FB7F8948091C9059091F2
:10055000CA05A091CB05B091CC0526B5A89B05C0D6
:100560002F3F19F00196A11DB11D3FBFBA2FA92F32
:10057000982F8827BC01CD01620F711D811D911D2F
:1005800042E0660F771F881F991F4A95D1F708959B
:100590008F929F92AF92BF92CF92DF92EF92FF9293
:1005A0004B015C010E94A3026B017C010E94A3022B
:1005B0006C197D098E099F09683E7340810591057C
:1005C000A8F321E0821A9108A108B10888EEC80EAC
:1005D00083E0D81EE11CF11C81149104A104B10434
:1005E00029F7FF90EF90DF90CF90BF90AF909F9052
:1005F0008F9008952FB7F8946091C5057091C60546
:100600008091C7059091C8052FBF0895AF92BF9202
:10061000CF92DF92EF92FF920F931F93CF93DF93CE
:100620006C017B018B01040F151FEB015E01AE18FD
:10063000BF08C017D10759F06991D601ED91FC911F
:100640000190F081E02DC6011995892B79F7C5013C
:10065000DF91CF911F910F91FF90EF90DF90CF909E
:10066000BF90AF900895FC01538D448D252F30E04D
:10067000842F90E0821B930B541710F0CF960895AF
:1006800001970895FC01918D828D981761F0A28DDC
:10069000AE0FBF2FB11D5D968C91928D9F5F9F73A2
:1006A000928F90E008958FEF9FEF0895FC01918D58
:1006B000828D981731F0828DE80FF11D858D90E0C5
:1006C00008958FEF9FEF0895FC01918D228D892F62
:1006D00090E0805C9F4F821B91098F73992708954A
:1006E00087ED95E00E94640321E0892B09F420E066
:1006F000822F0895FC01A48DA80FB92FB11DA35A14
:10070000BF4F2C91848D90E001968F739927848F31
:10071000A689B7892C93A089B1898C918370806454
:100720008C93938D848D981306C00288F389E02DF5
:1007300080818F7D80830895EF92FF920F931F93A6
:10074000CF93DF93EC0181E0888F9B8D8C8D981384
:100750001AC0E889F989808185FF15C09FB7F89490
:10076000EE89FF896083E889F989808183708064DC
:1007700080839FBF81E090E0DF91CF911F910F9127
:10078000FF90EF900895F62E0B8D10E00F5F1F4F36
:100790000F731127E02E8C8D8E110CC00FB607FC45
:1007A000FACFE889F989808185FFF5CFCE010E94D3
:1007B0007A03F1CFEB8DEC0FFD2FF11DE35AFF4FC4
:1007C000F0829FB7F8940B8FEA89FB898081806261
:1007D000CFCFCF93DF93EC01888D8823B9F0AA891E
:1007E000BB89E889F9898C9185FD03C0808186FDEC
:1007F0000DC00FB607FCF7CF8C9185FFF2CF80813B
:1008000085FFEDCFCE010E947A03E9CFDF91CF9132
:10081000089580E090E0892B29F00E9470038111F7
:100820000E94000080E090E0892B49F080E090E099
:10083000892B29F00E94000081110E94000080E0B5
:1008400090E0892B49F080E090E0892B29F00E940C
:10085000000081110E94000080E090E0892B49F0A7
:1008600080E090E0892B29F00E94000081110C9417
:1008700000000895AF92BF92CF92DF92EF92FF9265
:100880000F931F93CF93DF9379E2A72E72E0B72ED9
:10089000EAE2EE2EE5E0FE2ECAE0D5E0FEE9CF2E3C
:1008A000F5E0DF2E10E000E0F50181915F010E948C
:1008B0008602F70121917F0130E0F801EE0FFF1F62
:1008C000EE0FFF1FE20FF31FEE0FFF1FE65FFA4F61
:1008D00091838083F70131972F5F3F4F2370332738
:1008E0002083288139818A819B81B0E0A0E0820F3A
:1008F000931FA11DB11D2C813D81820F931FA11D4E
:10090000B11D2E813F81820F931FA11DB11D62E099
:10091000B695A795979587956A95D1F7F601819336
:1009200091936F010F5F1F4F28960430110509F056
:10093000BBCFDF91CF911F910F91FF90EF90DF9090
:10094000CF90BF90AF90089580E090E0E82FF0E066
:10095000E75FFD4F2081222339F0983028F42032C0
:1009600009F09F5F8F5FF2CF0895FC01208101960F
:100970002032D9F341E050E02D3219F4FC014FEF61
:100980005FEF30E020E0AAE0819190ED980F9A307F
:1009900068F4A29FB001A39F700D1124082E000CD3
:1009A000990BC0979C01260F371FEECF249FC001E3
:1009B000259F900D349F900D11240895FC01DB01BB
:1009C0009D91BD01992379F021918FE9820F8A31A0
:1009D00008F420528FE9890F8A3108F490522917C0
:1009E00071F380E0089581E00895DC01FB012D9111
:1009F0009191222381F0992371F08FE9820F8A313E
:100A000008F420528FE9890F8A3108F4905229178F
:100A100071F380E003C081E02913FBCF0895FC014E
:100A200027E030E070E0AB01022E02C055954795FB
:100A30000A94E2F740FD08C040E341932150310998
:100A400090F7FC011086089541E3F7CFFC01019077
:100A50000020E9F73197AF01481B590BBC0187ED26
:100A600095E00C9406038BE392E00C9426058F929C
:100A70009F92AF92BF920F931F93CF93DF93CDB707
:100A8000DEB7A1970FB6F894DEBF0FBECDBF19A297
:100A9000423008F44AE08E010F5D1F4F842E912CE6
:100AA000B12CA12CA50194010E94CB13E62FB90112
:100AB000CA01EA30F4F4E05DD801EE938D01232BF6
:100AC000242B252B79F790E080E0109719F0CD01C9
:100AD0000E942605A1960FB6F894DEBF0FBECDBFCB
:100AE000DF91CF911F910F91BF90AF909F908F900A
:100AF0000895E95CE1CFCF92DF92EF92FF92CF931E
:100B0000DF936B017C016DE287ED95E00E949C0311
:100B1000EC0166277727CB016C197D098E099F09A7
:100B20004AE00E9437058C0F9D1FDF91CF91FF9007
:100B3000EF90DF90CF900895CF93DF930E9426052A
:100B4000EC010E9433058C0F9D1FDF91CF9108951A
:100B5000009711F00C94260590E080E0089589E458
:100B600092E00E94A80580E592E00E94A80580918D
:100B7000CD05882361F082E692E00E94A80581E31A
:100B800092E00E94A8058DEC95E00E94A80588E6F9
:100B900092E00E94A80580E092E00E94A80589E307
:100BA00094E00C949C05682F70E090E080E04AE0AF
:100BB0000C943705EF92FF921F93CF93DF9300D0F1
:100BC00000D000D0CDB7DEB794EBE92E95E0F92E3A
:100BD00010E0F70161917F01CE0101960E940F059F
:100BE0008CE792E00E94A805812F0E94D30580EE39
:100BF00093E00E94A805CE0101960E94A80589E312
:100C000094E00E94A8051F5F1A3019F78EE9E82EBC
:100C100085E0F82E10E08FE792E00E94A805812F72
:100C20000E94D30580EE93E00E94A805F701619130
:100C300071917F0190E080E04AE00E94370589E3EE
:100C400094E00E94A8051F5F143029F70E94330525
:100C50000E94FA0210929D0529960FB6F894DEBF05
:100C60000FBECDBFDF91CF911F91FF90EF90089500
:100C7000AF92BF92CF92DF92EF92FF920F931F93AA
:100C8000CF93DF93F82EE62EB42E122FD32E60E0F2
:100C90008E2D0E941C02CBE4D0E0CE010197F1F72B
:100CA00061E08E2D0E941C022197F1F7A12EC12F29
:100CB000DD2D87E0C82ED12C10E061E08F2D0E9441
:100CC0001C028B2D0E94F3010C2C01C0880F0A948A
:100CD000EAF7182B60E08F2D0E941C0281E0C81AF1
:100CE000D10858F7109519938C2F8A19801708F39B
:100CF00060E08E2D0E941C02CBE4D0E0CE01019773
:100D0000F1F761E08E2D0E941C022197F1F7C0E1FE
:100D1000D0E00FE010E060E08F2D0E941C02C801BF
:100D20000197F1F761E08F2D0E941C02C801019725
:100D3000F1F7219781F7DF91CF911F910F91FF90EC
:100D4000EF90DF90CF90BF90AF9008950F93CF9327
:100D500002E024EB35E04AE068E089E00E943806D2
:100D600004E026EB35E041E16FE080E10E943806C7
:100D700003E02AEB35E04AE268E287E20E943806A7
:100D800085E10E94F301C1E0892B09F0C0E086E112
:100D90000E94F301892B09F4C260C093BD05CF9175
:100DA0000F910895CF92DF92EF92FF920F931F93CE
:100DB000CF93DF93F82E162FE42E690160E0812F88
:100DC0000E941C020150F601E00FF11D07FDFA958B
:100DD000D081C8E06D2F661F6627661F8E2D0E948A
:100DE0001C02DD0F61E08F2D0E941C0260E08F2D40
:100DF0000E941C02C15071F7015028F761E0812F59
:100E0000DF91CF911F910F91FF90EF90DF90CF90E6
:100E10000C941C020F93CF9304E029E335E047E0E4
:100E200065E086E00E94D2062DE335E044E062E012
:100E300083E00E94D20602E021E435E04EE06BE060
:100E40008CE00E94D20603E023E435E044E162E155
:100E500083E10E94D20604E026E435E04BE269E239
:100E60008CE20E94D206C0914A056C2F61708EE21E
:100E70000E941C02C1FB662760F980E3CF910F91AD
:100E80000C941C02CF92DF92EF92FF920F931F936C
:100E9000CF93DF93CDB7DEB761970FB6F894DEBF7F
:100EA0000FBECDBF86E30E9486028C0187E30E94BD
:100EB0008602080F191F88E30E948602080F191F77
:100EC00089E30E9486027C010E94A30298012E0DF4
:100ED0003F1D8901330F220B330B600F711F821FDF
:100EE000931F611571058105910511F00E947A1318
:100EF00081E1E3E8F2E0DE01119601900D928A951E
:100F0000E1F70DEC15E080E1C82ED12CE12CF12C9D
:100F10000E942B13A70196010E94991321E030E053
:100F20002C0F3D1F620F731FFB018081F80181931D
:100F30008F01F5E0053D1F0759F71092D505619621
:100F40000FB6F894DEBF0FBECDBFDF91CF911F91DA
:100F50000F91FF90EF90DF90CF900895E9E3F5E0D7
:100F600082E1DF011D928A95E9F70C940A070C943F
:100F70008313FF920F931F93CF93DF93EC01F62E11
:100F800008811981C8010E948313F81621F06F2D82
:100F9000C8010E948B13CE01DF91CF911F910F9159
:100FA000FF9008954F925F926F927F928F929F92DF
:100FB000AF92BF92CF92DF92EF92FF920F931F9367
:100FC000CF93DF93CDB7DEB76B970FB6F894DEBF44
:100FD0000FBECDBF20E032E0F90101900020E9F71B
:100FE0009F01215032405E01FAE0AF0EB11CF501C5
:100FF00090E080E0450140E28217930724F4DC0191
:10100000A050BE4F4C91419301968830910599F7BD
:1010100029E032E0F90101900020E9F79F012A5010
:1010200032406E01F2E1CF0ED11CF60190E080E07B
:10103000360140E28217930724F4DC01A75FBD4F1D
:101040004C91419301968830910599F72DEC35E04C
:10105000F90101900020E9F79F012E5C3540CE0197
:1010600001967C01FC0190E080E0270140E28217BC
:10107000930724F4DC01A353BA4F4C91419301969A
:101080008830910599F719861B8E1A8E6AE5CE0174
:101090004A960E94B90781E090E09B8F8A8F65EAAB
:1010A000CE014A960E94B90782E090E09B8F8A8F1A
:1010B00063E0CE014A960E94B90703E010E0F50113
:1010C00061915F011B8F0A8FCE014A960E94B9077A
:1010D0000F5F1F4F0B30110591F7F60161916F0102
:1010E0001B8F0A8FCE014A960E94B9070F5F1F4FD0
:1010F0000331110591F7F70161917F011B8F0A8F71
:10110000CE014A960E94B9070F5F1F4F0C3111059F
:1011100091F7A201B301C4010E9468011B8F0A8FDD
:10112000682FCE014A960E94B90784E992E00E9496
:10113000A80580E092E00E94A80583EA92E00E9460
:10114000A80589E092E00E94A8058FE393E00E9441
:10115000A80581E392E00E94A8058DEC95E00E942D
:101160009C056B960FB6F894DEBF0FBECDBFDF9126
:10117000CF911F910F91FF90EF90DF90CF90BF9094
:10118000AF909F908F907F906F905F904F90089559
:101190001F920F920FB60F9211242F933F938F93AC
:1011A0009F93AF93BF938091C5059091C605A09181
:1011B000C705B091C8053091C40523E0230F2D3732
:1011C00058F50196A11DB11D2093C4058093C50556
:1011D0009093C605A093C705B093C8058091C90533
:1011E0009091CA05A091CB05B091CC050196A11DA7
:1011F000B11D8093C9059093CA05A093CB05B09308
:10120000CC05BF91AF919F918F913F912F910F90FE
:101210000FBE0F901F90189526E8230F0296A11D70
:10122000B11DD2CF1F920F920FB60F9211240BB6A1
:101230000F922F933F934F935F936F937F938F936F
:101240009F93AF93BF93EF93FF9387ED95E00E9439
:101250007A03FF91EF91BF91AF919F918F917F9111
:101260006F915F914F913F912F910F900BBE0F9017
:101270000FBE0F901F9018951F920F920FB60F92EE
:1012800011240BB60F922F938F939F93EF93FF939D
:10129000E091E705F091E8058081E091ED05F0919E
:1012A000EE0582FD1DC090818091F0058F5F8F73E8
:1012B0002091F105821741F0E091F005F0E0E9524C
:1012C000FA4F958F8093F005FF91EF919F918F9149
:1012D0002F910F900BBE0F900FBE0F901F9018957F
:1012E0008081F2CF882371F08EE392E00E949C050A
:1012F00087ED95E00E94E90364E670E080E090E00D
:101300000E94C80288E198E00FB6F894A8958093EF
:1013100060000FBE90936000FFCFCF93DF93CDB7F7
:10132000DEB7C25AD1090FB6F894DEBF0FBECDBFEB
:10133000789484B5826084BD84B5816084BD85B5B0
:10134000826085BD85B5816085BD80916E008160BC
:1013500080936E0010928100809181008260809362
:101360008100809181008160809381008091800064
:101370008160809380008091B10084608093B1008F
:101380008091B00081608093B00080919100826074
:101390008093910080919100816080939100809171
:1013A00090008160809390008091A1008260809382
:1013B000A1008091A10081608093A1008091A00094
:1013C00081608093A000809121018260809321013F
:1013D00080912101816080932101809120018160B1
:1013E0008093200180917A00846080937A008091BC
:1013F0007A00826080937A0080917A008160809385
:101400007A0080917A00806880937A001092C100FF
:101410000FB6F894A8958091600088618093600071
:10142000109260000FBEE091E705F091E80582E0C0
:101430008083E091E305F091E4051082E091E505F9
:10144000F091E60580E180831092EF05E091EB05D5
:10145000F091EC0586E08083E091E905F091EA05E2
:10146000808180618083E091E905F091EA058081C7
:1014700088608083E091E905F091EA0580818068C9
:101480008083E091E905F091EA0580818F7D80837A
:1014900061E089E00E944A0261E088E00E944A021D
:1014A00060E08AE00E944A0261E080E10E944A0214
:1014B00061E08FE00E944A0260E081E10E944A02FE
:1014C00061E087E20E944A0261E088E20E944A02EB
:1014D00060E08AE20E944A0262E085E10E944A02DC
:1014E00062E086E10E944A0261E086E00E944A02D0
:1014F00061E085E00E944A0261E087E00E944A02C2
:1015000061E083E00E944A0261E082E00E944A02B8
:1015100061E084E00E944A0261E08CE00E944A029D
:1015200061E08BE00E944A0261E08EE00E944A0284
:1015300061E083E10E944A0261E082E10E944A0286
:1015400061E084E10E944A0261E08CE20E944A026A
:1015500061E089E20E944A0261E08BE20E944A0255
:1015600061E08EE20E944A0261E080E30E944A024A
:1015700060E08BE30E944A0260E08CE30E944A0232
:1015800060E08DE30E944A0260E08EE30E944A021E
:1015900090E080E00E94B707182F81E090E00E9461
:1015A000B707982F812F8A35954AA9F089EA92E0EA
:1015B0000E949C050E9442070E94D20783EC92E0A1
:1015C0000E94A80581E392E00E94A8058DEC95E0B9
:1015D0000E949C054EC082E090E00E94B707D82E82
:1015E0005E0131E6A30EB11C750103E010E0C801F5
:1015F0000E94B707D7018D937D010F5F1F4F0B30FE
:101600001105A9F77E01B1E4EB0EF11C4701C801F9
:101610000E94B707F40181934F010F5F1F4F033101
:101620001105A9F7D50118961C92F7011086F2E072
:10163000FD1538F00E9442070E94D2078FEC92E01D
:10164000BFCF23E0D21609F481C08FED92E00E9453
:10165000A8058D2D0E94D3058CEF92E00E94A8056D
:1016600083E00E94D3050E9433050E9442070E9436
:10167000D2070E94AE070E94A6060E943A048AE0A2
:10168000E4EBF5E0AAEAB5E001900D928A95E1F766
:1016900088E0EEE9F5E0A5E9B5E001900D928A95C4
:1016A000E1F781E090E09093C3058093C20511E0DB
:1016B00010939D0580914C0581110AC066E970E088
:1016C00080E090E00E94C8020E94AF0510934C0594
:1016D00081E393E00E94A80581E392E00E94A805BF
:1016E0008DEC95E00E949C051E01F1E42F0E311C4B
:1016F0000E94FA024B015C018091C2059091C305E2
:101700008230910509F02DC20E94FA026B017C0122
:101710000E94A60680918D058111ADC081E0809365
:101720008D051092380510923705C0923305D0927E
:101730003405E0923505F092360584E493E00E948A
:101740009C050E94AE070E940904D2CFAE014F5FF4
:101750005F4F6A014A01C8010E94B707D4018D9307
:101760004D010F5F1F4F0C311105A9F71A868CE14F
:1017700090E00E94B707182FA601B701C5010E948B
:101780006801181729F08FEF92E00E949C056DCF39
:10179000A501485F5F4F90E080E0F50121915F0176
:1017A000322F3F7D29F0FC01E050FE4F208301964F
:1017B000A416B50691F7009721F080509E4FDC01EA
:1017C0001C92A701485F5F4F90E080E0F7012191F4
:1017D0007F01322F3F7D29F0FC01E75FFD4F208321
:1017E0000196E416F50691F7009721F0875F9D4F6B
:1017F000DC011C92A601485F5F4F90E080E0F6019B
:1018000021916F01322F3F7D29F0FC01E353FA4F04
:10181000208301964C155D0591F7FC01E353FA4FC7
:101820001082892B29F50E9442070E94D20783EC7F
:1018300092E00E94A80581E392E00E94A8058DEC49
:1018400095E00E949C050E94A40483E293E00E941C
:10185000A80580E092E00E94A80583EA92E00E9439
:10186000A80589E092E00E94A8058FE393E0A8CE46
:1018700084E193E0DECF8091330590913405A0910F
:101880003505B0913605A7019601281B390B4A0B87
:101890005B0BDA01C90180319742A105B10578F0EF
:1018A00081E090E09093C3058093C20510928D056E
:1018B0000E94AE078FE493E00E949C0544CF809184
:1018C0002F0590913005A0913105B0913205B701F7
:1018D000A601481B590B6A0B7B0BDB01CA0184363E
:1018E0009105A105B105E0F0C0922F05D092300519
:1018F000E0923105F092320510912E05163008F075
:10190000ABC010FDABC042E150E06FEF70E089E387
:1019100095E00E944B140E940A071F5F10932E054A
:101920004AE050E06AEA75E084EB95E00E942C14EE
:10193000892B09F455C0C0923305D0923405E0924A
:101940003505F09236059091B4058091AA05981757
:1019500009F446C0892780FF43C090FF41C08091B1
:10196000370590913805019664E070E00E94FC1301
:1019700090933805809337058AE0E4EBF5E0AAEA16
:10198000B5E001900D928A95E1F782E693E00E941E
:10199000A8056091370570913805072E000C880B5B
:1019A000990B97FF61C00E947B050E9433058091CF
:1019B000370590913805009709F05AC08DE693E0FD
:1019C0000E949C0581E090E090938F0580938E05A6
:1019D000C0929005D0929105E0929205F092930505
:1019E00000918E0510918F050130110509F0ABCEE5
:1019F0008091900590919105A0919205B0919305E9
:101A0000A7019601281B390B4A0B5B0BCA01B901D0
:101A100028EC30E040E050E00E94CB13CA01B9014D
:101A200020E930E040E050E00E94CB136B010E94BF
:101A3000AE07F60153E0F595E7955A95E1F7E75CB7
:101A4000FA4F37E0C322DD2401C0000FCA94EAF741
:101A500000830E940A0777CE1C3018F40E94AE075C
:101A60005CCF10922E055CCF4AE00E9437059DCFD7
:101A70008130910541F58CE793E00E949C0504EBD1
:101A800015E0B12CD8016D918D01CE0101960E9417
:101A90000F058CE792E00E94A8058B2D0E94D305CC
:101AA0008DEF92E00E94A805CE0101960E94A80544
:101AB00089E394E00E94A805B394BAE0BB12E2CF98
:101AC0000E9433058DCF82309105D9F589E893E0E6
:101AD0000E94A8050E94FA0228EE33E040E050E0A0
:101AE0000E94CB13CA01B9014AE00E94370588E978
:101AF00093E00E94A8058091740690917506009766
:101B000011F488E796E0BE016F5F7F4F681B790B89
:101B1000072E000C880B990B97FF0FC00E947B05C6
:101B20008DEA93E00E94A8058DE292E00E94A8054C
:101B300089E394E00E949C0553CF4AE00E94370558
:101B4000EFCF039709F04CCF81E090E09093C3056D
:101B50008093C20510928D050E94AE0787EB93E03B
:101B6000E9CF039739F481E090E09093C305809327
:101B7000C205E9CD87ED95E00E946403892B09F445
:101B8000FCC387ED95E00E9442038D3099F38A30C3
:101B900009F48BE3EDE4F5E001900020E9F7EE5461
:101BA000F540EF33F10520F4E35BFA4F80831182B7
:101BB000662463946BE370E08DE495E00E94521418
:101BC0000097C1F2DC011C92ADE4B5E0AD014F5FBE
:101BD0005F4F2C912032A9F07E01E1E8EE0EF11C5E
:101BE000970170E060E0DE2CCF2C4D91442359F03A
:101BF0006F31710541F0F90141939F016F5F7F4F94
:101C0000F4CFDA01E3CFFB01EE0DFF1D1082EE15DC
:101C1000FF0519F022912032C9F3BC016F5F7F4F9D
:101C2000DB010D900020E9F7AD01461B570B8DE459
:101C300095E00E943914F7018081882309F4BACF16
:101C4000FE01EF59FF4F90E080E08F01D7012D9109
:101C50007D01222359F08F31910541F03FE9320F88
:101C60003A3108F4205221930196F0CF800F911F52
:101C7000FC01108262EC73E0C8010E945D14892BA4
:101C800071F066EC73E0C8010E945D14892B39F095
:101C90006EEC73E0C8010E945D14892B39F40E9438
:101CA000AF0560924C050E94FA0284CF64ED73E0A8
:101CB000C8010E945D14892B39F410924B0581E113
:101CC00094E00E949C0576CF69ED73E0C8010E9404
:101CD0005D14892B01F58DED93E00E94A80560E26B
:101CE00070E089E092E00E9452148C01009781F02C
:101CF000DC0111968C91882359F082EE93E00E94CA
:101D0000A805C80101960E94A80588E394E0D9CFF0
:101D100089E092E0F8CF64EE73E0C8010E945D14A0
:101D2000892B39F48EE392E00E949C0581E00E94A9
:101D300072096AEE73E0C8010E945D14892B19F4E0
:101D40000E94DA0537CF6EEE73E0C8010E945D1481
:101D5000892B01F58091C2059091C305019709F087
:101D600029CFE2E0F0E0F093C305E093C2050E94C2
:101D7000FA02609390057093910580939205909379
:101D8000930510928F0510928E0510928D0583EFAA
:101D900093E097CF6AE370E08D2D9C2D0E94521442
:101DA000892B09F407CFCF92DF9224E034E03F93F0
:101DB0002F931F9280E48F9361E070E06C0F7D1F82
:101DC0007F936F930E947514CE010196CF55DF4F1C
:101DD00099838883C15AD0400FB6F894DEBF0FBEF6
:101DE000CDBF90E080E0CF55DF4FE881F981C15A47
:101DF000D0407190CF55DF4FF983E883C15AD0406E
:101E0000FBE37F1609F493C3772009F4A7C38F314E
:101E100091054CF7F101E80FF91F70820196E3CFAD
:101E20007F012701F70181918032D1F3811103C035
:101E30007110D7CFBFCE6AE370E0C7010E94521481
:101E4000009709F082C062EC73E0C7010E94F504BC
:101E500081110EC066EC73E0C7010E94F504811188
:101E600007C06EEC73E0C7010E94F504882319F0E7
:101E70000E94AF05DDCF6AEE73E0C7010E94F50452
:101E8000882319F00E94DA05D3CF6EEE73E0C70104
:101E90000E94F504882331F08091C2059091C3051A
:101EA0000197F9F068E074E0C7010E94DE0488231E
:101EB00009F4BECFF4E0EF0EF11C87012FEFE21A18
:101EC000F20AD8018C918032C1F364ED73E0C8014D
:101ED0000E94DE04882301F110924B058DE094E00E
:101EE00018C0E2E0F0E0F093C305E093C2050E9461
:101EF000FA026093900570939105809392059093F8
:101F0000930510928F0510928E0510928D0583EF28
:101F100093E00E949C058CCF6BE174E0C8010E94A5
:101F2000DE04882309F484CF80914B05882351F087
:101F30000E94D20710924B0581E294E00E949C051A
:101F400080E0F5CE8CE294E0E4CFDC011D92F70155
:101F500001900020E9F73197EE15FF0529F08291F5
:101F6000803211F41082F8CF6701EFEFEE1AFE0A0B
:101F7000F60180818032C1F38D01780198012F5FD5
:101F80003F4FD8018C91803269F0F8010190002018
:101F9000E9F731970E171F0739F08291803221F44B
:101FA0001082F8CF8901E9CFF60180818C3449F5A0
:101FB0008181853431F58281843419F5C601039617
:101FC0000E94B504823108F033CFFC01FF2790E076
:101FD000D8018D918D01882371F020ED280F2230DA
:101FE000B8F7292F30E0220F331F91E0813309F039
:101FF00090E0922BEDCFE75CFA4F90830E940A07A6
:1020000017CF6BE374E0C6010E94F504811110CF75
:1020100061E474E0C6010E94F504811109CF6AEE03
:1020200073E0C6010E94F504882319F060929D05B3
:10203000FFCE62EC73E0C6010E94F504811118CF57
:1020400069E474E0C6010E94F504882309F474C0B1
:10205000F7018081882309F4EBCE8701D7018C91A9
:10206000BFEFEB1AFB0A8032C1F38B33B1F3882345
:1020700009F4DECE6BE370E0C8010E9452147C01CB
:10208000009711F0FC0110826DE474E0C8010E9419
:10209000DE048823C1F0C80103960E94B50497FDB1
:1020A0000EC0843691056CF480931202E114F104A1
:1020B00009F434C2D701EBE3ED937D01C9CF80E091
:1020C000F3CF83E6F1CF61E574E0C8010E94DE043E
:1020D000882329F0C80103960E94B504E7CF65E57F
:1020E00074E0C8010E94DE048111F4CF67E772E05A
:1020F000C8010E94DE04882361F048E050E0B80186
:102100006C5F7F4F80E092E00E946614109208029C
:10211000CDCF64E672E0C8010E94DE04882331F26C
:1021200048E050E0B8016D5F7F4F8DEC95E00E9474
:1021300066141092D505BACF68E074E0C2010E941F
:10214000DE04882309F474CEF4E04F0E511C7201B2
:102150002FEF421A520AD7018C918032C1F369E500
:1021600074E0C7010E94DE04882379F066E372E020
:10217000C8010E945D14892B29F460924B058DE5FE
:1021800094E0C7CE8AE694E0C4CE64ED73E0C70164
:102190000E94DE048111A0CE69E774E0C7010E94AD
:1021A000DE04811107C06BE174E0C7010E94DE0408
:1021B000882321F080914B058111BACE6DE774E040
:1021C000C7010E94DE04882321F080914B05811114
:1021D00040C060E874E0C7010E94DE04811184C041
:1021E0006AEB74E0C7010E94DE04882309F420CE64
:1021F00080914B05882309F41BCE98012F5F3F4F38
:10220000F8018081803209F493C0D8010D9000203C
:10221000E9F7CD010197801B910B31E088309105E2
:1022200009F030E0F801AF01401B510B4817590786
:102230000CF080C0332309F49DC0219140ED420F82
:102240004A3088F32F7D215431E0263060F330E0AE
:10225000EACF78010F5F1F4FF70180818032C9F309
:102260006EE270E0C7010E9452148C010097C9F120
:10227000E816F906B0F5DC011D926D01C7010E9458
:10228000B5047C01C6010E94B5042EE2F80120834A
:102290009701215031092930310500F58A30910527
:1022A000E8F49F938F93FF92EF9225E834E03F93F9
:1022B0002F931F9289E08F9369E072E07F936F9371
:1022C0000E9475140E94A4048FE894E00E949C056B
:1022D0000FB6F894DEBF0FBECDBFAACD8BE994E058
:1022E00018CE8AEA94E015CE80914B05882309F434
:1022F00077CFB8010F5F1F4FFB0180818032C9F398
:10230000DB010D900020E9F7CD01861B970B0497A8
:10231000069758F448E050E080E092E00E9466148E
:10232000109208028DEB94E0F4CD8BEC94E0F1CDAB
:10233000890163CF3323F1F0EDECF5E09801285FDC
:102340003F4FD8018D918D019FE9980F963008F489
:102350008052819320173107A1F71092D5058DED9A
:1023600094E00E94A80581E392E00E94A8058DEC0C
:1023700095E0CFCD88EE94E0CCCD8091BE059091D4
:10238000BF05A091C005B091C105A5019401281B0E
:10239000390B4A0B5B0BDA01C9010A97A105B1059C
:1023A00008F4D1C98092BE059092BF05A092C005E5
:1023B000B092C1050E94A6060E943A044AE050E08D
:1023C0006AEA75E084EB95E00E942C14892B59F1A0
:1023D0008091A6059091A705A091A805B091A905A7
:1023E000B501A401481B590B6A0B7B0B80911202AB
:1023F00090E0B0E0A0E0481759076A077B0798F023
:102400008092A6059092A705A092A805B092A90572
:102410008AE0E4EBF5E0AAEAB5E001900D928A9536
:10242000E1F70E94DA058091B40587702091C2051A
:102430003091C3052130310509F05FC0873009F0C4
:102440005EC08091940581111DC081E08093940548
:1024500082E090E09093C3058093C2050E94FA0247
:1024600060939005709391058093920590939305E6
:1024700010928F0510928E0510928D0588EF94E0D2
:102480000E949C050EE915E0E5E9F5E0D80190E031
:1024900080E04D915D9121913191BA01621B730BE6
:1024A0009B012B5F3F4F2B30310560F1880F991F47
:1024B000FC01EB56FA4F51834083F12C8FE792E0F9
:1024C0000E94A8058F2D0E94D30580EE93E00E9404
:1024D000A805D8016D917D918D0190E080E04AE0E2
:1024E0000E94370589E394E00E94A805F394B4E0C4
:1024F000FB12E4CF0E94330509C0873019F2109215
:102500009405C0CF01968430910519F680919D0500
:10251000882309F418C90E94DA0515C9F801019049
:102520000020E9F79F0121503109790191CD0097F1
:1025300009F457CC820D931DDC011C92F10101902E
:102540000020E9F7319771012E163F0609F469CC96
:102550008291803209F065CC1082F6CF009709F4A1
:1025600029CBE8CFE7EDF5E01382128288EE93E005
:10257000A0E0B0E084839583A683B7838BE192E0EB
:102580009183808385EC90E09587848784EC90E04C
:102590009787868780EC90E0918B808B81EC90E030
:1025A000938B828B82EC90E0958B848B86EC90E011
:1025B000978B868B118E128E138E148E08958F92A8
:1025C0009F92AF92BF92CF92DF92EF92FF92CF9302
:1025D000DF93EC01688179818A819B8161157105A6
:1025E0008105910521F464E279ED8BE597E02DE119
:1025F00033EF41E050E00E94991349015A019B01D9
:10260000AC01A7EAB1E40E94B8136B017C01ACEE07
:10261000B4EFA50194010E94C613C60ED71EE81E92
:10262000F91EF7FE06C081E0C81AD108E10880E86B
:10263000F80AC882D982EA82FB82C701B6019F7775
:10264000DF91CF91FF90EF90DF90CF90BF90AF9050
:102650009F908F9008958F929F92AF92BF92CF924A
:10266000DF92EF92FF9260911302709114028091B9
:10267000150290911602611571058105910521F4ED
:1026800064E279ED8BE597E02DE133EF41E050E036
:102690000E94991349015A019B01AC01A7EAB1E4D8
:1026A0000E94B8136B017C01ACEEB4EFA50194015C
:1026B0000E94C613C60ED71EE81EF91EF7FE06C0FE
:1026C00081E0C81AD108E10880E8F80AC092130234
:1026D000D0921402E0921502F0921602C701B601E0
:1026E0009F77FF90EF90DF90CF90BF90AF909F903B
:1026F0008F900895609313027093140280931502D3
:10270000909316020895F999FECF92BD81BDF89A73
:10271000992780B50895262FF999FECF1FBA92BD4B
:1027200081BD20BD0FB6F894FA9AF99A0FBE0196B2
:102730000895052E97FB1EF400940E94B01357FDD8
:1027400007D00E94CB1307FC03D04EF40C94B013B7
:1027500050954095309521953F4F4F4F5F4F0895CD
:1027600090958095709561957F4F8F4F9F4F0895FD
:102770000E94ED13A59F900DB49F900DA49F800D16
:10278000911D11240895B7FF0C94B8130E94B8133B
:10279000821B930B0895A1E21A2EAA1BBB1BFD01FD
:1027A0000DC0AA1FBB1FEE1FFF1FA217B307E40730
:1027B000F50720F0A21BB30BE40BF50B661F771F88
:1027C000881F991F1A9469F7609570958095909568
:1027D0009B01AC01BD01CF010895A29FB001B39F41
:1027E000C001A39F700D811D1124911DB29F700D1A
:1027F000811D1124911D089597FB072E16F4009456
:1028000007D077FD09D00E94181407FC05D03EF4CC
:10281000909581959F4F0895709561957F4F08958C
:10282000EE0FFF1F881F8BBF0790F691E02D1994C4
:10283000AA1BBB1B51E107C0AA1FBB1FA617B707E6
:1028400010F0A61BB70B881F991F5A95A9F7809502
:102850009095BC01CD010895FB01DC0104C08D9170
:102860000190801921F441505040C8F7881B990B02
:1028700008956817790768F4FB01DC01E40FF51F80
:10288000A40FB51F02C002900E9241505040D8F7DD
:1028900008950C94BF16DC0101C06D934150504067
:1028A000E0F70895FC018191861721F08823D9F77C
:1028B000992708953197CF010895FB01DC018D918F
:1028C000019080190110D9F3990B0895FB01DC01E7
:1028D0004150504048F001900D920020C9F701C0CE
:1028E0001D9241505040E0F708950F931F93CF93EE
:1028F000DF93CDB7DEB72E970FB6F894DEBF0FBECD
:10290000CDBF0E891F89888D998D26E02C831A836F
:10291000098397FF02C080E090E801979E838D8332
:10292000AE01445E5F4F6A8D7B8DCE0101960E94A1
:10293000B2144D815E8157FD0AC02F813885421740
:1029400053070CF49A01020F131FF80110822E9600
:102950000FB6F894DEBF0FBECDBFDF91CF911F91B0
:102960000F9108952F923F924F925F926F927F92B4
:102970008F929F92AF92BF92CF92DF92EF92FF928F
:102980000F931F93CF93DF9300D000D000D01F92FE
:102990001F92CDB7DEB77C013B018A01FC01178293
:1029A0001682838181FFDDC1CE0101965C01F701B2
:1029B0009381F30193FD859193FF81913F018823DA
:1029C00009F453C1853239F493FD859193FF8191C8
:1029D0003F01853229F4B70190E00E94D316E7CF7A
:1029E000912C212C312CFFE1F31538F08B3211F1B1
:1029F00090F4803209F1833229F137FC3CC020ED9C
:102A0000280F2A3050F536FE20C08AE0989E200D0F
:102A10001124922E06C08D3291F0803371F76894A4
:102A200030F8F30193FD859193FF81913F0181116E
:102A3000DACF21C0689431F8689432F8F2CF689404
:102A400033F8EFCF689434F8ECCFEAE02E9E200DF7
:102A50001124222E689435F8E4CF8E3229F436FC06
:102A600004C1689436F8DDCF8C3619F4689437F8D1
:102A7000D8CF8836B1F2982F9F7D95549330E0F0EF
:102A80008336A1F18337C1F1833509F063C0280192
:102A9000F2E04F0E511CF801C080D180692D70E02A
:102AA00036FC02C06FEF7FEFC6010E94B4164C01E6
:102AB000689437F882010AC00C5F1F4FFFE3F98367
:102AC00088248394912C6501E89437F833FE2DC057
:102AD000522C8114910471F5552009F468CFB70187
:102AE00080E290E00E94D3165A94F6CFF8018081DC
:102AF00089830E5F1F4FE4CF2801F2E04F0E511C77
:102B0000F801C080D180692D70E036FC02C06FEF03
:102B10007FEFC6010E94C8164C018201D5CFB701D4
:102B200080E290E00E94D3162A942814190409F038
:102B3000B0F7CECFF60137FC859137FE81916F015A
:102B4000B70190E00E94D31651105A94F1E08F1A09
:102B50009108BFCF843619F0893609F077C0F801A3
:102B600037FE6BC060817181828193810C5F1F4F42
:102B7000F32DFF763F2E97FF09C0909580957095B5
:102B800061957F4F8F4F9F4F689437F82AE030E070
:102B9000A5010E940317C82ECA188C2C432C36FEA0
:102BA0000CC0E89440F8C91440F434FE05C032FC6F
:102BB00003C0F32DFE7E4F2E892C44FEAAC0FE01D9
:102BC000EC0DF11D8081803309F09CC0242D297EFD
:102BD000422E842D8870582E43FCAAC040FEA4C00B
:102BE0009C2C821418F42C0C922C981844FEA6C02D
:102BF000B70180E390E00E94D31642FE09C088E747
:102C000090E041FE02C088E590E0B7010E94D31633
:102C1000C91408F49FC0CA94D12C9FEFC91AD90ACD
:102C2000CA0CDB1CF60182916F01B70190E00E9493
:102C3000D316AC14BD04B1F74FCF60817181072E5C
:102C4000000C880B990B0E5F1F4F92CFD32CE8948A
:102C5000D4F82AE030E08537E1F1232D297FD22E08
:102C60008F36A9F1F0F4883551F1F701868197810B
:102C70002B960FB6F894DEBF0FBECDBFDF91CF917C
:102C80001F910F91FF90EF90DF90CF90BF90AF908A
:102C90009F908F907F906F905F904F903F902F907C
:102CA0000895803749F0883701F7D4FE02C0689450
:102CB000D2F820E130E00DC06894D4F8F6CF34FEAD
:102CC00003C0822F8660D82E20E132E002C028E0C7
:102CD00030E0F801D7FE0FC060817181828193815D
:102CE0000C5F1F4FA5010E940317C82ECA183D2C68
:102CF000E89437F852CF6081718190E080E00E5FF8
:102D00001F4FF0CF42FC02C0839463CF839483941F
:102D100060CF842D867809F45CCFF6CFB70180E2CE
:102D200090E00E94D31683948214C0F3512C5ECF9E
:102D3000522C5818821408F459CFF8CF842D867875
:102D400009F466CF8BE241FE80E247FC8DE2B701D9
:102D500090E05CCFB70180E390E00E94D3169A9494
:102D600057CF8FEF9FEF84CFFC01059061507040EB
:102D70000110D8F7809590958E0F9F1F0895FB0145
:102D8000DC0102C001900D9241505040D8F70895E7
:102D9000FC016150704001900110D8F7809590952A
:102DA0008E0F9F1F08950F931F93CF93DF93182FBC
:102DB000092FEB018B8181FD09C01FEF0FEF812FE0
:102DC000902FDF91CF911F910F91089582FF14C032
:102DD0002E813F818C819D81281739073CF4E88141
:102DE000F981CF0101969983888310838E819F8119
:102DF00001969F838E83E3CFE885F985812F19950E
:102E0000892BA1F3DACFFA01AA27283051F120311A
:102E100081F1E8946F936E7F6E5F7F4F8F4F9F4F6E
:102E2000AF4FB1E03ED0B4E03CD0670F781F891FB0
:102E30009A1FA11D680F791F8A1F911DA11D6A0F7E
:102E4000711D811D911DA11D20D009F468943F9131
:102E50002AE0269F11243019305D3193DEF6CF0130
:102E60000895462F4770405D4193B3E00FD0C9F7F6
:102E7000F6CF462F4F70405D4A3318F0495D31FD63
:102E80004052419302D0A9F7EACFB4E0A6959795B6
:102E9000879577956795BA95C9F70097610571058C
:102EA00008959B01AC010A2E0694579547953795D6
:102EB0002795BA95C9F7620F731F841F951FA01D30
:062EC0000895F894FFCF15
:102EC600442D4133323000000050434220312E3031
:102ED60000000C01000000000000009C0306033304
:102EE60003E9036403420356033B3C3D3E312E3067
:102EF600004F48532D0030383135000D0A00524539
:102F06005345543A4F4B203B004944454E543A00F2
:102F16004F48505F5345432C2076312E30204D418B
:102F260051002C20534E3A003B53544154453A52DB
:102F3600554E4E494E473B5245473A00494E005082
:102F46004F54003031323334353637383941424305
:102F5600444546004346473A53415645443A52454E
:102F6600473D003B5043423D004346473A454550A6
:102F7600524F4D3A4D414749435F4D495353494E90
:102F8600473B004346473A534E3A4E45573A00436D
:102F960046473A534E3A555047524144453A004304
:102FA60046473A454550524F4D3A56455253494F7A
:102FB6004E5F4D49534D415443483A00213D00432D
:102FC60046473A454550524F4D3A4352435F464174
:102FD600494C3B004346473A534E3A4C4F414445D1
:102FE600443A004346473A4C4F41443A5245473DDE
:102FF6000053455455503A434F4D504C4554453B6C
:10300600534E3D00444941473A4D454E553B0044D9
:103016004941473A455849545F54494D454F5554DF
:103026003B00444941473A4D454E553A00444941D3
:10303600473A4C45445F57414C4B3B004449414756
:103046003A494E505554533B004845414C54483A32
:10305600555054494D453D00733B4C4153544552E0
:10306600523D303B465245454D454D3D003B56454C
:103076005253494F4E3D00444941473A45584954F9
:103086003B005645520056455253494F4E0049445F
:10309600454E54004558495400504342005043425F
:1030A6003A00760052455345540052455100444972
:1030B600414700444941473A4D454E555F535441B7
:1030C60052543B0025733B0053455420005345544E
:1030D60020455849543A4F4B203B005752495445D6
:1030E6000057524954453A4F4B203B0057524954DA
:1030F600453A4C4F434B4544203B005354415445BD
:1031060000444953505F424C004346470044454201
:10311600004C45440044535000454E41005345542D
:1031260020454E413A4F4B203B0053455420454ED7
:10313600413A4641494C203B005752490046570008
:1031460041434944005043622025642E25640053C0
:1031560045542046573A4F4B203B00534554204692
:10316600573A52414E4745203B0053455420465757
:103176003A464F524D4154203B00534E005345545E
:1031860020414349443A4F4B203B0053455420418C
:103196004349443A464F524D4154203B005345540F
:1031A60020534E3A4F4B3A0053455420534E3A461D
:1031B6004F524D4154203B00444941473A434F4DFD
:0A31C600424F5F53544152543B0046
:00000001FF
