:100000000C9433030C9464030C9464030C94640305
:100010000C9464030C9464030C9464030C946403C4
:100020000C9464030C9464030C9464030C946403B4
:100030000C9464030C9464030C9464030C946403A4
:100040000C9464030C9464030C9464030C94640394
:100050000C9464030C9464030C9464030C94B61025
:100060000C9464030C942A110C9400110C946403F6
:100070000C9464030C9464030C9464030C94640364
:100080000C9464030C9464030C9464030C94640354
:100090000C9464030C9464030C9464030C94640344
:1000A0000C9464030C9464030C9464030C94640334
:1000B0000C9464030C9464030C9464030C94640324
:1000C0000C9464030C9464030C9464030C94640314
:1000D0000C9464030C9464030C9464030C94640304
:1000E0000C9464030C94E9030C94D5030C949A05C6
:1000F0000C94C7030C94ED030C94CD030C94BD0336
:100100000C94B6030C9440050C94D1030C94AE03EC
:100110000C9493180C9462050C94E8030C94BA03A5
:100120000C94A8030C9407060C94DF030C9454055C
:100130000C94E3030C94C3030C94DB030C94B20300
:100140000C9404050C9431053B53544154453A52E8
:10015000554E4E494E473B5245473A002C20534E90
:100160003A004944454E543A00504F5400494E001D
:1001700053455420534E3A464F524D4154203B0074
:1001800053455420534E3A4F4B3A00534554204167
:100190004349443A464F524D4154203B0053455445
:1001A00020414349443A4F4B203B0053455420469D
:1001B000573A464F524D4154203B00534554204638
:1001C000573A52414E4745203B005345542046572D
:1001D0003A4F4B203B0057524954453A4F4B203B36
:1001E0000053455420455849543A4F4B203B005347
:1001F000455420454E413A4641494C203B00534529
:100200005420454E413A4F4B203B005752495445EC
:100210003A4C4F434B4544203B0057524954453AD2
:100220004F4B203B0053455420455849543A4F4BBF
:10023000203B00444941473A53484F575F5354418C
:1002400052542078003B56455253494F4E3D00735F
:100250003B4C4153544552523D303B465245454D2F
:10026000454D3D004845414C54483A555054494D40
:10027000453D00494E00444941473A4C45445F578B
:10028000414C4B3B00444941473A455849543B0097
:10029000444941473A414C4C5F4F4B3B003B56452C
:1002A0005253494F4E3D00733B4C415354455252BB
:1002B0003D303B465245454D454D3D004845414C3E
:1002C00054483A555054494D453D00494E00444923
:1002D00041473A494E505554533B00444941473AEF
:1002E0004C45445F57414C4B3B00444941473A4DD4
:1002F000454E553A00444941473A4D454E553B001D
:10030000455849543A4F4B203B00444941473A45F0
:100310005849543B00203B005043423A0052455359
:1003200045543A4F4B203B003B534E3D003B50431E
:10033000423D004346473A53415645443A524547A9
:100340003D003B534E3D003B5043423D004346473A
:100350003A4C4F41443A5245473D004346473A5391
:100360004E3A4C4F414445443A004346473A534E77
:100370003A4E45573A004346473A454550524F4D4D
:100380003A4352435F4641494C3B004346473A4556
:100390004550524F4D3A56455253494F4E5F4D4985
:1003A000534D415443483A004346473A534E3A5519
:1003B0005047524144453A004346473A534E3A4E1D
:1003C00045573A004346473A454550524F4D3A4DFE
:1003D000414749435F4D495353494E473B005345BD
:1003E0005455503A434F4D504C4554453B534E3D68
:1003F00000444941473A4C45445F57414C4B5F44A8
:100400004F4E453B00203D203131313131313131CA
:1004100000444941473A414C4C5F4F4E204C4544C3
:1004200000444941473A57414C4B5F425954455F5C
:10043000414C4C5F4F4E5F53544152543B0020207F
:100440004C454400444941473A57414C4B5F42496F
:10045000543D00444941473A53484F575F444F4E3B
:10046000453B00444941473A53484F575F52455036
:100470004541542000444941473A53484F575F464D
:10048000494E414C453B00444941473A53484F5738
:100490005F425245415448453B00444941473A5325
:1004A000484F575F434153434144453B0044494112
:1004B000473A455849543B003B56455253494F4EE5
:1004C0003D00733B4C4153544552523D303B4652E4
:1004D00045454D454D3D004845414C54483A5550E1
:1004E00054494D453D00494E00444941473A494E23
:1004F000505554533B00444941473A4C45445F579B
:10050000414C4B3B00444941473A4D454E553A001A
:10051000444941473A455849545F54494D454F5520
:10052000543B00444941473A4D454E553B004449F0
:1005300041473A434F4D424F5F53544152543B0061
:10054000504F540000002100240027002A002D00F5
:100550003000330001010000040107010A0100001E
:100560002200250028002B002E003100340002015B
:100570000000050108010B010000200023002600F7
:1005800029002C002F0032000001000003010601A9
:100590000901050505050705080808080202020209
:1005A0000A0A08080404040401010101010101010F
:1005B0000303030303030303040707070C0C0C0CDA
:1005C0000C0C0C0C020202020606060606060606C3
:1005D0000B0B0B0B0B0B0B0B010210202008081050
:1005E00020401020408002010201080402010102A3
:1005F000040810204080804020100804020180047C
:1006000002018040201008040201080402010102D6
:1006100004081020408001020408102040800000DF
:100620000A0B02090C0D0E0807030401000000006C
:1006300000000000000000000000000000000000BA
:100640000000000000000000000012111000000077
:10065000000000000000000000000000000000009A
:1006600000000000931811241FBECFEFD1E2DEBFBF
:10067000CDBF00E00CBF13E0A0E0B2E0E2E5FAE39A
:1006800000E00BBF02C007900D92A830B107D9F768
:1006900025E0A8E0B3E001C01D92A635B207E1F75E
:1006A00013E0C3E3D3E000E006C021970109802FE7
:1006B000FE010E94F119C233D10780E00807A9F7B3
:1006C0000E9490110C94271D0C940000CF93DF938F
:1006D000FC01389623E030E0EC01A991CE012A0F0D
:1006E000311DEC17FD07C1F7FB01CB0108966191A5
:1006F000260F311D8E179F07D1F7FA01CA010996FF
:100700004191240F311D8E179F07D1F7822FDF9162
:10071000CF9108958150823108F05AC0E82FF0E05F
:100720008827EA56FC4F8F4F0C94F119B603BA0391
:10073000A803AE03B203E803BD03C303C703CD039D
:10074000D103D503DB03DF03E803E303E903ED0390
:10075000809180008F778093800008958091800041
:100760008F7DF9CF80918000877FF5CF84B58F771B
:1007700084BD089584B58F7DFBCF8091B0008F77C5
:100780008093B00008958091B0008F7DF9CF809163
:1007900090008F77809390000895809190008F7DD6
:1007A000F9CF80919000877FF5CF8091A0008F775F
:1007B0008093A00008958091A0008F7DF9CF809153
:1007C000A000877FF5CF809120018F778093200153
:1007D0000895809120018F7DF9CF80912001877F3E
:1007E000F5CFCF93DF93282F30E0F901E25EF94F88
:1007F0008491F901E852FA4FD491F901EE56FA4F7B
:10080000C491CC23A1F081110E948A03EC2FF0E067
:10081000EE0FFF1FE858FA4FA591B491EC91ED232C
:1008200081E090E009F480E0DF91CF91089580E0CD
:1008300090E0FACF1F93CF93DF93282F30E0F90198
:10084000E25EF94F8491F901E852FA4FD491F9012F
:10085000EE56FA4FC491CC23A9F0162F81110E94B5
:100860008A03EC2FF0E0EE0FFF1FE25AFA4FA5913A
:10087000B4918FB7F894EC91111108C0D095DE2394
:10088000DC938FBFDF91CF911F910895DE2BF8CFBE
:10089000CF93DF9390E0FC01E852FA4F24918E56FB
:1008A0009A4FFC0184918823C9F090E0880F991F2A
:1008B000FC01EC5BFA4FA591B491FC01E25AFA4FAE
:1008C000C591D49161110DC09FB7F8948C9120957A
:1008D00082238C938881282328839FBFDF91CF9127
:1008E0000895623051F49FB7F8943C91822F80951F
:1008F00083238C93E8812E2BEFCF8FB7F894EC9164
:100900002E2B2C938FBFEACF863308F0865320918D
:100910007B00982F9870277F922B90937B00877095
:10092000806480937C0080917A00806480937A0058
:1009300080917A0086FDFCCF8091780090917900BB
:1009400008953FB7F8948091A7049091A804A091CE
:10095000A904B091AA0426B5A89B05C02F3F19F0A1
:100960000196A11DB11D3FBFBA2FA92F982F88272F
:10097000BC01CD01620F711D811D911D42E0660F0A
:10098000771F881F991F4A95D1F708958F929F92DC
:10099000AF92BF92CF92DF92EF92FF924B015C0138
:1009A0000E94A1046B017C010E94A1046C197D09C5
:1009B0008E099F09683E734081059105A8F321E0E7
:1009C000821A9108A108B10888EEC80E83E0D81EEB
:1009D000E11CF11C81149104A104B10429F7FF90DA
:1009E000EF90DF90CF90BF90AF909F908F90089541
:1009F0002FB7F8946091A3047091A4048091A5048A
:100A00009091A6042FBF0895AF92BF92CF92DF922C
:100A1000EF92FF920F931F93CF93DF936C017B01B3
:100A20008B01040F151FEB015E01AE18BF08C01744
:100A3000D10759F06991D601ED91FC910190F081B7
:100A4000E02DC6011995892B79F7C501DF91CF916A
:100A50001F910F91FF90EF90DF90CF90BF90AF90DC
:100A60000895FC01538D448D252F30E0842F90E0B4
:100A7000821B930B541710F0CF9608950197089599
:100A8000FC01918D828D981761F0A28DAE0FBF2F62
:100A9000B11D5D968C91928D9F5F9F73928F90E0B8
:100AA00008958FEF9FEF0895FC01918D828D981727
:100AB00031F0828DE80FF11D858D90E008958FEF64
:100AC0009FEF0895FC01918D228D892F90E0805C2D
:100AD0009F4F821B91098F739927089585EB94E0AE
:100AE0000E94620521E0892B09F420E0822F0895FD
:100AF000FC01A48DA80FB92FB11DA35ABF4F2C9193
:100B0000848D90E001968F739927848FA689B78989
:100B10002C93A089B1898C91837080648C93938D80
:100B2000848D981306C00288F389E02D80818F7D23
:100B300080830895EF92FF920F931F93CF93DF93DB
:100B4000EC0181E0888F9B8D8C8D98131AC0E88909
:100B5000F989808185FF15C09FB7F894EE89FF89D8
:100B60006083E889F98980818370806480839FBF76
:100B700081E090E0DF91CF911F910F91FF90EF9076
:100B80000895F62E0B8D10E00F5F1F4F0F73112786
:100B9000E02E8C8D8E110CC00FB607FCFACFE889C1
:100BA000F989808185FFF5CFCE010E947805F1CFCC
:100BB000EB8DEC0FFD2FF11DE35AFF4FF0829FB735
:100BC000F8940B8FEA89FB8980818062CFCF0F93E5
:100BD0001F93CF93DF938C01D0E0C0E0F801EC0FBE
:100BE000FD1F6491662341F085EB94E00E949A0515
:100BF000892B11F02196F2CFCE01DF91CF911F9179
:100C00000F910895682F85EB94E00C949A05CF938B
:100C1000DF93EC01888D8823B9F0AA89BB89E88924
:100C2000F9898C9185FD03C0808186FD0DC00FB6CA
:100C300007FCF7CF8C9185FFF2CF808185FFEDCF48
:100C4000CE010E947805E9CFDF91CF91089580E031
:100C500090E0892B29F00E946E0581110E9400000E
:100C600080E090E0892B49F080E090E0892B29F02A
:100C70000E94000081110E94000080E090E0892B1A
:100C800049F080E090E0892B29F00E94000081115A
:100C90000E94000080E090E0892B49F080E090E025
:100CA000892B29F00E94000081110C940000089506
:100CB000AF92BF92CF92DF92EF92FF920F931F936A
:100CC000CF93DF9370E5A72E72E0B72EE8E2EE2E09
:100CD000E3E0FE2EC8E0D3E0FCE7CF2EF4E0DF2E09
:100CE00010E000E0F50181915F010E948404F701AA
:100CF00021917F0130E0F801EE0FFF1FEE0FFF1F83
:100D0000E20FF31FEE0FFF1FE85FFC4F918380831C
:100D1000F70131972F5F3F4F2370332720832881BE
:100D200039818A819B81B0E0A0E0820F931FA11DD1
:100D3000B11D2C813D81820F931FA11DB11D2E81FC
:100D40003F81820F931FA11DB11D62E0B695A7954B
:100D5000979587956A95D1F7F601819391936F01E5
:100D60000F5F1F4F28960430110509F0BBCFDF91AC
:100D7000CF911F910F91FF90EF90DF90CF90BF9098
:100D8000AF90089580E090E0E82FF0E0E050FE4F53
:100D90002081222339F0983028F4203209F09F5F17
:100DA0008F5FF2CF0895FC01019620812032D9F3A4
:100DB000CF010895FC01DB019D91BD01992379F0DC
:100DC00021918FE9820F8A3108F420528FE9890F2F
:100DD0008A3108F49052291771F380E0089581E078
:100DE0000895DC01FB012D919191222381F099233B
:100DF00071F08FE9820F8A3108F420528FE9890F50
:100E00008A3108F49052291771F380E003C081E021
:100E10002913FBCF0895FC0127E030E070E0AB011F
:100E2000022E02C0559547950A94E2F740FD08C08E
:100E300040E341932150310990F7FC011086089559
:100E400041E3F7CFFC0101900020E9F73197AF01B2
:100E5000481B590BBC0185EB94E00C94040588E514
:100E600092E00C942207CF93DF930E94E705EC01F8
:100E70000E942F078C0F9D1FDF91CF910895CF9374
:100E8000DF938BE30E940206EC010E942F078C0F78
:100E90009D1FDF91CF9108958F929F92AF92BF9245
:100EA0000F931F93CF93DF93CDB7DEB7A1970FB604
:100EB000F894DEBF0FBECDBF19A2423008F44AE05D
:100EC0008E010F5D1F4F842E912CB12CA12CA501FA
:100ED00094010E94AC19E62FB901CA01EA30F4F47A
:100EE000E05DD801EE938D01232B242B252B79F780
:100EF00090E080E0109719F0CD010E942207A196A2
:100F00000FB6F894DEBF0FBECDBFDF91CF911F911A
:100F10000F91BF90AF909F908F900895E95CE1CFC3
:100F2000009711F00C94220790E080E0089582E68B
:100F300091E00E94E7058AE192E00E94900780918B
:100F4000AB04882361F08CE591E00E94E7058BE417
:100F500092E00E9490078BEA94E00E94900788E458
:100F600091E00E94E70589E092E00E9490070C94CE
:100F70003F07CF93DF930E942207EC010E942F07C7
:100F80008C0F9D1FDF91CF910895FC0101900020EF
:100F9000E9F7E81B2EEF2E0FFC01E20FF11D27FDF4
:100FA000FA9527FD07C08081803221F421501082FC
:100FB0003197F7CF0895CF92DF92EF92FF920F9380
:100FC0001F93CF93DF93CDB7DEB761970FB6F89439
:100FD000DEBF0FBECDBF86E30E9484048C0187E391
:100FE0000E948404080F191F88E30E948404080FDC
:100FF000191F89E30E9484047C010E94A1049801C6
:101000002E0D3F1D8901330F220B330B600F711F13
:10101000821F931F611571058105910511F00E94D2
:101020005B1981E1EBE5F2E0DE01119601900D9292
:101030008A95E1F70BEA14E080E1C82ED12CE12C6F
:10104000F12C0E940C19A70196010E947A1921E047
:1010500030E02C0F3D1F620F731FFB018081F801F0
:1010600081938F01F4E0033B1F0759F71092B304FB
:1010700061960FB6F894DEBF0FBECDBFDF91CF9162
:101080001F910F91FF90EF90DF90CF900895CF9236
:10109000DF92EF92FF92CF93DF936C01990FEE08EE
:1010A000FF08F7FE17C08DE20E940206EC016627DA
:1010B0007727CB016C197D098E099F094AE00E94B0
:1010C0004C078C0F9D1FDF91CF91FF90EF90DF9029
:1010D000CF9008954AE0C701B601DF91CF91FF900C
:1010E000EF90DF90CF900C944C07CF93DF930E944A
:1010F0004708EC010E942F078C0F9D1FDF91CF91B5
:101100000895EF92FF920F931F93CF93DF9300D038
:1011100000D000D0CDB7DEB792E9E92E94E0F92EE9
:1011200001E010E0F70161917F01CE0101960E947C
:101130000B078DE691E00E94E705C8010E94470871
:101140008AE30E940206CE0101960E9490078BE37B
:101150000E9402060F5F1F4F0B30110519F78CE735
:10116000E82E84E0F82E01E010E089E691E00E948C
:10117000E705C8010E9447088AE30E940206F701BA
:10118000619171917F0190E080E04AE00E944C07FC
:101190008BE30E9402060F5F1F4F0530110529F7F0
:1011A0000E942F070E94F80410927B0429960FB624
:1011B000F894DEBF0FBECDBFDF91CF911F910F918D
:1011C000FF90EF900895AF92BF92CF92DF92EF928F
:1011D000FF920F931F93CF93DF93F82EE62EB42E3A
:1011E000122FD32E60E08E2D0E941A04CBE4D0E0A3
:1011F000CE010197F1F761E08E2D0E941A0421972C
:10120000F1F7A12EC12FDD2D87E0C82ED12C10E0E3
:1012100061E08F2D0E941A048B2D0E94F1030C2C8B
:1012200001C0880F0A94EAF7182B60E08F2D0E9406
:101230001A0481E0C81AD10858F7109519938C2F19
:101240008A19801708F360E08E2D0E941A04CBE4FF
:10125000D0E0CE010197F1F761E08E2D0E941A04D3
:101260002197F1F7C0E10FE010E060E08F2D0E94C0
:101270001A04C8010197F1F761E08F2D0E941A044A
:10128000C8010197F1F7C15081F7DF91CF911F910C
:101290000F91FF90EF90DF90CF90BF90AF900895A7
:1012A0000F93CF9302E022E934E04AE068E089E05E
:1012B0000E94E30804E024E934E041E16FE080E1CA
:1012C0000E94E30803E028E934E04AE268E287E2AA
:1012D0000E94E30885E10E94F103C1E0892B09F037
:1012E000C0E086E10E94F103892B09F4C260C0933B
:1012F0009B04CF910F910895CF92DF92EF92FF92CE
:101300000F931F93CF93DF93F82E162FE42E6901CE
:1013100060E0812F0E941A040150F601E00FF11DD8
:1013200007FDFA95D081C8E06D2F661F6627661FFE
:101330008E2D0E941A04DD0F61E08F2D0E941A0489
:1013400060E08F2D0E941A04C15071F7015028F7F8
:1013500061E0812FDF91CF911F910F91FF90EF906E
:10136000DF90CF900C941A049F92AF92BF92CF92CD
:10137000DF92EF92FF920F931F93CF93DF9300D0F2
:101380001F92CDB7DEB7E090A00490902C03FE0131
:10139000319687E4C82E84E0D82E5E0185E0A80E41
:1013A000B11CD601FE2E1F2F892DE1108C91819347
:1013B0001196AE16BF06C1F704E02F2D312F47E07E
:1013C00065E086E00E947C09EF2DF12F892DEE204B
:1013D00019F0D60114968C918193BFEFCB1ADB0ADA
:1013E000EA15FB0599F704E02F2D312F44E062E068
:1013F00083E00E947C0902E02FE434E04EE06BE0E1
:101400008CE00E947C0903E021E534E044E162E1E4
:1014100083E10E947C0904E024E534E04BE269E2C8
:101420008CE20E947C0910915804612F61708EE259
:101430000E941A0411FB662760F980E30E941A04D7
:1014400082E1E7E4F4E0A5E3B4E001900D928A952F
:10145000E1F70F900F900F900F90DF91CF911F91B8
:101460000F91FF90EF90DF90CF90BF90AF909F9043
:101470000895E7E4F4E082E1DF011D928A95E9F73F
:101480000C94B4090C946419FF920F931F93CF939B
:10149000DF93EC01F62E08811981C8010E946419BE
:1014A000F81621F06F2DC8010E946C19CE01DF9152
:1014B000CF911F910F91FF9008954F925F926F927D
:1014C0007F928F929F92AF92BF92CF92DF92EF92D4
:1014D000FF920F931F93CF93DF93CDB7DEB76B9738
:1014E0000FB6F894DEBF0FBECDBF29E032E0F901A0
:1014F00001900020E9F79F012A5032405E01FAE096
:10150000AF0EB11CF50190E080E0450140E282178A
:10151000930724F4DC01A75FBD4F4C9141930196E2
:101520008830910599F720E032E0F9010190002020
:10153000E9F79F01215032406E01F2E1CF0ED11C3C
:10154000F60190E080E0360140E28217930724F430
:10155000DC01A050BE4F4C9141930196883091051B
:1015600099F72BEA34E0F90101900020E9F79F0197
:101570002C5A3440CE0101967C01FC0190E080E0C1
:10158000270140E28217930724F4DC01A555BB4FE5
:101590004C91419301968830910599F719861B8EDD
:1015A0001A8E6AE5CE014A960E94440A81E090E0D4
:1015B0009B8F8A8F65EACE014A960E94440A82E098
:1015C00090E09B8F8A8F63E0CE014A960E94440A86
:1015D00003E010E0F50161915F011B8F0A8FCE01DE
:1015E0004A960E94440A0F5F1F4F0B30110591F776
:1015F000F60161916F011B8F0A8FCE014A960E94FE
:10160000440A0F5F1F4F0331110591F7F7016191F4
:101610007F011B8F0A8FCE014A960E94440A0F5FFA
:101620001F4F0C31110591F7A201B301C4010E94B3
:1016300066031B8F0A8F682FCE014A960E94440AC8
:1016400083E393E00E94E70589E092E00E9490071F
:101650008DE293E00E94E70580E092E00E9490070F
:1016600088E293E00E94E7058BE492E00E949007F5
:101670008BEA94E00E94B9076B960FB6F894DEBF30
:101680000FBECDBFDF91CF911F910F91FF90EF90D3
:10169000DF90CF90BF90AF909F908F907F906F9092
:1016A0005F904F9008952F923F924F925F926F926A
:1016B0007F928F929F92AF92BF92CF92DF92EF92E2
:1016C000FF920F931F93CF93DF93CDB7DEB7C9542B
:1016D000D1090FB6F894DEBF0FBECDBF85EB94E005
:1016E0000E946205892B39F185EB94E00E94400548
:1016F0008D3069F08A3009F48BE3E09134049091E5
:1017000033042E2F291B2F3F69F4E09333040E94EA
:10171000F80460932E0470932F0480933004909308
:101720003104DCCF91E09E0F90933404F0E0E25D51
:10173000FC4F8083ECCF1091340480913304181354
:10174000F6C42BEF222E22E0322E30E0432E32E080
:10175000532E48EE842E43E0942EA12CB12C6E0122
:1017600031E4C30ED11C5091340490913304892F7D
:10177000851709F451C041E0480FE82FF0E0E25D21
:10178000FC4F20812B33B1F4891B803408F08FE3A8
:101790009E012F5F3F4FE0E08901E81769F0AE2F0F
:1017A000A90FB0E0A25DBC4F6C91D9016D939D0172
:1017B000EF5FF3CF842FDCCFE00FF12FF11D10820C
:1017C000942F8981882399F240933304C8010E94A1
:1017D000C507C8010E94D3068C01FC0180818823C3
:1017E00011F26CE672E0C8010E94F10681110EC090
:1017F00060E772E0C8010E94F106811107C068E746
:1018000072E0C8010E94F106882311F10E94970737
:1018100081E080933204A7CF90933304C75BDF4FFE
:101820000FB6F894DEBF0FBECDBFDF91CF911F91F1
:101830000F91FF90EF90DF90CF90BF90AF909F906F
:101840008F907F906F905F904F903F902F90089572
:101850006EE772E0C8010E94F106882331F08DE145
:1018600093E00E9433070E94851164E872E0C8018A
:101870000E94F106882319F00E94810874CF68E85D
:1018800072E0C8010E94F106882309F188E193E023
:101890000E94E70560E270E080E092E00E94211A79
:1018A0008C01009789F0DC0111968C91882361F0FE
:1018B00086E70E940206C80101960E94900785E112
:1018C00093E00E9433074FCF80E092E0F6CF6CE8C0
:1018D00072E0C8010E94F106F090A1048823C1F0D3
:1018E000B2E0FB1210C081E08093A1041092A0042A
:1018F00010926F0410927104109270040E94390AC1
:101900008AE093E0DECF10922D0380E093E0D9CF00
:1019100061E972E0C8010E94F106882321F0E1E04C
:10192000FE1609F44FC0F2E0FF1295C10E94F804C0
:101930006093690470936A0480936B0490936C04C1
:1019400066E972E0C8010E94F106882309F4BDC06F
:1019500080916D0490916E04019664E070E00E94A5
:10196000DD198C0190936E0480936D048AEE92E0F1
:101970000E94E705C8010E94750880916D0490914E
:101980006E04009789F58BED92E00E94330781E0A9
:1019900090E0909371048093700410926804109208
:1019A000670410926604109265040E94F804609324
:1019B00061047093620480936304909364040E94B2
:1019C000390AD1CE82E08093A104F092A0040E9453
:1019D000F804109271041092700410926F040E9427
:1019E000390A85EF92E06DCF8130910541F58EEC9B
:1019F00092E00E94330792E9E92E94E0F92E01E08B
:101A000010E0D7016D917D01C6010E940B078BECA0
:101A100092E00E94E705C8010E9447088DE30E94FA
:101A20000206C6010E9490078BE30E9402060F5F28
:101A30001F4F0B30110529F70E942F0794CE8230DB
:101A4000910581F510927104109270048CEB92E074
:101A50000E94E7050E94F804A50194010E94AC19B8
:101A6000CA01B9014AE00E944C0787EA92E00E944D
:101A7000E7058091520590915305009711F486E592
:101A800095E0F601E81BF90BCF010E9447088DE9AC
:101A900092E00E94E70584E592E00E94B90780E9A0
:101AA00092E00FCF039709F05ECE81E08093A1040E
:101AB0001092A00410926F0410927104109270049E
:101AC0000E94390A85E892E0FCCE6BE972E0C80119
:101AD0000E94F106882339F010926E0410926D0472
:101AE00086E792E052CF6FE972E0C8010E94F106EA
:101AF000882341F110927104109270040E945009E1
:101B000082E9E82E84E0F82E01E010E0D7016D9123
:101B10007D01C6010E940B0783E792E00E94E70562
:101B2000C8010E9447088DE30E940206C6010E9478
:101B300090078BE30E9402060F5F1F4F0B301105C9
:101B400029F77ACF62EA72E0C8010E94F106882381
:101B500071F1109271041092700484E692E00E9478
:101B6000E7050E94F804A50194010E94AC19CA017E
:101B7000B9014AE00E944C078FE492E00E94E70519
:101B80008091520590915305009711F486E595E0F8
:101B9000F601E81BF90BCF010E94470885E492E0AB
:101BA0000E94E70584E592E00E94B907DCCD69EA6E
:101BB00072E0C8010E94F106811108C06EEA72E06D
:101BC000C8010E94DA06882309F445C081E090E04C
:101BD00090931302809312026AE370E0C8010E949E
:101BE000211A009769F001960E9460119C01215012
:101BF00031092930310520F49093130280931202A9
:101C000084E090E090936E0480936D0483E392E00F
:101C10000E94E70580911202909113020E944708EA
:101C20000E943F0783E090E09093710480937004DA
:101C30001092600410925F0410925A04109259049A
:101C40000E94F80460935B0470935C0480935D04CD
:101C500090935E04B4CE64EB72E0C8010E94DA0691
:101C6000F82E6AE370E0C8010E94211AFF2099F063
:101C70000097A1F4C80104960E94D3068C016CE879
:101C800072E00E94DA06882309F43FC010922D0307
:101C900085E292E016CE009709F465CDDC011D9235
:101CA0003D01C8010E94C507C8010E94D3067C01FE
:101CB000C3010E94D3068C010E94C5076BE972E044
:101CC000C7010E94DA06882309F445C0C7010396BC
:101CD0000E9460119C01215031092231310508F028
:101CE00042CD80E090E0F801E80FF11D40814423EF
:101CF00011F150ED540F523030F451E0413309F0FE
:101D000050E0990F952B8F5FEECF69EB72E0C80121
:101D10000E94DA06882309F426CD80912D038823BA
:101D200039F00E945D0A10922D038AE192E099CD6C
:101D30008BE092E0C6CD2830310534F4F901EF5C38
:101D4000FD4F808180959823295B3B4FF90190835B
:101D50000E94B40908CD6EEC72E0C7010E94F10642
:101D6000811120C06FEB72E0C7010E94F106811162
:101D700019C063EC72E0C7010E94F1068111F3CC37
:101D800069EC72E0C7010E94F1068111ECCC64E8B5
:101D900072E0C7010E94F1068823A1F081E08093E0
:101DA0007B04E1CCC8010E94601197FD07C08F3F02
:101DB000910509F02CF480932C03CACF80E0FBCF6F
:101DC0008FEFF9CF6CE672E0C7010E94F10688231D
:101DD00019F00E949707C7CC61ED72E0C7010E941D
:101DE000F106882309F48DC0D8018C91882309F469
:101DF000BACC98018901F90180812F5F3F4F803271
:101E0000C9F38B33B9F3882309F4ADCC6BE370E0ED
:101E1000C8010E94211A7C01009711F0DC011C927C
:101E200065ED72E0C8010E94DA068823C1F0C8019E
:101E300003960E94601197FD0EC0843691056CF4E4
:101E400080931502E114F10409F488C1F7012BE332
:101E500021938F01C9CF80E0F3CF83E6F1CF69ED05
:101E600072E0C8010E94DA06882389F0C80104964E
:101E70000E9460111816190634F4853691052CF469
:101E800080931402DFCF81E0FBCF84E6F9CF6BE9CA
:101E900072E0C8010E94DA06882329F0C80103967F
:101EA0000E946011CFCF6EED72E0C8010E94DA0689
:101EB0008111F4CF62EE72E0C8010E94DA06882335
:101EC00061F048E050E0B8016C5F7F4F89E092E03C
:101ED0000E94351A10921102B5CF67EE72E0C80168
:101EE0000E94DA06882309F4ADCF48E050E0B8013B
:101EF0006D5F7F4F8BEA94E00E94351A1092B30415
:101F0000A1CF64EB72E0C7010E94DA06882309F4CE
:101F10002ACCC70104960E94D3067C016BEE72E0C6
:101F20000E94DA06882381F06CE272E0C8010E9408
:101F30002C1A892B31F481E080932D038EEF91E0F0
:101F4000C0CC8FEE91E0BDCC6CE872E0C7010E947E
:101F5000DA06882329F010922D0381EE91E0B1CCAE
:101F60006FEE72E0C7010E94DA06811107C069EBCB
:101F700072E0C7010E94DA06882321F080912D03C8
:101F8000811144C063EF72E0C7010E94DA0681113B
:101F900044C066EF72E0C7010E94DA06811185C075
:101FA00065E073E0C7010E94DA06882309F4DBCB01
:101FB00080912D03882309F4D6CBC8010E94D30653
:101FC000FC0101900020E9F79F0121503109281BF5
:101FD000390B61E02830310509F060E0FC01DC01DB
:101FE000AD01481B590B421753070CF081C0662303
:101FF00009F49AC04D9150ED540F5A3088F34F7D3B
:10200000415461E0463060F360E0EACF0E945D0A2F
:1020100010922D0386ED91E024CC80912D0388232E
:1020200009F4B7CFC8010E94D3067C016EE270E0CC
:102030000E94211A8C010097A9F1E816F90690F583
:10204000DC011D923D01C7010E9460117C01C301AA
:102050000E9460112EE2F80120839701215031097E
:1020600029303105E0F48A309105C8F49F938F93AD
:10207000FF92EF923F922F921F9289E08F935F928F
:102080004F920E94441A0E94C2068AEC91E00E947C
:1020900033070FB6F894DEBF0FBECDBF64CB8BEB1A
:1020A00091E00FCC8BEA91E00CCC80912D0388233A
:1020B00009F476CFC8010E94D306DC010D90002000
:1020C000E9F79D01281B390B2450310926303105D1
:1020D00060F448E050E0BC0189E092E00E94351ACB
:1020E000109211028DE991E0ECCB8BE891E0E9CB05
:1020F0006623D1F0ABEAB4E0089621913FE9320FB4
:10210000363008F420522D938E179F07B1F71092A6
:10211000B30480E891E00E94E7058BE492E00E941E
:1021200090078BEA94E040CD80E791E0CACB0E9413
:10213000F804C0902E04D0902F04E0903004F0906A
:1021400031046C197D098E099F096436710581057A
:10215000910508F4F6CA1093330460CBD8010D90B2
:102160000020E9F78D01015011093ECE1F920F9218
:102170000FB60F9211242F933F938F939F93AF939A
:10218000BF938091A3049091A404A091A504B09161
:10219000A6043091A20423E0230F2D3758F50196B1
:1021A000A11DB11D2093A2048093A3049093A404C5
:1021B000A093A504B093A6048091A7049091A804CD
:1021C000A091A904B091AA040196A11DB11D80930C
:1021D000A7049093A804A093A904B093AA04BF9164
:1021E000AF919F918F913F912F910F900FBE0F90C4
:1021F0001F90189526E8230F0296A11DB11DD2CF7E
:102200001F920F920FB60F9211240BB60F922F93BD
:102210003F934F935F936F937F938F939F93AF936E
:10222000BF93EF93FF9385EB94E00E947805FF91B5
:10223000EF91BF91AF919F918F917F916F915F913E
:102240004F913F912F910F900BBE0F900FBE0F90AB
:102250001F9018951F920F920FB60F9211240BB674
:102260000F922F938F939F93EF93FF93E091C50469
:10227000F091C6048081E091CB04F091CC0482FD02
:102280001DC090818091CE048F5F8F732091CF0409
:10229000821741F0E091CE04F0E0EB54FB4F958FB4
:1022A0008093CE04FF91EF919F918F912F910F908A
:1022B0000BBE0F900FBE0F901F9018958081F2CF2C
:1022C000FC01208101962032D9F341E02D3211F436
:1022D000FC014FEF30E020E05AE0819190ED980F43
:1022E0009A3068F4529FB001539F700D1124082E4C
:1022F000000C990BC0979C01260F371FEECF4203AD
:10230000C001439F900D1124089588E198E00FB615
:10231000F894A895809360000FBE90936000FFCF63
:10232000CF93DF93CDB7DEB76C970FB6F894DEBFCF
:102330000FBECDBF789484B5826084BD84B58160C2
:1023400084BD85B5826085BD85B5816085BD809180
:102350006E00816080936E001092810080918100F8
:1023600082608093810080918100816080938100F0
:10237000809180008160809380008091B1008460B2
:102380008093B1008091B00081608093B000809113
:102390009100826080939100809191008160809390
:1023A0009100809190008160809390008091A100C5
:1023B00082608093A1008091A10081608093A10040
:1023C0008091A00081608093A000809121018260B3
:1023D000809321018091210181608093210180916E
:1023E000200181608093200180917A008460809335
:1023F0007A0080917A00826080937A0080917A00DE
:10240000816080937A0080917A00806880937A005E
:102410001092C10014BE0FB6F894A8958091600088
:10242000886180936000109260000FBEE091C50447
:10243000F091C60482E08083E091C104F091C2046F
:102440001082E091C304F091C40480E18083109273
:10245000CD04E091C904F091CA0486E08083E09144
:10246000C704F091C804808180618083E091C70433
:10247000F091C804808188608083E091C704F09166
:10248000C804808180688083E091C704F091C8040B
:1024900080818F7D808385EB94E00E94070662E354
:1024A00070E080E090E00E94C60461E089E00E9454
:1024B000480461E088E00E94480460E08AE00E94ED
:1024C000480461E080E10E94480461E08FE00E94DE
:1024D000480460E081E10E94480461E087E20E94D4
:1024E000480461E088E20E94480460E08AE20E94B9
:1024F000480462E085E10E94480462E086E10E94AF
:10250000480461E086E00E94480461E085E00E94A2
:10251000480461E087E00E94480461E083E00E9493
:10252000480461E082E00E94480461E084E00E9487
:10253000480461E08CE00E94480461E08BE00E9466
:10254000480461E08EE00E94480461E083E10E945B
:10255000480461E082E10E94480461E084E10E9455
:10256000480461E08CE20E94480461E089E20E9434
:10257000480461E08BE20E94480461E08EE20E9420
:10258000480461E080E30E94480460E08BE30E941D
:10259000480460E08CE30E94480460E08DE30E9400
:1025A000480460E08EE30E94480482E1E7E4F4E03E
:1025B000DF01C82E1D92CA94E9F7E5E3F4E0DF01DC
:1025C0001D928A95E9F78AE0E2E9F4E0DF01C82E7E
:1025D0001D92CA94E9F7E8E8F4E0DF011D928A95BC
:1025E000E9F788E0ECE7F4E0DF01C82E1D92CA9419
:1025F000E9F7E3E7F4E0DF011D928A95E9F790E05F
:1026000080E00E94420A182F81E090E00E94420A76
:10261000982F812F8A35954AA9F084EC93E00E9487
:1026200033070E94DB070E945D0A88EB93E00E945B
:10263000E7058BE492E00E9490078BEA94E00E9409
:10264000B90755C082E090E00E94420AF82E5E0170
:10265000E4E1AE0EB11C650103E010E0C8010E9488
:10266000420AD6018D936D010F5F1F4F0B3011058C
:10267000A9F76E01BBE0CB0ED11C4601C8010E9438
:10268000420AF40181934F010F5F1F4F033111057F
:10269000A9F71C8E1B8AF2E0FF1538F00E94DB07B9
:1026A0000E945D0A88EA93E0C2CF23E0F21609F4A3
:1026B00093C08BE893E00E94E7056F2D70E090E0F7
:1026C00080E04AE00E944C0781E20E9402068DE30E
:1026D0000E9402064AE063E070E080E090E00E9421
:1026E0004C070E942F070E94DB070E945D0A0E9490
:1026F000390A0E9450090E9458068AE0E2E9F4E093
:10270000A8E8B4E001900D928A95E1F788E0ECE743
:10271000F4E0A3E7B4E001900D928A95E1F711E0AF
:102720001093A10410937B0410923404109233048C
:102730008091320481110AC066E970E080E090E087
:102740000E94C6040E949707109332048EED93E016
:102750000E94E7058BE492E00E9490078BEA94E0E8
:102760000E94B90777247394BB24B394A12C12E17F
:10277000612E08E0402E512C9E012F5F3F4F190122
:102780000E94F8046B017C018091A104823009F061
:10279000F5C30E94530B0E94F8046B017C010E9458
:1027A000500980916F048111ACC070926F04109237
:1027B0006E0410926D04C0926904D0926A04E09293
:1027C0006B04F0926C0483E295E00E9433070E9450
:1027D000390A0E942706D4CFAE014F5F5F4F7A01BE
:1027E0004A01C8010E94420AD4018D934D010F5F36
:1027F0001F4F0C311105A9F71A868CE190E00E9459
:10280000420A182FA701B601C5010E9466031817D6
:1028100029F086E793E00E94330765CFA501485F62
:102820005F4F90E080E0F50121915F01322F3F7D05
:1028300029F0FC01E75FFD4F20830196A416B50641
:1028400091F7009721F0875F9D4FDC011C92A60154
:10285000485F5F4F90E080E0F60121916F01322FD9
:102860003F7D29F0FC01E050FE4F20830196C41605
:10287000D50691F7009721F080509E4FDC011C9205
:10288000A701485F5F4F90E080E0F70121917F0151
:10289000322F3F7D29F0FC01E555FB4F2083019647
:1028A000E416F50691F7FC01E555FB4F1082892BE4
:1028B00029F50E94DB070E945D0A8AE693E00E94E8
:1028C000E7058BE492E00E9490078BEA94E00E9477
:1028D000B9070E94C2068DE493E00E94E70589E0F3
:1028E00092E00E94900787E493E00E94E70580E071
:1028F00092E00E94900782E493E099CE8BE593E00A
:10290000DECF8091700490917104892B11F5809134
:10291000690490916A04A0916B04B0916C04A701C2
:102920009601281B390B4A0B5B0BDA01C901803673
:102930009A4EA105B10568F07092A1041092A0040E
:1029400010926F040E94390A80E195E00E943307DB
:1029500040CF4AE050E068E874E082E994E00E94E9
:102960000D1A892B09F453C0C0926904D0926A04ED
:10297000E0926B04F0926C04909192048091880430
:10298000981709F444C0892780FF41C090FF3FC0D9
:1029900080916D0490916E04019664E070E00E9455
:1029A000DD198C0190936E0480936D048AE0E2E956
:1029B000F4E0A8E8B4E001900D928A95E1F785E093
:1029C00095E00E94E705C8010E94750880916D049A
:1029D00090916E04009709F005C186EF94E00E9483
:1029E0003307B0927004A0927104109268041092A0
:1029F00067041092660410926504C0926104D0923C
:102A00006204E0926304F09264040E94390A8091A7
:102A1000700490917104019709F092C0C09269040A
:102A2000D0926A04E0926B04F0926C04809161048D
:102A300090916204A0916304B0916404A70196018F
:102A4000281B390B4A0B5B0BDA01C9012091670483
:102A500030916804232B09F032C186399105A10514
:102A6000B10508F4B6CEC0926104D0926204E0923F
:102A70006304F0926404E7E4F4E0DF01262D1D9284
:102A80002A95E9F7809065049090660430E98316F2
:102A900091040CF011C1840197FE02C0095F1F4F21
:102AA000A3E015950795AA95E1F71127F801E95BD1
:102AB000FB4FC401B2010E94DD194B2D01C0440F30
:102AC0008A95EAF740830E94B40984E494E00E9466
:102AD000E705C4010E9447088EE394E00E94E705E1
:102AE000C80101960E9447088EE20E94020680916A
:102AF000650490916604B2010E94DD190E94750878
:102B00008091650490916604019690936604809389
:102B1000650481399105A4F0B0926704A09268041D
:102B20001092660410926504C0926104D09262040F
:102B3000E0926304F092640481E294E00E9433071F
:102B400020917004309171042330310509F041CE99
:102B5000C0926904D0926A04E0926B04F0926C0413
:102B600080915F0490916004009709F010C18091FA
:102B70005B0490915C04A0915D04B0915E04A70198
:102B80009601281B390B4A0B5B0BDA01C9014E97E2
:102B9000A105B10508F41DCEC0925B04D0925C047F
:102BA000E0925D04F0925E040091590410915A0481
:102BB000003911050CF4CAC08EE191E0801B910B25
:102BC0000F3131E013070CF4C2C0B0925F04A09241
:102BD000600410925A04109259040E94390A8AE93A
:102BE00094E0B4CE8130910541F589EE94E00E94E5
:102BF0003307B2E98B2EB4E09B2E01E010E0D40144
:102C00006D914D01C1010E940B0786EE94E00E9478
:102C1000E705C8010E9447088DE30E940206C10132
:102C20000E9490078BE30E9402060F5F1F4F0B303C
:102C3000110529F70E942F07EACE8230910561F530
:102C400087ED94E00E94E7050E94F80428EE33E047
:102C500040E050E00E94AC19CA01B9014AE00E946C
:102C60004C0782EC94E00E94E70580915205909118
:102C70005305009711F486E595E0F101E81BF90B87
:102C8000CF010E94470888EB94E00E94E70584E5A5
:102C900092E00E94B907BBCE039709F0B8CE7092BC
:102CA000A1041092A00410926F040E94390A8DEAC8
:102CB00094E00E943307ABCE0E94B40921CF80324A
:102CC0009340A105B10508F484CDC0926104D0926F
:102CD0006204E0926304F0926404E7E4F4E0DF014C
:102CE000262D1D922A95E9F700916504109166043E
:102CF0000231110544F5F801E95BFB4F3FEF3083EA
:102D00000E94B40981E194E00E94E705C8010196A0
:102D10000E94470885E094E00E9433078091650493
:102D2000909166040196909366048093650442979F
:102D30000CF406CF0E94390A1092710410927004AC
:102D400081EF93E0FBCE0E94B409E8CFC801E7E42D
:102D5000F4E0DF01C62C1D92CA94E9F79C0197FFAD
:102D600002C0295F3F4FF3E035952795FA95E1F7CB
:102D7000F901E95BFB4FB2010E94DD19DB2C01C0B8
:102D8000DD0C8A95EAF7D0820E94B40990C08130A8
:102D9000910509F042C080915B0490915C04A09180
:102DA0005D04B0915E04A7019601281B390B4A0B04
:102DB0005B0BDA01C90184369105A105B10508F460
:102DC00008CDC0925B04D0925C04E0925D04F09266
:102DD0005E040091590410915A040231110534F433
:102DE000F801E95BFB4F3FEF3083CECF0432110592
:102DF0002CF4F801EB5CFB4F1082C6CF42E050E0B0
:102E00005093600440935F0410925A041092590446
:102E10000E94390A87E894E099CD8230910509F043
:102E200056C00091590410915A0480915B0490910E
:102E30005C04A0915D04B0915E04B701A601481B3B
:102E4000590B6A0B7B0B8EE690E0801B910B880F71
:102E5000991F092E000CAA0BBB0B481759076A07CC
:102E60007B0708F4B6CCC0925B04D0925C04E0927D
:102E70005D04F0925E0404361105ACF030936004FA
:102E800020935F0410925A041092590442E150E0DA
:102E90006FEF70E087E494E00E941A1A0E94B40970
:102EA00085E794E053CD00FF09C00E94390A0F5F07
:102EB0001F4F10935A04009359048BCC42E150E009
:102EC0006FEF70E087E494E00E941A1A5DCF0397D9
:102ED00009F07FCC80915B0490915C04A0915D042B
:102EE000B0915E04A7019601281B390B4A0B5B0BBE
:102EF000DA01C901843C9940A105B10508F469CC07
:102F00000091120210911302015011091093130243
:102F10000093120210161106E4F41092600410924D
:102F20005F0410925A0410925904C0925B04D0922C
:102F30005C04E0925D04F0925E040E94390A83E62C
:102F400094E00E94E705C8010E9447080E943F07DD
:102F500040CC0E94390A10927104109270041092B1
:102F6000600410925F0410925A0410925904B092B7
:102F70001202A092130283E594E0E8CC833029F496
:102F80007092A1041092A00424CC0E94530B809153
:102F90009C0490919D04A0919E04B0919F04A70170
:102FA0009601281B390B4A0B5B0BDA01C9010A9702
:102FB000A105B10508F40DCCC0929C04D0929D04EB
:102FC000E0929E04F0929F040E9450090E945806CD
:102FD0004AE050E068E874E082E994E00E940D1A4B
:102FE000892B59F18091840490918504A0918604E5
:102FF000B0918704B701A601481B590B6A0B7B0BE4
:103000008091150290E0B0E0A0E0481759076A07E8
:103010007B0798F0C0928404D0928504E0928604E5
:10302000F09287048AE0E2E9F4E0A8E8B4E00190D5
:103030000D928A95E1F70E94810880919204877031
:103040009091A104913009F05CC0873009F05CC018
:1030500080917204811111C09093720432E0309318
:10306000A1040E94F804109271041092700410924E
:103070006F048EE295E00E9433072091140230E045
:1030800000271127021B130B4CE7E42E44E0F42E1B
:10309000E3E7F4E0D70190E080E04D915D9161912C
:1030A00071916A01C61AD70AC016D1061CF02C15F8
:1030B0003D056CF5880F991FFC01ED58FB4F5183BE
:1030C000408301E010E080E495E00E94E705C8013C
:1030D0000E9447088AE30E940206D7016D917D9104
:1030E0007D0190E080E04AE00E944C078BE30E9463
:1030F00002060F5F1F4F0530110529F70E942F07A9
:103100000AC0873009F4B9CF10927204B6CF019685
:103110008430910511F680917B04882309F459CB02
:103120000E94810856CBE5EBF4E01382128288EE10
:1031300093E0A0E0B0E084839583A683B7838DE31A
:1031400092E09183808385EC90E09587848784EC7E
:1031500090E09787868780EC90E0918B808B81EC64
:1031600090E0938B828B82EC90E0958B848B86EC45
:1031700090E0978B868B118E128E138E148E08958D
:103180008F929F92AF92BF92CF92DF92EF92FF9277
:10319000CF93DF93EC01688179818A819B816115EE
:1031A00071058105910521F464E279ED8BE597E0E5
:1031B0002DE133EF41E050E00E947A1949015A01B4
:1031C0009B01AC01A7EAB1E40E9499196B017C0153
:1031D000ACEEB4EFA50194010E94A719C60ED71E4C
:1031E000E81EF91EF7FE06C081E0C81AD108E10802
:1031F00080E8F80AC882D982EA82FB82C701B60158
:103200009F77DF91CF91FF90EF90DF90CF90BF90AD
:10321000AF909F908F9008958F929F92AF92BF92A0
:10322000CF92DF92EF92FF92609116027091170297
:10323000809118029091190261157105810591051F
:1032400021F464E279ED8BE597E02DE133EF41E085
:1032500050E00E947A1949015A019B01AC01A7EA8A
:10326000B1E40E9499196B017C01ACEEB4EFA501A9
:1032700094010E94A719C60ED71EE81EF91EF7FE7C
:1032800006C081E0C81AD108E10880E8F80AC092B7
:103290001602D0921702E0921802F0921902C701AA
:1032A000B6019F77FF90EF90DF90CF90BF90AF90E7
:1032B0009F908F90089560931602709317028093E9
:1032C0001802909319020895F999FECF92BD81BD1D
:1032D000F89A992780B50895262FF999FECF1FBA3D
:1032E00092BD81BD20BD0FB6F894FA9AF99A0FBE2F
:1032F00001960895052E97FB1EF400940E949119E3
:1033000057FD07D00E94AC1907FC03D04EF40C9473
:10331000911950954095309521953F4F4F4F5F4FF4
:10332000089590958095709561957F4F8F4F9F4F31
:1033300008950E94CE19A59F900DB49F900DA49F53
:10334000800D911D11240895B7FF0C9499190E94C6
:103350009919821B930B0895A1E21A2EAA1BBB1B7D
:10336000FD010DC0AA1FBB1FEE1FFF1FA217B30751
:10337000E407F50720F0A21BB30BE40BF50B661F67
:10338000771F881F991F1A9469F76095709580952B
:1033900090959B01AC01BD01CF010895A29FB001A2
:1033A000B39FC001A39F700D811D1124911DB29F79
:1033B000700D811D1124911D089597FB072E16F4A1
:1033C000009407D077FD09D00E94F91907FC05D0B9
:1033D0003EF4909581959F4F0895709561957F4F2C
:1033E0000895EE0FFF1F881F8BBF0790F691E02D09
:1033F0001994AA1BBB1B51E107C0AA1FBB1FA6172C
:10340000B70710F0A61BB70B881F991F5A95A9F78D
:1034100080959095BC01CD010895FB01DC0104C0AD
:103420008D910190801921F441505040C8F7881BBC
:10343000990B0895DC0101C06D9341505040E0F7B5
:103440000895FC018191861721F08823D9F79927E7
:1034500008953197CF010895FB01DC018D91019012
:1034600080190110D9F3990B0895FB01DC0141503B
:10347000504048F001900D920020C9F701C01D9204
:1034800041505040E0F708950F931F93CF93DF937F
:10349000CDB7DEB72E970FB6F894DEBF0FBECDBF07
:1034A0000E891F89888D998D26E02C831A830983C4
:1034B00097FF02C080E090E801979E838D83AE0164
:1034C000445E5F4F6A8D7B8DCE0101960E94811A0A
:1034D0004D815E8157FD0AC02F8138854217530701
:1034E0000CF49A01020F131FF80110822E960FB6EA
:1034F000F894DEBF0FBECDBFDF91CF911F910F912A
:1035000008952F923F924F925F926F927F928F9287
:103510009F92AF92BF92CF92DF92EF92FF920F9362
:103520001F93CF93DF9300D000D000D01F921F9243
:10353000CDB7DEB77C013B018A01FC011782168200
:10354000838181FFDDC1CE0101965C01F70193818A
:10355000F30193FD859193FF81913F01882309F445
:1035600053C1853239F493FD859193FF81913F01D9
:10357000853229F4B70190E00E94991CE7CF912C85
:10358000212C312CFFE1F31538F08B3211F190F43E
:10359000803209F1833229F137FC3CC020ED280F3D
:1035A0002A3050F536FE20C08AE0989E200D112466
:1035B000922E06C08D3291F0803371F7689430F806
:1035C000F30193FD859193FF81913F018111DACF42
:1035D00021C0689431F8689432F8F2CF689433F8D7
:1035E000EFCF689434F8ECCFEAE02E9E200D112442
:1035F000222E689435F8E4CF8E3229F436FC04C1CB
:10360000689436F8DDCF8C3619F4689437F8D8CF43
:103610008836B1F2982F9F7D95549330E0F0833631
:10362000A1F18337C1F1833509F063C02801F2E0CD
:103630004F0E511CF801C080D180692D70E036FC1E
:1036400002C06FEF7FEFC6010E94831C4C0168949B
:1036500037F882010AC00C5F1F4FFFE3F98388240B
:103660008394912C6501E89437F833FE2DC0522CD9
:103670008114910471F5552009F468CFB70180E2F7
:1036800090E00E94991C5A94F6CFF80180818983BA
:103690000E5F1F4FE4CF2801F2E04F0E511CF801DE
:1036A000C080D180692D70E036FC02C06FEF7FEFE3
:1036B000C6010E948E1C4C018201D5CFB70180E269
:1036C00090E00E94991C2A942814190409F0B0F77C
:1036D000CECFF60137FC859137FE81916F01B7019E
:1036E00090E00E94991C51105A94F1E08F1A9108B1
:1036F000BFCF843619F0893609F077C0F80137FE5C
:103700006BC060817181828193810C5F1F4FF32DAB
:10371000FF763F2E97FF09C0909580957095619533
:103720007F4F8F4F9F4F689437F82AE030E0A50114
:103730000E94C91CC82ECA188C2C432C36FE0CC003
:10374000E89440F8C91440F434FE05C032FC03C0CC
:10375000F32DFE7E4F2E892C44FEAAC0FE01EC0DF7
:10376000F11D8081803309F09CC0242D297E422EDA
:10377000842D8870582E43FCAAC040FEA4C09C2C07
:10378000821418F42C0C922C981844FEA6C0B70191
:1037900080E390E00E94991C42FE09C088E790E017
:1037A00041FE02C088E590E0B7010E94991CC9144F
:1037B00008F49FC0CA94D12C9FEFC91AD90ACA0C29
:1037C000DB1CF60182916F01B70190E00E94991C09
:1037D000AC14BD04B1F74FCF60817181072E000C8E
:1037E000880B990B0E5F1F4F92CFD32CE894D4F81F
:1037F0002AE030E08537E1F1232D297FD22E8F3664
:10380000A9F1F0F4883551F1F701868197812B9663
:103810000FB6F894DEBF0FBECDBFDF91CF911F91E1
:103820000F91FF90EF90DF90CF90BF90AF909F905F
:103830008F907F906F905F904F903F902F90089562
:10384000803749F0883701F7D4FE02C06894D2F877
:1038500020E130E00DC06894D4F8F6CF34FE03C008
:10386000822F8660D82E20E132E002C028E030E0CE
:10387000F801D7FE0FC060817181828193810C5F56
:103880001F4FA5010E94C91CC82ECA183D2CE894E0
:1038900037F852CF6081718190E080E00E5F1F4F5A
:1038A000F0CF42FC02C0839463CF8394839460CFB3
:1038B000842D867809F45CCFF6CFB70180E290E0E2
:1038C0000E94991C83948214C0F3512C5ECF522C19
:1038D0005818821408F459CFF8CF842D867809F44B
:1038E00066CF8BE241FE80E247FC8DE2B70190E0BB
:1038F0005CCFB70180E390E00E94991C9A9457CF67
:103900008FEF9FEF84CFFC01059061507040011054
:10391000D8F7809590958E0F9F1F0895FC016150F8
:10392000704001900110D8F7809590958E0F9F1FE1
:1039300008950F931F93CF93DF93182F092FEB0157
:103940008B8181FD09C01FEF0FEF812F902FDF9139
:10395000CF911F910F91089582FF14C02E813F8156
:103960008C819D81281739073CF4E881F981CF01CA
:1039700001969983888310838E819F8101969F830E
:103980008E83E3CFE885F985812F1995892BA1F3E3
:10399000DACFFA01AA27283051F1203181F1E894D9
:1039A0006F936E7F6E5F7F4F8F4F9F4FAF4FB1E032
:1039B0003ED0B4E03CD0670F781F891F9A1FA11D2D
:1039C000680F791F8A1F911DA11D6A0F711D811D2E
:1039D000911DA11D20D009F468943F912AE0269FF3
:1039E00011243019305D3193DEF6CF010895462F52
:1039F0004770405D4193B3E00FD0C9F7F6CF462F33
:103A00004F70405D4A3318F0495D31FD405241939B
:103A100002D0A9F7EACFB4E0A69597958795779558
:103A20006795BA95C9F700976105710508959B01DF
:103A3000AC010A2E06945795479537952795BA9568
:103A4000C9F7620F731F841F951FA01D0895F89476
:023A5000FFCFA6
:103A520050434220312E300000442D413332300099
:103A620000000100050C010000004F48505F534563
:103A7200432C2076312E33204D41510030383135E0
:103A820000FFFFFFFFFFFFFFFF000000009A050499
:103A920005310507066205400554054F48532D00C0
:103AA2003B3C3D3E312E33000D0A0030313233347F
:103AB200353637383941424344454600564552006F
:103AC20056455253494F4E004944454E54005245C3
:103AD2005345540052455100504342004558495401
:103AE2000044494147004E455854004C4544004962
:103AF2004E004845414C54480053484F57005348E4
:103B02004F573A00534554200057524954450042FA
:103B12004C5400535441544500444953505F424C65
:103B22000043464700444542004445414400445353
:103B320050005245473A00534E3A00454E41005715
:103B420052490046570041434944005043622025F0
:083B5200642E256400534E00AF
:00000001FF
