:100000000C94DB000C9403010C9403010C94030189
:100010000C9403010C9403010C9403010C94030150
:100020000C9403010C9403010C9407090C947609B9
:100030000C9403010C9403010C9403010C94030130
:100040000C9403010C9403010C9403010C94030120
:100050000C9403010C9403010C9403010C94BD084F
:100060000C9403010C9403010C9403010C94030100
:100070000C9403010C9403010C9403010C940301F0
:100080000C9403010C9403010C9403010C940301E0
:100090000C9403010C9403010C9403010C940301D0
:1000A0000C9403010C9403010C940301080B00024F
:1000B0000202000009040000010202000005240001
:1000C0001001052401010104240206052406000193
:1000D0000705810310004009040100020A00000026
:1000E00007050202400000070583024000000403E8
:1000F000090412010002EF02014041233780000190
:100100000102030141726475696E6F204C4C43001B
:1001100041726475696E6F204D6963726F000000F3
:100120000000240027002A002D00300000000000FD
:10013000250028002B002E003100000000002300C5
:10014000260029002C002F000404040404030405E5
:100150000202020204030202020206060606060664
:10016000040402020204040408020110408040104A
:1001700020408040800802040180402010020110CD
:100180008010204040200000000200090F00000302
:100190000401000C0000000000000000000000004E
:1001A0000000000000070605040100080A0B0C0D02
:1001B0000900A80BDF1011241FBECFEFDAE0DEBF6D
:1001C000CDBF22E0AEEAB1E001C01D92A338B20774
:1001D000E1F711E0A0E0B1E0ECE9FCE202C005903B
:1001E0000D92AE3AB107D9F710E0CAEDD0E004C0E5
:1001F0002197FE010E948411C93DD107C9F70E94D1
:10020000C20B0C9441160C940000EBEAF1E0E4916F
:1002100090917B008E2F880F880F80729F7D892B95
:1002200080937B00E770E064E0937C0080917A002B
:10023000806480937A0080917A0086FDFCCF809163
:100240007800909179000895FC018091280288231C
:1002500011F13FB7F89482E08093E9002091F20019
:10026000822F90E01816190614F481E090E088239C
:1002700039F0289A44E6409327024091F1004083E8
:10028000222339F02091F200211103C02BE62093A4
:10029000E8003FBF08958FEF9FEF08952FB7F894C0
:1002A00083E08093E9009091E800892F807295FFA8
:1002B00004C09091F20080E4891B2FBF08958091C3
:1002C0001F0281110DC082E080931B0284E08093A5
:1002D0001C0210921E0210921D0281E080931F02E8
:1002E0008BE192E0089581508F3008F047C0E82FED
:1002F000F0E0E358FE4F0C9484119A019E018C01AA
:1003000092019601BE01BE01BE01A101A701AB0190
:10031000AF01B501BE01B901809180008F77809354
:1003200080000895809180008F7DF9CF80918000BA
:10033000877FF5CF84B58F7784BD089584B58F7D91
:10034000FBCF809190008F778093900008958091EB
:1003500090008F7DF9CF80919000877FF5CF8091BD
:10036000C0008F778093C00008958091C0008F7D7A
:10037000F9CF8091C200877F8093C20008951F93B8
:10038000CF93DF93282F30E0F901EA57FE4F849195
:10039000F901E959FE4FD491F901E85BFE4FC49190
:1003A000CC23A9F0162F81110E947301EC2FF0E0ED
:1003B000EE0FFF1FE45DFE4FA591B4918FB7F89447
:1003C000EC91111108C0D095DE23DC938FBFDF9133
:1003D000CF911F910895DE2BF8CFCF93DF9390E05C
:1003E000FC01E959FE4F2491885B9E4FFC018491EA
:1003F0008823D1F090E0880F991FFC01E25EFE4F48
:10040000A591B491FC01E45DFE4FC591D4916111B9
:100410000EC09FB7F8948C91E22FE0958E238C93B9
:100420002881E223E8839FBFDF91CF9108958FB7A2
:10043000F894EC91E22BEC938FBFF6CF1F93CF9300
:10044000DF93182FEB0161E00E94ED01209739F452
:1004500060E0812FDF91CF911F910C94BF01CF3FBE
:10046000D10511F461E0F5CFE12FF0E0EA57FE4F3E
:10047000E491E150EF3008F07FC0F0E0EE5BFD4F1B
:100480000C948411510259025E0268027202BC028D
:10049000BC02BC027C02860290029A02A702BC0245
:1004A000AF0284B5806884BDC7BDDF91CF911F9135
:1004B000089584B5806284BDC8BDF7CF8091800067
:1004C000806880938000D0938900C0938800EDCF2E
:1004D00080918000806280938000D0938B00C093D5
:1004E0008A00E3CF80918000886080938000D09361
:1004F0008D00C0938C00D9CF80919000806880934C
:100500009000D0939900C0939800CFCF8091900035
:10051000806280939000D0939B00C0939A00C5CFD7
:1005200080919000886080939000D0939D00C0934C
:100530009C00BBCF8091C00080688093C0008091F8
:10054000C0008F7B8093C000C093CF00AECF80915E
:10055000C00080628093C000C093D000A6CF80917D
:10056000C20088608093C2008091C2008B7F80931C
:10057000C200C093D20099CFC038D1050CF072CF21
:1005800067CF3FB7F8948091170290911802A0911D
:100590001902B0911A0226B5A89B05C02F3F19F089
:1005A0000196A11DB11D3FBFBA2FA92F982F8827F3
:1005B000BC01CD01620F711D811D911D42E0660FCE
:1005C000771F881F991F4A95D1F708958F929F92A0
:1005D000AF92BF92CF92DF92EF92FF924B015C01FC
:1005E0000E94C1026B017C010E94C1026C197D094D
:1005F0008E099F09683E734081059105A8F321E0AB
:10060000821A9108A108B10888EEC80E83E0D81EAE
:10061000E11CF11C81149104A104B10429F7FF909D
:10062000EF90DF90CF90BF90AF909F908F90089504
:1006300008954091B4015091B5012091B2013091DB
:10064000B30142175307B4F49091E8009570E1F3B9
:100650009091E80092FD19C08093F1008091B4015F
:100660009091B50101968F739927892B19F48EEF1C
:100670008093E8008091B4019091B5010196909328
:10068000B5018093B40181E0089580E00895EF9270
:10069000FF920F931F93CF93DF93F82E192FE62E1F
:1006A000042F81E0860F880F0E94190383E00E94C7
:1006B0001903CF2DD12FEC0EFD2EF11CCE15DF0529
:1006C000B9F007FF13C0FE0184910E941903182F8F
:1006D00080E00E941903812321968111EFCFDF91E1
:1006E000CF911F910F91FF90EF9008958881EDCFEA
:1006F00081E0F5CFDF92EF92FF920F931F93CF939C
:10070000DF93D82E8A01EB017B01E40EF51ECE1596
:10071000DF0559F0D7FE12C0FE0184910E94190333
:1007200021968111F4CF0FEF1FEFC801DF91CF9118
:100730001F910F91FF90EF90DF9008958881EECF89
:100740000F931F93CF93DF931F92CDB7DEB782E055
:10075000898342E450E06CEA70E080E80E947A030A
:100760000E945F01DC0112960D911C91011511058B
:1007700089F0D801ED91FC910280F381E02DBE015A
:100780006F5F7F4FC801099597FD04C0F801008590
:100790001185ECCF89810F90DF91CF911F910F913F
:1007A0000895615030F02091F100FC012083019602
:1007B000F8CF289A84E68093270208958F929F921B
:1007C000AF92BF92CF92DF92EF92FF920F931F935F
:1007D000CF93DF936C017B018A0180910B01882309
:1007E00009F45CC080912802882309F457C08091E5
:1007F000B80180FF05C08091E00082608093E00036
:10080000E801B12C8AEFA82E93E0892E2AE3922EDC
:10081000209711F4BB20D9F10E944E0181110AC02A
:10082000AA94AA20D9F161E070E080E090E00E94F3
:10083000E602EECF8C171D0611F00CF08C2F9FB73F
:10084000F8948092E9002091E80025FD02C09FBF46
:10085000DFCF282F30E0C21BD30BF701815020F0EF
:1008600041914093F100FACFE20EF31EBB2021F03C
:100870009092E800B12CEBCF8091E80085FDE7CFA6
:100880009092E800BB24B394209709F3F3CF5D9ACC
:1008900084E68093B701101611063CF081E090E0E9
:1008A000F6019383828310E000E0C801DF91CF91CD
:1008B0001F910F91FF90EF90DF90CF90BF90AF907E
:1008C0009F908F900895FC014481558160817181D2
:1008D00089E292E00C94DE03CF93DF931F92CDB7B1
:1008E000DEB76983DC01ED91FC910280F381E02D9C
:1008F00041E050E0BE016F5F7F4F09950F90DF919F
:10090000CF91089583E08093E9008091F2008823DD
:1009100019F08AE38093E80008950E944E0190E068
:100920000895CF93DF931F92CDB7DEB7FC01848586
:10093000958597FD08C02FEF3FEF358724870F90EF
:10094000DF91CF910895CE0101960E942401019775
:1009500019F4898190E0F3CF8FEF9FEFF0CF0F93E1
:100960001F93CF93DF931F92CDB7DEB78C01FC01AD
:100970008485958597FF0BC0CE0101960E942401C6
:10098000019771F4898190E0F80195878487F801D7
:10099000848595850F90DF91CF911F910F910895D8
:1009A0008FEF9FEFF1CFFC018485958597FD0BC0FC
:1009B0009FB7F89482E08093E9008091F2009FBF96
:1009C00090E0019608959FB7F89482E08093E90043
:1009D0008091F2009FBF90E00895CF93DF93FC01D8
:1009E000A481B58130E020E080E02A173B07D1F0F8
:1009F0004081518160E04115510521F0420F531FA4
:100A0000EA01688190ED960F923048F4482F50E04B
:100A1000440F551F81E0613309F080E0842B2F5F84
:100A20003F4FE3CFDF91CF910895CF93DF93D82F3E
:100A3000C8E06D2F661F6627661F87E00E94BF0112
:100A4000DD0F61E085E00E94BF0160E085E00E946B
:100A5000BF01C15071F7DF91CF9108950F931F939C
:100A6000CF93DF93E091C401F091C501EF2B11F01A
:100A7000002341F1C22FD42F062F182F8093BA01E3
:100A80006093BB014093BC012093BD0160E082E014
:100A90000E94BF01802F0E941505812F0E9415051D
:100AA00061E082E00E94BF016D2F70E083E00E9450
:100AB0001E026C2F70E086E0DF91CF911F910F91A5
:100AC0000C941E02DF91CF911F910F9108959F9278
:100AD000AF92BF92CF92DF92EF92FF920F931F934C
:100AE000CF93DF93C7E0D0E0B12C06E911E097E7A0
:100AF000E92E91E0F92E28E5C22E21E0D22E61E008
:100B00008EE00E94BF01F8018491F701A490F601E4
:100B10009490992051F181110E947301E92DF0E028
:100B2000EE0FFF1FE65CFE4FA591B4918C91A822B9
:100B300031E009F430E0832F0C2E01C0880F0A94B5
:100B4000EAF7B82A60E08EE00E94BF012197B8F66C
:100B50008B2DDF91CF911F910F91FF90EF90DF9040
:100B6000CF90BF90AF909F90089580E0E5CFFC01BB
:100B700001900020E9F73197AF01481B590BBC01E8
:100B800089E292E00C94DE03009711F00C94B70513
:100B900090E080E0089587E391E00E94C4058EE331
:100BA00091E00E94C40582E591E00E94C40582E6BE
:100BB00091E00C94B705CF93DF93EC018881998184
:100BC000009711F00E942612198218821D821C8241
:100BD0001B821A82DF91CF910895FC01808191815F
:100BE000009711F00C9426120895FC0180819181E8
:100BF000009711F00C94E31060E070E0CB010895D1
:100C0000AF92BF92CF92DF92EF92FF920F931F931A
:100C1000CF93DF93DC01CD90DC901197C114D10408
:100C200039F01496CD91DC918C017601209761F416
:100C3000DF91CF911F910F91FF90EF90DF90CF90B8
:100C4000BF90AF90089575015701BFEFAB1ABB0A73
:100C5000F7018081082E000C990B0E941F11892B2F
:100C600091F72197CC0DDD1D8881082E000C990B82
:100C70000E941F11892B29F0CE15DF0510F0219756
:100C8000F3CFAE014F5F5F4F4E195F09D801159644
:100C90005C934E931497CE14DF0420F4B701C60181
:100CA0000E947C13D801ED91FC91119714968D91BF
:100CB0009C91E80FF91F1082BBCFCF93DF93FC010B
:100CC000248135814217530788F4C081D181062ED3
:100CD000000C770BCE01840F951F0E94851300979F
:100CE00029F08C1B9D0BDF91CF9108958FEF9FEF23
:100CF000FACFEF92FF920F931F93CF93DF93861754
:100D0000970769F1FC0124813581FB0144815581FC
:100D100024173507E1F4232B11F1FC010081118127
:100D2000FB01C081D181F80181918F018823B9F045
:100D3000082E000C990B0E946C137C018991082EDF
:100D4000000C990B0E946C13E816F90661F380E021
:100D5000DF91CF911F910F91FF90EF90089581E067
:100D6000F7CF0F931F93CF93DF93EC018881998185
:100D7000009759F02A813B812617370730F081E030
:100D8000DF91CF911F910F9108958B016F5F7F4F7E
:100D90000E94AF12009759F0998388831B830A83BE
:100DA0002C813D81232B59F7FC011082E8CF80E094
:100DB000E7CFEF92FF920F931F93CF93DF934115ED
:100DC0005105B1F07B01EC010C811D81040F151F51
:100DD000B8010E94B106882361F0288139818C8195
:100DE0009D81B701820F931F0E9499131D830C836D
:100DF00081E0DF91CF911F910F91FF90EF900895C7
:100E0000EF92FF920F931F93CF93DF93EC017B013F
:100E10008A01BA010E94B10681110BC0CE010E9465
:100E2000DB05CE01DF91CF911F910F91FF90EF90E5
:100E300008951D830C83B701888199810E949913BD
:100E4000F0CFFC011182108213821282158214826B
:100E5000FB0101900020E9F73197AF01461B570BCA
:100E60000C940007AF92BF92CF92DF92EF92FF9265
:100E70000F931F93CF93DF937C016B015A0189017C
:100E80002417350720F48B2D5901042F182F64E601
:100E900071E0C7010E942107D6011496CD91DC9123
:100EA000AC16BD0620F50C171D0708F4E801D601A5
:100EB000ED91FC911197EC0FFD1F108110826D9147
:100EC0007C916A0D7B1D61157105E9F0FB010190B4
:100ED0000020E9F73197AF01461B570BC7010E946D
:100EE0000007F60180819181C80FD91F1883C701BF
:100EF000DF91CF911F910F91FF90EF90DF90CF90F6
:100F0000BF90AF900895C7010E94DB05EACFCF9252
:100F1000DF92EF92FF920F931F93CF93DF9300D056
:100F2000CDB7DEB77C01C62E64E671E00E942107D2
:100F300007E010E0D12CC601002E02C095958795E0
:100F40000A94E2F780FD1AC080E389831A8241E0A7
:100F500050E0BE016F5F7F4FC7010E94D90601506C
:100F6000110948F7C7010F900F90DF91CF911F91A2
:100F70000F91FF90EF90DF90CF90089581E3E5CF40
:100F80002F923F924F925F926F927F928F929F9299
:100F9000AF92BF92CF92DF92EF92FF920F931F9387
:100FA000CF93DF93CDB7DEB7AB970FB6F894DEBF24
:100FB0000FBECDBF8FB7F89440901302509014022B
:100FC00060901502709016028FBF8091BE01811152
:100FD00015C08091AE019091AF01A091B001B09188
:100FE000B101A3019201281B390B4A0B5B0BDA01FB
:100FF000C9010A97A105B10508F4A1C04AEE51E064
:101000005BA74AA7C12CD12C760199E6292E91E045
:10101000392E8E010F5F1F4F85E691E00E94C405B7
:1010200019A246015701CE01819699A788A7C5014B
:10103000B4012AE030E040E050E00E946211605DBF
:10104000E8A5F9A56293F9A7E8A7FAE08F1691043D
:10105000A104B10408F08CC028A539A521153105DB
:1010600019F0C9010E94B70581E791E00E94C4050B
:10107000EAA5FBA581919191FBA7EAA78115F4E070
:101080009F0714F08FEF93E097FF02C090E080E09D
:101090009F938F933F922F921F930F930E94A013C1
:1010A000B801CE0182960E942107CE0182960E944D
:1010B0006304CE0182960E94ED0580E691E00E94D5
:1010C000C4052FEFC21AD20AE20AF20A0F900F905B
:1010D0000F900F900F900F9030E1C316D104E104F0
:1010E000F10409F099CF8EE691E00E94C405609169
:1010F0000F01C8010E948707C8010E946304C8014C
:101100000E94ED0583E791E00E94C40560910E0105
:10111000C8010E948707C8010E94630482E691E02B
:101120000E94B705C8010E94ED054092AE015092A1
:10113000AF016092B0017092B1011092BE01AB9606
:101140000FB6F894DEBF0FBECDBFDF91CF911F91D8
:101150000F91FF90EF90DF90CF90BF90AF909F9056
:101160008F907F906F905F904F903F902F90089559
:10117000812C912C540183945ACF1F920F920FB659
:101180000F9211242F933F938F939F93AF93BF930D
:101190008091130290911402A0911502B091160251
:1011A0003091120223E0230F2D3758F50196A11D2F
:1011B000B11D209312028093130290931402A09306
:1011C0001502B09316028091170290911802A09117
:1011D0001902B0911A020196A11DB11D8093170248
:1011E00090931802A0931902B0931A02BF91AF9185
:1011F0009F918F913F912F910F900FBE0F901F9055
:10120000189526E8230F0296A11DB11DD2CF1F927B
:101210000F920FB60F9211248F939F938091E1004C
:101220009091E100937F9093E10083FF0FC01092B3
:10123000E90091E09093EB001092EC0092E3909320
:10124000ED001092280298E09093F00082FF22C0F7
:1012500093E09093E9009091F200992319F09AE3BA
:101260009093E8009091B701992341F09091B701D4
:1012700091509093B701911101C05D989091270210
:10128000992341F090912702915090932702911158
:1012900001C0289884FF18C08091E2008E7E816092
:1012A0008093E2008091E1008F7E8093E100809145
:1012B000B8018E7E80618093B8019F918F910F90CD
:1012C0000FBE0F901F90189580FFF7CF8091E2001E
:1012D0008E7E80618093E2008091E1008E7E80931B
:1012E000E1008091B8018E7E8160E5CF1F920F9260
:1012F0000FB60F921124CF92DF92EF92FF920F93CD
:101300001F932F933F934F935F936F937F938F938D
:101310009F93AF93BF93EF93FF93CF93DF93CDB79B
:10132000DEB76C97DEBFCDBF1092E9008091E80078
:1013300083FF25C068E0CE0145960E94D10382EF6D
:101340008093E8008D8987FF39C09091E80090FF75
:10135000FCCF982F907609F034C19E894F89588D23
:101360002F89F88C911131C0803861F58091B901D5
:101370008093F1001092F1008EEF8093E8006C965C
:101380000FB6F894DEBF0FBECDBFDF91CF91FF91B6
:10139000EF91BF91AF919F918F917F916F915F91ED
:1013A0004F913F912F911F910F91FF90EF90DF9000
:1013B000CF900F900FBE0F901F9018959EEF9093B7
:1013C000E800C7CF1092F100D5CF913059F48111C8
:1013D000D3CF4130510581F68091B9018D7F809343
:1013E000B901CACF933049F48111C6CF41305105BC
:1013F00019F68091B9018260F2CF953041F4809165
:10140000E80080FFFCCF20682093E300B5CF963042
:1014100009F0A9C00B8D1C8D22E01092E9001092FA
:10142000B5011092B401F2122EC01092B3011092C5
:10143000B2010E94A0031F8299E09983FA8291E091
:101440009E8390EA98879AEF99872091B401309112
:10145000B501275F3F4F3C832B838D831092E900BA
:101460001092B5011092B4011093B3010093B20130
:1014700049E050E0BE016F5F7F4F80E00E947A0339
:101480000E94A00379CF1093B3010093B2010E9490
:101490005F01DC0112960D911C910115110509F4F3
:1014A00051C1D801ED91FC910480F581E02DBE0180
:1014B0006B5E7F4FC8010995009709F03EC1F801A6
:1014C00000851185EACFF3E0FF120EC08F898823D3
:1014D00009F440C0823061F440E86DE080E191E0C1
:1014E0000E944703811148CF81E28093EB0047CFF0
:1014F000813029F440E86BE084E091E0F1CF833063
:1015000099F70E945F01DC011296ED90FC908E012C
:101510000F5F1F4F6801E114F10479F0D701ED91DD
:10152000FC910680F781E02DB801C7010995080FED
:10153000111DF701E084F184EECFD8011C92F60171
:1015400001900020E9F73197BF016C197D0940E057
:10155000C601C6CF6EEE70E0FB01449150E080E81A
:101560000E947A0309CF973009F4BECF983021F456
:1015700081E08093F10000CF993009F0FDCE8370B7
:1015800009F0B2CFE7E1F1E081E031E096E32191AB
:10159000222371F08093E9003093EB00DF01119773
:1015A0002C912093EC009093ED008F5F873079F7BA
:1015B0008EE78093EA001092EA008F8980932802D8
:1015C000DBCE8B8D9C8D1092E9001092B5011092AC
:1015D000B4019093B3018093B201898D811192C0BF
:1015E0008E899D89913A49F4813209F07DCF47E097
:1015F00050E064E071E080E0B3CF913209F074CF45
:10160000833269F48F89988DB0E0A0E08093000167
:1016100090930101A0930201B0930301ADCE8032FB
:1016200069F48091E80082FFFCCF67E084E091E0FC
:101630000E94D1038BEF8093E8009ECE823209F0A6
:101640009BCE8F8980930B01EEEFFFE785919491FC
:101650008B3F9C4D51F1E0E0F8E0809104019091C6
:101660000501A0910601B0910701803B9440A105BE
:10167000B105F1F480910B0180FD1AC0EE3F8AE0C4
:10168000F80789F587E797E7918380838091600069
:101690008093B60188E19BE00FB6F894A8958093FB
:1016A00060000FBE9093600067CEEEEFFAE0D5CFFA
:1016B000808191818737974709F05ECEA895809108
:1016C00060008861809360008091B6018093600023
:1016D000EE3F2AE0F20789F08091FE0A9091FF0A1E
:1016E0009183808349CE808191818737980751F219
:1016F0009093FF0A8093FE0AC5CF1092FF0A1092C2
:10170000FE0A3ACE0E945F01DC0112960D911C91F7
:101710000115110509F4E8CED801ED91FC91019075
:10172000F081E02DBE016B5E7F4FC80109958111EC
:1017300023CEF80100851185EBCF181619060CF49D
:101740001BCED2CEF1E0FF12BECE62EF70E004CF2E
:10175000E9E2F2E01382128288EE93E0A0E0B0E0CA
:1017600084839583A683B78389E291E09183808304
:101770008FEF9FEF9587848764E671E089E792E0B9
:101780000C942107CF93DF93CDB7DEB7AA970FB69E
:10179000F894DEBF0FBECDBF789484B5826084BD5F
:1017A00084B5816084BD85B5826085BD85B5816065
:1017B00085BD80916E00816080936E0010928100E3
:1017C000809181008260809381008091810081609E
:1017D000809381008091800081608093800080915F
:1017E000910082608093910080919100816080934C
:1017F0009100809190008160809390008091C10061
:1018000084608093C1008091C10082608093C10098
:101810008091C10081608093C1008091C30081608C
:101820008093C3008091C00082608093C00080914B
:10183000C20081608093C20080917A0084608093AE
:101840007A0080917A00826080937A0080917A0099
:10185000816080937A0080917A00806880937A001A
:10186000109228021092B9011092B8018091D7000D
:1018700081608093D70080EA8093D80089B5806129
:1018800089BD89B5826089BD09B400FEFDCF61E0E4
:1018900070E080E090E00E94E6028091D8008F7CAA
:1018A00080618093D8008091E000807F8093E00089
:1018B0008091E1008E7E8093E1008DE08093E200D4
:1018C000559A209A5D9828988FEF9FEF9093360253
:1018D0008093350261E082E10E94ED0161E083E1E5
:1018E0000E94ED0161E084E10E94ED0161E085E18B
:1018F0000E94ED0160E088E10E94ED0160E080E17E
:101900000E94ED0161E08EE00E94ED0161E08FE058
:101910000E94ED0161E082E00E94ED0161E085E05E
:101920000E94ED0161E087E00E94ED0161E083E04B
:101930000E94ED0161E086E00E94ED0170E060E050
:1019400083E00E941E0270E060E086E00E941E02BA
:101950008AE092E0E6ECF1E04AEEE42E41E0F42E7B
:1019600021EF38EDD7011D921D927D012193319316
:101970008A179B07B9F78FEF80930D0180930C01B5
:1019800001E028EC48EC6AEA8AEA0E942E0566E942
:1019900070E080E090E00E94E60228EC48EC65E50B
:1019A00085E50E942E0566E970E080E090E00E94E7
:1019B000E60220E040E06FEF8FEF0E942E0566E91F
:1019C00070E080E090E00E94E60220E040E060E00D
:1019D00080E00E942E0511E01093BE018091BF01AE
:1019E00081110AC066E970E080E090E00E94E602A2
:1019F0000E94CB051093BF018FB7F894409013025B
:101A00005090140260901502709016028FBF809162
:101A10000E0290910F02A0911002B091110248168F
:101A200059066A067B0608F4BCC389E292E00E946C
:101A3000D304892B09F470C289E292E00E949104D8
:101A40008D3099F38A3009F48BE389831A8241E05F
:101A500050E0BE016F5F7F4F89E792E00E94D90698
:101A6000BB24B39450E040E06BE389E792E00E942E
:101A70005D068C0197FDD9CF9C0150E040E069E7FD
:101A800072E0CE0185960E943207CE0185960E94B3
:101A9000000620917D0230917E02A8014F5F5F4FCA
:101AA00069E772E0CE0101960E94320780917902C7
:101AB00090917A02009709F447C069817A81611593
:101AC000710509F43FC040917B0250917C022D8149
:101AD0003E8142175307B0F10E9499138D819E8178
:101AE00090937E0280937D021E821D82CE0101961C
:101AF0000E94ED0549A55AA54115510509F46FC08D
:101B000018A21F8E1AA219A21CA21BA26DA17EA14F
:101B10006115710521F0CE014F960E9400070F8DCF
:101B200018A10115110539F1F80181918F01882360
:101B300011F1082E000C990B0E947413F8013197D3
:101B40008083F2CF0E94261289819A8190937A0233
:101B5000809379028B819C8190937C0280937B029D
:101B60008D819E8190937E0280937D021A821982DC
:101B70001C821B82B9CF8BA19CA1892B09F43EC08A
:101B80000F8D18A169E771E0C8010E949013892B9D
:101B900039F06DE771E0C8010E949013892B21F59F
:101BA0000E94CB05B092BF012FB7F8948091130229
:101BB00090911402A0911502B09116022FBF885384
:101BC0009F4FAF4FBF4F80930E0290930F02A09391
:101BD0001002B0931102CE014F960E94ED05CE0186
:101BE00085960E94ED053ECF65E871E0C8010E9430
:101BF0009013892B19F40E94C007EDCF50E040E00C
:101C00006AE3CE0185960E945D0697FDE4CF1A8EA9
:101C1000198E1C8E1B8E1E8E1D8E6DA17EA16115D0
:101C2000710531F049A55AA5CE0149960E940007D9
:101C300041E050E060E671E0CE0149960E94D9068D
:101C4000811104C0CE0149960E94DB05D12CC12C24
:101C5000A6016BE3CE0149960E945D068C0197FDBB
:101C600056C19C01A601BE01675E7F4FCE0143961F
:101C70000E9432076801FFEFCF1ADF0ACE014396B8
:101C80000E9400068F89988D892BB9F150E040E0C1
:101C90006AE3CE0143960E945D068C0197FF49C01E
:101CA00069E771E0CE0101960E942107BE016F5FD6
:101CB0007F4FCE0143960E94790611E0811115C035
:101CC0006DE771E0CE0107960E942107BE01695FB2
:101CD0007F4FCE0143960E94790611E0811101C029
:101CE00010E0CE0107960E94ED05CE0101960E94FC
:101CF000ED05112339F00E94CB05CE0143960E94D9
:101D0000ED05A6CF65E871E0CE0101960E9421079E
:101D1000BE016F5F7F4FCE0143960E947906182F58
:101D2000CE0101960E94ED05112339F3B092BE0158
:101D3000E4CF9C0150E040E0BE016D5E7F4FCE01DC
:101D40000D960E9432072F89388DA8014F5F5F4F93
:101D5000BE016D5E7F4FCE0107960E943207CE0115
:101D60000D960E940006CE0107960E94000669E8C3
:101D700071E0CE0101960E942107BE016F5F7F4F87
:101D8000CE010D960E947906182FCE0101960E9471
:101D9000ED051123C9F09090BD01A090BC011091F8
:101DA000BB01CE0107960E94ED0400E0292D4A2DCB
:101DB000612F0E942E05CE0107960E94ED05CE01EF
:101DC0000D960E94ED0599CF6EE871E0CE01019667
:101DD0000E942107BE016F5F7F4FCE010D960E94CA
:101DE0007906182FCE0101960E94ED05112379F096
:101DF000A090BD011091BC01CE0107960E94ED0498
:101E000000E02A2D412F682F8091BA01D2CF63E9DB
:101E100071E0CE0101960E942107BE016F5F7F4FE6
:101E2000CE010D960E947906182FCE0101960E94D0
:101E3000ED051123B1F01091BD01CE0107960E946E
:101E4000F50540E097FD08C0462F6F3F71058105FD
:101E5000910511F00CF04FEF00E0212F6091BB01D4
:101E6000D3CF66E971E0CE0101960E942107BE0141
:101E70006F5F7F4FCE010D960E947906182FCE011D
:101E800001960E94ED05112399F0CE0107960E945C
:101E9000F50520E097FD08C0262F6F3F71058105ED
:101EA000910511F00CF02FEF00E04091BC01D6CF6E
:101EB00065E871E0CE0101960E942107BE016F5FC7
:101EC0007F4FCE010D960E947906182FCE01019604
:101ED0000E94ED05112319F0B092BE016CCF69E7A5
:101EE00071E0CE0101960E942107BE016F5F7F4F16
:101EF000CE010D960E947906182FCE0101960E9400
:101F0000ED05112309F457CF0E94CB0554CFCE0124
:101F100049960E94ED055FCE80910A0290910B02D6
:101F2000A0910C02B0910D0293018201081B190BC4
:101F30002A0B3B0BD901C8010A97A105B10508F48A
:101F400030C140920A0250920B0260920C027092D1
:101F50000D022AEE222E21E0322E10E000E03BEAB4
:101F6000832E34E0932E9DE1A92E91E0B92ED12C41
:101F7000C12CD5018C91B2E0AB0EB11CB8010C2C78
:101F800002C0759567950A94E2F761700E94BF01DF
:101F9000EFEFCE1ADE0AF4E0CF16D10451F7C401F8
:101FA0000197F1F70E94050197FD03C10E94050109
:101FB000811594400CF000C10E940501D1018D9360
:101FC0009D931D010F5F1F4F0031110561F660E009
:101FD0008FE00E94BF010BE410E0C8010197F1F708
:101FE00061E08FE00E94BF01C8010197F1F70E94F4
:101FF0006705D82E0E946705D094D0920F01809576
:1020000080930E0160E08FE00E94BF01C80101973C
:10201000F1F761E08FE00E94BF01C8010197F1F77D
:1020200080E1C82ED12C0FE010E060E08EE00E942D
:10203000BF01C8010197F1F761E08EE00E94BF0186
:10204000C8010197F1F7B1E0CB1AD10871F780917F
:102050000F0190910D01891306C020910E019091FE
:102060000C01291729F14091E6015091E701609197
:10207000E8017091E90193018201041B150B260B05
:10208000370BB901A8014C3051056105710580F08D
:102090004092E6015092E7016092E8017092E901F6
:1020A00080930D0180910E0180930C010E94C00766
:1020B000A6ECB1E00AEE11E020E0F8014191519167
:1020C0008F018D919D91BA01681B790BCB0177FF30
:1020D00003C0919581959109059734F0CD01029740
:1020E000FC015183408321E0E016F10631F7211114
:1020F0000E94C00780910F01813439F580910E0153
:10210000883019F58091C4019091C501892BE9F4BB
:1021100081E090E09093C5018093C4014092C0019A
:102120005092C1016092C2017092C30189E991E0AD
:102130000E94B70582E691E00E94B70501E028EC15
:1021400048EC6FEF8FEF0E942E058091C4019091B3
:10215000C501019731F58091C0019091C101A09115
:10216000C201B091C301481A590A6A0A7B0AF8E908
:102170004F16FAE35F066104710498F01092C501EE
:102180001092C40184EA91E00E94B70582E691E0D2
:102190000E94B70501E020E040E060E080E00E949E
:1021A0002E0580E090E0892B09F426CC0E940000E7
:1021B00023CC90E080E002CF8FEF93E0FFCE89E761
:1021C00092E00C94ED051F93FC0199278827BC0130
:1021D000E89411911032E9F3193010F01E30C8F371
:1021E0001B3251F01D3249F4689406C00E940A1156
:1021F000610F711D811D911D119110531A30B0F3A3
:102200003EF490958095709561957F4F8F4F9F4FCD
:102210001F910895592F482F372F262F660F771FAC
:10222000881F991F660F771F881F991F620F731FE2
:10223000841F951F660F771F881F991F089591119E
:102240000C942811803219F089508550C8F70895F0
:102250009927882708952F923F924F925F926F920D
:102260007F928F929F92AF92BF92CF92DF92EF9226
:10227000FF920F931F93CF93DF93CDB7DEB7CA1BA7
:10228000DB0B0FB6F894DEBF0FBECDBF09942A88D2
:10229000398848885F846E847D848C849B84AA847A
:1022A000B984C884DF80EE80FD800C811B81AA8107
:1022B000B981CE0FD11D0FB6F894DEBF0FBECDBFD2
:1022C000ED010895A1E21A2EAA1BBB1BFD010DC052
:1022D000AA1FBB1FEE1FFF1FA217B307E407F507D6
:1022E00020F0A21BB30BE40BF50B661F771F881FB2
:1022F000991F1A9469F760957095809590959B0148
:10230000AC01BD01CF010895EE0FFF1F0590F491C0
:10231000E02D09940F931F93CF93DF9382309105A3
:1023200010F482E090E0E0918102F091820230E0CE
:1023300020E0B0E0A0E0309799F42115310509F4D0
:102340004AC0281B390B24303105D8F58A819B817E
:102350006115710589F1FB0193838283FE0111C030
:10236000408151810281138148175907E0F04817D5
:10237000590799F4109761F012960C9312971396DF
:102380001C933296CF01DF91CF911F910F91089549
:102390000093810210938202F4CF2115310551F090
:1023A0004217530738F0A901DB019A01BD01DF0193
:1023B000F801C1CFEF01F9CF90938202809381029F
:1023C000CDCFFE01E20FF31F81939193225031098B
:1023D00039832883D7CF20917F0230918002232B2D
:1023E00041F4209112013091130130938002209327
:1023F0007F0220911001309111012115310541F426
:102400002DB73EB74091140150911501241B350B97
:10241000E0917F02F0918002E217F307A0F42E1BF7
:102420003F0B2817390778F0AC014E5F5F4F241738
:10243000350748F04E0F5F1F5093800240937F0294
:10244000819391939FCFF0E0E0E09CCFCF93DF9317
:102450000097E9F0FC01329713821282A091810269
:10246000B0918202ED0130E020E01097A1F42081CC
:102470003181820F931F20917F02309180022817B3
:10248000390709F061C0F0938002E0937F02DF9189
:10249000CF910895EA01CE17DF07E8F54A815B8105
:1024A0009E0141155105B1F7E901FB83EA8349918A
:1024B0005991C40FD51FEC17FD0761F480819181FC
:1024C0000296840F951FE901998388838281938105
:1024D0009B838A83F0E0E0E012968D919C911397A4
:1024E0000097B9F52D913C911197CD010296820F7D
:1024F000931F20917F02309180022817390739F607
:10250000309751F51092820210928102B0938002AE
:10251000A0937F02BCCFD383C28340815181840FBB
:10252000951FC817D90761F44E5F5F4F8881998165
:10253000480F591F518340838A819B8193838283F3
:102540002115310509F0B0CFF0938202E0938102AA
:102550009ECFFD01DC01C0CF13821282D7CFB0E045
:10256000A0E0E5EBF2E10C942D118C01009751F401
:10257000CB010E948A118C01C801CDB7DEB7E0E122
:102580000C944911FC01E60FF71F9C012250310900
:10259000E217F30708F49DC0D901CD91DC911197A2
:1025A000C617D70798F0C530D10530F3CE01049790
:1025B0008617970708F3C61BD70B2297C193D193B1
:1025C0006D937C93CF010E942612D6CF5B01AC1A8B
:1025D000BD0A4C018C0E9D1EA0918102B091820219
:1025E000512C412CF12CE12C109731F580917F0278
:1025F000909180028815990509F05CC0461657062F
:1026000008F058C08091100190911101009741F499
:102610008DB79EB74091140150911501841B950B05
:10262000E817F90708F055C0F0938002E0937F02A5
:10263000F90171836083A0CF8D919C9111971296BF
:102640006C90129713967C901397A815B90559F5BD
:102650006C0142E0C40ED11CCA14DB0420F1AC01B1
:102660004A195B09DA011296159780F0628273822B
:1026700051834083D9016D937C93E114F10471F08F
:10268000D7011396FC93EE93129776CF22968C0F78
:102690009D1FF90191838083F301EFCFF0938202B4
:1026A000E093810269CF4816590608F42C017D0198
:1026B000D3019ACFCB010E948A117C01009749F087
:1026C000AE01B8010E947C13C8010E942612870146
:1026D00053CF10E000E050CF9111089581548A51FA
:1026E00008F4805E855A08959111089581568A51A3
:1026F00008F4805285580895FB01DC0102C0019066
:102700000D9241505040D8F70895FC0181918617F1
:1027100021F08823D9F7992708953197CF0108959B
:10272000FB01DC018D91019080190110D9F3990B07
:102730000895FB01DC0101900D920020E1F708955E
:10274000AEE0B0E0E6EAF3E10C9439110D891E89A0
:1027500086E08C831A8309838FEF9FE79E838D83A6
:10276000AE01475E5F4F6F89788DCE0101960E9462
:10277000C3132F813885020F131FF80110822E9684
:10278000E4E00C945511ABE0B0E0E9ECF3E10C941B
:102790002B117C013B018A01FC0117821682838187
:1027A00081FFC8C1CE0101965C01F7019381F3015D
:1027B00093FD859193FF81913F01882309F453C1D3
:1027C000853239F493FD859193FF81913F018532E4
:1027D00029F4B70190E00E94B315E7CF912C212C8A
:1027E000312CFFE1F31538F08B3211F190F4803287
:1027F00009F1833229F137FC3CC020ED280F2A3043
:1028000050F536FE20C08AE0989E200D1124922EAD
:1028100006C08D3291F0803371F7689430F8F3017F
:1028200093FD859193FF81913F018111DACF21C002
:10283000689431F8689432F8F2CF689433F8EFCFA7
:10284000689434F8ECCFEAE02E9E200D1124222E5D
:10285000689435F8E4CF8E3229F436FC04C16894CC
:1028600036F8DDCF8C3619F4689437F8D8CF88362F
:10287000B1F2982F9F7D95549330E0F08336A1F10B
:102880008337C1F1833509F063C02801F2E04F0EB0
:10289000511CF801C080D180692D70E036FC02C067
:1028A0006FEF7FEFC6010E949D154C01689437F8C9
:1028B00082010AC00C5F1F4FFFE3F98388248394D1
:1028C000912C6501E89437F833FE2DC0522C811409
:1028D000910471F5552009F468CFB70180E290E0CA
:1028E0000E94B3155A94F6CFF801808189830E5F58
:1028F0001F4FE4CF2801F2E04F0E511CF801C080B9
:10290000D180692D70E036FC02C06FEF7FEFC60109
:102910000E94A8154C018201D5CFB70180E290E05A
:102920000E94B3152A942814190409F0B0F7CECFE9
:10293000F60137FC859137FE81916F01B70190E078
:102940000E94B31551105A94F1E08F1A9108BFCF2D
:10295000843619F0893609F077C0F80137FE6BC06C
:1029600060817181828193810C5F1F4FF32DFF760F
:102970003F2E97FF09C090958095709561957F4F88
:102980008F4F9F4F689437F82AE030E0A5010E94EE
:10299000E315C82ECA188C2C432C36FE0CC0E894C4
:1029A00040F8C91440F434FE05C032FC03C0F32DD6
:1029B000FE7E4F2E892C44FE95C0FE01EC0DF11DCC
:1029C0008081803309F087C0242D297E422E842DFA
:1029D0008870582E43FC95C040FE8FC09C2C8214FA
:1029E00018F42C0C922C981844FE91C0B70180E387
:1029F00090E00E94B31542FE09C088E790E041FED6
:102A000002C088E590E0B7010E94B315C91408F42C
:102A10008AC0CA94D12C9FEFC91AD90ACA0CDB1CF0
:102A2000F60182916F01B70190E00E94B315AC14DA
:102A3000BD04B1F74FCF60817181072E000C880B68
:102A4000990B0E5F1F4F92CFD32CE894D4F82AE055
:102A500030E0853739F1232D297FD22E8F3601F1D1
:102A600048F48835A9F0F701868197812B96E2E139
:102A70000C944711803749F08837A9F7D4FE02C07B
:102A80006894D2F820E130E00DC06894D4F8F6CF15
:102A900034FE03C0822F8660D82E20E132E002C0CF
:102AA00028E030E0F801D7FE0FC06081718182819B
:102AB00093810C5F1F4FA5010E94E315C82ECA1811
:102AC0003D2CE89437F867CF6081718190E080E019
:102AD0000E5F1F4FF0CF42FC02C0839478CF8394E7
:102AE000839475CF842D867809F471CFF6CFB70122
:102AF00080E290E00E94B31583948214C0F3512CBD
:102B000073CF522C5818821408F46ECFF8CF842D4E
:102B1000867809F47BCF8BE241FE80E247FC8DE2B0
:102B2000B70190E071CFB70180E390E00E94B31548
:102B30009A946CCF8FEF9FEF99CFFC010590615075
:102B400070400110D8F7809590958E0F9F1F0895C3
:102B5000FC016150704001900110D8F7809590956C
:102B60008E0F9F1F08950F931F93CF93DF93182FFE
:102B7000092FEB018B8181FD09C01FEF0FEF812F22
:102B8000902FDF91CF911F910F91089582FF14C074
:102B90002E813F818C819D81281739073CF4E88183
:102BA000F981CF0101969983888310838E819F815B
:102BB00001969F838E83E3CFE885F985812F099560
:102BC000892BA1F3DACFFA01AA27283051F120315D
:102BD00081F1E8946F936E7F6E5F7F4F8F4F9F4FB1
:102BE000AF4FB1E03ED0B4E03CD0670F781F891FF3
:102BF0009A1FA11D680F791F8A1F911DA11D6A0FC1
:102C0000711D811D911DA11D20D009F468943F9173
:102C10002AE0269F11243019305D3193DEF6CF0172
:102C20000895462F4770405D4193B3E00FD0C9F738
:102C3000F6CF462F4F70405D4A3318F0495D31FDA5
:102C40004052419302D0A9F7EACFB4E0A6959795F8
:102C5000879577956795BA95C9F7009761057105CE
:102C600008959B01AC010A2E069457954795379518
:102C70002795BA95C9F7620F731F841F951FA01D72
:102C8000089510E0CAEDD0E004C0FE010E94841156
:0C2C90002196CB3DD107C9F7F894FFCF87
:102C9C00FFFFFFFF00E1000000000000FFFFFFFF4F
:102CAC0000008302800000C180810000001200132C
:102CBC000014001500000000006C04DE038D04827B
:102CCC0004D3049104AF044944454E543A004143A3
:102CDC00502031204350542C2076312E31204D4140
:102CEC0051003B53544154453A52554E4E494E4770
:102CFC003B000D0A004D5558002530346400494EF8
:102D0C00313A003B494E323A005645520056455234
:102D1C0053494F4E00524551004C454431004C45EF
:102D2C00443200424C00414E004449414720535428
:0E2D3C00415254004449414720454E44000096
:00000001FF
