:100000000C94DB000C9403010C9403010C94030189
:100010000C9403010C9403010C9403010C94030150
:100020000C9403010C9403010C94DA100C945711F6
:100030000C9403010C9403010C9403010C94030130
:100040000C9403010C9403010C9403010C94030120
:100050000C9403010C9403010C9403010C94901074
:100060000C9403010C9403010C9403010C94030100
:100070000C9403010C9403010C9403010C940301F0
:100080000C9403010C9403010C9403010C940301E0
:100090000C9403010C9403010C9403010C940301D0
:1000A0000C9403010C9403010C940301080B00024F
:1000B0000202000009040000010202000005240001
:1000C0001001052401010104240206052406000193
:1000D0000705810310004009040100020A00000026
:1000E00007050202400000070583024000000403E8
:1000F000090412010002EF02014041233780000190
:100100000102030141726475696E6F204C4C43001B
:1001100041726475696E6F204D6963726F000000F3
:100120000000240027002A002D00300000000000FD
:10013000250028002B002E003100000000002300C5
:10014000260029002C002F000404040404030405E5
:100150000202020204030202020206060606060664
:10016000040402020204040408020110408040104A
:1001700020408040800802040180402010020110CD
:100180008010204040200000000200090F00000302
:100190000401000C0000000000000000000000004E
:1001A0000000000000070605040100080A0B0C0D02
:1001B0000900AE14FA1A11241FBECFEFDAE0DEBF39
:1001C000CDBF25E0AAEEB3E001C01D92A33FB20768
:1001D000E1F713E0A0E0B1E0EAE5F2E402C0059047
:1001E0000D92AA3EB107D9F710E0CAEDD0E004C0E5
:1001F0002197FE010E940A1CC93DD107C9F70E9440
:10020000DA140C9420210C940000EBEAF1E0E49164
:1002100090917B008E2F880F880F80729F7D892B95
:1002200080937B00E770E064E0937C0080917A002B
:10023000806480937A0080917A0086FDFCCF809163
:10024000780090917900089583E08093E90080918F
:10025000F200882319F08AE38093E80008950C9453
:100260002401FC0180918605882311F13FB7F894A1
:1002700082E08093E9002091F200822F90E018162E
:10028000190614F481E090E0882339F0289A44E6B6
:10029000409385054091F1004083222339F020915D
:1002A000F200211103C02BE62093E8003FBF089520
:1002B0008FEF9FEF08952FB7F89483E08093E900C4
:1002C0009091E800892F807295FF04C09091F20010
:1002D00080E4891B2FBF089580917D0581110DC099
:1002E00082E08093790584E080937A0510927C0502
:1002F00010927B0581E080937D0589E795E0089564
:1003000081508F3008F047C0E82FF0E0E657FE4FED
:100310000C940A1CA701AB0199019F01A301CB0119
:10032000CB01CB01AE01B401B801BC01C201CB01CC
:10033000C601809180008F7780938000089580911E
:1003400080008F7DF9CF80918000877FF5CF84B5C5
:100350008F7784BD089584B58F7DFBCF8091900009
:100360008F77809390000895809190008F7DF9CFD2
:1003700080919000877FF5CF8091C0008F77809328
:10038000C00008958091C0008F7DF9CF8091C20098
:10039000877F8093C20008951F93CF93DF93282F08
:1003A00030E0F901EA57FE4F8491F901E959FE4F17
:1003B000D491F901E85BFE4FC491CC23A9F0162F2C
:1003C00081110E948001EC2FF0E0EE0FFF1FE45D31
:1003D000FE4FA591B4918FB7F894EC91111108C01C
:1003E000D095DE23DC938FBFDF91CF911F910895CD
:1003F000DE2BF8CFCF93DF9390E0FC01E959FE4F5D
:100400002491885B9E4FFC0184918823D1F090E079
:10041000880F991FFC01E25EFE4FA591B491FC018B
:10042000E45DFE4FC591D49161110EC09FB7F89461
:100430008C91E22FE0958E238C932881E223E88330
:100440009FBFDF91CF9108958FB7F894EC91E22B85
:10045000EC938FBFF6CF1F93CF93DF93182FEB0151
:1004600061E00E94FA01209739F460E0812FDF916A
:10047000CF911F910C94CC01CF3FD10511F461E0D5
:10048000F5CFE12FF0E0EA57FE4FE491E150EF3075
:1004900008F07FC0F0E0E15BFD4F0C940A1C5E02A7
:1004A00066026B0275027F02C902C902C902890293
:1004B00093029D02A702B402C902BC0284B58068FF
:1004C00084BDC7BDDF91CF911F91089584B580622F
:1004D00084BDC8BDF7CF8091800080688093800084
:1004E000D0938900C0938800EDCF80918000806216
:1004F00080938000D0938B00C0938A00E3CF8091DB
:100500008000886080938000D0938D00C0938C0021
:10051000D9CF80919000806880939000D09399000B
:10052000C0939800CFCF809190008062809390001C
:10053000D0939B00C0939A00C5CF809190008860B3
:1005400080939000D0939D00C0939C00BBCF80917E
:10055000C00080688093C0008091C0008F7B809332
:10056000C000C093CF00AECF8091C0008062809366
:10057000C000C093D000A6CF8091C2008860809355
:10058000C2008091C2008B7F8093C200C093D200D2
:1005900099CFC038D1050CF072CF67CF3FB7F89430
:1005A0008091750590917605A0917705B0917805B9
:1005B00026B5A89B05C02F3F19F00196A11DB11DBE
:1005C0003FBFBA2FA92F982F8827BC01CD01620FFA
:1005D000711D811D911D42E0660F771F881F991FB5
:1005E0004A95D1F708958F929F92AF92BF92CF9282
:1005F000DF92EF92FF924B015C010E94CE026B01F1
:100600007C010E94CE026C197D098E099F09683E0B
:10061000734081059105A8F321E0821A9108A10891
:10062000B10888EEC80E83E0D81EE11CF11C8114CD
:100630009104A104B10429F7FF90EF90DF90CF90CF
:10064000BF90AF909F908F900895FC0124813581D9
:100650006217730748F480819181009729F0860F13
:10066000971FFC018081089580E0089508954091CE
:10067000F1035091F2032091EF033091F003421700
:100680005307B4F49091E8009570E1F39091E8007D
:1006900092FD19C08093F1008091F1039091F203D3
:1006A00001968F739927892B19F48EEF8093E800B8
:1006B0008091F1039091F20301969093F20380935D
:1006C000F10381E0089580E00895EF92FF920F9387
:1006D0001F93CF93DF93F82E192FE62E042F81E07E
:1006E000860F880F0E94370383E00E943703CF2DC7
:1006F000D12FEC0EFD2EF11CCE15DF05B9F007FF52
:1007000013C0FE0184910E943703182F80E00E94DD
:100710003703812321968111EFCFDF91CF911F9174
:100720000F91FF90EF9008958881EDCF81E0F5CF94
:10073000DF92EF92FF920F931F93CF93DF93D82E08
:100740008A01EB017B01E40EF51ECE15DF0559F0A1
:10075000D7FE12C0FE0184910E94370321968111B9
:10076000F4CF0FEF1FEFC801DF91CF911F910F91D1
:10077000FF90EF90DF9008958881EECF0F931F9345
:10078000CF93DF931F92CDB7DEB782E0898342E437
:1007900050E06CEA70E080E80E9498030E946C01CF
:1007A000DC0112960D911C910115110589F0D801FB
:1007B000ED91FC910280F381E02DBE016F5F7F4FD0
:1007C000C801099597FD04C0F80100851185ECCF9B
:1007D00089810F90DF91CF911F910F910895615002
:1007E00030F02091F100FC0120830196F8CF289A87
:1007F00084E68093850508958F929F92AF92BF9271
:10080000CF92DF92EF92FF920F931F93CF93DF93DC
:100810006C017B018A0180910B01882309F45CC083
:1008200080918605882309F457C08091F50380FFE5
:1008300005C08091E00082608093E000E801B12C67
:100840008AEFA82E93E0892E2AE3922E209711F4A6
:10085000BB20D9F10E945B0181110AC0AA94AA2091
:10086000D9F161E070E080E090E00E94F302EECF09
:100870008C171D0611F00CF08C2F9FB7F894809206
:10088000E9002091E80025FD02C09FBFDFCF282F9F
:1008900030E0C21BD30BF701815020F0419140930F
:1008A000F100FACFE20EF31EBB2021F09092E80097
:1008B000B12CEBCF8091E80085FDE7CF9092E80066
:1008C000BB24B394209709F3F3CF5D9A84E6809319
:1008D000F403101611063CF081E090E0F6019383DA
:1008E000828310E000E0C801DF91CF911F910F914A
:1008F000FF90EF90DF90CF90BF90AF909F908F9040
:100900000895FC01448155816081718187E895E0FB
:100910000C94FC03CF93DF931F92CDB7DEB76983AE
:10092000DC01ED91FC910280F381E02D41E050E08B
:10093000BE016F5F7F4F09950F90DF91CF910895B2
:100940000E945B0190E00895CF93DF931F92CDB793
:10095000DEB7FC018485958597FD08C02FEF3FEF3A
:10096000358724870F90DF91CF910895CE010196AE
:100970000E943101019719F4898190E0F3CF8FEF44
:100980009FEFF0CF0F931F93CF93DF931F92CDB7BD
:10099000DEB78C01FC018485958597FF0BC0CE01E5
:1009A00001960E943101019771F4898190E0F8016C
:1009B00095878487F801848595850F90DF91CF9185
:1009C0001F910F9108958FEF9FEFF1CFFC01848568
:1009D000958597FD0BC09FB7F89482E08093E9005E
:1009E0008091F2009FBF90E0019608959FB7F89420
:1009F00082E08093E9008091F2009FBF90E008952B
:100A000090E0FB019B01285F3F4F6191860F911D94
:100A10002E173F07D1F7FA019A01285F3F4F419106
:100A2000840F911D2E173F07D1F70895CF92DF92C3
:100A3000EF92FF920F931F93CF937C01FC01C48030
:100A4000D58010E000E0C0E00C151D05A1F0B80154
:100A5000C7010E94250390ED980F923048F42C2F87
:100A600030E0220F331FC1E0813309F0C0E0C22B18
:100A70000F5F1F4FE9CF8C2FCF911F910F91FF90E8
:100A8000EF90DF90CF900895CF93DF93D82FC8E0F9
:100A90006D2F661F6627661F87E00E94CC01DD0F61
:100AA00061E085E00E94CC0160E085E00E94CC011D
:100AB000C15071F7DF91CF9108951F93CF93DF93CA
:100AC0001091FB03D091FC03C091FD0360E082E034
:100AD0000E94CC018091F803882319F0812F0E9495
:100AE00044058D2F0E9444058C2F0E94440561E02F
:100AF00082E00E94CC016091FA0370E083E00E94E2
:100B00002B026091F90370E086E0DF91CF911F9195
:100B10000C942B020F93E0912205F0912305EF2B0B
:100B200011F0002359F08093FD036093FC03409380
:100B3000FA032093F9030F910C945D050F9108952A
:100B40009F92AF92BF92CF92DF92EF92FF920F935C
:100B50001F93CF93DF93C7E0D0E0B12C06E911E0FB
:100B600097E7E92E91E0F92E28E5C22E21E0D22E5A
:100B700061E08EE00E94CC01F8018491F701A4901D
:100B8000F6019490992051F181110E948001E92D84
:100B9000F0E0EE0FFF1FE65CFE4FA591B4918C9143
:100BA000A82231E009F430E0832F0C2E01C0880F19
:100BB0000A94EAF7B82A60E08EE00E94CC012197FF
:100BC000B8F68B2DDF91CF911F910F91FF90EF9091
:100BD000DF90CF90BF90AF909F90089580E0E5CFD9
:100BE000FC0124813581232B39F421E0FB01808134
:100BF000882349F020E007C0808191810E94471E30
:100C000021E0892BB9F7822F0895FC010190002083
:100C1000E9F73197AF01481B590BBC0187E895E014
:100C20000C94FC038DE391E00C940506CF93DF93C5
:100C30000E948104EC010E9412068C0F9D1FDF911F
:100C4000CF9108958F929F92AF92BF920F931F936F
:100C5000CF93DF93CDB7DEB7A1970FB6F894DEBF81
:100C60000FBECDBF19A2423008F44AE08E010F5DDD
:100C70001F4F842E912CB12CA12CA50194010E9410
:100C8000E81BE62FB901CA01EA30F4F4E05DD801AF
:100C9000EE938D01232B242B252B79F790E080E018
:100CA000109719F0CD010E940506A1960FB6F89491
:100CB000DEBF0FBECDBFDF91CF911F910F91BF90CF
:100CC000AF909F908F900895E95CE1CFCF93DF9331
:100CD0000E940506EC010E9412068C0F9D1FDF91F9
:100CE000CF91089580E491E00E9466060E9424015D
:100CF00062E370E080E090E00E94F30288E198E017
:100D00000FB6F894A895809360000FBE9093600092
:100D1000FFCF009711F00C94050690E080E0089555
:100D20008BE491E00E94890682E591E00E948906A9
:100D300080E691E00E94890680E791E00E948906A2
:100D400089EE95E00E94810488E791E00E9489067F
:100D500083EE95E00E9481040C941206CF93DF93FA
:100D60002091E7053091E805232B89F0FC01C09123
:100D7000E305D091E40560817181CE010E94651E7A
:100D8000009729F08C1B9D0BDF91CF9108958FEF79
:100D90009FEFFACFFC0180819181009711F00C94B4
:100DA0000A1B60E070E0CB010895AF92BF92CF9232
:100DB000DF92EF92FF920F931F93CF93DF93DC01AB
:100DC000CD90DC901197C114D10439F01496CD91D7
:100DD000DC918C017601209761F4DF91CF911F9116
:100DE0000F91FF90EF90DF90CF90BF90AF9008955C
:100DF00075015701BFEFAB1ABB0AF7018081082EBE
:100E0000000C990B0E946B1B892B91F72197CC0D3D
:100E1000DD1D8881082E000C990B0E946B1B892B0D
:100E200029F0CE15DF0510F02197F3CFAE014F5F0B
:100E30005F4F4E195F09D80115965C934E93149736
:100E4000CE14DF0420F4B701C6010E94211ED80190
:100E5000ED91FC91119714968D919C91E80FF91FDB
:100E60001082BBCFCF93DF93FC01C081D18120974B
:100E700061F08991882349F0082E000C990B0E949B
:100E8000191EFE0131978083F4CFDF91CF91089531
:100E9000CF93DF93FC01248135814217530788F4F7
:100EA000C081D181062E000C770BCE01840F951FD7
:100EB0000E943C1E009729F08C1B9D0BDF91CF9167
:100EC00008958FEF9FEFFACFEF92FF920F931F934A
:100ED000CF93DF938617970769F1FC012481358151
:100EE000FB014481558124173507E1F4232B11F1CF
:100EF000FC0100811181FB01C081D181F801819148
:100F00008F018823B9F0082E000C990B0E94111E46
:100F10007C018991082E000C990B0E94111EE81685
:100F2000F90661F380E0DF91CF911F910F91FF905F
:100F3000EF90089581E0F7CF0F931F93CF93DF9346
:100F40008C01EB01FC01808191810097E1F06881C7
:100F5000798161157105A9F0428153812C813D8110
:100F60004217530770F00E94501E8C819D81F8013A
:100F7000958384831D821C82DF91CF911F910F91F5
:100F800008950E94C01C88819981F8019183808313
:100F90008A819B81938382838C819D8195838483C5
:100FA000198218821B821A82E5CFCF93DF93EC015E
:100FB00088819981009711F00E94C01C19821882C3
:100FC0001D821C821B821A82DF91CF910895FC0141
:100FD00080819181009711F00C94C01C08950F93AB
:100FE0001F93CF93DF93EC0188819981009759F08B
:100FF0002A813B812617370730F081E0DF91CF91BE
:101000001F910F9108958B016F5F7F4F0E94491DC3
:10101000009759F0998388831B830A832C813D8133
:10102000232B59F7FC011082E8CF80E0E7CFEF9245
:10103000FF920F931F93CF93DF9341155105B1F0AA
:101040007B01EC010C811D81040F151FB8010E946A
:10105000EF07882361F0288139818C819D81B70158
:10106000820F931F0E94501E1D830C8381E0DF912D
:10107000CF911F910F91FF90EF900895EF92FF9203
:101080000F931F93CF93DF93EC017B018A01BA0189
:101090000E94EF0781110BC0CE010E94D507CE013F
:1010A000DF91CF911F910F91FF90EF9008951D83D5
:1010B0000C83B701888199810E94501EF0CFCF9395
:1010C000DF93EC01FB018617970749F0608171817E
:1010D0006115710541F0448155810E943E08CE01A1
:1010E000DF91CF9108950E94D507F9CFFC011182BD
:1010F00010821382128215821482FB01019000205B
:10110000E9F73197AF01461B570B0C943E08AF929D
:10111000BF92CF92DF92EF92FF920F931F93CF93E4
:10112000DF937C016B015A0189012417350720F4F4
:101130008B2D5901042F182F6FE371E0C7010E9416
:101140007608D6011496CD91DC91AC16BD0620F53B
:101150000C171D0708F4E801D601ED91FC911197D9
:10116000EC0FFD1F108110826D917C916A0D7B1D2B
:1011700061157105E9F0FB0101900020E9F7319755
:10118000AF01461B570BC7010E943E08F601808144
:101190009181C80FD91F1883C701DF91CF911F918B
:1011A0000F91FF90EF90DF90CF90BF90AF90089598
:1011B000C7010E94D507EACFCF93DF93EC01FB0173
:1011C000248135810E948708CE01DF91CF91089557
:1011D000CF92DF92EF92FF920F931F93CF93DF9303
:1011E00000D0CDB7DEB77C01C62E6FE371E00E9460
:1011F000760807E010E0D12CC601002E02C09595BC
:1012000087950A94E2F780FD1AC080E389831A82E9
:1012100041E050E0BE016F5F7F4FC7010E94170899
:101220000150110948F7C7010F900F90DF91CF913E
:101230001F910F91FF90EF90DF90CF90089581E381
:10124000E5CF0C94871B4F925F926F927F928F92A3
:101250009F92AF92BF92CF92DF92EF92FF920F9345
:101260001F93CF93DF93CDB7DEB72E970FB6F894C9
:10127000DEBF0FBECDBF8FB7F89440907105509080
:10128000720560907305709074058FBF8091F703AD
:10129000811115C08091EB039091EC03A091ED03B7
:1012A000B091EE03A3019201281B390B4A0B5B0B93
:1012B000DA01C9010A97A105B10508F47CC088E4E8
:1012C000C82E85E0D82E812C912C540190E9E92E6E
:1012D00091E0F92E8E010F5F1F4F8CE891E00E9484
:1012E00089064AE0C501B4010E94220688E991E01E
:1012F0000E948906F601819191916F018115F4E0B8
:101300009F0714F08FEF93E097FF02C090E080E01A
:101310009F938F93FF92EF921F930F930E947F1ED4
:10132000B801CE0109960E947608CE0109960E9466
:101330008104CE0109960E94E7078BE392E00E94A8
:1013400089062FEF821A920AA20AB20A0F900F9012
:101350000F900F900F900F9030E183169104A1042D
:10136000B10409F0BACF85E991E00E948906609145
:101370001501C8010E94E808C8010E948104C80143
:101380000E94E7078AE991E00E94890660911401B2
:10139000C8010E94E808C8010E941606C8010E9400
:1013A000E7074092EB035092EC036092ED037092DA
:1013B000EE031092F7032E960FB6F894DEBF0FBE21
:1013C000CDBFDF91CF911F910F91FF90EF90DF90F4
:1013D000CF90BF90AF909F908F907F906F905F90D5
:1013E0004F9008952F923F924F925F926F927F920B
:1013F0008F929F92AF92BF92CF92DF92EF92FF9225
:101400000F931F93CF93DF93CDB7DEB7C454D109A9
:101410000FB6F894DEBF0FBECDBF2C01B12CA12CAE
:10142000A5016BE3C2010E9448078C0197FD5EC6CF
:101430009C01A501B201CE018F960E948708580138
:101440002FEFA21AB20ACE018F960E94D5068BA961
:101450009CA9892BB9F150E040E06AE3CE018F9658
:101460000E9448078C0197FF8CC060EA71E0CE01B2
:1014700009960E947608BE01675F7F4FCE018F9666
:101480000E94640711E0811115C064EA71E0CE0189
:1014900001960E947608BE016F5F7F4FCE018F9646
:1014A0000E94640711E0811101C010E0CE01019695
:1014B0000E94E707CE0109960E94E707112339F041
:1014C0000E949006CE018F960E94E707A9CF6CEA92
:1014D00071E0CE0101960E947608BE016F5F7F4FDA
:1014E000CE018F960E946407182FCE0101960E94AC
:1014F000E707112321F081E08093F703E3CF60EB4E
:1015000071E0CE0141960E947608BE016F5E7F4F6A
:10151000CE018F960E94640711E0811129C066EB0D
:1015200071E0CE0109960E947608BE01675F7F4F89
:10153000CE018F960E94640711E0811115C06EEBF9
:1015400071E0CE0101960E947608BE016F5F7F4F69
:10155000CE018F960E94640711E0811101C010E056
:10156000CE0101960E94E707CE0109960E94E70787
:10157000CE0141960E94E707112309F4A3CF0E94F0
:1015800072069C0150E040E0BE01615D7F4FCE01DC
:10159000C5960E948708A8014F5F5F4FBE01615D3D
:1015A0007F4FCE01CB960E94DC08CE01C5960E94EB
:1015B000D506CE01CB960E94D50665EC71E0CE0132
:1015C00001960E947608BE016F5F7F4FCE01C596DF
:1015D0000E946407182FCE0101960E94E70711238D
:1015E00089F0CE01CB960E9416058093FD030E94E0
:1015F0005D05CE01CB960E94E707CE01C5960E94FD
:10160000E70760CF6AEC71E0CE0101960E94760890
:10161000BE016F5F7F4FCE01C5960E946407182FF1
:10162000CE0101960E94E707112339F0CE01CB9637
:101630000E9416058093FC03DACF6FEC71E0CE01B7
:1016400001960E947608BE016F5F7F4FCE01C5965E
:101650000E946407182FCE0101960E94E70711230C
:1016600059F08091F803882321F2CE01CB960E9495
:1016700016058093FB03BBCF6CED71E0CE010196A4
:101680000E947608BE016F5F7F4FCE01C5960E9413
:101690006407182FCE0101960E94E7071123C9F0B5
:1016A000CE01CB960E94CA0640E097FD08C0462FA7
:1016B0006F3F71058105910511F00CF04FEF00E0CF
:1016C0002091F9036091FC038091FD030E948A053B
:1016D00090CF64ED71E0CE0101960E947608BE01C4
:1016E0006F5F7F4FCE01C5960E946407182FCE0111
:1016F00001960E94E707112399F0CE01CB960E9434
:10170000CA0620E097FD08C0262F6F3F71058105AE
:10171000910511F00CF02FEF00E04091FA03D2CFC9
:1017200067ED71E0CE0101960E947608BE016F5F01
:101730007F4FCE01C5960E946407182FCE010196F7
:101740000E94E707111155CF6FED71E0CE010196B0
:101750000E947608BE016F5F7F4FCE01C5960E9442
:101760006407182FCE0101960E94E7071123C9F0E4
:10177000CE01CB960E94CA06161617061806190641
:1017800054F4653671058105910544F47093110197
:10179000609310012ECF61E070E0F8CF64E670E056
:1017A000F5CF67EE71E0CE0101960E947608BE018A
:1017B0006F5F7F4FCE01C5960E946407182FCE0140
:1017C00001960E94E7071123C9F0CE01CB960E9433
:1017D000CA06161617061806190654F4693071055C
:1017E0008105910544F470930F0160930E0101CFC0
:1017F00061E070E0F8CF68E070E0F5CF6FEE71E087
:10180000CE0101960E947608BE016F5F7F4FCE0128
:10181000C5960E946407182FCE0101960E94E70723
:101820001123D1F0CE01CB960E94CA066233710516
:10183000810591055CF0693E33E0730781059105F0
:1018400044F470930D0160930C01D3CE62E370E019
:10185000F8CF68EE73E0F5CF67EF71E0CE01019647
:101860000E947608BE016F5F7F4FCE01C5960E9431
:101870006407182FCE0101960E94E707112341F05B
:10188000BE01655C7F4F89EE95E00E945F08B1CE96
:101890006FEF71E0CE0101960E947608BE016F5F86
:1018A0007F4FCE01C5960E946407182FCE01019686
:1018B0000E94E7071123E1F0BE01655C7F4F83EED4
:1018C00095E00E945F086AE672E0CE0101960E94F0
:1018D0007608CE0101960E94AE069095991F992731
:1018E000991F9093F803CE0101960E94E70781CEDD
:1018F00067E072E0CE0101960E947608BE016F5F3C
:101900007F4FCE01C5960E946407182FCE01019625
:101910000E94E707112309F499C021962EAD3FAD2F
:1019200021978091E1059091E2052817390739F454
:10193000CE01CB960E9489138C01892B29F08FE070
:1019400092E00E94660655CE80E289878A878B875F
:101950008C878D878E878F87888B89838A838B83FB
:101960008C838D838E838F8388873E0189E0680E08
:10197000711C8090ED059090EE056301F12CE12C37
:10198000362C272C8E149F0481F098E0E916F10480
:1019900061F0B70189EE95E00E942503F60181937D
:1019A0006F01FFEFEF1AFF0AEDCF9E012F5F3F4F50
:1019B0004901C090E705D090E8057901C016D1062D
:1019C00019F008301105B9F56AE590E080E00E9451
:1019D000051465EA81E090E00E94051462E082E06F
:1019E00090E00E94051403E010E0F30161913F01D3
:1019F000C8010E9405140F5F1F4F0B301105A9F796
:101A0000F40161914F01C8010E9405140F5F1F4F3F
:101A100003311105A9F7AE014F5F5F4F632D722DA2
:101A200082E00E940005682F83E190E00E94051487
:101A300081E891E086CFB80183EE95E00E9425030E
:101A4000F70181937F010F5F1F4FB8CF6EE172E006
:101A5000CE0101960E947608BE016F5F7F4FCE01D6
:101A60008F960E94B413182FCE0101960E94E707AB
:101A7000112309F40BC344E050E0BE01615D7F4FC8
:101A8000CE0189960E94DC08CE0189960E94D50677
:101A900083E292E00E948906CE0189960E94810429
:101AA0008BE392E00E9466066DE272E0CE01019641
:101AB0000E947608BE016F5F7F4FCE0189960E941B
:101AC000B413182FCE0101960E94E707112349F1A4
:101AD00044E050E0BE01675D7F4FCE0101960E9459
:101AE000DC08CE0101960E94D5062D813E818091B1
:101AF000E1059091E2052817390781F4CE0101969E
:101B00000E948913892B51F481E08093EA0382E3D8
:101B100092E00E946606CE01019640C08DE392E0FD
:101B2000F8CF6CE472E0CE0101960E947608BE0107
:101B30006F5F7F4FCE0189960E94B4131091EA0324
:101B4000811101C010E0CE0101960E94E707112328
:101B500009F4B2C143E050E0BE01675D7F4FCE01A2
:101B600083960E94DC08CE0183960E94D50650E041
:101B700040E06EE2CE0183960E9448078C01181661
:101B8000190634F48FA198A501970817190758F082
:101B900080E592E00E946606CE0183960E94E707E8
:101BA000CE018996A2CE980150E040E0BE016D5D65
:101BB0007F4FCE0147960E948708A8014F5F5F4F75
:101BC000BE016D5D7F4FCE014D960E94DC08CE01B7
:101BD00047960E94CA063B01CE014D960E94CA0656
:101BE0006B01C3010197099708F063C1FAE0CF16B2
:101BF000D10408F05EC160E672E0CE0101960E9459
:101C000076081A8619861C861B861E861D86BE01CE
:101C10006F5F7F4FCE0109960E945F08B301CE012E
:101C200009960E94CF138C0141E050E065E672E016
:101C30000E941708811103C0C8010E94D507B60190
:101C4000C8010E94CF13BC0183EE95E00E945F089B
:101C5000CE0109960E94E707CE0101960E94E70790
:101C60001A8A198A1C8A1B8A1E8A1D8A63EE75E0ED
:101C7000CE0141960E945F08CE0141960E94320734
:101C80006FE371E0CE0101960E94760864ED73E087
:101C9000CE0109960E9476086D887E8861147104D1
:101CA00009F455C08D849E848114910409F44FC0B9
:101CB000ED80FE80E818F90809891A8929843A8498
:101CC000E114F10499F469857A85C8010E94651EC2
:101CD0008C010097E1F169817A814D815E810E94DA
:101CE000211E8D819E81080F191FEDCF6301C80150
:101CF000F7FE52C0680169857A85C8010E94651E99
:101D00003C01009701F14C01801A910AA401B8012D
:101D1000C6010E94211EC80CD91C69817A814D819F
:101D20005E81C6010E94211E8D819E81C80ED91E32
:101D30000D851E85060D171D8D899E898E0D9F1D93
:101D40009E8B8D8BD8CFB801C6010E94501ECE014C
:101D500009960E94E707CE0101960E94E70767E611
:101D600072E0CE0141960E94F00591E0811101C020
:101D700090E09093F803CE0141960E94E7078EE62B
:101D800092E00E946606CE014D960E94E707CE01C2
:101D900047960E94E70700CFB1010E94651E009799
:101DA00029F0880D991DCE0CDF1CF6CF6C147D0434
:101DB00071F28B899C898C159D0560F4B6016F5F6B
:101DC0007F4FC8010E94491D009709F29A8B898BA9
:101DD000DC8ACB8A0D891E890150110917FDB7CF06
:101DE00048012D843E842114310409F4B0CFCD88FC
:101DF000DE88C114D10409F4AACFC214D30408F4B4
:101E0000A6CF0C151D0520F0460121E0821A91088D
:101E100069887A8889859A8523969FAF8EAF2397A4
:101E2000C3010FEF1FEFF301E80DF91D2596FFAF7A
:101E3000EEAF259725962EAD3FAD2597281739078C
:101E400090F023966EAD7FAD23970E94651E00979C
:101E500051F09C01261937098216930608F498015F
:101E600001968901E7CF17FD72CF200E311EC30105
:101E7000820D931DA60142195309BC018E0D9F1DB1
:101E80000E942A1E8D899E898E0D9F1D9E8B8D8B93
:101E900029893A89820F931FFC01108289899A89C6
:101EA00069817A814D815E81800F911F0E94211E80
:101EB00093CF8AE792E065CF69E872E0CE010196A0
:101EC0000E947608BE016F5F7F4FCE0189960E9407
:101ED000B41381111091EA03CE0101960E94E70725
:101EE000112309F452C045E050E0BE01675D7F4F09
:101EF000CE0101960E94DC08CE0101960E94D50613
:101F0000ED80FE80C7010397069718F08FE892E0F6
:101F100000CE50E040E06DE2CE0101960E944807FD
:101F20008130910599F79701215031098217930764
:101F300068F770E060E0CE0101960E942503082E4C
:101F4000000C990B0E94091E6C0102E010E00E15B6
:101F50001F0579F0B801CE0101960E942503082ED5
:101F6000000C990B0E94091E892B81F20F5F1F4FF5
:101F7000EECFCD2859F2BE016F5F7F4F89EE95E01D
:101F80000E945F0881EA92E0C4CD6FEA72E0CE0160
:101F900001960E947608BE016F5F7F4FCE01899641
:101FA0000E94B413082FCE0101960E94E707002378
:101FB00039F01092EA0384EB92E00E946606F0CDBD
:101FC00062EC72E0CE0101960E947608BE016F5F5E
:101FD0007F4FCE0189960E94B41381111091EA03BC
:101FE000CE0101960E94E707112369F144E050E019
:101FF000BE01675D7F4FCE0101960E94DC08CE01D5
:1020000001960E94D50667EC72E0CE0109960E9407
:102010007608BE01675F7F4FCE0101960E9464077C
:10202000182FCE0109960E94E707112349F00E945C
:1020300007141092EA038BEC92E00E9466069FCA96
:1020400088ED92E066CD69EE72E0CE0101960E94C5
:102050007608BE016F5F7F4FCE0189960E94B41350
:10206000182FCE0101960E94E707112309F498CD9D
:102070008091EA03882339F00E9407141092EA0342
:102080008FEE92E0DACF8AEF92E097CF6CEA71E0C0
:10209000CE0101960E947608BE016F5F7F4FCE0190
:1020A000C5960E946407182FCE0101960E94E7078B
:1020B000112321F081E08093F7039BCA60EA71E06D
:1020C000CE0101960E947608BE016F5F7F4FCE0160
:1020D000C5960E946407182FCE0101960E94E7075B
:1020E000112309F486CA0E94900683CACC5BDF4F95
:1020F0000FB6F894DEBF0FBECDBFDF91CF911F9119
:102100000F91FF90EF90DF90CF90BF90AF909F9096
:102110008F907F906F905F904F903F902F90089599
:102120001F920F920FB60F9211242F933F938F930C
:102130009F93AF93BF938091710590917205A09189
:102140007305B09174053091700523E0230F2D378E
:1021500058F50196A11DB11D20937005809371055E
:1021600090937205A0937305B093740580917505E3
:1021700090917605A0917705B09178050196A11D03
:10218000B11D8093750590937605A0937705B09364
:102190007805BF91AF919F918F913F912F910F90B3
:1021A0000FBE0F901F90189526E8230F0296A11DD1
:1021B000B11DD2CF1F920F920FB60F9211242F9301
:1021C0003F934F935F936F937F938F939F93AF93BF
:1021D000BF93CF93EF93FF93C091E1008091E10013
:1021E000837F8093E100C3FF0FC01092E90081E07C
:1021F0008093EB001092EC0082E38093ED0010924C
:10220000860588E08093F000C2FF1AC00E94240176
:102210008091F403882341F08091F40381508093EE
:10222000F403811101C05D9880918505882341F0F8
:1022300080918505815080938505811101C0289882
:10224000C4FF23C08091E2008E7E81608093E20013
:102250008091E1008F7E8093E1008091F5038E7E76
:1022600080618093F503FF91EF91CF91BF91AF9182
:102270009F918F917F916F915F914F913F912F919E
:102280000F900FBE0F901F901895C0FFECCF80915C
:10229000E2008E7E80618093E2008091E1008E7E7C
:1022A0008093E1008091F5038E7E8160DACF1F92EA
:1022B0000F920FB60F921124CF92DF92EF92FF92FE
:1022C0000F931F932F933F934F935F936F937F933E
:1022D0008F939F93AF93BF93EF93FF93CF93DF932E
:1022E000CDB7DEB76C97DEBFCDBF1092E90080910D
:1022F000E80083FF25C068E0CE0145960E94EF0309
:1023000082EF8093E8008D8987FF39C09091E800C3
:1023100090FFFCCF982F907609F034C19E894F89A9
:10232000588D2F89F88C911131C0803861F58091DA
:10233000F6038093F1001092F1008EEF8093E80095
:102340006C960FB6F894DEBF0FBECDBFDF91CF9174
:10235000FF91EF91BF91AF919F918F917F916F917D
:102360005F914F913F912F911F910F91FF90EF90AF
:10237000DF90CF900F900FBE0F901F9018959EEF9B
:102380009093E800C7CF1092F100D5CF913059F467
:102390008111D3CF4130510581F68091F6038D7FB5
:1023A0008093F603CACF933049F48111C6CF4130F0
:1023B000510519F68091F6038260F2CF953041F411
:1023C0008091E80080FFFCCF20682093E300B5CF28
:1023D000963009F0A9C00B8D1C8D22E01092E90007
:1023E0001092F2031092F103F2122EC01092F00339
:1023F0001092EF030E94BE031F8299E09983FA8234
:1024000091E09E8390EA98879AEF99872091F10353
:102410003091F203275F3F4F3C832B838D831092D3
:10242000E9001092F2031092F1031093F00300936D
:10243000EF0349E050E0BE016F5F7F4F80E00E94F4
:1024400098030E94BE0379CF1093F0030093EF032B
:102450000E946C01DC0112960D911C910115110571
:1024600009F451C1D801ED91FC910480F581E02D72
:10247000BE016B5E7F4FC8010995009709F03EC110
:10248000F80100851185EACFF3E0FF120EC08F89B5
:10249000882309F440C0823061F440E86DE080E1B7
:1024A00091E00E946503811148CF81E28093EB00A7
:1024B00047CF813029F440E86BE084E091E0F1CF30
:1024C000833099F70E946C01DC011296ED90FC902C
:1024D0008E010F5F1F4F6801E114F10479F0D701FD
:1024E000ED91FC910680F781E02DB801C7010995B7
:1024F000080F111DF701E084F184EECFD8011C9282
:10250000F60101900020E9F73197BF016C197D09B0
:1025100040E0C601C6CF6EEE70E0FB01449150E092
:1025200080E80E94980309CF973009F4BECF983015
:1025300021F481E08093F10000CF993009F0FDCEC5
:10254000837009F0B2CFEDE1F1E081E031E096E394
:102550002191222371F08093E9003093EB00DF0199
:1025600011972C912093EC009093ED008F5F8730B2
:1025700079F78EE78093EA001092EA008F898093C2
:102580008605DBCE8B8D9C8D1092E9001092F203B4
:102590001092F1039093F0038093EF03898D8111E2
:1025A00092C08E899D89913A49F4813209F07DCF9C
:1025B00047E050E064E071E080E0B3CF913209F091
:1025C00074CF833269F48F89988DB0E0A0E0809356
:1025D000000190930101A0930201B0930301ADCEDD
:1025E000803269F48091E80082FFFCCF67E084E0EC
:1025F00091E00E94EF038BEF8093E8009ECE823241
:1026000009F09BCE8F8980930B01EEEFFFE7859158
:1026100094918B3F9C4D51F1E0E0F8E080910401F2
:1026200090910501A0910601B0910701803B944073
:10263000A105B105F1F480910B0180FD1AC0EE3FB8
:102640008AE0F80789F587E797E79183808380918F
:1026500060008093F30388E19BE00FB6F894A8959F
:10266000809360000FBE9093600067CEEEEFFAE0BB
:10267000D5CF808191818737974709F05ECEA895A5
:10268000809160008861809360008091F303809363
:102690006000EE3F2AE0F20789F08091FE0A9091F7
:1026A000FF0A9183808349CE808191818737980783
:1026B00051F29093FF0A8093FE0AC5CF1092FF0A51
:1026C0001092FE0A3ACE0E946C01DC0112960D9126
:1026D0001C910115110509F4E8CED801ED91FC918A
:1026E0000190F081E02DBE016B5E7F4FC80109951E
:1026F000811123CEF80100851185EBCF181619063C
:102700000CF41BCED2CEF1E0FF12BECE62EF70E031
:1027100004CFDC01ED91FC9111976091DD05709182
:10272000DE053097D9F061157105A9F414968D91E5
:102730009C91892BB1F0808190E008958091E10512
:102740009091E205892B69F0FB01808190E09195E1
:10275000819591090895CF010C94471E611571056B
:1027600069F790E080E00895FB0144815581FC0108
:10277000248135812417350778F080819181009775
:1027800059F0FB01608171816115710529F00E948A
:10279000571E21E0892B09F020E0822F0895EF9247
:1027A000FF920F931F93CF93DF93CDB7DEB7289798
:1027B0000FB6F894DEBF0FBECDBF7C01CB014AE05F
:1027C0008E010F5F1F4FB8010E94311BF80101906D
:1027D0000020E9F73197AF01401B510BB801C70149
:1027E0000E941708811103C0C7010E94D507C701C5
:1027F00028960FB6F894DEBF0FBECDBFDF91CF9104
:102800001F910F91FF90EF9008950C948F1B8F9262
:102810009F92AF92BF92CF92DF92EF92FF920F936F
:102820001F93CF93DF93CDB7DEB760970FB6F894C1
:10283000DEBF0FBECDBF80E289838A838B838C830A
:102840008D838E838F83888789878A878B878C8700
:102850008D878E878F87888BCE0101966C01A09023
:10286000ED05B090EE057C0110E000E00A151B05B7
:1028700021F00830110509F05BC07E0199E0E90EF6
:10288000F11C8090E7059090E805570110E000E00A
:102890000815190521F00830110509F054C0A701E9
:1028A000B60182E00E940005B82E6AE590E080E063
:1028B0000E94051465EA81E090E00E94051462E040
:1028C00082E090E00E94051403E010E0F6016191BF
:1028D0006F01C8010E9405140F5F1F4F0B301105D7
:1028E000A9F7F70161917F01C8010E9405140F5FEC
:1028F0001F4F03311105A9F76B2D83E190E00E9472
:10290000051481E891E00E94660660960FB6F8947F
:10291000DEBF0FBECDBFDF91CF911F910F91FF9012
:10292000EF90DF90CF90BF90AF909F908F900895E1
:10293000B80189EE95E00E942503F70181937F019C
:102940000F5F1F4F93CFB80183EE95E00E942503E0
:10295000F50181935F010F5F1F4F9ACFE7E8F5E024
:102960001382128288EE93E0A0E0B0E08483958326
:10297000A683B7838FE291E0918380838FEF9FEFEF
:102980009587848769E073E089EE95E00E94760878
:102990006DE073E083EE95E00E94760865E173E0F8
:1029A0008DED95E00E9476086FE371E087ED95E08C
:1029B0000C947608CF93DF93CDB7DEB7A0970FB610
:1029C000F894DEBF0FBECDBF789484B5826084BD1D
:1029D00084B5816084BD85B5826085BD85B5816023
:1029E00085BD80916E00816080936E0010928100A1
:1029F000809181008260809381008091810081605C
:102A0000809381008091800081608093800080911C
:102A10009100826080939100809191008160809309
:102A20009100809190008160809390008091C1001E
:102A300084608093C1008091C10082608093C10056
:102A40008091C10081608093C1008091C30081604A
:102A50008093C3008091C00082608093C000809109
:102A6000C20081608093C20080917A00846080936C
:102A70007A0080917A00826080937A0080917A0057
:102A8000816080937A0080917A00806880937A00D8
:102A9000109286051092F6031092F5038091D700EC
:102AA00081608093D70080EA8093D80089B58061E7
:102AB00089BD89B5826089BD09B400FEFDCF61E0A2
:102AC00070E080E090E00E94F3028091D8008F7C5B
:102AD00080618093D8008091E000807F8093E00047
:102AE0008091E1008E7E8093E1008DE08093E20092
:102AF000559A209A5D9828988FEF9FEF90939405B0
:102B00008093930561E082E10E94FA0161E083E134
:102B10000E94FA0161E084E10E94FA0161E085E12E
:102B20000E94FA0160E088E10E94FA0160E080E121
:102B30000E94FA0161E08EE00E94FA0161E08FE0FC
:102B40000E94FA0161E082E00E94FA0161E085E002
:102B50000E94FA0161E087E00E94FA0161E083E0EF
:102B60000E94FA0161E086E00E94FA0170E060E0F4
:102B700083E00E942B0270E060E086E00E942B025E
:102B80004EEF54E0A4E2B5E078E4872E75E0972E8E
:102B900081EF98EDF401119211924F018D939D9365
:102BA000FA0111921192AF01F8E68F16F5E09F0637
:102BB00089F78FEF809313018093120190E080E0FA
:102BC0000E942109182F81E090E00E942109982F8E
:102BD000812F8A35954A09F069C082E090E00E9411
:102BE0002109782E7E011AE0E10EF11C03E010E0CD
:102BF0005701C8010E942109F70181937F010F5FEE
:102C00001F4F0B301105A9F71A8A9E012F5F3F4F06
:102C100079016901C8010E942109F70181937F01AF
:102C20000F5F1F4F03311105A9F7198683E190E06B
:102C30000E942109182FA601B501872D0E940005C9
:102C4000181334C0B501CE0143960E947608BE0128
:102C50006D5E7F4F89EE95E00E949C07CE01439602
:102C60000E94E707B601CE0143960E947608BE0196
:102C70006D5E7F4F83EE95E00E949C07CE014396E8
:102C80000E94E7076AE672E0CE0143960E9476084A
:102C9000CE0143960E94AE069095991F9927991FE1
:102CA0009093F803CE0143960E94E7071091F80332
:102CB000112309F4F2C08AEA8093FB0301E028ECB7
:102CC00048EC6AEA8AEA0E948A0566E970E080E0D8
:102CD00090E00E94F302112309F4E2C085E580939D
:102CE000FB0301E028EC48EC65E585E50E948A05D8
:102CF00066E970E080E090E00E94F302112309F49D
:102D0000D2C08FEF8093FB0301E020E040E06FEF43
:102D10008FEF0E948A0566E970E080E090E00E94F3
:102D2000F3021092FB0320E040E060E080E00E94AC
:102D30008A0566E970E080E090E00E94F3020E945C
:102D4000900681E08093F7038FB7F8944090710567
:102D50005090720560907305709074058FBF8091DC
:102D60006C0590916D05A0916E05B0916F054816A8
:102D700059066A067B0608F435C46AEAA62E87E877
:102D800095E00E94E604892B09F499C287E895E052
:102D90000E94A4048D3099F38A3009F48BE389836F
:102DA0001A8241E050E0BE016F5F7F4F87ED95E0F2
:102DB0000E94170850E040E06BE387ED95E00E9429
:102DC00048078C0197FDDBCF9C0150E040E067EDA8
:102DD00075E0CE0149960E948708CE0149960E946F
:102DE000D506A8014F5F5F4F67ED75E0CE010196F4
:102DF0000E94DC08BE016F5F7F4F87ED95E00E9467
:102E00009C07CE0101960E94E7078D8D9E8D892B30
:102E100009F43EC01C8A1B8A1E8A1D8A188E1F8ACE
:102E2000BE01675E7F4FCE0143960E945F08CE01D0
:102E300043960E94320760EA71E0CE0143960E94F9
:102E4000F005811108C064EA71E0CE0143960E944A
:102E5000F005882359F10E9490062FB7F8948091CD
:102E6000710590917205A0917305B09174052FBF03
:102E700088539F4FAF4FBF4F80936C0590936D0564
:102E8000A0936E05B0936F05CE0143960E94E707AD
:102E9000CE0149960E94E7078DCF1092FB030ECF1B
:102EA0001092FB031ECF1092FB032ECF6CE072E05A
:102EB000CE0143960E94F0058111D7C06DE173E009
:102EC000CE0143960E94F0058111CFC061E273E00C
:102ED000CE0143960E94F005882309F49EC186ED39
:102EE00093E00E946606B090FD033090FC032090B2
:102EF000FB038091F80303E010E0811102C002E0BF
:102F000010E0D12CC12CEE24E394F12CC7010C2C41
:102F100001C0880F0A94EAF78093FD038093FC03B5
:102F20000330110511F48093FB030E945D0568E7EF
:102F300070E080E090E00E94F302FFEFCF1ADF0A1A
:102F400028E0C216D10411F737E0C32ED12CEE24AD
:102F5000E394F12CC7010C2C01C0880F0A94EAF706
:102F60008093FD038093FC030330110511F48093DB
:102F7000FB030E945D0568E770E080E090E00E943E
:102F8000F30231E0C31AD10828F7A092FD030E9492
:102F90005D0564EB70E080E090E00E94F30255E58F
:102FA0005093FD030E945D0564EB70E080E090E0CB
:102FB0000E94F302A092FC030E945D0564EB70E0A6
:102FC00080E090E00E94F30285E58093FC030E947C
:102FD0005D0564EB70E080E090E00E94F302033056
:102FE0001105A9F4A092FB030E945D0564EB70E05B
:102FF00080E090E00E94F30295E59093FB030E942D
:103000005D0564EB70E080E090E00E94F302EFEF7A
:10301000E093FD03E093FC030330110511F4E0930A
:10302000FB030E945D0564EB70E080E090E00E948D
:10303000F3021092FD031092FC030330110511F40A
:103040001092FB030E945D0568E770E080E090E06D
:103050000E94F302B092FD033092FC032092FB0326
:103060000E945D0581EE93E0D2C086E293E00E946B
:10307000660610E000E0C8010E942109F82EFFE07A
:10308000F81728F060E387E895E00E948A046F2D26
:1030900070E090E080E040E10E94220660E287E874
:1030A00095E00E948A04C80187709927079711F458
:1030B0000E9412060F5F1F4F04311105E1F60E94B6
:1030C000120690E080E00E942109282E81E090E025
:1030D0000E942109382E82E090E00E942109D82E1A
:1030E0007E010AE0E00EF11C03E010E0BE2CCF2CC4
:1030F000C8010E942109F70181937F010F5F1F4FD3
:103100000B301105A9F71A8A9E012F5F3F4F7901F5
:10311000C8010E942109F70181937F010F5F1F4FB2
:1031200003311105A9F7198683E190E00E94210976
:10313000082FAE014F5F5F4F6B2D7C2D8D2D0E94B0
:103140000005182F83E393E00E948906B10190E007
:1031500080E040E10E9422060E9412068DE393E087
:103160000E9489066D2D70E090E080E04AE00E94A8
:1031700022060E9412068AE493E00E9489068B2DA3
:103180009C2D0E9489068EE593E00E94660680E6EB
:1031900093E00E948906CE0101960E9489068EE581
:1031A00093E00E94660685E793E00E948906602FFF
:1031B00070E090E080E040E10E9422060E9412064A
:1031C00084E893E00E948906612F70E090E080E03F
:1031D00040E10E9422060E94120683E993E00E94C9
:1031E000890689EE95E00E9416068DEA93E00E941A
:1031F000890683EE95E00E94160686EC93E00E9415
:1032000089068091F803882329F087EC92E00E94D8
:1032100066063ACE8AE193E0FACF60EB71E0CE0128
:1032200043960E94F00581111BC066EB71E0CE0150
:1032300043960E94F005811113C06EEB71E0CE0140
:1032400043960E94F00581110BC06CEA71E0CE013B
:1032500043960E94F005882329F00E94230914CE8A
:103260000E94720650E040E06AE3CE0149960E9457
:10327000480797FD09CE1A8219821C821B821E8282
:103280001D82BE01675E7F4FCE0101960E945F08DE
:1032900041E050E06BE372E0CE0101960E94170816
:1032A000811104C0CE0101960E94D507CE0101967E
:1032B0000E94F209CE0101960E94E707E5CD8091B8
:1032C000680590916905A0916A05B0916B0593011D
:1032D0008201081B190B2A0B3B0BD901C8010A9765
:1032E000A105B10508F47EC14092680550926905B8
:1032F00060926A0570926B059EEFC92E93E0D92EFD
:103300002EEF222E24E0322E08E415E018A30F8FB2
:1033100010E000E083E2A82E81E0B82EF12CE12C31
:10332000F5018081F2E0AF0EB11CB8010E2C02C095
:10333000759567950A94E2F761700E94CC012FEFB2
:10334000E21AF20A34E0E316F10451F780910C011D
:1033500090910D018230910538F0880F991F880FE8
:10336000991F05970197F1F70E94050197FD39C054
:103370000E94050181159440BCF50E940501F101F0
:10338000419151911F01F80173E0EE0FFF1F7A95F3
:10339000E1F7E40FF51FEE0FFF1FE250FC4F9183A2
:1033A000808320910E0130910F01F1013297CA0103
:1033B0000196B9010E94D41B9183808350E040E0C4
:1033C00090E080E04217530794F4FA01EE0FFF1FDC
:1033D000EC0DFD1D60817181860F971F4F5F5F4F60
:1033E000F1CF90E080E0CBCF8FEF93E0C8CFB90171
:1033F0000E94D41BEF8DF8A161937193F8A3EF8F16
:103400000F5F1F4FF0E1CF0ED11C0031110509F005
:1034100081CF60E08FE00E94CC010BE410E0C80196
:103420000197F1F761E08FE00E94CC01C80101979C
:10343000F1F70E94A005F82E0E94A005F094F092EA
:10344000150180958093140160E08FE00E94CC010B
:10345000C8010197F1F761E08FE00E94CC01C8013B
:103460000197F1F790E1E92EF12C0FE010E060E018
:103470008EE00E94CC01C8010197F1F761E08EE077
:103480000E94CC01C8010197F1F721E0E21AF1088E
:1034900071F78091150190911301891306C0209155
:1034A000140190911201291729F14091440550917E
:1034B0004505609146057091470593018201041B03
:1034C000150B260B370BB901A8014C3051056105CE
:1034D000710580F040924405509245056092460582
:1034E000709247058093130180911401809312011B
:1034F0000E9423096091100170911101A4E2B5E0CE
:1035000088E4E82E85E0F82E20E0F7014191519102
:103510007F018D919D918A01081B190BC80117FF2E
:1035200003C09195819591098617970734F0CD01D5
:103530000297FC015183408321E08E149F0429F7F8
:1035400021110E94230980911501813419F5809180
:1035500014018830F9F48091220590912305892B7C
:10356000C9F481E090E09093230580932205409276
:103570001E0550921F05609220057092210586ED70
:1035800093E00E94660601E028EC48EC6FEF8FEFB5
:103590000E948A058091220590912305019711F5DB
:1035A00080911E0590911F05A0912005B0912105E5
:1035B000481A590A6A0A7B0AF8E94F16FAE35F06C5
:1035C0006104710478F0109223051092220581EEB7
:1035D00093E00E94660601E020E040E060E080E0C9
:1035E0000E948A0580E090E0892B09F4ADCB0E940F
:1035F0000000AACB87ED95E00E94E7078DED95E0EE
:103600000E94E70783EE95E00E94E70789EE95E0C8
:103610000C94E7071F93FC0199278827BC01E894C5
:1036200011911032E9F3193010F01E30C8F31B323B
:1036300051F01D3249F4689406C00E943C1B610F92
:10364000711D811D911D119110531A30B0F33EF47C
:1036500090958095709561957F4F8F4F9F4F1F91EB
:103660000895BB274A3031F4992322F4BDE29095A6
:1036700081959F4F0C94521B592F482F372F262F7F
:10368000660F771F881F991F660F771F881F991F66
:10369000620F731F841F951F660F771F881F991F66
:1036A0000895BB27FB015527AA27880F991FAA1F3A
:1036B000A41710F0A41B83955051B9F7A05DAA334D
:1036C00008F0A95DA193009779F7B111B193119218
:1036D000CB010C94741B91110C94841B803219F053
:1036E00089508550C8F70895DC01FC01672F71915E
:1036F0007723E1F7329704C07C916D9370836291D8
:10370000AE17BF07C8F30895992788270895F99938
:10371000FECF92BD81BDF89A992780B50895262FD6
:10372000F999FECF1FBA92BD81BD20BD0FB6F894A6
:10373000FA9AF99A0FBE019608952F923F924F92EE
:103740005F926F927F928F929F92AF92BF92CF9231
:10375000DF92EF92FF920F931F93CF93DF93CDB73A
:10376000DEB7CA1BDB0B0FB6F894DEBF0FBECDBFB2
:1037700009942A88398848885F846E847D848C8483
:103780009B84AA84B984C884DF80EE80FD800C818C
:103790001B81AA81B981CE0FD11D0FB6F894DEBF6F
:1037A0000FBECDBFED01089597FB072E16F40094D0
:1037B00007D077FD09D00E94101C07FC05D03EF40D
:1037C000909581959F4F0895709561957F4F0895CD
:1037D000A1E21A2EAA1BBB1BFD010DC0AA1FBB1F15
:1037E000EE1FFF1FA217B307E407F50720F0A21B87
:1037F000B30BE40BF50B661F771F881F991F1A94F4
:1038000069F760957095809590959B01AC01BD011D
:10381000CF010895EE0FFF1F0590F491E02D09945C
:10382000AA1BBB1B51E107C0AA1FBB1FA617B707E6
:1038300010F0A61BB70B881F991F5A95A9F7809502
:103840009095BC01CD0108950F931F93CF93DF9303
:103850008230910510F482E090E0E091F105F09162
:10386000F20530E020E0B0E0A0E0309799F42115B7
:10387000310509F44AC0281B390B24303105D8F52D
:103880008A819B816115710589F1FB019383828394
:10389000FE0111C0408151810281138148175907EF
:1038A000E0F04817590799F4109761F012960C93BD
:1038B000129713961C933296CF01DF91CF911F91EF
:1038C0000F9108950093F1051093F205F4CF21159F
:1038D000310551F04217530738F0A901DB019A0175
:1038E000BD01DF01F801C1CFEF01F9CF9093F205DF
:1038F0008093F105CDCFFE01E20FF31F81939193E9
:103900002250310939832883D7CF2091EF05309198
:10391000F005232B41F420911801309119013093C7
:10392000F0052093EF052091160130911701211524
:10393000310541F42DB73EB740911A0150911B015A
:10394000241B350BE091EF05F091F005E217F3072A
:10395000A0F42E1B3F0B2817390778F0AC014E5FFF
:103960005F4F2417350748F04E0F5F1F5093F00547
:103970004093EF05819391939FCFF0E0E0E09CCFDF
:10398000CF93DF930097E9F0FC0132971382128204
:10399000A091F105B091F205ED0130E020E0109723
:1039A000A1F420813181820F931F2091EF05309186
:1039B000F0052817390709F061C0F093F005E0938E
:1039C000EF05DF91CF910895EA01CE17DF07E8F503
:1039D0004A815B819E0141155105B1F7E901FB83E5
:1039E000EA8349915991C40FD51FEC17FD0761F483
:1039F000808191810296840F951FE90199838883C4
:103A0000828193819B838A83F0E0E0E012968D911E
:103A10009C9113970097B9F52D913C911197CD0189
:103A20000296820F931F2091EF053091F005281721
:103A3000390739F6309751F51092F2051092F105D9
:103A4000B093F005A093EF05BCCFD383C283408130
:103A50005181840F951FC817D90761F44E5F5F4FDE
:103A600088819981480F591F518340838A819B81A6
:103A7000938382832115310509F0B0CFF093F205CD
:103A8000E093F1059ECFFD01DC01C0CF13821282CD
:103A9000D7CFB0E0A0E0EFE4FDE10C949F1B8C01D8
:103AA000009751F4CB010E94241C8C01C801CDB7B2
:103AB000DEB7E0E10C94BB1BFC01E60FF71F9C0195
:103AC00022503109E217F30708F49DC0D901CD91C6
:103AD000DC911197C617D70798F0C530D10530F3A0
:103AE000CE0104978617970708F3C61BD70B2297BA
:103AF000C193D1936D937C93CF010E94C01CD6CF0C
:103B00005B01AC1ABD0A4C018C0E9D1EA091F10503
:103B1000B091F205512C412CF12CE12C109731F58C
:103B20008091EF059091F0058815990509F05CC02A
:103B30004616570608F058C080911601909117015B
:103B4000009741F48DB79EB740911A0150911B0127
:103B5000841B950BE817F90708F055C0F093F005A2
:103B6000E093EF05F90171836083A0CF8D919C9163
:103B7000119712966C90129713967C901397A81534
:103B8000B90559F56C0142E0C40ED11CCA14DB041E
:103B900020F1AC014A195B09DA011296159780F001
:103BA0006282738251834083D9016D937C93E114C7
:103BB000F10471F0D7011396FC93EE93129776CF30
:103BC00022968C0F9D1FF90191838083F301EFCF23
:103BD000F093F205E093F10569CF4816590608F411
:103BE0002C017D01D3019ACFCB010E94241C7C01C2
:103BF000009749F0AE01B8010E94211EC8010E9441
:103C0000C01C870153CF10E000E050CF85FD0C941D
:103C1000841B806291110C94841B81568A51D8F7C1
:103C200008959111089581548A5108F4805E855A4F
:103C300008959111089581568A5108F4805285584B
:103C40000895FB01DC0102C001900D9241505040EB
:103C5000D8F708956817790768F4FB01DC01E40FD1
:103C6000F51FA40FB51F02C002900E9241505040A4
:103C7000D8F708950C94211EFC018191861721F03C
:103C80008823D9F7992708953197CF010895FB012B
:103C9000DC018D91019080190110D9F3990B0895E1
:103CA000FB01DC0101900D920020E1F70895FB017A
:103CB000DC014150504030F08D910190801919F491
:103CC0000020B9F7881B990B0895FB0151915523EA
:103CD000A9F0BF01DC014D9145174111E1F759F4FD
:103CE000CD010190002049F04D9140154111C9F3DB
:103CF000FB014111EFCF81E090E001970895AEE024
:103D0000B0E0E5E8FEE10C94AB1B0D891E8986E06E
:103D10008C831A8309838FEF9FE79E838D83AE0187
:103D2000475E5F4F6F89788DCE0101960E94A21E7B
:103D30002F813885020F131FF80110822E96E4E0C0
:103D40000C94C71BABE0B0E0E8EAFEE10C949D1BCD
:103D50007C013B018A01FC0117821682838181FF6D
:103D6000C8C1CE0101965C01F7019381F30193FD77
:103D7000859193FF81913F01882309F453C18532D6
:103D800039F493FD859193FF81913F01853229F4A8
:103D9000B70190E00E949220E7CF912C212C312C8A
:103DA000FFE1F31538F08B3211F190F4803209F114
:103DB000833229F137FC3CC020ED280F2A3050F522
:103DC00036FE20C08AE0989E200D1124922E06C057
:103DD0008D3291F0803371F7689430F8F30193FDE0
:103DE000859193FF81913F018111DACF21C06894C1
:103DF00031F8689432F8F2CF689433F8EFCF6894D2
:103E000034F8ECCFEAE02E9E200D1124222E689487
:103E100035F8E4CF8E3229F436FC04C1689436F8C4
:103E2000DDCF8C3619F4689437F8D8CF8836B1F2E4
:103E3000982F9F7D95549330E0F08336A1F183371E
:103E4000C1F1833509F063C02801F2E04F0E511C27
:103E5000F801C080D180692D70E036FC02C06FEFA0
:103E60007FEFC6010E947C204C01689437F88201E4
:103E70000AC00C5F1F4FFFE3F98388248394912CC1
:103E80006501E89437F833FE2DC0522C811491045B
:103E900071F5552009F468CFB70180E290E00E94E7
:103EA00092205A94F6CFF801808189830E5F1F4FCC
:103EB000E4CF2801F2E04F0E511CF801C080D18000
:103EC000692D70E036FC02C06FEF7FEFC6010E94E3
:103ED00087204C018201D5CFB70180E290E00E949B
:103EE00092202A942814190409F0B0F7CECFF601D5
:103EF00037FC859137FE81916F01B70190E00E94F8
:103F0000922051105A94F1E08F1A9108BFCF843655
:103F100019F0893609F077C0F80137FE6BC060816F
:103F20007181828193810C5F1F4FF32DFF763F2EAD
:103F300097FF09C090958095709561957F4F8F4F41
:103F40009F4F689437F82AE030E0A5010E94C22014
:103F5000C82ECA188C2C432C36FE0CC0E89440F8AE
:103F6000C91440F434FE05C032FC03C0F32DFE7EBC
:103F70004F2E892C44FE95C0FE01EC0DF11D808171
:103F8000803309F087C0242D297E422E842D88702D
:103F9000582E43FC95C040FE8FC09C2C821418F410
:103FA0002C0C922C981844FE91C0B70180E390E04D
:103FB0000E94922042FE09C088E790E041FE02C0C4
:103FC00088E590E0B7010E949220C91408F48AC0E5
:103FD000CA94D12C9FEFC91AD90ACA0CDB1CF6016E
:103FE00082916F01B70190E00E949220AC14BD0451
:103FF000B1F74FCF60817181072E000C880B990BB0
:104000000E5F1F4F92CFD32CE894D4F82AE030E013
:10401000853739F1232D297FD22E8F3601F148F4CF
:104020008835A9F0F701868197812B96E2E10C94FF
:10403000B91B803749F08837A9F7D4FE02C06894CD
:10404000D2F820E130E00DC06894D4F8F6CF34FE09
:1040500003C0822F8660D82E20E132E002C028E023
:1040600030E0F801D7FE0FC06081718182819381B9
:104070000C5F1F4FA5010E94C220C82ECA183D2CFC
:10408000E89437F867CF6081718190E080E00E5F3F
:104090001F4FF0CF42FC02C0839478CF8394839467
:1040A00075CF842D867809F471CFF6CFB70180E201
:1040B00090E00E94922083948214C0F3512C73CF1D
:1040C000522C5818821408F46ECFF8CF842D8678BD
:1040D00009F47BCF8BE241FE80E247FC8DE2B70121
:1040E00090E071CFB70180E390E00E9492209A9413
:1040F0006CCF8FEF9FEF99CFFC010590615070401E
:104100000110D8F7809590958E0F9F1F0895FC01A0
:104110006150704001900110D8F7809590958E0FF6
:104120009F1F08950F931F93CF93DF93182F092F8D
:10413000EB018B8181FD09C01FEF0FEF812F902FC5
:10414000DF91CF911F910F91089582FF14C02E81AE
:104150003F818C819D81281739073CF4E881F981E2
:10416000CF0101969983888310838E819F81019668
:104170009F838E83E3CFE885F985812F0995892B6D
:10418000A1F3DACFFA01AA27283051F1203181F1C9
:10419000E8946F936E7F6E5F7F4F8F4F9F4FAF4F4F
:1041A000B1E03ED0B4E03CD0670F781F891F9A1F62
:1041B000A11D680F791F8A1F911DA11D6A0F711D16
:1041C000811D911DA11D20D009F468943F912AE022
:1041D000269F11243019305D3193DEF6CF0108950A
:1041E000462F4770405D4193B3E00FD0C9F7F6CF3B
:1041F000462F4F70405D4A3318F0495D31FD405203
:10420000419302D0A9F7EACFB4E0A6959795879598
:1042100077956795BA95C9F7009761057105089577
:104220009B01AC010A2E0694579547953795279523
:10423000BA95C9F7620F731F841F951FA01D0895BB
:1042400010E0CAEDD0E004C0FE010E940A1C2196D5
:0A425000CB3DD107C9F7F894FFCF6A
:10425A00FFFFFFFF00E10000000000002C01040046
:10426A000A00FFFFFFFF0000F305800000C1808104
:10427A000000001200130014001500000000008A5C
:10428A0004FC03A0042F01E604A404C2040D0A00DE
:10429A0052455354415254494E47004944454E549D
:1042AA003A004143502C2076312E33204D415100A3
:1042BA003B53544154453A52554E4E494E473B00A2
:1042CA0048575F5245473A003B48575F5043423A86
:1042DA0000534156455F48573A4F4B004D555800D9
:1042EA002530346400494E313A003B494E323A0097
:1042FA005645520056455253494F4E0052455100B9
:10430A005245534554005245535441525400524564
:10431A00424F4F54004C454431004C454432004C06
:10432A0045443300414E00444953505F424C0053C8
:10433A004D4F5F54485200534D4F5F53414D005308
:10434A004D4F5F444C59005345545F524547005303
:10435A0045545F50434200534156455F4857005306
:10436A004156455F48573A44454E494544005345EE
:10437A0054200053455420524543563A00454E4175
:10438A003A0053455420454E413E203B0053455484
:10439A0020454E413A4641494C203B0046573A0097
:1043AA005345542046573A464F524D4154203B00FC
:1043BA0050434220002E00504342312E32005345D2
:1043CA00542046573A4F4B203B00534554204657FA
:1043DA003A52414E4745203B00414349443A005333
:1043EA00455420414349443A464F524D4154203B9B
:1043FA000053455420414349443A4F4B203B004522
:10440A005849540053455420455849543A4F4B2073
:10441A003B005752493A00594553005345542057D7
:10442A0052493A4F4B203B00534554205752493A80
:10443A00464F524D4154203B00575249544500576C
:10444A00524954453A4F4B203B0057524954453A3A
:10445A004C4F434B4544203B00414350005043429C
:10446A0020312E300030383135004E4F0048573F4A
:10447A00004449414700454550524F4D2044554D4F
:10448A00503A004D414749433A20307800464F524E
:10449A004D41545F5645523A2000414952435241D8
:1044AA0046545F5245472028726177293A202700EF
:1044BA005043425F56455253494F4E202872617706
:1044CA00293A20270053544F5245445F43484B3AF8
:1044DA002030780043414C435F43484B3A20202028
:1044EA00307800506172736564204346475F4149E2
:1044FA005243524146545F5245473A200050617236
:10450A00736564204346475F5043425F56455253A2
:10451A00494F4E3A20004346475F5043425F495352
:10452A005F31323A200044494147205354415254A2
:0A453A00004449414720454E44006B
:00000001FF
