:100000000C94DB000C9403010C9403010C94030189
:100010000C9403010C9403010C9403010C94030150
:100020000C9403010C9403010C94B50A0C94320B4C
:100030000C9403010C9403010C9403010C94030130
:100040000C9403010C9403010C9403010C94030120
:100050000C9403010C9403010C9403010C946B0A9F
:100060000C9403010C9403010C9403010C94030100
:100070000C9403010C9403010C9403010C940301F0
:100080000C9403010C9403010C9403010C940301E0
:100090000C9403010C9403010C9403010C940301D0
:1000A0000C9403010C9403010C940301080B00024F
:1000B0000202000009040000010202000005240001
:1000C0001001052401010104240206052406000193
:1000D0000705810310004009040100020A00000026
:1000E00007050202400000070583024000000403E8
:1000F000090412010002EF02014041233780000190
:100100000102030141726475696E6F204C4C43001B
:1001100041726475696E6F204D6963726F000706E6
:1001200005040100080A0B0C0D0900000000240062
:1001300027002A002D0030000000000025002800C4
:100140002B002E00310000000000230026002900B3
:100150002C002F000404040404030405020202021C
:100160000403020202020606060606060404020250
:100170000204040408020110408040102040804026
:1001800080080204018040201002011080102040ED
:1001900040200000000200090F0000030401000CD1
:1001A000000000000000000000000000000000004F
:1001B0000000640DE41911241FBECFEFDAE0DEBFAA
:1001C000CDBF13E0A0E0B1E0EAEAF1E402C005909F
:1001D0000D92A034B107D9F725E0A0E4B3E001C047
:1001E0001D92AB34B207E1F710E0CAEDD0E004C0D5
:1001F0002197FE010E94981BC93DD107C9F70E94B3
:100200007E0D0C94C8200C940000CF93DF93FC016A
:10021000389623E030E0EC01A991CE012A0F311D80
:10022000EC17FD07C1F7FB01CB0108966191260F82
:10023000311D8E179F07D1F7FA01CA010996419126
:10024000240F311D8E179F07D1F7822FDF91CF9199
:10025000089583E08093E9008091F200882319F0EB
:100260008AE38093E8000895FC018091E6048823E6
:1002700011F13FB7F89482E08093E9002091F200F9
:10028000822F90E01816190614F481E090E088237C
:1002900039F0289A44E64093E5044091F100408308
:1002A000222339F02091F200211103C02BE6209384
:1002B000E8003FBF08958FEF9FEF08952FB7F894A0
:1002C00083E08093E9009091E800892F807295FF88
:1002D00004C09091F20080E4891B2FBF08958091A3
:1002E000DD0481110DC082E08093D90484E0809305
:1002F000DA041092DC041092DB0481E08093DD04C8
:1003000089ED94E0089581508F3008F047C0E82FC0
:10031000F0E0E357FE4F0C94981BAA01AE019C013C
:10032000A201A601CE01CE01CE01B101B701BB01F0
:10033000BF01C501CE01C901809180008F778093F4
:1003400080000895809180008F7DF9CF809180009A
:10035000877FF5CF84B58F7784BD089584B58F7D71
:10036000FBCF809190008F778093900008958091CB
:1003700090008F7DF9CF80919000877FF5CF80919D
:10038000C0008F778093C00008958091C0008F7D5A
:10039000F9CF8091C200877F8093C20008951F9398
:1003A000CF93DF93282F30E0F901EE56FE4F849172
:1003B000F901ED58FE4FD491F901EC5AFE4FC4916A
:1003C000CC23A9F0162F81110E948301EC2FF0E0BD
:1003D000EE0FFF1FE85CFE4FA591B4918FB7F89424
:1003E000EC91111108C0D095DE23DC938FBFDF9113
:1003F000CF911F910895DE2BF8CFCF93DF9390E03C
:10040000FC01ED58FE4F24918C5A9E4FFC018491C3
:100410008823D1F090E0880F991FFC01E65DFE4F24
:10042000A591B491FC01E85CFE4FC591D491611196
:100430000EC09FB7F8948C91E22FE0958E238C9399
:100440002881E223E8839FBFDF91CF9108958FB782
:10045000F894EC91E22BEC938FBFF6CF1F93CF93E0
:10046000DF93182FEB0161E00E94FD01209739F422
:1004700060E0812FDF91CF911F910C94CF01CF3F8E
:10048000D10511F461E0F5CFE12FF0E0EE56FE4F1B
:10049000E491E150EF3008F07FC0F0E0EE5AFD4FFC
:1004A0000C94981B610269026E0278028202CC02EF
:1004B000CC02CC028C029602A002AA02B702CC02A5
:1004C000BF0284B5806884BDC7BDDF91CF911F9105
:1004D000089584B5806284BDC8BDF7CF8091800047
:1004E000806880938000D0938900C0938800EDCF0E
:1004F00080918000806280938000D0938B00C093B5
:100500008A00E3CF80918000886080938000D09340
:100510008D00C0938C00D9CF80919000806880932B
:100520009000D0939900C0939800CFCF8091900015
:10053000806280939000D0939B00C0939A00C5CFB7
:1005400080919000886080939000D0939D00C0932C
:100550009C00BBCF8091C00080688093C0008091D8
:10056000C0008F7B8093C000C093CF00AECF80913E
:10057000C00080628093C000C093D000A6CF80915D
:10058000C20088608093C2008091C2008B7F8093FC
:10059000C200C093D20099CFC038D1050CF072CF01
:1005A00067CF8251E82FF0E0E25EFE4FE491909138
:1005B0007B008E2F880F880F80729F7D892B809300
:1005C0007B00E770E064E0937C0080917A008064B7
:1005D00080937A0080917A0086FDFCCF809178002C
:1005E0009091790008953FB7F8948091D504909147
:1005F000D604A091D704B091D80426B5A89B05C015
:100600002F3F19F00196A11DB11D3FBFBA2FA92F91
:10061000982F8827BC01CD01620F711D811D911D8E
:1006200042E0660F771F881F991F4A95D1F70895FA
:100630008F929F92AF92BF92CF92DF92EF92FF92F2
:100640004B015C010E94F3026B017C010E94F302EA
:100650006C197D098E099F09683E734081059105DB
:10066000A8F321E0821A9108A108B10888EEC80E0B
:1006700083E0D81EE11CF11C81149104A104B10493
:1006800029F7FF90EF90DF90CF90BF90AF909F90B1
:100690008F9008952FB7F8946091D1047091D2048F
:1006A0008091D3049091D4042FBF08950C94290114
:1006B000FC01248135816217730748F480819181A0
:1006C000009729F0860F971FFC018081089580E034
:1006D00008950895409142035091430320914003AF
:1006E0003091410342175307B4F49091E80095709C
:1006F000E1F39091E80092FD19C08093F1008091A0
:1007000042039091430301968F739927892B19F423
:100710008EEF8093E800809142039091430301960D
:10072000909343038093420381E0089580E008950D
:10073000EF92FF920F931F93CF93DF93F82E192F11
:10074000E62E042F81E0860F880F0E946A0383E063
:100750000E946A03CF2DD12FEC0EFD2EF11CCE1579
:10076000DF05B9F007FF13C0FE0184910E946A0300
:10077000182F80E00E946A03812321968111EFCF18
:10078000DF91CF911F910F91FF90EF900895888195
:10079000EDCF81E0F5CFDF92EF92FF920F931F93A1
:1007A000CF93DF93D82E8A01EB017B01E40EF51E77
:1007B000CE15DF0559F0D7FE12C0FE0184910E94CC
:1007C0006A0321968111F4CF0FEF1FEFC801DF916B
:1007D000CF911F910F91FF90EF90DF900895888146
:1007E000EECF0F931F93CF93DF931F92CDB7DEB75A
:1007F00082E0898342E450E06CEA70E080E80E9485
:10080000CB030E946F01DC0112960D911C91011522
:10081000110589F0D801ED91FC910280F381E02D62
:10082000BE016F5F7F4FC801099597FD04C0F801B5
:1008300000851185ECCF89810F90DF91CF911F91B9
:100840000F910895615030F02091F100FC01208358
:100850000196F8CF289A84E68093E50408958F9254
:100860009F92AF92BF92CF92DF92EF92FF920F933F
:100870001F93CF93DF936C017B018A0180910B0161
:10088000882309F45CC08091E604882309F457C0EA
:100890008091460380FF05C08091E00082608093D4
:1008A000E000E801B12C8AEFA82E93E0892E2AE31C
:1008B000922E209711F4BB20D9F10E945E01811184
:1008C0000AC0AA94AA20D9F161E070E080E090E02B
:1008D0000E941803EECF8C171D0611F00CF08C2F20
:1008E0009FB7F8948092E9002091E80025FD02C0AE
:1008F0009FBFDFCF282F30E0C21BD30BF701815001
:1009000020F041914093F100FACFE20EF31EBB209C
:1009100021F09092E800B12CEBCF8091E80085FDAA
:10092000E7CF9092E800BB24B394209709F3F3CF6C
:100930005D9A84E680934503101611063CF081E031
:1009400090E0F6019383828310E000E0C801DF911C
:10095000CF911F910F91FF90EF90DF90CF90BF90BC
:10096000AF909F908F900895FC01448155816081E4
:10097000718181EF94E00C942F04CF93DF931F9249
:10098000CDB7DEB76983DC01ED91FC910280F38184
:10099000E02D41E050E0BE016F5F7F4F09950F9061
:1009A000DF91CF9108950E945E0190E00895CF936A
:1009B000DF931F92CDB7DEB7FC018485958597FD47
:1009C00008C02FEF3FEF358724870F90DF91CF913D
:1009D0000895CE0101960E943401019719F489818E
:1009E00090E0F3CF8FEF9FEFF0CF0F931F93CF9354
:1009F000DF931F92CDB7DEB78C01FC01848595850E
:100A000097FF0BC0CE0101960E943401019771F44B
:100A1000898190E0F80195878487F8018485958520
:100A20000F90DF91CF911F910F9108958FEF9FEF5E
:100A3000F1CFFC018485958597FD0BC09FB7F89495
:100A400082E08093E9008091F2009FBF90E00196E0
:100A500008959FB7F89482E08093E9008091F200B6
:100A60009FBF90E00895CF92DF92EF92FF920F9395
:100A70001F93CF937C01FC01C480D58010E000E07F
:100A8000C0E00C151D05A1F0B801C7010E94580374
:100A900090ED980F923048F42C2F30E0220F331F46
:100AA000C1E0813309F0C0E0C22B0F5F1F4FE9CFD7
:100AB0008C2FCF911F910F91FF90EF90DF90CF90EF
:100AC0000895CF93DF93D82FC8E06D2F661F662758
:100AD000661F87E00E94CF01DD0F61E085E00E9484
:100AE000CF0160E085E00E94CF01C15071F7DF9136
:100AF000CF910895FF920F931F93CF93DF93D091DF
:100B00001E018FE7D13009F08FE31091C504909159
:100B1000940420919504211107C0282F111101C0C0
:100B200020E080959823822FC92FC82B0091920432
:100B3000D23008F400E0F090930460E082E00E947C
:100B4000CF01D23018F0802F0E9461058F2D0E94B6
:100B500061058C2F0E94610561E082E00E94CF0157
:100B60006FEF70E0611B710983E00E942E026091BB
:100B7000910470E086E0DF91CF911F910F91FF907B
:100B80000C942E029F92AF92BF92CF92DF92EF927F
:100B9000FF920F931F93CF93DF93C7E0D0E0B12C68
:100BA00002EA11E093E8E92E91E0F92E24E6C22E44
:100BB00021E0D22E61E08EE00E94CF01F801849105
:100BC000F701A490F6019490992051F181110E94AF
:100BD0008301E92DF0E0EE0FFF1FEA5BFE4FA591C8
:100BE000B4918C91A82231E009F430E0832F0C2ECF
:100BF00001C0880F0A94EAF7B82A60E08EE00E94EC
:100C0000CF012197B8F68B2DDF91CF911F910F91D6
:100C1000FF90EF90DF90CF90BF90AF909F9008959E
:100C200080E0E5CFCF92DF92EF92FF920F931F9378
:100C3000CF93DF93CDB7DEB761970FB6F894DEBFE1
:100C40000FBECDBF82E10E94D1028C0183E10E94E0
:100C5000D1027C010E94F30298012E0D3F1D8901F3
:100C6000330F220B330B600F711F821F931F61150F
:100C700071058105910511F00E94831A81E1EEE56D
:100C8000F1E0DE01119601900D928A95E1F707EEF1
:100C900014E080E1C82ED12CE12CF12C0E94341AF2
:100CA000A70196010E94EA1A21E030E02C0F3D1FB7
:100CB000620F731FFB018081F80181938F01F4E0C3
:100CC0000F3E1F0759F71092EF0461960FB6F89484
:100CD000DEBF0FBECDBFDF91CF911F910F91FF906F
:100CE000EF90DF90CF900895FC0101900020E9F78C
:100CF0003197AF01481B590BBC0181EF94E00C9474
:100D00002F048F929F92AF92BF920F931F93CF9316
:100D1000DF93CDB7DEB7A1970FB6F894DEBF0FBE55
:100D2000CDBF19A2423008F44AE08E010F5D1F4F7B
:100D3000842E912CB12CA12CA50194010E94531B4F
:100D4000E62FB901CA01EA30F4F4E05DD801EE9370
:100D50008D01232B242B252B79F790E080E0109731
:100D600019F0CD010E947406A1960FB6F894DEBF6B
:100D70000FBECDBFDF91CF911F910F91BF90AF906C
:100D80009F908F900895E95CE1CFCF92DF92EF9230
:100D9000FF92CF93DF936B017C016DE281EF94E0D2
:100DA0000E94BD04EC0166277727CB016C197D09F1
:100DB0008E099F094AE00E9481068C0F9D1FDF91DA
:100DC000CF91FF90EF90DF90CF900895009711F0B2
:100DD0000C94740690E080E00895CF93DF930E9416
:100DE0007406EC018FE691E00E9474068C0F9D1F43
:100DF000DF91CF91089582E791E00E94E60689E7AE
:100E000091E00E94E6068091E704882361F08DE876
:100E100091E00E94E6068AE391E00E94E60687EEF2
:100E200094E00E94E60683E991E00E94E60689E1EB
:100E300092E00E94E60660911E0170E090E080E082
:100E40004AE00E94810682E392E00E94E6068FE675
:100E500091E00C947406CF93DF93FC0124813581DB
:100E6000232B79F0C081D181062E000C770BCE01A7
:100E70000E94BF1D009729F08C1B9D0BDF91CF9125
:100E800008958FEF9FEFFACFFC0180819181009749
:100E900011F00C948C1A60E070E0CB010895AF92D1
:100EA000BF92CF92DF92EF92FF920F931F93CF9357
:100EB000DF93DC01CD90DC901197C114D10439F09F
:100EC0001496CD91DC918C017601209761F4DF912D
:100ED000CF911F910F91FF90EF90DF90CF90BF9037
:100EE000AF90089575015701BFEFAB1ABB0AF70128
:100EF0008081082E000C990B0E94C81A892B91F74B
:100F00002197CC0DDD1D8881082E000C990B0E94C5
:100F1000C81A892B29F0CE15DF0510F02197F3CFE1
:100F2000AE014F5F5F4F4E195F09D80115965C9374
:100F30004E931497CE14DF0420F4B701C6010E942B
:100F4000B61DD801ED91FC91119714968D919C914D
:100F5000E80FF91F1082BBCFCF93DF93FC01C08154
:100F6000D181209761F08991882349F0082E000CE7
:100F7000990B0E94AE1DFE0131978083F4CFDF9163
:100F8000CF910895EF92FF920F931F93CF93DF932A
:100F90008617970769F1FC0124813581FB014481A3
:100FA000558124173507E1F4232B11F1FC01008151
:100FB0001181FB01C081D181F80181918F018823CA
:100FC000B9F0082E000C990B0E94A61D7C01899196
:100FD000082E000C990B0E94A61DE816F90661F375
:100FE00080E0DF91CF911F910F91FF90EF900895D6
:100FF00081E0F7CFFC0124813581232B31F421E0FE
:10100000FB01672B49F4822F08958081918161153E
:10101000710539F421E0FC0180818823A1F320E0EF
:10102000F2CF0E94CA1D21E0892B69F3F8CF0F93FC
:101030001F93CF93DF938C01EB01FC0180819181A1
:101040000097E1F06881798161157105A9F042810D
:1010500053812C813D814217530770F00E94D31DAC
:101060008C819D81F801958384831D821C82DF9190
:10107000CF911F910F9108950E94551C88819981ED
:10108000F801918380838A819B81938382838C8101
:101090009D8195838483198218821B821A82E5CFF1
:1010A000CF93DF93EC0188819981009711F00E9422
:1010B000551C198218821D821C821B821A82DF91A4
:1010C000CF910895FC0180819181009711F00C94DB
:1010D000551C08950F931F93CF93DF93EC018881E4
:1010E0009981009759F02A813B812617370730F004
:1010F00081E0DF91CF911F910F9108958B016F5F78
:101100007F4F0E94DE1C009759F0998388831B83D0
:101110000A832C813D81232B59F7FC011082E8CFF3
:1011200080E0E7CFEF92FF920F931F93CF93DF936F
:1011300041155105B1F07B01EC010C811D81040FBB
:10114000151FB8010E946A08882361F0288139813F
:101150008C819D81B701820F931F0E94D31D1D8337
:101160000C8381E0DF91CF911F910F91FF90EF9061
:101170000895EF92FF920F931F93CF93DF93EC01AB
:101180007B018A01BA010E946A0881110BC0CE015D
:101190000E945008CE01DF91CF911F910F91FF90D7
:1011A000EF9008951D830C83B701888199810E9477
:1011B000D31DF0CFCF93DF93EC01FB018617970788
:1011C00049F0608171816115710541F0448155815B
:1011D0000E94B908CE01DF91CF9108950E94500876
:1011E000F9CFFC01118210821382128215821482BF
:1011F000FB0101900020E9F73197AF01461B570B27
:101200000C94B908AF92BF92CF92DF92EF92FF9207
:101210000F931F93CF93DF937C016B015A018901D8
:101220002417350720F48B2D5901042F182F61E75F
:1012300071E0C7010E94F108D6011496CD91DC91AE
:10124000AC16BD0620F50C171D0708F4E801D60101
:10125000ED91FC911197EC0FFD1F108110826D91A3
:101260007C916A0D7B1D61157105E9F0FB01019010
:101270000020E9F73197AF01461B570BC7010E94C9
:10128000B908F60180819181C80FD91F1883C70161
:10129000DF91CF911F910F91FF90EF90DF90CF9052
:1012A000BF90AF900895C7010E945008EACFCF9237
:1012B000DF92EF92FF920F931F93CF93DF9300D0B3
:1012C000CDB7DEB77C01C62E61E771E00E94F10860
:1012D00007E010E0D12CC601002E02C0959587953D
:1012E0000A94E2F780FD1AC080E389831A8241E004
:1012F00050E0BE016F5F7F4FC7010E94920801500E
:10130000110948F7C7010F900F90DF91CF911F91FE
:101310000F91FF90EF90DF90CF90089581E3E5CF9C
:101320001F93CF93DF93EC01162F0E94D41A181746
:1013300039F0612FCE01DF91CF911F910C94DC1A0F
:10134000DF91CF911F9108954F925F926F927F929C
:101350008F929F92AF92BF92CF92DF92EF92FF92C5
:101360000F931F93CF93DF93CDB7DEB769970FB677
:10137000F894DEBF0FBECDBF2CE031E0F901019043
:101380000020E9F79F012D5031405E01FAE0AF0ED9
:10139000B11CF50190E080E0450140E2821793071F
:1013A00024F4DC01A45FBE4F4C9141930196883038
:1013B000910599F725E131E0F90101900020E9F765
:1013C0009F01265131406E01F2E1CF0ED11CF60192
:1013D00090E080E0360140E28217930724F4DC01BC
:1013E000AB5EBE4F4C91419301968830910599F7C1
:1013F00027EE34E0F90101900020E9F79F01285E13
:101400003440CE0101967C01FC0190E080E0270190
:1014100040E28217930724F4DC01A951BB4F4C91A1
:10142000419301968830910599F719866AE58AE01B
:1014300090E00E94900965EA8BE090E00E9490099C
:1014400063E08CE090E00E9490090DE010E0F5016F
:1014500061915F01C8010E9490090F5F1F4F053124
:101460001105A9F7F60161916F01C8010E94900969
:101470000F5F1F4F0D311105A9F7F70161917F0132
:10148000C8010E9490090F5F1F4F06321105A9F78E
:10149000A201B301C4010E940501682F86E290E019
:1014A0000E94900969960FB6F894DEBF0FBECDBFBB
:1014B000DF91CF911F910F91FF90EF90DF90CF9030
:1014C000BF90AF909F908F907F906F905F904F9064
:1014D00008950C94D41A1F920F920FB60F921124F4
:1014E0002F933F938F939F93AF93BF938091D1049A
:1014F0009091D204A091D304B091D4043091D0043F
:1015000023E0230F2D3758F50196A11DB11D20931F
:10151000D0048093D1049093D204A093D304B093C9
:10152000D4048091D5049091D604A091D704B091B1
:10153000D8040196A11DB11D8093D5049093D604C3
:10154000A093D704B093D804BF91AF919F918F918E
:101550003F912F910F900FBE0F901F90189526E886
:10156000230F0296A11DB11DD2CF1F920F920FB66D
:101570000F9211242F933F934F935F936F937F9319
:101580008F939F93AF93BF93CF93EF93FF93C091AC
:10159000E1008091E100837F8093E100C3FF0FC0F1
:1015A0001092E90081E08093EB001092EC0082E35E
:1015B0008093ED001092E60488E08093F000C2FF73
:1015C0001AC00E94290180914503882341F080912F
:1015D0004503815080934503811101C05D9880913E
:1015E000E504882341F08091E50481508093E5046F
:1015F000811101C02898C4FF23C08091E2008E7E33
:1016000081608093E2008091E1008F7E8093E10011
:10161000809146038E7E806180934603FF91EF9117
:10162000CF91BF91AF919F918F917F916F915F917A
:101630004F913F912F910F900FBE0F901F901895D3
:10164000C0FFECCF8091E2008E7E80618093E2004B
:101650008091E1008E7E8093E100809146038E7E32
:101660008160DACF1F920F920FB60F921124CF92A2
:10167000DF92EF92FF920F931F932F933F934F931D
:101680005F936F937F938F939F93AF93BF93EF93EA
:10169000FF93CF93DF93CDB7DEB76C97DEBFCDBF9F
:1016A0001092E9008091E80083FF25C068E0CE0138
:1016B00045960E94220482EF8093E8008D8987FF7F
:1016C00039C09091E80090FFFCCF982F907609F0F8
:1016D00034C19E894F89588D2F89F88C911131C062
:1016E000803861F5809147038093F1001092F100FA
:1016F0008EEF8093E8006C960FB6F894DEBF0FBEB5
:10170000CDBFDF91CF91FF91EF91BF91AF919F91AD
:101710008F917F916F915F914F913F912F911F9189
:101720000F91FF90EF90DF90CF900F900FBE0F9032
:101730001F9018959EEF9093E800C7CF1092F1008C
:10174000D5CF913059F48111D3CF4130510581F675
:10175000809147038D7F80934703CACF933049F42C
:101760008111C6CF4130510519F68091470382603F
:10177000F2CF953041F48091E80080FFFCCF2068E3
:101780002093E300B5CF963009F0A9C00B8D1C8DD6
:1017900022E01092E9001092430310924203F212E9
:1017A0002EC010924103109240030E94F1031F8249
:1017B00099E09983FA8291E09E8390EA98879AEF64
:1017C00099872091420330914303275F3F4F3C8329
:1017D0002B838D831092E9001092430310924203F1
:1017E000109341030093400349E050E0BE016F5F56
:1017F0007F4F80E00E94CB030E94F10379CF1093CA
:101800004103009340030E946F01DC0112960D9189
:101810001C910115110509F451C1D801ED91FC91FC
:101820000480F581E02DBE016B5E7F4FC8010995F4
:10183000009709F03EC1F80100851185EACFF3E079
:10184000FF120EC08F89882309F440C0823061F4F2
:1018500040E86DE080E191E00E949803811148CF5B
:1018600081E28093EB0047CF813029F440E86BE0C0
:1018700084E091E0F1CF833099F70E946F01DC01A1
:101880001296ED90FC908E010F5F1F4F6801E114DE
:10189000F10479F0D701ED91FC910680F781E02DFC
:1018A000B801C7010995080F111DF701E084F18403
:1018B000EECFD8011C92F60101900020E9F7319794
:1018C000BF016C197D0940E0C601C6CF6EEE70E025
:1018D000FB01449150E080E80E94CB0309CF973090
:1018E00009F4BECF983021F481E08093F10000CF5D
:1018F000993009F0FDCE837009F0B2CFE4E3F1E056
:1019000081E031E096E32191222371F08093E90098
:101910003093EB00DF0111972C912093EC00909312
:10192000ED008F5F873079F78EE78093EA001092A1
:10193000EA008F898093E604DBCE8B8D9C8D10921C
:10194000E900109243031092420390934103809365
:101950004003898D811192C08E899D89913A49F405
:10196000813209F07DCF47E050E064E071E080E033
:10197000B3CF913209F074CF833269F48F89988D97
:10198000B0E0A0E08093000190930101A0930201D8
:10199000B0930301ADCE803269F48091E80082FFFC
:1019A000FCCF67E084E091E00E9422048BEF8093FB
:1019B000E8009ECE823209F09BCE8F8980930B0186
:1019C000EEEFFFE7859194918B3F9C4D51F1E0E064
:1019D000F8E08091040190910501A0910601B09179
:1019E0000701803B9440A105B105F1F480910B0102
:1019F00080FD1AC0EE3F8AE0F80789F587E797E790
:101A000091838083809160008093440388E19BE010
:101A10000FB6F894A895809360000FBE9093600075
:101A200067CEEEEFFAE0D5CF808191818737974777
:101A300009F05ECEA8958091600088618093600077
:101A40008091440380936000EE3F2AE0F20789F022
:101A50008091FE0A9091FF0A9183808349CE808114
:101A600091818737980751F29093FF0A8093FE0A7D
:101A7000C5CF1092FF0A1092FE0A3ACE0E946F0163
:101A8000DC0112960D911C910115110509F4E8CEA7
:101A9000D801ED91FC910190F081E02DBE016B5ECB
:101AA0007F4FC8010995811123CEF801008511856A
:101AB000EBCF181619060CF41BCED2CEF1E0FF12B4
:101AC000BECE62EF70E004CFE1EFF4E01382128249
:101AD00088EE93E0A0E0B0E084839583A683B7838B
:101AE00080E591E0918380838FEF9FEF95878487D6
:101AF00061E771E081E495E00C94F108CF93DF9306
:101B0000CDB7DEB7CA54D1090FB6F894DEBF0FBE09
:101B1000CDBF789484B5826084BD84B5816084BD76
:101B200085B5826085BD85B5816085BD80916E007B
:101B3000816080936E0010928100809181008260AC
:101B400080938100809181008160809381008091E9
:101B500080008160809380008091910082608093FA
:101B6000910080919100816080939100809190001C
:101B70008160809390008091C10084608093C10057
:101B80008091C10082608093C1008091C10081601A
:101B90008093C1008091C30081608093C3008091D5
:101BA000C00082608093C0008091C20081608093F9
:101BB000C20080917A00846080937A0080917A00DC
:101BC000826080937A0080917A00816080937A00AD
:101BD00080917A00806880937A001092E6041092D7
:101BE0004703109246038091D70081608093D7000D
:101BF00080EA8093D80089B5806189BD89B582600B
:101C000089BD09B400FEFDCF61E070E080E090E0A6
:101C10000E9418038091D8008F7C80618093D80047
:101C20008091E000807F8093E0008091E1008E7ED3
:101C30008093E1008DE08093E200559A209A5D98B0
:101C400028988FEF9FEF9093FE048093FD0490E01F
:101C500080E00E94690A482F4150550B42305105DF
:101C600008F02CC180931E018AE090E00E94690A6E
:101C7000182F8BE090E00E94690A982F812F8A35F7
:101C8000954A09F424C10E9412060E94A40961E049
:101C900082E10E94FD0161E083E10E94FD0161E0BB
:101CA00084E10E94FD0161E085E10E94FD0160E0A8
:101CB00088E10E94FD0160E080E10E94FD0161E099
:101CC0008EE00E94FD0161E08FE00E94FD0161E075
:101CD00082E00E94FD0161E085E00E94FD0161E07B
:101CE00087E00E94FD0161E083E00E94FD0161E068
:101CF00086E00E94FD016FEF70E083E00E942E02FB
:101D000070E060E086E00E942E0221EC34E06DE499
:101D100074E08DE694E0E1EAF4E041EF58ED1192D1
:101D20001192DC014D935D93CD01DB011D921D925B
:101D3000BD012E173F0799F78FEF809326018093FF
:101D4000250181E090E09093CB048093CA040E9427
:101D50004A03609348037093490380934A03909326
:101D60004B031092C5040E947A050E94FB0681E095
:101D70008093A0040E944A036B017C018091CC04F3
:101D80009091CD04A091CE04B091CF04C816D9068D
:101D9000EA06FB0608F48AC08091CA049091CB043D
:101DA000019709F05DC00E944A0300914803109119
:101DB000490320914A0330914B034B015C01801A87
:101DC000910AA20AB30A80911E0100E110E082305C
:101DD00010F408E010E022E330E0D8010E949E1BDE
:101DE000AB01BC0184169506A606B70608F00CC127
:101DF000C501B40122E330E040E050E00E94531BF3
:101E0000283031050CF0F5C087E090E0821B930B81
:101E100001E001C0000F8A95EAF710E0F2E34F2ECF
:101E2000512C612C712CC501B401A30192010E94B7
:101E3000531B9B01AC01A8ECB0E00E94091BA3015D
:101E400092010E94531B285D109294040093930406
:101E5000109392042093C504109291040E947A0575
:101E60008091CA049091CB04029709F061C18091DE
:101E7000C6049091C704A091C804B091C904A701F9
:101E80009601281B390B4A0B5B0B283BBBE03B0739
:101E90004105510508F427C11092C5040E947A0536
:101EA00083E090E09093CB048093CA0480E090E0BC
:101EB000892B09F45FCF0E9400005CCF81E0809302
:101EC0001E0161E090E080E00E949009CDCE8CE0A0
:101ED00090E00E94690A782E6E0184E1C80ED11C40
:101EE0007E019BE0E90EF11C570146010DE010E078
:101EF000C8010E94690AD4018D934D01C80108965A
:101F00000E94690AF50181935F010F5F1F4F053140
:101F1000110571F71C8E1B8AF3E07F12B4CE8E017F
:101F20000F5F1F4F4801ADE1AA2EB12CC5010E94E1
:101F3000690AD4018D934D01BFEFAB1ABB0AE6E2EB
:101F4000AE16B10499F71A8686E290E00E94690AFB
:101F5000B82EA801B701C6010E940501B81293CEA0
:101F6000A601485F5F4F90E080E0D6012D916D01A2
:101F7000322F3F7D29F0FC01E45FFE4F2083019664
:101F8000C416D50691F7845F9E4FFC011082A7010D
:101F9000485F5F4F90E080E0D7012D917D01322FA7
:101FA0003F7D29F0FC01EB5EFE4F208301964E152C
:101FB0005F0591F78B5E9E4FFC011082A801485F80
:101FC0005F4F90E080E0D8012D918D01322F3F7D51
:101FD00029F0FC01E951FB4F2083019604171507F6
:101FE00091F7FC01E951FB4F1082892B09F04FCE8C
:101FF0004ACE8FE090E0821B930B11E001C0110FDD
:102000008A95EAF700E00ACFDC01CA01880F991F20
:10201000AA1FBB1F88169906AA06BB0608F041C076
:10202000841A950AA60AB70A01501109C501B4011C
:1020300022E330E040E050E00E94531B021B130BF0
:10204000083011051CF587E090E0801B910B01E042
:1020500001C0000F8A95EAF710E052E3452E512C9B
:10206000612C712CC501B401A30192010E94531B84
:102070009B01AC01A8ECB0E00E94091BA3019201F6
:102080000E94531B80EF821B282FDECE8FE090E052
:10209000801B910B11E001C0110F8A95EAF700E057
:1020A000DCCFAC01BD0148585F4F6F4F7F4F28EC2C
:1020B0001FEF0FEF84169506A606B70608F4C4CEE8
:1020C00080519F4FAF4FBF4F88169906AA06BB0697
:1020D00030F083E090E09093CB048093CA0420E03A
:1020E00010E000E0B1CE2C3DE5E03E074105510592
:1020F00078F4AFEFB0E00E94091B2CED35E040E032
:1021000050E00E94531B2093C5040E947A05CECE56
:102110002C5D354041095109AFEFB0E00E94091B29
:102120002CED35E040E050E00E94531B2095EBCFB2
:1021300081EF94E00E941905892B09F41FC681EFF5
:1021400094E00E94D7048D3099F38A3009F48BE330
:1021500089831A8241E050E0BE016F5F7F4F81E4C6
:1021600095E00E9492086BE381E495E00E942B07C2
:102170008C0197FDDDCF9C0150E040E061E475E00B
:10218000CE018F5B9F4F0E940209CE018F5B9F4F54
:102190000E944F072091450530914605A8014F5FE9
:1021A0005F4F61E475E0CE0101960E940209BE0115
:1021B0006F5F7F4F81E495E00E941708CE01019682
:1021C0000E94620827968EAD9FAD2797892B09F450
:1021D0004DC01CAE1BAE1EAE1DAE21961FAE1EAE78
:1021E0002197BE016F5B7F4FCE01CB960E94DA082C
:1021F000CE01CB960E94AC0763EA71E0CE01CB968C
:102200000E94FA07811108C067EA71E0CE01CB96FF
:102210000E94FA07882381F10E94FB068091CA047C
:102220009091CB04039781F482E090E09093CB04EB
:102230008093CA040E944A036093C6047093C70443
:102240008093C8049093C9040E944A0368537F4F47
:102250008F4F9F4F6093CC047093CD048093CE0436
:102260009093CF04CE01CB960E946208CE018F5B83
:102270009F4F0E94620877CF6FEA71E0CE01CB9644
:102280000E94FA07882389F089E192E00E94E6061D
:1022900060911E0170E090E080E04AE00E948106BB
:1022A00082E392E00E94ED06DDCF65EB71E0CE01A6
:1022B000CB960E94FA07882321F081E08093A00446
:1022C000D1CF6AE3CE018F5B9F4F0E942B0797FD12
:1022D000C9CF1EAA1DAA18AE1FAA1AAE19AEBE01FA
:1022E0006F5B7F4FCE01C5960E94DA0841E050E057
:1022F00062E372E0CE01C5960E949208811104C08B
:10230000CE01C5960E945008312C212C89AD9AAD82
:102310002816390608F02DC5ADA8BEA86BE370E0FD
:10232000C501820D931D0E94BF1D009709F421C5B0
:102330008C010A191B0917FD1CC59801A101BE01DA
:102340006B5C7F4FCE018F960E9402091801FFEF50
:102350002F1A3F0ACE018F960E944F078BA99CA986
:10236000892B09F44BC06AE3CE018F960E942B079C
:102370008C0197FF85C063EA71E0CE0101960E944F
:10238000F108BE016F5F7F4FCE018F960E94C2079A
:1023900011E0811115C067EA71E0CE010B960E9431
:1023A000F108BE01655F7F4FCE018F960E94C20784
:1023B00011E0811101C010E0CE010B960E9462086D
:1023C000CE0101960E9462081123E9F00E94FB06EB
:1023D0008091CA049091CB04039781F482E090E04D
:1023E0009093CB048093CA040E944A036093C6046E
:1023F0007093C7048093C8049093C904CE018F964C
:102400000E94620883CF6FEA71E0CE0101960E94BC
:10241000F108BE016F5F7F4FCE018F960E94C20709
:10242000182FCE0101960E946208112389F089E1DC
:1024300092E00E94E60660911E0170E090E080E06C
:102440004AE00E94810682E392E00E94ED06D6CF28
:1024500065EB71E0CE0101960E94F108BE016F5F4D
:102460007F4FCE018F960E94C207182FCE01019692
:102470000E946208112311F221E02093A004BECF34
:102480009C0150E040E0BE01615D7F4FCE01899626
:102490000E9402092BA93CA9A8014F5F5F4FBE0112
:1024A000615D7F4FCE0183960E940209CE0189961D
:1024B0000E944F07CE0183960E944F0769EB71E09F
:1024C000CE0101960E94F108BE016F5F7F4FCE01E1
:1024D00089960E94C207182FCE0101960E946208B9
:1024E0001123F9F080911E011FE7813009F01FE3ED
:1024F000CE0183960E94330520919A0430919B046B
:10250000232B31F410958123809394040E947A0543
:10251000CE0183960E946208CE0189960E946208CD
:102520006DCF6EEB71E0CE0101960E94F108BE0105
:102530006F5F7F4FCE0189960E94C207182FCE0190
:1025400001960E946208112369F0CE0183960E94D1
:10255000330520919A0430919B04232BC9F6809374
:102560009304D4CF63EC71E0CE0101960E94F10890
:10257000BE016F5F7F4FCE0189960E94C207182F60
:10258000CE0101960E946208112371F0CE0183965C
:102590000E94330520919A0430919B04232B09F06B
:1025A000B7CF80939204B2CF60ED71E0CE01019677
:1025B0000E94F108BE016F5F7F4FCE0189960E9495
:1025C000C207182FCE0101960E9462081123D1F094
:1025D000CE0183960E94440797FD10C06F3F71059E
:1025E0008105910509F064F480919A0490919B040F
:1025F000892B09F08DCF6093C50488CF60E0F4CFBC
:102600006FEFF2CF68EC71E0CE0101960E94F10805
:10261000BE016F5F7F4FCE0189960E94C207182FBF
:10262000CE0101960E9462081123D1F0CE0183965B
:102630000E94440797FD10C06F3F71058105910509
:1026400009F064F480919A0490919B04892B09F01D
:102650005FCF609391045ACF60E0F4CF6FEFF2CF79
:102660006BEC71E0CE0101960E94F108BE016F5F34
:102670007F4FCE0189960E94C207182FCE01019686
:102680000E946208111144CF63ED71E0CE01019602
:102690000E94F108BE016F5F7F4FCE0189960E94B4
:1026A000C207182FCE0101960E9462081123C9F0BB
:1026B000CE0183960E9444071616170618061906BF
:1026C00054F4653671058105910544F47093240135
:1026D000609323011DCF61E070E0F8CF64E670E005
:1026E000F5CF6BED71E0CE0101960E94F108BE01BD
:1026F0006F5F7F4FCE0189960E94C207182FCE01CF
:1027000001960E9462081123C9F0CE0183960E94AF
:102710004407161617061806190654F46930710591
:102720008105910544F47093220160932101F0CE5C
:1027300061E070E0F8CF68E070E0F5CF63EE71E043
:10274000CE0101960E94F108BE016F5F7F4FCE015E
:1027500089960E94C207182FCE0101960E94620836
:102760001123D1F0CE0183960E9444076233710594
:10277000810591055CF0693E33E0730781059105A1
:1027800044F47093200160931F01C2CE62E370E0B5
:10279000F8CF68EE73E0F5CF6BEE71E0CE010196F5
:1027A0000E94F108BE016F5F7F4FCE0189960E94A3
:1027B000C207182FCE0101960E946208112309F466
:1027C0006BC06CE2CE0183960E942B078C01181619
:1027D00019060CF05CC09C0150E040E0BE016D5D4C
:1027E0007F4FCE010B960E9402092FA138A5A801A8
:1027F0004F5F5F4FBE016D5D7F4FCE0101960E941E
:102800000209CE010B960E944F07CE0101960E944D
:102810004F07CE010B960E9444074B0164EF71E015
:10282000CE0101960E94FA07882321F0C401019786
:10283000029768F08FEF91E00E94ED06CE010196BD
:102840000E946208CE010B960E94620861CE482D5C
:102850004150550B4230510538F480921E01682DCD
:1028600090E080E00E9490098DE092E00E94E606F0
:1028700060911E0170E090E080E04AE00E948106D5
:1028800082E392E00E94ED060E947A05D7CF8FEF97
:1028900091E00E94ED063CCE65EB71E0CE01019621
:1028A0000E94F108BE016F5F7F4FCE0189960E94A2
:1028B000C207182FCE0101960E946208112321F051
:1028C00051E05093A00424CE63EA71E0CE0101965A
:1028D0000E94F108BE016F5F7F4FCE0189960E9472
:1028E000C207182FCE0101960E946208112319F029
:1028F0000E94FB060DCE6BEF71E0CE0101960E94A7
:10290000F108BE016F5F7F4FCE0189960E94C2071A
:1029100011E0811120C060E272E0CE010B960E94AE
:10292000F1084F8558898DA59EA58417950770F0ED
:1029300089A59AA5009751F06B857C856115710575
:1029400029F00E94DA1D11E0892B09F010E0CE0178
:102950000B960E946208CE0101960E946208112324
:1029600009F4D6CD61E771E0CE014D960E94F108E1
:102970006BEF71E0CE0101960E94F108BE016F5F1E
:102980007F4FCE0189960E94C207182FCE01019673
:102990000E946208112309F44AC0BE016D5D7F4F99
:1029A000CE014D960E94DA08CE014D960E944F0747
:1029B0006AE3CE014D960E942B078C0197FD54C00F
:1029C0009C0150E040E0BE01635E7F4FCE01449623
:1029D0000E94020929A13AA1A8014F5F5F4FBE01E1
:1029E000635E7F4FCE010B960E940209CE01449692
:1029F0000E94AC07CE010B960E944F0765E272E081
:102A0000CE0144960E94FA07882309F444C06FE37C
:102A100071E0CE010B960E94FA078823C9F181E08C
:102A200080934C0389E292E00E94ED06D5C060E2FB
:102A3000CE018F960E942B072BA93CA9AC014F5FBA
:102A40005F4FBE01615D7F4FCE0101960E9402097A
:102A5000BE016F5F7F4FCE014D960E941708CE01D9
:102A600001960E946208A0CF1D8A1C8A1F8A1E8AB6
:102A7000198E188EBE01635E7F4FCE0144960E9470
:102A8000DA0861E771E0CE010B960E94F108AECF43
:102A900084E392E0C9CF63E472E0CE0144960E94E1
:102AA000FA07882321F080914C03811139C066E434
:102AB00072E0CE0144960E94FA0781119BC060E843
:102AC00072E0CE0144960E94FA078111CCC065E9FC
:102AD00072E0CE0144960E94FA07811110C163ECA6
:102AE00072E0CE0144960E94FA07882321F080917B
:102AF0004C03811109C167EC72E0CE0144960E943B
:102B0000FA07882309F468C080914C03882309F4EC
:102B10002DC10E94A40910924C038FEE92E084CF45
:102B20006EE2CE010B960E942B078C011816190637
:102B300034F48F85988901970817190718F08BE4EA
:102B400092E072CF980150E040E0BE01655F7F4F98
:102B5000CE0101960E940209CE0101960E9444070F
:102B60004B01CE0101960E9462082F853889A80189
:102B70004F5F5F4FBE01655F7F4FCE0101960E94A0
:102B80000209CE0101960E9444072B01CE01019655
:102B90000E946208C4010197099748F59AE0491616
:102BA000510428F55F924F929F928F92ABE5B2E06D
:102BB000BF93AF931F9289E08F9325E131E03F935C
:102BC0002F930E94F71D85E692E00E94ED060FB656
:102BD000F894DEBF0FBECDBFCE010B960E946208F7
:102BE000CE0144960E946208CE014D962DCE81E71B
:102BF00092E01ACF80914C03882309F460CF0F85AF
:102C00001889C80103970697B8F46DE2CE010B96B8
:102C10000E942B07019781F470E060E0CE010B96D3
:102C20000E945803082E000C990B0E949E1D42E042
:102C3000A42EB12C892B19F483E892E0F5CEA016CE
:102C4000B10609F4B4C3B501CE010B960E94580336
:102C5000082E000C990B0E949E1D892B69F39FEF93
:102C6000A91AB90AECCFB0904C03BB2009F42FCFBE
:102C70008F8598890897F1F510E000E0B801CE0142
:102C80000B960E94580390ED980F9A30B0F18F7D0B
:102C9000815491E0863008F090E00F5F1F4F0830BC
:102CA000110531F5992331F1CE010B960E94AC0745
:102CB00007EE14E0B12CA12CB501CE010B960E94B9
:102CC0005803D8018D938D01BFEFAB1ABB0AE8E022
:102CD000AE16B10489F71092EF048AE992E00E94DF
:102CE000E6068AE391E00E94E60687EE94E09CCE39
:102CF0009111C4CF85EA92E097CE9B2DCECF109252
:102D00004C0385EB92E090CE6DEC72E0CE01019623
:102D10000E94F108BE016F5F7F4FCE010B960E94AB
:102D2000C207182FCE0101960E9462081123D9F024
:102D30000E94A40910924C0381ED92E00E94ED06DE
:102D40000E94290162E370E080E090E00E94180395
:102D500088E198E00FB6F894A895809360000FBEC4
:102D600090936000FFCF8EED92E05ECE8AEF92E00E
:102D70005BCECE01C5960E94620874CA8091C104E0
:102D80009091C204A091C304B091C404A70196011C
:102D9000281B390B4A0B5B0BDA01C9010A97A10505
:102DA000B10508F483C8C092C104D092C204E09275
:102DB000C304F092C4049DE4A92E93E0B92E2DE43F
:102DC000422E24E0522E31EA232E34E0332E10E03E
:102DD00000E084E4682E81E0782E912C812CD301D0
:102DE0008C91B2E06B0E711CB801082C02C0759575
:102DF00067950A94E2F761700E94CF01EFEF8E1A97
:102E00009E0AF4E08F16910451F780911F01909172
:102E100020018230910538F0880F991F880F991F83
:102E200005970197F1F788E10E94D10297FD3BC019
:102E300088E10E94D10281159440C4F588E10E9486
:102E4000D102D2014D915D912D01F80173E0EE0F99
:102E5000FF1F7A95E1F7E40FF51FEE0FFF1FE35B0D
:102E6000FC4F918380832091210130912201F20156
:102E70003297CA010196B9010E94841B9183808315
:102E800050E040E090E080E04217530794F4FA01EC
:102E9000EE0FFF1FEA0DFB1D60817181860F971FEA
:102EA0004F5F5F4FF1CF90E080E0CBCF8FEF93E0AB
:102EB000C8CFB9010E94841BF101619371931F0176
:102EC0000F5F1F4FF0E1AF0EB11C0031110509F08B
:102ED00080CF60E08FE00E94CF010BE410E0C801DA
:102EE0000197F1F761E08FE00E94CF01C8010197DF
:102EF000F1F70E94C205B82E0E94C205B094B092AC
:102F0000280180958093270160E08FE00E94CF0127
:102F1000C8010197F1F761E08FE00E94CF01C8017D
:102F20000197F1F700E110E09FE0A92EB12C60E0DD
:102F30008EE00E94CF01C5010197F1F761E08EE0BC
:102F40000E94CF01C5010197F1F70150110979F7EE
:102F50008091A004882309F49DC00E944A032B019C
:102F60003C012DE634E029963FAF2EAF299781EA48
:102F7000282E84E0382E812C912C54018E010F5F75
:102F80001F4F89E093E00E94E6064AE0C501B401C4
:102F90000E94810685E193E00E94E606D1018D91B1
:102FA0009C918115B4E09B0714F08FEF93E097FF9D
:102FB00002C090E080E09F938F93EDE0F3E0FF93F9
:102FC000EF931F930F930E94271EB801CE010B961B
:102FD0000E94F108CE010B960E94B404CE010B961C
:102FE0000E94620882E392E00E94E606D1018D9180
:102FF0009D911D012996EEADFFAD29978193919387
:103000002996FFAFEEAF2997FFEF8F1A9F0AAF0AFD
:10301000BF0A0F900F900F900F900F900F9020E12C
:1030200082169104A104B10409F0ABCF82E193E0D0
:103030000E94E60660912801C8010E945709C80154
:103040000E94B404C8010E94620887E193E00E94D4
:10305000E60660912701C8010E945709C8010E9435
:10306000B4048FE691E00E947406C8010E946208D1
:10307000809128018093260180912701809325016A
:1030800040928D0450928E0460928F04709290044E
:103090001092A0049091280180912601981307C0F6
:1030A0009091270180912501981709F46BC08091B8
:1030B0009C0490919D04A0919E04B0919F04A7014F
:1030C0009601281B390B4A0B5B0BDA01C9010C97DF
:1030D000A105B10508F456C040908D0450908E04AF
:1030E00060908F0470909004C0929C04D0929D04D4
:1030F000E0929E04F0929F040E944A034B015C01FF
:10310000DC01CB0184199509A609B7090A97A10525
:10311000B105C0F182E193E00E94E60660912801CA
:10312000CE0101960E945709CE0101960E94B40477
:10313000CE0101960E94620887E193E00E94E606B4
:1031400060912701CE0101960E945709CE01019698
:103150000E94B4048FE691E00E947406CE010196AD
:103160000E94620880928D0490928E04A0928F0437
:10317000B0929004809128018093260180912701CC
:10318000809325010E944A032B013C0180918D040C
:1031900090918E04A0918F04B0919004A3019201AC
:1031A000281B390B4A0B5B0BDA01C9010A97A105F1
:1031B000B10508F499C04DE654E029965FAF4EAFD3
:1031C000299781EA94E02B969FAF8EAF2B97812CA5
:1031D000912C540120E0DE0111961D012B96EEADDD
:1031E000FFAD2B97019111912B96FFAFEEAF2B976F
:1031F0002996AEADBFAD29978D919D912996BFAF10
:10320000AEAF2997F801E81BF90BCF01F7FF03C018
:103210009195819591094091230150912401841742
:1032200095070CF447C089E093E00E94E6064AE067
:10323000C501B4010E94810685E193E00E94E60683
:103240000115F4E01F0714F00FEF13E017FF02C0A1
:1032500010E000E01F930F932DE033E03F932F9396
:103260003F922F920E94271EB101CE010B960E9421
:10327000F108CE010B960E94B404CE010B960E9479
:10328000620882E392E00E94E6062B96EEADFFAD67
:103290002B973297808191812996EEADFFAD2997CA
:1032A0003297918380830F900F900F900F900F9023
:1032B0000F9021E05FEF851A950AA50AB50A80E113
:1032C00088169104A104B10409F088CF222361F08B
:1032D0008FE691E00E94740640928D0450928E0415
:1032E00060928F047092900480912801813461F57E
:1032F00080912701883041F580919A0490919B0438
:10330000892B11F581E090E090939B0480939A04BF
:10331000C0929604D0929704E0929804F092990497
:10332000809395048DE193E00E94ED068FEF8093EA
:103330009404809393048093920488EC8093C50452
:10334000809391040E947A0580919A0490919B0445
:10335000019711F00C94560F809196049091970468
:10336000A0919804B0919904C81AD90AEA0AFB0AF4
:1033700098E9C9169AE3D906E104F10410F40C9413
:10338000560F10929B0410929A041092950488E2B2
:1033900093E00E94ED061092940410929304109210
:1033A00092041092C504109291040C9485106B85C0
:1033B0007C8548E050E08CE091E00E94E81D10928E
:1033C000140181E393E030CB81E495E00C94620832
:1033D0008F929F92AF92BF92CF92DF92EF92FF9225
:1033E000CF93DF93EC01688179818A819B8161159C
:1033F00071058105910521F464E279ED8BE597E093
:103400002DE133EF41E050E00E94EA1A49015A01F0
:103410009B01AC01A7EAB1E40E94091B6B017C018E
:10342000ACEEB4EFA50194010E94171BC60ED71E87
:10343000E81EF91EF7FE06C081E0C81AD108E108AF
:1034400080E8F80AC882D982EA82FB82C701B60105
:103450009F77DF91CF91FF90EF90DF90CF90BF905B
:10346000AF909F908F9008958F929F92AF92BF924E
:10347000CF92DF92EF92FF926091290170912A0121
:1034800080912B0190912C016115710581059105A9
:1034900021F464E279ED8BE597E02DE133EF41E033
:1034A00050E00E94EA1A49015A019B01AC01A7EAC7
:1034B000B1E40E94091B6B017C01ACEEB4EFA501E5
:1034C00094010E94171BC60ED71EE81EF91EF7FEB8
:1034D00006C081E0C81AD108E10880E8F80AC09265
:1034E0002901D0922A01E0922B01F0922C01C70110
:1034F000B6019F77FF90EF90DF90CF90BF90AF9095
:103500009F908F9008956093290170932A01809372
:103510002B0190932C0108951F93FC019927882774
:10352000BC01E89411911032E9F3193010F01E300B
:10353000C8F31B3251F01D3249F4689406C00E9452
:10354000B31A610F711D811D911D119110531A3015
:10355000B0F33EF490958095709561957F4F8F4FB5
:103560009F4F1F910895592F482F372F262F660FF1
:10357000771F881F991F660F771F881F991F620F7B
:10358000731F841F951F660F771F881F991F08954B
:1035900091110C94D11A803219F089508550C8F7D6
:1035A0000895992788270895F999FECF92BD81BD86
:1035B000F89A992780B50895262FF999FECF1FBA5A
:1035C00092BD81BD20BD0FB6F894FA9AF99A0FBE4C
:1035D00001960895052E97FB1EF400940E94011B8E
:1035E00057FD07D00E94531B07FC03D04EF40C94E8
:1035F000011B50954095309521953F4F4F4F5F4FA0
:10360000089590958095709561957F4F8F4F9F4F4E
:1036100008950E94751BA59F900DB49F900DA49FC7
:10362000800D911D11240895B7FF0C94091B0E9471
:10363000091B821B930B08952F923F924F925F922A
:103640006F927F928F929F92AF92BF92CF92DF92B2
:10365000EF92FF920F931F93CF93DF93CDB7DEB717
:10366000CA1BDB0B0FB6F894DEBF0FBECDBF0994AB
:103670002A88398848885F846E847D848C849B8402
:10368000AA84B984C884DF80EE80FD800C811B8110
:10369000AA81B981CE0FD11D0FB6F894DEBF0FBE3F
:1036A000CDBFED010895A1E21A2EAA1BBB1BFD019F
:1036B0000DC0AA1FBB1FEE1FFF1FA217B307E40711
:1036C000F50720F0A21BB30BE40BF50B661F771F69
:1036D000881F991F1A9469F7609570958095909549
:1036E0009B01AC01BD01CF010895A29FB001B39F22
:1036F000C001A39F700D811D1124911DB29F700DFB
:10370000811D1124911D089597FB072E16F4009436
:1037100007D077FD09D00E94A51B07FC05D03EF419
:10372000909581959F4F0895709561957F4F08956D
:10373000EE0FFF1F0590F491E02D09940E94751B78
:10374000B7FF0895821B930B0895AA1BBB1B51E181
:1037500007C0AA1FBB1FA617B70710F0A61BB70B01
:10376000881F991F5A95A9F780959095BC01CD01A6
:1037700008950F931F93CF93DF938230910510F438
:1037800082E090E0E0914905F0914A0530E020E0C8
:10379000B0E0A0E0309799F42115310509F44AC052
:1037A000281B390B24303105D8F58A819B8161159E
:1037B000710589F1FB0193838283FE0111C0408171
:1037C00051810281138148175907E0F048175907C2
:1037D00099F4109761F012960C93129713961C931C
:1037E0003296CF01DF91CF911F910F9108950093F1
:1037F000490510934A05F4CF2115310551F04217C0
:10380000530738F0A901DB019A01BD01DF01F8017E
:10381000C1CFEF01F9CF90934A0580934905CDCFF1
:10382000FE01E20FF31F81939193225031093983F6
:103830002883D7CF2091470530914805232B41F4A9
:1038400020912F0130913001309348052093470596
:1038500020912D0130912E012115310541F42DB714
:103860003EB74091310150913201241B350BE0915C
:103870004705F0914805E217F307A0F42E1B3F0B14
:103880002817390778F0AC014E5F5F4F24173507D2
:1038900048F04E0F5F1F50934805409347058193B2
:1038A00091939FCFF0E0E0E09CCFCF93DF93009720
:1038B000E9F0FC01329713821282A0914905B09180
:1038C0004A05ED0130E020E01097A1F4208131811C
:1038D000820F931F2091470530914805281739071B
:1038E00009F061C0F0934805E0934705DF91CF915F
:1038F0000895EA01CE17DF07E8F54A815B819E0152
:1039000041155105B1F7E901FB83EA8349915991CA
:10391000C40FD51FEC17FD0761F4808191810296D9
:10392000840F951FE90199838883828193819B830A
:103930008A83F0E0E0E012968D919C9113970097B6
:10394000B9F52D913C911197CD010296820F931FED
:1039500020914705309148052817390739F63097E7
:1039600051F510924A0510924905B0934805A0936D
:103970004705BCCFD383C28340815181840F951FFB
:10398000C817D90761F44E5F5F4F88819981480F4E
:10399000591F518340838A819B81938382832115A0
:1039A000310509F0B0CFF0934A05E09349059ECF69
:1039B000FD01DC01C0CF13821282D7CFB0E0A0E0BE
:1039C000E4EEFCE10C941E1B8C01009751F4CB013A
:1039D0000E94B91B8C01C801CDB7DEB7E0E10C94A1
:1039E0003A1BFC01E60FF71F9C0122503109E21738
:1039F000F30708F49DC0D901CD91DC911197C6174A
:103A0000D70798F0C530D10530F3CE01049786175B
:103A1000970708F3C61BD70B2297C193D1936D93D9
:103A20007C93CF010E94551CD6CF5B01AC1ABD0A16
:103A30004C018C0E9D1EA0914905B0914A05512C58
:103A4000412CF12CE12C109731F580914705909194
:103A500048058815990509F05CC04616570608F018
:103A600058C080912D0190912E01009741F48DB79F
:103A70009EB74091310150913201841B950BE8179C
:103A8000F90708F055C0F0934805E0934705F901A0
:103A900071836083A0CF8D919C91119712966C9049
:103AA000129713967C901397A815B90559F56C01D8
:103AB00042E0C40ED11CCA14DB0420F1AC014A1947
:103AC0005B09DA011296159780F062827382518346
:103AD0004083D9016D937C93E114F10471F0D70117
:103AE0001396FC93EE93129776CF22968C0F9D1F20
:103AF000F90191838083F301EFCFF0934A05E093BE
:103B0000490569CF4816590608F42C017D01D301F7
:103B10009ACFCB010E94B91B7C01009749F0AE01FE
:103B2000B8010E94B61DC8010E94551C870153CFE1
:103B300010E000E050CF85FD0C94D11A8062911105
:103B40000C94D11A81568A51D8F70895911108958D
:103B500081548A5108F4805E855A08959111089520
:103B600081568A5108F4805285580895FB01DC0182
:103B700002C001900D9241505040D8F70895FC01C9
:103B80008191861721F08823D9F7992708953197D5
:103B9000CF010895FB01DC018D9101908019011086
:103BA000D9F3990B0895FB01DC0101900D920020DF
:103BB000E1F70895FB01DC014150504030F08D9158
:103BC0000190801919F40020B9F7881B990B08950A
:103BD000FB01DC014150504048F001900D92002063
:103BE000C9F701C01D9241505040E0F70895AEE082
:103BF000B0E0EDEFFDE10C942A1B0D891E898F8941
:103C0000988D26E02C831A83098397FF02C080E0F9
:103C100090E801979E838D83AE01455E5F4F698D6D
:103C20007A8DCE0101960E944A1E4D815E8157FD1C
:103C30000AC02F813885421753070CF49A01020FEE
:103C4000131FF80110822E96E4E00C94461BAEE0A0
:103C5000B0E0EDE2FEE10C942A1B0D891E8986E09E
:103C60008C831A8309838FEF9FE79E838D83AE0138
:103C7000475E5F4F6F89788DCE0101960E944A1E84
:103C80002F813885020F131FF80110822E96E4E071
:103C90000C94461BABE0B0E0E0E5FEE10C941C1B8D
:103CA0007C013B018A01FC0117821682838181FF1E
:103CB000C8C1CE0101965C01F7019381F30193FD28
:103CC000859193FF81913F01882309F453C1853287
:103CD00039F493FD859193FF81913F01853229F459
:103CE000B70190E00E943A20E7CF912C212C312C93
:103CF000FFE1F31538F08B3211F190F4803209F1C5
:103D0000833229F137FC3CC020ED280F2A3050F5D2
:103D100036FE20C08AE0989E200D1124922E06C007
:103D20008D3291F0803371F7689430F8F30193FD90
:103D3000859193FF81913F018111DACF21C0689471
:103D400031F8689432F8F2CF689433F8EFCF689482
:103D500034F8ECCFEAE02E9E200D1124222E689438
:103D600035F8E4CF8E3229F436FC04C1689436F875
:103D7000DDCF8C3619F4689437F8D8CF8836B1F295
:103D8000982F9F7D95549330E0F08336A1F18337CF
:103D9000C1F1833509F063C02801F2E04F0E511CD8
:103DA000F801C080D180692D70E036FC02C06FEF51
:103DB0007FEFC6010E9424204C01689437F88201ED
:103DC0000AC00C5F1F4FFFE3F98388248394912C72
:103DD0006501E89437F833FE2DC0522C811491040C
:103DE00071F5552009F468CFB70180E290E00E9498
:103DF0003A205A94F6CFF801808189830E5F1F4FD5
:103E0000E4CF2801F2E04F0E511CF801C080D180B0
:103E1000692D70E036FC02C06FEF7FEFC6010E9493
:103E20002F204C018201D5CFB70180E290E00E94A3
:103E30003A202A942814190409F0B0F7CECFF601DD
:103E400037FC859137FE81916F01B70190E00E94A8
:103E50003A2051105A94F1E08F1A9108BFCF84365E
:103E600019F0893609F077C0F80137FE6BC0608120
:103E70007181828193810C5F1F4FF32DFF763F2E5E
:103E800097FF09C090958095709561957F4F8F4FF2
:103E90009F4F689437F82AE030E0A5010E946A201D
:103EA000C82ECA188C2C432C36FE0CC0E89440F85F
:103EB000C91440F434FE05C032FC03C0F32DFE7E6D
:103EC0004F2E892C44FE95C0FE01EC0DF11D808122
:103ED000803309F087C0242D297E422E842D8870DE
:103EE000582E43FC95C040FE8FC09C2C821418F4C1
:103EF0002C0C922C981844FE91C0B70180E390E0FE
:103F00000E943A2042FE09C088E790E041FE02C0CC
:103F100088E590E0B7010E943A20C91408F48AC0ED
:103F2000CA94D12C9FEFC91AD90ACA0CDB1CF6011E
:103F300082916F01B70190E00E943A20AC14BD0459
:103F4000B1F74FCF60817181072E000C880B990B60
:103F50000E5F1F4F92CFD32CE894D4F82AE030E0C4
:103F6000853739F1232D297FD22E8F3601F148F480
:103F70008835A9F0F701868197812B96E2E10C94B0
:103F8000381B803749F08837A9F7D4FE02C06894FF
:103F9000D2F820E130E00DC06894D4F8F6CF34FEBA
:103FA00003C0822F8660D82E20E132E002C028E0D4
:103FB00030E0F801D7FE0FC060817181828193816A
:103FC0000C5F1F4FA5010E946A20C82ECA183D2C05
:103FD000E89437F867CF6081718190E080E00E5FF0
:103FE0001F4FF0CF42FC02C0839478CF8394839418
:103FF00075CF842D867809F471CFF6CFB70180E2B2
:1040000090E00E943A2083948214C0F3512C73CF25
:10401000522C5818821408F46ECFF8CF842D86786D
:1040200009F47BCF8BE241FE80E247FC8DE2B701D1
:1040300090E071CFB70180E390E00E943A209A941B
:104040006CCF8FEF9FEF99CFFC01059061507040CE
:104050000110D8F7809590958E0F9F1F0895FC0151
:104060006150704001900110D8F7809590958E0FA7
:104070009F1F08950F931F93CF93DF93182F092F3E
:10408000EB018B8181FD09C01FEF0FEF812F902F76
:10409000DF91CF911F910F91089582FF14C02E815F
:1040A0003F818C819D81281739073CF4E881F98193
:1040B000CF0101969983888310838E819F81019619
:1040C0009F838E83E3CFE885F985812F0995892B1E
:1040D000A1F3DACFFA01AA27283051F1203181F17A
:1040E000E8946F936E7F6E5F7F4F8F4F9F4FAF4F00
:1040F000B1E03ED0B4E03CD0670F781F891F9A1F13
:10410000A11D680F791F8A1F911DA11D6A0F711DC6
:10411000811D911DA11D20D009F468943F912AE0D2
:10412000269F11243019305D3193DEF6CF010895BA
:10413000462F4770405D4193B3E00FD0C9F7F6CFEB
:10414000462F4F70405D4A3318F0495D31FD4052B3
:10415000419302D0A9F7EACFB4E0A6959795879549
:1041600077956795BA95C9F7009761057105089528
:104170009B01AC010A2E06945795479537952795D4
:10418000BA95C9F7620F731F841F951FA01D08956C
:1041900010E0CAEDD0E004C0FE010E94981B2196F9
:0A41A000CB3DD107C9F7F894FFCF1B
:1041AA00FFFFFFFF00E1000000000000442D413343
:1041BA00323000000050434220312E300000012CE2
:1041CA000104000A00FFFFFFFF0100000000004B8E
:1041DA0005800000C180810000004143502D00305D
:1041EA0038313500120013001400150000000000D9
:1041FA00BD042F04D30456031905D704F50430313E
:10420A003233343536373839414243444546000D56
:10421A000A004944454E543A004143502031204354
:10422A0050542C2076322E34204D4151002C2053EC
:10423A004E3A003B53544154453A52554E4E494E1C
:10424A00473B005645520056455253494F4E004887
:10425A005752455600524551004C454431004C4591
:10426A004432004C45443300414E00444953505FA8
:10427A00424C00534D4F5F54485200534D4F5F53C9
:10428A00414D00534D4F5F444C59004857524556D3
:10429A00534554004143502D48572D534554004827
:1042AA00575245565345543A4552523B0048575285
:1042BA0045565345543A4F4B3B48575245563A0098
:1042CA005345542000454E410053455420454E4124
:1042DA003E203B0053455420454E413A4641494C05
:1042EA00203B004657004143494400534554204669
:1042FA00573A464F524D4154203B005043622025C5
:10430A00642E2564005345542046573A4F4B203BB0
:10431A00005345542046573A52414E4745203B00E8
:10432A00534E0053455420414349443A464F524D57
:10433A004154203B00455849540053455420534E9C
:10434A003A4F4B3A0053455420534E3A464F524D3A
:10435A004154203B0053455420455849543A4F4B49
:10436A00203B00575249005752495445005945537A
:10437A0000534554205752493A4F4B203B0053456E
:10438A0054205752493A464F524D4154203B005708
:10439A00524954453A4F4B203B0057524954453AEB
:1043AA004C4F434B4544203B004D55580025303473
:1043BA006400494E313A003B494E323A0044494181
:1043CA0047205354415254004449414720454E44E2
:1043DA000053455420414349443A4F4B203B000087
:00000001FF
