:100000000C94DB000C9403010C9403010C94030189
:100010000C9403010C9403010C9403010C94030150
:100020000C9403010C9403010C943A090C94B70945
:100030000C9403010C9403010C9403010C94030130
:100040000C9403010C9403010C9403010C94030120
:100050000C9403010C9403010C9403010C94F0081C
:100060000C9403010C9403010C9403010C94030100
:100070000C9403010C9403010C9403010C940301F0
:100080000C9403010C9403010C9403010C940301E0
:100090000C9403010C9403010C9403010C940301D0
:1000A0000C9403010C9403010C940301080B00024F
:1000B0000202000009040000010202000005240001
:1000C0001001052401010104240206052406000193
:1000D0000705810310004009040100020A00000026
:1000E00007050202400000070583024000000403E8
:1000F000090412010002EF02014041233680000191
:100100000102030141726475696E6F204C4C43001B
:1001100041726475696E6F204C656F6E6172646FB9
:1001200000070605040100080A0B0C0D0900000079
:1001300000240027002A002D0030000000000025C8
:100140000028002B002E00310000000000230026B4
:100150000029002C002F00040404040403040502F9
:100160000202020403020202020606060606060452
:10017000040202020404040802011040804010201E
:10018000408040800802040180402010020110805D
:1001900010204040200000000200090F000003046E
:1001A00001000C0000000000000000000000000042
:1001B00000000000451411241FBECFEFDAE0DEBFBF
:1001C000CDBF14E0A0E0B1E0E0E6F1E302C00590AD
:1001D0000D92A637B107D9F725E0A6E7B4E001C034
:1001E0001D92AF34B207E1F710E0CBEDD0E004C0D0
:1001F0002197FE010E947715CA3DD107C9F70E94D9
:10020000E90B0C94AE180C94000083E08093E90095
:100210008091F200882319F08AE38093E800089522
:10022000FC018091F404882311F13FB7F89482E037
:100230008093E9002091F200822F90E018161906B1
:1002400014F481E090E0882339F0289844E6409344
:10025000F3044091F1004083222339F02091F20011
:10026000211103C02BE62093E8003FBF08958FEFD4
:100270009FEF08952FB7F89483E08093E900909161
:10028000E800892F807295FF04C09091F20080E40D
:10029000891B2FBF08958091EB0481110DC082E06E
:1002A0008093E70484E08093E8041092EA041092BB
:1002B000E90481E08093EB0487EE94E00895815097
:1002C0008F3008F047C0E82FF0E0E759FE4F0C945C
:1002D000771586018A0178017E018201AA01AA01AF
:1002E000AA018D01930197019B01A101AA01A5011A
:1002F000809180008F7780938000089580918000A6
:100300008F7DF9CF80918000877FF5CF84B58F777F
:1003100084BD089584B58F7DFBCF809190008F7749
:10032000809390000895809190008F7DF9CF809107
:100330009000877FF5CF8091C0008F778093C000B9
:1003400008958091C0008F7DF9CF8091C200877F92
:100350008093C2000895CF93DF93282F30E0F901F6
:10036000EB56FE4F8491F901EA58FE4FD491F90102
:10037000E95AFE4FC491CC23A1F081110E945F0184
:10038000EC2FF0E0EE0FFF1FE75BFE4FA591B4915D
:10039000EC91ED2381E090E009F480E0DF91CF91D2
:1003A000089580E090E0FACF1F93CF93DF93282F3A
:1003B00030E0F901EB56FE4F8491F901EA58FE4F07
:1003C000D491F901E95AFE4FC491CC23A9F0162F1C
:1003D00081110E945F01EC2FF0E0EE0FFF1FE55C42
:1003E000FE4FA591B4918FB7F894EC91111108C00C
:1003F000D095DE23DC938FBFDF91CF911F910895BD
:10040000DE2BF8CFCF93DF9390E0FC01EA58FE4F4C
:100410002491895A9E4FFC0184918823C9F090E071
:10042000880F991FFC01E35DFE4FA591B491FC017B
:10043000E55CFE4FC591D49161110DC09FB7F89452
:100440008C91209582238C938881282328839FBFB9
:10045000DF91CF910895623051F49FB7F8943C91A9
:10046000822F809583238C93E8812E2BEFCF8FB73B
:10047000F894EC912E2B2C938FBFEACF8251E82F6A
:10048000F0E0EF5DFE4FE49190917B008E2F880F9E
:10049000880F80729F7D892B80937B00E770E064DA
:1004A000E0937C0080917A00806480937A00809150
:1004B0007A0086FDFCCF80917800909179000895B4
:1004C0003FB7F8948091E3049091E404A091E5048F
:1004D000B091E60426B5A89B05C02F3F19F0019600
:1004E000A11DB11D3FBFBA2FA92F982F8827BC018E
:1004F000CD01620F711D811D911D42E0660F771FB6
:10050000881F991F4A95D1F708958F929F92AF92B5
:10051000BF92CF92DF92EF92FF924B015C010E945B
:1005200060026B017C010E9460026C197D098E09DA
:100530009F09683E734081059105A8F321E0821A66
:100540009108A108B10888EEC80E83E0D81EE11C0E
:10055000F11C81149104A104B10429F7FF90EF90DC
:10056000DF90CF90BF90AF909F908F9008952FB75E
:10057000F8946091DF047091E0048091E10490911F
:10058000E2042FBF0895409178045091790420919E
:1005900076043091770442175307B4F49091E80041
:1005A0009570E1F39091E80092FD19C08093F100FD
:1005B000809178049091790401968F739927892B03
:1005C00019F48EEF8093E80080917804909179047B
:1005D0000196909379048093780481E0089580E0F7
:1005E0000895EF92FF920F931F93CF93DF93F82E0E
:1005F000192FE62E042F81E0860F880F0E94C30278
:1006000083E00E94C302CF2DD12FEC0EFD2EF11CF2
:10061000CE15DF05B9F007FF13C0FE0184910E94DB
:10062000C302182F80E00E94C3028123219681110A
:10063000EFCFDF91CF911F910F91FF90EF90089531
:100640008881EDCF81E0F5CFDF92EF92FF920F939B
:100650001F93CF93DF93D82E8A01EB017B01E40E29
:10066000F51ECE15DF0559F0D7FE12C0FE018491AC
:100670000E94C30221968111F4CF0FEF1FEFC80132
:10068000DF91CF911F910F91FF90EF90DF90089530
:100690008881EECF0F931F93CF93DF931F92CDB737
:1006A000DEB782E0898342E450E06CEA70E080E8E3
:1006B0000E9424030E944B01DC0112960D911C91B3
:1006C0000115110589F0D801ED91FC910280F381AB
:1006D000E02DBE016F5F7F4FC801099597FD04C0F3
:1006E000F80100851185ECCF89810F90DF91CF91C2
:1006F0001F910F910895615030F02091F100FC019D
:1007000020830196F8CF289884E68093F304089517
:100710008F929F92AF92BF92CF92DF92EF92FF9211
:100720000F931F93CF93DF936C017B018A0180911C
:100730000B01882309F45CC08091F404882309F438
:1007400057C080917C0480FF05C08091E0008260EA
:100750008093E000E801B12C8AEFA82E93E0892E67
:100760002AE3922E209711F4BB20D9F10E943A017E
:1007700081110AC0AA94AA20D9F161E070E080E05A
:1007800090E00E948502EECF8C171D0611F00CF050
:100790008C2F9FB7F8948092E9002091E80025FD06
:1007A00002C09FBFDFCF282F30E0C21BD30BF70161
:1007B000815020F041914093F100FACFE20EF31EF8
:1007C000BB2021F09092E800B12CEBCF8091E800A3
:1007D00085FDE7CF9092E800BB24B394209709F3FE
:1007E000F3CF5D9884E680937B04101611063CF0ED
:1007F00081E090E0F6019383828310E000E0C8017D
:10080000DF91CF911F910F91FF90EF90DF90CF90EC
:10081000BF90AF909F908F900895CF93DF931F92DA
:10082000CDB7DEB76983DC01ED91FC910280F381E5
:10083000E02D41E050E0BE016F5F7F4F09950F90C2
:10084000DF91CF9108950C9405010E943A0190E048
:100850000895CF93DF931F92CDB7DEB7FC01848557
:10086000958597FD08C02FEF3FEF358724870F90C0
:10087000DF91CF910895CE0101960E94100101975A
:1008800019F4898190E0F3CF8FEF9FEFF0CF0F93B2
:100890001F93CF93DF931F92CDB7DEB78C01FC017E
:1008A0008485958597FF0BC0CE0101960E941001AB
:1008B000019771F4898190E0F80195878487F801A8
:1008C000848595850F90DF91CF911F910F910895A9
:1008D0008FEF9FEFF1CFFC018485958597FD0BC0CD
:1008E0009FB7F89482E08093E9008091F2009FBF67
:1008F00090E0019608959FB7F89482E08093E90014
:100900008091F2009FBF90E0089590E0FB01685F46
:100910007F4FA1918A0F911D6E177F07D1F7FA01C2
:10092000485F5F4F6191860F911D4E175F07D1F7AA
:10093000F901275F3F4F4191840F911D2E173F070B
:10094000D1F708950E94050162E370E080E090E035
:100950000E94850288E198E00FB6F894A8958093EC
:1009600060000FBE90936000FFCF1092D70482E02A
:100970000E94AB01892B19F481E08093D70487E0B2
:100980000E94AB01892B29F48091D7048260809367
:10099000D7048AE00E94AB01892B29F48091D70407
:1009A00084608093D70480E10E94AB01892B29F4F5
:1009B0008091D70488608093D7048EE00E94AB01B9
:1009C000892B29F48091D70480618093D7048FE02C
:1009D0000E94AB01892B29F48091D7048062809317
:1009E000D70482E10E94AB01892B29F48091D704BE
:1009F00080648093D70483E10E94AB01892B29F4A2
:100A00008091D70480688093D7041092D50484E144
:100A10000E94AB01892B19F481E08093D50485E114
:100A20000E94AB01892B29F48091D50482608093C8
:100A3000D5048AE10E943E029093CF048093CE04B5
:100A40008BE10E943E029093CB048093CA040895E8
:100A5000FC01208101962032D9F341E050E02D3293
:100A600019F4FC014FEF5FEF30E020E0AAE0819144
:100A700090ED980F9A3068F4A29FB001A39F700D7B
:100A80001124082E000C990BC0979C01260F371FCC
:100A9000EECF249FC001259F900D349F900D11240F
:100AA0000895FC01DB019D91BD01992379F021910D
:100AB0008FE9820F8A3108F420528FE9890F8A3139
:100AC00008F49052291771F380E0089581E00895A9
:100AD000DC01FB012D919191222381F0992371F08A
:100AE0008FE9820F8A3108F420528FE9890F8A3109
:100AF00008F49052291771F380E003C081E02913B4
:100B0000FBCF0895FC0127E030E070E0AB01022E3E
:100B100002C0559547950A94E2F740FD08C040E3AE
:100B200041932150310990F7FC011086089541E36B
:100B3000F7CFFC0101900020E9F73197AF01481B86
:100B4000590BBC018FEF94E00C9488038F929F9215
:100B5000AF92BF920F931F93CF93DF93CDB7DEB7C2
:100B6000A1970FB6F894DEBF0FBECDBF19A24230D9
:100B700008F44AE08E010F5D1F4F842E912CB12C9A
:100B8000A12CA50194010E944615E62FB901CA01C6
:100B9000EA30F4F4E05DD801EE938D01232B242B91
:100BA000252B79F790E080E0109719F0CD010E9495
:100BB0009905A1960FB6F894DEBF0FBECDBFDF91A9
:100BC000CF911F910F91BF90AF909F908F900895FC
:100BD000E95CE1CF009711F00C94990590E080E07A
:100BE0000895CF93DF930E949905EC018AE491E088
:100BF0000E9499058C0F9D1FDF91CF9108958DE480
:100C000091E00E94EA0584E591E00E94EA05809166
:100C1000F504882361F082E691E00E94EA0580E411
:100C200091E00E94EA0585EF94E00E94EA0588E6DB
:100C300091E00E94EA0588E791E00E94EA058CE0D5
:100C400091E00E94EA0583EC93E00E94EA058AE4C1
:100C500091E00C949905CF92DF92EF92FF920F935F
:100C60001F93CF93DF93CDB7DEB761970FB6F8949C
:100C7000DEBF0FBECDBF82E10E943E028C0183E148
:100C80000E943E02080F191F84E10E943E02080FD5
:100C9000191F85E10E943E027C010E9460029801BA
:100CA0002E0D3F1D8901330F220B330B600F711F77
:100CB000821F931F611571058105910511F00E9436
:100CC000F51481E1EDE7F1E0DE01119601900D925E
:100CD0008A95E1F705EF14E080E1C82ED12CE12CD4
:100CE000F12C0E94A614A70196010E94141521E080
:100CF00030E02C0F3D1F620F731FFB018081F80154
:100D000081938F01F4E00D3F1F0759F71092FD0406
:100D100061960FB6F894DEBF0FBECDBFDF91CF91C5
:100D20001F910F91FF90EF90DF90CF900895EF9279
:100D3000FF920F931F93CF93DF93CDB7DEB7299721
:100D40000FB6F894DEBF0FBECDBF0E94B504609110
:100D5000D704CE0101960E9482058EE891E00E94A0
:100D6000EA05CE0101960E94EA0583EC93E00E9419
:100D7000EA056091D504CE0101960E94820583E9BF
:100D800091E00E94EA05CE0101960E94EA0583ECFB
:100D900093E00E94EA0588E991E00E94EA05E0906C
:100DA000CE04F090CF04B70190E080E04AE00E94CA
:100DB000A60583EC93E00E94EA058EE991E00E948B
:100DC000EA050091CA041091CB04B80190E080E0DC
:100DD0004AE00E94A60583EC93E00E94EA058AE4BB
:100DE00091E00E949905F092CD04E092CC0410931A
:100DF000C9040093C8040E94B70229960FB6F8945C
:100E0000DEBF0FBECDBFDF91CF911F910F91FF903D
:100E1000EF900895CF93DF93D82F60E084E00E9495
:100E2000D401C8E06D2F661F6627661F86E00E940A
:100E3000D401DD0F61E085E00E94D40160E085E02F
:100E40000E94D401C15071F761E084E0DF91CF913D
:100E50000C94D4011F93CF93DF9380917F040E9461
:100E60000A0710917E04C12FD0E061E083E00E9468
:100E70000202209739F460E083E0DF91CF911F9167
:100E80000C94D401CF3FD10511F461E0F5CFE8E92E
:100E9000F1E0E491E150EF3008F07FC0F0E0ED5A6E
:100EA000F84F0C94771562076A076F077907830775
:100EB000CD07CD07CD078D079707A107AB07B8076B
:100EC000CD07C00784B5806884BD17BDDF91CF9181
:100ED0001F91089584B5806284BD18BDF7CF8091BD
:100EE0008000806880938000D0938900C093880040
:100EF000EDCF80918000806280938000D0938B0042
:100F0000C0938A00E3CF8091800088608093800046
:100F1000D0938D00C0938C00D9CF809190008068D1
:100F200080939000D0939900C0939800CFCF809188
:100F30009000806280939000D0939B00C0939A00B1
:100F4000C5CF80919000886080939000D0939D00E1
:100F5000C0939C00BBCF8091C00080688093C0008C
:100F60008091C0008F7B8093C0001093CF00AECFE4
:100F70008091C00080628093C0001093D000A6CF03
:100F80008091C20088608093C2008091C2008B7FF4
:100F90008093C2001093D20099CFC038D1050CF0D5
:100FA00074CF69CF0C94FE14FF920F931F93CF93CD
:100FB000DF93EC01F62E08811981C8010E94FE140E
:100FC000F81621F06F2DC8010E940615CE01DF91A1
:100FD000CF911F910F91FF9008954F925F926F9262
:100FE0007F928F929F92AF92BF92CF92DF92EF92B9
:100FF000FF920F931F93CF93DF93CDB7DEB76B971D
:101000000FB6F894DEBF0FBECDBF2CE031E0F90182
:1010100001900020E9F79F012D5031405E01FAE078
:10102000AF0EB11CF50190E080E0450140E282176F
:1010300093070CF0CFC0DC01A45FBE4F5C915083DE
:10104000019631968830910591F725E131E0F9015B
:1010500001900020E9F79F01265131406E01F2E135
:10106000CF0ED11CF60190E080E0360140E28217FD
:1010700093070CF0B1C0DC01AB5EBE4F5C915083B6
:10108000019631968830910591F725EF34E0F9010A
:1010900001900020E9F79F01265F3440CE010196C0
:1010A0007C01FC0190E080E0270140E28217930779
:1010B0000CF094C0DC01AB50BB4F5C9150830196A7
:1010C00031968830910591F719861B8E1A8E6AE544
:1010D000CE014A960E94D40781E090E09B8F8A8FD0
:1010E00065EACE014A960E94D40782E090E09B8F89
:1010F0008A8F63E0CE014A960E94D40703E010E095
:10110000F50161915F011B8F0A8FCE014A960E9403
:10111000D4070F5F1F4F0B30110591F7F601619156
:101120006F011B8F0A8FCE014A960E94D4070F5F72
:101130001F4F0331110591F7F70161917F011B8F5B
:101140000A8FCE014A960E94D4070F5F1F4F0C31C1
:10115000110591F79201A301B40183E00E94850477
:101160001B8F0A8F682FCE014A960E94D40784EA0B
:1011700091E00E94EA058CE091E00E94EA0583EB91
:1011800091E00E94EA0585E191E00E94EA0589EB81
:1011900091E00E94EA0580E491E00E94EA0585EF73
:1011A00094E00E94F1056B960FB6F894DEBF0FBE77
:1011B000CDBFDF91CF911F910F91FF90EF90DF9006
:1011C000CF90BF90AF909F908F907F906F905F90E7
:1011D0004F900895408334CF408352CF40836FCFE8
:1011E0001F920F920FB60F9211242F933F938F935C
:1011F0009F93AF93BF938091DF049091E004A091FF
:10120000E104B091E2043091DE0423E0230F2D3796
:1012100058F50196A11DB11D2093DE048093DF04D3
:101220009093E004A093E104B093E2048091E3047E
:101230009091E404A091E504B091E6040196A11D0B
:10124000B11D8093E3049093E404A093E504B0936C
:10125000E604BF91AF919F918F913F912F910F9095
:101260000FBE0F901F90189526E8230F0296A11D20
:10127000B11DD2CF1F920F920FB60F9211242F9350
:101280003F934F935F936F937F938F939F93AF930E
:10129000BF93CF93EF93FF93C091E1008091E10062
:1012A000837F8093E100C3FF0FC01092E90081E0CB
:1012B0008093EB001092EC0082E38093ED0010929B
:1012C000F40488E08093F000C2FF1AC00E94050178
:1012D00080917B04882341F080917B04815080932E
:1012E0007B04811101C05D9A8091F304882341F051
:1012F0008091F30481508093F304811101C0289AF6
:10130000C4FF23C08091E2008E7E81608093E20062
:101310008091E1008F7E8093E10080917C048E7E3D
:10132000806180937C04FF91EF91CF91BF91AF9149
:101330009F918F917F916F915F914F913F912F91ED
:101340000F900FBE0F901F901895C0FFECCF8091AB
:10135000E2008E7E80618093E2008091E1008E7ECB
:101360008093E10080917C048E7E8160DACF1F92B1
:101370000F920FB60F921124CF92DF92EF92FF924D
:101380000F931F932F933F934F935F936F937F938D
:101390008F939F93AF93BF93EF93FF93CF93DF937D
:1013A000CDB7DEB76C97DEBFCDBF1092E90080915C
:1013B000E80083FF25C068E0CE0145960E947B03CC
:1013C00082EF8093E8008D8987FF39C09091E80013
:1013D00090FFFCCF982F907609F034C19E894F89F9
:1013E000588D2F89F88C911131C0803861F580912A
:1013F0007D048093F1001092F1008EEF8093E8005D
:101400006C960FB6F894DEBF0FBECDBFDF91CF91C3
:10141000FF91EF91BF91AF919F918F917F916F91CC
:101420005F914F913F912F911F910F91FF90EF90FE
:10143000DF90CF900F900FBE0F901F9018959EEFEA
:101440009093E800C7CF1092F100D5CF913059F4B6
:101450008111D3CF4130510581F680917D048D7F7C
:1014600080937D04CACF933049F48111C6CF4130B7
:10147000510519F680917D048260F2CF953041F4D8
:101480008091E80080FFFCCF20682093E300B5CF77
:10149000963009F0A9C00B8D1C8D22E01092E90056
:1014A0001092790410927804F2122EC010927704F0
:1014B000109276040E944A031F8299E09983FA826F
:1014C00091E09E8390EA98879AEF9987209178041B
:1014D00030917904275F3F4F3C832B838D8310929B
:1014E000E900109279041092780410937704009325
:1014F000760449E050E0BE016F5F7F4F80E00E94BC
:1015000024030E944A0379CF109377040093760452
:101510000E944B01DC0112960D911C9101151105E1
:1015200009F451C1D801ED91FC910480F581E02DC1
:10153000BE016B5E7F4FC8010995009709F03EC15F
:10154000F80100851185EACFF3E0FF120EC08F8904
:10155000882309F440C0823061F440E860E180E112
:1015600091E00E94F102811148CF81E28093EB006B
:1015700047CF813029F440E86BE084E091E0F1CF7F
:10158000833099F70E944B01DC011296ED90FC909C
:101590008E010F5F1F4F6801E114F10479F0D7014C
:1015A000ED91FC910680F781E02DB801C701099506
:1015B000080F111DF701E084F184EECFD8011C92D1
:1015C000F60101900020E9F73197BF016C197D0900
:1015D00040E0C601C6CF6EEE70E0FB01449150E0E2
:1015E00080E80E94240309CF973009F4BECF9830D9
:1015F00021F481E08093F10000CF993009F0FDCE15
:10160000837009F0B2CFE6E3F1E081E031E096E3E8
:101610002191222371F08093E9003093EB00DF01E8
:1016200011972C912093EC009093ED008F5F873001
:1016300079F78EE78093EA001092EA008F89809311
:10164000F404DBCE8B8D9C8D1092E900109279040E
:10165000109278049093770480937604898D811199
:1016600092C08E899D89913A49F4813209F07DCFEB
:1016700047E050E064E071E080E0B3CF913209F0E0
:1016800074CF833269F48F89988DB0E0A0E08093A5
:10169000000190930101A0930201B0930301ADCE2C
:1016A000803269F48091E80082FFFCCF67E084E03B
:1016B00091E00E947B038BEF8093E8009ECE823204
:1016C00009F09BCE8F8980930B01EEEFFFE78591A8
:1016D00094918B3F9C4D51F1E0E0F8E08091040142
:1016E00090910501A0910601B0910701803B9440C3
:1016F000A105B105F1F480910B0180FD1AC0EE3F08
:101700008AE0F80789F587E797E7918380838091DE
:10171000600080937A0488E19BE00FB6F894A89566
:10172000809360000FBE9093600067CEEEEFFAE00A
:10173000D5CF808191818737974709F05ECEA895F4
:101740008091600088618093600080917A0480932A
:101750006000EE3F2AE0F20789F08091FE0A909146
:10176000FF0A9183808349CE8081918187379807D2
:1017700051F29093FF0A8093FE0AC5CF1092FF0AA0
:101780001092FE0A3ACE0E944B01DC0112960D9196
:101790001C910115110509F4E8CED801ED91FC91D9
:1017A0000190F081E02DBE016B5E7F4FC80109956D
:1017B000811123CEF80100851185EBCF181619068B
:1017C0000CF41BCED2CEF1E0FF12BECE62EF70E081
:1017D00004CFCF93DF93CDB7DEB7C25AD1090FB68E
:1017E000F894DEBF0FBECDBF789484B5826084BD0F
:1017F00084B5816084BD85B5826085BD85B5816015
:1018000085BD80916E00816080936E001092810092
:10181000809181008260809381008091810081604D
:10182000809381008091800081608093800080910E
:1018300091008260809391008091910081608093FB
:101840009100809190008160809390008091C10010
:1018500084608093C1008091C10082608093C10048
:101860008091C10081608093C1008091C30081603C
:101870008093C3008091C00082608093C0008091FB
:10188000C20081608093C20080917A00846080935E
:101890007A0080917A00826080937A0080917A0049
:1018A000816080937A0080917A00806880937A00CA
:1018B0001092F40410927D0410927C048091D70061
:1018C00081608093D70080EA8093D80089B58061D9
:1018D00089BD89B5826089BD09B400FEFDCF61E094
:1018E00070E080E090E00E9485028091D8008F7CBB
:1018F00080618093D8008091E000807F8093E00039
:101900008091E1008E7E8093E1008DE08093E20083
:10191000559A209A0FB6F894A89580916000886136
:1019200080936000109260000FBE8FEF9FEF909346
:101930000C0580930B0562E082E00E94020262E0E7
:1019400087E00E94020262E08AE00E94020262E0F6
:1019500080E10E94020262E08EE00E94020262E0E8
:101960008FE00E94020262E082E10E94020262E0D5
:1019700083E10E94020262E084E10E94020262E0CE
:1019800085E10E94020260E08AE10E94020260E0BA
:101990008BE10E94020261E084E00E94020261E0A9
:1019A00085E00E94020261E086E00E94020261E09E
:1019B00083E00E94020280E00E940A0761E083E067
:1019C0000E94020260E083E00E94D40190E080E087
:1019D0000E94D207182F81E090E00E94D207982F32
:1019E000812F8A35954A09F49BC08EEB91E00E94C5
:1019F000F1050E942B060E94ED0788ED91E00E9400
:101A0000EA0580E491E00E94EA0585EF94E00E94F7
:101A1000F1058DEA92E00E94EA0560911E0170E0F6
:101A200090E080E04AE00E94A6058DEB92E00E94E3
:101A3000EA058CE091E00E94EA0586EC92E00E94C3
:101A4000EA0580E491E00E94EA0585EF94E00E94B7
:101A5000F1058CEC92E00E94EA058CE391E00E9493
:101A6000EA0586ED92E00E94EA0585E191E00E9498
:101A7000F1050E94B70281E090E09093DD0480932D
:101A8000DC048091870481110BC066E970E080E07E
:101A900090E00E9485020E94FF0581E08093870408
:101AA0001E01B1E42B0E311C0E94B7024B015C01F8
:101AB0000091DC041091DD040230110509F0DFC152
:101AC0000E94B702C0908204D0908304E090840406
:101AD000F09085049B01AC012C193D094E095F096A
:101AE000283EE3E03E074105510508F05EC18FEF57
:101AF00080937F0480937E040E942A078091800453
:101B000090918104892B09F07BC18DED92E00E94B8
:101B1000F10581E090E0909381048093800470C18E
:101B200082E090E00E94D207D82E8E010F591F4FFD
:101B3000580193E0E92EF12CC7010E94D207D5018C
:101B40008D935D01BFEFEB1AFB0AEBE0EE16F1049B
:101B500099F75E01F1E4AF0EB11C4501C7010E9487
:101B6000D207D4018D934D01BFEFEB1AFB0AE3E1DD
:101B7000EE16F10499F7D80118961C92F50110861B
:101B8000F2E0FD1508F47AC083E190E00E94D207EC
:101B9000F82E24EE31E0A501B8018D2D0E948504B8
:101BA000F81639F18EEE91E00E94F1050E942B06A5
:101BB0000E94ED0788E092E00E94EA0580E491E04F
:101BC0000E94EA0585EF94E00E94F1058DE192E024
:101BD0000E94EA058CE091E00E94EA0583EB91E027
:101BE0000E94EA0585E191E00E94EA0589EB91E017
:101BF00006CFA801485F5F4F90E080E0D8012D91AB
:101C00008D01322F3F7D29F0FC01E45FFE4F2083E0
:101C100001964017510791F7009721F0845F9E4F7E
:101C2000FC011082A5E1B1E0A50190E080E0FA019D
:101C30003191AF01232F2F7DD9F4FC01EA0DFB1D5B
:101C400021912F7DA9F4BF016A197B0968307105C4
:101C5000BCF3009709F4AACF9C0121503109F90186
:101C6000EB5EFE4F4081403209F0BDC5C901F1CFA6
:101C700001963D9388309105D1F6EBCFF3E0DF1666
:101C800009F18BE292E00E94EA056D2D70E090E090
:101C900080E04AE00E94A60588E492E00E94EA05FE
:101CA0004AE063E070E080E090E00E94A6058AE4EC
:101CB00091E00E9499050E942B060E94ED078BE49B
:101CC00092E09DCE9E012F5F3F4F69014901C70100
:101CD0000E94D207D4018D934D01BFEFEB1AFB0A8E
:101CE000ECE1EE16F10499F71A868CE190E00E947F
:101CF000D207F82E9601A501B80183E00E94850461
:101D0000F81659F084E692E00E94F1050E942B0635
:101D10000E94ED078CE792E072CEA801485F5F4F0A
:101D200090E080E0D8012D918D01322F3F7D29F088
:101D3000FC01E45FFE4F208301960417150791F71D
:101D4000009721F0845F9E4FFC011082A5E1B1E075
:101D5000A50190E080E0FA013191AF01232F2F7DA2
:101D6000D9F4FC01EA0DFB1D21912F7DA9F4BF01DF
:101D70006A197B0968307105BCF3009709F43CC50A
:101D80009C0121503109F901EB5EFE4F4081403248
:101D900009F02EC5C901F1CF01963D938830910518
:101DA000D1F6EBCF8EE992E007CF2838F3E13F0779
:101DB0004105510568F5CA01B901685E73408109A2
:101DC00091092AEF30E040E050E00E94461527706C
:101DD000332781E001C0880F2A95EAF780937F04BA
:101DE0000E942A078091800490918104019741F418
:101DF0008FEE92E00E94F10510938104009380041D
:101E000080E090E0892B09F44FCE0E9400004CCE78
:101E100010927F0428358BE138074105510500F504
:101E2000AFEFB0E00E9433156857744783419109C2
:101E300020ED37E040E050E00E94461520952093C9
:101E40007E040E942A078091800490918104029769
:101E5000B9F68FEF92E00E94F10583E090E05BCE4F
:101E600010927E040E942A0781E090E09093DD04A6
:101E70008093DC048EE093E00E94F105C1CF8FEFE8
:101E800094E00E946B04892B09F433C48FEF94E033
:101E90000E9429048D3099F38A3009F48BE3E8E835
:101EA000F4E001900020E9F7E958F440EF33F10540
:101EB00020F4E857FB4F80831182442443946BE362
:101EC00070E088E894E00E949A150097C1F2DC0166
:101ED0001C92A8E8B4E0AD014F5F5F4F2C91203217
:101EE000A9F07E01E1E8EE0EF11C970170E060E0E0
:101EF000DE2CCF2C4D91442359F06F31710541F008
:101F0000F90141939F016F5F7F4FF4CFDA01E3CF77
:101F1000FB01EE0DFF1D1082EE16FF0619F0229157
:101F20002032C9F3BC016F5F7F4FDB010D900020B1
:101F3000E9F7AD01461B570B88E894E00E9488152D
:101F4000F7018081882309F4BACFFE01EF59FF4FD2
:101F500090E080E08F01D7012D917D01222359F07F
:101F60008F31910541F03FE9320F3A3108F42052A8
:101F700021930196F0CF800F911FFC0110826DE13B
:101F800073E0C8010E94A515892B71F061E273E02E
:101F9000C8010E94A515892B39F069E273E0C801D8
:101FA0000E94A515892B39F40E94FF0540928704F1
:101FB0000E94B70284CF6FE273E0C8010E94A515AA
:101FC000892B39F41092860482E793E00E94F10590
:101FD00076CF64E373E0C8010E94A515892B01F553
:101FE00088E393E00E94EA0560E270E085E191E019
:101FF0000E949A158C01009781F0DC0111968C915A
:10200000882359F08DE393E00E94EA05C801019608
:102010000E94EA0582EC93E0D9CF85E191E0F8CF08
:102020006FE373E0C8010E94A515892B31F485E4A4
:1020300093E00E94F1050E94A20460E573E0C801EC
:102040000E94A515892B19F40E94970638CF64E5E4
:1020500073E0C8010E94A515892BF1F48091DC047E
:102060009091DD04019709F02ACFE2E0F0E0F093CF
:10207000DD04E093DC040E94B70260938204709355
:1020800083048093840490938504109281041092B9
:10209000800489E593E09ACF6AE370E08D2D9C2D52
:1020A0000E949A15892B09F40ACFCF92DF9225E678
:1020B00033E03F932F931F9280E48F9381E090E071
:1020C0008C0F9D1F9F938F930E94BD15DE0111966B
:1020D000CF55DF4FB983A883C15AD0400FB6F894CB
:1020E000DEBF0FBECDBF90E080E0CF55DF4FA881AF
:1020F000B981C15AD0405D90CF55DF4FB983A883D5
:10210000C15AD040BBE35B1609F4A4C3552009F4BF
:10211000B8C38F3191054CF7F101E80FF91F5082D8
:102120000196E3CF7F013701F70181918032D1F32E
:10213000811103C05110D7CFC2CE6AE370E0C7014E
:102140000E949A15009709F07BC06DE173E0C7010A
:102150000E94680581110EC061E273E0C7010E9410
:102160006805811107C069E273E0C7010E94680534
:10217000882319F00E94FF05DDCF60E573E0C701F9
:102180000E946805882319F00E949706D3CF64E562
:1021900073E0C7010E9468058823F9F08091DC0490
:1021A0009091DD04019731F622E030E03093DD04B8
:1021B0002093DC040E94B70260938204709383042E
:1021C000809384049093850410928104109280047B
:1021D00089E593E00E94F105ADCF69E673E0C701A0
:1021E0000E945105882309F4A5CF34E0E30EF11CC9
:1021F00087014FEFE41AF40AD8018C918032C1F3C1
:102200006FE273E0C8010E945105882329F0109203
:1022100086048EE693E0DECF6CE773E0C8010E948F
:102220005105882309F486CF80918604882309F418
:1022300038C20E94ED071092860482E893E0F9CE3E
:10224000DC011D92F70101900020E9F73197EE16AD
:10225000FF0629F08291803211F41082F8CF6701D5
:10226000EFEFEE1AFE0AF60180818032C1F38D0194
:10227000780198012F5F3F4FD8018C91803269F02F
:10228000F80101900020E9F731970E171F0739F088
:102290008291803221F41082F8CF8901E9CF6CE974
:1022A00073E0C6010E9468058823C9F080E0F80148
:1022B00041918F01442371F090ED940F9230B8F763
:1022C000282F30E0220F331F81E0413309F080E0F6
:1022D000822BEDCF80937F040E942A072BCF61EAE7
:1022E00073E0C6010E94680581115BC064EA73E077
:1022F000C6010E946805811154C068EA73E0C601F6
:102300000E946805811116CF60E573E0C6010E9446
:10231000680581110FCF6DE173E0C6010E94680569
:10232000811128CF6EEA73E0C6010E9468058823F8
:1023300009F471C0D7018C91882309F4FBCE870181
:10234000F7018081FFEFEF1AFF0A8032C1F38B3370
:10235000B1F3882309F4EECE6BE370E0C8010E946C
:102360009A157C01009711F0DC011C9262EB73E07E
:10237000C8010E945105882341F1C80103960E94BB
:10238000280597FD1EC084369105ECF480931E014C
:10239000E114F10409F451C2F7012BE321937F0109
:1023A000C9CFC8010E94280597FD07C08F3F91053E
:1023B00009F02CF480937E048FCF80E0FBCF8FEF69
:1023C000F9CF80E0E3CF83E6E1CF68E771E0C801B1
:1023D0000E945105882361F048E050E0B8016C5F2D
:1023E0007F4F8CE091E00E94AE1510921401D0CF87
:1023F00064E671E0C8010E945105882349F248E073
:1024000050E0B8016D5F7F4F85EF94E00E94AE15FC
:102410001092FD04BDCF69E673E0C3010E9451052F
:10242000882309F487CE34E0630E711C73014FEFEB
:10243000641A740AD7018C918032C1F366EB73E0A1
:10244000C7010E945105882379F065E471E0C80155
:102450000E94A515892B29F4409286048AEB93E00B
:10246000B9CE85EC93E0B6CE64ED73E0C7010E946F
:102470005105882321F080918604811159C067EDB0
:1024800073E0C7010E9451058111A5C06FE273E09E
:10249000C7010E9451058111BACE61E374E0C70102
:1024A0000E945105882321F0809186048111E8C0A3
:1024B0006CE773E0C7010E9451058111B5CE67E555
:1024C00074E0C7010E945105882309F433CE80913E
:1024D0008604882309F42ECE98012F5F3F4FF80120
:1024E0008081803209F4E0C0D8010D900020E9F726
:1024F000CD010197801B910B31E08830910509F0E7
:1025000030E0F801AF01401B510B481759070CF0A0
:10251000CDC0332309F4EAC0219140ED420F4A3087
:1025200088F32F7D215431E0263060F330E0EACF8C
:1025300078010F5F1F4FF70180818032C9F36EE28F
:1025400070E0C7010E949A158C01009709F440C001
:10255000E816F906E8F5D7010D900020E9F7CD015E
:10256000029708171907A0F5F80111926F01C7012A
:102570000E9428057C01C6010E9428052EE2D80190
:102580002C9397012150310929303105F0F48A301C
:102590009105D8F49F938F93FF92EF92ECEDF3E0C7
:1025A000FF93EF931F9289E08F9345E151E05F9392
:1025B0004F930E94BD1586EE93E00E94F1050FB681
:1025C000F894DEBF0FBECDBFB5CD82EF93E002CE53
:1025D00081E094E0FFCD80918604882309F456CFF2
:1025E000F80171906F01F0E27F16B9F1F8010190E6
:1025F0000020E9F731977F01E01AF10AC70103973C
:102600000697D8F56DE270E0C8010E949A15009710
:10261000A1F18C159D0589F5872D770C990B0E94EA
:10262000801521E0892B09F420E0680132E0C30E17
:10263000D11CE00EF11ECE14DF0489F02223E9F054
:10264000D6018D916D01082E000C990B0E9480150A
:1026500021E0892B81F720E0EECF8601C1CF222334
:1026600061F048E050E0B8018CE091E00E94AE15C6
:102670001092140181E194E0ADCD8FE194E0AACDF8
:1026800065E374E0C8010E946805882339F00E9460
:10269000ED071092860489E394E0CBCC86E494E0C5
:1026A00099CD8DE893E096CD890116CF3323F1F0D3
:1026B000E5EFF4E09801285F3F4FD8018D918D013F
:1026C0009FE9980F963008F48052819320173107C4
:1026D000A1F71092FD048AE594E00E94EA0580E4E7
:1026E00091E00E94EA0585EF94E074CD85E694E0E0
:1026F00071CD8091D8049091D904A091DA04B09161
:10270000DB04A5019401281B390B4A0B5B0BDA0192
:10271000C9010A97A105B10508F472CB8092D804CB
:102720009092D904A092DA04B092DB040E94B5041E
:102730002091D7048091D604281307C09091D50426
:102740008091D404981709F44CC08091D0049091E2
:10275000D104A091D204B091D304B501A401481BC7
:10276000590B6A0B7B0B80911E0190E0B0E0A0E05A
:10277000481759076A077B07A0F18092D00490920E
:10278000D104A092D204B092D3042093D6048091B5
:10279000D5048093D40421E08091CE049091CF049D
:1027A0004091CC045091CD04841B950B97FF03C03E
:1027B00091958195910903978CF48091CA04909129
:1027C000CB044091C8045091C904841B950B97FF1A
:1027D00003C09195819591090397C4F10E949706D2
:1027E0000FCB20E0D9CF8B5E9E4FDC011C92DEC95F
:1027F0008B5E9E4FFC011082A601485F5F4F90E008
:1028000080E0D6012D916D01322F3F7D29F0FC0132
:10281000EB50FB4F20830196C416D50691F7FC01BF
:10282000EB50FB4F1082892B09F0BCCA0E942B068B
:102830000E94ED078CE892E0BFC9F80101900020EA
:10284000E9F79F0121503109790174CD222309F460
:10285000D7CAC4CF009709F446CC820D931DFC0162
:102860001082F10101900020E9F7319771012E16D5
:102870003F0609F458CC8291803209F054CC108282
:10288000F6CF009709F41BCBE8CFEFEFF4E013820B
:10289000128288EE93E0A0E0B0E084839583A68363
:1028A000B78387E291E0918380838FEF9FEF9587D5
:1028B000848708958F929F92AF92BF92CF92DF92BA
:1028C000EF92FF92CF93DF93EC01688179818A8147
:1028D0009B81611571058105910521F464E279ED13
:1028E0008BE597E02DE133EF41E050E00E941415B5
:1028F00049015A019B01AC01A7EAB1E40E943315DA
:102900006B017C01ACEEB4EFA50194010E9441156E
:10291000C60ED71EE81EF91EF7FE06C081E0C81AD3
:10292000D108E10880E8F80AC882D982EA82FB82ED
:10293000C701B6019F77DF91CF91FF90EF90DF90B5
:10294000CF90BF90AF909F908F9008958F929F925D
:10295000AF92BF92CF92DF92EF92FF9260911F01F0
:1029600070912001809121019091220161157105E2
:102970008105910521F464E279ED8BE597E02DE185
:1029800033EF41E050E00E94141549015A019B01C8
:10299000AC01A7EAB1E40E9433156B017C01ACEEF7
:1029A000B4EFA50194010E944115C60ED71EE81E82
:1029B000F91EF7FE06C081E0C81AD108E10880E8D8
:1029C000F80AC0921F01D0922001E0922101F092FA
:1029D0002201C701B6019F77FF90EF90DF90CF9063
:1029E000BF90AF909F908F90089560931F01709358
:1029F000200180932101909322010895F999FECF3F
:102A000092BD81BDF89A992780B50895262FF9992E
:102A1000FECF1FBA92BD81BD20BD0FB6F894FA9AC1
:102A2000F99A0FBE01960895052E97FB1EF40094A7
:102A30000E942B1557FD07D00E94461507FC03D0B6
:102A40004EF40C942B1550954095309521953F4FA1
:102A50004F4F5F4F089590958095709561957F4F8A
:102A60008F4F9F4F08950E946815A59F900DB49FAA
:102A7000900DA49F800D911D11240895B7FF0C9413
:102A800033150E943315821B930B0895A1E21A2E71
:102A9000AA1BBB1BFD010DC0AA1FBB1FEE1FFF1F02
:102AA000A217B307E407F50720F0A21BB30BE40B52
:102AB000F50B661F771F881F991F1A9469F7609599
:102AC0007095809590959B01AC01BD01CF01089553
:102AD000A29FB001B39FC001A39F700D811D11245F
:102AE000911DB29F700D811D1124911D0895EE0F4F
:102AF000FF1F0590F491E02D099485FD0C94C717F4
:102B0000806291110C94C71781568A51D8F70895A5
:102B10006817790768F4FB01DC01E40FF51FA40FC7
:102B2000B51F02C002900E9241505040D8F7089550
:102B30000C94D517FC018191861721F08823D9F7D1
:102B4000992708953197CF010895FB01DC018D91FC
:102B5000019080190110D9F3990B0895FB01DC0154
:102B60004150504048F001900D920020C9F701C03B
:102B70001D9241505040E0F70895AEE0B0E0E3EC24
:102B8000F5E10C9485180D891E898F89988D26E0B2
:102B90002C831A83098397FF02C080E090E8019795
:102BA0009E838D83AE01455E5F4F698D7A8DCE0128
:102BB00001960E94ED154D815E8157FD0AC02F815F
:102BC0003885421753070CF49A01020F131FF801BE
:102BD00010822E96E4E00C94A118ABE0B0E0E3EF95
:102BE000F5E10C9477187C013B018A01FC01178206
:102BF0001682838181FFC8C1CE0101965C01F70175
:102C00009381F30193FD859193FF81913F01882387
:102C100009F453C1853239F493FD859193FF819175
:102C20003F01853229F4B70190E00E94E917E7CF10
:102C3000912C212C312CFFE1F31538F08B3211F15E
:102C400090F4803209F1833229F137FC3CC020ED49
:102C5000280F2A3050F536FE20C08AE0989E200DBD
:102C60001124922E06C08D3291F0803371F7689452
:102C700030F8F30193FD859193FF81913F0181111C
:102C8000DACF21C0689431F8689432F8F2CF6894B2
:102C900033F8EFCF689434F8ECCFEAE02E9E200DA5
:102CA0001124222E689435F8E4CF8E3229F436FCB4
:102CB00004C1689436F8DDCF8C3619F4689437F87F
:102CC000D8CF8836B1F2982F9F7D95549330E0F09D
:102CD0008336A1F18337C1F1833509F063C0280140
:102CE000F2E04F0E511CF801C080D180692D70E0D8
:102CF00036FC02C06FEF7FEFC6010E94CA174C017D
:102D0000689437F882010AC00C5F1F4FFFE3F98314
:102D100088248394912C6501E89437F833FE2DC004
:102D2000522C8114910471F5552009F468CFB70134
:102D300080E290E00E94E9175A94F6CFF801808172
:102D400089830E5F1F4FE4CF2801F2E04F0E511C24
:102D5000F801C080D180692D70E036FC02C06FEFB1
:102D60007FEFC6010E94DE174C018201D5CFB7016B
:102D700080E290E00E94E9172A942814190409F0CF
:102D8000B0F7CECFF60137FC859137FE81916F0108
:102D9000B70190E00E94E91751105A94F1E08F1AA0
:102DA0009108BFCF843619F0893609F077C0F80151
:102DB00037FE6BC060817181828193810C5F1F4FF0
:102DC000F32DFF763F2E97FF09C090958095709563
:102DD00061957F4F8F4F9F4F689437F82AE030E01E
:102DE000A5010E941918C82ECA188C2C432C36FE37
:102DF0000CC0E89440F8C91440F434FE05C032FC1D
:102E000003C0F32DFE7E4F2E892C44FE95C0FE019B
:102E1000EC0DF11D8081803309F087C0242D297EBF
:102E2000422E842D8870582E43FC95C040FE8FC0E2
:102E30009C2C821418F42C0C922C981844FE91C0EF
:102E4000B70180E390E00E94E91742FE09C088E7DD
:102E500090E041FE02C088E590E0B7010E94E917CA
:102E6000C91408F48AC0CA94D12C9FEFC91AD90A90
:102E7000CA0CDB1CF60182916F01B70190E00E9441
:102E8000E917AC14BD04B1F74FCF60817181072EF3
:102E9000000C880B990B0E5F1F4F92CFD32CE89438
:102EA000D4F82AE030E0853739F1232D297FD22E5E
:102EB0008F3601F148F48835A9F0F70186819781B2
:102EC0002B96E2E10C949318803749F08837A9F7E4
:102ED000D4FE02C06894D2F820E130E00DC06894BE
:102EE000D4F8F6CF34FE03C0822F8660D82E20E1BE
:102EF00032E002C028E030E0F801D7FE0FC0608168
:102F00007181828193810C5F1F4FA5010E94191866
:102F1000C82ECA183D2CE89437F867CF60817181BC
:102F200090E080E00E5F1F4FF0CF42FC02C0839420
:102F300078CF8394839475CF842D867809F471CFEC
:102F4000F6CFB70180E290E00E94E91783948214E3
:102F5000C0F3512C73CF522C5818821408F46ECF42
:102F6000F8CF842D867809F47BCF8BE241FE80E296
:102F700047FC8DE2B70190E071CFB70180E390E0AC
:102F80000E94E9179A946CCF8FEF9FEF99CF992702
:102F900088270895FC010590615070400110D8F712
:102FA000809590958E0F9F1F0895FB01DC0102C054
:102FB00001900D9241505040D8F70895FC016150A6
:102FC000704001900110D8F7809590958E0F9F1F4B
:102FD00008950F931F93CF93DF93182F092FEB01C1
:102FE0008B8181FD09C01FEF0FEF812F902FDF91A3
:102FF000CF911F910F91089582FF14C02E813F81C0
:103000008C819D81281739073CF4E881F981CF0133
:1030100001969983888310838E819F8101969F8377
:103020008E83E3CFE885F985812F0995892BA1F35C
:10303000DACFFA01AA27283051F1203181F1E89442
:103040006F936E7F6E5F7F4F8F4F9F4FAF4FB1E09B
:103050003ED0B4E03CD0670F781F891F9A1FA11D96
:10306000680F791F8A1F911DA11D6A0F711D811D97
:10307000911DA11D20D009F468943F912AE0269F5C
:1030800011243019305D3193DEF6CF010895462FBB
:103090004770405D4193B3E00FD0C9F7F6CF462F9C
:1030A0004F70405D4A3318F0495D31FD4052419305
:1030B00002D0A9F7EACFB4E0A695979587957795C2
:1030C0006795BA95C9F700976105710508959B0149
:1030D000AC010A2E06945795479537952795BA95D2
:1030E000C9F7620F731F841F951FA01D08952F92AB
:1030F0003F924F925F926F927F928F929F92AF9288
:10310000BF92CF92DF92EF92FF920F931F93CF93D4
:10311000DF93CDB7DEB7CA1BDB0B0FB6F894DEBF6B
:103120000FBECDBF09942A88398848885F846E8491
:103130007D848C849B84AA84B984C884DF80EE80DB
:10314000FD800C811B81AA81B981CE0FD11D0FB6E4
:10315000F894DEBF0FBECDBFED010895F894FFCF08
:10316000FFFFFFFF00E1000000000000442D41339D
:10317000323000000050434220312E3000000C015C
:10318000000000000000000D048803250423046BE8
:10319000042904470400C18081000000312E300062
:1031A0005758522D0030383135000D0A004944453A
:1031B0004E543A005758522C2076312E30204D4133
:1031C00051002C20534E3A003B53544154453A523F
:1031D000554E4E494E473B005245473A003031323A
:1031E0003334353637383941424344454600494E39
:1031F000313A00494E323A00504F54313A00504F64
:1032000054323A004346473A53415645443A5245B0
:10321000473D003B5043423D003B534E3D0043463B
:10322000473A454550524F4D3A4D414749435F4D0E
:10323000495353494E473B004346473A534E3A4E53
:1032400045573A00202020202020202020004346FF
:10325000473A454550524F4D3A4352435F464149E4
:103260004C5F763176323B004346473A534E3A55EF
:103270005047524144455F763176323A00434647E3
:103280003A4C4F41443A5245473D004346473A4540
:103290004550524F4D3A56455253494F4E5F4D4956
:1032A000534D415443483A00213D004346473A5369
:1032B0004E3A4E45575F5645525F4D49534D415426
:1032C00043483A004346473A454550524F4D3A43EA
:1032D00052435F4641494C5F76333B004346473A91
:1032E000534E3A4E45575F4352433A004346473A9E
:1032F000534E3A4E45575F454D5054593A00434658
:10330000473A534E3A4C4F414445443A0053455492
:1033100055503A4465626F756E63653D006D732C60
:10332000205245473D002C20534E3D0053455455F7
:10333000503A46573D002C205043423D00444941FD
:10334000473A4C4544315F414C4C5F4F4E3B004443
:103350004941473A4C4544315F57414C4B3B00444F
:103360004941473A4C4544315F4F46463B0044494A
:1033700041473A434F4D504C4554453B005645520A
:103380000056455253494F4E004944454E5400455E
:1033900058495400504342005043423A007600528C
:1033A000455345540052455345543A4F4B203B003A
:1033B000524551004449414700444941473A53541A
:1033C0004152543B0025733B005345542000534564
:1033D0005420455849543A4F4B203B0057524954CA
:1033E000450057524954453A4F4B203B00575249EC
:1033F00054453A4C4F434B4544203B004C454431E7
:1034000000424C00424C5400535441544500434642
:10341000470044454200454E410053455420454E27
:10342000413E203B0053455420454E413A464149D8
:103430004C203B0046570041434944005043622022
:1034400025642E2564005345542046573A4F4B209F
:103450003B005345542046573A52414E4745203B86
:10346000005345542046573A464F524D4154203B55
:103470000053455420414349443A4F4B203B0053AD
:10348000455420414349443A464F524D4154203B14
:10349000005752490059455300534554205752494B
:1034A0003A4F4B203B00534554205752493A464F20
:1034B000524D4154203B00534E0053455420534E2F
:1034C0003A4F4B3A0053455420534E3A464F524DD3
:0634D0004154203B000006
:00000001FF
