:100000000C94DA000C9402010C9402010C9402018D
:100010000C9402010C9402010C9402010C94020154
:100020000C9402010C9402010C9444090C94C10933
:100030000C9402010C9402010C9402010C94020134
:100040000C9402010C9402010C9402010C94020124
:100050000C9402010C9402010C9402010C94FA0815
:100060000C9402010C9402010C9402010C94020104
:100070000C9402010C9402010C9402010C940201F4
:100080000C9402010C9402010C9402010C940201E4
:100090000C9402010C9402010C9402010C940201D4
:1000A0000C9402010C9402010C940201080B000252
:1000B0000202000009040000010202000005240001
:1000C0001001052401010104240206052406000193
:1000D0000705810310004009040100020A00000026
:1000E00007050202400000070583024000000403E8
:1000F000090412010002EF02014041233780000190
:100100000102030141726475696E6F204C4C43001B
:1001100041726475696E6F204D6963726F000706E6
:1001200005040100080A0B0C0D0900000000240062
:1001300027002A002D0030000000000025002800C4
:100140002B002E00310000000000230026002900B3
:100150002C002F000404040404030405020202021C
:100160000403020202020606060606060404020250
:100170000204040408020110408040102040804026
:1001800080080204018040201002011080102040ED
:1001900040200000000200090F0000030401000CD1
:1001A000000000000000000000000000000000004F
:1001B0000000BB1411241FBECFEFDAE0DEBFCDBFBD
:1001C00014E0A0E0B1E0ECE4F2E302C005900D928F
:1001D000A637B107D9F725E0A6E7B4E001C01D9224
:1001E000A435B207E1F710E0CAEDD0E004C02197D2
:1001F000FE010E94ED15C93DD107C9F70E94F30B1E
:100200000C9424190C94000083E08093E900809101
:10021000F200882319F08AE38093E8000895FC0136
:100220008091F904882311F13FB7F89482E080931C
:10023000E9002091F200822F90E01816190614F4BC
:1002400081E090E0882339F0289A44E64093F8044E
:100250004091F1004083222339F02091F2002111D6
:1002600003C02BE62093E8003FBF08958FEF9FEF78
:1002700008952FB7F89483E08093E9009091E80007
:10028000892F807295FF04C09091F20080E4891B51
:100290002FBF08958091F00481110DC082E08093FA
:1002A000EC0484E08093ED041092EF041092EE04CD
:1002B00081E08093F0048CEE94E0089581508F30BB
:1002C00008F047C0E82FF0E0E859FE4F0C94ED1518
:1002D0008501890177017D018101A901A901A90198
:1002E0008C01920196019A01A001A901A4018091BB
:1002F00080008F77809380000895809180008F7DAB
:10030000F9CF80918000877FF5CF84B58F7784BD4A
:10031000089584B58F7DFBCF809190008F77809377
:1003200090000895809190008F7DF9CF809190008A
:10033000877FF5CF8091C0008F778093C0000895AC
:100340008091C0008F7DF9CF8091C200877F80931C
:10035000C2000895CF93DF93282F30E0F901EE56C5
:10036000FE4F8491F901ED58FE4FD491F901EC5AFA
:10037000FE4FC491CC23A1F081110E945E01EC2FAD
:10038000F0E0EE0FFF1FEA5BFE4FA591B491EC91F8
:10039000ED2381E090E009F480E0DF91CF910895B2
:1003A00080E090E0FACF1F93CF93DF93282F30E0C7
:1003B000F901EE56FE4F8491F901ED58FE4FD491AC
:1003C000F901EC5AFE4FC491CC23A9F0162F8111EC
:1003D0000E945E01EC2FF0E0EE0FFF1FE85CFE4F85
:1003E000A591B4918FB7F894EC91111108C0D095F4
:1003F000DE23DC938FBFDF91CF911F910895DE2B19
:10040000F8CFCF93DF9390E0FC01ED58FE4F24919D
:100410008C5A9E4FFC0184918823C9F090E0880F8C
:10042000991FFC01E65DFE4FA591B491FC01E85CCB
:10043000FE4FC591D49161110DC09FB7F8948C9176
:10044000209582238C938881282328839FBFDF9166
:10045000CF910895623051F49FB7F8943C91822F68
:10046000809583238C93E8812E2BEFCF8FB7F89460
:10047000EC912E2B2C938FBFEACF8251E82FF0E026
:10048000E25EFE4FE49190917B008E2F880F880FE3
:1004900080729F7D892B80937B00E770E064E093FE
:1004A0007C0080917A00806480937A0080917A0049
:1004B00086FDFCCF809178009091790008953FB738
:1004C000F8948091E8049091E904A091EA04B09135
:1004D000EB0426B5A89B05C02F3F19F00196A11D7E
:1004E000B11D3FBFBA2FA92F982F8827BC01CD017E
:1004F000620F711D811D911D42E0660F771F881FDD
:10050000991F4A95D1F708958F929F92AF92BF920B
:10051000CF92DF92EF92FF924B015C010E945F024B
:100520006B017C010E945F026C197D098E099F0995
:10053000683E734081059105A8F321E0821A910875
:10054000A108B10888EEC80E83E0D81EE11CF11C9A
:1005500081149104A104B10429F7FF90EF90DF907A
:10056000CF90BF90AF909F908F9008952FB7F89441
:100570006091E4047091E5048091E6049091E704B1
:100580002FBF08954091780450917904209176040A
:100590003091770442175307B4F49091E8009570B6
:1005A000E1F39091E80092FD19C08093F1008091F1
:1005B00078049091790401968F739927892B19F407
:1005C0008EEF8093E80080917804909179040196F1
:1005D000909379048093780481E0089580E00895F1
:1005E000EF92FF920F931F93CF93DF93F82E192F63
:1005F000E62E042F81E0860F880F0E94C20283E05E
:100600000E94C202CF2DD12FEC0EFD2EF11CCE1573
:10061000DF05B9F007FF13C0FE0184910E94C202FA
:10062000182F80E00E94C202812321968111EFCF12
:10063000DF91CF911F910F91FF90EF9008958881E6
:10064000EDCF81E0F5CFDF92EF92FF920F931F93F2
:10065000CF93DF93D82E8A01EB017B01E40EF51EC8
:10066000CE15DF0559F0D7FE12C0FE0184910E941D
:10067000C20221968111F4CF0FEF1FEFC801DF9165
:10068000CF911F910F91FF90EF90DF900895888197
:10069000EECF0F931F93CF93DF931F92CDB7DEB7AB
:1006A00082E0898342E450E06CEA70E080E80E94D6
:1006B00023030E944A01DC0112960D911C91011541
:1006C000110589F0D801ED91FC910280F381E02DB4
:1006D000BE016F5F7F4FC801099597FD04C0F80107
:1006E00000851185ECCF89810F90DF91CF911F910B
:1006F0000F910895615030F02091F100FC012083AA
:100700000196F8CF289A84E68093F80408958F9292
:100710009F92AF92BF92CF92DF92EF92FF920F9390
:100720001F93CF93DF936C017B018A0180910B01B2
:10073000882309F45CC08091F904882309F457C028
:1007400080917C0480FF05C08091E00082608093EE
:10075000E000E801B12C8AEFA82E93E0892E2AE36D
:10076000922E209711F4BB20D9F10E9439018111FA
:100770000AC0AA94AA20D9F161E070E080E090E07C
:100780000E948402EECF8C171D0611F00CF08C2F06
:100790009FB7F8948092E9002091E80025FD02C0FF
:1007A0009FBFDFCF282F30E0C21BD30BF701815052
:1007B00020F041914093F100FACFE20EF31EBB20EE
:1007C00021F09092E800B12CEBCF8091E80085FDFC
:1007D000E7CF9092E800BB24B394209709F3F3CFBE
:1007E0005D9A84E680937B04101611063CF081E04C
:1007F00090E0F6019383828310E000E0C801DF916E
:10080000CF911F910F91FF90EF90DF90CF90BF900D
:10081000AF909F908F900895CF93DF931F92CDB7A5
:10082000DEB76983DC01ED91FC910280F381E02D5C
:1008300041E050E0BE016F5F7F4F09950F90DF915F
:10084000CF9108950C9404010E94390190E008951D
:10085000CF93DF931F92CDB7DEB7FC0184859585DA
:1008600097FD08C02FEF3FEF358724870F90DF916A
:10087000CF910895CE0101960E940F01019719F4BE
:10088000898190E0F3CF8FEF9FEFF0CF0F931F930D
:10089000CF93DF931F92CDB7DEB78C01FC01848527
:1008A000958597FF0BC0CE0101960E940F0101971D
:1008B00071F4898190E0F80195878487F801848537
:1008C00095850F90DF91CF911F910F9108958FEF34
:1008D0009FEFF1CFFC018485958597FD0BC09FB7F5
:1008E000F89482E08093E9008091F2009FBF90E04D
:1008F000019608959FB7F89482E08093E900809173
:10090000F2009FBF90E0089590E0FB01685F7F4F89
:10091000A1918A0F911D6E177F07D1F7FA01485FE9
:100920005F4F6191860F911D4E175F07D1F7F90157
:10093000275F3F4F4191840F911D2E173F07D1F73D
:1009400008950E94040162E370E080E090E00E945C
:10095000840288E198E00FB6F894A895809360002F
:100960000FBE90936000FFCF1092D70482E00E94E8
:10097000AA01892B19F481E08093D70487E00E94B3
:10098000AA01892B29F48091D70482608093D7042F
:100990008AE00E94AA01892B29F48091D7048460FF
:1009A0008093D70480E10E94AA01892B29F48091C9
:1009B000D70488608093D7048EE00E94AA01892B17
:1009C00029F48091D70480618093D7048FE00E943E
:1009D000AA01892B29F48091D70480628093D704DF
:1009E00082E10E94AA01892B29F48091D7048064B6
:1009F0008093D70483E10E94AA01892B29F4809176
:100A0000D70480688093D7041092D50484E10E94B3
:100A1000AA01892B19F481E08093D50485E10E9415
:100A2000AA01892B29F48091D50482608093D50492
:100A30008AE10E943D029093CF048093CE048BE123
:100A40000E943D029093CB048093CA040895FC0158
:100A5000208101962032D9F341E050E02D3219F483
:100A6000FC014FEF5FEF30E020E0AAE0819190EDD4
:100A7000980F9A3068F4A29FB001A39F700D1124C3
:100A8000082E000C990BC0979C01260F371FEECF44
:100A9000249FC001259F900D349F900D112408952F
:100AA000FC01DB019D91BD01992379F021918FE932
:100AB000820F8A3108F420528FE9890F8A3108F4B5
:100AC0009052291771F380E0089581E00895DC01C8
:100AD000FB012D919191222381F0992371F08FE9EF
:100AE000820F8A3108F420528FE9890F8A3108F485
:100AF0009052291771F380E003C081E02913FBCFE6
:100B00000895FC0127E030E070E0AB01022E02C046
:100B1000559547950A94E2F740FD08C040E341939C
:100B20002150310990F7FC011086089541E3F7CF79
:100B3000FC0101900020E9F73197AF01481B590BE8
:100B4000BC0184E095E00C9487038F929F92AF9252
:100B5000BF920F931F93CF93DF93CDB7DEB7A197CB
:100B60000FB6F894DEBF0FBECDBF19A2423008F415
:100B70004AE08E010F5D1F4F842E912CB12CA12CC9
:100B8000A50194010E94BC15E62FB901CA01EA3003
:100B9000F4F4E05DD801EE938D01232B242B252B5B
:100BA00079F790E080E0109719F0CD010E94980548
:100BB000A1960FB6F894DEBF0FBECDBFDF91CF91E7
:100BC0001F910F91BF90AF909F908F900895E95C17
:100BD000E1CF009711F00C94980590E080E0089523
:100BE000CF93DF930E949805EC018AE491E00E9484
:100BF00098058C0F9D1FDF91CF9108958DE491E0B2
:100C00000E94E90584E591E00E94E9058091FA04DB
:100C1000882361F082E691E00E94E90580E491E09A
:100C20000E94E9058AEF94E00E94E90588E691E0D8
:100C30000E94E90588E791E00E94E9058CE091E0D7
:100C40000E94E90583EC93E00E94E9058AE491E0C3
:100C50000C949805CF92DF92EF92FF920F931F931F
:100C6000CF93DF93CDB7DEB761970FB6F894DEBFB1
:100C70000FBECDBF82E10E943D028C0183E10E9444
:100C80003D02080F191F84E10E943D02080F191F41
:100C900085E10E943D027C010E945F0298012E0DB9
:100CA0003F1D8901330F220B330B600F711F821F11
:100CB000931F611571058105910511F00E946B1557
:100CC00081E1EDE7F1E0DE01119601900D928A9548
:100CD000E1F70AEF14E080E1C82ED12CE12CF12CD1
:100CE0000E941C15A70196010E948A1521E030E0A0
:100CF0002C0F3D1F620F731FFB018081F801819350
:100D00008F01F5E002301F0759F710920205619636
:100D10000FB6F894DEBF0FBECDBFDF91CF911F910C
:100D20000F91FF90EF90DF90CF900895EF92FF9298
:100D30000F931F93CF93DF93CDB7DEB729970FB6ED
:100D4000F894DEBF0FBECDBF0E94B4046091D704FB
:100D5000CE0101960E9481058EE891E00E94E9058E
:100D6000CE0101960E94E90583EC93E00E94E9051B
:100D70006091D504CE0101960E94810583E991E03E
:100D80000E94E905CE0101960E94E90583EC93E0FB
:100D90000E94E90588E991E00E94E905E090CE040F
:100DA000F090CF04B70190E080E04AE00E94A505F2
:100DB00083EC93E00E94E9058EE991E00E94E90549
:100DC0000091CA041091CB04B80190E080E04AE0A1
:100DD0000E94A50583EC93E00E94E9058AE491E076
:100DE0000E949805F092CD04E092CC041093C904BF
:100DF0000093C8040E94B60229960FB6F894DEBF8D
:100E00000FBECDBFDF91CF911F910F91FF90EF905B
:100E10000895CF93DF93D82F60E084E00E94D30140
:100E2000C8E06D2F661F6627661F86E00E94D3010B
:100E3000DD0F61E085E00E94D30160E085E00E9463
:100E4000D301C15071F761E084E0DF91CF910C9440
:100E5000D301CF93DF93C091DC0480917F04909104
:100E60007E04911104C0C111A5C0807C01C09FE324
:100E7000892B0E940907C09561E083E00E9401026E
:100E8000C11106C060E083E0DF91CF910C94D301E3
:100E9000CF3F11F461E0F7CFE5E9F1E0E491E150F3
:100EA000EF3008F084C0F0E0E85AF84F0C94ED15EC
:100EB00067076E0773077E078907D707D707D70726
:100EC00094079F07AA07B507C207D707CA0784B5C3
:100ED000806884BDC7BDDF91CF91089584B58062DD
:100EE00084BDC8BDF8CF8091800080688093800069
:100EF000D0E0D0938900C0938800EDCF809180002E
:100F0000806280938000D0E0D0938B00C0938A00F1
:100F1000E2CF80918000886080938000D0E0D09301
:100F20008D00C0938C00D7CF809190008068809313
:100F30009000D0E0D0939900C0939800CCCF8091DE
:100F40009000806280939000D0E0D0939B00C0938B
:100F50009A00C1CF80919000886080939000D0E08B
:100F6000D0939D00C0939C00B6CF8091C000806854
:100F70008093C0008091C0008F7B8093C000C0939D
:100F8000CF00A9CF8091C00080628093C000C09341
:100F9000D000A1CF8091C20088608093C200809170
:100FA000C2008B7F8093C200C093D20094CFC7FD54
:100FB00071CF68CF9FE359CF0C947415FF920F93B4
:100FC0001F93CF93DF93EC01F62E08811981C8019E
:100FD0000E947415F81621F06F2DC8010E947C152F
:100FE000CE01DF91CF911F910F91FF9008954F9205
:100FF0005F926F927F928F929F92AF92BF92CF92A9
:10100000DF92EF92FF920F931F93CF93DF93CDB7B1
:10101000DEB76B970FB6F894DEBF0FBECDBF2CE0E6
:1010200031E0F90101900020E9F79F012D50314096
:101030005E01FAE0AF0EB11CF50190E080E04501E1
:1010400040E2821793070CF0CFC0DC01A45FBE4FD3
:101050005C915083019631968830910591F725E196
:1010600031E0F90101900020E9F79F01265131405C
:101070006E01F2E1CF0ED11CF60190E080E0360166
:1010800040E2821793070CF0B1C0DC01AB5EBE4FAB
:101090005C915083019631968830910591F72AEF43
:1010A00034E0F90101900020E9F79F012B5F344003
:1010B000CE0101967C01FC0190E080E0270140E236
:1010C000821793070CF094C0DC01A650BB4F5C91D3
:1010D0005083019631968830910591F719861B8EC1
:1010E0001A8E6AE5CE014A960E94DE0781E090E002
:1010F0009B8F8A8F65EACE014A960E94DE0782E0C6
:1011000090E09B8F8A8F63E0CE014A960E94DE07B3
:1011100003E010E0F50161915F011B8F0A8FCE01A2
:101120004A960E94DE070F5F1F4F0B30110591F7A3
:10113000F60161916F011B8F0A8FCE014A960E94C2
:10114000DE070F5F1F4F0331110591F7F701619122
:101150007F011B8F0A8FCE014A960E94DE070F5F28
:101160001F4F0C31110591F79201A301B40183E0E7
:101170000E9484041B8F0A8F682FCE014A960E941A
:10118000DE0784EA91E00E94E9058CE091E00E948C
:10119000E90583EB91E00E94E90585E191E00E9479
:1011A000E90589EB91E00E94E90580E491E00E9465
:1011B000E9058AEF94E00E94F0056B960FB6F8946B
:1011C000DEBF0FBECDBFDF91CF911F910F91FF907A
:1011D000EF90DF90CF90BF90AF909F908F907F90D7
:1011E0006F905F904F900895408334CF408352CFEB
:1011F00040836FCF1F920F920FB60F9211242F933F
:101200003F938F939F93AF93BF938091E40490910A
:10121000E504A091E604B091E7043091E30423E0F3
:10122000230F2D3758F50196A11DB11D2093E3041E
:101230008093E4049093E504A093E604B093E7045C
:101240008091E8049091E904A091EA04B091EB0444
:101250000196A11DB11D8093E8049093E904A09329
:10126000EA04B093EB04BF91AF919F918F913F91AE
:101270002F910F900FBE0F901F90189526E8230F07
:101280000296A11DB11DD2CF1F920F920FB60F92E1
:1012900011242F933F934F935F936F937F938F937B
:1012A0009F93AF93BF93CF93EF93FF93C091E100D0
:1012B0008091E100837F8093E100C3FF0FC0109213
:1012C000E90081E08093EB001092EC0082E38093D0
:1012D000ED001092F90488E08093F000C2FF1AC07C
:1012E0000E94040180917B04882341F080917B045B
:1012F000815080937B04811101C05D988091F80436
:10130000882341F08091F80481508093F804811182
:1013100001C02898C4FF23C08091E2008E7E8160C6
:101320008093E2008091E1008F7E8093E1008091C4
:101330007C048E7E806180937C04FF91EF91CF913D
:10134000BF91AF919F918F917F916F915F914F91DD
:101350003F912F910F900FBE0F901F901895C0FFD7
:10136000ECCF8091E2008E7E80618093E2008091DC
:10137000E1008E7E8093E10080917C048E7E81600E
:10138000DACF1F920F920FB60F921124CF92DF92F5
:10139000EF92FF920F931F932F933F934F935F937F
:1013A0006F937F938F939F93AF93BF93EF93FF932D
:1013B000CF93DF93CDB7DEB76C97DEBFCDBF109272
:1013C000E9008091E80083FF25C068E0CE014596E2
:1013D0000E947A0382EF8093E8008D8987FF39C0ED
:1013E0009091E80090FFFCCF982F907609F034C1DF
:1013F0009E894F89588D2F89F88C911131C0803882
:1014000061F580917D048093F1001092F1008EEFE0
:101410008093E8006C960FB6F894DEBF0FBECDBF88
:10142000DF91CF91FF91EF91BF91AF919F918F91FC
:101430007F916F915F914F913F912F911F910F91EC
:10144000FF90EF90DF90CF900F900FBE0F901F9006
:1014500018959EEF9093E800C7CF1092F100D5CF7A
:10146000913059F48111D3CF4130510581F68091EB
:101470007D048D7F80937D04CACF933049F4811120
:10148000C6CF4130510519F680917D048260F2CFBC
:10149000953041F48091E80080FFFCCF20682093D4
:1014A000E300B5CF963009F0A9C00B8D1C8D22E06A
:1014B0001092E9001092790410927804F2122EC072
:1014C00010927704109276040E9449031F8299E0DB
:1014D0009983FA8291E09E8390EA98879AEF9987A0
:1014E0002091780430917904275F3F4F3C832B8310
:1014F0008D831092E9001092790410927804109371
:1015000077040093760449E050E0BE016F5F7F4F9F
:1015100080E00E9423030E94490379CF109377044F
:10152000009376040E944A01DC0112960D911C91F1
:101530000115110509F451C1D801ED91FC91048008
:10154000F581E02DBE016B5E7F4FC80109950097C4
:1015500009F03EC1F80100851185EACFF3E0FF12E2
:101560000EC08F89882309F440C0823061F440E8BE
:101570006DE080E191E00E94F002811148CF81E2AC
:101580008093EB0047CF813029F440E86BE084E0A2
:1015900091E0F1CF833099F70E944A01DC01129665
:1015A000ED90FC908E010F5F1F4F6801E114F10474
:1015B00079F0D701ED91FC910680F781E02DB8011B
:1015C000C7010995080F111DF701E084F184EECFE2
:1015D000D8011C92F60101900020E9F73197BF0174
:1015E0006C197D0940E0C601C6CF6EEE70E0FB01CC
:1015F000449150E080E80E94230309CF973009F41A
:10160000BECF983021F481E08093F10000CF993073
:1016100009F0FDCE837009F0B2CFE6E3F1E081E09E
:1016200031E096E32191222371F08093E900309319
:10163000EB00DF0111972C912093EC009093ED00CB
:101640008F5F873079F78EE78093EA001092EA0087
:101650008F898093F904DBCE8B8D9C8D1092E900ED
:101660001092790410927804909377048093760412
:10167000898D811192C08E899D89913A49F4813278
:1016800009F07DCF47E050E064E071E080E0B3CF47
:10169000913209F074CF833269F48F89988DB0E06C
:1016A000A0E08093000190930101A0930201B09308
:1016B0000301ADCE803269F48091E80082FFFCCF57
:1016C00067E084E091E00E947A038BEF8093E8006A
:1016D0009ECE823209F09BCE8F8980930B01EEEF74
:1016E000FFE7859194918B3F9C4D51F1E0E0F8E04C
:1016F0008091040190910501A0910601B09107012C
:10170000803B9440A105B105F1F480910B0180FD6F
:101710001AC0EE3F8AE0F80789F587E797E79183DB
:1017200080838091600080937A0488E19BE00FB60B
:10173000F894A895809360000FBE9093600067CEE8
:10174000EEEFFAE0D5CF808191818737974709F096
:101750005ECEA89580916000886180936000809142
:101760007A0480936000EE3F2AE0F20789F08091CE
:10177000FE0A9091FF0A9183808349CE80819181F6
:101780008737980751F29093FF0A8093FE0AC5CFDE
:101790001092FF0A1092FE0A3ACE0E944A01DC0122
:1017A00012960D911C910115110509F4E8CED8018E
:1017B000ED91FC910190F081E02DBE016B5E7F4FB9
:1017C000C8010995811123CEF80100851185EBCF61
:1017D000181619060CF41BCED2CEF1E0FF12BECEC5
:1017E00062EF70E004CFCF93DF93CDB7DEB7C25A7C
:1017F000D1090FB6F894DEBF0FBECDBF789484B583
:10180000826084BD84B5816084BD85B5826085BDFC
:1018100085B5816085BD80916E00816080936E008A
:10182000109281008091810082608093810080917C
:10183000810081608093810080918000816080932D
:10184000800080919100826080939100809191004E
:1018500081608093910080919000816080939000DE
:101860008091C10084608093C1008091C10082603A
:101870008093C1008091C10081608093C1008091FC
:10188000C30081608093C3008091C0008260809318
:10189000C0008091C20081608093C20080917A0074
:1018A000846080937A0080917A00826080937A00CD
:1018B00080917A00816080937A0080917A008068BC
:1018C00080937A001092F90410927D0410927C04A7
:1018D0008091D70081608093D70080EA8093D80000
:1018E00089B5806189BD89B5826089BD09B400FE72
:1018F000FDCF61E070E080E090E00E948402809182
:10190000D8008F7C80618093D8008091E000807F38
:101910008093E0008091E1008E7E8093E1008DE075
:101920008093E200559A209A5D9828980FB6F89413
:10193000A89580916000886180936000109260009B
:101940000FBE8FEF9FEF909311058093100562E01B
:1019500082E00E94010262E087E00E94010262E0F0
:101960008AE00E94010262E080E10E94010262E0DE
:101970008EE00E94010262E08FE00E94010262E0BC
:1019800082E10E94010262E083E10E94010262E0C2
:1019900084E10E94010262E085E10E94010260E0B0
:1019A0008AE10E94010260E08BE10E94010261E095
:1019B00084E00E94010261E085E00E94010261E092
:1019C00086E00E94010261E083E00E94010280E063
:1019D0000E94090761E083E00E94010260E083E069
:1019E0000E94D30190E080E00E94DC07182F81E084
:1019F00090E00E94DC07982F812F8A35954A09F4E0
:101A0000BAC08EEB91E00E94F0050E942A060E9467
:101A1000F70788ED91E00E94E90580E491E00E94DB
:101A2000E9058AEF94E00E94F0058DEA92E00E94B9
:101A3000E90560911E0170E090E080E04AE00E94BC
:101A4000A5058DEB92E00E94E9058CE091E00E94F3
:101A5000E90586EC92E00E94E90580E491E00E94AD
:101A6000E9058AEF94E00E94F0058CEC92E00E9478
:101A7000E9058CE391E00E94E90586ED92E00E9481
:101A8000E90585E191E00E94F0050E94B60281E03F
:101A900090E09093E2048093E1040E94B602609388
:101AA000DD047093DE048093DF049093E0041092D1
:101AB000DC040E9429078091870481110BC066E92C
:101AC00070E080E090E00E9484020E94FE0581E0C8
:101AD000809387041E01B1E42B0E311C0E94B602D4
:101AE0004B015C018091E1049091E2048330910507
:101AF00009F0EBC10E94B6020091820410918304A8
:101B000020918404309185046B017C01C01AD10AB4
:101B1000E20AF30AA701960180917E04811105C0B3
:101B200081E080937E041092DC04283E83E0380735
:101B30004105510508F064C18FEF80937F048093C5
:101B4000DC040E9429078091800490918104892BF4
:101B500051F48DED92E00E94F00581E090E09093C9
:101B600081048093800480E090E0892B09F4B6CF53
:101B70000E940000B3CF82E090E00E94DC07D82EE4
:101B80008E010F591F4F5801E3E0EE2EF12CC701D3
:101B90000E94DC07D5018D935D01BFEFEB1AFB0AB4
:101BA000EBE0EE16F10499F75E01F1E4AF0EB11C23
:101BB0004501C7010E94DC07D4018D934D01BFEFA1
:101BC000EB1AFB0AE3E1EE16F10499F7D801189637
:101BD0001C92F5011086F2E0FD1508F47AC083E14D
:101BE00090E00E94DC07F82E24EE31E0A501B80158
:101BF0008D2D0E948404F81639F18EEE91E00E943A
:101C0000F0050E942A060E94F70788E092E00E94F1
:101C1000E90580E491E00E94E9058AEF94E00E94E2
:101C2000F0058DE192E00E94E9058CE091E00E94D0
:101C3000E90583EB91E00E94E90585E191E00E94CE
:101C4000E90589EB91E0E7CEA801485F5F4F90E09E
:101C500080E0D8012D918D01322F3F7D29F0FC01CC
:101C6000E45FFE4F208301960417150791F7009754
:101C700021F0845F9E4FFC011082A5E1B1E0A50137
:101C800090E080E0FA013191AF01232F2F7DD9F44C
:101C9000FC01EA0DFB1D21912F7DA9F4BF016A19FA
:101CA0007B0968307105BCF3009709F4AACF9C0149
:101CB00021503109F901EB5EFE4F4081403209F0BD
:101CC00008C6C901F1CF01963D9388309105D1F640
:101CD000EBCFF3E0DF1609F18BE292E00E94E90519
:101CE0006D2D70E090E080E04AE00E94A50588E458
:101CF00092E00E94E9054AE063E070E080E090E055
:101D00000E94A5058AE491E00E9498050E942A0697
:101D10000E94F7078BE492E07ECE9E012F5F3F4F3B
:101D200069014901C7010E94DC07D4018D934D016F
:101D3000BFEFEB1AFB0AECE1EE16F10499F71A86F5
:101D40008CE190E00E94DC07F82E9601A501B80115
:101D500083E00E948404F81659F084E692E00E9421
:101D6000F0050E942A060E94F7078CE792E053CE06
:101D7000A801485F5F4F90E080E0D8012D918D0170
:101D8000322F3F7D29F0FC01E45FFE4F2083019656
:101D90000417150791F7009721F0845F9E4FFC010F
:101DA0001082A5E1B1E0A50190E080E0FA01319157
:101DB000AF01232F2F7DD9F4FC01EA0DFB1D2191EA
:101DC0002F7DA9F4BF016A197B0968307105BCF346
:101DD000009709F487C59C0121503109F901EB5E98
:101DE000FE4F4081403209F079C5C901F1CF01961B
:101DF0003D9388309105D1F6EBCF8EE992E007CF85
:101E0000283893E139074105510528F5CA01B90180
:101E1000685E7340810991092AEF30E040E050E0AC
:101E20000E94BC152770332781E001C0880F2A95D6
:101E3000EAF780937F040E942907809180049091A3
:101E40008104019709F08FCE8FEE92E00E94F00599
:101E500082E090E084CE10927F042835ABE13A070F
:101E60004105510508F5AFEFB0E00E94A91568578C
:101E700074478341910920ED37E040E050E00E9433
:101E8000BC1520952093DC040E94290780918004D2
:101E900090918104029709F066CE8FEF92E00E9444
:101EA000F00583E090E05BCE1092DC040E942907ED
:101EB00010927E0482E090E09093E2048093E1042B
:101EC0008EE093E00E94F0054ECE019709F044C0E9
:101ED0008091DD049091DE04A091DF04B091E004D4
:101EE000A5019401281B390B4A0B5B0B283BBBE077
:101EF0003B074105510558F01092DC040E94290768
:101F000082E090E09093E2048093E1042CCE2C3D9B
:101F1000E5E03E074105510578F4AFEFB0E00E94DF
:101F2000A9152CED35E040E050E00E94BC1520934F
:101F3000DC040E94290717CE2C5D35404109510968
:101F4000AFEFB0E00E94A9152CED35E040E050E085
:101F50000E94BC152095EBCF84E095E00E946A04B6
:101F6000892B09F43CC484E095E00E9428048D305C
:101F700099F38A3009F48BE3E8E8F4E0019000205B
:101F8000E9F7E958F440EF33F10520F4E857FB4F47
:101F900080831182442443946BE370E088E894E0EA
:101FA0000E9410160097C1F2DC011C92A8E8B4E070
:101FB000AD014F5F5F4F2C912032A9F07E01E1E827
:101FC000EE0EF11C970170E060E0DE2CCF2C4D91FD
:101FD000442359F06F31710541F0F90141939F019C
:101FE0006F5F7F4FF4CFDA01E3CFFB01EE0DFF1DF2
:101FF0001082EE16FF0619F022912032C9F3BC01BF
:102000006F5F7F4FDB010D900020E9F7AD01461BAC
:10201000570B88E894E00E94FE15F7018081882321
:1020200009F4BACFFE01EF59FF4F90E080E08F0135
:10203000D7012D917D01222359F08F31910541F077
:102040003FE9320F3A3108F4205221930196F0CF44
:10205000800F911FFC0110826DE173E0C8010E94A6
:102060001B16892B71F061E273E0C8010E941B16F8
:10207000892B39F069E273E0C8010E941B16892B95
:1020800039F40E94FE05409287040E94B60284CF74
:102090006FE273E0C8010E941B16892B39F410927D
:1020A000860482E793E00E94F00576CF64E373E054
:1020B000C8010E941B16892B01F588E393E00E945A
:1020C000E90560E270E085E191E00E9410168C0164
:1020D000009781F0DC0111968C91882359F08DE3F3
:1020E00093E00E94E905C80101960E94E90582EC8F
:1020F00093E0D9CF85E191E0F8CF6FE373E0C801B9
:102100000E941B16892B31F485E493E00E94F005B0
:102110000E94A10460E573E0C8010E941B16892B90
:1021200019F40E94960638CF64E573E0C8010E9456
:102130001B16892BF1F48091E1049091E20402973F
:1021400009F02ACFE3E0F0E0F093E204E093E10449
:102150000E94B60260938204709383048093840487
:1021600090938504109281041092800489E593E095
:102170009ACF6AE370E08D2D9C2D0E941016892B5A
:1021800009F40ACFCF92DF9275E6C72E73E0D72EFF
:10219000DF92CF921F9280E48F9321E030E02C0FEA
:1021A0003D1F3F932F930E943316AE014F5F5F4F49
:1021B000CF55DF4F59834883C15AD0400FB6F894AA
:1021C000DEBF0FBECDBF90E080E0CF55DF4FA881CE
:1021D000B981C15AD0405D90CF55DF4FB983A883F4
:1021E000C15AD040BBE35B1609F4AAC3552009F4D9
:1021F000BEC38F3191054CF7F101E80FF91F5082F2
:102200000196E3CF7F013701F70181918032D1F34D
:10221000811103C05110D7CFBFCE6AE370E0C70170
:102220000E941016009709F07CC06DE173E0C701B1
:102230000E94670581110EC061E273E0C7010E9430
:102240006705811107C069E273E0C7010E94670555
:10225000882319F00E94FE05DDCF60E573E0C70119
:102260000E946705882319F00E949606D3CF64E583
:1022700073E0C7010E946705882301F18091E104A2
:102280009091E204029731F663E0C62ED12CD092F1
:10229000E204C092E1040E94B6026093820470934B
:1022A0008304809384049093850410928104109297
:1022B000800489E593E00E94F005ACCF69E673E005
:1022C000C7010E945005882309F4A4CF24E0E20E40
:1022D000F11C87013FEFE31AF30AD8018C91803299
:1022E000C1F36FE273E0C8010E945005882329F012
:1022F000109286048EE693E0DECF6CE773E0C801AF
:102300000E945005882309F485CF80918604882394
:1023100009F43DC20E94F7071092860482E893E018
:10232000F5CEDC011D92F70101900020E9F731970D
:10233000EE16FF0629F08291803211F41082F8CF58
:102340006701EFEFEE1AFE0AF60180818032C1F3D9
:102350008D01780198012F5F3F4FD8018C91803219
:1023600069F0F80101900020E9F731970E171F0777
:1023700039F08291803221F41082F8CF8901E9CFBF
:102380006CE973E0C6010E9467058823D1F080E004
:10239000F80141918F01442371F090ED940F923038
:1023A000B8F7282F30E0220F331F81E0413309F0C6
:1023B00080E0822BEDCF807C80937F040E942907F0
:1023C00029CF61EA73E0C6010E94670581115CC0F4
:1023D00064EA73E0C6010E946705811155C068EA8E
:1023E00073E0C6010E946705811114CF60E573E0B8
:1023F000C6010E94670581110DCF6DE173E0C60132
:102400000E946705811126CF6EEA73E0C6010E9423
:102410006705882309F472C0D7018C91882309F4D9
:10242000F9CE8701F7018081FFEFEF1AFF0A8032B2
:10243000C1F38B33B1F3882309F4ECCE6BE370E086
:10244000C8010E9410167C01009711F0DC011C925B
:1024500062EB73E0C8010E945005882349F1C8016E
:1024600003960E94270597FD1FC084369105F4F45A
:1024700080931E01E114F10409F455C2F7019BE3B6
:10248000C92EC1927F01C8CFC8010E94270597FDC0
:1024900007C08F3F910509F02CF48093DC048ECFA8
:1024A00080E0FBCF8FEFF9CF80E0E2CF83E6E0CF93
:1024B00068E771E0C8010E945005882361F048E098
:1024C00050E0B8016C5F7F4F8CE091E00E942416D1
:1024D00010921401CFCF64E671E0C8010E9450054C
:1024E000882341F248E050E0B8016D5F7F4F8AEFEA
:1024F00094E00E94241610920205BCCF69E673E0B6
:10250000C3010E945005882309F484CE24E0620EA2
:10251000711C73013FEF631A730AD7018C918032EB
:10252000C1F366EB73E0C7010E945005882379F080
:1025300065E471E0C8010E941B16892B29F44092C2
:1025400086048AEB93E0B7CE85EC93E0B4CE64EDDD
:1025500073E0C7010E945005882321F08091860412
:10256000811159C067ED73E0C7010E9450058111C8
:10257000A8C06FE273E0C7010E9450058111B8CE78
:1025800061E374E0C7010E945005882321F0809127
:1025900086048111EBC06CE773E0C7010E9450050F
:1025A0008111B3CE67E574E0C7010E94500588230E
:1025B00009F430CE80918604882309F42BCE98014B
:1025C0002F5F3F4FF8018081803209F4E3C0D801CA
:1025D0000D900020E9F7CD010197801B910B31E0B0
:1025E0008830910509F030E0F801AF01401B510B34
:1025F000481759070CF0D0C0332309F4EDC02191DE
:1026000040ED420F4A3088F32F7D215431E02630CF
:1026100060F330E0EACF78010F5F1F4FF701808150
:102620008032C9F36EE270E0C7010E9410168C017F
:10263000009709F443C0E816F90608F03FC0D70137
:102640000D900020E9F7CD01029708171907B0F5A2
:10265000F80111926F01C7010E9427057C01C60194
:102660000E9427052EE2D8012C93970121503109B1
:102670002930310500F58A309105E8F49F938F9356
:10268000FF92EF92ECEDF3E0FF93EF931F9289E05E
:102690008F9385E1E82E81E0F82EFF92EF920E9461
:1026A000331686EE93E00E94F0050FB6F894DEBF75
:1026B0000FBECDBFAFCD82EF93E0FDCD81E094E0C2
:1026C000FACD80918604882309F453CFD8017D90F8
:1026D0006D01B0E27B16B9F1F80101900020E9F735
:1026E00031977F01E01AF10AC70103970697D8F5E1
:1026F0006DE270E0C8010E9410160097A1F18C15E0
:102700009D0589F5872D770C990B0E94F61521E020
:10271000892B09F420E06801E2E0CE0ED11CE00E26
:10272000F11ECE14DF0489F02223E9F0D6018D9149
:102730006D01082E000C990B0E94F61521E0892BE3
:1027400081F720E0EECF8601C1CF222361F048E07F
:1027500050E0B8018CE091E00E9424161092140120
:1027600081E194E0A8CD8FE194E0A5CD65E374E02C
:10277000C8010E946705882339F00E94F70710926C
:10278000860489E394E0C2CC86E494E094CD8DE89D
:1027900093E091CD890113CF3323F1F0EAEFF4E018
:1027A0009801285F3F4FD8018D918D019FE9980FC7
:1027B000963008F48052819320173107A1F71092C8
:1027C00002058AE594E00E94E90580E491E00E9418
:1027D000E9058AEF94E06FCD85E694E06CCD8091B9
:1027E000D8049091D904A091DA04B091DB0475016A
:1027F0006401C81AD90AEA0AFB0AD701C6010A9776
:10280000A105B10508F4AFC98092D8049092D9040B
:10281000A092DA04B092DB040E94B4042091D704A1
:102820008091D604281307C09091D5048091D404D8
:10283000981709F44CC08091D0049091D104A091D4
:10284000D204B091D304B501A401481B590B6A0B03
:102850007B0B80911E0190E0B0E0A0E04817590783
:102860006A077B07A0F18092D0049092D104A092D5
:10287000D204B092D3042093D6048091D5048093DF
:10288000D40421E08091CE049091CF044091CC04F7
:102890005091CD04841B950B97FF03C091958195B2
:1028A000910903978CF48091CA049091CB044091D4
:1028B000C8045091C904841B950B97FF03C09195E0
:1028C000819591090397C4F10E9496064CC920E0B6
:1028D000D9CF8B5E9E4FDC011C9293C98B5E9E4FBD
:1028E000FC011082A601485F5F4F90E080E0D601B6
:1028F0002D916D01322F3F7D29F0FC01E650FB4FF9
:10290000208301964C155D0591F7FC01E650FB4FC5
:102910001082892B09F071CA0E942A060E94F707CB
:102920008CE892E074C9F80101900020E9F79F015A
:1029300021503109790170CD222309F414C9C4CF83
:10294000009709F440CC820D931DFC011082F10127
:1029500001900020E9F7319771012E163F0609F426
:1029600052CC8291803209F04ECC1082F6CF009783
:1029700009F412CBE8CFE4E0F5E01382128288EE8E
:1029800093E0A0E0B0E084839583A683B78387E2D9
:1029900091E0918380838FEF9FEF958784870895DF
:1029A0008F929F92AF92BF92CF92DF92EF92FF925F
:1029B000CF93DF93EC01688179818A819B816115D6
:1029C00071058105910521F464E279ED8BE597E0CD
:1029D0002DE133EF41E050E00E948A1549015A0190
:1029E0009B01AC01A7EAB1E40E94A9156B017C012F
:1029F000ACEEB4EFA50194010E94B715C60ED71E28
:102A0000E81EF91EF7FE06C081E0C81AD108E108E9
:102A100080E8F80AC882D982EA82FB82C701B6013F
:102A20009F77DF91CF91FF90EF90DF90CF90BF9095
:102A3000AF909F908F9008958F929F92AF92BF9288
:102A4000CF92DF92EF92FF9260911F01709120016F
:102A500080912101909122016115710581059105F7
:102A600021F464E279ED8BE597E02DE133EF41E06D
:102A700050E00E948A1549015A019B01AC01A7EA66
:102A8000B1E40E94A9156B017C01ACEEB4EFA50185
:102A900094010E94B715C60ED71EE81EF91EF7FE58
:102AA00006C081E0C81AD108E10880E8F80AC0929F
:102AB0001F01D0922001E0922101F0922201C70172
:102AC000B6019F77FF90EF90DF90CF90BF90AF90CF
:102AD0009F908F90089560931F01709320018093C1
:102AE0002101909322010895F999FECF92BD81BDF5
:102AF000F89A992780B50895262FF999FECF1FBA25
:102B000092BD81BD20BD0FB6F894FA9AF99A0FBE16
:102B100001960895052E97FB1EF400940E94A115BE
:102B200057FD07D00E94BC1507FC03D04EF40C944F
:102B3000A11550954095309521953F4F4F4F5F4FD0
:102B4000089590958095709561957F4F8F4F9F4F19
:102B500008950E94DE15A59F900DB49F900DA49F2F
:102B6000800D911D11240895B7FF0C94A9150E94A2
:102B7000A915821B930B0895A1E21A2EAA1BBB1B59
:102B8000FD010DC0AA1FBB1FEE1FFF1FA217B30739
:102B9000E407F50720F0A21BB30BE40BF50B661F4F
:102BA000771F881F991F1A9469F760957095809513
:102BB00090959B01AC01BD01CF010895A29FB0018A
:102BC000B39FC001A39F700D811D1124911DB29F61
:102BD000700D811D1124911D0895EE0FFF1F0590AA
:102BE000F491E02D099485FD0C943D1880629111BB
:102BF0000C943D1881568A51D8F7089568177907C3
:102C000068F4FB01DC01E40FF51FA40FB51F02C03F
:102C100002900E9241505040D8F708950C944B18F2
:102C2000FC018191861721F08823D9F7992708950F
:102C30003197CF010895FB01DC018D91019080193E
:102C40000110D9F3990B0895FB01DC01415050406C
:102C500048F001900D920020C9F701C01D9241502B
:102C60005040E0F70895AEE0B0E0E9E3F6E10C94FF
:102C7000FB180D891E898F89988D26E02C831A8375
:102C8000098397FF02C080E090E801979E838D83BF
:102C9000AE01455E5F4F698D7A8DCE0101960E942F
:102CA00063164D815E8157FD0AC02F81388542171A
:102CB00053070CF49A01020F131FF80110822E968D
:102CC000E4E00C941719ABE0B0E0E9E6F6E10C940F
:102CD000ED187C013B018A01FC0117821682838179
:102CE00081FFC8C1CE0101965C01F7019381F30118
:102CF00093FD859193FF81913F01882309F453C18E
:102D0000853239F493FD859193FF81913F0185329E
:102D100029F4B70190E00E945F18E7CF912C212C95
:102D2000312CFFE1F31538F08B3211F190F4803241
:102D300009F1833229F137FC3CC020ED280F2A30FD
:102D400050F536FE20C08AE0989E200D1124922E68
:102D500006C08D3291F0803371F7689430F8F3013A
:102D600093FD859193FF81913F018111DACF21C0BD
:102D7000689431F8689432F8F2CF689433F8EFCF62
:102D8000689434F8ECCFEAE02E9E200D1124222E18
:102D9000689435F8E4CF8E3229F436FC04C1689487
:102DA00036F8DDCF8C3619F4689437F8D8CF8836EA
:102DB000B1F2982F9F7D95549330E0F08336A1F1C6
:102DC0008337C1F1833509F063C02801F2E04F0E6B
:102DD000511CF801C080D180692D70E036FC02C022
:102DE0006FEF7FEFC6010E9440184C01689437F8DE
:102DF00082010AC00C5F1F4FFFE3F983882483948C
:102E0000912C6501E89437F833FE2DC0522C8114C3
:102E1000910471F5552009F468CFB70180E290E084
:102E20000E945F185A94F6CFF801808189830E5F63
:102E30001F4FE4CF2801F2E04F0E511CF801C08073
:102E4000D180692D70E036FC02C06FEF7FEFC601C4
:102E50000E9454184C018201D5CFB70180E290E066
:102E60000E945F182A942814190409F0B0F7CECFF5
:102E7000F60137FC859137FE81916F01B70190E033
:102E80000E945F1851105A94F1E08F1A9108BFCF39
:102E9000843619F0893609F077C0F80137FE6BC027
:102EA00060817181828193810C5F1F4FF32DFF76CA
:102EB0003F2E97FF09C090958095709561957F4F43
:102EC0008F4F9F4F689437F82AE030E0A5010E94A9
:102ED0008F18C82ECA188C2C432C36FE0CC0E894D0
:102EE00040F8C91440F434FE05C032FC03C0F32D91
:102EF000FE7E4F2E892C44FE95C0FE01EC0DF11D87
:102F00008081803309F087C0242D297E422E842DB4
:102F10008870582E43FC95C040FE8FC09C2C8214B4
:102F200018F42C0C922C981844FE91C0B70180E341
:102F300090E00E945F1842FE09C088E790E041FEE1
:102F400002C088E590E0B7010E945F18C91408F438
:102F50008AC0CA94D12C9FEFC91AD90ACA0CDB1CAB
:102F6000F60182916F01B70190E00E945F18AC14E6
:102F7000BD04B1F74FCF60817181072E000C880B23
:102F8000990B0E5F1F4F92CFD32CE894D4F82AE010
:102F900030E0853739F1232D297FD22E8F3601F18C
:102FA00048F48835A9F0F701868197812B96E2E1F4
:102FB0000C940919803749F08837A9F7D4FE02C06C
:102FC0006894D2F820E130E00DC06894D4F8F6CFD0
:102FD00034FE03C0822F8660D82E20E132E002C08A
:102FE00028E030E0F801D7FE0FC060817181828156
:102FF00093810C5F1F4FA5010E948F18C82ECA181D
:103000003D2CE89437F867CF6081718190E080E0D3
:103010000E5F1F4FF0CF42FC02C0839478CF8394A1
:10302000839475CF842D867809F471CFF6CFB701DC
:1030300080E290E00E945F1883948214C0F3512CC8
:1030400073CF522C5818821408F46ECFF8CF842D09
:10305000867809F47BCF8BE241FE80E247FC8DE26B
:10306000B70190E071CFB70180E390E00E945F1854
:103070009A946CCF8FEF9FEF99CF99278827089567
:10308000FC010590615070400110D8F78095909533
:103090008E0F9F1F0895FB01DC0102C001900D926D
:1030A00041505040D8F70895FC01615070400190A4
:1030B0000110D8F7809590958E0F9F1F08950F935C
:1030C0001F93CF93DF93182F092FEB018B8181FD85
:1030D00009C01FEF0FEF812F902FDF91CF911F912C
:1030E0000F91089582FF14C02E813F818C819D81B4
:1030F000281739073CF4E881F981CF0101969983BB
:10310000888310838E819F8101969F838E83E3CF76
:10311000E885F985812F0995892BA1F3DACFFA018A
:10312000AA27283051F1203181F1E8946F936E7F06
:103130006E5F7F4F8F4F9F4FAF4FB1E03ED0B4E0F7
:103140003CD0670F781F891F9A1FA11D680F791F38
:103150008A1F911DA11D6A0F711D811D911DA11D49
:1031600020D009F468943F912AE0269F1124301959
:10317000305D3193DEF6CF010895462F4770405DF4
:103180004193B3E00FD0C9F7F6CF462F4F70405DA3
:103190004A3318F0495D31FD4052419302D0A9F7FE
:1031A000EACFB4E0A6959795879577956795BA95F8
:1031B000C9F700976105710508959B01AC010A2EBE
:1031C00006945795479537952795BA95C9F7620F95
:1031D000731F841F951FA01D08952F923F924F9239
:1031E0005F926F927F928F929F92AF92BF92CF9297
:1031F000DF92EF92FF920F931F93CF93DF93CDB7A0
:10320000DEB7CA1BDB0B0FB6F894DEBF0FBECDBF17
:1032100009942A88398848885F846E847D848C84E8
:103220009B84AA84B984C884DF80EE80FD800C81F1
:103230001B81AA81B981CE0FD11D0FB6F894DEBFD4
:0C3240000FBECDBFED010895F894FFCF44
:10324C00FFFFFFFF00E1000000000000442D4133B0
:10325C00323000000050434220312E3000000C016F
:10326C00000000000000000C048703240422046A00
:10327C00042804460400C18081000000312E310076
:10328C005758522D0030383135000D0A004944454D
:10329C004E543A005758522C2076312E31204D4145
:1032AC0051002C20534E3A003B53544154453A5252
:1032BC00554E4E494E473B005245473A003031324D
:1032CC003334353637383941424344454600494E4C
:1032DC00313A00494E323A00504F54313A00504F77
:1032EC0054323A004346473A53415645443A5245C4
:1032FC00473D003B5043423D003B534E3D0043464F
:10330C00473A454550524F4D3A4D414749435F4D21
:10331C00495353494E473B004346473A534E3A4E66
:10332C0045573A0020202020202020202000434612
:10333C00473A454550524F4D3A4352435F464149F7
:10334C004C5F763176323B004346473A534E3A5502
:10335C005047524144455F763176323A00434647F6
:10336C003A4C4F41443A5245473D004346473A4553
:10337C004550524F4D3A56455253494F4E5F4D4969
:10338C00534D415443483A00213D004346473A537C
:10339C004E3A4E45575F5645525F4D49534D415439
:1033AC0043483A004346473A454550524F4D3A43FD
:1033BC0052435F4641494C5F76333B004346473AA4
:1033CC00534E3A4E45575F4352433A004346473AB1
:1033DC00534E3A4E45575F454D5054593A0043466B
:1033EC00473A534E3A4C4F414445443A00534554A6
:1033FC0055503A4465626F756E63653D006D732C74
:10340C00205245473D002C20534E3D00534554550A
:10341C00503A46573D002C205043423D0044494110
:10342C00473A4C4544315F414C4C5F4F4E3B004456
:10343C004941473A4C4544315F57414C4B3B004462
:10344C004941473A4C4544315F4F46463B0044495D
:10345C0041473A434F4D504C4554453B005645521D
:10346C000056455253494F4E004944454E54004571
:10347C0058495400504342005043423A007600529F
:10348C00455345540052455345543A4F4B203B004D
:10349C00524551004449414700444941473A53542D
:1034AC004152543B0025733B005345542000534577
:1034BC005420455849543A4F4B203B0057524954DD
:1034CC00450057524954453A4F4B203B00575249FF
:1034DC0054453A4C4F434B4544203B004C454431FA
:1034EC0000424C00424C5400535441544500434656
:1034FC00470044454200454E410053455420454E3B
:10350C00413E203B0053455420454E413A464149EB
:10351C004C203B0046570041434944005043622035
:10352C0025642E2564005345542046573A4F4B20B2
:10353C003B005345542046573A52414E4745203B99
:10354C00005345542046573A464F524D4154203B68
:10355C000053455420414349443A4F4B203B0053C0
:10356C00455420414349443A464F524D4154203B27
:10357C00005752490059455300534554205752495E
:10358C003A4F4B203B00534554205752493A464F33
:10359C00524D4154203B00534E0053455420534E42
:1035AC003A4F4B3A0053455420534E3A464F524DE6
:0635BC004154203B000019
:00000001FF
