:100000000C94DB000C9403010C9403010C94030189
:100010000C9403010C9403010C9403010C94030150
:100020000C9403010C9403010C94C90F0C9446101A
:100030000C9403010C9403010C9403010C94030130
:100040000C9403010C9403010C9403010C94030120
:100050000C9403010C9403010C9403010C947F0F86
:100060000C9403010C9403010C9403010C94030100
:100070000C9403010C9403010C9403010C940301F0
:100080000C9403010C9403010C9403010C940301E0
:100090000C9403010C9403010C9403010C940301D0
:1000A0000C9403010C9403010C940301080B00024F
:1000B0000202000009040000010202000005240001
:1000C0001001052401010104240206052406000193
:1000D0000705810310004009040100020A00000026
:1000E00007050202400000070583024000000403E8
:1000F000090412010002EF02014041233780000190
:100100000102030141726475696E6F204C4C43001B
:1001100041726475696E6F204D6963726F000706E6
:1001200005040100080A0B0C0D0900000000240062
:1001300027002A002D0030000000000025002800C4
:100140002B002E00310000000000230026002900B3
:100150002C002F000404040404030405020202021C
:100160000403020202020606060606060404020250
:100170000204040408020110408040102040804026
:1001800080080204018040201002011080102040ED
:1001900040200000000200090F0000030401000CD1
:1001A000000000000000000000000000000000004F
:1001B000000078128D1511241FBECFEFDAE0DEBFEC
:1001C000CDBF12E0A0E0B1E0E8E5F8E302C00590A1
:1001D0000D92A63EB107D9F723E0A6EEB2E001C02A
:1001E0001D92A239B207E1F710E0CAEDD0E004C0D9
:1001F0002197FE010E942D17C93DD107C9F70E9422
:1002000092120C941F1C0C940000CF93DF93FC01FE
:10021000389623E030E0EC01A991CE012A0F311D80
:10022000EC17FD07C1F7FB01CB0108966191260F82
:10023000311D8E179F07D1F7FA01CA010996419126
:10024000240F311D8E179F07D1F7822FDF91CF9199
:10025000089583E08093E9008091F200882319F0EB
:100260008AE38093E8000895FC0180912D038823A0
:1002700011F13FB7F89482E08093E9002091F200F9
:10028000822F90E01816190614F481E090E088237C
:1002900039F0289A44E640932C034091F1004083C2
:1002A000222339F02091F200211103C02BE6209384
:1002B000E8003FBF08958FEF9FEF08952FB7F894A0
:1002C00083E08093E9009091E800892F807295FF88
:1002D00004C09091F20080E4891B2FBF08958091A3
:1002E000240381110DC082E08093200384E0809379
:1002F0002103109223031092220381E080932403B0
:1003000080E293E0089581508F3008F047C0E82FD5
:10031000F0E0E357FE4F0C942D17AA01AE019C01AB
:10032000A201A601CE01CE01CE01B101B701BB01F0
:10033000BF01C501CE01C901809180008F778093F4
:1003400080000895809180008F7DF9CF809180009A
:10035000877FF5CF84B58F7784BD089584B58F7D71
:10036000FBCF809190008F778093900008958091CB
:1003700090008F7DF9CF80919000877FF5CF80919D
:10038000C0008F778093C00008958091C0008F7D5A
:10039000F9CF8091C200877F8093C2000895CF93E8
:1003A000DF93282F30E0F901EE56FE4F8491F901DA
:1003B000ED58FE4FD491F901EC5AFE4FC491CC2375
:1003C000A1F081110E948301EC2FF0E0EE0FFF1FDE
:1003D000EA5BFE4FA591B491EC91ED2381E090E0B2
:1003E00009F480E0DF91CF91089580E090E0FACFAA
:1003F0001F93CF93DF93282F30E0F901EE56FE4F85
:100400008491F901ED58FE4FD491F901EC5AFE4F59
:10041000C491CC23A9F0162F81110E948301EC2FE7
:10042000F0E0EE0FFF1FE85CFE4FA591B4918FB78F
:10043000F894EC91111108C0D095DE23DC938FBFA6
:10044000DF91CF911F910895DE2BF8CFCF93DF93EB
:1004500090E0FC01ED58FE4F24918C5A9E4FFC0118
:1004600084918823D1F090E0880F991FFC01E65D0C
:10047000FE4FA591B491FC01E85CFE4FC591D4916B
:10048000623071F49FB7F8943C91822F809583235A
:100490008C93E8812E2B28839FBFDF91CF91089505
:1004A0008FB7F894EC912E2B2C938FBFF6CF8251FF
:1004B000E82FF0E0E25EFE4FE49190917B008E2FFA
:1004C000880F880F80729F7D892B80937B00E77057
:1004D000E064E0937C0080917A00806480937A00ED
:1004E00080917A0086FDFCCF809178009091790010
:1004F00008953FB7F89480911C0390911D03A0913B
:100500001E03B0911F0326B5A89B05C02F3F19F00D
:100510000196A11DB11D3FBFBA2FA92F982F882783
:10052000BC01CD01620F711D811D911D42E0660F5E
:10053000771F881F991F4A95D1F708958F929F9230
:10054000AF92BF92CF92DF92EF92FF924B015C018C
:100550000E9479026B017C010E9479026C197D096D
:100560008E099F09683E734081059105A8F321E03B
:10057000821A9108A108B10888EEC80E83E0D81E3F
:10058000E11CF11C81149104A104B10429F7FF902E
:10059000EF90DF90CF90BF90AF909F908F90089595
:1005A000FC01248135816217730748F480819181B1
:1005B000009729F0860F971FFC018081089580E045
:1005C000089508954091EF025091F0022091ED02BC
:1005D0003091EE0242175307B4F49091E800957001
:1005E000E1F39091E80092FD19C08093F1008091B1
:1005F000EF029091F00201968F739927892B19F4DD
:100600008EEF8093E8008091EF029091F0020196C6
:100610009093F0028093EF0281E0089580E00895C6
:10062000EF92FF920F931F93CF93DF93F82E192F22
:10063000E62E042F81E0860F880F0E94E20283E0FD
:100640000E94E202CF2DD12FEC0EFD2EF11CCE1513
:10065000DF05B9F007FF13C0FE0184910E94E2029A
:10066000182F80E00E94E202812321968111EFCFB2
:10067000DF91CF911F910F91FF90EF9008958881A6
:10068000EDCF81E0F5CFDF92EF92FF920F931F93B2
:10069000CF93DF93D82E8A01EB017B01E40EF51E88
:1006A000CE15DF0559F0D7FE12C0FE0184910E94DD
:1006B000E20221968111F4CF0FEF1FEFC801DF9105
:1006C000CF911F910F91FF90EF90DF900895888157
:1006D000EECF0F931F93CF93DF931F92CDB7DEB76B
:1006E00082E0898342E450E06CEA70E080E80E9496
:1006F00043030E946F01DC0112960D911C910115BC
:10070000110589F0D801ED91FC910280F381E02D73
:10071000BE016F5F7F4FC801099597FD04C0F801C6
:1007200000851185ECCF89810F90DF91CF911F91CA
:100730000F910895615030F02091F100FC01208369
:100740000196F8CF289A84E680932C0308958F921F
:100750009F92AF92BF92CF92DF92EF92FF920F9350
:100760001F93CF93DF936C017B018A0180910B0172
:10077000882309F45CC080912D03882309F457C0B5
:100780008091F30280FF05C08091E0008260809339
:10079000E000E801B12C8AEFA82E93E0892E2AE32D
:1007A000922E209711F4BB20D9F10E945E01811195
:1007B0000AC0AA94AA20D9F161E070E080E090E03C
:1007C0000E949E02EECF8C171D0611F00CF08C2FAC
:1007D0009FB7F8948092E9002091E80025FD02C0BF
:1007E0009FBFDFCF282F30E0C21BD30BF701815012
:1007F00020F041914093F100FACFE20EF31EBB20AE
:1008000021F09092E800B12CEBCF8091E80085FDBB
:10081000E7CF9092E800BB24B394209709F3F3CF7D
:100820005D9A84E68093F202101611063CF081E096
:1008300090E0F6019383828310E000E0C801DF912D
:10084000CF911F910F91FF90EF90DF90CF90BF90CD
:10085000AF909F908F900895CF93DF931F92CDB765
:10086000DEB76983DC01ED91FC910280F381E02D1C
:1008700041E050E0BE016F5F7F4F09950F90DF911F
:10088000CF9108950C9429010E945E0190E0089593
:10089000CF93DF931F92CDB7DEB7FC01848595859A
:1008A00097FD08C02FEF3FEF358724870F90DF912A
:1008B000CF910895CE0101960E943401019719F459
:1008C000898190E0F3CF8FEF9FEFF0CF0F931F93CD
:1008D000CF93DF931F92CDB7DEB78C01FC018485E7
:1008E000958597FF0BC0CE0101960E9434010197B8
:1008F00071F4898190E0F80195878487F8018485F7
:1009000095850F90DF91CF911F910F9108958FEFF3
:100910009FEFF1CFFC018485958597FD0BC09FB7B4
:10092000F89482E08093E9008091F2009FBF90E00C
:10093000019608959FB7F89482E08093E900809132
:10094000F2009FBF90E008950E94290162E370E0E9
:1009500080E090E00E949E0288E198E00FB6F89453
:10096000A895809360000FBE90936000FFCFCF9258
:10097000DF92EF92FF920F931F93CF937C01FC01C4
:10098000C480D58010E000E0C0E00C151D05A1F08A
:10099000B801C7010E94D00290ED980F923048F440
:1009A0002C2F30E0220F331FC1E0813309F0C0E06B
:1009B000C22B0F5F1F4FE9CF8C2FCF911F910F914B
:1009C000FF90EF90DF90CF900895CF92DF92EF925B
:1009D000FF920F931F93CF93DF93CDB7DEB761974D
:1009E0000FB6F894DEBF0FBECDBF82E10E94570262
:1009F0008C0183E10E945702080F191F84E10E94B5
:100A000057027C010E94790298012E0D3F1D890139
:100A1000330F220B330B600F711F821F931F611561
:100A200071058105910511F00E942C1681E1EEE41B
:100A3000F1E0DE01119601900D928A95E1F70EE248
:100A400013E080E1C82ED12CE12CF12C0E94DD15A1
:100A5000A70196010E94931621E030E02C0F3D1F64
:100A6000620F731FFB018081F80181938F01F3E016
:100A700006331F0759F71092360361960FB6F894A4
:100A8000DEBF0FBECDBFDF91CF911F910F91FF90C1
:100A9000EF90DF90CF900895FC0101900020E9F7DE
:100AA0003197AF01481B590BBC0188E393E00C94CC
:100AB000A703009711F00C944C0590E080E0089596
:100AC000CF93DF930E944C05EC018FE591E00E94EB
:100AD0004C058C0F9D1FDF91CF91089582E691E028
:100AE0000E94590589E691E00E94590580912E03E4
:100AF000882361F08CE791E00E9459058AE291E039
:100B00000E9459058EE293E00E94590582E891E027
:100B10000E94590582E991E00E94590585E191E022
:100B20000E94590580E092E00E9459058FE591E00E
:100B30000C944C058F929F92AF92BF92CF92DF920E
:100B4000EF92FF920F931F93CF93DF93CDB7DEB752
:100B5000A1970FB6F894DEBF0FBECDBF6C01990F01
:100B6000EE08FF08F7FE41C06DE288E393E00E94C3
:100B70002C048C0122273327A9012C193D094E0989
:100B80005F0919A2CE0181967C019AE0892E912CF1
:100B9000A12CB12CCA01B901A50194010E94FC1637
:100BA000605DF70162937F01211531054105510513
:100BB00089F790E080E0309719F0CF010E944C0552
:100BC000800F911FA1960FB6F894DEBF0FBECDBF68
:100BD000DF91CF911F910F91FF90EF90DF90CF9019
:100BE000BF90AF909F908F900895A701960119A292
:100BF0008E010F5D1F4F8AE0C82ED12CE12CF12C05
:100C0000CA01B901A70196010E94FC16605DF801B6
:100C100062938F01211531054105510589F790E057
:100C200080E0309779F2CF010E944C05CBCF1F9323
:100C3000CF93DF931091100380E011118FE3C091E7
:100C4000EC02C07CC82B60E08EE00E94F801D8E086
:100C50006C2F661F6627661F80E10E94F801CC0F8B
:100C600061E08FE00E94F80160E08FE00E94F801EF
:100C7000D15071F761E08EE00E94F801C091EB0263
:100C80006C2F617082E00E94F801C1FB662760F959
:100C900083E00E94F801CFEFD0E0C11BD10961E0F1
:100CA00089E00E942602209739F460E089E0DF9114
:100CB000CF911F910C94F801CF3FD10511F461E061
:100CC000F5CFEBE9F1E0E491E150EF3008F07FC0BF
:100CD000F0E0E359F94F0C942D177C068406890641
:100CE00093069D06E706E706E706A706B106BB06DC
:100CF000C506D206E706DA0684B5806884BDC7BD9E
:100D0000DF91CF911F91089584B5806284BDC8BDE5
:100D1000F7CF80918000806880938000D093890015
:100D2000C0938800EDCF8091800080628093800026
:100D3000D0938B00C0938A00E3CF809180008860BD
:100D400080938000D0938D00C0938C00D9CF809188
:100D50009000806880939000D0939900C093980091
:100D6000CFCF80919000806280939000D0939B00C1
:100D7000C0939A00C5CF80919000886080939000C6
:100D8000D0939D00C0939C00BBCF8091C000806831
:100D90008093C0008091C0008F7B8093C000C0937F
:100DA000CF00AECF8091C00080628093C000C0931E
:100DB000D000A6CF8091C20088608093C20080914D
:100DC000C2008B7F8093C200C093D20099CFC038FD
:100DD000D1050CF074CF69CFFC018081918100971F
:100DE00011F00C94351660E070E0CB010895AF92DD
:100DF000BF92CF92DF92EF92FF920F931F93CF9308
:100E0000DF93DC01CD90DC901197C114D10439F04F
:100E10001496CD91DC918C017601209761F4DF91DD
:100E2000CF911F910F91FF90EF90DF90CF90BF90E7
:100E3000AF90089575015701BFEFAB1ABB0AF701D8
:100E40008081082E000C990B0E947116892B91F756
:100E50002197CC0DDD1D8881082E000C990B0E9476
:100E60007116892B29F0CE15DF0510F02197F3CFED
:100E7000AE014F5F5F4F4E195F09D80115965C9325
:100E80004E931497CE14DF0420F4B701C6010E94DC
:100E90003019D801ED91FC91119714968D919C9188
:100EA000E80FF91F1082BBCFCF93DF93FC01C08105
:100EB000D181209761F08991882349F0082E000C98
:100EC000990B0E942819FE0131978083F4CFDF919E
:100ED000CF910895CF93DF93FC0124813581421790
:100EE000530788F4C081D181062E000C770BCE0108
:100EF000840F951F0E943919009729F08C1B9D0BB8
:100F0000DF91CF9108958FEF9FEFFACFEF92FF928D
:100F10000F931F93CF93DF938617970769F1FC0117
:100F200024813581FB014481558124173507E1F483
:100F3000232B11F1FC0100811181FB01C081D181C2
:100F4000F80181918F018823B9F0082E000C990BCC
:100F50000E9420197C018991082E000C990B0E9497
:100F60002019E816F90661F380E0DF91CF911F9117
:100F70000F91FF90EF90089581E0F7CFFC0124815D
:100F80003581232B39F421E0FB018081882349F04E
:100F900020E007C0808191810E94441921E0892BC3
:100FA000B9F7822F08950F931F93CF93DF938C018E
:100FB000EB01FC01808191810097E1F068817981EA
:100FC00061157105A9F0428153812C813D81421741
:100FD000530770F00E944D198C819D81F801958313
:100FE00084831D821C82DF91CF911F910F91089500
:100FF0000E94CF1788819981F801918380838A812B
:101000009B81938382838C819D81958384831982C4
:1010100018821B821A82E5CFCF93DF93EC0188817F
:101020009981009711F00E94CF17198218821D82B2
:101030001C821B821A82DF91CF910895FC0180816E
:101040009181009711F00C94CF1708950F931F937F
:10105000CF93DF93EC0188819981009759F02A8121
:101060003B812617370730F081E0DF91CF911F9148
:101070000F9108958B016F5F7F4F0E945818009762
:1010800059F0998388831B830A832C813D81232B0C
:1010900059F7FC011082E8CF80E0E7CFEF92FF9292
:1010A0000F931F93CF93DF9341155105B1F07B014F
:1010B000EC010C811D81040F151FB8010E94260848
:1010C000882361F0288139818C819D81B701820F4D
:1010D000931F0E944D191D830C8381E0DF91CF91F6
:1010E0001F910F91FF90EF900895EF92FF920F9351
:1010F0001F93CF93DF93EC017B018A01BA010E9419
:10110000260881110BC0CE010E940C08CE01DF9190
:10111000CF911F910F91FF90EF9008951D830C8345
:10112000B701888199810E944D19F0CFCF93DF9349
:10113000EC01FB018617970749F060817181611509
:10114000710541F0448155810E947508CE01DF91FF
:10115000CF9108950E940C08F9CFFC0111821082F2
:101160001382128215821482FB0101900020E9F79C
:101170003197AF01461B570B0C947508AF92BF9285
:10118000CF92DF92EF92FF920F931F93CF93DF9353
:101190007C016B015A0189012417350720F48B2D3E
:1011A0005901042F182F61E671E0C7010E94AD08B4
:1011B000D6011496CD91DC91AC16BD0620F50C1726
:1011C0001D0708F4E801D601ED91FC911197EC0F91
:1011D000FD1F108110826D917C916A0D7B1D611540
:1011E0007105E9F0FB0101900020E9F73197AF01AB
:1011F000461B570BC7010E947508F601808191813B
:10120000C80FD91F1883C701DF91CF911F910F918C
:10121000FF90EF90DF90CF90BF90AF900895C701FF
:101220000E940C08EACF8F929F92AF92BF92EF92EA
:10123000FF920F931F93CF93DF93CDB7DEB728971D
:101240000FB6F894DEBF0FBECDBF8FB7F894809075
:10125000180390901903A0901A03B0901B038FBF3E
:101260008091F502811115C08091E6029091E7020C
:10127000A091E802B091E902A5019401281B390B65
:101280004A0B5B0BDA01C9010A97A105B10508F405
:101290006FC087E991E00E945905E090070361E67D
:1012A00071E0CE0101960E94AD0807E010E0F12C3C
:1012B000C701002E02C0959587950A94E2F780FD3C
:1012C00068C080E38F83188641E050E0BE01695F0B
:1012D0007F4FCE0101960E944E080150110940F740
:1012E0004D815E8169817A8188E393E00E94A70342
:1012F000CE0101960E941E0880E092E00E945905EE
:101300008CE991E00E9459058091000390910103BE
:101310000E949A0580E092E00E94590580EA91E0DF
:101320000E9459058091FC029091FD020E949A054D
:1013300080E092E00E94590584EA91E00E945905FC
:101340008091F8029091F9020E949A0580E092E063
:101350000E9459058FE591E00E944C058092E602BB
:101360009092E702A092E802B092E9021092F50290
:1013700028960FB6F894DEBF0FBECDBFDF91CF9198
:101380001F910F91FF90EF90BF90AF909F908F9023
:10139000089581E397CF0C947D16FF920F931F93CE
:1013A000CF93DF93EC01F62E08811981C8010E94CA
:1013B0007D16F81621F06F2DC8010E948516CE010A
:1013C000DF91CF911F910F91FF9008954F925F92FF
:1013D0006F927F928F929F92AF92BF92CF92DF9245
:1013E000EF92FF920F931F93CF93DF93CDB7DEB7AA
:1013F0006B970FB6F894DEBF0FBECDBF25E131E08D
:10140000F90101900020E9F79F01265131405E016A
:10141000FAE0AF0EB11CF50190E080E0450140E23A
:101420008217930724F4DC01AB5EBE4F4C914193CD
:1014300001968830910599F72CE031E0F90101908F
:101440000020E9F79F012D5031406E01F2E1CF0EEF
:10145000D11CF60190E080E0360140E2821793074C
:1014600024F4DC01A45FBE4F4C9141930196883077
:10147000910599F72EE233E0F90101900020E9F798
:101480009F012F523340CE0101967C01FC0190E078
:1014900080E0270140E28217930724F4DC01A25D7B
:1014A000BC4F4C91419301968830910599F719866C
:1014B0001B8E1A8E6AE5CE014A960E94CD0981E004
:1014C00090E09B8F8A8F65EACE014A960E94CD09F3
:1014D00082E090E09B8F8A8F63E0CE014A960E9463
:1014E000CD0903E010E0F50161915F011B8F0A8FC8
:1014F000CE014A960E94CD090F5F1F4F0B30110598
:1015000091F7F60161916F011B8F0A8FCE014A9608
:101510000E94CD090F5F1F4F0331110591F7F701AD
:1015200061917F011B8F0A8FCE014A960E94CD09DF
:101530000F5F1F4F0C31110591F7A201B301C401D8
:101540000E9405011B8F0A8F682FCE014A960E94C8
:10155000CD096B960FB6F894DEBF0FBECDBFDF91FD
:10156000CF911F910F91FF90EF90DF90CF90BF90A0
:10157000AF909F908F907F906F905F904F90089565
:101580002F923F924F925F926F927F928F929F9293
:10159000AF92BF92CF92DF92EF92FF920F931F9381
:1015A000CF93DF93CDB7DEB7EC970FB6F894DEBFDD
:1015B0000FBECDBF88E393E00E948A04892B09F413
:1015C00085C488E393E00E9448048D3099F38A3003
:1015D00009F48BE389831A8241E050E0BE016F5F1A
:1015E0007F4F88E893E00E944E0850E040E06BE3B4
:1015F00088E893E00E946A078C0197FDDBCF9C018D
:1016000050E040E068E873E0CE01C1960E94BE0859
:10161000CE01C1960E94F70620918C0330918D0374
:10162000A8014F5F5F4F68E873E0CE0101960E940A
:10163000BE08BE016F5F7F4F88E893E00E94D3072A
:10164000CE0101960E941E088DA99EA9892B09F43E
:101650003EC01CA61BA61EA61DA618AA1FA6BE013C
:101660006F5C7F4FCE018B960E949608CE018B96C1
:101670000E94540768EA71E0CE018B960E94BE0773
:10168000811108C06CEA71E0CE018B960E94BE0702
:10169000882311F10E946E052FB7F89480911803EA
:1016A00090911903A0911A03B0911B032FBF885387
:1016B0009F4FAF4FBF4F80930C0390930D03A093A8
:1016C0000E03B0930F03CE018B960E941E08CE012D
:1016D000C1960E941E0889CF64EB71E0CE018B9603
:1016E0000E94BE07882319F00E941309ECCF68EB13
:1016F00071E0CE018B960E94BE07882331F08EEBFD
:1017000091E00E9460050E94A40450E040E06AE37A
:10171000CE01C1960E946A0797FDD5CF18AE1FAAC9
:101720001AAE19AE1CAE1BAEBE016F5C7F4FCE0170
:10173000C7960E94960841E050E060E072E0CE015A
:10174000C7960E944E08811104C0CE01C7960E9420
:101750000C08F12CE12C99E2292E92E0392E2CE094
:10176000C22E21E0D22EA7016BE3CE01C7960E94C4
:101770006A078C0197FD98C39C01A701BE01695CB3
:101780007F4FCE0185960E94BE0878018FEFE81A40
:10179000F80ACE0185960E94F70689A59AA5892B9D
:1017A00089F150E040E06AE3CE0185960E946A0725
:1017B0008C0197FF41C01A8219821C821B821E82F3
:1017C0001D82BE016B5D7F4FCE0101960E9496087F
:1017D000CE0101960E94540768EA71E0CE0101969D
:1017E0000E94BE07811108C06CEA71E0CE0101962B
:1017F0000E94BE07882359F00E946E05CE01019613
:101800000E941E08CE0185960E941E08ACCF64EB94
:1018100071E0CE0101960E94BE07882321F091E07D
:101820009093F502EBCF68EB71E0CE0101960E9438
:10183000BE07882319F363CF9C0150E040E0BE014E
:101840006B5D7F4FCE014F960E94BE08CE014F9632
:101850000E94F70629A53AA5A8014F5F5F4FBE0178
:101860006B5D7F4FCE0149960E94BE08CE0149961E
:101870000E94F70669EC71E0CE0101960E94AD0866
:10188000BE016F5F7F4FCE014F960E948607182FD3
:10189000CE0101960E941E08112381F0CE014996C7
:1018A0000E94B704807C8093EC020E941706CE0150
:1018B00049960E941E08CE014F96A2CF6EEC71E0B1
:1018C000CE0101960E94AD08BE016F5F7F4FCE0131
:1018D0004F960E948607182FCE0101960E941E087F
:1018E000112339F0CE0149960E94B7048093EB0290
:1018F000DCCF63ED71E0CE0101960E94AD08BE0120
:101900006F5F7F4FCE014F960E948607182FCE0142
:1019100001960E941E08112399F0CE0149960E945B
:10192000EC0697FD09C06F3F71058105910509F02F
:101930002CF460931003B9CF60E0FBCF6FEFF9CFC9
:1019400066ED71E0CE0101960E94AD08BE016F5FA9
:101950007F4FCE014F960E948607182FCE01019629
:101960000E941E081123C9F0CE0149960E94EC0680
:10197000161617061806190654F465367105810502
:10198000910544F470931F0160931E0190CF61E0B4
:1019900070E0F8CF64E670E0F5CF6EED71E0CE0157
:1019A00001960E94AD08BE016F5F7F4FCE014F963A
:1019B0000E948607182FCE0101960E941E08111161
:1019C00076CF66EE71E0CE0101960E94AD08BE01B1
:1019D0006F5F7F4FCE014F960E948607182FCE0172
:1019E00001960E941E08111162CF64EB71E0CE01D6
:1019F00001960E94AD08BE016F5F7F4FCE014F96EA
:101A00000E948607182FCE0101960E941E081123FE
:101A100021F0E1E0E093F5024ACF68EA71E0CE01FF
:101A200001960E94AD08BE016F5F7F4FCE014F96B9
:101A30000E948607182FCE0101960E941E081123CE
:101A400019F00E946E0533CF6AEB71E0CE0101966A
:101A50000E94AD08BE016F5F7F4FCE014F960E947E
:101A6000860711E0811120C06EEE71E0CE0107966D
:101A70000E94AD084B855C858BA19CA184179507BE
:101A800070F08F8D98A1009751F06F817885611566
:101A9000710529F00E94541911E0892B09F010E01A
:101AA000CE0107960E941E08CE0101960E941E08D4
:101AB000112309F4FCCE61E671E0CE0143960E9449
:101AC000AD086AEB71E0CE0101960E94AD08BE013F
:101AD0006F5F7F4FCE014F960E948607182FCE0171
:101AE00001960E941E08112309F44CC0BE01675ED6
:101AF0007F4FCE0143960E949608CE0143960E94E6
:101B0000F70650E040E06AE3CE0143960E946A0780
:101B10008C0197FD56C09C0150E040E0BE016D5E17
:101B20007F4FCE010D960E94BE082F89388DA801E7
:101B30004F5F5F4FBE016D5E7F4FCE0107960E94E3
:101B4000BE08CE010D960E945407CE0107960E9452
:101B5000F70663EF71E0CE010D960E94BE07882361
:101B600009F446C060E371E0CE0107960E94BE070B
:101B70008823D9F1F1E0F093EA0287EF91E00E9427
:101B80006005D5C050E040E060E2CE0185960E943D
:101B90006A0729A53AA5AC014F5F5F4FBE016B5D97
:101BA0007F4FCE0101960E94BE08BE016F5F7F4F3E
:101BB000CE0143960E94D307CE0101960E941E08D3
:101BC0009CCF1E861D86188A1F861A8A198ABE0116
:101BD0006D5E7F4FCE010D960E94960861E671E022
:101BE000CE0107960E94AD08ACCF82E092E0C7CF4D
:101BF00061E172E0CE010D960E94BE07882321F0BC
:101C00008091EA02811139C064E172E0CE010D9643
:101C10000E94BE0781119BC06EE472E0CE010D965A
:101C20000E94BE078111CEC063E672E0CE010D9620
:101C30000E94BE07811112C161E972E0CE010D96CA
:101C40000E94BE07882321F08091EA0281110BC116
:101C500065E972E0CE010D960E94BE07882309F463
:101C600066C08091EA02882309F41BC10E94E6093C
:101C70001092EA028DEB92E082CF50E040E06EE2FB
:101C8000CE0107960E946A078C011816190634F4D3
:101C90008B859C8501970817190718F089E192E058
:101CA0006ECF980150E040E0BE01695F7F4FCE01EA
:101CB00001960E94BE08CE0101960E94EC064B01DF
:101CC000CE0101960E941E082B853C85A8014F5F1E
:101CD0005F4FBE01695F7F4FCE0101960E94BE0833
:101CE000CE0101960E94EC062B01CE0101960E94C6
:101CF0001E08C4010197099738F58AE04816510477
:101D000018F55F924F929F928F923F922F921F925F
:101D100089E08F93DF92CF920E94711983E392E062
:101D20000E9460050FB6F894DEBF0FBECDBFCE0196
:101D300007960E941E08CE010D960E941E08CE0135
:101D400043960E941E08B3CD8FE392E018CF809196
:101D5000EA02882309F460CF0B851C85C80103972C
:101D6000069768F550E040E06DE2CE0107960E94CC
:101D70006A07019721F570E060E0CE0107960E94A6
:101D8000D002082E000C990B0E941819892BB9F06B
:101D900082E0A82EB12C0A151B0509F48AC0B501F2
:101DA000CE0107960E94D002082E000C990B0E94CB
:101DB0001819892B21F0FFEFAF1ABF0AECCF81E58C
:101DC00092E0DDCEB090EA02BB2009F42DCF8B85E6
:101DD0009C850897F1F510E000E0B801CE01079668
:101DE0000E94D00290ED980F9A30B0F18F7D81540F
:101DF00091E0863008F090E00F5F1F4F083011052A
:101E000031F5992331F1CE0107960E9454070EE275
:101E100013E0B12CA12CB501CE0107960E94D0028F
:101E2000F80181938F01FFEFAF1ABF0A88E0A8166F
:101E3000B10489F71092360388E692E00E945905B2
:101E40008AE291E00E9459058EE293E098CE9111CA
:101E5000C4CF83E792E093CE9B2DCECF1092EA02BF
:101E600083E892E08CCE6BE972E0CE0101960E948D
:101E7000AD08BE016F5F7F4FCE0107960E948607B7
:101E8000182FCE0101960E941E08112339F00E94DE
:101E9000E6091092EA028FE992E033CC8CEA92E0F4
:101EA0006ECE88EC92E06BCECE01C7960E941E08E3
:101EB0000ACC6F81788548E050E085E191E00E948E
:101EC000621910921D0187ED92E059CEEC960FB683
:101ED000F894DEBF0FBECDBFDF91CF911F910F9160
:101EE000FF90EF90DF90CF90BF90AF909F908F903A
:101EF0007F906F905F904F903F902F9008951F922A
:101F00000F920FB60F9211242F933F938F939F93AD
:101F1000AF93BF938091180390911903A0911A0376
:101F2000B0911B033091170323E0230F2D3758F591
:101F30000196A11DB11D2093170380931803909360
:101F40001903A0931A03B0931B0380911C03909173
:101F50001D03A0911E03B0911F030196A11DB11D89
:101F600080931C0390931D03A0931E03B0931F0343
:101F7000BF91AF919F918F913F912F910F900FBE85
:101F80000F901F90189526E8230F0296A11DB11DF2
:101F9000D2CF1F920F920FB60F9211242F933F931F
:101FA0004F935F936F937F938F939F93AF93BF9361
:101FB000CF93EF93FF93C091E1008091E100837F85
:101FC0008093E100C3FF0FC01092E90081E080938D
:101FD000EB001092EC0082E38093ED0010922D0351
:101FE00088E08093F000C2FF1AC00E94290180910E
:101FF000F202882341F08091F20281508093F20234
:10200000811101C05D9880912C03882341F080915B
:102010002C03815080932C03811101C02898C4FFA8
:1020200023C08091E2008E7E81608093E2008091E7
:10203000E1008F7E8093E1008091F3028E7E8061CB
:102040008093F302FF91EF91CF91BF91AF919F9158
:102050008F917F916F915F914F913F912F910F9051
:102060000FBE0F901F901895C0FFECCF8091E2003B
:102070008E7E80618093E2008091E1008E7E80936D
:10208000E1008091F3028E7E8160DACF1F920F9281
:102090000FB60F921124CF92DF92EF92FF920F931F
:1020A0001F932F933F934F935F936F937F938F93E0
:1020B0009F93AF93BF93EF93FF93CF93DF93CDB7EE
:1020C000DEB76C97DEBFCDBF1092E9008091E800CB
:1020D00083FF25C068E0CE0145960E949A0382EFF7
:1020E0008093E8008D8987FF39C09091E80090FFC8
:1020F000FCCF982F907609F034C19E894F89588D76
:102100002F89F88C911131C0803861F58091F402EB
:102110008093F1001092F1008EEF8093E8006C96AE
:102120000FB6F894DEBF0FBECDBFDF91CF91FF9108
:10213000EF91BF91AF919F918F917F916F915F913F
:102140004F913F912F911F910F91FF90EF90DF9052
:10215000CF900F900FBE0F901F9018959EEF909309
:10216000E800C7CF1092F100D5CF913059F481111A
:10217000D3CF4130510581F68091F4028D7F809359
:10218000F402CACF933049F48111C6CF41305105D2
:1021900019F68091F4028260F2CF953041F480917B
:1021A000E80080FFFCCF20682093E300B5CF963095
:1021B00009F0A9C00B8D1C8D22E01092E90010924D
:1021C000F0021092EF02F2122EC01092EE02109264
:1021D000ED020E9469031F8299E09983FA8291E0DF
:1021E0009E8390EA98879AEF99872091EF02309129
:1021F000F002275F3F4F3C832B838D831092E900D1
:102200001092F0021092EF021093EE020093ED0292
:1022100049E050E0BE016F5F7F4F80E00E944303C2
:102220000E94690379CF1093EE020093ED020E94A1
:102230006F01DC0112960D911C910115110509F435
:1022400051C1D801ED91FC910480F581E02DBE01D2
:102250006B5E7F4FC8010995009709F03EC1F801F8
:1022600000851185EACFF3E0FF120EC08F89882325
:1022700009F440C0823061F440E86DE080E191E013
:102280000E941003811148CF81E28093EB0047CF79
:10229000813029F440E86BE084E091E0F1CF8330B5
:1022A00099F70E946F01DC011296ED90FC908E016F
:1022B0000F5F1F4F6801E114F10479F0D701ED9130
:1022C000FC910680F781E02DB801C7010995080F40
:1022D000111DF701E084F184EECFD8011C92F601C4
:1022E00001900020E9F73197BF016C197D0940E0AA
:1022F000C601C6CF6EEE70E0FB01449150E080E86D
:102300000E94430309CF973009F4BECF983021F4DF
:1023100081E08093F10000CF993009F0FDCE837009
:1023200009F0B2CFE6E3F1E081E031E096E32191FC
:10233000222371F08093E9003093EB00DF011197C5
:102340002C912093EC009093ED008F5F873079F70C
:102350008EE78093EA001092EA008F8980932D0324
:10236000DBCE8B8D9C8D1092E9001092F0021092C2
:10237000EF029093EE028093ED02898D811192C05D
:102380008E899D89913A49F4813209F07DCF47E0E9
:1023900050E064E071E080E0B3CF913209F074CF97
:1023A000833269F48F89988DB0E0A0E080930001BA
:1023B00090930101A0930201B0930301ADCE80324E
:1023C00069F48091E80082FFFCCF67E084E091E04F
:1023D0000E949A038BEF8093E8009ECE823209F030
:1023E0009BCE8F8980930B01EEEFFFE7859194914F
:1023F0008B3F9C4D51F1E0E0F8E080910401909119
:102400000501A0910601B0910701803B9440A10510
:10241000B105F1F480910B0180FD1AC0EE3F8AE016
:10242000F80789F587E797E79183808380916000BB
:102430008093F10288E19BE00FB6F894A895809311
:1024400060000FBE9093600067CEEEEFFAE0D5CF4C
:10245000808191818737974709F05ECEA89580915A
:1024600060008861809360008091F1028093600039
:10247000EE3F2AE0F20789F08091FE0A9091FF0A70
:102480009183808349CE808191818737980751F26B
:102490009093FF0A8093FE0AC5CF1092FF0A109214
:1024A000FE0A3ACE0E946F01DC0112960D911C913A
:1024B0000115110509F4E8CED801ED91FC910190C8
:1024C000F081E02DBE016B5E7F4FC801099581113F
:1024D00023CEF80100851185EBCF181619060CF4F0
:1024E0001BCED2CEF1E0FF12BECE62EF70E004CF81
:1024F000E8E3F3E01382128288EE93E0A0E0B0E01C
:1025000084839583A683B78380E491E0918380835D
:102510008FEF9FEF9587848761E671E088E893E00D
:102520000C94AD08CF93DF93CDB7DEB76C970FB6A1
:10253000F894DEBF0FBECDBF789484B5826084BDB1
:1025400084B5816084BD85B5826085BD85B58160B7
:1025500085BD80916E00816080936E001092810035
:1025600080918100826080938100809181008160F0
:1025700080938100809180008160809380008091B1
:10258000910082608093910080919100816080939E
:102590009100809190008160809390008091C100B3
:1025A00084608093C1008091C10082608093C100EB
:1025B0008091C10081608093C1008091C3008160DF
:1025C0008093C3008091C00082608093C00080919E
:1025D000C20081608093C20080917A008460809301
:1025E0007A0080917A00826080937A0080917A00EC
:1025F000816080937A0080917A00806880937A006D
:1026000010922D031092F4021092F3028091D700E1
:1026100081608093D70080EA8093D80089B580617B
:1026200089BD89B5826089BD09B400FEFDCF61E036
:1026300070E080E090E00E949E028091D8008F7C44
:1026400080618093D8008091E000807F8093E000DB
:102650008091E1008E7E8093E1008DE08093E20026
:10266000559A209A5D9828980FB6F894A89580916D
:102670006000886180936000109260000FBE8FEF51
:102680009FEF909345038093440361E08EE00E94A6
:10269000260261E08FE00E94260261E080E10E9454
:1026A000260261E082E00E94260261E083E00E944F
:1026B000260261E089E00E94260262E084E00E9436
:1026C000260262E085E00E94260262E087E00E9426
:1026D000260262E088E00E94260262E08AE00E9410
:1026E000260262E085E10E9426020E94170690E021
:1026F00080E00E94CB09182F81E090E00E94CB0976
:10270000982F812F8A35954A09F457C10E94E50414
:102710000E94E60981E090E09093160380931503F0
:102720002FB7F8948091180390911903A0911A0380
:10273000B0911B032FBF8093110390931203A093BA
:102740001303B0931403109210030E9417060E9403
:102750006E058CED482E85E0582E612C712C00E022
:1027600010E09924939488248A9492E0A92EB12CA5
:102770008FB7F894C0901803D0901903E0901A0313
:10278000F0901B038FBF8091150390911603019762
:10279000E9F48091110390911203A0911303B09179
:1027A0001403A7019601281B390B4A0B5B0B2C3D28
:1027B000B5E03B074105510508F491C18092100333
:1027C0000E941706B0921603A092150380910C0385
:1027D00090910D03A0910E03B0910F03C816D90676
:1027E000EA06FB0608F489C1809108039091090369
:1027F000A0910A03B0910B03A7019601281B390B86
:102800004A0B5B0BDA01C9010A97A105B10508F46F
:1028100074C1C0920803D0920903E0920A03F092B7
:102820000B030E94C00A1092070384E00E94CF01AC
:10283000892B11F49092070385E00E94CF01892B28
:1028400029F48091070382608093070387E00E9448
:10285000CF01892B29F480910703846080930703BB
:1028600088E00E94CF01892B29F4809107038860BA
:10287000809307038AE00E94CF01892B29F480917D
:10288000070380618093070385E10E94CF01892BB4
:1028900029F48091070380628093070382E10E94FC
:1028A0005702909301038093000383E10E94570233
:1028B0009093FD028093FC0284E10E945702909362
:1028C000F9028093F80220910703909106032917DB
:1028D00009F1409102035091030360910403709148
:1028E0000503D701C601841B950BA60BB70BAC01E2
:1028F000BD014C3051056105710560F0C0920203C5
:10290000D0920303E0920403F092050320930603A0
:102910000E941309409100035091010320911E0170
:1029200030911F018091FE029091FF02DA01A81BF5
:10293000B90BCD01B7FF03C091958195910982171D
:1029400093070CF4E1C05093FF024093FE0241E074
:102950006091FC027091FD028091FA029091FB025D
:10296000FB01E81BF90BCF01F7FF03C0919581959F
:102970009109821793072CF07093FB026093FA027F
:1029800041E06091F8027091F9028091F602909115
:10299000F702DB01A81BB90BCD01B7FF03C091956E
:1029A00081959109821793070CF4B0C07093F702D8
:1029B0006093F6020E941309A0C082E090E00E949A
:1029C000CB09782E6E0134E1C30ED11C7E014BE0A1
:1029D000E40EF11C5701460103E010E0C8010E941B
:1029E000CB09D4018D934D01C80108960E94CB09F3
:1029F000F50181935F010F5F1F4F0B30110571F7D8
:102A00001C8E1B8AF3E07F1281CE8E010F5F1F4F59
:102A1000480123E1A22EB12CC5010E94CB09D401AB
:102A20008D934D01BFEFAB1ABB0AECE1AE16B104BA
:102A300099F71A868CE190E00E94CB09B82EA80184
:102A4000B701C6010E940501B81260CEA601485F19
:102A50005F4F90E080E0D6012D916D01322F3F7DD8
:102A600029F0FC01EB5EFE4F20830196C416D506CB
:102A700091F78B5E9E4FFC011082A701485F5F4F6C
:102A800090E080E0D7012D917D01322F3F7D29F02C
:102A9000FC01E45FFE4F208301964E155F0591F720
:102AA000845F9E4FFC011082A801485F5F4F90E059
:102AB00080E0D8012D918D01322F3F7D29F0FC015E
:102AC000E25DFC4F208301964017510791F7FC010E
:102AD000E25DFC4F1082892B09F01CCE17CEAFEFC0
:102AE000B0E00E94B216A30192010E94FC1620934E
:102AF00010030E9417060E94C00A0115110509F46F
:102B000037CE0E94000034CE40E022CF411152CF98
:102B10008091F50281114ECFF0CF88E893E00C94BC
:102B20001E088F929F92AF92BF92CF92DF92EF9248
:102B3000FF92CF93DF93EC01688179818A819B8139
:102B4000611571058105910521F464E279ED8BE54C
:102B500097E02DE133EF41E050E00E9493164901E8
:102B60005A019B01AC01A7EAB1E40E94B2166B01C5
:102B70007C01ACEEB4EFA50194010E94C016C60E14
:102B8000D71EE81EF91EF7FE06C081E0C81AD1085C
:102B9000E10880E8F80AC882D982EA82FB82C7018C
:102BA000B6019F77DF91CF91FF90EF90DF90CF90AC
:102BB000BF90AF909F908F9008958F929F92AF9209
:102BC000BF92CF92DF92EF92FF92609120017091BD
:102BD00021018091220190912301611571058105E8
:102BE000910521F464E279ED8BE597E02DE133EF77
:102BF00041E050E00E94931649015A019B01AC014B
:102C0000A7EAB1E40E94B2166B017C01ACEEB4EF0E
:102C1000A50194010E94C016C60ED71EE81EF91E1B
:102C2000F7FE06C081E0C81AD108E10880E8F80A7A
:102C3000C0922001D0922101E0922201F092230162
:102C4000C701B6019F77FF90EF90DF90CF90BF90C4
:102C5000AF909F908F900895609320017093210111
:102C6000809322019093230108951F93FC019927DB
:102C70008827BC01E89411911032E9F3193010F063
:102C80001E30C8F31B3251F01D3249F4689406C05F
:102C90000E945C16610F711D811D911D11911053D1
:102CA0001A30B0F33EF490958095709561957F4F02
:102CB0008F4F9F4F1F910895592F482F372F262F41
:102CC000660F771F881F991F660F771F881F991F30
:102CD000620F731F841F951F660F771F881F991F30
:102CE000089591110C947A16803219F0895085500C
:102CF000C8F70895992788270895F999FECF92BDBE
:102D000081BDF89A992780B50895262FF999FECFAD
:102D10001FBA92BD81BD20BD0FB6F894FA9AF99AF8
:102D20000FBE01960895052E97FB1EF400940E9495
:102D3000AA1657FD07D00E94FC1607FC03D04EF4DC
:102D40000C94AA1650954095309521953F4F4F4FC2
:102D50005F4F089590958095709561957F4F8F4F47
:102D60009F4F08950E941E17A59F900DB49F900D30
:102D7000A49F800D911D11240895B7FF0C94B216E5
:102D80000E94B216821B930B08952F923F924F928E
:102D90005F926F927F928F929F92AF92BF92CF92EB
:102DA000DF92EF92FF920F931F93CF93DF93CDB7F4
:102DB000DEB7CA1BDB0B0FB6F894DEBF0FBECDBF6C
:102DC00009942A88398848885F846E847D848C843D
:102DD0009B84AA84B984C884DF80EE80FD800C8146
:102DE0001B81AA81B981CE0FD11D0FB6F894DEBF29
:102DF0000FBECDBFED010895A1E21A2EAA1BBB1B89
:102E0000FD010DC0AA1FBB1FEE1FFF1FA217B307B6
:102E1000E407F50720F0A21BB30BE40BF50B661FCC
:102E2000771F881F991F1A9469F760957095809590
:102E300090959B01AC01BD01CF010895A29FB00107
:102E4000B39FC001A39F700D811D1124911DB29FDE
:102E5000700D811D1124911D0895EE0FFF1F059027
:102E6000F491E02D09940F931F93CF93DF93823059
:102E7000910510F482E090E0E0919003F0919103CD
:102E800030E020E0B0E0A0E0309799F42115310562
:102E900009F44AC0281B390B24303105D8F58A8142
:102EA0009B816115710589F1FB0193838283FE018A
:102EB00011C0408151810281138148175907E0F008
:102EC0004817590799F4109761F012960C931297CE
:102ED00013961C933296CF01DF91CF911F910F91E2
:102EE00008950093900310939103F4CF21153105B9
:102EF00051F04217530738F0A901DB019A01BD01D7
:102F0000DF01F801C1CFEF01F9CF909391038093D6
:102F10009003CDCFFE01E20FF31F819391932250D6
:102F2000310939832883D7CF20918E0330918F03C5
:102F3000232B41F4209126013091270130938F03F8
:102F400020938E0320912401309125012115310514
:102F500041F42DB73EB74091280150912901241B1F
:102F6000350BE0918E03F0918F03E217F307A0F485
:102F70002E1B3F0B2817390778F0AC014E5F5F4FCF
:102F80002417350748F04E0F5F1F50938F0340936F
:102F90008E03819391939FCFF0E0E0E09CCFCF939D
:102FA000DF930097E9F0FC01329713821282A0911F
:102FB0009003B0919103ED0130E020E01097A1F46F
:102FC00020813181820F931F20918E0330918F03D6
:102FD0002817390709F061C0F0938F03E0938E033F
:102FE000DF91CF910895EA01CE17DF07E8F54A8116
:102FF0005B819E0141155105B1F7E901FB83EA832D
:1030000049915991C40FD51FEC17FD0761F48081D8
:1030100091810296840F951FE901998388838281AB
:1030200093819B838A83F0E0E0E012968D919C91DE
:1030300013970097B9F52D913C911197CD01029608
:10304000820F931F20918E0330918F032817390729
:1030500039F6309751F51092910310929003B09386
:103060008F03A0938E03BCCFD383C2834081518151
:10307000840F951FC817D90761F44E5F5F4F888191
:103080009981480F591F518340838A819B81938383
:1030900082832115310509F0B0CFF0939103E093BD
:1030A00090039ECFFD01DC01C0CF13821282D7CFE7
:1030B000B0E0A0E0EEE5F8E10C94C7168C010097B3
:1030C00051F4CB010E9433178C01C801CDB7DEB794
:1030D000E0E10C94E316FC01E60FF71F9C0122507F
:1030E0003109E217F30708F49DC0D901CD91DC91B5
:1030F0001197C617D70798F0C530D10530F3CE0128
:1031000004978617970708F3C61BD70B2297C1931E
:10311000D1936D937C93CF010E94CF17D6CF5B01E3
:10312000AC1ABD0A4C018C0E9D1EA0919003B0916B
:103130009103512C412CF12CE12C109731F5809109
:103140008E0390918F038815990509F05CC046168F
:10315000570608F058C080912401909125010097EE
:1031600041F48DB79EB74091280150912901841BED
:10317000950BE817F90708F055C0F0938F03E0931B
:103180008E03F90171836083A0CF8D919C9111977B
:1031900012966C90129713967C901397A815B90508
:1031A00059F56C0142E0C40ED11CCA14DB0420F1B5
:1031B000AC014A195B09DA011296159780F0628218
:1031C000738251834083D9016D937C93E114F104A0
:1031D00071F0D7011396FC93EE93129776CF229657
:1031E0008C0F9D1FF90191838083F301EFCFF09342
:1031F0009103E093900369CF4816590608F42C0117
:103200007D01D3019ACFCB010E9433177C01009737
:1032100049F0AE01B8010E943019C8010E94CF17D1
:10322000870153CF10E000E050CF85FD0C947A1653
:10323000806291110C947A1681568A51D8F70895BC
:103240009111089581548A5108F4805E855A089539
:103250009111089581568A5108F480528558089535
:10326000FB01DC0102C001900D9241505040D8F7A3
:103270000895FC018191861721F08823D9F79927B9
:1032800008953197CF010895FB01DC018D910190E4
:1032900080190110D9F3990B0895FB01DC0101900D
:1032A0000D920020E1F70895FB01DC0141505040F0
:1032B00030F08D910190801919F40020B9F7881B26
:1032C000990B0895FB01DC014150504048F00190FA
:1032D0000D920020C9F701C01D9241505040E0F707
:1032E0000895AEE0B0E0E7E7F9E10C94D3160D895C
:1032F0001E898F89988D26E02C831A83098397FF76
:1033000002C080E090E801979E838D83AE01455E08
:103310005F4F698D7A8DCE0101960E94A1194D8172
:103320005E8157FD0AC02F813885421753070CF480
:103330009A01020F131FF80110822E96E4E00C94FC
:10334000EF16ABE0B0E0E7EAF9E10C94C5167C01BA
:103350003B018A01FC0117821682838181FFC8C16B
:10336000CE0101965C01F7019381F30193FD8591F4
:1033700093FF81913F01882309F453C1853239F4C9
:1033800093FD859193FF81913F01853229F4B70127
:1033900090E00E94911BE7CF912C212C312CFFE172
:1033A000F31538F08B3211F190F4803209F1833249
:1033B00029F137FC3CC020ED280F2A3050F536FEAD
:1033C00020C08AE0989E200D1124922E06C08D32D6
:1033D00091F0803371F7689430F8F30193FD859193
:1033E00093FF81913F018111DACF21C0689431F8B8
:1033F000689432F8F2CF689433F8EFCF689434F8D9
:10340000ECCFEAE02E9E200D1124222E689435F890
:10341000E4CF8E3229F436FC04C1689436F8DDCF4F
:103420008C3619F4689437F8D8CF8836B1F2982FD3
:103430009F7D95549330E0F08336A1F18337C1F13D
:10344000833509F063C02801F2E04F0E511CF801EA
:10345000C080D180692D70E036FC02C06FEF7FEF35
:10346000C6010E947B1B4C01689437F882010AC098
:103470000C5F1F4FFFE3F98388248394912C65012F
:10348000E89437F833FE2DC0522C8114910471F565
:10349000552009F468CFB70180E290E00E94911BAB
:1034A0005A94F6CFF801808189830E5F1F4FE4CFD5
:1034B0002801F2E04F0E511CF801C080D180692D27
:1034C00070E036FC02C06FEF7FEFC6010E94861BE2
:1034D0004C018201D5CFB70180E290E00E94911BA0
:1034E0002A942814190409F0B0F7CECFF60137FC5E
:1034F000859137FE81916F01B70190E00E94911B89
:1035000051105A94F1E08F1A9108BFCF843619F008
:10351000893609F077C0F80137FE6BC06081718190
:10352000828193810C5F1F4FF32DFF763F2E97FF13
:1035300009C090958095709561957F4F8F4F9F4FF3
:10354000689437F82AE030E0A5010E94C11BC82E1C
:10355000CA188C2C432C36FE0CC0E89440F8C914D1
:1035600040F434FE05C032FC03C0F32DFE7E4F2E26
:10357000892C44FE95C0FE01EC0DF11D8081803345
:1035800009F087C0242D297E422E842D8870582E64
:1035900043FC95C040FE8FC09C2C821418F42C0C68
:1035A000922C981844FE91C0B70180E390E00E94ED
:1035B000911B42FE09C088E790E041FE02C088E509
:1035C00090E0B7010E94911BC91408F48AC0CA9404
:1035D000D12C9FEFC91AD90ACA0CDB1CF6018291C3
:1035E0006F01B70190E00E94911BAC14BD04B1F7CC
:1035F0004FCF60817181072E000C880B990B0E5FF5
:103600001F4F92CFD32CE894D4F82AE030E08537CE
:1036100039F1232D297FD22E8F3601F148F48835D8
:10362000A9F0F701868197812B96E2E10C94E116CF
:10363000803749F08837A9F7D4FE02C06894D2F8E1
:1036400020E130E00DC06894D4F8F6CF34FE03C01A
:10365000822F8660D82E20E132E002C028E030E0E0
:10366000F801D7FE0FC060817181828193810C5F68
:103670001F4FA5010E94C11BC82ECA183D2CE894FB
:1036800037F867CF6081718190E080E00E5F1F4F57
:10369000F0CF42FC02C0839478CF8394839475CF9B
:1036A000842D867809F471CFF6CFB70180E290E0DF
:1036B0000E94911B83948214C0F3512C73CF522C1F
:1036C0005818821408F46ECFF8CF842D867809F448
:1036D0007BCF8BE241FE80E247FC8DE2B70190E0B8
:1036E00071CFB70180E390E00E94911B9A946CCF58
:1036F0008FEF9FEF99CFFC01059061507040011052
:10370000D8F7809590958E0F9F1F0895FC0161500A
:10371000704001900110D8F7809590958E0F9F1FF3
:1037200008950F931F93CF93DF93182F092FEB0169
:103730008B8181FD09C01FEF0FEF812F902FDF914B
:10374000CF911F910F91089582FF14C02E813F8168
:103750008C819D81281739073CF4E881F981CF01DC
:1037600001969983888310838E819F8101969F8320
:103770008E83E3CFE885F985812F0995892BA1F305
:10378000DACFFA01AA27283051F1203181F1E894EB
:103790006F936E7F6E5F7F4F8F4F9F4FAF4FB1E044
:1037A0003ED0B4E03CD0670F781F891F9A1FA11D3F
:1037B000680F791F8A1F911DA11D6A0F711D811D40
:1037C000911DA11D20D009F468943F912AE0269F05
:1037D00011243019305D3193DEF6CF010895462F64
:1037E0004770405D4193B3E00FD0C9F7F6CF462F45
:1037F0004F70405D4A3318F0495D31FD40524193AE
:1038000002D0A9F7EACFB4E0A6959795879577956A
:103810006795BA95C9F700976105710508959B01F1
:10382000AC010A2E06945795479537952795BA957A
:10383000C9F7620F731F841F951FA01D089510E024
:10384000CAEDD0E004C0FE010E942D172196CB3DA9
:08385000D107C9F7F894FFCF7E
:10385800FFFFFFFF00E1000000000000504342208E
:10386800312E300000442D413332300000000A0070
:1038780001000000000092038000444F4F522D00C9
:10388800303831350000C1808100000000000000A0
:103898002C04A703440442048A0448046604303113
:1038A8003233343536373839414243444546000DC2
:1038B8000A004944454E543A004350545F444F4F20
:1038C800522C2076312E31204D4151002C20534E60
:1038D8003A003B53544154453A52554E4E494E478F
:1038E8003B005245473A00494E313A0041303A00D0
:1038F80041313A0041323A0056455200564552533A
:10390800494F4E00524551005245534554005245C7
:103918005345543A4F4B203B004C454431004C45ED
:10392800443200424C00534D4F5F54485200534DAF
:103938004F5F53414D00534D4F5F444C5900534521
:10394800542000454E410053455420454E413E20E9
:103958003B0053455420454E413A4641494C203B93
:103968000046570041434944005345542046573ABE
:10397800464F524D4154203B005043622025642E4F
:103988002564005345542046573A4F4B203B00537B
:1039980045542046573A52414E4745203B00534E26
:1039A8000053455420414349443A464F524D4154EF
:1039B800203B00455849540053455420534E3A4F34
:1039C8004B3A0053455420534E3A464F524D4154BA
:1039D800203B0053455420455849543A4F4B203B0F
:1039E800005752490057524954450059455300530E
:1039F8004554205752493A4F4B203B0053455420D9
:103A08005752493A464F524D4154203B005752496C
:103A180054453A4F4B203B0057524954453A4C4F76
:103A2800434B4544203B0053455420414349443AC5
:063A38004F4B203B000093
:00000001FF
