:100000000C94D5000C94FD000C94FD000C94FD00A4
:100010000C94FD000C94FD000C94FD000C94FD006C
:100020000C94FD000C94FD000C94381D0C94B51D2F
:100030000C94FD000C94FD000C94FD000C94FD004C
:100040000C94FD000C94FD000C94FD000C94FD003C
:100050000C94FD000C94FD000C94FD000C94EE1C1F
:100060000C94FD000C94FD000C94FD000C94FD001C
:100070000C94FD000C94FD000C94FD000C94FD000C
:100080000C94FD000C94FD000C94FD000C94FD00FC
:100090000C94FD000C94FD000C94FD000C94FD00EC
:1000A0000C94FD000C94FD000C94FD00080B000264
:1000B0000202000009040000010202000005240001
:1000C0001001052401010104240206052406000193
:1000D0000705810310004009040100020A00000026
:1000E00007050202400000070583024000000403E8
:1000F000090412010002EF02014041233780000190
:100100000102030141726475696E6F204C4C43001B
:1001100041726475696E6F204D6963726F000000F3
:100120000000240027002A002D00300000000000FD
:10013000250028002B002E003100000000002300C5
:10014000260029002C002F000404040404030405E5
:100150000202020204030202020206060606060664
:10016000040402020204040408020110408040104A
:1001700020408040800802040180402010020110CD
:100180008010204040200000000200090F00000302
:100190000401000C0000000000000000000000004E
:1001A00000000000000036203C3111241FBECFEFBC
:1001B000DAE0DEBFCDBF28E0ACEAB6E001C01D92B8
:1001C000A333B207E1F716E0A0E0B1E0EAEEF9E60A
:1001D00002C005900D92AC3AB107D9F710E0C4ED1A
:1001E000D0E004C02197FE010E946432C33DD107D4
:1001F000C9F70E940B210C94E8340C940000AC0168
:10020000485F5F4F22E030E0DC01ED91CD012E0F21
:10021000311D4A175B07C1F7FB01CB0108964191DD
:10022000240F311D8E179F07D1F7822F089583E089
:100230008093E9008091F200882319F08AE380938B
:10024000E80008950C941701FC0180914807882369
:1002500011F13FB7F89482E08093E9002091F20019
:10026000822F90E01816190614F481E090E088239C
:1002700039F0289A44E6409347074091F1004083C3
:10028000222339F02091F200211103C02BE62093A4
:10029000E8003FBF08958FEF9FEF08952FB7F894C0
:1002A00083E08093E9009091E800892F807295FFA8
:1002B00004C09091F20080E4891B2FBF08958091C3
:1002C0003F0781110DC082E080933B0784E080935B
:1002D0003C0710923E0710923D0781E080933F0754
:1002E0008BE397E0089581508F3008F047C0E82FE6
:1002F000F0E0E358FE4F0C9464329A019E018C01A9
:1003000092019601BE01BE01BE01A101A701AB0190
:10031000AF01B501BE01B901809180008F77809354
:1003200080000895809180008F7DF9CF80918000BA
:10033000877FF5CF84B58F7784BD089584B58F7D91
:10034000FBCF809190008F778093900008958091EB
:1003500090008F7DF9CF80919000877FF5CF8091BD
:10036000C0008F778093C00008958091C0008F7D7A
:10037000F9CF8091C200877F8093C2000895CF9308
:10038000DF93282F30E0F901EA57FE4F8491F901FD
:10039000E959FE4FD491F901E85BFE4FC491CC239B
:1003A000A1F081110E947301EC2FF0E0EE0FFF1F0E
:1003B000E65CFE4FA591B491EC91ED2381E090E0D5
:1003C00009F480E0DF91CF91089580E090E0FACFCA
:1003D0001F93CF93DF93282F30E0F901EA57FE4FA8
:1003E0008491F901E959FE4FD491F901E85BFE4F80
:1003F000C491CC23A9F0162F81110E947301EC2F18
:10040000F0E0EE0FFF1FE45DFE4FA591B4918FB7B2
:10041000F894EC91111108C0D095DE23DC938FBFC6
:10042000DF91CF911F910895DE2BF8CFCF93DF930B
:1004300090E0FC01E959FE4F2491885B9E4FFC013E
:1004400084918823C9F090E0880F991FFC01E25E37
:10045000FE4FA591B491FC01E45DFE4FC591D4918E
:1004600061110DC09FB7F8948C91209582238C93D5
:100470008881282328839FBFDF91CF910895623020
:1004800051F49FB7F8943C91822F809583238C93ED
:10049000E8812E2BEFCF8FB7F894EC912E2B2C9375
:1004A0008FBFEACFCF93DF93EC0161E083E00E943E
:1004B0001602209731F460E083E0DF91CF910C9435
:1004C000E801CF3FD10511F461E0F6CFE9E8F1E0B2
:1004D000E491E150EF3008F07EC0F0E0EE58FD4FBF
:1004E0000C946432810288028D029702A102EB0211
:1004F000EB02EB02AB02B502BF02C902D602EB026D
:10050000DE0284B5806884BDC7BDDF91CF910895B8
:1005100084B5806284BDC8BDF8CF809180008068BA
:1005200080938000D0938900C0938800EECF8091A3
:100530008000806280938000D0938B00C0938A00FB
:10054000E4CF80918000886080938000D0938D00FC
:10055000C0938C00DACF80919000806880939000E7
:10056000D0939900C0939800D0CF80919000806282
:1005700080939000D0939B00C0939A00C6CF809147
:100580009000886080939000D0939D00C0939C0061
:10059000BCCF8091C00080688093C0008091C00073
:1005A0008F7B8093C000C093CF00AFCF8091C000FD
:1005B00080628093C000C093D000A7CF8091C2001A
:1005C00088608093C2008091C2008B7F8093C200BC
:1005D000C093D2009ACFC038D1050CF075CF6BCF45
:1005E0003FB7F8948091370790913807A091390769
:1005F000B0913A0726B5A89B05C02F3F19F0019688
:10060000A11DB11D3FBFBA2FA92F982F8827BC016C
:10061000CD01620F711D811D911D42E0660F771F94
:10062000881F991F4A95D1F708958F929F92AF9294
:10063000BF92CF92DF92EF92FF924B015C010E943A
:10064000F0026B017C010E94F0026C197D098E0999
:100650009F09683E734081059105A8F321E0821A45
:100660009108A108B10888EEC80E83E0D81EE11CED
:10067000F11C81149104A104B10429F7FF90EF90BB
:10068000DF90CF90BF90AF909F908F9008952FB73D
:10069000F8946091330770913407809135079091F9
:1006A00036072FBF0895FC01248135816217730737
:1006B00048F480819181009729F0860F971FFC01F3
:1006C0008081089580E0089508954091F806509142
:1006D000F9062091F6063091F70642175307B4F455
:1006E0009091E8009570E1F39091E80092FD19C0B7
:1006F0008093F1008091F8069091F90601968F732E
:100700009927892B19F48EEF8093E8008091F806E1
:100710009091F90601969093F9068093F80681E08E
:10072000089580E00895EF92FF920F931F93CF9367
:10073000DF93F82E192FE62E042F81E0860F880F05
:100740000E94650383E00E946503CF2DD12FEC0E3C
:10075000FD2EF11CCE15DF05B9F007FF13C0FE0119
:1007600084910E946503182F80E00E946503812315
:1007700021968111EFCFDF91CF911F910F91FF90C3
:10078000EF9008958881EDCF81E0F5CFDF92EF9271
:10079000FF920F931F93CF93DF93D82E8A01EB0123
:1007A0007B01E40EF51ECE15DF0559F0D7FE12C011
:1007B000FE0184910E94650321968111F4CF0FEF11
:1007C0001FEFC801DF91CF911F910F91FF90EF9024
:1007D000DF9008958881EECF0F931F93CF93DF931F
:1007E0001F92CDB7DEB782E0898342E450E06CEA25
:1007F00070E080E80E94C6030E945F01DC0112964F
:100800000D911C910115110589F0D801ED91FC9114
:100810000280F381E02DBE016F5F7F4FC801099513
:1008200097FD04C0F80100851185ECCF89810F90F8
:10083000DF91CF911F910F910895615030F0209179
:10084000F100FC0120830196F8CF289A84E680937A
:10085000470708958F929F92AF92BF92CF92DF92F7
:10086000EF92FF920F931F93CF93DF936C017B0165
:100870008A0180910C01882309F45CC080914807AB
:10088000882309F457C08091FC0680FF05C0809141
:10089000E00082608093E000E801B12C8AEFA82E8E
:1008A00093E0892E2AE3922E209711F4BB20D9F1F0
:1008B0000E944E0181110AC0AA94AA20D9F161E0D8
:1008C00070E080E090E00E941503EECF8C171D06CB
:1008D00011F00CF08C2F9FB7F8948092E9002091D2
:1008E000E80025FD02C09FBFDFCF282F30E0C21BEC
:1008F000D30BF701815020F041914093F100FACFE2
:10090000E20EF31EBB2021F09092E800B12CEBCF59
:100910008091E80085FDE7CF9092E800BB24B39476
:10092000209709F3F3CF5D9A84E68093FB061016B7
:1009300011063CF081E090E0F6019383828310E0A1
:1009400000E0C801DF91CF911F910F91FF90EF90D0
:10095000DF90CF90BF90AF909F908F900895FC0153
:10096000448155816081718189E497E00C942A0467
:10097000CF93DF931F92CDB7DEB76983DC01ED9192
:10098000FC910280F381E02D41E050E0BE016F5FF9
:100990007F4F09950F90DF91CF9108950E944E01EE
:1009A00090E00895CF93DF931F92CDB7DEB7FC019F
:1009B0008485958597FD08C02FEF3FEF3587248705
:1009C0000F90DF91CF910895CE0101960E942401EE
:1009D000019719F4898190E0F3CF8FEF9FEFF0CF6B
:1009E0000F931F93CF93DF931F92CDB7DEB78C0188
:1009F000FC018485958597FF0BC0CE0101960E946E
:100A00002401019771F4898190E0F801958784872A
:100A1000F801848595850F90DF91CF911F910F91FB
:100A200008958FEF9FEFF1CFFC018485958597FDA9
:100A30000BC09FB7F89482E08093E9008091F200A8
:100A40009FBF90E0019608959FB7F89482E080934D
:100A5000E9008091F2009FBF90E00895CF92DF926D
:100A6000EF92FF920F931F93CF93DF937C01FC01D2
:100A7000C480D580D0E0C0E010E000E0CC15DD05FA
:100A800051F0BE01C7010E9453038E3211F00F5F77
:100A90001F4F2196F3CFC801DF91CF911F910F9186
:100AA000FF90EF90DF90CF900895EF92FF920F9319
:100AB0001F93CF93DF9389E00E94BF01D82F8AE074
:100AC0000E94BF01DD0FD82B2091BC0604E0209FBF
:100AD00090011124CD2FC22B0E944703AB01BC0112
:100AE0008091BD078130A9F170F08230D9F1833057
:100AF00009F44CC0D093BC06DF91CF911F910F91A8
:100B0000FF90EF900895C130F1F189EF8C0F8230A2
:100B1000D0F1CE30C1F1C23031F0C43021F0CB3051
:100B200011F0CD3039F721E030E08091BA06909194
:100B3000BB068217930731F01092B9063093BB06BB
:100B40002093BA068091B906882351F11092B90614
:100B5000D1CFC130C1F0C830B1F0C23021F3C430C0
:100B600049F6E1CFCD30F9F2C430E9F2C230D9F222
:100B7000CB30C9F2CE3039F089EF8C0F823018F0CB
:100B8000C13009F0B7CF2FEF3FEFCFCFCD3059F2C3
:100B9000CB3049F2CE30B9F3C83009F0ABCFF3CF48
:100BA0008091B5069091B606A091B706B091B806AF
:100BB0007A018B01E81AF90A0A0B1B0BD801C7014D
:100BC0000297A105B10568F48091B5069091B6062B
:100BD000A091B706B091B806892B8A2B8B2B09F010
:100BE00089CF81E08093B906809118079091190709
:100BF000280F391F30931907209318074093B50623
:100C00005093B6066093B7067093B80673CF8F9271
:100C10009F92AF92BF92CF92DF92EF92FF92CF93CB
:100C2000DF9387E00E94BF01D82F88E00E94BF01B8
:100C3000DD0FD82B2091B40644E0249F90011124AD
:100C4000CD2FC22B0E9447032091BE072130D1F146
:100C500098F0223009F43FC0233009F450C0D093FB
:100C6000B406DF91CF91FF90EF90DF90CF90BF90CF
:100C7000AF909F908F900895C130F1F129EF2C0F24
:100C80002230D0F1CE30C1F1C23031F0C43021F089
:100C9000CB3011F0CD3019F721E030E04091B206B1
:100CA0005091B3064217530731F01092B1063093BA
:100CB000B3062093B2064091B106442351F110923D
:100CC000B106CDCFC130C1F0C830B1F0C23021F390
:100CD000C43029F6E1CFCD30F9F2C430E9F2C230A8
:100CE000D9F2CB30C9F2CE3039F029EF2C0F2230B7
:100CF00018F0C13009F0B3CF2FEF3FEFCFCFCD3099
:100D000059F2CB3049F2CE30B9F3C83009F0A7CF51
:100D1000F3CFC090AD06D090AE06E090AF06F09055
:100D2000B0064B015C018C189D08AE08BF08750128
:100D3000640142E0C416D104E104F10468F4C090F7
:100D4000AD06D090AE06E090AF06F090B006CD288C
:100D5000CE28CF2809F083CF41E04093B1064091DF
:100D60003007509131074230510591F5C090C206CD
:100D7000D090C306E090C406F090C5064B015C011C
:100D80008C189D08AE08BF087501640144EBC416B9
:100D9000D104E104F10408F462CF40911C075091A2
:100DA0001D07240F351F30931D0720931C076093E8
:100DB000AD067093AE068093AF069093B006609335
:100DC000C2067093C3068093C4069093C50647CFAE
:100DD00040911C0750911D07240F351F30931D07AC
:100DE00020931C076093AD067093AE068093AF0608
:100DF0009093B00634CFCF92DF92EF92FF920F9391
:100E00001F93CF937C01FC01C480D58010E000E0EB
:100E1000C0E00C151D05A1F0B801C7010E945303E5
:100E200090ED980F923048F42C2F30E0220F331FB2
:100E3000C1E0813309F0C0E0C22B0F5F1F4FE9CF43
:100E40008C2FCF911F910F91FF90EF90DF90CF905B
:100E500008950F931F93CF93DF93082F162FD42F4E
:100E6000C8E06D2F661F6627661F802F0E94E8016D
:100E7000DD0F61E0812F0E94E80160E0812F0E9478
:100E8000E801C15071F7DF91CF911F910F91089543
:100E90000F931F93CF93DF9300D0CDB7DEB7698355
:100EA0004A83880F991F00912D0810912E08000F7A
:100EB000111FE7EDF7E09F01275D3740201731074D
:100EC00014F41192F8CF2981FC01E952F84F2183E3
:100ED0008A81808360E080912B080E94E8011016CF
:100EE00011066CF401501109F801E952F84F4081E4
:100EF00060912908809127080E942907F0CF61E0BE
:100F000080912B080F900F90DF91CF911F910F913F
:100F10000C94E801EF92FF920F931F93CF937C0103
:100F20008C0183E0000F111F8A95E1F70951184FDA
:100F3000C1E0F80111928F0140E06C2FC7010E94BF
:100F40004807CF5FC930A9F7CF911F910F91FF904C
:100F5000EF90089597FD18C020912D0830912E082C
:100F6000821793078CF46830710570F4FC0123E05C
:100F7000EE0FFF1F2A95E1F7E952F84FE60FF71F32
:100F8000408B6F5F0C94480708950F931F93CF9386
:100F9000683E23E072078105910558F1685E734051
:100FA000810991092CE231E040E050E00E94423298
:100FB00027703327C1E001C0CC0F2A95EAF710E073
:100FC00000E04C2FB80190E080E00E94AA070F5F7C
:100FD0001F4F06301105A9F710E000E04C2FB801B3
:100FE00081E090E00E94AA070F5F1F4F06301105B5
:100FF000A9F7CF911F910F91089520912D0830915D
:101000002E08821793073CF46031710524F4462FB3
:101010006AE00C9448070895CF93DF9320ED37E002
:1010200040E050E00E944232683E23E07207CCF478
:10103000EB01D595C795D595C795CE010E94520273
:10104000CE0161E170E00E942E32EB0190E080E081
:101050000E94FD07BE0181E090E0DF91CF910C94EA
:10106000FD07685E734077FF02C06D5F7F4F759527
:10107000679575956795719561957109EB01C150FB
:10108000DF4FDBCFCF93DF93803108F08FE0809389
:101090000D01C82FD0E0BE0190E080E00E94FD0766
:1010A000BE0181E090E0DF91CF910C94FD07CF93DA
:1010B000DF93C0910607D091070760E084E00E94AB
:1010C000E8014D2F65E086E00E9429074C2F65E07E
:1010D00086E00E94290761E084E00E94E8016091B7
:1010E0000507C09104078091AC06882319F081E0C0
:1010F0006827C8278EE00E94E8016C2F80E10E94DB
:10110000E8018091030790E0DF91CF910C945202A7
:1011100028EC30E040E050E00E9442322F7033274C
:1011200081E090E0022E02C0880F991F0A94E2F736
:10113000909307078093060781E02115310509F098
:1011400080E08093050781E02130310509F080E0DF
:101150008093040788EC809303070C94570894E06D
:10116000899FF0011124613061F4E65CFE4F328109
:10117000238131110EC0223039F4409305070C94BD
:101180005708E65EFE4FF3CF233019F5409304076E
:10119000F6CF822F90E0313019F49C01285F3F4F49
:1011A00081E090E002C0880F991F2A95E2F7209114
:1011B000060730910707442339F0822B932B909335
:1011C000070780930607DBCF8095909582239323B2
:1011D000F6CF08951F93CF93DF93C7E0D0E010E0E0
:1011E00061E084E10E94E80183E10E94BF010C2ECE
:1011F00001C0880F0A94EAF7182B60E084E10E948E
:10120000E801219768F7812FDF91CF911F91089511
:10121000CF92DF92EF92FF920F931F93CF93DF93C2
:101220006C017B0160E085E10E94E801CBE4D0E045
:10123000CE010197F1F761E085E10E94E801CE015E
:101240000197F1F70E94EA08182F0E94EA0810950A
:10125000F60110838095F701808360E085E10E94AC
:10126000E801CE010197F1F761E085E10E94E80114
:101270002197F1F7C0E1D0E00FE010E060E084E1F9
:101280000E94E801C8010197F1F761E084E10E9442
:10129000E801C8010197F1F7219781F7DF91CF911C
:1012A0001F910F91FF90EF90DF90CF900895FC0178
:1012B00001900020E9F73197AF01481B590BBC01A1
:1012C00089E497E00C942A048F929F92AF92BF9288
:1012D0000F931F93CF93DF93CDB7DEB7A1970FB6D0
:1012E000F894DEBF0FBECDBF19A2423008F44AE029
:1012F0008E010F5D1F4F842E912CB12CA12CA501C6
:1013000094010E944232E62FB901CA01EA30F4F496
:10131000E05DD801EE938D01232B242B252B79F74B
:1013200090E080E0109719F0CD010E945709A19636
:101330000FB6F894DEBF0FBECDBFDF91CF911F91E6
:101340000F91BF90AF909F908F900895E95CE1CF8F
:10135000CF92DF92EF92FF92CF93DF936C01990FC0
:10136000EE08FF08F7FE19C06DE289E497E00E94DD
:10137000B804EC0166277727CB016C197D098E092B
:101380009F094AE00E9464098C0F9D1FDF91CF9155
:10139000FF90EF90DF90CF9008954AE0C701B6012B
:1013A000DF91CF91FF90EF90DF90CF900C94640984
:1013B000CF93DF930E945709EC018DEA91E00E94E0
:1013C00057098C0F9D1FDF91CF910895009711F061
:1013D0000C94570990E080E00895CF93DF930E942A
:1013E000AF04EC018DEA91E00E9457098C0F9D1F1C
:1013F000DF91CF91089580EB91E00E94E60987EBA1
:1014000091E00E94E60985EC91E00E94E60985EDF5
:1014100091E00E94E60987EB97E00E94AF0481E724
:1014200095E00E94E6098DEA91E00C945709CF936C
:10143000DF93FC014481558164177507C8F49B0153
:10144000EC01808191814150510955834483461BB1
:10145000570B6F5F7F4F680F791F820F931F0E949A
:10146000BF34E881F9818C819D81E80FF91F1082DA
:10147000DF91CF910895FC0180819181009711F057
:101480000C94643160E070E0CB010895AF92BF929C
:10149000CF92DF92EF92FF920F931F93CF93DF9340
:1014A000DC01CD90DC901197C114D10439F0149671
:1014B000CD91DC918C017601209761F4DF91CF9181
:1014C0001F910F91FF90EF90DF90CF90BF90AF9062
:1014D000089575015701BFEFAB1ABB0AF701808170
:1014E000082E000C990B0E94C531892B91F721978A
:1014F000CC0DDD1D8881082E000C990B0E94C53192
:10150000892B29F0CE15DF0510F02197F3CFAE011E
:101510004F5F5F4F4E195F09D80115965C934E934C
:101520001497CE14DF0420F4B701C6010E947B3467
:10153000D801ED91FC91119714968D919C91E80F33
:10154000F91F1082BBCFCF93DF93FC01C081D18103
:10155000209761F08991882349F0082E000C990B9F
:101560000E947334FE0131978083F4CFDF91CF91D5
:1015700008958F929F92AF92BF92CF92DF92EF9297
:10158000FF921F93CF93DF935C016B0185E0E82E00
:10159000F12CD0E0C0E0F60184809580C815D90513
:1015A000A8F040E0B701C5010E94AA07F1E0EF1AD8
:1015B000F10888F7DF91CF911F91FF90EF90DF90B6
:1015C000CF90BF90AF909F908F900895BE01C601BD
:1015D0000E9453038E3241F42196C815D90508F7AD
:1015E000BE01C6010E94530314E08432D1F01DE114
:1015F0008F36B9F010E18936A1F015E18D3689F00A
:101600001BE3893771F0082E000C990B0E9473348C
:10161000805210E08A3328F4E82FF0E0E65AFE4FBB
:1016200010812196C815D90538F4BE01C6010E9463
:1016300053038E3209F41068412FB4CFCF93DF9358
:10164000FC01248135814217530788F4C081D18180
:10165000062E000C770BCE01840F951F0E94963446
:10166000009729F08C1B9D0BDF91CF9108958FEF90
:101670009FEFFACF50E040E00C941E0BFB01448139
:101680005581FC01248135812417350778F080814C
:101690009181009759F0FB0160817181611571059D
:1016A00029F00E94B13421E0892B09F020E0822F3B
:1016B0000895EF92FF920F931F93CF93DF938617B6
:1016C000970769F1FC0124813581FB014481558133
:1016D00024173507E1F4232B11F1FC01008111815E
:1016E000FB01C081D181F80181918F018823B9F07C
:1016F000082E000C990B0E946B347C018991082EF6
:10170000000C990B0E946B34E816F90661F380E037
:10171000DF91CF911F910F91FF90EF90089581E09D
:10172000F7CFFC0124813581232B39F421E0FB0123
:101730008081882349F020E007C0808191810E9448
:10174000A13421E0892BB9F7822F0895FC0124816F
:101750003581FB014481558124173507E1F4FC01F3
:1017600080819181FB01608171810097D1F06115C9
:101770007105A1F4232BC1F0FC01808190E008C029
:10178000232B91F0FB01808190E091958195910947
:1017900021E0892B09F020E0822F08950E94A134D6
:1017A000F7CF6115710561F721E0F6CF0F931F9315
:1017B000CF93DF938C01EB01FC0180819181009735
:1017C000E1F06881798161157105A9F04281538149
:1017D0002C813D814217530770F00E94AA348C81FE
:1017E0009D81F801958384831D821C82DF91CF91B6
:1017F0001F910F9108950E941A3388819981F801F1
:10180000918380838A819B81938382838C819D8154
:1018100095838483198218821B821A82E5CFCF9325
:10182000DF93EC0188819981009711F00E941A33AF
:10183000198218821D821C821B821A82DF91CF912D
:101840000895FC0180819181009711F00C941A3366
:1018500008950F931F93CF93DF93EC0188819981B3
:10186000009759F02A813B812617370730F081E035
:10187000DF91CF911F910F9108958B016F5F7F4F83
:101880000E94A333009759F0998388831B830A83AE
:101890002C813D81232B59F7FC011082E8CF80E099
:1018A000E7CFEF92FF920F931F93CF93DF936115D2
:1018B000710541F480E0DF91CF911F910F91FF906E
:1018C000EF90089541155105B1F07B01EC010C81B9
:1018D0001D81040F151FB8010E94290C882351F3A4
:1018E000288139818C819D81B701820F931F0E94CD
:1018F000AA341D830C8381E0DECFCF93DF9300D029
:10190000CDB7DEB769831A8241E050E0BE016F5F58
:101910007F4F0E94510C0F900F90DF91CF9108954F
:10192000FB0101900020E9F73197AF01461B570BEF
:101930000C94510CEF92FF920F931F93CF93DF9370
:10194000EC017B018A01BA010E94290C81110BC0B4
:10195000CE010E940F0CCE01DF91CF911F910F910C
:10196000FF90EF9008951D830C83B70188819981C2
:101970000E94AA34F0CFFB0101900020E9F73197D3
:10198000AF01461B570B0C949A0C0F931F93CF93E8
:10199000DF93CDB7DEB762970FB6F894DEBF0FBE08
:1019A000CDBF8C01CB01F80111821082138212820B
:1019B000158214824AE0BE016F5F7F4F0E948B3117
:1019C000BE016F5F7F4FC8010E94BB0C62960FB6CD
:1019D000F894DEBF0FBECDBFDF91CF911F910F9165
:1019E0000895CF93DF93EC01FB018617970749F029
:1019F000608171816115710541F0448155810E94BA
:101A00009A0CCE01DF91CF9108950E940F0CF9CF6F
:101A1000FC011182108213821282158214820C94AE
:101A2000F10C8091150781113DC08091140781113F
:101A300039C06AED71E081ED97E00E94910B882337
:101A400089F16AED71E08BEC97E00E94910B88239D
:101A500049F165EA77E081ED97E00E94F10C6FE9CA
:101A600077E08BEC97E00E94F10C61ED77E090E07D
:101A700080E00E94B90A6BEC77E081E090E00E9480
:101A8000B90A0E944703609310077093110780936F
:101A900012079093130781E08093140781EE91E081
:101AA0000C94D8090895FC011182108213821282CD
:101AB000158214826115710551F0FB01019000201F
:101AC000E9F73197AF01461B570B0C949A0C089518
:101AD000AF92BF92CF92DF92EF92FF920F931F933C
:101AE000CF93DF936C015B017A01890124173507DD
:101AF00020F48F2D7901042F182F6FEA71E0C601B1
:101B00000E94530DD5011496CD91DC91EC16FD0683
:101B1000E0F40C171D0708F4E801D501ED91FC91E4
:101B20001197EC0FFD1F108110826D917C916E0D4D
:101B30007F1DC60161157105A1F00E94BB0CF50166
:101B400080819181C80FD91F1883C601DF91CF9181
:101B50001F910F91FF90EF90DF90CF90BF90AF90CB
:101B600008950E940F0CEBCFCF93DF93EC01FB01A4
:101B7000248135810E94680DCE01DF91CF910895B7
:101B80008F929F92AF92BF92CF92DF92EF92FF928D
:101B90000F931F93CF93DF938C015B014A016FEA90
:101BA00071E00E94530DF12CE12CD12CC12CD0E01E
:101BB000C0E0F50184819581E816F906C8F4C630C5
:101BC000D105FCF4B701C5010E9453038E3259F0D0
:101BD000C814D9043CF4FFEFCF1ADF0A8FEFE81ADC
:101BE000F80AE7CF2196682FC8010E947D0CF6CF36
:101BF000C630D10534F460E2C8010E947D0C219604
:101C0000F7CFC801DF91CF911F910F91FF90EF9017
:101C1000DF90CF90BF90AF909F908F900895BF922C
:101C2000CF92DF92EF92FF920F931F93CF93DF93A8
:101C30008C016B016FEA71E00E94530DF12CE12CD5
:101C4000D0E0C0E0F60184819581E816F90698F4A9
:101C5000C630D105CCF4B701C6010E945303B82E9B
:101C6000682FC8010E947D0CFEE2BF1221968FEF03
:101C7000E81AF80AE7CFC630D10534F460E2C801AB
:101C80000E947D0C2196F7CFC801DF91CF911F9163
:101C90000F91FF90EF90DF90CF90BF9008950F933A
:101CA0001F93CF93DF93CDB7DEB72C970FB6F89481
:101CB000DEBF0FBECDBF8B01BC0185EC97E00E945B
:101CC000F10CB8018FEB97E00E94F10C85EC97E0E6
:101CD0000E942E0521E007970CF420E02093D806FF
:101CE0008FEB97E00E942E0521E007970CF420E08F
:101CF0002093D5061092D7061092D6061092D406DD
:101D00001092D3060E9447036093D9067093DA06B7
:101D10008093DB069093DC0665EC77E0CE010196BC
:101D20000E940F0E6FEB77E0CE0107960E940F0E18
:101D3000BE016F5F7F4F90E080E00E94B90ABE0154
:101D4000695F7F4F81E090E00E94B90ABE016F5F3A
:101D50007F4F81ED97E00E94F10CBE01695F7F4FDC
:101D60008BEC97E00E94F10CCE0107960E94210CAB
:101D7000CE0101960E94210C2C960FB6F894DEBF7E
:101D80000FBECDBFDF91CF911F910F910895CF93DB
:101D9000DF93CDB7DEB72C970FB6F894DEBF0FBE3A
:101DA000CDBF6EEF71E0CE0101960E94530D65E04C
:101DB00072E0CE0107960E94530DBE016F5F7F4F08
:101DC000CE0107960E944F0ECE0107960E94210C6D
:101DD000CE0101960E94210C68EE73E080E090E055
:101DE0000E9415030E94170162E370E080E090E01A
:101DF0000E94150388E198E00FB6F894A8958093A7
:101E000060000FBE90936000FFCF8F929F92AF92C1
:101E1000BF92CF92DF92EF92FF920F931F93CF93D7
:101E2000DF93CDB7DEB762970FB6F894DEBF0FBE73
:101E3000CDBF24EF31E040E050E00E944232490142
:101E40005A01CA01B9012AE030E040E050E00E94A6
:101E500042327B01C501B40126E030E040E050E0B1
:101E60000E9442326B016FEA71E0CE0107960E9438
:101E7000530D6FEA71E0CE010D960E94530D10E0F4
:101E800000E0B701CE0101960E94C50C4D815E8134
:101E900069817A81CE0107960E94510CCE0101968C
:101EA0000E94210CB701CE0101960E94C50C4D8104
:101EB0005E8169817A81CE010D960E94510CCE011E
:101EC00001960E94210CC016D10661F46BE072E00D
:101ED000CE0107960E94900C6BE072E0CE010D9649
:101EE0000E94900C0F5F1F4F0630110551F6BE0186
:101EF000635F7F4FCE0107960E944F0ECE010D9675
:101F00000E94210CCE0107960E94210C62960FB60A
:101F1000F894DEBF0FBECDBFDF91CF911F910F911F
:101F2000FF90EF90DF90CF90BF90AF909F908F90F9
:101F30000895EF92FF920F931F93CF93DF938C013D
:101F4000E62E6FEA71E00E94530DC7E0D0E0F12C5D
:101F5000C7010C2E02C0959587950A94E2F760E3BD
:101F600080FD61E3C8010E947D0C219788F7C801BC
:101F7000DF91CF911F910F91FF90EF900895EF9215
:101F8000FF920F931F93CF93DF9300D000D000D028
:101F9000CDB7DEB78DE092E00E94E6096091270799
:101FA000CE0101960E94990FCE0101960E94AF04C6
:101FB000CE0101960E94210C81E795E00E94E6097E
:101FC00082E192E00E94E60960912607CE01019627
:101FD0000E94990FCE0101960E94AF04CE01019696
:101FE0000E94210C81E795E00E94E609E0901C0721
:101FF000F0901D0780911A0790911B07E81AF90AC3
:1020000000911807109119078091160790911707F2
:10201000081B190B87E192E00E94E609C7010E94A4
:10202000A80981E795E00E94E6098CE192E00E9410
:10203000E609C8010E94A80981E795E00E94E60927
:102040008DEA91E00E94570980911C0790911D072D
:1020500090931B0780931A07809118079091190796
:1020600090931707809316070E94470326960FB692
:10207000F894DEBF0FBECDBFDF91CF911F910F91BE
:10208000FF90EF9008950F931F93CF93DF93CDB7F9
:10209000DEB72C970FB6F894DEBF0FBECDBF94E02D
:1020A000899F80011124613049F5065C1E4F61E271
:1020B00072E0CE0107960E94530DF8016081718194
:1020C000CE0101960E94530DBE01695F7F4FCE0184
:1020D00001960E944F0ECE0101960E94210CCE0166
:1020E00007960E94210C2C960FB6F894DEBF0FBE07
:1020F000CDBFDF91CF911F910F910895065E1E4FC6
:10210000D6CF0F931F93CF93DF93CDB7DEB72C9726
:102110000FB6F894DEBF0FBECDBF94E0899F80015B
:102120001124613049F5065C1E4F68E272E0CE0171
:1021300007960E94530DF80160817181CE010196CE
:102140000E94530DBE01695F7F4FCE0101960E9430
:102150004F0ECE0101960E94210CCE0107960E94DF
:10216000210C2C960FB6F894DEBF0FBECDBFDF91C9
:10217000CF911F910F910895065E1E4FD6CF2F92DB
:102180003F924F925F926F927F928F929F92AF9207
:10219000BF92CF92DF92EF92FF920F931F93CF9354
:1021A000DF93CDB7DEB76E970FB6F894DEBF0FBEE4
:1021B000CDBF0E9447036B017C0166E277E087E2B6
:1021C00097E00E9408090E9407060E945505209189
:1021D000270780912507281306C090912607809134
:1021E0002407981741F18091200790912107A09131
:1021F0002207B0912307B701A601481B590B6A0BB0
:102200007B0B8091120190E0B0E0A0E048175907E5
:102210006A077B0780F0C0922007D0922107E092E6
:102220002207F092230720932507809126078093A9
:1022300024070E94110D80910807811159C081E087
:10224000809308071092F5061092F4061092F30698
:102250001092F20680911C0790911D079093F10651
:102260008093F0061092EF066DE372E0CE010796C0
:102270000E94530D64E472E0CE0101960E94530D5A
:10228000BE01695F7F4FCE0101960E944F0ECE01C5
:1022900001960E94210CCE0107960E94210CC0924B
:1022A000EB06D092EC06E092ED06F092EE06C092BC
:1022B000E706D092E806E092E906F092EA066E960A
:1022C0000FB6F894DEBF0FBECDBFDF91CF911F9147
:1022D0000F91FF90EF90DF90CF90BF90AF909F90C5
:1022E0008F907F906F905F904F903F902F900895C8
:1022F00080910B0790910C07A0910D07B0910E07EC
:1023000026013701481A590A6A0A7B0AD301C20119
:10231000803D9740A105B10590F28091EB06909128
:10232000EC06A091ED06B091EE06A7019601281BE0
:10233000390B4A0B5B0BDA01C90180319742A105C9
:10234000B10508F452C010920707109206071092C8
:10235000050710920407109203070E9457086AEDC0
:1023600071E0CE0107960E94530D6AED71E0CE0137
:1023700001960E94530DBE01695F7F4FCE01019609
:102380000E944F0ECE0101960E94210CCE010796AD
:102390000E94210C6AED71E0CE0101960E94530D5E
:1023A000BE016F5F7F4F90E080E00E94B90ACE01CE
:1023B00001960E94210C6AED71E0CE0101960E9407
:1023C000530DBE016F5F7F4F81E090E00E94B90A1C
:1023D000CE0101960E94210C81E090E0909331079C
:1023E00080933007109208076ACF8091F20690918F
:1023F000F306009709F05DC120911C0730911D077D
:102400008091F0069091F106281B390B09F475C0F4
:102410008091E7069091E806A091E906B091EA065E
:10242000B701A601481B590B6A0B7B0BDB01CA01E4
:102430008C329140A105B10508F45FC08091E3069C
:102440009091E406A091E506B091E606C816D9067B
:10245000EA06FB0648F480911C0790911D079093B3
:10246000F1068093F00623CF8091F4069091F50653
:10247000121613060CF0A6C001969093F5068093F1
:10248000F4068091F4069091F50697FF04C010922F
:10249000F5061092F4068091F4069091F5060497E3
:1024A00034F083E090E09093F5068093F4068091F9
:1024B0001C0790911D079093F1068093F006C0923F
:1024C000E706D092E806E092E906F092EA06D70124
:1024D000C6018C549F4FAF4FBF4F8093E30690933C
:1024E000E406A093E506B093E606C092EB06D09210
:1024F000EC06E092ED06F092EE060091F4061091E3
:10250000F5060130110509F48BC00CF05DC0011512
:10251000110509F469C08091250780FFC7C080912B
:10252000EF068111CCCE8091DF069091E006A0915C
:10253000E106B091E20626013701481A590A6A0AF3
:102540007B0AD301C2018A3F9105A105B10508F4B8
:10255000B6CE81E08093EF06C092DF06D092E0060F
:10256000E092E106F092E206C092EB06D092EC0611
:10257000E092ED06F092EE060115110509F062C039
:1025800021E030E03093F3062093F2061092DE064D
:102590001092DD068093080780911C0790911D071B
:1025A0009093F1068093F0060AEFC00ED11CE11C57
:1025B000F11CC092E306D092E406E092E506F092A8
:1025C000E6067DCE019759CF0230110591F1033017
:1025D000110509F0A0CF6AE672E0CE0107960E94CD
:1025E000530D62E772E008C06BE472E0CE0107961B
:1025F0000E94530D62E572E0CE0101960E94530DD8
:10260000BE01695F7F4FCE0101960E944F0ECE0141
:1026100001960E94210CCE0107960E94210C7BCFCF
:102620006BE472E0CE0107960E94530D6AE572E0FA
:10263000E3CF6AED71E0CE0107960E94530D62E68A
:1026400072E0DACF01301105D1F424E030E03093AC
:10265000F3062093F2061092DE061092DD068093B8
:10266000080780911C0790911D079093F1068093B5
:10267000F0061AEFC10ED11CE11CF11C9ACF0230FA
:10268000110579F485E090E09093F3068093F206CB
:10269000C0920B07D0920C07E0920D07F0920E0744
:1026A0000ECE0330110509F00ACE4DCE1092EF0682
:1026B00006CE8230910509F01BC28091C8068111B7
:1026C00026C06AE772E0CE0101960E94530D61E8D0
:1026D00072E0CE0107960E94530DBE016F5F7F4FDF
:1026E000CE0107960E944F0ECE0107960E94210C44
:1026F000CE0101960E94210C0E94470381E0809345
:10270000C80664E277E085E297E00E9408090E942B
:1027100047036B017C012BEC222E27E0322E0E9416
:1027200047034B015C01BE016D5E7F4FCE014996B0
:102730000E940809698C80912507681651F1682666
:1027400010E000E0712CC301002E02C09595879522
:102750000A94E2F780FF15C0898D90E0002E02C038
:10276000959587950A94E2F761E080FFA9C1802FD3
:102770000E94811041E061E0802F0E94AF08750146
:1027800064010F5F1F4F08301105E9F6898D8093B2
:1027900025076B8880912407681651F1682610E0A0
:1027A00000E0712CC301002E02C0959587950A9414
:1027B000E2F780FF15C08B8990E0002E02C095954E
:1027C00087950A94E2F762E080FF7FC1802F0E9424
:1027D000811041E062E0802F0E94AF087501640122
:1027E0000F5F1F4F08301105E9F68B89809324078E
:1027F000898D811131C08B8981112EC0D501C40111
:102800008C199D09AE09BF09883E9340A105B10509
:1028100018F16AE772E0CE0101960E94530D61E85B
:1028200072E0CE0107960E94530DBE016F5F7F4F8D
:10283000CE0107960E944F0ECE0107960E94210CF2
:10284000CE0101960E94210C7501640130E1C30E96
:1028500037E2D31EE11CF11C0E9407060E945505B9
:1028600080911C0790911D072091F0063091F10690
:10287000821B930B00911807109119072091C6062F
:102880003091C706021B130B009709F46FC04091EB
:10289000C2065091C3066091C4067091C50624011A
:1028A0003501441A550A660A770AA3019201243BAE
:1028B00031054105510508F459C06FE272E0181660
:1028C000190614F066E372E0CE010D960E94530DD6
:1028D00068E872E0CE0101960E94530DBE01635F6D
:1028E0007F4FCE0101960E944F0ECE0101960E94AD
:1028F000210C68EE73E080E090E00E9415036AE727
:1029000072E0CE0101960E94530D61E872E0CE01A3
:1029100007960E94530DBE016F5F7F4FCE01079651
:102920000E944F0ECE0107960E94210CCE01019607
:102930000E94210C80911C0790911D079093F10635
:102940008093F0068092C2069092C306A092C406BD
:10295000B092C5067501640130E1C30E37E2D31EA3
:10296000E11CF11CCE010D960E94210C01151105F0
:1029700009F451C06FE272E01016110614F066E31C
:1029800072E0CE010D960E94530D6FE872E0CE0109
:1029900001960E94530DBE01635F7F4FCE010196E9
:1029A0000E944F0ECE0101960E94210C68EE73E04A
:1029B00080E090E00E9415036AE772E0CE01019684
:1029C0000E94530D61E872E0CE0107960E94530DFC
:1029D000BE016F5F7F4FCE0107960E944F0ECE0162
:1029E00007960E94210CCE0101960E94210C809135
:1029F0001807909119079093C7068093C606750132
:102A0000640140E1C40E47E2D41EE11CF11CCE017A
:102A10000D960E94210C898D982F917080FF62C0C5
:102A20008091C10681115EC04091BD065091BE06E5
:102A30006091BF067091C00624013501441A550A01
:102A4000660A770AB301A201443F5140610571054E
:102A500008F040C068EC70E080E090E00E94150350
:102A600010920707109206071092050710920407AC
:102A7000109203070E9457086AED71E0CE0101969B
:102A80000E94530D6AED71E0CE0107960E94530D2E
:102A9000BE016F5F7F4FCE0107960E944F0ECE01A1
:102AA00007960E94210CCE0101960E94210C1092E3
:102AB000F3061092F206109208071092C806FFCB98
:102AC000802F0E94431040E056CE802F0E9443107A
:102AD00040E080CE8092BD069092BE06A092BF06D6
:102AE000B092C0069093C106C1010197F1F717CECD
:102AF0008330910509F059C18091D20681112EC011
:102B000066E972E0CE0101960E94530D6DE972E014
:102B1000CE0107960E94530DBE016F5F7F4FCE011D
:102B200007960E944F0ECE0107960E94210CCE01FF
:102B300001960E94210C68EE73E080E090E00E9414
:102B4000150381E08093D2060E9447036093CE066E
:102B50007093CF068093D0069093D1060E944703CE
:102B6000DD24D3949BECE92E97E0F92E0E944703D5
:102B70004B015C01BE01675E7F4FCE014A960E9409
:102B800008098091CE069091CF06A091D006B09111
:102B9000D106A5019401281B390B4A0B5B0BDA0106
:102BA000C901883E9340A105B10568F080910001FC
:102BB0008D25809300018092CE069092CF06A09240
:102BC000D006B092D1066FEA71E0CE0143960E9422
:102BD000530D6FEA71E0CE010D960E94530D809166
:102BE0000001882309F491C064EA72E0CE014396A3
:102BF0000E94BB0C8A8D68E475E086FD02C06CE51E
:102C000073E0CE0143960E94900C8A8D68E475E0D3
:102C100087FD02C06CE573E0CE0143960E94900CE4
:102C20006FEA71E0CE010D960E94BB0C05E010E04A
:102C30008A8D90E0002E02C0959587950A94E2F760
:102C400068E475E080FD02C06CE573E0CE010D968E
:102C50000E94900C0150110958F7BE01635F7F4F2D
:102C6000CE0143960E944F0E8A8D982F917080FF5F
:102C70008EC08091CD0681118AC04091C9065091C5
:102C8000CA066091CB067091CC0624013501441A26
:102C9000550A660A770AB301A201443F5140610513
:102CA000710508F06CC068EC70E080E090E00E9474
:102CB00015036AED71E0CE0101960E94530D6AED95
:102CC00071E0CE0107960E94530DBE016F5F7F4FEA
:102CD000CE0107960E944F0ECE0107960E94210C4E
:102CE000CE0101960E94210C1092F3061092F2067A
:102CF000109208071092D206CE010D960E94210C68
:102D0000CE0143960E94210CDACA69EA72E0CE0134
:102D100043960E94BB0C898D68E475E086FD02C075
:102D20006CE573E0CE0143960E94900C898D68E4B7
:102D300075E087FD02C06CE573E0CE0143960E940A
:102D4000900C6FEA71E0CE010D960E94BB0C05E07D
:102D500010E0898D90E0002E02C0959587950A9429
:102D6000E2F768E475E080FD02C06CE573E0CE0137
:102D70000D960E94900C0150110958F76ECF809269
:102D8000C9069092CA06A092CB06B092CC06909348
:102D9000CD06C7010197F1F7CE010D960E94210CD7
:102DA000CE0143960E94210CE1CE8430910509F0BA
:102DB0000BC120911C0730911D078091F006909166
:102DC000F106281B390B09F46DC08091E70690913C
:102DD000E806A091E906B091EA06B701A601481BF2
:102DE000590B6A0B7B0BDB01CA018C329140A105A8
:102DF000B10508F457C08091E3069091E406A091D4
:102E0000E506B091E606C816D906EA06FB0608F400
:102E100022CB8091DD069091DE06121613060CF08F
:102E2000ACC001969093DE068093DD068091DD06AE
:102E30009091DE0697FF04C01092DE061092DD0628
:102E40008091DD069091DE06039734F082E090E0F9
:102E50009093DE068093DD0680911C0790911D07FC
:102E60009093F1068093F006C092E706D092E806B0
:102E7000E092E906F092EA06D701C6018C549F4F12
:102E8000AF4FBF4F8093E3069093E406A093E5060F
:102E9000B093E606C092EB06D092EC06E092ED0607
:102EA000F092EE060091DD061091DE06013011056C
:102EB00009F465C00230110509F46AC00115110555
:102EC000D9F46BE472E0CE0107960E94530D6EEACE
:102ED00072E0CE0101960E94530DBE01695F7F4FE3
:102EE000CE0101960E944F0ECE0101960E94210C48
:102EF000CE0107960E94210C8091250780FFD6CB3A
:102F00008091EF068111DBC98091DF069091E00688
:102F1000A091E106B091E20626013701481A590A4C
:102F20006A0A7B0AD301C2018A3F9105A105B10556
:102F300008F4C5C981E08093EF06C092DF06D09205
:102F4000E006E092E106F092E206C092EB06D09233
:102F5000EC06E092ED06F092EE060115110509F57A
:102F600082E090E09093F3068093F20664E277E0CB
:102F700085E297E00E9408098BCB019753CF66E961
:102F800072E0CE0107960E94530D66EB72E0A1CF6E
:102F90006AED71E0CE0107960E94530D6EEB72E070
:102FA00098CF0130110539F483E090E09093F30657
:102FB0008093F20684C90230110509F080C910928D
:102FC000F3061092F2060ECA8530910509F0A3C0EF
:102FD00061EB77E0CE0107960E94080D8B859C85FA
:102FE000079760F060E2CE0107960E943A0B97FDCA
:102FF00005C0BC01CE0107960E94170A8B859C85EF
:103000008630910538F46FED71E0CE0107960E948D
:10301000900CF4CF0697B1F026E030E050E040E0AD
:10302000BE01695F7F4FCE0101960E94680DBE010F
:103030006F5F7F4FCE0107960E94D60BCE0101969F
:103040000E94210C67EB77E0CE0101960E94080DEB
:103050008D819E818630910538F46FED71E0CE014F
:1030600001960E94900CF4CF0697B1F026E030E074
:1030700050E040E0BE016F5F7F4FCE010D960E9491
:10308000680DBE01635F7F4FCE0101960E94D60B93
:10309000CE010D960E94210CBE016F5F7F4FCE01C5
:1030A00007960E944F0E8091250780FF31C08091C6
:1030B000EF06811126C08091DF069091E006A09175
:1030C000E106B091E20697018601081B190B2A0B55
:1030D0003B0BD901C8018A3F9105A105B10588F0D4
:1030E00081E08093EF06C092DF06D092E006E09286
:1030F000E106F092E2061092F3061092F2061092A8
:103100000807CE0101960E94210CCE010796FACD48
:103110001092EF06F6CF019709F088C220911C07A4
:1031200030911D078091F0069091F106281B390B14
:1031300009F46DC08091E7069091E806A091E90638
:10314000B091EA06B701A601481B590B6A0B7B0B2D
:10315000DB01CA018C329140A105B10508F457C0CA
:103160008091E3069091E406A091E506B091E60611
:10317000C816D906EA06FB0608F46DC98091DD067B
:103180009091DE06121613060CF0A1C001969093E2
:10319000DE068093DD068091DD069091DE0697FFC6
:1031A00004C01092DE061092DD068091DD0690913B
:1031B000DE06069734F085E090E09093DE0680937B
:1031C000DD0680911C0790911D079093F106809376
:1031D000F006C092E706D092E806E092E906F09287
:1031E000EA06D701C6018C549F4FAF4FBF4F809363
:1031F000E3069093E406A093E506B093E606C0923A
:10320000EB06D092EC06E092ED06F092EE0600910D
:10321000DD061091DE060230110509F491C00CF0B4
:1032200058C00115110509F466C00130110509F4F3
:103230007EC08091250780FF39CA8091EF068111F9
:103240003EC88091DF069091E006A091E106B09122
:10325000E20626013701481A590A6A0A7B0AD30195
:10326000C2018A3F9105A105B10508F428C8BB2415
:10327000B394B092EF06C092DF06D092E006E092DF
:10328000E106F092E206C092EB06D092EC06E092E4
:10329000ED06F092EE060115110509F06CC0B09232
:1032A000020783E090E090933107809330070E94FB
:1032B000470360930B0770930C0780930D0790935F
:1032C0000E0784E093E00E94D8090C945F110197E7
:1032D0005ECF0430110509F445C0DCF1053011055D
:1032E00009F0A7CF6AED71E0CE0107960E94530D59
:1032F0006EEB72E008C065EC72E0CE0107960E94AA
:10330000530D6CEC72E0CE0101960E94530DBE018C
:10331000695F7F4FCE0101960E944F0ECE0101964C
:103320000E94210CCE0107960E94210C82CF63EDF2
:1033300072E0CE0107960E94530D6AED72E0E3CF72
:1033400061EE72E0CE0107960E94530D68EE72E0C6
:10335000DACF6BE472E0CE0107960E94530D6FEE58
:1033600072E0D1CF66EF72E0CE0107960E94530D56
:103370006DEF72E0C8CF0130110559F50E94470387
:103380006B017C0110920707109206071092050747
:1033900010920407109203070E9457080E944703E7
:1033A0006C197D098E099F09683873418105910563
:1033B00008F0BAC00E9447036C197D098E099F0965
:1033C0000E94050F60E570E080E090E00E94150328
:1033D000E5CF0230110509F057C00E9447034B01A9
:1033E0005C0161EE72E0CE0107960E94530D65E12B
:1033F00073E0CE0101960E94530DBE01695F7F4FBD
:10340000CE0101960E944F0ECE0101960E94210C22
:10341000CE0107960E94210C68EE73E080E090E0F8
:103420000E94150388E1C82E8CEFD82EEE24EA9472
:10343000FE2CC818D908EA08FB080E94470368193F
:1034400079098A099B09683873418105910578F4E7
:103450000E9447036C0D7D1D8E1D9F1D0E948808D4
:1034600064E670E080E090E00E941503E6CF1092E1
:103470000707109206071092050710920407109292
:1034800003070E9457089BCD0330110509F068C05F
:103490000E9447036B017C016BE472E0CE0107964A
:1034A0000E94530D6FEE72E0CE0101960E94530D03
:1034B000BE01695F7F4FCE0101960E944F0ECE0183
:1034C00001960E94210CCE0107960E94210C68EE05
:1034D00073E080E090E00E941503109207071092BD
:1034E0000607109205071092040780E880930307EF
:1034F0000E9457080E9447036C197D098E099F0995
:10350000683873418105910578F40E9447036C196E
:103510007D098E099F090E94C50762E370E080E083
:1035200090E00E941503E6CF6AED71E0CE010796A8
:103530000E94530D6AED71E0CE0101960E94530D79
:10354000BE01695F7F4FCE0101960E944F0ECE01F2
:1035500001960E94210CCE0107960E94210C2FCDCE
:103560000430110509F05CC00E9447036B017C0127
:103570006BE472E0CE0107960E94530D6CE173E09C
:10358000CE0101960E94530DBE01695F7F4FCE01AF
:1035900001960E944F0ECE0101960E94210CCE0191
:1035A00007960E94210C8FEF9FEF9093070780935F
:1035B0000607B0920507B0920407809303070E94A4
:1035C00057080E9447036C197D098E099F096838C6
:1035D00073418105910578F40E9447036C197D09B8
:1035E0008E099F090E940C0868E270E080E090E07C
:1035F0000E941503E6CF109207071092060710925B
:10360000050710920407109203070E94570883E2EF
:1036100093E00E94D80980910D010E944208CFCC0E
:103620000530110511F00C945F11C9CC8091D906B9
:103630009091DA06A091DB06B091DC06B701A601F5
:10364000481B590B6A0B7B0BDB01CA018C32914082
:10365000A105B10510F40C945F11C092D906D09267
:10366000DA06E092DB06F092DC068091D806882329
:10367000A1F185EC97E00E942E052091D6063091AD
:10368000D7062F5F3F4F8630910514F486E090E017
:103690000697821793070CF458C03093D7062093EF
:1036A000D6064091D6065091D70665EC77E0CE015C
:1036B00001960E94C00DBE016F5F7F4F90E080E0D9
:1036C0000E94B90ABE016F5F7F4F81ED97E00E94B3
:1036D000F10CCE0101960E94210C8091D506882321
:1036E00011F40C945F118FEB97E00E942E0520914E
:1036F000D3063091D4062F5F3F4F8630910514F4E6
:1037000086E090E006978217930724F13093D40661
:103710002093D3064091D3065091D4066FEB77E007
:10372000CE0101960E94C00DBE016F5F7F4F81E008
:1037300090E00E94B90ABE016F5F7F4F8BEC97E06B
:103740000E94F10CCE010196DDCA1092D7061092AC
:10375000D606A7CF1092D4061092D306DBCF0C94D6
:10376000E1312F923F924F925F926F927F928F92B0
:103770009F92AF92BF92CF92DF92EF92FF920F9300
:103780001F93CF93DF93CDB7DEB762970FB6F89450
:10379000DEBF0FBECDBF61EB77E0CE010D960E947C
:1037A000080DCE010D960E94A30A6FEA71E0CE01CA
:1037B00007960E94530D6FED71E0CE0101960E94B5
:1037C000530DA988BA88A114B10409F461C08D8091
:1037D0009E808114910409F45BC0EB84FC84E8189A
:1037E000F9080D851E85E114F104A1F469817A813F
:1037F000C8010E94CE348C01009709F449C06F8142
:1038000078854B855C850E947B348B859C85080F71
:10381000191FECCFF7FC0FC069807A806501C801E1
:10382000B3010E94CE34009709F463C0880D991D3E
:10383000CE0CDF1CF5CF680169817A81C8010E9436
:10384000CE345C01009701F14C01801A910AA40169
:10385000B801C6010E947B34C80CD91C6F817885E1
:103860004B855C85C6010E947B348B859C85C80E88
:10387000D91E0D811E810A0D1B1D89899A898E0D05
:103880009F1D9A8B898BD8CFB801C6010E94AA349C
:10389000CE0101960E94210CCE0107960E94210CB8
:1038A00068E473E0CE010D960E94910B91E08111C6
:1038B00001C090E09093AC06CE010D960E94210CC1
:1038C00062960FB6F894DEBF0FBECDBFDF91CF91E9
:1038D0001F910F91FF90EF90DF90CF90BF90AF902E
:1038E0009F908F907F906F905F904F903F902F9020
:1038F0000895AC14BD0461F28F8598898C159D05DF
:1039000068F4B6016F5F7F4FC8010E94A333009730
:1039100009F4BECF9E878D87D88ACF8609891A89F8
:103920000150110917FDB4CF48016D807E806114EC
:10393000710409F4ADCFA988BA88A114B10409F4BF
:10394000A7CFA614B70408F4A3CF0A151B0520F0CF
:10395000450181E0881A9108CD84DE8429803A806F
:10396000C6010FEF1FEF2601480C591C48165906D7
:1039700078F0B1010E94CE34009751F09C012C19CF
:103980003D098216930608F4980101968901EECF4D
:1039900017FD7ECF600E711EC601860D971DA50115
:1039A00046195709BC018E0D9F1D0E9484348989D8
:1039B0009A898E0D9F1D9A8B898B2D853E85820F4E
:1039C000931FFC0110828D859E856F8178854B85C4
:1039D0005C85800F911F0E947B34A2CF1F920F92B3
:1039E0000FB60F9211242F933F938F939F93AF9312
:1039F000BF938091330790913407A0913507B09120
:103A000036073091320723E0230F2D3758F5019602
:103A1000A11DB11D20933207809333079093340783
:103A2000A0933507B09336078091370790913807F8
:103A3000A0913907B0913A070196A11DB11D80935D
:103A4000370790933807A0933907B0933A07BF918F
:103A5000AF919F918F913F912F910F900FBE0F903B
:103A60001F90189526E8230F0296A11DB11DD2CFF5
:103A70001F920F920FB60F9211242F933F934F93E3
:103A80005F936F937F938F939F93AF93BF93CF93E6
:103A9000EF93FF93C091E1008091E100837F8093D9
:103AA000E100C3FF0FC01092E90081E08093EB00BA
:103AB0001092EC0082E38093ED001092480788E0BA
:103AC0008093F000C2FF1AC00E9417018091FB068C
:103AD000882341F08091FB0681508093FB06811181
:103AE00001C05D9880914707882341F08091470786
:103AF000815080934707811101C02898C4FF23C0DB
:103B00008091E2008E7E81608093E2008091E100EE
:103B10008F7E8093E1008091FC068E7E8061809391
:103B2000FC06FF91EF91CF91BF91AF919F918F9143
:103B30007F916F915F914F913F912F910F900FBEA9
:103B40000F901F901895C0FFECCF8091E2008E7E01
:103B500080618093E2008091E1008E7E8093E1009D
:103B60008091FC068E7E8160DACF1F920F920FB695
:103B70000F921124CF92DF92EF92FF920F931F9337
:103B80002F933F934F935F936F937F938F939F9365
:103B9000AF93BF93EF93FF93CF93DF93CDB7DEB790
:103BA0006C97DEBFCDBF1092E9008091E80083FFE3
:103BB00025C068E0CE0145960E941D0482EF8093E7
:103BC000E8008D8987FF39C09091E80090FFFCCF15
:103BD000982F907609F034C19E894F89588D2F898E
:103BE000F88C911131C0803861F58091FD06809389
:103BF000F1001092F1008EEF8093E8006C960FB602
:103C0000F894DEBF0FBECDBFDF91CF91FF91EF9152
:103C1000BF91AF919F918F917F916F915F914F91E4
:103C20003F912F911F910F91FF90EF90DF90CF90D8
:103C30000F900FBE0F901F9018959EEF9093E80085
:103C4000C7CF1092F100D5CF913059F48111D3CF65
:103C50004130510581F68091FD068D7F8093FD06F0
:103C6000CACF933049F48111C6CF4130510519F6BE
:103C70008091FD068260F2CF953041F48091E8009A
:103C800080FFFCCF20682093E300B5CF963009F089
:103C9000A9C00B8D1C8D22E01092E9001092F9064C
:103CA0001092F806F2122EC01092F7061092F60645
:103CB0000E94EC031F8299E09983FA8291E09E832F
:103CC00090EA98879AEF99872091F8063091F90643
:103CD000275F3F4F3C832B838D831092E900109226
:103CE000F9061092F8061093F7060093F60649E0DD
:103CF00050E0BE016F5F7F4F80E00E94C6030E94CC
:103D0000EC0379CF1093F7060093F6060E945F014B
:103D1000DC0112960D911C910115110509F451C198
:103D2000D801ED91FC910480F581E02DBE016B5E20
:103D30007F4FC8010995009709F03EC1F801008541
:103D40001185EACFF3E0FF120EC08F89882309F4B2
:103D500040C0823061F440E86DE080E191E00E9473
:103D60009303811148CF81E28093EB0047CF8130EC
:103D700029F440E86BE084E091E0F1CF833099F7DB
:103D80000E945F01DC011296ED90FC908E010F5FA6
:103D90001F4F6801E114F10479F0D701ED91FC9116
:103DA0000680F781E02DB801C7010995080F111DA4
:103DB000F701E084F184EECFD8011C92F601019066
:103DC0000020E9F73197BF016C197D0940E0C60179
:103DD000C6CF6EEE70E0FB01449150E080E80E9497
:103DE000C60309CF973009F4BECF983021F481E0A3
:103DF0008093F10000CF993009F0FDCE837009F077
:103E0000B2CFE5E9F1E081E031E096E321912223B0
:103E100071F08093E9003093EB00DF0111972C9152
:103E20002093EC009093ED008F5F873079F78EE759
:103E30008093EA001092EA008F8980934807DBCED6
:103E40008B8D9C8D1092E9001092F9061092F80665
:103E50009093F7068093F606898D811192C08E8922
:103E60009D89913A49F4813209F07DCF47E050E0D5
:103E700065E071E080E0B3CF913209F074CF833216
:103E800069F48F89988DB0E0A0E080930101909350
:103E90000201A0930301B0930401ADCE803269F416
:103EA0008091E80082FFFCCF67E085E091E00E940E
:103EB0001D048BEF8093E8009ECE823209F09BCEEA
:103EC0008F8980930C01EEEFFFE7859194918B3FF2
:103ED0009C4D51F1E0E0F8E08091050190910601E0
:103EE000A0910701B0910801803B9440A105B10564
:103EF000F1F480910C0180FD1AC0EE3F8AE0F807D2
:103F000089F587E797E791838083809160008093AC
:103F1000FA0688E19BE00FB6F894A89580936000BC
:103F20000FBE9093600067CEEEEFFAE0D5CF8081B0
:103F300091818737974709F05ECEA8958091600000
:103F40008861809360008091FA0680936000EE3F64
:103F50002AE0F20789F08091FE0A9091FF0A91838E
:103F6000808349CE808191818737980751F2909361
:103F7000FF0A8093FE0AC5CF1092FF0A1092FE0A34
:103F80003ACE0E945F01DC0112960D911C91011541
:103F9000110509F4E8CED801ED91FC910190F08172
:103FA000E02DBE016B5E7F4FC8010995811123CEC4
:103FB000F80100851185EBCF181619060CF41BCEFD
:103FC000D2CEF1E0FF12BECE62EF70E004CFEF92EE
:103FD000FF920F931F93CF93DF93CDB7DEB7289750
:103FE0000FB6F894DEBF0FBECDBF7C01CB014AE017
:103FF0008E010F5F1F4FB8010E948B31F8010190B5
:104000000020E9F73197AF01401B510BB801C70100
:104010000E94510C811103C0C7010E940F0CC701FF
:1040200028960FB6F894DEBF0FBECDBFDF91CF91BB
:104030001F910F91FF90EF900895FF920F931F93A0
:10404000CF93DF93EC01F62E08811981C8010E94FD
:10405000E131F81621F06F2DC8010E94E931CE013F
:10406000DF91CF911F910F91FF900895CF93DF9330
:1040700010924C0710924B0788EE93E0A0E0B0E05E
:1040800080934D0790934E07A0934F07B09350072E
:104090008FE991E090934A07809349078FEF9FEF54
:1040A0009093560780935507C2E1D0E0D09328083B
:1040B000C093270882E090E090932A088093290813
:1040C0002FE030E030932C0820932B0890932E089B
:1040D00080932D0861E082E10E94160261E08091E8
:1040E00029080E94160261E080912B080E941602A6
:1040F00061E080912B080E94E801D0932808C093CA
:104100002708E7EEF7E0119288E0E732F807D9F7E1
:10411000D0E0C0E080912D0890912E08C817D907F3
:1041200074F540E06FE0CE010E94480780912D08B1
:1041300090912E08C817D9072CF447E06BE0CE0108
:104140000E94480740E069E0CE010E944807809144
:104150002D0890912E08C817D9071CF4CE010E9493
:104160008A0780912D0890912E08C817D9072CF442
:1041700040E06CE0CE010E9448072196CBCF6AED6B
:1041800071E081ED97E00E94530D6AED71E08BECD8
:1041900097E00E94530D6FEA71E085EC97E00E9472
:1041A000530D6FEA71E08FEB97E00E94530D809101
:1041B0001301982F93709093BE0790E09595879583
:1041C0009595879583708093BD076FE473E087EBC7
:1041D00097E00E94530D66E573E081EB97E00E9443
:1041E000530D6EE573E08BEA97E00E94530D63E692
:1041F00073E085EA97E00E94530D6AE673E08FE969
:1042000097E00E94530D6FEA71E089E997E0DF9132
:10421000CF910C94530DCF93DF93CDB7DEB7CE542F
:10422000D1090FB6F894DEBF0FBECDBF789484B528
:10423000826084BD84B5816084BD85B5826085BDA2
:1042400085B5816085BD80916E00816080936E0030
:104250001092810080918100826080938100809122
:1042600081008160809381008091800081608093D3
:1042700080008091910082608093910080919100F4
:104280008160809391008091900081608093900084
:104290008091C10084608093C1008091C1008260E0
:1042A0008093C1008091C10081608093C1008091A2
:1042B000C30081608093C3008091C00082608093BE
:1042C000C0008091C20081608093C20080917A001A
:1042D000846080937A0080917A00826080937A0073
:1042E00080917A00816080937A0080917A00806862
:1042F00080937A00109248071092FD061092FC06F7
:104300008091D70081608093D70080EA8093D800A5
:1043100089B5806189BD89B5826089BD09B400FE17
:10432000FDCF61E070E080E090E00E941503809195
:10433000D8008F7C80618093D8008091E000807FDE
:104340008093E0008091E1008E7E8093E1008DE01B
:104350008093E200559A209A5D9828980FB6F894B9
:10436000A895809160008861809360001092600041
:104370000FBE8FEF9FEF909356078093550761E034
:1043800084E00E94160261E085E00E94160261E06E
:1043900086E00E94160261E08EE00E94160261E053
:1043A00080E10E94160261E083E00E94160260E054
:1043B00083E10E94160261E084E10E94160261E03E
:1043C00085E10E94160262E087E00E94160262E028
:1043D00088E00E94160262E089E00E94160262E014
:1043E0008AE00E94160280912D0890912E081816DE
:1043F000190634F441E06CE090E080E00E94480748
:1044000000910D0110E0B80190E080E00E94FD07EE
:1044100080912D0890912E081816190624F490E02A
:1044200080E00E948A0780912D0890912E080297C3
:1044300034F041E06CE081E090E00E944807B80170
:1044400081E090E00E94FD0780912D0890912E0858
:10445000029724F081E090E00E948A0790E080E0DB
:104460000E94AF1B182F81E090E00E94AF1B982F95
:10447000812F8A35954A29F081E793E00E94D80977
:1044800017C082E090E00E94AF1B182F823009F421
:10449000CEC08BE893E00E94E609612F70E090E0C7
:1044A00080E04AE00E9464098DEA91E00E94570989
:1044B0000E94B11B10920707109206071092050781
:1044C00010920407109203070E94570881ED93E0B1
:1044D0000E94E6096091130170E090E080E042E004
:1044E0000E94640986EF93E00E94E6096091BE078E
:1044F00070E090E080E042E00E9464098DEF93E07C
:104500000E94E6096091BD0770E090E080E042E023
:104510000E94640984E094E00E94D80987E094E056
:104520000E94E6096091120170E090E080E04AE0AC
:104530000E94640987E194E00E94E60960911001FD
:104540007091110190E080E04AE00E94640980E2ED
:1045500094E00E94E60960910E0170910F0190E0D5
:1045600080E04AE00E94640989E294E00E94E60942
:1045700087EB97E00E94ED09109231071092300707
:104580000E9447036093FE067093FF068093000726
:10459000909301070E9447036B017C0180913007D3
:1045A00090913107009709F065C20E94470300917E
:1045B000FE061091FF062091000730910107DC01F3
:1045C000CB01801B910BA20BB30B86399105A10582
:1045D000B10508F0CAC08AEA9AEA90930707809367
:1045E000060781E0809305071092040788EC80930A
:1045F00003070E9457086AED71E0CE0101960E9400
:10460000530D6AED71E0CE010A960E94530DBE0172
:104610006F5F7F4FCE010A960E944F0ECE010A9621
:104620000E94210CCE0101960E94210C1BC27E012A
:104630003AE0E30EF11C670103E010E0C8010E94BC
:10464000AF1BF60181936F010F5F1F4F0B301105F8
:10465000A9F71A8A9E012F5F3F4F69015901C801CE
:104660000E94AF1BF50181935F010F5F1F4F033164
:104670001105A9F7198683E190E00E94AF1B182F5E
:10468000B601C7010E94FF00181719F088EA93E0ED
:10469000F5CE6FEA71E0CE014F960E94530D87016F
:1046A000085F1F4FF70161917F01862F8F7D21F0F9
:1046B000CE014F960E947D0C0E151F0599F78BA118
:1046C0009CA1892B39F0BE01615E7F4F87EB97E09B
:1046D0000E94F10C6FEA71E0CE0149960E94530DE1
:1046E0007601F8E0EF0EF11C8601F8016081862F5B
:1046F0008F7D81F581918F7D69F5CF018C199D09A1
:104700000897C4F30D8D1E8D0115110511F40C943D
:10471000203101501109B801CE0149960E9453037E
:10472000803211F00C941931980150E040E0BE0144
:10473000675E7F4FCE0143960E94680DBE016D5E9D
:104740007F4FCE0149960E94D60BCE0143960E9420
:10475000210CD8CFCE0149960E947D0C0F5F1F4FD0
:10476000E016F10609F0C1CFCDCF8C32F1E09F0702
:10477000A105B10560F485E595E590930707809361
:1047800006071092050781E0809304072FCF823C33
:1047900021E09207A105B105C8F48FEF9FEF909338
:1047A00007078093060781E080930507809304073D
:1047B00088EC809303070E94570862E374E0CE01FF
:1047C00001960E94530D69E374E01DCF883532E0F5
:1047D0009307A105B10548F462E374E0CE010196A8
:1047E0000E94530D60E474E00ECF8E3E42E09407C9
:1047F000A105B10548F462E374E0CE0101960E9480
:10480000530D67E474E0FFCE843853E09507A105AB
:10481000B10548F462E374E0CE0101960E94530DA5
:104820006EE474E0F0CE8A31E4E09E07A105B105A4
:1048300048F462E374E0CE0101960E94530D65E5F1
:1048400074E0E1CE803BF4E09F07A105B10548F498
:1048500062E374E0CE0101960E94530D6CE574E0B2
:10486000D2CE863425E09207A105B10548F462E373
:1048700074E0CE0101960E94530D63E674E0C3CE4E
:104880008C3D35E09307A105B10548F462E374E07F
:10489000CE0101960E94530D6AE674E0B4CE8237D1
:1048A00046E09407A105B10548F462E374E0CE0147
:1048B00001960E94530D61E774E0A5CE883057E061
:1048C0009507A105B10548F462E374E0CE010196B5
:1048D0000E94530D68E774E096CE8E39E7E09E079C
:1048E000A105B10548F462E374E0CE0101960E948F
:1048F000530D6FE774E087CE82399940A105B10569
:1049000008F074C061EB77E0CE0143960E94080D79
:104910008F89988D079760F060E2CE0143960E94E0
:104920003A0B97FD05C0BC01CE0143960E94170AC1
:104930008F89988D0797B0F026E030E050E040E096
:10494000BE016D5E7F4FCE0101960E94680DBE01D3
:104950006F5F7F4FCE0143960E94D60BCE0101962A
:104960000E94210C8F89988D069738F46FED71E0C5
:10497000CE0143960E94900CF5CF67EB77E0CE0115
:104980000A960E94080D8E859F850797B0F026E055
:1049900030E050E040E0BE01665F7F4FCE010196FF
:1049A0000E94680DBE016F5F7F4FCE010A960E9484
:1049B000D60BCE0101960E94210C8E859F8506970D
:1049C00038F46FED71E0CE010A960E94900CF5CF9D
:1049D000BE01665F7F4FCE0143960E944F0ECE010F
:1049E0000A960E94210CCE0143961ECE1092070714
:1049F0001092060710920507109204071092030701
:104A00000E9457086AED71E0CE0101960E94530D95
:104A10006AED71E0CE010A960E94530DBE016F5FF0
:104A20007F4FCE010A960E944F0ECE010A960E9439
:104A3000210CCE0101960E94210C81E090E0909320
:104A400031078093300780910A0781110BC066E916
:104A500070E080E090E00E9415030E94FB0981E075
:104A600080930A0780E090E0892B09F493CD0E949F
:104A7000000090CD8230910519F40E94BF10F2CF52
:104A8000039709F01FC20E94470300910B07109182
:104A90000C0720910D0730910E076B017C01C01AA5
:104AA000D10AE20AF30A20EDC21627E0D206E10499
:104AB000F104A8F410920707109206071092050758
:104AC00010920407109203070E94570866E874E0EA
:104AD000CE0101960E94530D64E472E094CD38E556
:104AE000C3163BE1D306E104F104A8F410920707D2
:104AF0001092060710920507109204071092030700
:104B00000E945708C701B601605D7740810991098D
:104B10000E94050FA7CF40E1C41647E2D406E10486
:104B2000F104C8F48FEF9FEF909307078093060777
:104B300081E080930507809304078FEF809303073C
:104B40000E9457086DE874E0CE0101960E94530D53
:104B500064E974E058CD58E9C5165AE3D506E10476
:104B6000F10408F07CC0109207071092060710921B
:104B700005071092040780E8809303070E945708F6
:104B8000BE01675E7F4FCE014F960E9408096FEA13
:104B900071E0CE0143960E94530D6FEA71E0CE01A1
:104BA0000A960E94530D07E010E08F8D90E0002ED2
:104BB00002C0959587950A94E2F768E475E080FD58
:104BC00002C06CE573E0CE0143960E94900C015048
:104BD00011090130110549F707E010E0898D90E0D7
:104BE000002E02C0959587950A94E2F768E475E077
:104BF00080FD02C06CE573E0CE010A960E94900C25
:104C0000015011090130110549F7BE01665F7F4F60
:104C1000CE0143960E944F0E8BE994E00E94E60974
:104C20006F8DCE0101960E94990FCE0101960E94D0
:104C3000AF04CE0101960E94210C85EA94E00E9407
:104C4000E609698DCE0101960E94990FCE01019669
:104C50000E94ED09CE0101960E94210CC0CE80E297
:104C6000C8168EE4D806E104F10420F56BE472E086
:104C7000CE0101960E94530D65E173E0CE010A96C4
:104C80000E94530DBE016F5F7F4FCE010A960E94B6
:104C90004F0ECE010A960E94210CCE0101960E9471
:104CA000210CC701B60168597A43810991090E9414
:104CB0008808D8CE98EAC91691E6D906E104F1042D
:104CC00030F5109207071092060710920507109210
:104CD000040780E8809303070E945708E0EFCE1690
:104CE000E5E5DE06E104F10448F46BE472E0CE0190
:104CF00001960E94530D6FEE72E085CCC701B6019C
:104D000068507245810991090E94C507ABCEF0E356
:104D1000CF16F5E7DF06E104F104A0F56BE472E0DD
:104D2000CE0101960E94530D6CE173E0CE010A960C
:104D30000E94530DBE016F5F7F4FCE010A960E9405
:104D40004F0ECE010A960E94210CCE0101960E94C0
:104D5000210C8FEF9FEF909307078093060781E068
:104D600080930507809304078FEF809303070E94C9
:104D70005708C701B601685A7146810991090E9416
:104D80000C0870CE28EEC21620E8D206E104F10429
:104D900080F41092070710920607109205071092F0
:104DA000040780E8809303070E9457086BEA74E0C9
:104DB0008FCE80910D010E94420810920707109239
:104DC00006071092050710920407109203070E942D
:104DD00057086AED71E0CE0101960E94530D6AED0D
:104DE00071E0CE010A960E94530DBE016F5F7F4FA6
:104DF000CE010A960E944F0ECE010A960E94210C07
:104E0000CE0101960E94210C80910207882309F4AB
:104E100052C00E9457086AED71E0CE0101960E94CF
:104E2000530D6AED71E0CE010A960E94530DBE014A
:104E30006F5F7F4FCE010A960E944F0ECE010A96F9
:104E40000E94210CCE0101960E94210C6AED71E0B6
:104E5000CE0101960E94530DBE016F5F7F4F90E01F
:104E600080E00E94B90ACE0101960E94210C6AEDF1
:104E700071E0CE0101960E94530DBE016F5F7F4F1E
:104E800081E090E00E94B90ACE0101960E94210CB7
:104E900082E090E0909331078093300710920807EA
:104EA0001092020710920F071092140782EB94E001
:104EB0000E94D809D7CD81E090E09093310780938C
:104EC0003007F0CF80912C0790912D07A0912E07ED
:104ED000B0912F07C816D906EA06FB0608F4C2CD22
:104EE00089E497E00E941405892B11F40C94D22FC9
:104EF00089E497E00E94D2048D3091F38A3009F45E
:104F00008BE3682F89E997E00E947D0C6BE389E9C8
:104F100097E00E943A0B8C0197FDE2CF9C0150E094
:104F200040E069E977E0CE01875B9F4F0E94680D02
:104F3000CE01875B9F4F0E94460AA8014F5F5F4FDB
:104F400069E977E0CE0101960E94B40DBE016F5F62
:104F50007F4F89E997E00E94D60BCE0101960E940F
:104F6000210C2F968EAD9FAD2F97892B09F474C01D
:104F7000BE01675B7F4FCE018D5B9F4F0E94080D86
:104F8000CE018D5B9F4F0E94A30A61EC74E0CE01BD
:104F90008D5B9F4F0E94910B81110AC065EC74E0FC
:104FA000CE018D5B9F4F0E94910B882309F45AC05C
:104FB0006DEC74E0CE0101960E94530D63ED74E038
:104FC000CE010A960E94530DBE016F5F7F4FCE0146
:104FD0000A960E944F0ECE010A960E94210CCE0125
:104FE00001960E94210C64EF71E080E090E00E9445
:104FF00015036AED71E0CE0101960E94530D6AED32
:1050000071E0CE010A960E94530DBE016F5F7F4F83
:10501000CE010A960E944F0ECE010A960E94210CE4
:10502000CE0101960E94210C0E94FB0981E0809331
:105030000A070E94470368537F4F8F4F9F4F60932B
:105040002C0770932D0780932E0790932F07CE0186
:105050008D5B9F4F0E94210CCE01875B9F4F0E946A
:10506000210C54CF69ED74E0CE018D5B9F4F0E94FF
:10507000910B882339F01092090780EE95E00E9489
:10508000D809E5CF6EED74E0CE018D5B9F4F0E9495
:10509000910B882309F440C082EE94E00E94E60957
:1050A00061EB77E0CE010A960E94080DCE010A96C8
:1050B0000E94460A60E2CE010A960E943A0B97FDD2
:1050C00007C02E853F85215031098217930768F06C
:1050D000CE010A960E94AF0480E795E00E94D809AD
:1050E000CE010A960E94210CB2CFAC014F5F5F4FF8
:1050F000BE01665F7F4FCE0101960E94B40D87EE20
:1051000094E00E94E609CE0101960E94AF04CE0110
:1051100001960E94210CE0CF69EE74E0CE018D5B18
:105120009F4F0E94910B882331F08FEE94E00E94F4
:10513000D8090E94C70E6AEF74E0CE018D5B9F4FC5
:105140000E94910B882319F00E94BF0F80CF6EEF51
:1051500074E0CE018D5B9F4F0E94910B8823E1F09C
:105160008091300790913107019709F070CF82E06C
:1051700090E090933107809330070E94470360933B
:105180000B0770930C0780930D0790930E071092F6
:10519000080783E095E073CF6AE3CE01875B9F4FFA
:1051A0000E943A0B97FD53CFBE01675B7F4FCE0144
:1051B000CD960E94080D41E050E061E775E0CE0118
:1051C000CD960E94510C811104C0CE01CD960E9453
:1051D0000F0C312C212CA1016BE3CE01CD960E9446
:1051E0001E0B8C0197FDD9C69C01A101BE01635C19
:1051F0007F4FCE01C7960E94680D18013FEF231A1A
:10520000330ACE01C7960E94460A8BAD9CAD892B0E
:10521000A9F16AE3CE01C7960E943A0B8C0197FF71
:1052200078C061EC74E0CE0101960E94530DBE017E
:105230006F5F7F4FCE01C7960E94590B11E081111D
:1052400015C065EC74E0CE010A960E94530DBE01B4
:10525000665F7F4FCE01C7960E94590B11E0811106
:1052600001C010E0CE010A960E94210CCE010196E9
:105270000E94210C112339F00E94FB09CE01C79630
:105280000E94210CA8CF6AEF74E0CE0101960E9423
:10529000530DBE016F5F7F4FCE01C7960E94590B21
:1052A000182FCE0101960E94210C112319F00E94A3
:1052B000BF0FE4CF6EEF74E0CE0101960E94530D54
:1052C000BE016F5F7F4FCE01C7960E94590B182F0A
:1052D000CE0101960E94210C112381F280913007AA
:1052E00090913107019751F682E090E09093310759
:1052F000809330070E94470360930B0770930C075D
:1053000080930D0790930E0784E195E00E94D809E1
:10531000B5CF9C0150E040E0BE01695C7F4FCE01FB
:10532000C1960E94680DA8014F5F5F4FBE01695C86
:105330007F4FCE018B960E94B40DCE01C1960E9484
:10534000460ACE018B960E94460A60E275E0CE01C5
:1053500001960E94530DBE016F5F7F4FCE01C19633
:105360000E94590B182FCE0101960E94210C112387
:10537000C1F0CE018B960E94FB069091060789270B
:105380009827892790930707809306070E9457085C
:10539000CE018B960E94210CCE01C1960E94210C59
:1053A0006DCF65E275E0CE0101960E94530DBE01FE
:1053B0006F5F7F4FCE01C1960E94590B182FCE010F
:1053C00001960E94210C112339F0CE018B960E9488
:1053D000FB0680930607DACF6AE275E0CE010196FC
:1053E0000E94530DBE016F5F7F4FCE01C1960E9498
:1053F000590B182FCE0101960E94210C112369F040
:10540000CE018B960E94FB06982F91709093050712
:105410008695817080930407B9CF64E375E0CE016F
:1054200001960E94530DBE016F5F7F4FCE01C19662
:105430000E94590B182FCE0101960E94210C1123B6
:1054400099F0CE018B960E943B0A97FD09C06F3FF1
:1054500071058105910509F02CF46093030796CF3F
:1054600060E0FBCF6FEFF9CF6FE275E0CE01019600
:105470000E94530DBE016F5F7F4FCE01C1960E9407
:10548000590B182FCE0101960E94210C112341F0D7
:10549000CE018B960E943B0A862F0E94420878CF4D
:1054A00067E375E0CE0101960E94530DBE016F5F68
:1054B0007F4FCE01C1960E94590B182FCE01019645
:1054C0000E94210C112371F0BE01655D7F4F81EDBB
:1054D00097E00E94F10C61ED77E090E080E00E949F
:1054E000B90A56CF6CE375E0CE0101960E94530DC8
:1054F000BE016F5F7F4FCE01C1960E94590B182FDE
:10550000CE0101960E94210C112361F0BE01655D60
:105510007F4F8BEC97E00E94F10C6BEC77E081E021
:1055200090E0DDCF61E475E0CE0101960E94530D5D
:10553000BE016F5F7F4FCE01C1960E94590B182F9D
:10554000CE0101960E94210C112309F444C067E4A6
:1055500075E0CE018B960E94910B811108C068E422
:1055600075E0CE018B960E94910B882389F181E032
:105570008093150765EA77E081ED97E00E94A60B1E
:10558000882309F405CF6FE977E08BEC97E00E9460
:10559000A60B882309F4FCCE6AED71E0CE010196DA
:1055A0000E94530D6AED71E0CE010A960E94530DE0
:1055B000BE016F5F7F4FCE010A960E944F0ECE0153
:1055C0000A960E94210CCE0101960E94210CE0CE89
:1055D00010921507DDCE6AEF74E0CE0101960E94AD
:1055E000530DBE016F5F7F4FCE01C1960E94590BD4
:1055F000182FCE0101960E94210C1111C9CE61EC29
:1056000074E0CE0101960E94530DBE016F5F7F4F83
:10561000CE01C1960E94590B182FCE0101960E940F
:10562000210C112319F00E94FB09B2CE6AE475E047
:10563000CE0101960E94530DBE016F5F7F4FCE01D8
:10564000C1960E94590B182FCE0101960E94210C81
:10565000112309F4D8C1BE01655D7F4FCE014F967D
:105660000E94080D10E000E08BA09CA00815190511
:1056700008F0C6C1A8016BE3CE014F960E941E0B35
:105680005C0197FD54019501A801BE01615E7F4F49
:10569000CE0149960E94680DCE0149960E94460AA5
:1056A0006EE475E0CE0101960E94530DBE016F5F5E
:1056B0007F4FCE0149960E943E0B182FCE010196D6
:1056C0000E94210C112309F44EC043E050E0BE01BA
:1056D000675E7F4FCE0101960E94B40D8D819E8141
:1056E0000497A8F162E070E0CE0101960E94530396
:1056F00002E0813309F000E063E070E0CE01019642
:105700000E94530311E0813309F010E0102B70E088
:1057100060E0CE0101960E94530302E0813309F05C
:1057200000E061E070E0CE0101960E94530391E039
:10573000813309F090E0902B44E0949F9001112474
:10574000212B209313011093BE079093BD07CE0128
:1057500001960E94210C85010F5F1F4FCE014996D3
:105760000E94210C81CF62E575E0CE0101960E9476
:10577000530DBE016F5F7F4FCE0149960E943E0BD5
:10578000182FCE0101960E94210C112309F448C064
:1057900043E050E0BE01675E7F4FCE0101960E945C
:1057A000B40DCE0101960E943B0A97FD31C043E043
:1057B00050E0BE01675E7F4FCE010A960E94B40D95
:1057C000CE010A960E943B0A643671058105910557
:1057D0001CF543E050E0BE01675E7F4FCE0143966B
:1057E0000E94B40DCE0143960E943B0A81E011E075
:1057F00060931201882321F0CE0143960E94210C70
:10580000112309F4A4CFCE010A960E94210C9FCF48
:1058100080E010E060E0ECCF80E011E063E6E8CFEC
:1058200066E575E0CE0101960E94530DBE016F5FE3
:105830007F4FCE0149960E943E0B182FCE01019654
:105840000E94210C112309F442C043E050E0BE0144
:10585000675E7F4FCE0101960E94B40DCE01019686
:105860000E943B0A643671058105910534F143E0DD
:1058700050E0BE01675E7F4FCE010A960E94B40DD4
:10588000CE010A960E943B0A61317742810591055B
:10589000CCF443E050E0BE01675E7F4FCE014396FB
:1058A0000E94B40DCE0143960E943B0A81E011E0B4
:1058B00070931101609310019DCF80E010E064E6C9
:1058C00070E0F6CF80E011E060E177E2F1CF6AE5C9
:1058D00075E0CE0101960E94530DBE016F5F7F4FB0
:1058E000CE0149960E943E0B182FCE0101960E94D0
:1058F000210C112309F442C043E050E0BE01675E71
:105900007F4FCE0101960E94B40DCE0101960E94F8
:105910003B0A643671058105910534F143E050E09E
:10592000BE01675E7F4FCE010A960E94B40DCE0184
:105930000A960E943B0A6131774281059105CCF4B9
:1059400043E050E0BE01675E7F4FCE0143960E9468
:10595000B40DCE0143960E943B0A81E011E07093A2
:105960000F0160930E0146CF80E010E064E670E026
:10597000F6CF80E011E060E177E2F1CF65ED71E014
:10598000CE0101960E94530DBE016F5F7F4FCE0185
:1059900049960E943E0B182FCE0101960E94210CC1
:1059A000112309F4D8CE44E050E0BE01675E7F4F7A
:1059B000CE0101960E94B40DBE016F5F7F4F87EB51
:1059C00097E00E94D60BCE0101960E94210C809197
:1059D000BB079091BC07099708F4BDCE28E030E0E2
:1059E00050E040E067EB77E0CE0101960E94680D41
:1059F000BE016F5F7F4F87EB97E00E94D60BA7CE6B
:105A0000CE014F96E2CD6EE575E0CE0101960E9483
:105A1000530DBE016F5F7F4FCE01C7960E943E0BB4
:105A2000182FCE0101960E94210C112309F4B0CC4D
:105A300044E050E0BE01695C7F4FCE0185960E9434
:105A4000B40DCE0185960E94460A63E675E0CE014C
:105A500001960E94530DBE016F5F7F4FCE01859668
:105A60000E943E0B182FCE0101960E94210C11239B
:105A700011F144E050E0BE016B5D7F4FCE01019615
:105A80000E94B40DCE0101960E94460A6BEA77E0AF
:105A9000CE0101960E94A60B882351F081E08093ED
:105AA000090788E695E00E94D809CE0101963EC01C
:105AB00083E795E0F8CF62E875E0CE0101960E9499
:105AC000530DBE016F5F7F4FCE0185960E943E0B46
:105AD00010910907811101C010E0CE0101960E94CA
