:100000000C94D4000C94FC000C94FC000C94FC00A8
:100010000C94FC000C94FC000C94FC000C94FC0070
:100020000C94FC000C94FC000C94CC150C94491618
:100030000C94FC000C94FC000C94FC000C94FC0050
:100040000C94FC000C94FC000C94FC000C94FC0040
:100050000C94FC000C94FC000C94FC000C94821595
:100060000C94FC000C94FC000C94FC000C94FC0020
:100070000C94FC000C94FC000C94FC000C94FC0010
:100080000C94FC000C94FC000C94FC000C94FC0000
:100090000C94FC000C94FC000C94FC000C94FC00F0
:1000A0000C94FC000C94FC000C94FC00080B000267
:1000B0000202000009040000010202000005240001
:1000C0001001052401010104240206052406000193
:1000D0000705810310004009040100020A00000026
:1000E00007050202400000070583024000000403E8
:1000F000090412010002EF02014041233780000190
:100100000102030141726475696E6F204C4C43001B
:1001100041726475696E6F204D6963726F000000F3
:100120000000240027002A002D00300000000000FD
:10013000250028002B002E003100000000002300C5
:10014000260029002C002F000404040404030405E5
:100150000202020204030202020206060606060664
:10016000040402020204040408020110408040104A
:1001700020408040800802040180402010020110CD
:100180008010204040200000000200090F00000302
:100190000401000C0000000000000000000000004E
:1001A000000000000000AD1811241FBECFEFDAE000
:1001B000DEBFCDBF16E0A0E0B1E0EEE2F6E502C0A2
:1001C00005900D92A23EB107D9F728E0A2EEB6E065
:1001D00001C01D92A339B207E1F710E0C4EDD0E0F1
:1001E00004C02197FE010E94C227C33DD107C9F771
:1001F0000E9447190C94152B0C940000AC01485F29
:100200005F4F22E030E0DC01ED91CD012E0F311D7A
:100210004A175B07C1F7FB01CB0108964191240FF8
:10022000311D8E179F07D1F7822F089583E08093A9
:10023000E9008091F200882319F08AE38093E800B6
:100240000895FC018091E807882311F13FB7F894E5
:1002500082E08093E9002091F200822F90E018164E
:10026000190614F481E090E0882339F0289A44E6D6
:100270004093E7074091F1004083222339F0209119
:10028000F200211103C02BE62093E8003FBF089540
:100290008FEF9FEF08952FB7F89483E08093E900E4
:1002A0009091E800892F807295FF04C09091F20030
:1002B00080E4891B2FBF08958091DF0781110DC055
:1002C00082E08093DB0784E08093DC071092DE07F6
:1002D0001092DD0781E08093DF078BED97E00895B2
:1002E00081508F3008F047C0E82FF0E0E658FE4F0D
:1002F0000C94C22797019B0189018F019301BB01D7
:10030000BB01BB019E01A401A801AC01B201BB016C
:10031000B601809180008F7780938000089580914E
:1003200080008F7DF9CF80918000877FF5CF84B5E5
:100330008F7784BD089584B58F7DFBCF8091900029
:100340008F77809390000895809190008F7DF9CFF2
:1003500080919000877FF5CF8091C0008F77809348
:10036000C00008958091C0008F7DF9CF8091C200B8
:10037000877F8093C2000895CF93DF93282F30E0CA
:10038000F901EA57FE4F8491F901E959FE4FD491E2
:10039000F901E85BFE4FC491CC23A1F081110E94CA
:1003A0007001EC2FF0E0EE0FFF1FE65CFE4FA59111
:1003B000B491EC91ED2381E090E009F480E0DF91CD
:1003C000CF91089580E090E0FACF1F93CF93DF9311
:1003D000282F30E0F901EA57FE4F8491F901E959DD
:1003E000FE4FD491F901E85BFE4FC491CC23A9F0F4
:1003F000162F81110E947001EC2FF0E0EE0FFF1F0D
:10040000E45DFE4FA591B4918FB7F894EC91111172
:1004100008C0D095DE23DC938FBFDF91CF911F9171
:100420000895DE2BF8CFCF93DF9390E0FC01E959DC
:10043000FE4F2491885B9E4FFC0184918823C9F074
:1004400090E0880F991FFC01E25EFE4FA591B491E8
:10045000FC01E45DFE4FC591D49161110DC09FB7C1
:10046000F8948C91209582238C938881282328836B
:100470009FBFDF91CF910895623051F49FB7F894F8
:100480003C91822F809583238C93E8812E2BEFCF94
:100490008FB7F894EC912E2B2C938FBFEACFCF938C
:1004A000DF93EC0161E083E00E941302209731F4B6
:1004B00060E083E0DF91CF910C94E501CF3FD1055F
:1004C00011F461E0F6CFE9E8F1E0E491E150EF30BA
:1004D00008F07EC0F0E0E159FD4F0C94C2277E0287
:1004E00085028A0294029E02E802E802E802A8025B
:1004F000B202BC02C602D302E802DB0284B5806805
:1005000084BDC7BDDF91CF91089584B5806284BD5D
:10051000C8BDF8CF80918000806880938000D09320
:100520008900C0938800EECF809180008062809324
:100530008000D0938B00C0938A00E4CF809180002C
:10054000886080938000D0938D00C0938C00DACFB8
:1005500080919000806880939000D0939900C09320
:100560009800D0CF80919000806280939000D093CB
:100570009B00C0939A00C6CF8091900088608093C2
:100580009000D0939D00C0939C00BCCF8091C00090
:1005900080688093C0008091C0008F7B8093C000F2
:1005A000C093CF00AFCF8091C00080628093C00025
:1005B000C093D000A7CF8091C20088608093C20012
:1005C0008091C2008B7F8093C200C093D2009ACFEB
:1005D000C038D1050CF075CF6BCF3FB7F894809140
:1005E000D7079091D807A091D907B091DA0726B51F
:1005F000A89B05C02F3F19F00196A11DB11D3FBF5B
:10060000BA2FA92F982F8827BC01CD01620F711D29
:10061000811D911D42E0660F771F881F991F4A9523
:10062000D1F708958F929F92AF92BF92CF92DF92AF
:10063000EF92FF924B015C010E94ED026B017C0185
:100640000E94ED026C197D098E099F09683E734076
:1006500081059105A8F321E0821A9108A108B1084B
:1006600088EEC80E83E0D81EE11CF11C81149104B1
:10067000A104B10429F7FF90EF90DF90CF90BF90D5
:10068000AF909F908F9008952FB7F8946091D30703
:100690007091D4078091D5079091D6072FBF089508
:1006A00040915807509159072091560730915707AC
:1006B00042175307B4F49091E8009570E1F39091DC
:1006C000E80092FD19C08093F10080915807909145
:1006D000590701968F739927892B19F48EEF809310
:1006E000E800809158079091590701969093590717
:1006F0008093580781E0089580E00895EF92FF927B
:100700000F931F93CF93DF93F82E192FE62E042F0C
:1007100081E0860F880F0E94500383E00E945003FF
:10072000CF2DD12FEC0EFD2EF11CCE15DF05B9F02B
:1007300007FF13C0FE0184910E945003182F80E030
:100740000E945003812321968111EFCFDF91CF9139
:100750001F910F91FF90EF9008958881EDCF81E078
:10076000F5CFDF92EF92FF920F931F93CF93DF931A
:10077000D82E8A01EB017B01E40EF51ECE15DF05B4
:1007800059F0D7FE12C0FE0184910E9450032196B9
:100790008111F4CF0FEF1FEFC801DF91CF911F91AF
:1007A0000F91FF90EF90DF9008958881EECF0F9327
:1007B0001F93CF93DF931F92CDB7DEB782E089837B
:1007C00042E450E06CEA70E080E80E94B1030E94CD
:1007D0005C01DC0112960D911C910115110589F047
:1007E000D801ED91FC910280F381E02DBE016F5F95
:1007F0007F4FC801099597FD04C0F8010085118558
:10080000ECCF89810F90DF91CF911F910F910895C7
:10081000615030F02091F100FC0120830196F8CF67
:10082000289A84E68093E70708958F929F92AF926B
:10083000BF92CF92DF92EF92FF920F931F93CF93CD
:10084000DF936C017B018A0180910C01882309F4FC
:100850005CC08091E807882309F457C080915C0749
:1008600080FF05C08091E00082608093E000E80195
:10087000B12C8AEFA82E93E0892E2AE3922E20979E
:1008800011F4BB20D9F10E944B0181110AC0AA9436
:10089000AA20D9F161E070E080E090E00E941203AC
:1008A000EECF8C171D0611F00CF08C2F9FB7F8942B
:1008B0008092E9002091E80025FD02C09FBFDFCFB4
:1008C000282F30E0C21BD30BF701815020F041915B
:1008D0004093F100FACFE20EF31EBB2021F090927C
:1008E000E800B12CEBCF8091E80085FDE7CF909236
:1008F000E800BB24B394209709F3F3CF5D9A84E614
:1009000080935B07101611063CF081E090E0F60141
:100910009383828310E000E0C801DF91CF911F91A3
:100920000F91FF90EF90DF90CF90BF90AF909F908E
:100930008F900895CF93DF931F92CDB7DEB7698371
:10094000DC01ED91FC910280F381E02D41E050E06B
:10095000BE016F5F7F4F09950F90DF91CF91089592
:100960000C9416010E944B0190E00895CF93DF9301
:100970001F92CDB7DEB7FC018485958597FD08C031
:100980002FEF3FEF358724870F90DF91CF910895A8
:10099000CE0101960E942101019719F4898190E00E
:1009A000F3CF8FEF9FEFF0CF0F931F93CF93DF9392
:1009B0001F92CDB7DEB78C01FC018485958597FF2A
:1009C0000BC0CE0101960E942101019771F489812B
:1009D00090E0F80195878487F801848595850F90CC
:1009E000DF91CF911F910F9108958FEF9FEFF1CF7E
:1009F000FC018485958597FD0BC09FB7F89482E034
:100A00008093E9008091F2009FBF90E001960895E5
:100A10009FB7F89482E08093E9008091F2009FBF35
:100A200090E00895FC01208101962032D9F341E045
:100A300050E02D3219F4FC014FEF5FEF30E020E081
:100A4000AAE0819190ED980F9A3068F4A29FB001CE
:100A5000A39F700D1124082E000C990BC0979C01C8
:100A6000260F371FEECF249FC001259F900D349F86
:100A7000900D11240895DC01FB012D919191222309
:100A800081F0992371F08FE9820F8A3108F42052A6
:100A90008FE9890F8A3108F49052291771F380E0A9
:100AA00003C081E02913FBCF0895EF92FF920F93CB
:100AB0001F93CF93DF9389E00E94BC01D82F8AE077
:100AC0000E94BC01DD0FD82B2091F20604E0209F8C
:100AD00090011124CD2FC22B0E944403AB01BC0115
:100AE000809139088130A9F170F08230D9F18330DA
:100AF00009F44CC0D093F206DF91CF911F910F9172
:100B0000FF90EF900895C130F1F189EF8C0F8230A2
:100B1000D0F1CE30C1F1C23031F0C43021F0CB3051
:100B200011F0CD3039F721E030E08091F00690915E
:100B3000F1068217930731F01092EF063093F10619
:100B40002093F0068091EF06882351F11092EF0672
:100B5000D1CFC130C1F0C830B1F0C23021F3C430C0
:100B600049F6E1CFCD30F9F2C430E9F2C230D9F222
:100B7000CB30C9F2CE3039F089EF8C0F823018F0CB
:100B8000C13009F0B7CF2FEF3FEFCFCFCD3059F2C3
:100B9000CB3049F2CE30B9F3C83009F0ABCFF3CF48
:100BA0008091EB069091EC06A091ED06B091EE06D7
:100BB0007A018B01E81AF90A0A0B1B0BD801C7014D
:100BC0000297A105B10568F48091EB069091EC06BF
:100BD000A091ED06B091EE06892B8A2B8B2B09F0A4
:100BE00089CF81E08093EF068091B8079091B90793
:100BF000280F391F3093B9072093B8074093EB06AD
:100C00005093EC066093ED067093EE0673CF8F92CF
:100C10009F92AF92BF92CF92DF92EF92FF92CF93CB
:100C2000DF9387E00E94BC01D82F88E00E94BC01BE
:100C3000DD0FD82B2091EA0644E0249F9001112477
:100C4000CD2FC22B0E94440320913A082130D1F1CC
:100C500098F0223009F43FC0233009F450C0D093FB
:100C6000EA06DF91CF91FF90EF90DF90CF90BF9099
:100C7000AF909F908F900895C130F1F129EF2C0F24
:100C80002230D0F1CE30C1F1C23031F0C43021F089
:100C9000CB3011F0CD3019F721E030E04091E8067B
:100CA0005091E9064217530731F01092E70630934E
:100CB000E9062093E8064091E706442351F110929B
:100CC000E706CDCFC130C1F0C830B1F0C23021F35A
:100CD000C43029F6E1CFCD30F9F2C430E9F2C230A8
:100CE000D9F2CB30C9F2CE3039F029EF2C0F2230B7
:100CF00018F0C13009F0B3CF2FEF3FEFCFCFCD3099
:100D000059F2CB3049F2CE30B9F3C83009F0A7CF51
:100D1000F3CFC090E306D090E406E090E506F090B3
:100D2000E6064B015C018C189D08AE08BF087501F2
:100D3000640142E0C416D104E104F10468F4C090F7
:100D4000E306D090E406E090E506F090E606CD28B4
:100D5000CE28CF2809F083CF41E04093E7064091A9
:100D6000D0075091D1074230510591F5C090F80657
:100D7000D090F906E090FA06F090FB064B015C017A
:100D80008C189D08AE08BF087501640144EBC416B9
:100D9000D104E104F10408F462CF4091BC07509102
:100DA000BD07240F351F3093BD072093BC07609308
:100DB000E3067093E4068093E5069093E60660935D
:100DC000F8067093F9068093FA069093FB0647CFD6
:100DD0004091BC075091BD07240F351F3093BD07CC
:100DE0002093BC076093E3067093E4068093E506C6
:100DF0009093E60634CFCF93DF93DA01FB0170E0E6
:100E000060E030E020E0519151110DC0FC01281B41
:100E1000390B40E2CF01B9016E0F7F1F66307105BB
:100E20009CF44193F7CF2630310574F45E3241F0E3
:100E30006A177B071CF46F5F7F4FE5CF2F5F3F4F33
:100E4000EC0158830196DFCFFC011082DF91CF9136
:100E50000895FC0190E080E02191222321F02E32C0
:100E6000D9F30196F9CF0895CF93DF93CDB7DEB7CD
:100E700029970FB6F894DEBF0FBECDBF90E0E0E03B
:100E8000A92FB0E0A55EBE4F8C91882399F0E83081
:100E900088F4803269F02FE9280F2A3108F4805253
:100EA000A1E0B0E0AC0FBD1FAE0FB11D8C93EF5FA2
:100EB0009F5FE6CFEC0FFD2FF11D118289818035F8
:100EC00091F48A81833479F48B81823461F48C814A
:100ED000813349F48D818E3231F48E81823319F45D
:100EE00081E09F81911180E08093E20629960FB600
:100EF000F894DEBF0FBECDBFDF91CF910895FC0106
:100F000080E04191442371F090ED940F9230C8F746
:100F1000282F30E0220F331F81E0413309F080E0B9
:100F2000822BEFCF0895FC0127E030E070E0AB01A9
:100F3000022E02C0559547950A94E2F740FD08C07D
:100F400040E341932150310990F7FC011086089548
:100F500041E3F7CF0F931F93CF93DF93082F162F03
:100F6000D42FC8E06D2F661F6627661F802F0E9452
:100F7000E501DD0F61E0812F0E94E50160E0812F36
:100F80000E94E501C15071F7DF91CF911F910F9140
:100F900008950F931F93CF93DF9300D0CDB7DEB7A3
:100FA00069834A83880F991F0091910810919208D4
:100FB000000F111FEBE3F8E09F012B53384020177F
:100FC000310714F41192F8CF2981FC01E55CF74F49
:100FD00021838A81808360E080918F080E94E501EF
:100FE000101611066CF401501109F801E55CF74F79
:100FF000408160918D0880918B080E94AA07F0CFF4
:1010000061E080918F080F900F90DF91CF911F9139
:101010000F910C94E501EF92FF920F931F93CF93E2
:101020007C018C0183E0000F111F8A95E1F7055BBD
:10103000174FC1E0F80111928F0140E06C2FC701FA
:101040000E94C907CF5FC930A9F7CF911F910F91B7
:10105000FF90EF90089597FD18C02091910830916E
:101060009208821793078CF46830710570F4FC01C4
:1010700023E0EE0FFF1F2A95E1F7E55CF74FE60F3F
:10108000F71F408B6F5F0C94C90708950F931F9350
:10109000CF93683E23E072078105910558F1685EA1
:1010A0007340810991092CE231E040E050E00E9458
:1010B000A02727703327C1E001C0CC0F2A95EAF79B
:1010C00010E000E04C2FB80190E080E00E942B0877
:1010D0000F5F1F4F06301105A9F710E000E04C2FFD
:1010E000B80181E090E00E942B080F5F1F4F06308F
:1010F0001105A9F7CF911F910F91089520919108A3
:1011000030919208821793073CF46031710524F402
:10111000462F6AE00C94C9070895CF93DF9320ED22
:1011200037E040E050E00E94A027683E23E07207CD
:10113000CCF4EB01D595C795D595C795CE010E9406
:101140004F02CE0161E170E00E948C27EB0190E03C
:1011500080E00E947E08BE0181E090E0DF91CF91A7
:101160000C947E08685E734077FF02C06D5F7F4F0E
:101170007595679575956795719561957109EB0101
:10118000C150DF4FDBCFCF93DF93803108F08FE08A
:1011900080930D01C82FD0E0BE0190E080E00E9456
:1011A0007E08BE0181E090E0DF91CF910C947E0833
:1011B000CF93DF93C0916607D091670760E084E02A
:1011C0000E94E5014D2F65E086E00E94AA074C2FA2
:1011D00065E086E00E94AA0761E084E00E94E501E4
:1011E00060916507C09164078091E206882319F039
:1011F00081E06827C8278EE00E94E5016C2F80E11E
:101200000E94E5018091630790E0DF91CF910C94FB
:101210004F0228EC30E040E050E00E94A0272F7001
:10122000332781E090E0022E02C0880F991F0A94B4
:10123000E2F7909367078093660781E021153105F7
:1012400009F080E08093650781E02130310509F0E5
:1012500080E08093640788EC809363070C94D8083F
:1012600094E0899FF0011124613061F4E856FE4F4B
:101270003281238131110EC0223039F44093650749
:101280000C94D808E858FE4FF3CF233019F540935B
:101290006407F6CF822F90E0313019F49C01285F6B
:1012A0003F4F81E090E002C0880F991F2A95E2F736
:1012B0002091660730916707442339F0822B932BE6
:1012C0009093670780936607DBCF80959095822384
:1012D0009323F6CF08951F93CF93DF93C7E0D0E019
:1012E00010E061E084E10E94E50183E10E94BC011D
:1012F0000C2E01C0880F0A94EAF7182B60E084E1F5
:101300000E94E501219768F7812FDF91CF911F910E
:101310000895CF92DF92EF92FF920F931F93CF9396
:10132000DF936C017B0160E085E10E94E501CBE485
:10133000D0E0CE010197F1F761E085E10E94E5017F
:10134000CE010197F1F70E946B09182F0E946B09DB
:101350001095F60110838095F701808360E085E1A8
:101360000E94E501CE010197F1F761E085E10E945D
:10137000E5012197F1F7C0E1D0E00FE010E060E077
:1013800084E10E94E501C8010197F1F761E084E181
:101390000E94E501C8010197F1F7219781F7DF91DC
:1013A000CF911F910F91FF90EF90DF90CF90089514
:1013B000FC0101900020E9F73197AF01481B590B60
:1013C000BC0189EE97E00C9415048F929F92AF9226
:1013D000BF920F931F93CF93DF93CDB7DEB7A19743
:1013E0000FB6F894DEBF0FBECDBF19A2423008F48D
:1013F0004AE08E010F5D1F4F842E912CB12CA12C41
:10140000A50194010E94A027E62FB901CA01EA3084
:10141000F4F4E05DD801EE938D01232B242B252BD2
:1014200079F790E080E0109719F0CD010E94D8097B
:10143000A1960FB6F894DEBF0FBECDBFDF91CF915E
:101440001F910F91BF90AF909F908F900895E95C8E
:10145000E1CFCF92DF92EF92FF92CF93DF936C01B7
:10146000990FEE08FF08F7FE19C06DE289EE97E0CC
:101470000E949A04EC0166277727CB016C197D093D
:101480008E099F094AE00E94E5098C0F9D1FDF919C
:10149000CF91FF90EF90DF90CF9008954AE0C70181
:1014A000B601DF91CF91FF90EF90DF90CF900C9439
:1014B000E509CF93DF930E94D809EC0188EE91E013
:1014C0000E94D8098C0F9D1FDF91CF91089500973E
:1014D00011F00C94D80990E080E00895EF92FF920B
:1014E0000F931F93CF93DF93CDB7DEB729970FB636
:1014F000F894DEBF0FBECDBF6091C707CE01019645
:101500000E9493078BEE91E00E94670ACE0101963C
:101510000E94670A87EC95E00E94670A6091C607FF
:10152000CE0101960E94930780EF91E00E94670A26
:10153000CE0101960E94670A87EC95E00E94670A37
:10154000E090BC07F090BD078091BA079091BB076F
:10155000E81AF90A0091B8071091B9078091B60707
:101560009091B707081B190B85EF91E00E94670A5D
:10157000C7010E94290A87EC95E00E94670A8AEF5A
:1015800091E00E94670AC8010E94290A87EC95E051
:101590000E94670A88EE91E00E94D8098091BC07FA
:1015A0009091BD079093BB078093BA078091B807CD
:1015B0009091B9079093B7078093B6070E944403B0
:1015C00029960FB6F894DEBF0FBECDBFDF91CF9145
:1015D0001F910F91FF90EF9008958FEF91E00E947F
:1015E000670A86E092E00E94670A84E192E00E9426
:1015F000670A84E292E00E94670A82E191E00E9419
:10160000670A87EC95E00E94670A88EE91E00C94E7
:10161000D8090C9476278F929F92AF92BF92CF9267
:10162000DF92EF92FF920F931F93CF93DF935C01B2
:101630006B01FB0101900020E9F731978F01061B38
:10164000170B85E0E82EF12CD0E0C0E0C017D107E1
:10165000B4F040E0B701C5010E942B0881E0E81A10
:10166000F108A0F7DF91CF911F910F91FF90EF90BC
:10167000DF90CF90BF90AF909F908F900895F6012C
:10168000EC0FFD1F80818E3241F42196C017D107E7
:1016900004F7F601EC0FFD1F808144E08432D1F0A5
:1016A0004DE18F36B9F040E18936A1F045E18D3644
:1016B00089F04BE3893771F0082E000C990B0E94DA
:1016C000E727805240E08A3328F4E82FF0E0E25C1C
:1016D000FE4F40814E018FEF881A980A80169106BE
:1016E00034F4CC0DDD1D89818E3209F44068B701D8
:1016F000C5010E942B08E401B1CF8091B50781118B
:1017000047C08091B407811143C069E272E080E371
:1017100091E00E940C28892BD9F569E272E084E2FD
:1017200091E00E940C28892B99F586E0EFECF1E01E
:10173000A0E3B1E001900D928A95E1F71092360195
:1017400086E0E8ECF1E0A4E2B1E001900D928A9528
:10175000E1F710922A0160E371E090E080E00E94DE
:101760000B0B64E271E081E090E00E940B0B0E94A1
:1017700044036093B0077093B1078093B2079093CE
:10178000B30781E08093B40780E392E00C94590A98
:101790000895CF93DF93EB0144E150E0BC0183E275
:1017A00097E00E9415281092370744E150E0BE01EF
:1017B0008BE097E00E94152810921F0783E297E0C4
:1017C0000E94290721E007970CF420E020933807B6
:1017D0008BE097E00E94290721E007970CF420E0B6
:1017E00020932007109222071092210710920A07D7
:1017F000109209070E9444036093390770933A07D7
:1018000080933B0790933C0750E040E063E277E031
:1018100080E391E00E94FB0650E040E06BE077E05F
:1018200084E291E00E94FB0660E371E090E080E0DA
:101830000E940B0B64E271E081E090E0DF91CF91B8
:101840000C940B0BAF92BF92CF92DF92EF92FF926C
:101850000F931F93CF93DF93CDB7DEB76A970FB681
:10186000F894DEBF0FBECDBF24EF31E040E050E082
:101870000E94A02769017A01CA01B9012AE030E07B
:1018800040E050E00E94A027162FC701B60126E0D5
:1018900030E040E050E00E94A0276B019DE09E01F7
:1018A0002F5F3F4F5901D901E92F1D92EA95E9F7C2
:1018B000DE011E96FD0111929A95E9F7F12CE12CBB
:1018C00030E020E090E3910F7EE2A9014F5F5F4F8F
:1018D0008501020F131FF80190838D01020F131F62
:1018E000F8019083CE14DF0439F52E5F3F4F850158
:1018F000040F151FF80170834A0F5B1FFA017083F4
:10190000FFEFEF1AFF0A86E0E816F104F1F6BD01D9
:10191000C5010E94C90B6A960FB6F894DEBF0FBED0
:10192000CDBFDF91CF911F910F91FF90EF90DF908E
:10193000CF90BF90AF9008959A01E2CF2F923F923F
:101940004F925F926F927F928F929F92AF92BF92CF
:10195000CF92DF92EF92FF920F931F93CF93DF937B
:10196000CDB7DEB761970FB6F894DEBF0FBECDBF1F
:101970000E9444036B017C0166EC77E087EC97E002
:101980000E9489090E9407060E9455052091C707F9
:101990008091C507281306C09091C6078091C4079F
:1019A000981741F18091C0079091C107A091C2079B
:1019B000B091C307B701A601481B590B6A0B7B0BFB
:1019C00080913C0190E0B0E0A0E0481759076A0719
:1019D0007B0780F0C092C007D092C107E092C20797
:1019E000F092C3072093C5078091C6078093C40770
:1019F0000E947D0B80916807811144C081E0809333
:101A000068071092550710925407109253071092CE
:101A100052078091BC079091BD0790935107809326
:101A2000500710924F076BE572E082E692E00E9449
:101A3000C90BC0924B07D0924C07E0924D07F09231
:101A40004E07C0924707D0924807E0924907F092AC
:101A50004A0761960FB6F894DEBF0FBECDBFDF9187
:101A6000CF911F910F91FF90EF90DF90CF90BF909B
:101A7000AF909F908F907F906F905F904F903F902E
:101A80002F9008958091AB079091AC07A091AD077E
:101A9000B091AE0716012701281A390A4A0A5B0AD3
:101AA000D201C101803D9740A105B10590F280911E
:101AB0004B0790914C07A0914D07B0914E07A7019D
:101AC0009601281B390B4A0B5B0BDA01C9018031E7
:101AD0009742A105B10530F1109267071092660791
:101AE0001092650710926407109263070E94D8084D
:101AF00069E272E0CB010E94C90B69E272E090E0FA
:101B000080E00E940B0B69E272E081E090E00E94AD
:101B10000B0B81E090E09093D1078093D007109257
:101B2000680797CF8091520790915307009709F06B
:101B300037C12091BC073091BD078091500790912B
:101B40005107281B390B09F475C080914707909104
:101B50004807A0914907B0914A07B701A601481B61
:101B6000590B6A0B7B0BDB01CA018C329140A1053A
:101B7000B10508F45FC08091430790914407A0919C
:101B80004507B0914607C816D906EA06FB0648F491
:101B90008091BC079091BD079093510780935007A7
:101BA00050CF8091540790915507121613060CF0F0
:101BB000A9C00196909355078093540780915407CC
:101BC0009091550797FF04C0109255071092540743
:101BD0008091540790915507049734F083E090E08A
:101BE00090935507809354078091BC079091BD074F
:101BF0009093510780935007C0924707D0924807AF
:101C0000E0924907F0924A07D701C6018C549F4FD2
:101C1000AF4FBF4F8093430790934407A09345076E
:101C2000B0934607C0924B07D0924C07E0924D0705
:101C3000F0924E070091540710915507013011059D
:101C400009F470C00CF060C069E672E080E792E0D1
:101C50000115110509F463C08091C50780FFA4C474
:101C600080914F078111F5CE80913F0790914007F9
:101C7000A0914107B091420716012701281A390A9D
:101C80004A0A5B0AD201C1018A3F9105A105B1054B
:101C900008F4DFCE81E080934F07C0923F07D092D7
:101CA0004007E0924107F0924207C0924B07D09262
:101CB0004C07E0924D07F0924E0701151105E1F532
:101CC00021E030E0309353072093520710923E07F3
:101CD00010923D07809368078091BC079091BD07E3
:101CE00090935107809350070AEFC00ED11CE11C5E
:101CF000F11CC0924307D0924407E0924507F0924E
:101D00004607A7CE019756CF0230110581F068E84B
:101D100072E080E992E00330110509F09DCF0E9446
:101D2000C90B9ACF69E672E088E792E0F8CF69E2E2
:101D300072E080E892E0F3CF01301105D1F424E0A5
:101D400030E0309353072093520710923E071092D1
:101D50003D07809368078091BC079091BD079093E1
:101D60005107809350071AEFC10ED11CE11CF11CE2
:101D7000C0CF0230110579F485E090E090935307CD
:101D800080935207C092AB07D092AC07E092AD07A8
:101D9000F092AE075ECE0330110509F05ACE9CCE0C
:101DA0008230910509F09AC18091FE06811111C01F
:101DB00068E972E08FE992E00E94C90B0E94440337
:101DC00081E08093FE0664EC77E085EC97E00E946A
:101DD00089090E9444032B013C017BEC272E77E00C
:101DE000372E0E9444036B017C01BE016F5F7F4F61
:101DF000CE0109960E94890989848091C5078816B9
:101E0000A1F1882668E9A62E61E0B62E10E000E078
:101E1000912CC401002E02C0959587950A94E2F793
:101E200080FF18C0F50180819181298530E0002E66
:101E300002C0359527950A94E2F720FF35C166EA7E
:101E400072E00E94C90B41E061E0802F0E943009DE
:101E5000260137010F5F1F4FF4E0AF0EB11C0830B1
:101E60001105B9F689858093C50789808091C407DB
:101E70008816A1F1882658E7A52E51E0B52E10E06E
:101E800000E0912CC401002E02C0959587950A941C
:101E9000E2F780FF18C0F50180819181298130E04F
:101EA000002E02C0359527950A94E2F720FF02C163
:101EB00066EA72E00E94C90B41E062E0802F0E9456
:101EC0003009260137010F5F1F4FF4E0AF0EB11C40
:101ED00008301105B9F689818093C407898581117D
:101EE0001CC08981811119C0D701C60184199509C7
:101EF000A609B709883E9340A105B10570F068E9CD
:101F000072E08FE992E00E94C90B2601370110E1CF
:101F1000410E17E2511E611C711C0E9407060E94AF
:101F200055058091BC079091BD07209150073091D5
:101F30005107821B930B0091B8071091B9072091AC
:101F4000FC063091FD06021B130B009709F444C0F8
:101F50004091F8065091F9066091FA067091FB06DF
:101F600046015701841A950AA60AB70AB501A401C9
:101F7000443B51056105710578F16DE472E0181676
:101F8000190614F064E572E084EB92E00E94C90B3C
:101F900068EE73E080E090E00E94120368E972E06E
:101FA0008FE992E00E94C90B8091BC079091BD0718
:101FB0009093510780935007C092F806D092F9068B
:101FC000E092FA06F092FB062601370120E1420E6C
:101FD00027E2521E611C711C0115110539F16DE4D7
:101FE00072E01016110614F064E572E08BEB92E0DB
:101FF0000E94C90B68EE73E080E090E00E9412033B
:1020000068E972E08FE992E00E94C90B8091B807FD
:102010009091B9079093FD068093FC062601370145
:1020200030E1430E37E2531E611C711C8985982FE5
:10203000917080FF4DC08091F706811149C0409199
:10204000F3065091F4066091F5067091F60646018C
:102050005701841A950AA60AB70AB501A401443F9C
:1020600051406105710560F568EC70E080E090E03A
:102070000E9412031092670710926607109265077C
:1020800010926407109263070E94D80869E272E018
:10209000CB010E94C90B1092530710925207109265
:1020A00068071092FE06D5CC6DEA72E00E94C90B5B
:1020B00040E0CACE6DEA72E00E94C90B40E0FDCE5E
:1020C000C092F306D092F406E092F506F092F6067E
:1020D0009093F706C1010197F1F783CE8330910504
:1020E00009F0F0C080910807811119C062EC72E01C
:1020F00089EC92E00E94C90B68EE73E080E090E00A
:102100000E94120381E0809308070E9444036093B9
:1021100004077093050780930607909307070E94B2
:1021200044039924939499E4B92E2EE6A22E32E327
:10213000832E41E3742E0BEC17E00E9444036B01E5
:102140007C01BE01605F7F4FCE0141960E948909EC
:102150008091040790910507A0910607B0910707A9
:10216000A7019601281B390B4A0B5B0BDA01C90149
:10217000883E9340A105B10568F080910001892552
:1021800080930001C0920407D0920507E0920607F1
:10219000F092070780910001B986AA868823B9F1D9
:1021A0007B8680E28C878989482F50E091E386FF07
:1021B00090E39D8787FF27C081E38E871F86FE01FE
:1021C000319685E090E09A01082E02C0359527955A
:1021D0000A94E2F720FF19C021E32193019798F7B1
:1021E0001F82BE016F5F7F4FCE0109960E94C90B0F
:1021F0008989982F917080FD2FC090930307C801A3
:102200000197F1F79ACF80E3D8CF20E3E6CF8B8612
:1022100080E28C878889482F50E091E386FF90E325
:102220009D8787FF15C081E38E871F86FE0131964B
:1022300085E090E09A01082E02C0359527950A9412
:10224000E2F720FF07C021E32193019798F7C8CF59
:1022500080E3EACF20E3F8CF809103078111CDCF4F
:102260004091FF06509100076091010770910207AD
:1022700016012701241A350A460A570AB201A1019C
:10228000443F514061057105A0F468EC70E080E0C6
:1022900090E00E94120369E272E0CB010E94C90B38
:1022A0001092530710925207109268071092080775
:1022B000D0CBC092FF06D0920007E0920107F092C7
:1022C00002079BCF8430910509F0EFC02091BC0735
:1022D0003091BD078091500790915107281B390B11
:1022E00009F46DC08091470790914807A091490774
:1022F000B0914A07B701A601481B590B6A0B7B0B2B
:10230000DB01CA018C329140A105B10508F457C028
:102310008091430790914407A0914507B0914607EB
:10232000C816D906EA06FB0608F432CC80913D07B0
:1023300090913E07121613060CF096C001969093EA
:102340003E0780933D0780913D0790913E0797FFA0
:1023500004C010923E0710923D0780913D07909176
:102360003E07039734F082E090E090933E0780931D
:102370003D078091BC079091BD07909351078093D2
:102380005007C0924707D0924807E0924907F09261
:102390004A07D701C6018C549F4FAF4FBF4F809360
:1023A000430790934407A0934507B0934607C09214
:1023B0004B07D0924C07E0924D07F0924E070091E8
:1023C0003D0710913E070130110509F44FC002305E
:1023D000110509F452C069E672E080ED92E0011542
:1023E000110509F447C08091C50780FFDDC08091C9
:1023F0004F0781112ECB80913F0790914007A0910C
:102400004107B091420716012701281A390A4A0AE2
:102410005B0AD201C1018A3F9105A105B10508F40B
:1024200018CB81E080934F07C0923F07D0924007BE
:10243000E0924107F0924207C0924B07D0924C07BE
:10244000E0924D07F0924E0701151105D9F482E094
:1024500090E0909353078093520764EC77E085EC0B
:1024600097E00E9489098ECC019769CF62EC72E0F7
:1024700088ED92E00E94C90BB6CF69E272E080EE6F
:1024800092E0F8CF0130110539F483E090E09093A9
:10249000530780935207DDCA0230110509F0D9CAEB
:1024A00010925307109252073ACB8530910509F0EC
:1024B0007EC0EBE1F1E090E080E0219121110FC0BE
:1024C0009E012F5F3F4FF901E80FF91F80E2AF0136
:1024D000421B530B473051059CF48193F8CF873052
:1024E000910574F4203219F48430910534F7A1E099
:1024F000B0E0AC0FBD1FA80FB91F2C930196DDCF24
:102500001886A2E1B1E0FE01399690E080E02D91BD
:10251000211112C0E9E0F0E0EC0FFD1FE80FF91FF8
:1025200029E030E02C0F3D1F2A5F3F4F80E2E21789
:10253000F30741F08193FBCF8630910519F00196A6
:102540002193E5CF1F86BE01675F7F4FCE010196C5
:102550000E94C90B8091C50780FF26C080914F075C
:10256000811177CA80913F0790914007A091410760
:10257000B091420746015701881A990AAA0ABB0A74
:10258000D501C4018A3F9105A105B10508F461CACE
:1025900081E080934F07C0923F07D0924007E092BE
:1025A0004107F09242077CCF10924F0752CA019721
:1025B00009F004C22091BC073091BD0780915007FB
:1025C00090915107281B390B09F46DC08091470782
:1025D00090914807A0914907B0914A07B701A60119
:1025E000481B590B6A0B7B0BDB01CA018C329140F3
:1025F000A105B10508F457C08091430790914407A5
:10260000A0914507B0914607C816D906EA06FB0611
:1026100008F4BECA80913D0790913E07121613063A
:102620000CF0A3C0019690933E0780933D078091E4
:102630003D0790913E0797FF04C010923E0710920D
:102640003D0780913D0790913E07069734F085E065
:1026500090E090933E0780933D078091BC07909156
:10266000BD079093510780935007C0924707D092BF
:102670004807E0924907F0924A07D701C6018C54F7
:102680009F4FAF4FBF4F8093430790934407A09352
:102690004507B0934607C0924B07D0924C07E09293
:1026A0004D07F0924E0700913D0710913E07023012
:1026B000110509F470C00CF05AC00115110509F498
:1026C00065C065EF72E08CEF92E00130110509F40E
:1026D0005AC08091C50780FF67CF80914F07811155
:1026E000B8C980913F0790914007A0914107B091F0
:1026F000420716012701281A390A4A0A5B0AD20141
:10270000C1018A3F9105A105B10508F4A2C9BB2406
:10271000B394B0924F07C0923F07D0924007E09227
:102720004107F0924207C0924B07D0924C07E092CB
:102730004D07F0924E0701151105E1F5B0926207C1
:1027400083E090E09093D1078093D0070E944403E8
:102750006093AB077093AC078093AD079093AE077F
:1027600086E293E00E94590A74C901975CCF043055
:102770001105D9F0ACF069E272E080EE92E005302C
:10278000110509F0A6CF0E94C90BA3CF67EE72E036
:102790008EEE92E0F8CF63E073E08AE093E0F3CF4F
:1027A00069E672E081E193E0EECF68E173E08FE1EA
:1027B00093E0E9CF0130110581F50E9444036B01DC
:1027C0007C011092670710926607109265071092BD
:1027D0006407109263070E94D8080E9444036C1992
:1027E0007D098E099F09683873418105910578F448
:1027F0000E9444036C197D098E099F090E94220CD6
:1028000060E570E080E090E00E941203E6CF69E2AC
:1028100072E0CB010E94C90B43CE0230110509F0D2
:1028200042C00E9444034B015C0163E073E087E314
:1028300093E00E94C90B68EE73E080E090E00E9494
:10284000120388E1C82E8CEFD82EEE24EA94FE2CD9
:10285000C818D908EA08FB080E94440368197909D6
:102860008A099B09683873418105910578F40E94B3
:1028700044036C0D7D1D8E1D9F1D0E94090964E699
:1028800070E080E090E00E941203E6CF10926707AC
:102890001092660710926507109264071092630702
:1028A0000E94D808FDCD03301105C1F50E944403F4
:1028B0006B017C0169E672E081E193E00E94C90B43
:1028C00068EE73E080E090E00E94120310926707C8
:1028D00010926607109265071092640780E8809353
:1028E00063070E94D8080E9444036C197D098E0971
:1028F0009F09683873418105910508F088CF0E94CF
:1029000044036C197D098E099F090E94460862E301
:1029100070E080E090E00E941203E5CF04301105E2
:1029200009F047C00E9444036B017C0169E672E034
:102930008EE393E00E94C90B8FEF9FEF90936707A0
:1029400080936607B0926507B0926407809363072F
:102950000E94D8080E9444036C197D098E099F09C2
:10296000683873418105910578F40E9444036C191D
:102970007D098E099F090E948D0868E270E080E061
:1029800090E00E941203E6CF10926707109266074C
:102990001092650710926407109263070E94D8088E
:1029A00085E493E00E94590A80910D010E94C308BA
:1029B00077CD0530110509F04CC872CD80913907EB
:1029C00090913A07A0913B07B0913C07B701A6014F
:1029D000481B590B6A0B7B0BDB01CA018C329140FF
:1029E000A105B10508F435C8C0923907D0923A075D
:1029F000E0923B07F0923C0780913807882341F131
:102A000083E297E00E942907209121073091220755
:102A10002F5F3F4F8630910514F486E090E00697D3
:102A2000821793070CF443C03093220720932107A9
:102A3000409121075091220763E277E080E391E023
:102A40000E94FB0660E371E090E080E00E940B0BC7
:102A500080912007882311F40C94290D8BE097E0D6
:102A60000E9429072091090730910A072F5F3F4FE5
:102A70008630910514F486E090E00697821793075C
:102A8000DCF030930A072093090740910907509121
:102A90000A076BE077E084E291E00E94FB0664E2C3
:102AA00071E081E090E00E940B0B0C94290D1092D4
:102AB000220710922107BCCF10920A071092090733
:102AC000E4CF882361F06AE673E081E793E00E9437
:102AD000C90B68EE73E080E090E00E9412030E9450
:102AE000160162E370E080E090E00E94120388E14A
:102AF00098E00FB6F894A895809360000FBE90936D
:102B00006000FFCF1F920F920FB60F9211242F93E8
:102B10003F938F939F93AF93BF938091D3079091EF
:102B2000D407A091D507B091D6073091D20723E002
:102B3000230F2D3758F50196A11DB11D2093D20703
:102B40008093D3079093D407A093D507B093D6076B
:102B50008091D7079091D807A091D907B091DA0753
:102B60000196A11DB11D8093D7079093D807A0931C
:102B7000D907B093DA07BF91AF919F918F913F91A1
:102B80002F910F900FBE0F901F90189526E8230FDE
:102B90000296A11DB11DD2CF1F920F920FB60F92B8
:102BA00011242F933F934F935F936F937F938F9352
:102BB0009F93AF93BF93CF93EF93FF93C091E100A7
:102BC0008091E100837F8093E100C3FF0FC01092EA
:102BD000E90081E08093EB001092EC0082E38093A7
:102BE000ED001092E80788E08093F000C2FF1AC061
:102BF0000E94160180915B07882341F080915B075A
:102C0000815080935B07811101C05D988091E70737
:102C1000882341F08091E70781508093E707811175
:102C200001C02898C4FF23C08091E2008E7E81609D
:102C30008093E2008091E1008F7E8093E10080919B
:102C40005C078E7E806180935C07FF91EF91CF914E
:102C5000BF91AF919F918F917F916F915F914F91B4
:102C60003F912F910F900FBE0F901F901895C0FFAE
:102C7000ECCF8091E2008E7E80618093E2008091B3
:102C8000E1008E7E8093E10080915C078E7E816002
:102C9000DACF1F920F920FB60F921124CF92DF92CC
:102CA000EF92FF920F931F932F933F934F935F9356
:102CB0006F937F938F939F93AF93BF93EF93FF9304
:102CC000CF93DF93CDB7DEB76C97DEBFCDBF109249
:102CD000E9008091E80083FF25C068E0CE014596B9
:102CE0000E94080482EF8093E8008D8987FF39C035
:102CF0009091E80090FFFCCF982F907609F034C1B6
:102D00009E894F89588D2F89F88C911131C0803858
:102D100061F580915D078093F1001092F1008EEFD4
:102D20008093E8006C960FB6F894DEBF0FBECDBF5F
:102D3000DF91CF91FF91EF91BF91AF919F918F91D3
:102D40007F916F915F914F913F912F911F910F91C3
:102D5000FF90EF90DF90CF900F900FBE0F901F90DD
:102D600018959EEF9093E800C7CF1092F100D5CF51
:102D7000913059F48111D3CF4130510581F68091C2
:102D80005D078D7F80935D07CACF933049F4811131
:102D9000C6CF4130510519F680915D078260F2CFB0
:102DA000953041F48091E80080FFFCCF20682093AB
:102DB000E300B5CF963009F0A9C00B8D1C8D22E041
:102DC0001092E9001092590710925807F2122EC083
:102DD00010925707109256070E94D7031F8299E05E
:102DE0009983FA8291E09E8390EA98879AEF998777
:102DF0002091580730915907275F3F4F3C832B8321
:102E00008D831092E9001092590710925807109381
:102E100057070093560749E050E0BE016F5F7F4FB0
:102E200080E00E94B1030E94D70379CF1093570727
:102E3000009356070E945C01DC0112960D911C91D3
:102E40000115110509F451C1D801ED91FC910480DF
:102E5000F581E02DBE016B5E7F4FC801099500979B
:102E600009F03EC1F80100851185EACFF3E0FF12B9
:102E70000EC08F89882309F440C0823061F440E895
:102E80006DE080E191E00E947E03811148CF81E2F4
:102E90008093EB0047CF813029F440E86BE084E079
:102EA00091E0F1CF833099F70E945C01DC0112962A
:102EB000ED90FC908E010F5F1F4F6801E114F1044B
:102EC00079F0D701ED91FC910680F781E02DB801F2
:102ED000C7010995080F111DF701E084F184EECFB9
:102EE000D8011C92F60101900020E9F73197BF014B
:102EF0006C197D0940E0C601C6CF6EEE70E0FB01A3
:102F0000449150E080E80E94B10309CF973009F462
:102F1000BECF983021F481E08093F10000CF99304A
:102F200009F0FDCE837009F0B2CFE9EBF1E081E06A
:102F300031E096E32191222371F08093E9003093F0
:102F4000EB00DF0111972C912093EC009093ED00A2
:102F50008F5F873079F78EE78093EA001092EA005E
:102F60008F898093E807DBCE8B8D9C8D1092E900D2
:102F7000109259071092580790935707809356075D
:102F8000898D811192C08E899D89913A49F481324F
:102F900009F07DCF47E050E065E071E080E0B3CF1D
:102FA000913209F074CF833269F48F89988DB0E043
:102FB000A0E08093010190930201A0930301B093DC
:102FC0000401ADCE803269F48091E80082FFFCCF2D
:102FD00067E085E091E00E9408048BEF8093E800B1
:102FE0009ECE823209F09BCE8F8980930C01EEEF4A
:102FF000FFE7859194918B3F9C4D51F1E0E0F8E023
:103000008091050190910601A0910701B0910801FE
:10301000803B9440A105B105F1F480910C0180FD45
:103020001AC0EE3F8AE0F80789F587E797E79183B2
:1030300080838091600080935A0788E19BE00FB6FF
:10304000F894A895809360000FBE9093600067CEBF
:10305000EEEFFAE0D5CF808191818737974709F06D
:103060005ECEA89580916000886180936000809119
:103070005A0780936000EE3F2AE0F20789F08091C2
:10308000FE0A9091FF0A9183808349CE80819181CD
:103090008737980751F29093FF0A8093FE0AC5CFB5
:1030A0001092FF0A1092FE0A3ACE0E945C01DC01E7
:1030B00012960D911C910115110509F4E8CED80165
:1030C000ED91FC910190F081E02DBE016B5E7F4F90
:1030D000C8010995811123CEF80100851185EBCF38
:1030E000181619060CF41BCED2CEF1E0FF12BECE9C
:1030F00062EF70E004CFFC01DB019D91BD019923DB
:1031000079F021918FE9820F8A3108F420528FE9FA
:10311000890F8A3108F49052291771F380E00895DD
:1031200081E008950C947E27FF920F931F93CF9315
:10313000DF93EC01F62E08811981C8010E947627E1
:10314000F81621F06F2DC8010E947E27CE01DF9175
:10315000CF911F910F91FF900895CF93DF9310921D
:10316000EC071092EB0788EE93E0A0E0B0E08093CC
:10317000ED079093EE07A093EF07B093F0078AED69
:1031800091E09093EA078093E9078FEF9FEF909388
:10319000F6078093F507C2E1D0E0D0938C08C09386
:1031A0008B0882E090E090938E0880938D082FE04A
:1031B00030E03093900820938F089093920880938A
:1031C000910861E082E10E94130261E080918D0824
:1031D0000E94130261E080918F080E94130261E057
:1031E00080918F080E94E501D0938C08C0938B08D2
:1031F000EBE4F8E0119288E0EB38F807D9F7D0E07B
:10320000C0E08091910890919208C817D90774F591
:1032100040E06FE0CE010E94C90780919108909133
:103220009208C817D9072CF447E06BE0CE010E9442
:10323000C90740E069E0CE010E94C907809191086A
:1032400090919208C817D9071CF4CE010E940B0870
:103250008091910890919208C817D9072CF440E00A
:103260006CE0CE010E94C9072196CBCF80913D0131
:10327000982F937090933A0890E09595879595953F
:103280008795837080933908DF91CF910895CF930C
:10329000DF93CDB7DEB7C75BD1090FB6F894DEBFB9
:1032A0000FBECDBF789484B5826084BD84B5816043
:1032B00084BD85B5826085BD85B5816085BD809101
:1032C0006E00816080936E00109281008091810079
:1032D0008260809381008091810081608093810071
:1032E0008091800081608093800080919100826055
:1032F00080939100809191008160809391008091F2
:1033000090008160809390008091C10084608093E0
:10331000C1008091C10082608093C1008091C10092
:1033200081608093C1008091C30081608093C3005D
:103330008091C00082608093C0008091C200816053
:103340008093C20080917A00846080937A0080919B
:103350007A00826080937A0080917A008160809305
:103360007A0080917A00806880937A001092E80752
:1033700010925D0710925C078091D7008160809366
:10338000D70080EA8093D80089B5806189BD89B56E
:10339000826089BD09B400FEFDCF61E070E080E08D
:1033A00090E00E9412038091D8008F7C806180930E
:1033B000D8008091E000807F8093E0008091E10060
:1033C0008E7E8093E1008DE08093E200559A209AF2
:1033D0005D9828980FB6F894A89580916000886150
:1033E00080936000109260000FBE8FEF9FEF90936C
:1033F000F6078093F50761E084E00E94130261E024
:1034000085E00E94130261E086E00E94130261E001
:103410008EE00E94130261E080E10E94130261E0ED
:1034200083E00E94130260E083E10E94130261E0E6
:1034300084E10E94130261E085E10E94130262E0D0
:1034400087E00E94130262E088E00E94130262E0BB
:1034500089E00E94130262E08AE00E9413028091D8
:103460009108909192081816190634F441E06CE026
:1034700090E080E00E94C90700910D0110E0B801C2
:1034800090E080E00E947E088091910890919208DF
:103490001816190624F490E080E00E940B08809131
:1034A000910890919208029734F041E06CE081E03D
:1034B00090E00E94C907B80181E090E00E947E0878
:1034C0008091910890919208029724F081E090E019
:1034D0000E940B0890E080E00E94090B182F81E009
:1034E00090E00E94090B982F812F8A35954A29F088
:1034F00087E793E00E94590A17C082E090E00E949B
:10350000090B182F823009F4C0C081E993E00E94B2
:10351000670A612F70E090E080E04AE00E94E509D0
:1035200088EE91E00E94D8090E9434071092670744
:103530001092660710926507109264071092630755
:103540000E94D80887ED93E00E94670A60913D01D0
:1035500070E090E080E042E00E94E5098CEF93E0AB
:103560000E94670A60913A0870E090E080E042E0D3
:103570000E94E50983E094E00E94670A609139089F
:1035800070E090E080E042E00E94E5098AE094E08B
:103590000E94590A8DE094E00E94670A60913C0104
:1035A00070E090E080E04AE00E94E5098DE194E05F
:1035B0000E94670A609110017091110190E080E013
:1035C0004AE00E94E50986E294E00E94670A609161
:1035D0000E0170910F0190E080E04AE00E94E50941
:1035E0008FE294E00E94670A82E191E00E94590A0A
:1035F0001092D1071092D0070E94440360935E0797
:1036000070935F0780936007909361076E01F1E408
:10361000CF0ED11C4E0121EA820E911C0E94440360
:103620002B013C018091D0079091D107009709F0C0
:10363000C4C10E94440300915E0710915F0720916E
:10364000600730916107DC01CB01801B910BA20B5D
:10365000B30B86399105A105B10508F093C08AEA3C
:103660009AEA909367078093660781E080936507E5
:103670001092640788EC809363070E94D80869E27F
:1036800072E0CB010E94C90B90C16E0131E4C30E00
:10369000D11C760103E010E0C8010E94090BD7019C
:1036A0008D937D010F5F1F4F0B301105A9F7F601B8
:1036B00010869E012F5F3F4F79015901C8010E947A
:1036C000090BD5018D935D010F5F1F4F033111056C
:1036D000A9F7198683E190E00E94090B182FB70122
:1036E000C6010E94FE00181719F08EEA93E002CF7F
:1036F000A601485F5F4F90E080E0F60121916F01E5
:10370000322F3F7D29F0FC01EE5EFE4F20830196B3
:10371000C416D50691F7009761F18E5E9E4FDC01CD
:103720001C92ABE1B1E0A70190E080E0FA01319199
:10373000AF01232F2F7D01F5FC01EE0DFF1D21911F
:103740002F7DD1F4BF016E197F0968307105BCF37C
:10375000009711F40C944F279C0121503109F90175
:10376000E55EFE4F4081403211F00C943927C901CB
:10377000EFCF10921201D5CF01963D93883091057D
:10378000A9F6E6CF8C3231E09307A105B10560F4CC
:1037900085E595E590936707809366071092650726
:1037A00081E08093640766CF823C41E09407A105E5
:1037B000B105A8F48FEF9FEF90936707809366079A
:1037C00081E0809365078093640788EC80936307AA
:1037D0000E94D80868E374E08FE394E053CF883503
:1037E00052E09507A105B10528F468E374E086E48A
:1037F00094E048CF8E3EE2E09E07A105B10528F493
:1038000068E374E08DE494E03DCF8438F3E09F07F3
:10381000A105B10528F468E374E084E594E032CFB3
:103820008A3124E09207A105B10528F468E374E029
:103830008BE594E027CF803B34E09307A105B105E9
:1038400028F468E374E082E694E01CCF863445E017
:103850009407A105B10528F468E374E089E694E0D3
:1038600011CF8C3D55E09507A105B10528F468E31B
:1038700074E080E794E006CF8237E6E09E07A1057A
:10388000B10528F468E374E087E794E0FBCE883064
:10389000F7E09F07A105B10528F468E374E08EE71F
:1038A00094E0F0CE8E3927E09207A105B10528F407
:1038B00068E374E085E894E0E5CE82399940A1059B
:1038C000B10508F04CC0EBE1F1E090E080E021911F
:1038D00021110FC09E012F5F3F4FF901E80FF91F23
:1038E00080E2AF01421B530B473051059CF481939A
:1038F000F8CF8730910574F4203219F484309105A3
:1039000034F7A1E0B0E0AC0FBD1FA80FB91F2C9396
:103910000196DDCF1886A2E1B1E090E080E02D9124
:1039200021110CC0F601E80FF91F96012A5F3F4FE5
:1039300080E2E217F30761F08193FBCF86309105B7
:1039400039F00196FC013197EC0DFD1D2083E7CF86
:10395000D60116961C92B601CE01019693CE109216
:10396000670710926607109265071092640710921D
:1039700063070E94D80869E272E0CB010E94C90B7C
:1039800081E090E09093D1078093D00780916A07FF
:1039900081110BC066E970E080E090E00E941203A4
:1039A0000E94ED0A81E080936A0780E090E0892B15
:1039B00009F434CE0E94000031CE8230910519F412
:1039C0000E949E0CF2CF039709F09AC10E94440313
:1039D0000091AB071091AC072091AD073091AE0775
:1039E0002B013C01401A510A620A730AB0ED4B16D2
:1039F000B7E05B066104710488F4109267071092C7
:103A000066071092650710926407109263070E9480
:103A1000D8086CE874E082E692E034CEE8E54E1611
:103A2000EBE15E0661047104A8F41092670710923E
:103A300066071092650710926407109263070E9450
:103A4000D808C301B201605D7740810991090E94E5
:103A5000220CABCFF0E14F16F7E25F066104710470
:103A6000A8F48FEF9FEF909367078093660781E03C
:103A700080936507809364078FEF809363070E94AC
:103A8000D80863E974E08AE994E0FCCD28E942169D
:103A90002AE352066104710408F072C010926707AD
:103AA00010926607109265071092640780E8809371
:103AB00063070E94D808B401CE0187559F4F0E942A
:103AC0008909C755DF4F4881C95AD04050E0FE01EF
:103AD000EF57FF4F27E030E0CF01BA01022E02C0BE
:103AE000759567950A94E2F760FF46C061E36193BC
:103AF000215031092130310581F7DC0116961C92E5
:103B0000F401408150E0FE01EF59FF4F27E030E023
:103B1000BF01DA01022E02C0B595A7950A94E2F71B
:103B2000A0FF2CC0A1E3A193215031092130310520
:103B300081F7DB0116961C920E94C90BC755DF4F17
:103B40006881C95AD040C6010E949307F401608180
:103B5000CE0101960E94930781EA94E00E94670AD1
:103B6000C6010E94670A8BEA94E00E94670ACE01B0
:103B700001960E94590A19CF60E3B9CFA0E3D3CFD1
:103B8000F0E24F16FEE45F066104710478F469E622
:103B900072E087E393E00E94C90BC301B201685948
:103BA0007A43810991090E940909FFCE28EA421649
:103BB00021E652066104710410F510926707109215
:103BC0006607109265071092640780E88093630788
:103BD0000E94D80869E672E081E193E030EF431675
:103BE00035E553066104710408F44CCDC301B201FC
:103BF00068507245810991090E944608D6CE40E37B
:103C0000441645E7540661047104F8F469E672E06D
:103C10008EE393E00E94C90B8FEF9FEF90936707AD
:103C20008093660781E080936507809364078FEF38
:103C3000809363070E94D808C301B201685A714695
:103C4000810991090E948D08B0CE58EE451650E8C2
:103C500055066104710480F410926707109266079C
:103C6000109265071092640780E8809363070E94B2
:103C7000D80861EB74E0CFCE80910D010E94C3089B
:103C800010926707109266071092650710926407FA
:103C9000109263070E94D80869E272E0CB010E948B
:103CA000C90B80916207882321F10E94D80869E23C
:103CB00072E0CB010E94C90B69E272E090E080E003
:103CC0000E940B0B69E272E081E090E00E940B0B16
:103CD00082E090E09093D1078093D007109268071C
:103CE000109262071092AF071092B40788EB94E02D
:103CF00040CF81E090E09093D1078093D007F2CF3E
:103D00008091CC079091CD07A091CE07B091CF07BD
:103D1000481659066A067B0608F447CE89EE97E0F6
:103D20000E94F804892B09F449C789EE97E00E94A4
:103D3000B6048D3099F38A3009F48BE3EBE6F7E0B3
:103D400001900020E9F7EC56F740EF33F10520F43D
:103D5000E559F84F80831182CE0101961C016BE377
:103D600070E08BE697E00E9401280097B9F2DC0131
:103D70001C92ABE6B7E0AD014F5F5F4F2C91203254
:103D8000A9F07E01E1E8EE0EF11C970170E060E021
:103D9000BE2CAF2C4D91442359F06F31710541F089
:103DA000F90141939F016F5F7F4FF4CFDA01E3CFB9
:103DB000FB01EE0DFF1D1082EE15FF0519F022919B
:103DC0002032C9F3BC016F5F7F4FDB010D900020F3
:103DD000E9F7AD01461B570B8BE697E00E94EF27F2
:103DE000F7018081882309F4BACFFE01EF59FF4F14
:103DF00090E080E08F01D7012D917D01222359F0C1
:103E00008F31910541F03FE9320F3A3108F42052E9
:103E100021930196F0CF800F911FFC01108267EC77
:103E200074E0C8010E940C28892B79F06BEC74E0D7
:103E3000C8010E940C28892B41F063ED74E0C80191
:103E40000E940C28892B09F055C084EC91E09F93C7
:103E50008F9389ED94E09F938F931F9288E08F93C7
:103E6000DF92CF920E94242860E270E08BE191E023
:103E70000E9401280FB6F894DEBF0FBECDBF009799
:103E8000B1F101969F938F9380EE94E09F938F936F
:103E90001F9288E08F933F922F920E942428B101B5
:103EA000C6010E94C90B68E873E180E090E00E94BF
:103EB000120369E272E0CB010E94C90B0E94ED0A75
:103EC00081E080936A070E94440368537F4F8F4FBD
:103ED0009F4F6093CC077093CD078093CE0790934C
:103EE000CF070FB6F894DEBF0FBECDBF38CF8BE142
:103EF00091E0C8CF67EE74E0C8010E940C28892BBE
:103F000039F4109269078BE395E00E94590A27CF94
:103F10006CEE74E0C8010E940C28892B01F580EF3B
:103F200094E00E94670A60E270E08BE191E00E94F9
:103F300001288C01009781F0DC0111968C91882377
:103F400059F085EF94E00E94670AC80101960E942B
:103F5000670A86EC95E0D9CF8BE191E0F8CF67EF67
:103F600074E0C8010E940C28892B39F48DEF94E08D
:103F70000E94590A81E00E94611568E075E0C8015D
:103F80000E940C28892B19F40E946E0AE8CE6CE07E
:103F900075E0C8010E940C28892BE1F48091D007BC
:103FA0009091D107019709F0DACE82E090E09093EA
:103FB000D1078093D0070E9444036093AB077093AE
:103FC000AC078093AD079093AE071092680781E12C
:103FD00095E09BCF6AE370E08B2D9A2D0E9401281B
:103FE000892B09F4BCCEAF92BF9282E295E09F93F9
:103FF0008F931F9280E48F933F922F920E942428E8
:10400000CA54DF4F39822882C65BD0400FB6F8947D
:10401000DEBF0FBECDBF90E080E0CA54DF4FA88165
:10402000B981C65BD040ED91CA54DF4FB983A883F4
:10403000C65BD040CB54DF4FE883C55BD040EB3349
:1040400009F451C7EE2309F436C78F3191052CF7D7
:10405000F601E80FF91FCB54DF4F3881C55BD04024
:1040600030830196DACF7F01CD54DF4FF982E882A9
:10407000C35BD040F70181918032A9F3811109C05F
:10408000CB54DF4FB881C55BD040BB2309F467CE6A
:10409000C2CF6AE370E0C7010E940128009709F0CF
:1040A000D9C067EC74E0C7010E943B0581110EC0C6
:1040B0006BEC74E0C7010E943B05811107C063ED02
:1040C00074E0C7010E943B05882359F00E94ED0A65
:1040D000CB54DF4FE881C55BD040EE2309F43FCEDF
:1040E0009ACF68E075E0C7010E943B05882319F06C
:1040F0000E946E0AEDCF6CE075E0C7010E943B059F
:104100008823D9F08091D0079091D107019701F7CA
:1041100082E090E09093D1078093D0070E944403FF
:104120006093AB077093AC078093AD079093AE0795
:1041300086E295E00E94590ACBCF62E375E0C701A1
:104140000E947B18882321F2E4E0EE0EF11C870127
:10415000FFEFEF1AFF0AD8018C918032C1F367EEAE
:1041600074E0C8010E947B18882329F01092690727
:1041700087E395E0DFCF65E475E0C8010E947B1816
:10418000882309F4A5CF80916907882309F45FC0CB
:104190006BE171E082E191E00E94FE00F82E32E1D5
:1041A000A32E31E0B32E10E000E06501F60101908E
:1041B0000020E9F7CF018351914060E0081719070B
:1041C00014F4D5016C91C80103960E9492180F5FF8
:1041D0001F4FBFEFAB1ABB0A0830110539F72BE1AF
:1041E000A22E21E0B22E10E000E06501F601019060
:1041F0000020E9F7CF018C51914060E008171907C2
:1042000014F4D5016C91C8010B960E9492180F5FAF
:104210001F4FBFEFAB1ABB0A0830110539F76F2DDE
:1042200083E190E00E949218109269076BE475E0B8
:10423000CB010E94C90B68EE73E080E090E00E9421
:10424000120381E595E00E94590A80E094CE8CE546
:1042500095E070CFDC011D92F70101900020E9F795
:104260003197EE15FF0529F08291803211F410820A
:10427000F8CF5701FFEFEF1AFF0AF5018081803276
:10428000C1F38D01780198012F5F3F4FD8018C91C8
:10429000803269F0F80101900020E9F731970E179C
:1042A0001F0739F08291803221F41082F8CF890102
:1042B000E9CF6BE675E0C5010E943B058823B1F0AC
:1042C000C8010E947F079091660789279827892750
:1042D00090936707809366070E94D808CB54DF4FFE
:1042E0002881C55BD040211196CE39CD60E775E0BD
:1042F000C5010E943B05882331F0C8010E947F0759
:1043000080936607E9CF65E775E0C5010E943B052C
:10431000882361F0C8010E947F07982F91709093C5
:1043200065078695817080936407D6CF6FE775E047
:10433000C5010E943B05882381F0C8010E94120537
:1043400097FD07C08F3F910509F02CF48093630718
:10435000C3CF80E0FBCF8FEFF9CF6AE775E0C501EF
:104360000E943B05882331F0C8010E9412050E947B
:10437000C308B4CF62E875E0C5010E943B058823FD
:1043800009F44DC0C8010E9412058F3F980781F4BF
:1043900010E000E040E0B80190E080E00E942B08CF
:1043A0000F5F1F4F06301105A9F71092300196CF0D
:1043B0008836E1E09E0718F523E4209330012DE2D2
:1043C000209331019F938F9387E895E09F938F937C
:1043D0001F9284E08F9382E391E09F938F930E94DA
:1043E00024281092350160E371E090E080E00E94A3
:1043F0000B0B0FB6F894DEBF0FBECDBF6FCF46E0FC
:1044000050E0B80180E391E00E9415281092360137
:1044100060E371E090E080E00E940B0B5FCF6CE8FE
:1044200075E0C5010E943B05882309F444C0C8011A
:104430000E9412058F3F980781F410E000E040E0F1
:10444000B80181E090E00E942B080F5F1F4F0630FB
:104450001105A9F71092240141CF883641E0940755
:10446000E0F423E4209324012DE2209325019F937F
:104470008F9387E895E09F938F931F9284E08F93AB
:1044800086E291E09F938F930E9424281092290145
:1044900064E271E081E090E0AACF46E050E0B8012C
:1044A00084E291E00E94152810922A0164E271E0F2
:1044B00081E090E0B1CF61E975E0C5010E943B0564
:1044C000882361F167E975E0C8010E940C28892BF7
:1044D000D9F491E09093B5076FEC71E080E391E03F
:1044E0000E940C28892B09F0F9CE68EC71E084E277
:1044F00091E00E940C28892B09F0F0CE69E272E06D
:10450000CB010E94C90BEACE68E975E0C8010E94A0
:104510000C28892BF1F21092B507E0CE68E075E027
:10452000C5010E943B058111D9CE67EC74E0C5013D
:104530000E943B05882319F00E94ED0ACFCE6AE95C
:1045400075E0C5010E943B05882309F4C9C0D70165
:104550008C91882309F4C2CE8701F7018081FFEF97
:10456000EF1AFF0A8032C1F38B33B1F3882309F4C9
:10457000B5CE6BE370E0C8010E9401287C01009772
:1045800011F0DC011C926EE975E0C8010E947B18F5
:10459000882349F0F80101900020E9F73197E01BEA
:1045A000F10B379718F562EA75E0C8010E947B1895
:1045B00081114DC066EA75E0C8010E947B1888230E
:1045C00009F45BC0C80103960E9412058436910568
:1045D0000CF44DC08131E7E29E070CF04BC0282F50
:1045E000892F209310018093110126C0F801858145
:1045F000813359F582E091E0D80116962C91213350
:1046000009F090E0982BF801838122E0813309F0D2
:1046100020E081E0D80114963C91313309F080E02C
:10462000822BB4E08B9F90011124292B20933D0114
:1046300090933A0880933908E114F10409F432C4E4
:10464000D701EBE3ED937D0182CF80E0D4CFC801A9
:1046500003960E94120597FD06C0843691052CF43E
:1046600080933C01E9CF80E0FBCF83E6F9CF24E6DD
:1046700080E0B7CF20E187E2B4CF6AEA75E0C801F5
:104680000E947B188823C1F0C80103960E9412057E
:10469000843691055CF08131F7E29F0754F4282FAE
:1046A000892F20930E0180930F01C6CF24E680E06E
:1046B000F8CF20E187E2F5CF64E272E0C8010E9402
:1046C0007B18882309F4B8CF48E050E0B8016C5F4C
:1046D0007F4F82E191E00E94152810921A01ACCF21
:1046E00062E375E0CD54DF4F88819981C35BD04090
:1046F0000E947B18882309F4F1CDCD54DF4F8881C7
:104700009981C35BD04004967C010196D7012C911E
:104710002032D1F36EEA75E0C7010E947B1888232E
:10472000F1F06FEB71E0C8010E940C28892B71F445
:10473000B1E0B093690762EB75E088EB95E00E9409
:10474000C90B8EEB95E00E94590AC8CD69EC75E063
:1047500088EB95E00E94C90B8FEC95E0F4CF6EEDED
:1047600075E0C7010E947B18882321F080916907BA
:1047700081116EC061EE75E0C7010E947B18811146
:10478000DFC067EE74E0C7010E947B18811137C15A
:1047900062E476E0C7010E947B18882321F08091B3
:1047A0006907811131C165E475E0C7010E947B187A
:1047B000882309F493CD80916907882309F4FBC10C
:1047C0006BE171E082E191E00E94FE00F82E92E13F
:1047D000A92E91E0B92E10E000E06501D6010D9000
:1047E0000020E9F7CD018351914060E008171907D7
:1047F00014F4F5016081C80103960E9492180F5FBE
:104800001F4FFFEFAF1ABF0A0830110539F78BE1D0
:10481000A82E81E0B82E10E000E06501D6010D90D1
:104820000020E9F7CD018C51914060E0081719078D
:1048300014F4F5016081C8010B960E9492180F5F75
:104840001F4FFFEFAF1ABF0A0830110539F7E7CC49
:1048500058010F5F1F4FF50180818032C9F36EE26E
:1048600070E0C5010E9401288C01009709F465C021
:10487000A816B90608F061C0D5010D900020E9F72F
:10488000CD0102970817190708F057C0F8011192D7
:104890007F01C5010E941205CD54DF4F99838883A3
:1048A000C35BD040C7010E9412052EE2D8012C93B1
:1048B000CD54DF4F28813981C35BD040215031096D
:1048C00029303105B8F58A309105A0F59F938F9373
:1048D000CC54DF4FB881C45BD040BF93CD54DF4F81
:1048E000E881C35BD040EF9386EE95E09F938F9372
:1048F0001F9289E08F938BE191E09F938F930E94A9
:1049000024280E943407BF92AF9280EE94E09F93D8
:104910008F931F9288E08F939F928F920E942428FA
:1049200060EF75E0C4010E94C90B87EF95E00E941B
:10493000590A5FCD83E096E006CF82E196E003CF8F
:1049400080916907882309F41CCFD801ED917D017E
:10495000CD54DF4FE883C35BD040E032E9F1F8018A
:1049600001900020E9F731975F01A01AB10AC50153
:104970000397069708F040C06DE270E0C8010E94FE
:1049800001280097C9F18E159F05B1F5CD54DF4F71
:10499000F881C35BD0408F2FFF0F990B0E94DF2758
:1049A00021E0892B09F420E0780132E0E30EF11CCC
:1049B000A00EB11EAE14BF0489F02223E9F0D70186
:1049C0008D917D01082E000C990B0E94DF2721E0BC
:1049D000892B81F720E0EECF8701B7CF222361F04A
:1049E00048E050E0B80182E191E00E941528109261
:1049F0001A0182E296E0A7CE80E396E0A4CE109260
:104A0000690787E395E09FCEC8010F5F1F4FFC0148
:104A100020812032C9F366E476E00E943B058823BA
:104A200009F4C6C082E191E0DC010D900020E9F7B5
:104A3000CD0183519140A2E1B1E07E01E9EAEE0EA1
:104A4000F11CF70130E020E0670140E22817390748
:104A50000CF0AAC05C9150832F5F3F4F11963196A6
:104A60002830310599F7EBE1F1E001900020E9F7FA
:104A7000BF016C5171402BE131E05E01F1EAAF0EF4
:104A8000B11CD50190E080E0450140E28617970710
:104A90000CF08CC0F90150815C9301962F5F3F4F61
:104AA00011968830910591F7CF54DF4F1982188203
:104AB000C15BD0406AE5CE018F549F4F0E9494188D
:104AC00081E090E0CF54DF4F99838883C15BD04071
:104AD00065EACE018F549F4F0E94941882E090E0C7
:104AE000CF54DF4F99838883C15BD04062E0CE0111
:104AF0008F549F4F0E94941803E010E0D7016D91EE
:104B00007D01CF54DF4F19830883C15BD040CE01B4
:104B10008F549F4F0E9494180F5F1F4F0B30110549
:104B200069F7F50161915F01CF54DF4F1983088365
:104B3000C15BD040CE018F549F4F0E9494180F5FED
:104B40001F4F0331110569F7B401C6010E94FE0031
:104B5000CF54DF4F19830883C15BD040682FCE014B
:104B60008F549F4F0E9494188AE496E00E94670A2F
:104B700082E191E00E94670A81ED93E00E94670A5A
:104B80008BE191E00E94590A109269076BE475E08D
:104B9000CB010E94C90B68EE73E080E090E00E94B8
:104BA000120389E596E04FCB408356CF4C9375CFE7
:104BB00086E696E0C8CD8CE595E0C5CD8091C80726
:104BC0009091C907A091CA07B091CB07A3019201A8
:104BD000281B390B4A0B5B0BDA01C9010A97A105A7
:104BE000B10510F40C94D51C4092C8075092C90727
:104BF0006092CA077092CB0766EC77E087EC97E08B
:104C00000E9489098091C7079091C507891306C042
:104C10002091C6079091C4072917D1F14091C00790
:104C20005091C1076091C2077091C307930182013F
:104C3000041B150B260B370B40913C0150E070E034
:104C400060E0041715072607370710F14092C007E8
:104C50005092C1076092C2077092C3078093C50744
:104C60009091C6079093C4072091BF07821304C098
:104C70008091BE07981751F00E947D0B8091C70765
:104C80008093BF078091C6078093BE070E946E0A7B
:104C90008091C707823029F481E09091C607913155
:104CA00009F080E02091D0073091D1072130310503
:104CB00009F089C0882309F488C08091AF07811169
:104CC00017C082E090E09093D1078093D0070E94B4
:104CD00044036093AB077093AC078093AD07909348
:104CE000AE0786E295E00E94590A81E08093AF0703
:104CF0000E9407060E9455052091BC073091BD0710
:104D00008091BA079091BB072817390759F4209171
:104D1000B8073091B9078091B6079091B707281767
:104D2000390711F00E946E0A0E9444032B013C01D6
:104D30008091B507811199C08091B407811148C055
:104D400069E272E080E391E00E940C28892B11F067
:104D50000C94D51C69E272E084E291E00E940C2878
:104D6000892B11F00C94D51C86E0EFECF1E0A0E368
:104D7000B1E001900D928A95E1F71092360186E03C
:104D8000E8ECF1E0A4E2B1E001900D928A95E1F740
:104D900010922A0160E371E090E080E00E940B0B2A
:104DA00064E271E081E090E00E940B0B4092B0075A
:104DB0005092B1076092B2077092B30781E080937E
:104DC000B4070C94D51C811193CF1092AF0790CFEC
:104DD0008091B0079091B107A091B207B091B3074D
:104DE000481A590A6A0A7B0A30E1431637E2530629
:104DF0006104710410F40C94D51C6FEC71E080E335
:104E000091E00E940C28892B11F00C94D51C68ECC1
:104E100071E084E291E00E940C28892B11F00C943F
:104E2000D51C86E0E9E2F2E0A0E3B1E001900D924A
:104E30008A95E1F71092360186E0E9E2F2E0A4E219
:104E4000B1E001900D928A95E1F710922A0160E39A
:104E500071E090E080E00E940B0B64E271E081E081
:104E600090E00E940B0B0C94D51C1092B4070C948C
:104E7000D51C855E9E4FDC011C920E94340783EC9A
:104E800093E00E94670A82E191E00E94670A81ED47
:104E900093E00E94670A8BE191E00C947A1A1092D9
:104EA0001B01EBCFF80101900020E9F79F01215091
:104EB000310979014CCB009711F40C94AF1E8C0D85
:104EC0009D1DDC011C92F60101900020E9F731974D
:104ED0007601CE16DF0609F4C7C88291803209F048
:104EE000C3C81082F6CF009751F795C8F999FECF45
:104EF00092BD81BDF89A992780B50895262FF9991A
:104F0000FECF1FBA92BD81BD20BD0FB6F894FA9AAC
:104F1000F99A0FBE0196089597FB072E16F4009498
:104F200007D077FD09D00E94C82707FC05D03EF4C2
:104F3000909581959F4F0895709561957F4F089545
:104F4000A1E21A2EAA1BBB1BFD010DC0AA1FBB1F8D
:104F5000EE1FFF1FA217B307E407F50720F0A21BFF
:104F6000B30BE40BF50B661F771F881F991F1A946C
:104F700069F760957095809590959B01AC01BD0196
:104F8000CF010895EE0FFF1F0590F491E02D0994D5
:104F9000AA1BBB1B51E107C0AA1FBB1FA617B7075F
:104FA00010F0A61BB70B881F991F5A95A9F780957B
:104FB0009095BC01CD01089585FD0C942E2A806248
:104FC00091110C942E2A81568A51D8F70895911187
:104FD000089581568A5108F48052855808956817BB
:104FE000790768F4FB01DC01E40FF51FA40FB51F7E
:104FF00002C002900E9241505040D8F708950C9490
:105000003C2AFC018191861721F08823D9F7992742
:1050100008953197CF010895FB01DC018D91019036
:1050200080190110D9F3990B0895FB01DC0141505F
:10503000504048F001900D920020C9F701C01D9228
:1050400041505040E0F70895AEE0B0E0EAE2F8E207
:105050000C94EC2A0D891E898F89988D26E02C836B
:105060001A83098397FF02C080E090E801979E832E
:105070008D83AE01455E5F4F698D7A8DCE010196BD
:105080000E9454284D815E8157FD0AC02F813885CA
:10509000421753070CF49A01020F131FF8011082F4
:1050A0002E96E4E00C94082BABE0B0E0EAE5F8E2E1
:1050B0000C94DE2A7C013B018A01FC0117821682D6
:1050C000838181FFC8C1CE0101965C01F701938104
:1050D000F30193FD859193FF81913F01882309F4AA
:1050E00053C1853239F493FD859193FF81913F013E
:1050F000853229F4B70190E00E94502AE7CF912C25
:10510000212C312CFFE1F31538F08B3211F190F4A2
:10511000803209F1833229F137FC3CC020ED280FA1
:105120002A3050F536FE20C08AE0989E200D1124CA
:10513000922E06C08D3291F0803371F7689430F86A
:10514000F30193FD859193FF81913F018111DACFA6
:1051500021C0689431F8689432F8F2CF689433F83B
:10516000EFCF689434F8ECCFEAE02E9E200D1124A6
:10517000222E689435F8E4CF8E3229F436FC04C12F
:10518000689436F8DDCF8C3619F4689437F8D8CFA8
:105190008836B1F2982F9F7D95549330E0F0833696
:1051A000A1F18337C1F1833509F063C02801F2E032
:1051B0004F0E511CF801C080D180692D70E036FC83
:1051C00002C06FEF7FEFC6010E94312A4C01689444
:1051D00037F882010AC00C5F1F4FFFE3F983882470
:1051E0008394912C6501E89437F833FE2DC0522C3E
:1051F0008114910471F5552009F468CFB70180E25C
:1052000090E00E94502A5A94F6CFF8018081898359
:105210000E5F1F4FE4CF2801F2E04F0E511CF80142
:10522000C080D180692D70E036FC02C06FEF7FEF47
:10523000C6010E94452A4C018201D5CFB70180E208
:1052400090E00E94502A2A942814190409F0B0F71B
:10525000CECFF60137FC859137FE81916F01B70102
:1052600090E00E94502A51105A94F1E08F1A910850
:10527000BFCF843619F0893609F077C0F80137FEC0
:105280006BC060817181828193810C5F1F4FF32D10
:10529000FF763F2E97FF09C0909580957095619598
:1052A0007F4F8F4F9F4F689437F82AE030E0A50179
:1052B0000E94802AC82ECA188C2C432C36FE0CC0A3
:1052C000E89440F8C91440F434FE05C032FC03C031
:1052D000F32DFE7E4F2E892C44FE95C0FE01EC0D71
:1052E000F11D8081803309F087C0242D297E422E54
:1052F000842D8870582E43FC95C040FE8FC09C2C96
:10530000821418F42C0C922C981844FE91C0B7010A
:1053100080E390E00E94502A42FE09C088E790E0B6
:1053200041FE02C088E590E0B7010E94502AC914EE
:1053300008F48AC0CA94D12C9FEFC91AD90ACA0CA2
:10534000DB1CF60182916F01B70190E00E94502AA8
:10535000AC14BD04B1F74FCF60817181072E000CF2
:10536000880B990B0E5F1F4F92CFD32CE894D4F883
:105370002AE030E0853739F1232D297FD22E8F3670
:1053800001F148F48835A9F0F701868197812B96C1
:10539000E2E10C94FA2A803749F08837A9F7D4FE65
:1053A00002C06894D2F820E130E00DC06894D4F8CF
:1053B000F6CF34FE03C0822F8660D82E20E132E083
:1053C00002C028E030E0F801D7FE0FC06081718193
:1053D000828193810C5F1F4FA5010E94802AC82EF5
:1053E000CA183D2CE89437F867CF6081718190E04E
:1053F00080E00E5F1F4FF0CF42FC02C0839478CF55
:105400008394839475CF842D867809F471CFF6CF79
:10541000B70180E290E00E94502A83948214C0F386
:10542000512C73CF522C5818821408F46ECFF8CF39
:10543000842D867809F47BCF8BE241FE80E247FC25
:105440008DE2B70190E071CFB70180E390E00E9458
:10545000502A9A946CCF8FEF9FEF99CF9927882786
:105460000895FC010590615070400110D8F78095B7
:1054700090958E0F9F1F0895FB01DC0102C00190E3
:105480000D9241505040D8F70895FC016150704092
:1054900001900110D8F7809590958E0F9F1F089569
:1054A0000F931F93CF93DF93182F092FEB018B815D
:1054B00081FD09C01FEF0FEF812F902FDF91CF915A
:1054C0001F910F91089582FF14C02E813F818C811E
:1054D0009D81281739073CF4E881F981CF010196B5
:1054E0009983888310838E819F8101969F838E8309
:1054F000E3CFE885F985812F0995892BA1F3DACFD0
:10550000FA01AA27283051F1203181F1E8946F93F4
:105510006E7F6E5F7F4F8F4F9F4FAF4FB1E03ED09A
:10552000B4E03CD0670F781F891F9A1FA11D680F38
:10553000791F8A1F911DA11D6A0F711D811D911D6B
:10554000A11D20D009F468943F912AE0269F1124E0
:105550003019305D3193DEF6CF010895462F477044
:10556000405D4193B3E00FD0C9F7F6CF462F4F709F
:10557000405D4A3318F0495D31FD4052419302D0FD
:10558000A9F7EACFB4E0A6959795879577956795A3
:10559000BA95C9F700976105710508959B01AC01A3
:1055A0000A2E06945795479537952795BA95C9F7CA
:1055B000620F731F841F951FA01D08952F923F92A5
:1055C0004F925F926F927F928F929F92AF92BF9213
:1055D000CF92DF92EF92FF920F931F93CF93DF93BF
:1055E000CDB7DEB7CA1BDB0B0FB6F894DEBF0FBE1C
:1055F000CDBF09942A88398848885F846E847D8469
:105600008C849B84AA84B984C884DF80EE80FD806A
:105610000C811B81AA81B981CE0FD11D0FB6F894E0
:0E562000DEBF0FBECDBFED010895F894FFCFA1
:10562E0001FFFFFFFF00E10000000000000FB004CB
:10563E00B004442D4133323000000050434220313B
:10564E002E3000002020202020200000000000002E
:10565E002020202020200000000000000C0A000066
:10566E0000000000000000000000000100007E307D
:10567E006D79335B5F707F7B000000000000007768
:10568E001F4E3D4F475E37303C000E15157E6700AE
:10569E00055B0F3E0000373B770602067E060207CB
:1056AE00850600028C060003940601069B06000088
:1056BE00A2060000A2060000A9060000B006020025
:1056CE00B7060201BE060202C5060203CC060000A2
:1056DE00D3060204DB06020500C180810000003003
:1056EE0038313500312E33006F6E4C696E45006EC9
:1056FE006F2046532000000000009A041504B204E7
:10570E00B004F804B604D4040D0A00494E313A0030
:10571E00494E323A005254313A005254323A00490C
:10572E0044454E543A00524D502C2076312E3320A3
:10573E004D4151003B53544154453A52554E4E49FA
:10574E004E473B005245473A0020202020202000A3
:10575E004F46464C494E453A4D4553534147455F9A
:10576E0052454143544956415445443B00494E43EA
:10577E0020202000644543202020006E24456E75B5
:10578E0020006449414720200074455374202000B6
:10579E00312E204C45442000322E206275746E004E
:1057AE00332E20496E666F00746F2052554E2000C6
:1057BE00342E204578697400625574746F6E0050F3
:1057CE007245535320005072455345640072454C48
:1057DE0053456400726F7431202000726F74322052
:1057EE00200072454720202000536849467420004F
:1057FE00625574746F6E2000536849467420200001
:10580E006241434B202000414C4C20202000525539
:10581E004E2020200074457374202000644953509C
:10582E006C790077414C4B2020004C4544202020C1
:10583E0000534547202020006E4553532020006220
:10584E00726967687400444941473A46554C4C5F4B
:10585E0053544152543B004C456420202000627248
:10586E0049476874004C4544313A3030303030305E
:10587E0030303B4C4544323A3030303030303030BE
:10588E003B4C4544333A30303B00747269474774A1
:10589E00007245534574004346473A454550524FB2
:1058AE004D3A4D414749435F4D495353494E473B4E
:1058BE00004346473A454550524F4D3A564552538E
:1058CE00494F4E5F4D49534D415443483A0043466C
:1058DE00473A454550524F4D3A4352435F46414930
:1058EE004C3B004346473A4C4F41443A5245473DA4
:1058FE00003B5043423D0053455455503A526F744D
:10590E0061727920706F6C6C696E67206D6F646563
:10591E002C20436F6E6669673D306200202852541A
:10592E00313D002C205254323D00293B005345544A
:10593E0055503A4465626F756E63653D006D732C0C
:10594E00204C45443D006D732C204453503D006D5A
:10595E00732C205245473D002020696E6974002D3E
:10596E002D30302D2D002D2D30312D2D002D2D30A3
:10597E00322D2D002D2D30332D2D002D2D30342D8B
:10598E002D002D2D30352D2D002D2D30362D2D00A9
:10599E002D2D30372D2D002D2D30382D2D002D2D68
:1059AE0030392D2D002D2D31302D2D005374417297
:1059BE007420003637383941620030313233343595
:1059CE0000444941473A494E313D003B494E323D34
:1059DE000050415373202000444941473A434F4DF4
:1059EE00504C4554453B005645520056455253497E
:1059FE004F4E004944454E540046524D20257300EB
:105A0E0050436220257300455849540050434200CC
:105A1E005043423A00760052455345540052455386
:105A2E0045543A4F4B203B005245510044494147A3
:105A3E0000444941473A4D454E555F5354415254E7
:105A4E003B0025733B00444941473A53544152545D
:105A5E003B00534554200053455420455849543A71
:105A6E004F4B203B0057524954450053415545205A
:105A7E000057524954453A4F4B203B005752495418
:105A8E00453A4C4F434B4544203B004C4544310076
:105A9E004C454432004C45443300444953505F4218
:105AAE004C0044535031002530336400445350327F
:105ABE000053544154450030310043464700524F85
:105ACE005400444542004C45440044535000454E5A
