:100000000C945A010C948B010C948B010C948B0171
:100010000C948B010C948B010C948B010C948B0130
:100020000C948B010C948B010C948B010C948B0120
:100030000C948B010C948B010C948B010C948B0110
:100040000C948B010C948B010C948B010C948B0100
:100050000C948B010C948B010C948B010C94491A19
:100060000C948B010C94BD1A0C94931A0C948B0174
:100070000C948B010C948B010C948B010C948B01D0
:100080000C948B010C948B010C948B010C948B01C0
:100090000C948B010C948B010C948B010C948B01B0
:1000A0000C948B010C948B010C948B010C948B01A0
:1000B0000C948B010C948B010C948B010C948B0190
:1000C0000C948B010C948B010C948B010C948B0180
:1000D0000C948B010C948B010C948B010C948B0170
:1000E0000C948B010C9455030C94D5010C94F401E1
:1000F0000C9414040C947B040C94D9010C947D038F
:100100000C9459040C944B030C94EE010C940403CE
:100110000C94FC010C9414020C9410020C946D04C9
:100120000C941E030C94641B0C9428030C94EA0199
:100130000C94DD010C94F0020C9432030C940E0329
:100140000C94FA020C94E1010C94CF010C94160368
:100150000C94E3020C944A040C9400050C945F0385
:100160000C940F020C94B3040C9473030C940A02C5
:100170000C9406020C9402020C94E4010C943C03CF
:100180000C94F8010C9435240C94EB020C94690344
:1001900000002100240027002A002D003000330039
:1001A00001010000040107010A01000022002500EE
:1001B00028002B002E003100340002010000050150
:1001C00008010B01000020002300260029002C005C
:1001D0002F0032000001000003010601090105059E
:1001E0000505070508080808020202020A0A0808AD
:1001F00004040404010101010101010103030303DB
:1002000003030303040707070C0C0C0C0C0C0C0C69
:100210000202020206060606060606060B0B0B0B7A
:100220000B0B0B0B0102102020080810204010209F
:1002300040800201020108040201010204081020AA
:1002400040808040201008040201800402018040A8
:100250002010080402010804020101020408102011
:100260004080010204081020408000000A0B0209AF
:100270000C0D0E0807030401000000000000000040
:10028000000000000000000000000000000000006E
:10029000000000000000121110000000000000002B
:1002A000000000000000000000000000000000004E
:1002B000641B352411241FBECFEFD1E2DEBFCDBFBA
:1002C00000E00CBF18E0A0E0B2E0E4E0F7E500E0F9
:1002D0000BBF02C007900D92AA33B107D9F729E0EE
:1002E000AAE3B8E001C01D92A43BB207E1F711E018
:1002F000C9E5D1E000E006C021970109802FFE0189
:100300000E94BE25C835D10780E00807A9F70E94E2
:100310002F1C0C94702B0C940000CF93DF93FC01E6
:10032000389623E030E0EC01A991CE012A0F311D6F
:10033000EC17FD07C1F7FB01CB0108966191260F71
:10034000311D8E179F07D1F7FA01CA010996419115
:10035000240F311D8E179F07D1F7822FDF91CF9188
:1003600008958150823108F05AC0E82FF0E08827C4
:10037000E354FE4F8F4F0C94BE25DD01E101CF0108
:10038000D501D9010F02E401EA01EE01F401F801FF
:10039000FC01020206020F020A02100214028091FE
:1003A00080008F77809380000895809180008F7DFA
:1003B000F9CF80918000877FF5CF84B58F7784BD9A
:1003C000089584B58F7DFBCF8091B0008F778093A7
:1003D000B00008958091B0008F7DF9CF809190009A
:1003E0008F77809390000895809190008F7DF9CF52
:1003F00080919000877FF5CF8091A0008F778093C8
:10040000A00008958091A0008F7DF9CF8091A00079
:10041000877FF5CF809120018F7780932001089509
:10042000809120018F7DF9CF80912001877FF5CFCA
:10043000CF93DF93282F30E0F901E659FD4F8491E7
:10044000F901EC5DFD4FD491F901E252FE4FC491E8
:10045000CC23A1F081110E94B101EC2FF0E0EE0F4E
:10046000FF1FEC53FE4FA591B491EC91ED2381E079
:1004700090E009F480E0DF91CF91089580E090E072
:10048000FACF1F93CF93DF93282F30E0F901E6597D
:10049000FD4F8491F901EC5DFD4FD491F901E252D9
:1004A000FE4FC491CC23A9F0162F81110E94B101F7
:1004B000EC2FF0E0EE0FFF1FE655FE4FA591B49133
:1004C0008FB7F894EC91111108C0D095DE23DC931E
:1004D0008FBFDF91CF911F910895DE2BF8CFCF937F
:1004E000DF9390E0FC01EC5DFD4F249182529E4F22
:1004F000FC0184918823C9F090E0880F991FFC01CA
:10050000E057FE4FA591B491FC01E655FE4FC59111
:10051000D49161110DC09FB7F8948C9120958223DE
:100520008C938881282328839FBFDF91CF910895E2
:10053000623051F49FB7F8943C91822F80958323C9
:100540008C93E8812E2BEFCF8FB7F894EC912E2B64
:100550002C938FBFEACF1F93CF93DF93182FEB011C
:1005600061E00E946F02209739F460E0812FDF91F3
:10057000CF911F910C944102CF3FD10511F461E05E
:10058000F5CFE12FF0E0E659FD4FE491E150E23183
:1005900008F0B3C0F0E08827EF52FD4F8F4F0C9466
:1005A000BE25E302EB02F002FA0204037D030E0310
:1005B00016031E03280332033C034B0355037D033C
:1005C0005F036903730384B5806884BDC7BDDF9191
:1005D000CF911F91089584B5806284BDC8BDF7CFC7
:1005E00080918000806880938000D0938900C093C0
:1005F0008800EDCF80918000806280938000D0934E
:100600008B00C0938A00E3CF809180008860809344
:100610008000D0938D00C0938C00D9CF8091B00022
:1006200080688093B000C093B300D1CF8091B000B8
:1006300080628093B000C093B400C9CF80919000D5
:10064000806880939000D0939900C0939800BFCFAA
:1006500080919000806280939000D0939B00C09323
:100660009A00B5CF80919000886080939000D093DD
:100670009D00C0939C00ABCF8091A00080688093C8
:10068000A0008091A0008F7B8093A000D093A90050
:10069000C093A8009CCF8091A00080628093A000AE
:1006A000D093AB00C093AA0092CF8091A000886045
:1006B0008093A000D093AD00C093AC0088CF809110
:1006C0002001806880932001D0932901C0932801E4
:1006D0007ECF80912001806280932001D0932B01F6
:1006E000C0932A0174CF80912001886080932001FB
:1006F000D0932D01C0932C016ACFC038D1050CF0E6
:100700003ECF33CF863308F0865320917B00982F5D
:100710009870277F922B90937B00877080648093E2
:100720007C0080917A00806480937A0080917A00C6
:1007300086FDFCCF809178009091790008953FB7B5
:10074000F8948091950890919608A0919708B0919F
:10075000980826B5A89B05C02F3F19F00196A11D4A
:10076000B11D3FBFBA2FA92F982F8827BC01CD01FB
:10077000620F711D811D911D42E0660F771F881F5A
:10078000991F4A95D1F708958F929F92AF92BF9289
:10079000CF92DF92EF92FF924B015C010E949F0388
:1007A0006B017C010E949F036C197D098E099F09D2
:1007B000683E734081059105A8F321E0821A9108F3
:1007C000A108B10888EEC80E83E0D81EE11CF11C18
:1007D00081149104A104B10429F7FF90EF90DF90F8
:1007E000CF90BF90AF909F908F9008952FB7F894BF
:1007F000609191087091920880919308909194086B
:100800002FBF0895FC01248135816217730748F4D6
:1008100080819181009729F0860F971FFC018081CC
:10082000089580E008950895AF92BF92CF92DF922D
:10083000EF92FF920F931F93CF93DF936C017B0195
:100840008B01040F151FEB015E01AE18BF08C01726
:10085000D10759F06991D601ED91FC910190F08199
:10086000E02DC6011995892B79F7C501DF91CF914C
:100870001F910F91FF90EF90DF90CF90BF90AF90BE
:100880000895FC01448155816081718183EA98E07B
:100890000C941404FC01538D448D252F30E0842FDB
:1008A00090E0821B930B541710F0CF960895019798
:1008B0000895FC01918D828D981761F0A28DAE0F85
:1008C000BF2FB11D5D968C91928D9F5F9F73928F0C
:1008D00090E008958FEF9FEF0895FC01918D828D38
:1008E000981731F0828DE80FF11D858D90E0089505
:1008F0008FEF9FEF0895FC01918D228D892F90E05D
:10090000805C9F4F821B91098F739927089583EA1A
:1009100098E00E947B0421E0892B09F420E0822FDB
:100920000895FC01A48DA80FB92FB11DA35ABF4F84
:100930002C91848D90E001968F739927848FA689DE
:10094000B7892C93A089B1898C91837080648C9332
:10095000938D848D981306C00288F389E02D8081E1
:100960008F7D80830895EF92FF920F931F93CF9313
:10097000DF93EC0181E0888F9B8D8C8D98131AC0DA
:10098000E889F989808185FF15C09FB7F894EE89C1
:10099000FF896083E889F98980818370806480831E
:1009A0009FBF81E090E0DF91CF911F910F91FF9069
:1009B000EF900895F62E0B8D10E00F5F1F4F0F7311
:1009C0001127E02E8C8D8E110CC00FB607FCFACFCC
:1009D000E889F989808185FFF5CFCE010E949104D5
:1009E000F1CFEB8DEC0FFD2FF11DE35AFF4FF0829D
:1009F0009FB7F8940B8FEA89FB8980818062CFCF03
:100A0000CF93DF93EC01888D8823B9F0AA89BB8945
:100A1000E889F9898C9185FD03C0808186FD0DC030
:100A20000FB607FCF7CF8C9185FFF2CF808185FF51
:100A3000EDCFCE010E949104E9CFDF91CF910895CF
:100A400080E090E0892B29F00E94870481110E94A8
:100A5000000080E090E0892B49F080E090E0892B55
:100A600029F00E94000081110E94000080E090E0C7
:100A7000892B49F080E090E0892B29F00E9400004A
:100A800081110E94000080E090E0892B49F080E015
:100A900090E0892B29F00E94000081110C94000045
:100AA0000895CF92DF92EF92FF920F931F93CF930F
:100AB0007C01FC01C480D58010E000E0C0E00C1592
:100AC0001D05A1F0B801C7010E94020490ED980F26
:100AD000923048F42C2F30E0220F331FC1E08133D5
:100AE00009F0C0E0C22B0F5F1F4FE9CF8C2FCF91D1
:100AF0001F910F91FF90EF90DF90CF9008950F938B
:100B00001F93CF93DF93082F162FD42FC8E06D2F9C
:100B1000661F6627661F802F0E944102DD0F61E07D
:100B2000812F0E94410260E0812F0E944102C1504A
:100B300071F7DF91CF911F910F9108950F931F933C
:100B4000CF93DF931F921F92CDB7DEB769834A839D
:100B5000880F991F0091AE091091AF09000F111F66
:100B6000E8E5F9E09F01285539402017310714F4D2
:100B70001192F8CF2981FC01E85AF64F21838A812E
:100B8000808360E08091AC090E944102101611063A
:100B90006CF401501109F801E85AF64F4081609158
:100BA000AA098091A8090E947F05F0CF61E0809199
:100BB000AC090F900F90DF91CF911F910F910C9482
:100BC0004102EF92FF920F931F93CF937C018C0110
:100BD00083E0000F111F8A95E1F70859164FC1E015
:100BE000F80111928F0140E06C2FC7010E949E0511
:100BF000CF5FC930A9F7CF911F910F91FF90EF9070
:100C000008952091AE093091AF09821793078CF4B3
:100C10006830710571F0FC0123E0EE0FFF1F2A958B
:100C2000E1F7E85AF64FE60FF71F408B6F5F0C9421
:100C30009E0508951F93CF93DF93182F1195D0E051
:100C4000C0E0412FBE0190E080E00E9401062196A5
:100C5000C630D105B1F7D0E0C0E0412FBE0181E040
:100C600090E00E9401062196C830D105B1F7DF91CE
:100C7000CF911F9108952091AE093091AF0982174D
:100C800093073CF46031710524F4462F6AE00C941C
:100C90009E0508958F929F92AF92BF92CF92DF925E
:100CA000EF92FF920F931F93CF93DF93A09056087C
:100CB000B090570860E082E00E9441024B2D63E053
:100CC00084E00E947F054A2D63E084E00E947F0556
:100CD00061E082E00E944102C0905208D090530827
:100CE000E0905408F090550860E083E30E944102D0
:100CF000A7016627772764E385E30E947F057727AE
:100D00006F2D5E2D4D2D64E385E30E947F054C2DF4
:100D100064E385E30E947F0561E083E30E94410272
:100D200003E812E0D0E0C0E090905108F801808123
:100D30000E5F1F4F692D70E00C2E02C075956795F0
:100D40000A94E2F761700E9441022196C830D105F1
:100D500059F703E712E0D0E0C0E080905008F801B6
:100D600080810E5F1F4F682D70E00C2E02C07595BC
:100D700067950A94E2F761700E9441022196C8309B
:100D8000D10559F703E612E0D0E0C0E0F801808118
:100D90000E5F1F4F60914A0870E00C2E02C07595DF
:100DA00067950A94E2F761700E9441022196C8306B
:100DB000D10561F710914F08612F70E08BE00E9420
:100DC000AB02D0914E086D2F70E08AE00E94AB021A
:100DD000C0914D086C2F70E089E00E94AB02A09298
:100DE0004708B0924808C0924308D0924408E09265
:100DF0004508F0924608909242088092410810936C
:100E00004008D0933F08C0933E08DF91CF911F91D7
:100E10000F91FF90EF90DF90CF90BF90AF909F9099
:100E20008F9008951F93CF93DF93C7E0D0E010E039
:100E300061E082E40E94410283E40E9418020C2EC9
:100E400001C0880F0A94EAF7182B60E082E40E9440
:100E50004102219768F7812FDF91CF911F9108956B
:100E6000FC0101900020E9F73197AF01481B590BB5
:100E7000BC0183EA98E00C9414048DEE92E00C948B
:100E80003007CF93DF930E944104EC010E943D079D
:100E90008C0F9D1FDF91CF9108958F929F92AF92FB
:100EA000BF920F931F93CF93DF93CDB7DEB7A19778
:100EB0000FB6F894DEBF0FBECDBF19A2423008F4C2
:100EC0004AE08E010F5D1F4F842E912CB12CA12C76
:100ED000A50194010E947925E62FB901CA01EA30E3
:100EE000F4F4E05DD801EE938D01232B242B252B08
:100EF00079F790E080E0109719F0CD010E9430075B
:100F0000A1960FB6F894DEBF0FBECDBFDF91CF9193
:100F10001F910F91BF90AF909F908F900895E95CC3
:100F2000E1CFCF92DF92EF92FF92CF93DF936C01EC
:100F3000990FEE08FF08F7FE19C06DE283EA98E00A
:100F40000E94B304EC0166277727CB016C197D0959
:100F50008E099F094AE00E944D078C0F9D1FDF916B
:100F6000CF91FF90EF90DF90CF9008954AE0C701B6
:100F7000B601DF91CF91FF90EF90DF90CF900C946E
:100F80004D07CF93DF93D0E0C0E0009719F00E94A7
:100F90003007EC010E943D078C0F9D1FDF91CF9120
:100FA000089581E080938F080E94F60360935808AB
:100FB0007093590880935A0890935B0880EF92E0F1
:100FC0000C94C107009711F00C94300790E080E07A
:100FD00008958BEF92E00E94E20782E093E00E9486
:100FE000E20780919908882361F080E193E00E94F4
:100FF000E20789E592E00E94E20789E998E00E9411
:10100000E20786E193E00E94E20784ED94E00E940B
:10101000E20780911302909114020E94910785E2E9
:1010200097E00E94E2070C943D07CF92DF92EF9287
:10103000FF920F931F93CF93DF93CDB7DEB76197E6
:101040000FB6F894DEBF0FBECDBF86E30E948203C9
:101050008C0187E30E9482037C010E949F03980118
:101060002E0D3F1D8901330F220B330B600F711FB3
:10107000821F931F611571058105910511F00E9472
:10108000E02481E1E6E2F3E0DE01119601900D92A9
:101090008A95E1F709E918E080E1C82ED12CE12C0E
:1010A000F12C0E949124A70196010E94472521E07E
:1010B00030E02C0F3D1F620F731FFB018081F80190
:1010C00081938F01F8E0013A1F0759F71092A108A8
:1010D00061960FB6F894DEBF0FBECDBFDF91CF9102
:1010E0001F910F91FF90EF90DF90CF900895AF92F6
:1010F000BF92CF92DF92EF92FF920F931F93CF9305
:10110000DF93DC01CD90DC901197C114D10439F04C
:101110001496CD91DC918C017601209761F4DF91DA
:10112000CF911F910F91FF90EF90DF90CF90BF90E4
:10113000AF90089575015701BFEFAB1ABB0AF701D5
:101140008081082E000C990B0E942525892B91F790
:101150002197CC0DDD1D8881082E000C990B0E9473
:101160002525892B29F0CE15DF0510F02197F3CF27
:10117000AE014F5F5F4F4E195F09D80115965C9322
:101180004E931497CE14DF0420F4B701C6010E94D9
:101190000228D801ED91FC91119714968D919C91A4
:1011A000E80FF91F1082BBCFCF93DF93FC01C08102
:1011B000D181209761F08991882349F0082E000C95
:1011C000990B0E94FA27FE0131978083F4CFDF91BB
:1011D000CF9108953F924F925F926F927F928F923C
:1011E0009F92AF92BF92CF92DF92EF92FF920F93B6
:1011F0001F93CF93DF937C01EB015A01322E28011C
:1012000080E390E00E94FA278052FE0195012C0FA6
:101210003D1FA82FB0E0A15EBD4F90E08A3308F4D7
:101220009C9191932E173F07C1F7F701C480D58099
:1012300010E000E0912C812C0C151D0561F0B80127
:10124000C7010E9402048E3219F0FFEF8F1A9F0A25
:101250000F5F1F4FF1CF6501C818D908D7FE02C034
:10126000D12CC12C460110E000E0F70164807580AC
:101270000615170518F48A149B049CF010E000E092
:101280000615170509F441C0B801C7010E94020400
:10129000082E000C990BC0970A9780F10F5F1F4F23
:1012A000EFCFB801C7010E9402048E3279F43110E9
:1012B0000AC0C814D9043CF4F4013197EC0FFD1FA7
:1012C0008081806880830F5F1F4FCFCF3E01680C05
:1012D000791C082E000C990B0E94FA2780528A3341
:1012E00058F4E82FF0E0E15EFD4F8081F301808348
:1012F000FFEF8F1A9F0AE7CF80E0F8CF332029F065
:10130000C40DD51D888180688883DF91CF911F919E
:101310000F91FF90EF90DF90CF90BF90AF909F9094
:101320008F907F906F905F904F903F900895EF92D5
:10133000FF920F931F93CF93DF93CDB7DEB72E9716
:101340000FB6F894DEBF0FBECDBF10E000E020E086
:1013500046E050E0BE016F5F7F4F8CE499E00E9451
:10136000EA088E010F5F1F4F25E0E22EF12CF801F5
:1013700041918F01B70190E080E00E940106F1E009
:10138000EF1AF108A0F702E010E021E044E050E09D
:10139000BE01695F7F4F82E599E00E94EA088E01F5
:1013A000095F1F4F93E0E92EF12CF80141918F0165
:1013B000B70181E090E00E940106F1E0EF1AF10828
:1013C000A0F702E010E021E044E050E0BE01655FDC
:1013D0007F4F86E499E00E94EA088E01055F1F4F67
:1013E00087E0E82EF12CF80141918F01B70181E0EF
:1013F00090E00E940106F1E0EF1AF10883E0E816A0
:10140000F10489F72E960FB6F894DEBF0FBECDBF5C
:10141000DF91CF911F910F91FF90EF900895CF939F
:10142000DF93FC01248135814217530788F4C08182
:10143000D181062E000C770BCE01840F951F0E94E0
:101440000B28009729F08C1B9D0BDF91CF910895FD
:101450008FEF9FEFFACF50E040E00C940F0AEF922D
:10146000FF920F931F93CF93DF938617970769F12E
:10147000FC0124813581FB01448155812417350706
:10148000E1F4232B11F1FC0100811181FB01C081EA
:10149000D181F80181918F018823B9F0082E000CC9
:1014A000990B0E94F2277C018991082E000C990B60
:1014B0000E94F227E816F90661F380E0DF91CF91F0
:1014C0001F910F91FF90EF90089581E0F7CFFC01FD
:1014D00024813581232B39F421E0FB01808188238D
:1014E00049F020E007C0808191810E94162821E008
:1014F000892BB9F7822F08950F931F93CF93DF9312
:101500008C01EB01FC01808191810097E1F0688101
:10151000798161157105A9F0428153812C813D814A
:101520004217530770F00E941F288C819D81F8019B
:10153000958384831D821C82DF91CF911F910F912F
:1015400008950E947D2688819981F8019183808386
:101550008A819B81938382838C819D8195838483FF
:10156000198218821B821A82E5CFCF93DF93EC0198
:1015700088819981009711F00E947D261982188236
:101580001D821C821B821A82DF91CF910895FC017B
:1015900080819181009711F00C947D2608950F931E
:1015A0001F93CF93DF93EC0188819981009759F0C5
:1015B0002A813B812617370730F081E0DF91CF91F8
:1015C0001F910F9108958B016F5F7F4F0E94062737
:1015D000009759F0998388831B830A832C813D816E
:1015E000232B59F7FC011082E8CF80E0E7CFEF9280
:1015F000FF920F931F93CF93DF931F921F92CDB74C
:10160000DEB78C0169831A82FC01E480F580FFEF6C
:10161000EF1AFF0AB7010E94CF0A882381F0F80170
:101620002081318184819581BE016F5F7F4F820F60
:10163000931F0E941F28F801F582E48281E00F9039
:101640000F90DF91CF911F910F91FF90EF90089530
:10165000EF92FF920F931F93CF93DF93EC017B01E7
:101660008A01BA010E94CF0A81110BC0CE010E94EB
:10167000B50ACE01DF91CF911F910F91FF90EF90AE
:1016800008951D830C83B701888199810E941F28CA
:10169000F0CFFB0101900020E9F73197AF01461B25
:1016A000570B0C94280B10928F0810925708109229
:1016B0005608109252081092530810925408109233
:1016C000550810924F0810924E0810924D080E9433
:1016D0004A0667E373E082E599E00E94490B6CE3F8
:1016E00073E08CE499E00E94490B63E473E086E4C4
:1016F00099E00E94490B0E94970988E493E00E94B8
:10170000C10781E080934C080895CF93DF93EC01EB
:10171000FB018617970749F060817181611571059A
:1017200041F0448155810E94280BCE01DF91CF9179
:1017300008950E94B50AF9CFFC011182108213822C
:101740001282158214820C94850BFC011182108286
:101750001382128215821482FB0101900020E9F7A6
:101760003197AF01461B570B0C94280BAF92BF92D9
:10177000CF92DF92EF92FF920F931F93CF93DF935D
:101780006C015B017A0189012417350720F48F2D44
:101790007901042F182F6FEE72E0C6010E94A50B8D
:1017A000D5011496CD91DC91EC16FD06E0F40C17F2
:1017B0001D0708F4E801D501ED91FC911197EC0F9C
:1017C000FD1F108110826D917C916E0D7F1DC601F1
:1017D00061157105A1F00E94490BF501808191818D
:1017E000C80FD91F1883C601DF91CF911F910F91A8
:1017F000FF90EF90DF90CF90BF90AF9008950E9440
:10180000B50AEBCFCF93DF93EC01FB012481358147
:101810000E94B60BCE01DF91CF910895EF92FF9217
:101820000F931F93CF93DF938C01E62E6FEE72E040
:101830000E94A50BC7E0D0E0F12CC7010C2E02C01E
:10184000959587950A94E2F760E380FD61E3C8010E
:101850000E94F70A219788F7C801DF91CF911F9165
:101860000F91FF90EF9008958F929F92AF92BF9249
:10187000CF92DF92EF92FF920F931F93CF93DF935C
:1018800000D000D0CDB7DEB70E94F6034B015C015B
:1018900080914C08811115C080913A0890913B08C5
:1018A000A0913C08B0913D08A5019401281B390B7B
:1018B0004A0B5B0BDA01C9010A97A105B10508F4CF
:1018C0008AC08CE794E00E94E20760918508CE010F
:1018D00001960E940E0CCE0101960E944104CE0199
:1018E00001960E94C70A85E297E00E94E20782E81B
:1018F00094E00E94E20760918408CE0101960E9464
:101900000E0CCE0101960E944104CE0101960E9468
:10191000C70A85E297E00E94E20790E8E92E98E086
:10192000F92E03E010E088E894E00E94E207C80185
:101930000E9491078AE793E00E94E207F701619114
:101940007F01CE0101960E940E0CCE0101960E94ED
:101950004104CE0101960E94C70A85E297E00E94E9
:10196000E2070F5F1F4F07301105E9F680917008FD
:10197000882329F183E9E82E82E0F82E10E000E0C8
:10198000F7018081F2E0EF0EF11C0E9482036C01EE
:101990008AE197E00E94E207C8010E9491078AE766
:1019A00093E00E94E207C6010E94910785E297E05A
:1019B0000E94E2070F5F1F4F0630110509F70E94D2
:1019C0003D0780923A0890923B08A0923C08B09262
:1019D0003D0810924C0826960FB6F894DEBF0FBE55
:1019E000CDBFDF91CF911F910F91FF90EF90DF90CE
:1019F000CF90BF90AF909F908F9008950C94312519
:101A0000FF920F931F93CF93DF93EC01F62E088183
:101A10001981C8010E943125F81621F06F2DC801E7
:101A20000E943925CE01DF91CF911F910F91FF9038
:101A300008954F925F926F927F928F929F92AF9292
:101A4000BF92CF92DF92EF92FF920F931F93CF93AB
:101A5000DF93CDB7DEB76B970FB6F894DEBF0FBE3E
:101A6000CDBF29E032E0F90101900020E9F79F01A4
:101A70002A5032405E01FAE0AF0EB11CF50190E051
:101A800080E0450140E28217930724F4DC01A75F60
:101A9000BD4F4C91419301968830910599F720E014
:101AA00032E0F90101900020E9F79F012150324016
:101AB0006E01F2E1CF0ED11CF60190E080E036011C
:101AC00040E28217930724F4DC01A050BE4F4C91F2
:101AD000419301968830910599F729E938E0F90199
:101AE00001900020E9F79F012A593840CE01019664
:101AF0007C01FC0190E080E0270140E2821793071F
:101B000024F4DC01A756B74F4C91419301968830DD
:101B1000910599F719861B8E1A8E6AE5CE014A96B1
:101B20000E94000D81E090E09B8F8A8F65EACE01D4
:101B30004A960E94000D82E090E09B8F8A8F63E0BE
:101B4000CE014A960E94000D03E010E0F50161917C
:101B50005F011B8F0A8FCE014A960E94000D0F5F16
:101B60001F4F0B30110591F7F60161916F011B8F2B
:101B70000A8FCE014A960E94000D0F5F1F4F03315E
:101B8000110591F7F70161917F011B8F0A8FCE013B
:101B90004A960E94000D0F5F1F4F0C31110591F7FF
:101BA000A201B301C4010E948D011B8F0A8F682F0F
:101BB000CE014A960E94000D6B960FB6F894DEBFD8
:101BC0000FBECDBFDF91CF911F910F91FF90EF908E
:101BD000DF90CF90BF90AF909F908F907F906F904D
:101BE0005F904F9008952F923F924F925F926F9225
:101BF0007F928F929F92AF92BF92CF92DF92EF929D
:101C0000FF920F931F93CF93DF93CDB7DEB7E39788
:101C10000FB6F894DEBF0FBECDBF9FA78EA7312CA5
:101C2000212C8E010F5F1F4FA1016BE38EA59FA595
:101C30000E940F0A7C0197FF02C00C94301A9C018D
:101C4000A1016EA57FA5CE014C960E94B60B17018F
:101C50002FEF221A320ACE014C960E94770888A1F3
:101C600099A1892B09F440C06AE3CE014C960E94E9
:101C70002B0A7C0197FF7AC062E573E0CE010A96D9
:101C80000E94A50BBE01665F7F4FCE014C960E945D
:101C90002F0AFF24F394811112C066E573E0C80196
:101CA0000E94A50BB801CE014C960E942F0AFF247A
:101CB000F394811101C0F12CC8010E94C70ACE0122
:101CC0000A960E94C70AFF20A1F00E94E90731E0AE
:101CD00030938E080E94F60360938A0870938B08F5
:101CE00080938C0890938D08CE014C960E94C70A71
:101CF0009BCF6EE573E0C8010E94A50BB801CE0131
:101D00004C960E942F0AF82EC8010E94C70AFF2095
:101D100021F041E040934C08E7CF62E576E0C8014E
:101D20000E94A50BB801CE014C960E942F0AF82EF6
:101D3000C8010E94C70AFF20B9F282E693E00E9420
:101D4000C10783EA98E00E94000562E370E080E04A
:101D500090E00E94C40388E198E00FB6F894A8953B
:101D6000809360000FBE90936000FFCF9C0150E015
:101D700040E0BE01645E7F4FCE0182960E94B60BAA
:101D8000A7014F5F5F4FBE01645E7F4FCE01889613
:101D90000E94020CCE0182960E947708CE0188969E
:101DA0000E9477086DE673E0C8010E94A50BB80198
:101DB000CE0182960E942F0AF82EC8010E94C70AFF
:101DC000FF20E9F0CE0188960E94510580935108CA
:101DD0000E944A0680914B08882309F457C182E784
:101DE00093E00E94E20760915108C8010E940E0C26
:101DF000C8010E944107C8010E94C70A47C16CE799
:101E000073E0C8010E94A50BB801CE0182960E9422
:101E10002F0AF82EC8010E94C70AFF20A1F0CE01A8
:101E200088960E945105809350080E944A0680912E
:101E30004B08882309F42AC181E893E00E94E20755
:101E400060915008D2CF6BE873E0C8010E94A50BE7
:101E5000B801CE0182960E942F0AF82EC8010E9476
:101E6000C70AFF20A1F0CE0188960E9451058093F9
:101E70004A080E944A0680914B08882309F406C14B
:101E800080E993E00E94E20760914A08AECF6AE9D8
:101E900073E0C8010E94A50BB801CE0182960E9492
:101EA0002F0AF82EC8010E94C70AFF20C9F0CE01F0
:101EB00088960E945105F82E809156089F2D909388
:101EC0005708809356080E944A0680914B08882341
:101ED00009F4DCC08FE993E00E94E2076F2D85CF03
:101EE00069EA73E0C8010E94A50BB801CE01829691
:101EF0000E942F0AF82EC8010E94C70AFF2089F00D
:101F0000CE0188960E945105F82E809356080E94B3
:101F10004A0680914B08882309F4B8C08EEA93E002
:101F2000DBCF68EB73E0C8010E94A50BB801CE01BE
:101F300082960E942F0AF82EC8010E94C70AFF202D
:101F400011F1CE0188960E945105F82E8091520819
:101F500090915308A0915408B0915508AA27BB2727
:101F6000AF298093520890935308A0935408B093DC
:101F700055080E944A0680914B08882309F486C0C0
:101F80008DEB93E0A9CF67EC73E0C8010E94A50B2D
:101F9000B801CE0182960E942F0AF82EC8010E9435
:101FA000C70AFF2011F1CE0188960E945105F82E34
:101FB0008091520890915308A0915408B09155080F
:101FC0009927BB279F298093520890935308A09389
:101FD0005408B09355080E944A0680914B08882304
:101FE00009F454C08CEC93E077CF66ED73E0C80140
:101FF0000E94A50BB801CE0182960E942F0AF82EEE
:10200000C8010E94C70AFF2009F1CE0188960E94EC
:102010005105F82E8091520890915308A0915408D0
:10202000B09155088827BB278F2980935208909339
:102030005308A0935408B09355080E944A06809113
:102040004B08882319F18BED93E046CF6DEE73E0DA
:10205000C8010E94A50BB801CE0182960E942F0AEA
:10206000F82EC8010E94C70AFF20E9F0CE01889629
:102070000E94F31A97FD13C06F3F7105810591050A
:1020800009F07CF460934E080E944A06CE018896BF
:102090000E94C70ACE0182960E94C70A25CE60E040
:1020A000F1CF6FEFEFCF65EE73E0C8010E94A50B93
:1020B000B801CE0182960E942F0AF82EC8010E9414
:1020C000C70AFF2099F0CE0188960E94F31A97FD67
:1020D00009C06F3F71058105910509F02CF46093EB
:1020E0004F08D2CF60E0FBCF6FEFF9CF68EE73E01F
:1020F000C8010E94A50BB801CE0182960E942F0A4A
:10210000F82EC8010E94C70AFF20F1F0CE01889680
:102110000E94F31A97FD14C0603171058105910585
:102120008CF460931202E62EF12CB70190E080E06F
:102130000E943B06B70181E090E00E943B06A6CFDB
:1021400060E0EFCF6FE0EDCF60EF73E0C8010E9479
:10215000A50BB801CE0182960E942F0AF82EC80165
:102160000E94C70ABE01685D7F4F82E599E0F110C9
:1021700015C064EF73E0C8010E94A50BB801CE0141
:1021800082960E942F0AF82EC8010E94C70AFF20DB
:1021900051F0BE01685D7F4F8CE499E00E94850B91
:1021A0000E94970973CF61EF75E0C8010E94A50BEB
:1021B000B801CE0182960E942F0AF82EC8010E9413
:1021C000C70ABE01685D7F4F86E499E0F110E6CF53
:1021D00068EF73E0C8010E94A50BB801CE0182969A
:1021E0000E942F0AF82EC8010E94C70AFF2001F1A1
:1021F00044E050E0BE01685D7F4FC8010E94341B7F
:10220000B80182E599E00E947C0AC8010E94C70AD1
:102210000E94970980914B08882309F437CF8DEFEE
:1022200093E00E94E20782E599E00E9441072ECFE9
:1022300067E074E0C8010E94A50BB801CE01829648
:102240000E942F0AF82EC8010E94C70AFF20F1F051
:1022500046E050E0BE01685D7F4FC8010E94341B1C
:10226000B8018CE499E00E947C0AC8010E94C70A68
:102270000E94970980914B08882309F407CF8CE0CE
:1022800094E00E94E2078CE499E0CFCF66E174E02D
:10229000C8010E94A50BB801CE0182960E942F0AA8
:1022A000F82EC8010E94C70AFF20F1F044E050E078
:1022B000BE01685D7F4FC8010E94341BB80186E4EF
:1022C00099E00E947C0AC8010E94C70A0E949709EF
:1022D00080914B08882309F4D9CE8BE194E00E94C9
:1022E000E20786E499E0A1CF65E274E0C8010E94AC
:1022F000A50BB801CE0182960E942F0AF82EC801C4
:102300000E94C70AFF2009F4BFC06AE3CE01889685
:102310000E942B0A7C01181619060CF0B7CE9C01FE
:1023200050E040E0BE01685D7F4FCE010A960E94FA
:10233000B60BA7014F5F5F4FBE01685D7F4FC801BD
:102340000E94020C60EF73E0CE0140960E94A50B44
:10235000BE01605F7F4FCE010A960E942F0AF82EC1
:10236000CE0140960E94C70AFF2031F144E050E0C0
:10237000B801CE0140960E94341BBE01605F7F4FC2
:1023800082E599E00E947C0ACE0140960E94C70A2D
:102390000E94970980914B08882341F089E294E0DC
:1023A0000E94E20782E599E00E944107C8010E946D
:1023B000C70ACE010A9620CD64EF73E0CE014096A5
:1023C0000E94A50BBE01605F7F4FCE010A960E945E
:1023D0002F0AF82ECE0140960E94C70AFF20F9F07E
:1023E00046E050E0B801CE0140960E94341BBE0189
:1023F000605F7F4F8CE499E00E947C0ACE0140969A
:102400000E94C70A0E94970980914B08882371F2A5
:1024100086E394E00E94E2078CE499E0C5CF61EF87
:1024200075E0CE0140960E94A50BBE01605F7F4F14
:10243000CE010A960E942F0AF82ECE0140960E94E5
:10244000C70AFF2009F4B2CF44E050E0B801CE0142
:1024500040960E94341BBE01605F7F4F86E499E086
:102460000E947C0ACE0140960E94C70A0E949709EA
:1024700080914B08882309F499CF83E494E00E946B
:10248000E20786E499E090CF6FE474E0C8010E940F
:10249000A50BB801CE0182960E942F0AF82EC80122
:1024A0000E94C70AFF2069F160E773E0CE018896B9
:1024B0000E94670A811122C065EF76E0C8010E9480
:1024C000A50BB801CE0188960E942F0A91E08111D8
:1024D00001C090E081E090934B08882319F0C80177
:1024E0000E94C70A89E594E00E94E20780914B08A8
:1024F000882309F461C485EF96E020C180E091E073
:10250000EACF68E674E0C8010E94A50BB801CE01CD
:1025100082960E942F0AF82EC8010E94C70AFF2047
:1025200009F412C16DE674E0C8010E94A50BB80160
:10253000CE0188960E942F0AF82EC8010E94C70A71
:10254000FF2019F00E94D107A1CD6FE376E0C8010A
:102550000E94A50BB801CE0188960E942F0AF82E82
:10256000C8010E94C70AFF2019F00E94530B8ECDAC
:1025700081E794E00E94E20760918508C8010E940B
:102580000E0CC8010E944104C8010E94C70A81E8DC
:1025900094E00E94E20760918408C8010E940E0C3A
:1025A000C8010E944104C8010E94C70AF0E8CF2E6A
:1025B000F8E0DF2EA3E0EA2EF12C87E894E00E94F9
:1025C000E207C7010E9491078AE793E00E94E207B1
:1025D000F60161916F01C8010E940E0CC8010E94B2
:1025E0004104C8010E94C70AFFEFEF1AFF0A27E063
:1025F000E216F10411F78BE894E00E94E207609183
:1026000047087091480890E080E040E10E944D0743
:1026100085E994E00E94E2076091430870914408C4
:10262000809145089091460840E10E944D078EE94F
:1026300094E00E94E2076091420870E090E080E040
:1026400040E10E944D078AEA94E00E94E20760910F
:10265000410870E090E080E040E10E944D0786EB89
:1026600094E00E94E2076091400870E090E080E012
:102670004AE00E944D078FEB94E00E94E2076091D0
:102680003F0870E090E080E04AE00E944D0788EC4F
:1026900094E00E94E20760913E0870E090E080E0E4
:1026A0004AE00E944D0783ED94E00E94E20780918A
:1026B0001302909114020E9491078FED94E00E9402
:1026C000E2076091120270E090E080E04AE00E9430
:1026D0004D078BEE94E00E94E20780917F088823EB
:1026E00081F185EF96E00E94E20783EF94E00E947B
:1026F000E20760915C0870915D0880915E0890919E
:102700005F084AE00E944D078DEF94E00E94E207C7
:1027100082E599E00E94410483E095E00E94E2078F
:102720008CE499E00E94410489E095E00E94E20770
:1027300086E499E00E94410485E297E00E94C10787
:10274000A5CC8CED95E0CFCF6EE075E0C8010E947E
:10275000A50BB801CE0182960E942F0AF82EC8015F
:102760000E94C70AFF2009F4FAC08CA59DA5892BF9
:1027700019F484E195E0E2CFBE01685D7F4FC801A6
:102780000E949C0BC8010E94D4086DE975E0CE013F
:102790000A960E94A50BBE01665F7F4FC8010E948A
:1027A000191BF82ECE010A960E94C70AFF2009F4D1
:1027B000D1C061EB75E0CE010A960E94A50BBE0167
:1027C000665F7F4FC8010E94FE1A7C01CE010A9607
:1027D0000E94C70A66EB75E0CE010A960E94A50B1F
:1027E000BE01665F7F4FC8010E94FE1A6C01CE01D8
:1027F0000A960E94C70A6BEB75E0CE010A960E940A
:10280000A50BBE01665F7F4FC8010E94FE1A3C0106
:10281000CE010A960E94C70AF7FC1FC0A7014D5FB0
:102820005F4FBE01685D7F4FCE010A960E94020C89
:10283000CE010A960E94F31A4B01CE010A960E941D
:10284000C70A97FC81C03FEF8316910421F01CF06A
:1028500088248A94912C80924F08D7FC1FC0A6012F
:102860004D5F5F4FBE01685D7F4FCE010A960E94AB
:10287000020CCE010A960E94F31A4B01CE010A9671
:102880000E94C70A97FC62C04FEF8416910421F0A2
:102890001CF088248A94912C80924E0877FC1EC0EC
:1028A000A3014B5F5F4FBE01685D7F4FCE010A966B
:1028B0000E94020CCE010A960E94F31A4B01CE012F
:1028C0000A960E94C70A97FC43C050E185169104FE
:1028D0001CF06FE0862E912C809212020E944A0614
:1028E000E0901202F12CB70190E080E00E943B06DC
:1028F000B70181E090E00E943B0684EA95E00E94E7
:10290000E20760914F0870E090E080E04AE00E94AA
:102910004D0785EB95E00E94E20760914E0870E05C
:1029200090E080E04AE00E944D078AEB95E00E942B
:10293000E2076091120270E090E080E04AE00E94BD
:102940004D070E943D0757CA812C85CF812CA4CF0B
:10295000812CC2CF84E195E00E94C1074CCA61EC92
:1029600075E0C8010E94A50BB801CE0182960E94B5
:102970002F0AF82EC8010E94C70AFF2009F44BC095
:1029800060E773E0CE0188960E94670A81113CC01F
:1029900065EF76E0C8010E94A50BB801CE018896CC
:1029A0000E942F0AFF24F394811101C0F12C81E0D1
:1029B000F0927F08882319F0C8010E94C70AFF20FF
:1029C00039F110925C0810925D0810925E08109226
:1029D0005F080E94F603609360087093610880931B
:1029E00062089093630867EC75E082E599E00E94C5
:1029F000490B67EC75E086E499E00E94490B8DEC89
:102A000095E00E94C107CCCB80E0FF24F394D0CFA7
:102A100086ED95E093CE60EE75E0CE010A960E94B9
:102A2000A50BBE01665F7F4FCE0182960E942F0AE2
:102A3000FF24F394811112C06AEE75E0C8010E9470
:102A4000A50BB801CE0182960E942F0AFF24F394B1
:102A5000811101C0F12CC8010E94C70ACE010A965B
:102A60000E94C70AFF2009F4D5C0BE01685D7F4FF0
:102A7000CE010A960E949C0BEA85FB85309749F0AF
:102A80009EE28081882329F08A3309F4908331966D
:102A9000F8CF6EE2CE010A960E942B0A7C0197FDC8
:102AA000B4C04C018FEF881A980AA4016EE2CE01DF
:102AB0000A960E940F0A5C01E114F10409F4A5C012
:102AC000E816F9060CF0A1C0970150E040E0BE0105
:102AD000665F7F4FC8010E94B60BC8010E94F31ABF
:102AE0006B01C8010E94C70A9501A401BE01665F7F
:102AF0007F4FC8010E94B60BC8010E94F31A2B0138
:102B0000C8010E94C70AA5014F5F5F4FBE01665F03
:102B10007F4FC8010E94020CC8010E94F31A4B01AA
:102B2000C8010E94C70A98E1C916D1041CF057E1F8
:102B3000C52ED12CD7FE02C0D12CC12CECE34E16F1
:102B400051041CF04BE3442E512C57FE02C0512C73
:102B5000412CFCE38F1691041CF03BE3832E912C57
:102B600097FE02C0912C812C20E13EE0D6010E940C
:102B7000C62568AB79AB8AAB9BAB2CE330E0D201C6
:102B80000E94C62528A939A94AA95BA9620F731F0B
:102B9000841F951F9401092C000C440B550B620FE8
:102BA000731F841F951F60935C0870935D0880936A
:102BB0005E0890935F089F928F925F924F92DF9290
:102BC000CF9284EF95E09F938F931F930F930E9472
:102BD0009A28B801CE0140960E94A50BBE01605F05
:102BE0007F4F8CE499E00E947C0ACE0140960E94BF
:102BF000C70A0E94970983E096E00E94C1070FB6BA
:102C0000F894DEBF0FBECDBFD4CB80E196E00E942A
:102C1000C107CFCB6EE176E0CE010A960E94A50BEC
:102C2000BE01665F7F4FCE0182960E942F0AFF246D
:102C3000F394811112C068E276E0C8010E94A50BEE
:102C4000B801CE0182960E942F0AFF24F3948111CD
:102C500001C0F12CC8010E94C70ACE010A960E9449
:102C6000C70AFF2031F051E050937D0888E296E0DA
:102C700065CD62E376E0CE010A960E94A50BBE0107
:102C8000665F7F4FCE0182960E942F0AFF24F39445
:102C9000811112C06BE376E0C8010E94A50BB80158
:102CA000CE0182960E942F0AFF24F394811101C065
:102CB000F12CC8010E94C70ACE010A960E94C70AD9
:102CC000FF2029F010927D088BE396E037CD64E475
:102CD00076E0CE010A960E94A50BBE01665F7F4F8B
:102CE000CE0182960E942F0AFF24F394811112C014
:102CF0006EE476E0C8010E94A50BB801CE01829671
:102D00000E942F0AFF24F394811101C0F12CC80105
:102D10000E94C70ACE010A960E94C70AFF20A9F0A6
:102D200010927D08109278081092790810927A0813
:102D300010927B0867EC75E082E599E00E94490BF0
:102D40000E9497098EE496E0F9CC68E576E0C80128
:102D50000E94A50BB801CE0182960E942F0AE82E90
:102D6000C8010E94C70AEE2051F160E773E0CE016E
:102D700088960E94670A91E0811110C065EF76E0A5
:102D8000C8010E94A50BB801CE0188960E942F0AA7
:102D900091E0811101C090E0FF24F39490937008BA
:102DA000FF2019F0C8010E94C70A82E696E00E943F
:102DB000E207809170089CCB8CED95E0BFCC6DE66E
:102DC00076E0C8010E94A50BB801CE0182960E9450
:102DD0002F0AF82EC8010E94C70AFF2029F1CE0150
:102DE00088960E94F31A1616170618061906B4F4E8
:102DF0006536710581059105A4F470931402609302
:102E0000130284ED94E00E94E207809113029091F6
:102E100014020E9491070E943D0738C961E070E0EA
:102E2000ECCF64E670E0E9CF67E776E0C8010E9486
:102E3000A50BB801CE0182960E942F0AF82EC80178
:102E40000E94C70AFF2009F449C060E081E40E94A3
:102E500041028BE490E00197F1F761E081E40E9488
:102E600041028BE490E00197F1F70E941207E82EEF
:102E70000E941207F82E80E896E00E94E2076E2D6D
:102E8000C8010E940E0CC8010E944104C8010E94A2
:102E9000C70A8FE896E00E94E2076F2DC8010E94E2
:102EA0000E0CC8010E944104C8010E94C70A86E9AD
:102EB00096E00E94E2076E2D6095C8010E940E0CFC
:102EC000C8010E944104C8010E94C70A8DE996E02A
:102ED0000E94E2076F2D60950C94F50E64EA76E08F
:102EE000C8010E94A50BB801CE0182960E942F0A4C
:102EF000F82EC8010E94C70AFF2009F448C08CA51B
:102F00009DA5892BE1F0CE0188960E94F31AD62E5A
:102F1000C72E62E08D2D0E946F028D2D0E94180237
:102F20007C018EEA96E00E94E2078D2D9C2D0E9486
:102F300091078BE996E00E94E207C7016ACF89EB0F
:102F400096E00E94E2072FE9E22E22E0F22E82E4D0
:102F500096E00E94E207F701D0809181F2E0EF0E47
:102F6000F11C8D2D0E9491078AE793E00E94E207F1
:102F70008D2D0E9418020E94910785E297E00E9421
:102F8000E2072BED32E02E153F0509F744CF68EC40
:102F900076E0C8010E94A50BB801CE0182960E947E
:102FA0002F0AF82EC8010E94C70AFF2029F182EDDE
:102FB00096E00E94C107F12CE12C4FEFB70190E0A1
:102FC00080E00E9401063FEFE31AF30A46E0E416B0
:102FD000F10499F7F12CE12C4FEFB70181E090E07B
:102FE0000E9401065FEFE51AF50A88E0E816F10491
:102FF00099F788EF96E0A2CB6EE573E0C8010E94D6
:10300000A50BB801CE0182960E942F0AF82EC801A6
:103010000E94C70AFF2021F091E090934C0836C827
:1030200060EF75E0CE010A960E94A50BBE01665FB7
:103030007F4FCE0182960E942F0AFF24F3948111C4
:1030400012C063E177E0C8010E94A50BB801CE0170
:1030500082960E94191BFF24F394811101C0F12C68
:10306000C8010E94C70ACE010A960E94C70AFF2023
:1030700009F40CC86FEE72E0CE0140960E94A50BD9
:1030800060EF75E0C8010E94A50BB801CE018296E1
:103090000E942F0AF82EC8010E94C70AFF2009F4D7
:1030A00044C0BE01685D7F4FCE0140960E94850BF3
:1030B000CE0140960E9477086AE3CE0140960E94B6
:1030C0002B0A7C0197FD48C09C0150E040E0BE0106
:1030D000605F7F4FCE010A960E94B60BA7014F5F3B
:1030E0005F4FBE01605F7F4FC8010E94020CCE019E
:1030F0000A960E94D408C8010E94770868E177E028
:10310000CE010A960E94670A8823B1F16EE572E04B
:10311000C8010E94670A882361F1E1E0E093490851
:103120008CE197E00E94C107C1C060E2CE014C96DD
:103130000E942B0AAC014F5F5F4FBE01645E7F4F60
:10314000C8010E94020CB801CE0140960E947C0A80
:10315000C8010E94C70AACCFBE01605F7F4FCE019D
:103160000A960E949C0B6FEE72E0C8010E94A50BAC
:10317000BECF87E297E0D6CF66E377E0CE010A962E
:103180000E94670A882321F080914908811139C083
:1031900069E377E0CE010A960E94670A811194C024
:1031A00063E777E0CE010A960E94670A8111C2C0E8
:1031B00068E877E0CE010A960E94670A811108C18B
:1031C00066EB77E0CE010A960E94670A882321F019
:1031D00080914908811101C16AEB77E0CE010A961E
:1031E0000E94670A882309F461C0809149088823F6
:1031F00009F426C10E94190D1092490882EE97E049
:1032000091CF6EE2C8010E942B0A7C0118161906A4
:1032100034F48D819E810197E816F90618F08EE34B
:1032200097E080CF970150E040E0B801CE0146968C
:103230000E94B60BCE0146960E94F31A4B01CE01B6
:1032400046960E94C70AA7014F5F5F4FB801CE01A3
:1032500046960E94020CCE0146960E94F31A6B011C
:10326000CE0146960E94C70AC4010197099748F506
:10327000FAE0CF16D10428F5DF92CF929F928F9279
:103280002EE437E03F932F931F9289E08F9380E0E5
:1032900092E09F938F930E945D2888E597E00E94BB
:1032A000C1070FB6F894DEBF0FBECDBFC8010E94A4
:1032B000C70ACE010A960E94C70ACE0140960C9416
:1032C000FC0E84E697E02ECF80914908882309F40C
:1032D00067CFCD80DE80C6010397069740F56DE28B
:1032E000C8010E942B0A019711F570E060E0C80147
:1032F0000E940204082E000C990B0E94EA27892BD9
:10330000B1F092E0E92EF12CEC14FD0409F49BC01D
:10331000B701C8010E940204082E000C990B0E94FC
:10332000EA27892B21F03FEFE31AF30AEDCF86E776
:1033300097E0F8CED0904908DD2009F439CF8D818F
:103340009E81089709F03FC0F12CE12CB701C8011C
:103350000E94020490ED980F9A30C0F18F7D815445
:1033600091E0863008F090E04FEFE41AF40A58E05C
:10337000E516F10431F5992331F1C8010E94D40812
:1033800089E9C82E88E0D82EF12CE12CB701C801BC
:103390000E940204F60181936F01FFEFEF1AFF0A0A
:1033A00028E0E216F10491F71092A1088DE897E069
:1033B0000E94E20789E592E00E94E20789E998E02D
:1033C000B1CE9111C3CF88E997E0ACCE9D2DCCCF83
:1033D0001092490888EA97E0A5CE60EC77E0CE012C
:1033E00046960E94A50BBE016A5E7F4FC8010E94EF
:1033F0002F0AF82ECE0146960E94C70AFF20E9F058
:103400000E94190D1092490884EC97E00E94C107B0
:1034100083EA98E00E94000562E370E080E090E0BB
:103420000E94C40388E198E00FB6F894A8958093B1
:1034300060000FBE90936000FFCF81ED97E072CEE9
:103440008DEE97E06FCE69817A8148E050E089E0A7
:1034500092E00E943428109211028CEF97E062CE25
:10346000E3960FB6F894DEBF0FBECDBFDF91CF91CC
:103470001F910F91FF90EF90DF90CF90BF90AF9092
:103480009F908F907F906F905F904F903F902F9084
:1034900008951F920F920FB60F9211242F933F930E
:1034A0008F939F93AF93BF938091910890919208CF
:1034B000A0919308B09194083091900823E0230FD5
:1034C0002D3758F50196A11DB11D209390088093CA
:1034D000910890939208A0939308B09394088091D8
:1034E000950890919608A0919708B0919808019638
:1034F000A11DB11D8093950890939608A0939708FD
:10350000B0939808BF91AF919F918F913F912F9168
:103510000F900FBE0F901F90189526E8230F02966C
:10352000A11DB11DD2CF1F920F920FB60F92112481
:103530000BB60F922F933F934F935F936F937F93AD
:103540008F939F93AF93BF93EF93FF9383EA98E09A
:103550000E949104FF91EF91BF91AF919F918F9144
:103560007F916F915F914F913F912F910F900BBE83
:103570000F900FBE0F901F9018951F920F920FB6CD
:103580000F9211240BB60F922F938F939F93EF936B
:10359000FF93E091B308F091B4088081E091B908FD
:1035A000F091BA0882FD1DC090818091BC088F5FA8
:1035B0008F732091BD08821741F0E091BC08F0E0C4
:1035C000ED55F74F958F8093BC08FF91EF919F9138
:1035D0008F912F910F900BBE0F900FBE0F901F90E9
:1035E00018958081F2CFFC0180819181009711F0C4
:1035F0000C94E92460E070E0CB010895CF93DF9351
:10360000DC0114962D913C911597232B79F0FB0149
:10361000CD91DC9160817181CE010E944328009799
:1036200029F08C1B9D0BDF91CF9108958FEF9FEFB9
:10363000FACFFB0144815581FC0124813581241797
:10364000350778F080819181009759F0FB01608106
:1036500071816115710529F00E94262821E0892BCE
:1036600009F020E0822F0895CF92DF92EF92FF922F
:103670000F931F93CF93DF938C017B016A016FEE51
:1036800072E00E94A50BD0E0C0E0F7018481958133
:10369000C817D90778F4BE01C7010E9402048E3210
:1036A00049F0CC15DD0531F0682FC8010E94F70AFA
:1036B0002196EBCFC801DF91CF911F910F91FF9021
:1036C000EF90DF90CF900895CF93DF931092A608EC
:1036D0001092A50888EE93E0A0E0B0E08093A708E0
:1036E0009093A808A093A908B093AA088FED92E040
:1036F0009093A4088093A30885EC90E09093B00881
:103700008093AF0884EC90E09093B2088093B10866
:1037100080EC90E09093B4088093B30881EC90E043
:103720009093B6088093B50882EC90E09093B80827
:103730008093B70886EC90E09093BA088093B9081C
:103740001092BC081092BD081092BE081092BF08DB
:10375000CEE3D0E0D093A909C093A8098FE390E00D
:103760009093AB098093AA0980E490E09093AD090F
:103770008093AC0982E090E09093AF098093AE090A
:1037800061E08EE30E946F0261E08091AA090E94CD
:103790006F0261E08091AC090E946F0261E080914C
:1037A000AC090E944102D093A909C093A809E8E698
:1037B000F9E0119289E0E83AF807D9F7D0E0C0E0E3
:1037C0008091AE099091AF09C817D90774F540E010
:1037D0006FE0CE010E949E058091AE099091AF09E5
:1037E000C817D9072CF447E06BE0CE010E949E0574
:1037F00040E069E0CE010E949E058091AE09909163
:10380000AF09C817D9071CF4CE010E94E1058091C9
:10381000AE099091AF09C817D9072CF440E06CE0CD
:10382000CE010E949E052196CBCF67E373E082E52F
:1038300099E00E94A50B6CE373E08CE499E00E9490
:10384000A50B63E473E086E499E00E94A50B6FEE9C
:1038500072E080E499E0DF91CF910C94A50BCF93B7
:10386000DF93CDB7DEB7A9970FB6F894DEBF0FBED2
:10387000CDBF789484B5826084BD84B5816084BDF9
:1038800085B5826085BD85B5816085BD80916E00FE
:10389000816080936E00109281008091810082602F
:1038A000809381008091810081608093810080916C
:1038B00080008160809380008091B100846080935B
:1038C000B1008091B00081608093B0008091910040
:1038D000826080939100809191008160809391003B
:1038E000809190008160809390008091A10082601F
:1038F0008093A1008091A10081608093A1008091BC
:10390000A00081608093A00080912101826080935B
:10391000210180912101816080932101809120010A
:1039200081608093200180917A00846080937A0086
:1039300080917A00826080937A0080917A00816021
:1039400080937A0080917A00806880937A00109248
:10395000C1000FB6F894A8958091600088618093AB
:103960006000109260000FBEE091B308F091B408BF
:1039700082E08083E091AF08F091B0081082E0917E
:10398000B108F091B20880E180831092BB08E09109
:10399000B708F091B80886E08083E091B508F0910F
:1039A000B608808180618083E091B508F091B60807
:1039B000808188608083E091B508F091B6088081AD
:1039C00080688083E091B508F091B60880818F7D92
:1039D000808390E080E00E94FE0C182F81E090E050
:1039E0000E94FE0C982F812F8A35954A09F48DC1CB
:1039F0000E9415080E94190D6AE070E080E090E0D6
:103A00000E94C40361E08EE30E946F0261E08FE3D5
:103A10000E946F0261E080E40E946F0261E082E038
:103A20000E946F0261E083E00E946F0261E084E027
:103A30000E946F0261E083E30E946F0261E084E311
:103A40000E946F0261E085E30E946F0203E812E0CA
:103A5000A3E9EA2EA2E0FA2EF80180810E5F1F4F43
:103A600061E00E946F02E016F106B1F703E712E091
:103A7000F3E8EF2EF2E0FF2ED8018C910E5F1F4F7E
:103A800061E00E946F02E016F106B1F703E612E072
:103A9000F80180810E5F1F4F61E00E946F02F2E02B
:103AA00003371F07A9F761E08BE00E946F0261E016
:103AB0008AE00E946F0261E089E00E946F0260E08C
:103AC00083E40E946F0261E082E40E946F0261E081
:103AD00081E40E946F020FE912E0D8018C910E5F21
:103AE0001F4F62E00E946F02B2E00B3D1B07A9F777
:103AF000EFE9EE2EE2E0FE2E03E912E0F80180810C
:103B00000E5F1F4F60E00E946F02E016F106B1F7F2
:103B100064E6E62E68E0F62E73E9272E72E0372E73
:103B2000D1018C91B2E02B0E311C0E948203F7016F
:103B3000819391937F010215130591F78091AE094E
:103B40009091AF091816190634F441E06CE090E04A
:103B500080E00E949E056AE070E080E090E00E94B4
:103B6000C4038091AE099091AF091816190634F478
:103B700045E06BE090E080E00E949E05009112021B
:103B800010E0B80190E080E00E943B068091AE0911
:103B90009091AF091816190624F490E080E00E9475
:103BA000E105F12CE12C40E0B70190E080E00E94BB
:103BB0000106FFEFEF1AFF0A26E0E216F10499F77B
:103BC0008091AE099091AF09029734F041E06CE02A
:103BD00081E090E00E949E056AE070E080E090E065
:103BE0000E94C4038091AE099091AF09029734F00E
:103BF00047E06BE081E090E00E949E05B80181E023
:103C000090E00E943B068091AE099091AF09029727
:103C100024F081E090E00E94E10510E000E040E047
:103C2000B80181E090E00E9401060F5F1F4F08304D
:103C30001105A9F7109257081092560810925208D1
:103C400010925308109254081092550810924F0881
:103C500010924E0810924D080E944A0667E373E0E6
:103C600082E599E00E94490B6CE373E08CE499E0F3
:103C70000E94490B63E473E086E499E00E94490BDB
:103C80000E9497090E94E9078E010C5E1F4FAE014A
:103C90004F5F5F4F7A015CE3452E512C612C712CF4
:103CA0000E94F6034B015C0180918F08882309F480
:103CB000ADC20E94F6038090580890905908A090D9
:103CC0005A08B0905B08DC01CB0188199909AA0950
:103CD000BB09803D57E09507A105B10508F0A7C0D5
:103CE00068E674E082E599E00E94490B6AE078E0BA
:103CF0008CE499E00E94490B68E674E086E499E060
:103D00000E94490B0E9497092BC182E090E00E941B
:103D1000FE0C782E6E0134E1C30ED11C7E014BE007
:103D2000E40EF11C5701460103E010E0C8010E94B7
:103D3000FE0CD4018D934D01C80108960E94FE0C23
:103D4000F50181935F010F5F1F4F0B30110571F774
:103D50001C8E1B8AF3E07F124BCE8E010F5F1F4F2C
:103D60004801B3E1AB2EB12CC5010E94FE0CD40179
:103D70008D934D01BFEFAB1ABB0AECE1AE16B10457
:103D800099F71A868CE190E00E94FE0CB82EA801EB
:103D9000B701C6010E948D01B8122ACEA601485F64
:103DA0005F4F90E080E0D6012D916D01322F3F7D75
:103DB00029F0FC01E75FFD4F208301964C155D055E
:103DC00091F7875F9D4FFC011082A701485F5F4F0D
:103DD00090E080E0D7012D917D01322F3F7D29F0C9
:103DE000FC01E050FE4F208301964E155F0591F7D0
:103DF00080509E4FFC011082A801485F5F4F90E009
:103E000080E0D8012D918D01322F3F7D29F0FC01FA
:103E1000E756F74F208301964017510791F7FC01B1
:103E2000E756F74F1082892B09F0E6CDE1CD8034BB
:103E3000EFE19E07A105B10508F095C0BC01CD01D9
:103E4000605D7740810991092CE231E040E050E06B
:103E50000E947925CA01B9012AE030E040E050E033
:103E60000E9479254B016FEE72E0C8010E94A50BFC
:103E7000D12CC12C99A288A2C601880D991D6AE097
:103E800070E00E94AA2560E3680FC8010E94F70A4B
:103E9000FFEFCF1ADF0A26E0C216D10469F76FEEF2
:103EA00072E0CE010B960E94A50BD12CC12CA8A0CC
:103EB000B9A036E0A30EB11C4AE0842E912CC501B6
:103EC0008C0D9D1DB4010E94AA2560E3680FCE01F0
:103ED0000B960E94F70A4FEFC41AD40A54E0C51695
:103EE000D10469F76FEE72E0C7010E94A50BD12CD7
:103EF000C12CA8A0B9A082E0A80EB11C3AE0832E84
:103F0000912CC5018C0D9D1DB4010E94AA2560E372
:103F1000680FC7010E94F70A9FEFC91AD90AA4E0E7
:103F2000CA16D10471F7B8018CE499E00E94850BA0
:103F3000BE01655F7F4F82E599E00E94850BB70166
:103F400086E499E00E94850B0E949709C7010E94B0
:103F5000C70ACE010B960E94C70AC8010E94C70A71
:103F60000E9420059DCE8031E7E29E07A105B105A4
:103F700020F481E00E941A06F3CF803EFEE29F0704
:103F8000A105B10598F5BC01CD01605177428109C9
:103F9000910924E630E040E050E00E947925277046
:103FA0003327BB24B39401C0BB0C2A95EAF7D12C6C
:103FB000C12C4B2DB60190E080E00E9401062FEF4E
:103FC000C21AD20A36E0C316D10499F7D12CC12CFB
:103FD0004B2DB60181E090E00E9401064FEFC41A1C
:103FE000D40A58E0C516D10499F7BACF883DE9E55F
:103FF0009E07A105B10508F003C1BC01CD01605EBB
:104000007E428109910928E730E040E050E00E94BB
:104010007925CA01B90128E330E040E050E00E9470
:1040200079256B0110925708109256081092520889
:10403000109253081092540810925508109251088B
:1040400010925008683071050CF06EC027E030E027
:10405000261B370B81E001C0880F2A95EAF7809371
:1040600051080E944A0648E0C416D1040CF098C0DA
:10407000D090510881E01F928F9381E198E09F9347
:104080008F931F9285E08F931F930F930E945D285B
:104090001F92DF9287E198E09F938F931F9283E0B6
:1040A0008F936E019DE1C90ED11CDF92CF920E94C9
:1040B0005D28DF92CF928CE198E09F938F931F92BF
:1040C00087E08F93FF92EF920E945D28B801CE01A6
:1040D0000B960E94A50BBE01655F7F4F82E599E0BC
:1040E0000E947C0ACE010B960E94C70AB701CE013E
:1040F0000B960E94A50BBE01655F7F4F8CE499E093
:104100000E947C0ACE010B960E94C70A63E278E007
:1041100086E499E00E94490B0E9497090FB6F89433
:10412000DEBF0FBECDBF1CCF6031710564F42FE040
:1041300030E0261B370B81E001C0880F2A95EAF793
:10414000809350088ECF6032710584F42FE130E007
:10415000261B370B81E090E002C0880F991F2A953B
:10416000E2F790935708809356087BCF605271090D
:1041700027E130E0261B370B81E090E0A0E0B0E0C3
:1041800004C0880F991FAA1FBB1F2A95D2F78093DE
:10419000520890935308A0935408B093550861CFE8
:1041A00050E1C516D10424F4D090500882E063CFCA
:1041B00080E2C816D1044CF480915608D09057087C
:1041C000D1101AC0D82E84E056CF80915208909119
:1041D0005308A0915408B0915508DA2E492F5A2F50
:1041E0006B2F7727A1110AC0D82E87E0442309F44A
:1041F00042CFD42E86E03FCF83E03DCF85E03BCF5A
:1042000080E00E941A060E94530BAACE83EA98E02F
:104210000E947B04892B09F4B0C083EA98E00E94D5
:1042200059048D3011F08A3009F48BE3682F80E453
:1042300099E00E94F70A6BE380E499E00E942B0A60
:104240006C0197FDE3CF9C0150E040E060E479E031
:10425000C8010E94B60BC8010E947708A6014F5FF3
:104260005F4F60E479E0C7010E94020CB70180E46F
:1042700099E00E947C0AC7010E94C70A888D998D27
:10428000892BF9F0B801CE010B960E949C0BCE0150
:104290000B960E94D40862E573E0CE010B960E9453
:1042A000670A811108C066E573E0CE010B960E9493
:1042B000670A882351F00E94E907CE010B960E94FD
:1042C000C70AC8010E94C70AB6CF6EE573E0CE01E7
:1042D0000B960E94670A882319F00E94340CEDCFD8
:1042E00062E576E0CE010B960E94670A8823C9F04A
:1042F00082E693E00E94C10783EA98E00E940005ED
:1043000062E370E080E090E00E94C40388E198E0FE
:104310000FB6F894A895809360000FBE909360004C
:10432000FFCF6AE3C8010E942B0A97FDC6CFB801F0
:10433000C7010E949C0BCD80DE80BFEFCB1ADB0A49
:10434000B601C7010E94CF0A882399F029813A81DA
:104350008D819E8165E277E0820F931F0E941F2866
:10436000DE82CD82C7010E94F30DC7010E94C70AF9
:10437000A4CFC7010E94B50AF5CF80918E0888238B
:10438000B1F00E94F60320918A0830918B08409189
:104390008C0850918D08621B730B840B950B683C45
:1043A00071058105910508F4DBCD10928E0880918E
:1043B000860890918708A0918808B0918908A50186
:1043C0009401281B390B4A0B5B0BDA01C9010A97D0
:1043D000A105B10508F4C4CD8092860890928708A3
:1043E000A0928808B092890860E081E40E944102AE
:1043F000EBE4CE2ED12CC6010197F1F761E081E408
:104400000E944102C6010197F1F70E941207B82EDF
:104410000E941207B094B09285088095809384081A
:1044200060E081E40E944102C6010197F1F761E07A
:1044300081E40E944102C6010197F1F7F0E1CF2E1D
:10444000D12CAFE0AA2EB12C60E082E40E944102A0
:10445000C5010197F1F761E082E40E944102C501C4
:104460000197F1F731E0C31AD10871F740E858E03D
:104470005DA34CA36FE9862E62E0962E59A748A74C
:104480007EE1C72ED12CDFA2CEA299E0C916D104BD
:1044900024F0A8E0B0E0BFA3AEA39BA28AA2B12CF7
:1044A000A12C18A2EAA1FBA180813296FBA3EAA36A
:1044B0000E941802892B51F481E090E00A2C01C07F
:1044C000880F0A94EAF7F8A1F82BF8A32FEFA21AA5
:1044D000B20A4EA15FA1A416B50624F3A8A5B9A5FA
:1044E000E8A1ED93B9A7A8A7F8E0CF1AD10820E179
:1044F000820E911C3EEFC3163FEFD30621F680914A
:104500008508CC24C394982F987083FFC12CDD2498
:10451000D394482F4071B42E84FFD12C80917F0812
:104520008823A1F19923B1F080917E08811112C0F6
:1045300080917D0891E0892780937D0881E394E054
:104540000E94E20780917D08811189C18FE396E086
:104550000E94C107BB20D1F080917C08811116C058
:1045600010927D08109278081092790810927A08BB
:1045700010927B0867EC75E082E599E00E94490B98
:104580000E9497098EE496E00E94C107C0927E08BF
:10459000D0927C08809185088871883109F062C1C9
:1045A0008091830884FF5EC180917708811105C0E6
:1045B0000E94D10781E080937708909185088091CF
:1045C0007608BB24B394981307C090918408809117
:1045D0007508981301C0B12CE1E7F8E084E898E091
:1045E000B11010C0ACA1BDA13D91BDA3ACA3219160
:1045F000BB24B394321301C0B12C2CA13DA182176E
:10460000930771F780917008882321F124E6822EA8
:1046100028E0922E33E9C32E32E0D32ED6018C91BE
:10462000B2E0CB0ED11C0E948203F40121913191A2
:104630004F01821B930B97FF03C0919581959109C0
:104640002091130230911402821793072CF42C143A
:104650003D0421F7BB2081F1809185088093760885
:1046600080918408809375088091800880937108F8
:1046700080918108809372088091820880937308EA
:10468000809183088093740884E6A82E88E0B82E71
:1046900093E9C92E92E0D92ED6018C91B2E0CB0ECF
:1046A000D11C0E948203F501819391935F01C21492
:1046B000D30491F70E94340C80917F08882309F479
:1046C0004FCC0E94F6038090600890906108A09003
:1046D0006208B09063089B01AC01281939094A09A6
:1046E0005B0949015A0138EE831633E09306A104B1
:1046F000B10408F435CC609360087093610880932E
:1047000062089093630880905C0890905D08A09088
:104710005E08B0905F084FEF841A940AA40AB40AA6
:1047200080925C0890925D08A0925E08B0925F084B
:10473000C501B401A30192010E9479259F938F9333
:104740007F936F93CA01B901A30192010E94792559
:104750009F938F937F936F93C501B40120E13EE057
:1047600040E050E00E947925CA01B90128E130E01B
:1047700040E050E00E9479259F938F937F936F9341
:1047800088E298E09F938F93FF92EF920E949A287D
:10479000B701CE010B960E94A50BBE01655F7F4F4E
:1047A0008CE499E00E947C0ACE010B960E94C70A15
:1047B0000FB6F894DEBF0FBECDBF80917D08882371
:1047C00009F4A0CA609178087091790880917A08FC
:1047D00090917B08A30192010E9479259F938F936A
:1047E0007F936F93CA01B90124E630E040E050E0C6
:1047F0000E9479259F938F937F936F938EE298E029
:104800009F938F931F930F930E949A28B801CE0114
:104810000B960E94A50BBE01655F7F4F82E599E074
:104820000E947C0ACE010B960E94C70A80917808EC
:1048300090917908A0917A08B0917B080196A11D0A
:10484000B11D8093780890937908A0937A08B0936B
:104850007B080FB6F894DEBF0FBECDBF53CA85EFFD
:1048600092E076CE10927708A8CE80E499E00E947C
:10487000C70A86E499E00E94C70A8CE499E00E9486
:10488000C70A82E599E00C94C70A8F929F92AF9273
:10489000BF92CF92DF92EF92FF92CF93DF93EC0122
:1048A000688179818A819B816115710581059105F6
:1048B00021F464E279ED8BE597E02DE133EF41E0FF
:1048C00050E00E94472549015A019B01AC01A7EA2B
:1048D000B1E40E9466256B017C01ACEEB4EFA5014A
:1048E00094010E947425C60ED71EE81EF91EF7FE1D
:1048F00006C081E0C81AD108E10880E8F80AC88239
:10490000D982EA82FB82C701B6019F77DF91CF91FE
:10491000FF90EF90DF90CF90BF90AF909F908F90DF
:1049200008958F929F92AF92BF92CF92DF92EF92B3
:10493000FF9260911502709116028091170290917A
:104940001802611571058105910521F464E279ED84
:104950008BE597E02DE133EF41E050E00E944725E1
:1049600049015A019B01AC01A7EAB1E40E94662506
:104970006B017C01ACEEB4EFA50194010E9474259B
:10498000C60ED71EE81EF91EF7FE06C081E0C81A43
:10499000D108E10880E8F80AC0921502D092160208
:1049A000E0921702F0921802C701B6019F77FF90BC
:1049B000EF90DF90CF90BF90AF909F908F90089531
:1049C0006093150270931602809317029093180259
:1049D00008951F93FC0199278827BC01E894119141
:1049E0001032E9F3193010F01E30C8F31B3251F0C9
:1049F0001D3249F4689406C00E941025610F711D94
:104A0000811D911D119110531A30B0F33EF4909511
:104A10008095709561957F4F8F4F9F4F1F9108959F
:104A2000592F482F372F262F660F771F881F991F62
:104A3000660F771F881F991F620F731F841F951FB2
:104A4000660F771F881F991F089591110C942E25CA
:104A5000803219F089508550C8F708959927882722
:104A60000895F999FECF92BD81BDF89A992780B536
:104A70000895262FF999FECF1FBA92BD81BD20BDA2
:104A80000FB6F894FA9AF99A0FBE01960895052E7A
:104A900097FB1EF400940E945E2557FD07D00E94EC
:104AA000792507FC03D04EF40C945E255095409573
:104AB000309521953F4F4F4F5F4F089590958095CA
:104AC000709561957F4F8F4F9F4F08950E949B2552
:104AD000A59F900DB49F900DA49F800D911D112452
:104AE0000895B7FF0C9466250E946625821B930BE0
:104AF0000895A1E21A2EAA1BBB1BFD010DC0AA1F1F
:104B0000BB1FEE1FFF1FA217B307E407F50720F036
:104B1000A21BB30BE40BF50B661F771F881F991FB1
:104B20001A9469F760957095809590959B01AC01FA
:104B3000BD01CF010895A29FB001B39FC001A39F03
:104B4000700D811D1124911DB29F700D811D1124C6
:104B5000911D089597FB072E16F4009407D077FD5A
:104B600009D00E94CD2507FC05D03EF49095819593
:104B70009F4F0895709561957F4F0895EE0FFF1F29
:104B8000881F8BBF0790F691E02D19940E949B25FA
:104B9000B7FF0895821B930B0895AA1BBB1B51E11D
:104BA00007C0AA1FBB1FA617B70710F0A61BB70B9D
:104BB000881F991F5A95A9F780959095BC01CD0142
:104BC00008950F931F93CF93DF938230910510F4D4
:104BD00082E090E0E091B209F091B30930E020E08A
:104BE000B0E0A0E0309799F42115310509F44AC0EE
:104BF000281B390B24303105D8F58A819B8161153A
:104C0000710589F1FB0193838283FE0111C040810C
:104C100051810281138148175907E0F0481759075D
:104C200099F4109761F012960C93129713961C93B7
:104C30003296CF01DF91CF911F910F91089500938C
:104C4000B2091093B309F4CF2115310551F0421781
:104C5000530738F0A901DB019A01BD01DF01F8011A
:104C6000C1CFEF01F9CF9093B3098093B209CDCFB3
:104C7000FE01E20FF31F8193919322503109398392
:104C80002883D7CF2091B0093091B109232B41F46B
:104C900020911B0230911C023093B1092093B0097E
:104CA0002091190230911A022115310541F42DB7D6
:104CB0003EB740911D0250911E02241B350BE0911E
:104CC000B009F091B109E217F307A0F42E1B3F0BD6
:104CD0002817390778F0AC014E5F5F4F241735076E
:104CE00048F04E0F5F1F5093B1094093B009819374
:104CF00091939FCFF0E0E0E09CCFCF93DF930097BC
:104D0000E9F0FC01329713821282A091B209B091AE
:104D1000B309ED0130E020E01097A1F4208131814A
:104D2000820F931F2091B0093091B10928173907DC
:104D300009F061C0F093B109E093B009DF91CF9120
:104D40000895EA01CE17DF07E8F54A815B819E01ED
:104D500041155105B1F7E901FB83EA834991599166
:104D6000C40FD51FEC17FD0761F480819181029675
:104D7000840F951FE90199838883828193819B83A6
:104D80008A83F0E0E0E012968D919C911397009752
:104D9000B9F52D913C911197CD010296820F931F89
:104DA0002091B0093091B1092817390739F63097A9
:104DB00051F51092B3091092B209B093B109A093C2
:104DC000B009BCCFD383C28340815181840F951F2A
:104DD000C817D90761F44E5F5F4F88819981480FEA
:104DE000591F518340838A819B819383828321153C
:104DF000310509F0B0CFF093B309E093B2099ECF2B
:104E0000FD01DC01C0CF13821282D7CF4F925F9297
:104E10006F927F928F929F92AF92BF92CF92DF92CA
:104E2000EF92FF920F931F93CF93DF938C01009724
:104E300099F4CB01DF91CF911F910F91FF90EF90EB
:104E4000DF90CF90BF90AF909F908F907F906F90AA
:104E50005F904F900C94E125FC01E60FF71F9C0139
:104E600022503109E217F30708F4AEC0D901CD9101
:104E7000DC911197C617D70720F1C530D10578F01E
:104E8000CE0104978617970750F0C61BD70B2297C1
:104E9000C193D1936D937C93CF010E947D26C8016D
:104EA000DF91CF911F910F91FF90EF90DF90CF9006
:104EB000BF90AF909F908F907F906F905F904F903A
:104EC00008955B01AC1ABD0A4C018C0E9D1EA09189
:104ED000B209B091B309512C412CF12CE12C10975F
:104EE00031F58091B0099091B1098815990509F0C3
:104EF0005CC04616570608F058C080911902909180
:104F00001A02009741F48DB79EB740911D0250914F
:104F10001E02841B950BE817F90708F055C0F093A3
:104F2000B109E093B009F90171836083B8CF8D9125
:104F30009C91119712966C90129713967C901397F0
:104F4000A815B90559F56C0142E0C40ED11CCA146C
:104F5000DB0420F1AC014A195B09DA0112961597BE
:104F600080F06282738251834083D9016D937C9378
:104F7000E114F10471F0D7011396FC93EE931297AC
:104F80008ECF22968C0F9D1FF90191838083F301B0
:104F9000EFCFF093B309E093B20981CF48165906D9
:104FA00008F42C017D01D3019ACFCB010E94E125A9
:104FB0007C01009749F0AE01B8010E940228C801A7
:104FC0000E947D2687016BCF10E000E068CF85FD51
:104FD0000C942E25806291110C942E2581568A51B5
:104FE000D8F708959111089581548A5108F4805E8C
:104FF000855A08959111089581568A5108F4805276
:1050000085580895FB01DC0102C001900D924150CA
:105010005040D8F70895FC018191861721F088232C
:10502000D9F7992708953197CF010895FB01DC0145
:105030008D91019080190110D9F3990B0895FB010E
:10504000DC0101900D920020E1F70895FB01DC01E5
:105050004150504030F08D910190801919F400209A
:10506000B9F7881B990B0895FB01DC0141505040B2
:1050700048F001900D920020C9F701C01D924150E7
:105080005040E0F70895FB0151915523A9F0BF016D
:10509000DC014D9145174111E1F759F4CD01019023
:1050A000002049F04D9140154111C9F3FB01411118
:1050B000EFCF81E090E0019708950F931F93CF9376
:1050C000DF93CDB7DEB72E970FB6F894DEBF0FBED5
:1050D000CDBF0E891F89888D998D26E02C831A8378
:1050E000098397FF02C080E090E801979E838D833B
:1050F000AE01445E5F4F6A8D7B8DCE0101960E94AA
:10510000CA284D815E8157FD0AC02F81388542171C
:1051100053070CF49A01020F131FF80110822E9608
:105120000FB6F894DEBF0FBECDBFDF91CF911F91B8
:105130000F9108950F931F93CF93DF93CDB7DEB7F1
:105140002E970FB6F894DEBF0FBECDBF0E891F8914
:1051500086E08C831A8309838FEF9FE79E838D837C
:10516000AE01465E5F4F688D798DCE0101960E943B
:10517000CA282F813885020F131FF80110822E963E
:105180000FB6F894DEBF0FBECDBFDF91CF911F9158
:105190000F9108952F923F924F925F926F927F925C
:1051A0008F929F92AF92BF92CF92DF92EF92FF9237
:1051B0000F931F93CF93DF9300D000D000D01F92A6
:1051C0001F92CDB7DEB77C013B018A01FC0117823B
:1051D0001682838181FFDDC1CE0101965C01F7015A
:1051E0009381F30193FD859193FF81913F01882382
:1051F00009F453C1853239F493FD859193FF819170
:105200003F01853229F4B70190E00E94E22AE7CFFE
:10521000912C212C312CFFE1F31538F08B3211F158
:1052200090F4803209F1833229F137FC3CC020ED43
:10523000280F2A3050F536FE20C08AE0989E200DB7
:105240001124922E06C08D3291F0803371F768944C
:1052500030F8F30193FD859193FF81913F01811116
:10526000DACF21C0689431F8689432F8F2CF6894AC
:1052700033F8EFCF689434F8ECCFEAE02E9E200D9F
:105280001124222E689435F8E4CF8E3229F436FCAE
:1052900004C1689436F8DDCF8C3619F4689437F879
:1052A000D8CF8836B1F2982F9F7D95549330E0F097
:1052B0008336A1F18337C1F1833509F063C028013A
:1052C000F2E04F0E511CF801C080D180692D70E0D2
:1052D00036FC02C06FEF7FEFC6010E94CC2A4C0162
:1052E000689437F882010AC00C5F1F4FFFE3F9830F
:1052F00088248394912C6501E89437F833FE2DC0FF
:10530000522C8114910471F5552009F468CFB7012E
:1053100080E290E00E94E22A5A94F6CFF801808160
:1053200089830E5F1F4FE4CF2801F2E04F0E511C1E
:10533000F801C080D180692D70E036FC02C06FEFAB
:105340007FEFC6010E94D72A4C018201D5CFB70159
:1053500080E290E00E94E22A2A942814190409F0BD
:10536000B0F7CECFF60137FC859137FE81916F0102
:10537000B70190E00E94E22A51105A94F1E08F1A8E
:105380009108BFCF843619F0893609F077C0F8014B
:1053900037FE6BC060817181828193810C5F1F4FEA
:1053A000F32DFF763F2E97FF09C09095809570955D
:1053B00061957F4F8F4F9F4F689437F82AE030E018
:1053C000A5010E94122BC82ECA188C2C432C36FE25
:1053D0000CC0E89440F8C91440F434FE05C032FC17
:1053E00003C0F32DFE7E4F2E892C44FEAAC0FE0181
:1053F000EC0DF11D8081803309F09CC0242D297EA5
:10540000422E842D8870582E43FCAAC040FEA4C0B2
:105410009C2C821418F42C0C922C981844FEA6C0D4
:10542000B70180E390E00E94E22A42FE09C088E7CB
:1054300090E041FE02C088E590E0B7010E94E22AB8
:10544000C91408F49FC0CA94D12C9FEFC91AD90A75
:10545000CA0CDB1CF60182916F01B70190E00E943B
:10546000E22AAC14BD04B1F74FCF60817181072EE1
:10547000000C880B990B0E5F1F4F92CFD32CE89432
:10548000D4F82AE030E08537E1F1232D297FD22EB0
:105490008F36A9F1F0F4883551F1F70186819781B3
:1054A0002B960FB6F894DEBF0FBECDBFDF91CF9124
:1054B0001F910F91FF90EF90DF90CF90BF90AF9032
:1054C0009F908F907F906F905F904F903F902F9024
:1054D0000895803749F0883701F7D4FE02C06894F8
:1054E000D2F820E130E00DC06894D4F8F6CF34FE55
:1054F00003C0822F8660D82E20E132E002C028E06F
:1055000030E0F801D7FE0FC0608171818281938104
:105510000C5F1F4FA5010E94122BC82ECA183D2CEC
:10552000E89437F852CF6081718190E080E00E5F9F
:105530001F4FF0CF42FC02C0839463CF83948394C7
:1055400060CF842D867809F45CCFF6CFB70180E276
:1055500090E00E94E22A83948214C0F3512C5ECF23
:10556000522C5818821408F459CFF8CF842D86781D
:1055700009F466CF8BE241FE80E247FC8DE2B70181
:1055800090E05CCFB70180E390E00E94E22A9A9419
:1055900057CF8FEF9FEF84CFFC0105906150704093
:1055A0000110D8F7809590958E0F9F1F0895FC01EC
:1055B0006150704001900110D8F7809590958E0F42
:1055C0009F1F08950F931F93CF93DF93182F092FD9
:1055D000EB018B8181FD09C01FEF0FEF812F902F11
:1055E000DF91CF911F910F91089582FF14C02E81FA
:1055F0003F818C819D81281739073CF4E881F9812E
:10560000CF0101969983888310838E819F810196B3
:105610009F838E83E3CFE885F985812F1995892BA8
:10562000A1F3DACFFA01AA27283051F1203181F114
:10563000E8946F936E7F6E5F7F4F8F4F9F4FAF4F9A
:10564000B1E03ED0B4E03CD0670F781F891F9A1FAD
:10565000A11D680F791F8A1F911DA11D6A0F711D61
:10566000811D911DA11D20D009F468943F912AE06D
:10567000269F11243019305D3193DEF6CF01089555
:10568000462F4770405D4193B3E00FD0C9F7F6CF86
:10569000462F4F70405D4A3318F0495D31FD40524E
:1056A000419302D0A9F7EACFB4E0A69597958795E4
:1056B00077956795BA95C9F70097610571050895C3
:1056C0009B01AC010A2E069457954795379527956F
:1056D000BA95C9F7620F731F841F951FA01D089507
:1056E00011E0C9E5D1E000E006C0802FFE010E9474
:1056F000BE252196011DCA35D10780E00807A9F70C
:04570000F894FFCF4B
:1057040050434220312E300000442D4133323000CA
:1057140000000F0800010000000000B40980000030
:105724000000000400000000000000000100007EF2
:10573400306D79335B5F707F7B00000000000000F8
:10574400771F4E3D4F475E373038000E37157E6762
:1057540000055B0F3E0000003B4D49502D003038E2
:105764003135003D00FFFFFFFFFFFFFFFFFFFFFF9D
:10577400FFFFFF19001A001B001E0020002C002E42
:10578400003C00050007000C001000110014001577
:1057940000180036003700380039003A003B000694
:1057A4000008000D000E000F001200130016001771
:1057B400001C001D001F00210022002300240025DE
:1057C4000026002700280029002A002B002D002F86
:1057D400003000310032004400450000000000B3F6
:1057E4000414044A0400057B0459046D040D0A00E2
:1057F400444941473A5354415254004944454E5454
:105804003A004D49502C2076312E32204D41510022
:105814002C20534E3A003B53544154453A52554E72
:105824004E494E473B003031323334353637383900
:1058340041424344454600434852200055544320C6
:105844002020004554202000444941473A444F4E0B
:1058540045005645520056455253494F4E00524555
:10586400510052455345543A4F4B203B004C45445C
:10587400310041434B3A4C4544313A004C454432A3
:105884000041434B3A4C4544323A004C45443800BD
:1058940041434B3A4C4544383A004C45443300416B
:1058A400434B3A4C4544333A004C4544340041435D
:1058B4004B3A4C4544343A004C4544350041434B43
:1058C4003A4C4544353A004C4544360041434B3A42
:1058D4004C4544363A004C4544370041434B3A4C1E
:1058E4004544373A00414E00444953505F424C000E
:1058F4004348520055544300445350310041434BF4
:105904003A445350313A00445350320041434B3AE5
:10591400445350323A00445350330041434B3A44C9
:105924005350333A004453500041434B3A4453508C
:105934003A4348523A0041434B3A4453503A55543F
:10594400433A0041434B3A4453503A45543A004495
:10595400454255475F41434B0041434B3A4445421E
:1059640055475F41434B3A00444941470052554E25
:1059740000444941473A53544154453B494E313A16
:10598400003B494E323A003B494E003B4C45445F94
:1059940042524B3A003B4C45445F424C3A003B4C2C
:1059A40045445F4750494F313A003B4C45445F47BB
:1059B40050494F323A003B4252545F414E3A003B09
:1059C4004252545F424C3A003B4252545F44495362
:1059D400503A003B414E414C4F475F44423A003BF2
:1059E400494E54454E534954593A003B434C4F4356
:1059F4004B3A003B434C4B5F5345433A003B4348CF
:105A0400523A003B5554433A003B45543A005345FF
:105A14005455500053455455503A4D454E553B4905
:105A240054454D533A4252494748542C414E414CF7
:105A34004F475F454E2C414E414C4F475F44422CEB
:105A4400434C4F434B3B434D44533A5345545550B9
:105A54003A4252494748543A414E3D302D32353549
:105A64002C424C3D302D3235352C444953503D3079
:105A74002D31357C414E414C4F475F454E3A302FD6
:105A8400317C414E414C4F475F44423A312D3130D5
:105A9400307C434C4F434B3A302F313B0042524908
:105AA4004748540053455455503A42524947485484
:105AB4003A414E3D003B424C3D003B444953503D2E
:105AC40000434C4F434B0030302E303000434C4F9A
:105AD400434B3A4F4E00434C4F434B3A4F464600DC
