:100000000C94D4000C94FC000C94FC000C94FC00A8
:100010000C94FC000C94FC000C94FC000C94FC0070
:100020000C94FC000C94FC000C94CC150C94491618
:100030000C94FC000C94FC000C94FC000C94FC0050
:100040000C94FC000C94FC000C94FC000C94FC0040
:100050000C94FC000C94FC000C94FC000C94821595
:100060000C94FC000C94FC000C94FC000C94FC0020
:100070000C94FC000C94FC000C94FC000C94FC0010
:100080000C94FC000C94FC000C94FC000C94FC0000
:100090000C94FC000C94FC000C94FC000C94FC00F0
:1000A0000C94FC000C94FC000C94FC00080B000267
:1000B0000202000009040000010202000005240001
:1000C0001001052401010104240206052406000193
:1000D0000705810310004009040100020A00000026
:1000E00007050202400000070583024000000403E8
:1000F000090412010002EF02014041233780000190
:100100000102030141726475696E6F204C4C43001B
:1001100041726475696E6F204D6963726F000000F3
:100120000000240027002A002D00300000000000FD
:10013000250028002B002E003100000000002300C5
:10014000260029002C002F000404040404030405E5
:100150000202020204030202020206060606060664
:10016000040402020204040408020110408040104A
:1001700020408040800802040180402010020110CD
:100180008010204040200000000200090F00000302
:100190000401000C0000000000000000000000004E
:1001A000000000000000AD1811241FBECFEFDAE000
:1001B000DEBFCDBF16E0A0E0B1E0E6ECF8E502C09E
:1001C00005900D92AA3EB107D9F728E0AAEEB6E055
:1001D00001C01D92AC39B207E1F710E0C4EDD0E0E8
:1001E00004C02197FE010E940729C33DD107C9F72A
:1001F0000E9447190C94612C0C940000AC01485FDC
:100200005F4F22E030E0DC01ED91CD012E0F311D7A
:100210004A175B07C1F7FB01CB0108964191240FF8
:10022000311D8E179F07D1F7822F089583E08093A9
:10023000E9008091F200882319F08AE38093E800B6
:100240000895FC018091F107882311F13FB7F894DC
:1002500082E08093E9002091F200822F90E018164E
:10026000190614F481E090E0882339F0289A44E6D6
:100270004093F0074091F1004083222339F0209110
:10028000F200211103C02BE62093E8003FBF089540
:100290008FEF9FEF08952FB7F89483E08093E900E4
:1002A0009091E800892F807295FF04C09091F20030
:1002B00080E4891B2FBF08958091E80781110DC04C
:1002C00082E08093E40784E08093E5071092E707DB
:1002D0001092E60781E08093E80784EE97E00895A6
:1002E00081508F3008F047C0E82FF0E0E658FE4F0D
:1002F0000C94072997019B0189018F019301BB0190
:10030000BB01BB019E01A401A801AC01B201BB016C
:10031000B601809180008F7780938000089580914E
:1003200080008F7DF9CF80918000877FF5CF84B5E5
:100330008F7784BD089584B58F7DFBCF8091900029
:100340008F77809390000895809190008F7DF9CFF2
:1003500080919000877FF5CF8091C0008F77809348
:10036000C00008958091C0008F7DF9CF8091C200B8
:10037000877F8093C2000895CF93DF93282F30E0CA
:10038000F901EA57FE4F8491F901E959FE4FD491E2
:10039000F901E85BFE4FC491CC23A1F081110E94CA
:1003A0007001EC2FF0E0EE0FFF1FE65CFE4FA59111
:1003B000B491EC91ED2381E090E009F480E0DF91CD
:1003C000CF91089580E090E0FACF1F93CF93DF9311
:1003D000282F30E0F901EA57FE4F8491F901E959DD
:1003E000FE4FD491F901E85BFE4FC491CC23A9F0F4
:1003F000162F81110E947001EC2FF0E0EE0FFF1F0D
:10040000E45DFE4FA591B4918FB7F894EC91111172
:1004100008C0D095DE23DC938FBFDF91CF911F9171
:100420000895DE2BF8CFCF93DF9390E0FC01E959DC
:10043000FE4F2491885B9E4FFC0184918823C9F074
:1004400090E0880F991FFC01E25EFE4FA591B491E8
:10045000FC01E45DFE4FC591D49161110DC09FB7C1
:10046000F8948C91209582238C938881282328836B
:100470009FBFDF91CF910895623051F49FB7F894F8
:100480003C91822F809583238C93E8812E2BEFCF94
:100490008FB7F894EC912E2B2C938FBFEACFCF938C
:1004A000DF93EC0161E083E00E941302209731F4B6
:1004B00060E083E0DF91CF910C94E501CF3FD1055F
:1004C00011F461E0F6CFE9E8F1E0E491E150EF30BA
:1004D00008F07EC0F0E0E159FD4F0C9407297E0240
:1004E00085028A0294029E02E802E802E802A8025B
:1004F000B202BC02C602D302E802DB0284B5806805
:1005000084BDC7BDDF91CF91089584B5806284BD5D
:10051000C8BDF8CF80918000806880938000D09320
:100520008900C0938800EECF809180008062809324
:100530008000D0938B00C0938A00E4CF809180002C
:10054000886080938000D0938D00C0938C00DACFB8
:1005500080919000806880939000D0939900C09320
:100560009800D0CF80919000806280939000D093CB
:100570009B00C0939A00C6CF8091900088608093C2
:100580009000D0939D00C0939C00BCCF8091C00090
:1005900080688093C0008091C0008F7B8093C000F2
:1005A000C093CF00AFCF8091C00080628093C00025
:1005B000C093D000A7CF8091C20088608093C20012
:1005C0008091C2008B7F8093C200C093D2009ACFEB
:1005D000C038D1050CF075CF6BCF3FB7F894809140
:1005E000E0079091E107A091E207B091E30726B5FB
:1005F000A89B05C02F3F19F00196A11DB11D3FBF5B
:10060000BA2FA92F982F8827BC01CD01620F711D29
:10061000811D911D42E0660F771F881F991F4A9523
:10062000D1F708958F929F92AF92BF92CF92DF92AF
:10063000EF92FF924B015C010E94ED026B017C0185
:100640000E94ED026C197D098E099F09683E734076
:1006500081059105A8F321E0821A9108A108B1084B
:1006600088EEC80E83E0D81EE11CF11C81149104B1
:10067000A104B10429F7FF90EF90DF90CF90BF90D5
:10068000AF909F908F9008952FB7F8946091DC07FA
:100690007091DD078091DE079091DF072FBF0895ED
:1006A000409160075091610720915E0730915F078C
:1006B00042175307B4F49091E8009570E1F39091DC
:1006C000E80092FD19C08093F1008091600790913D
:1006D000610701968F739927892B19F48EEF809308
:1006E000E8008091600790916107019690936107FF
:1006F0008093600781E0089580E00895EF92FF9273
:100700000F931F93CF93DF93F82E192FE62E042F0C
:1007100081E0860F880F0E94500383E00E945003FF
:10072000CF2DD12FEC0EFD2EF11CCE15DF05B9F02B
:1007300007FF13C0FE0184910E945003182F80E030
:100740000E945003812321968111EFCFDF91CF9139
:100750001F910F91FF90EF9008958881EDCF81E078
:10076000F5CFDF92EF92FF920F931F93CF93DF931A
:10077000D82E8A01EB017B01E40EF51ECE15DF05B4
:1007800059F0D7FE12C0FE0184910E9450032196B9
:100790008111F4CF0FEF1FEFC801DF91CF911F91AF
:1007A0000F91FF90EF90DF9008958881EECF0F9327
:1007B0001F93CF93DF931F92CDB7DEB782E089837B
:1007C00042E450E06CEA70E080E80E94B1030E94CD
:1007D0005C01DC0112960D911C910115110589F047
:1007E000D801ED91FC910280F381E02DBE016F5F95
:1007F0007F4FC801099597FD04C0F8010085118558
:10080000ECCF89810F90DF91CF911F910F910895C7
:10081000615030F02091F100FC0120830196F8CF67
:10082000289A84E68093F00708958F929F92AF9262
:10083000BF92CF92DF92EF92FF920F931F93CF93CD
:10084000DF936C017B018A0180910C01882309F4FC
:100850005CC08091F107882309F457C08091640738
:1008600080FF05C08091E00082608093E000E80195
:10087000B12C8AEFA82E93E0892E2AE3922E20979E
:1008800011F4BB20D9F10E944B0181110AC0AA9436
:10089000AA20D9F161E070E080E090E00E941203AC
:1008A000EECF8C171D0611F00CF08C2F9FB7F8942B
:1008B0008092E9002091E80025FD02C09FBFDFCFB4
:1008C000282F30E0C21BD30BF701815020F041915B
:1008D0004093F100FACFE20EF31EBB2021F090927C
:1008E000E800B12CEBCF8091E80085FDE7CF909236
:1008F000E800BB24B394209709F3F3CF5D9A84E614
:1009000080936307101611063CF081E090E0F60139
:100910009383828310E000E0C801DF91CF911F91A3
:100920000F91FF90EF90DF90CF90BF90AF909F908E
:100930008F900895CF93DF931F92CDB7DEB7698371
:10094000DC01ED91FC910280F381E02D41E050E06B
:10095000BE016F5F7F4F09950F90DF91CF91089592
:100960000C9416010E944B0190E00895CF93DF9301
:100970001F92CDB7DEB7FC018485958597FD08C031
:100980002FEF3FEF358724870F90DF91CF910895A8
:10099000CE0101960E942101019719F4898190E00E
:1009A000F3CF8FEF9FEFF0CF0F931F93CF93DF9392
:1009B0001F92CDB7DEB78C01FC018485958597FF2A
:1009C0000BC0CE0101960E942101019771F489812B
:1009D00090E0F80195878487F801848595850F90CC
:1009E000DF91CF911F910F9108958FEF9FEFF1CF7E
:1009F000FC018485958597FD0BC09FB7F89482E034
:100A00008093E9008091F2009FBF90E001960895E5
:100A10009FB7F89482E08093E9008091F2009FBF35
:100A200090E00895FC01208101962032D9F341E045
:100A300050E02D3219F4FC014FEF5FEF30E020E081
:100A4000AAE0819190ED980F9A3068F4A29FB001CE
:100A5000A39F700D1124082E000C990BC0979C01C8
:100A6000260F371FEECF249FC001259F900D349F86
:100A7000900D11240895DC01FB012D919191222309
:100A800081F0992371F08FE9820F8A3108F42052A6
:100A90008FE9890F8A3108F49052291771F380E0A9
:100AA00003C081E02913FBCF0895EF92FF920F93CB
:100AB0001F93CF93DF9389E00E94BC01D82F8AE077
:100AC0000E94BC01DD0FD82B2091FA0604E0209F84
:100AD00090011124CD2FC22B0E944403AB01BC0115
:100AE000809142088130A9F170F08230D9F18330D1
:100AF00009F44CC0D093FA06DF91CF911F910F916A
:100B0000FF90EF900895C130F1F189EF8C0F8230A2
:100B1000D0F1CE30C1F1C23031F0C43021F0CB3051
:100B200011F0CD3039F721E030E08091F806909156
:100B3000F9068217930731F01092F7063093F90601
:100B40002093F8068091F706882351F11092F7065A
:100B5000D1CFC130C1F0C830B1F0C23021F3C430C0
:100B600049F6E1CFCD30F9F2C430E9F2C230D9F222
:100B7000CB30C9F2CE3039F089EF8C0F823018F0CB
:100B8000C13009F0B7CF2FEF3FEFCFCFCD3059F2C3
:100B9000CB3049F2CE30B9F3C83009F0ABCFF3CF48
:100BA0008091F3069091F406A091F506B091F606B7
:100BB0007A018B01E81AF90A0A0B1B0BD801C7014D
:100BC0000297A105B10568F48091F3069091F406AF
:100BD000A091F506B091F606892B8A2B8B2B09F094
:100BE00089CF81E08093F7068091BE079091BF077F
:100BF000280F391F3093BF072093BE074093F30699
:100C00005093F4066093F5067093F60673CF8F92B7
:100C10009F92AF92BF92CF92DF92EF92FF92CF93CB
:100C2000DF9387E00E94BC01D82F88E00E94BC01BE
:100C3000DD0FD82B2091F20644E0249F900111246F
:100C4000CD2FC22B0E944403209143082130D1F1C3
:100C500098F0223009F43FC0233009F450C0D093FB
:100C6000F206DF91CF91FF90EF90DF90CF90BF9091
:100C7000AF909F908F900895C130F1F129EF2C0F24
:100C80002230D0F1CE30C1F1C23031F0C43021F089
:100C9000CB3011F0CD3019F721E030E04091F00673
:100CA0005091F1064217530731F01092EF0630933E
:100CB000F1062093F0064091EF06442351F1109283
:100CC000EF06CDCFC130C1F0C830B1F0C23021F352
:100CD000C43029F6E1CFCD30F9F2C430E9F2C230A8
:100CE000D9F2CB30C9F2CE3039F029EF2C0F2230B7
:100CF00018F0C13009F0B3CF2FEF3FEFCFCFCD3099
:100D000059F2CB3049F2CE30B9F3C83009F0A7CF51
:100D1000F3CFC090EB06D090EC06E090ED06F0909B
:100D2000EE064B015C018C189D08AE08BF087501EA
:100D3000640142E0C416D104E104F10468F4C090F7
:100D4000EB06D090EC06E090ED06F090EE06CD2894
:100D5000CE28CF2809F083CF41E04093EF064091A1
:100D6000D9075091DA074230510591F5C09000073C
:100D7000D0900107E0900207F09003074B015C015F
:100D80008C189D08AE08BF087501640144EBC416B9
:100D9000D104E104F10408F462CF4091C2075091FC
:100DA000C307240F351F3093C3072093C2076093F6
:100DB000EB067093EC068093ED069093EE0660933D
:100DC000000770930107809302079093030747CFB2
:100DD0004091C2075091C307240F351F3093C307BA
:100DE0002093C2076093EB067093EC068093ED06A8
:100DF0009093EE0634CFCF93DF93DA01FB0170E0DE
:100E000060E030E020E0519151110DC0FC01281B41
:100E1000390B40E2CF01B9016E0F7F1F66307105BB
:100E20009CF44193F7CF2630310574F45E3241F0E3
:100E30006A177B071CF46F5F7F4FE5CF2F5F3F4F33
:100E4000EC0158830196DFCFFC011082DF91CF9136
:100E50000895FC0190E080E02191222321F02E32C0
:100E6000D9F30196F9CF0895CF93DF93CDB7DEB7CD
:100E700029970FB6F894DEBF0FBECDBF90E0E0E03B
:100E8000A92FB0E0A55EBE4F8C91882399F0E83081
:100E900088F4803269F02FE9280F2A3108F4805253
:100EA000A1E0B0E0AC0FBD1FAE0FB11D8C93EF5FA2
:100EB0009F5FE6CFEC0FFD2FF11D118289818035F8
:100EC00091F48A81833479F48B81823461F48C814A
:100ED000813349F48D818E3231F48E81823319F45D
:100EE00081E09F81911180E08093EA0629960FB6F8
:100EF000F894DEBF0FBECDBFDF91CF910895FC0106
:100F000080E04191442371F090ED940F9230C8F746
:100F1000282F30E0220F331F81E0413309F080E0B9
:100F2000822BEFCF0895FC0127E030E070E0AB01A9
:100F3000022E02C0559547950A94E2F740FD08C07D
:100F400040E341932150310990F7FC011086089548
:100F500041E3F7CF0F931F93CF93DF93082F162F03
:100F6000D42FC8E06D2F661F6627661F802F0E9452
:100F7000E501DD0F61E0812F0E94E50160E0812F36
:100F80000E94E501C15071F7DF91CF911F910F9140
:100F900008950F931F93CF93DF9300D0CDB7DEB7A3
:100FA00069834A83880F991F00919A0810919B08C2
:100FB000000F111FE4E4F8E09F012454384020178B
:100FC000310714F41192F8CF2981FC01EC5BF74F43
:100FD00021838A81808360E0809198080E94E501E6
:100FE000101611066CF401501109F801EC5BF74F73
:100FF000408160919608809194080E94AA07F0CFE2
:1010000061E0809198080F900F90DF91CF911F9130
:101010000F910C94E501EF92FF920F931F93CF93E2
:101020007C018C0183E0000F111F8A95E1F70C5AB7
:10103000174FC1E0F80111928F0140E06C2FC701FA
:101040000E94C907CF5FC930A9F7CF911F910F91B7
:10105000FF90EF90089597FD18C020919A08309165
:101060009B08821793078CF46830710570F4FC01BB
:1010700023E0EE0FFF1F2A95E1F7EC5BF74FE60F39
:10108000F71F408B6F5F0C94C90708950F931F9350
:10109000CF93683E23E072078105910558F1685EA1
:1010A0007340810991092CE231E040E050E00E9458
:1010B000E52827703327C1E001C0CC0F2A95EAF755
:1010C00010E000E04C2FB80190E080E00E942B0877
:1010D0000F5F1F4F06301105A9F710E000E04C2FFD
:1010E000B80181E090E00E942B080F5F1F4F06308F
:1010F0001105A9F7CF911F910F91089520919A089A
:1011000030919B08821793073CF46031710524F4F9
:10111000462F6AE00C94C9070895CF93DF9320ED22
:1011200037E040E050E00E94E528683E23E0720787
:10113000CCF4EB01D595C795D595C795CE010E9406
:101140004F02CE0161E170E00E94D128EB0190E0F6
:1011500080E00E947E08BE0181E090E0DF91CF91A7
:101160000C947E08685E734077FF02C06D5F7F4F0E
:101170007595679575956795719561957109EB0101
:10118000C150DF4FDBCFCF93DF93803108F08FE08A
:1011900080930D01C82FD0E0BE0190E080E00E9456
:1011A0007E08BE0181E090E0DF91CF910C947E0833
:1011B000CF93DF93C091D307D091D40760E084E050
:1011C0000E94E5014D2F65E086E00E94AA074C2FA2
:1011D00065E086E00E94AA0761E084E00E94E501E4
:1011E00060916D07C0916C078091EA06882319F021
:1011F00081E06827C8278EE00E94E5016C2F80E11E
:101200000E94E50180916B0790E0DF91CF910C94F3
:101210004F0228EC30E040E050E00E94E5282F70BB
:10122000332781E090E0022E02C0880F991F0A94B4
:10123000E2F79093D4078093D30781E0211531051D
:1012400009F080E080936D0781E02130310509F0DD
:1012500080E080936C0788EC80936B070C94D8082F
:1012600094E0899FF0011124613061F4E756FE4F4C
:101270003281238131110EC0223039F440936D0741
:101280000C94D808E758FE4FF3CF233019F540935C
:101290006C07F6CF822F90E0313019F49C01285F63
:1012A0003F4F81E090E002C0880F991F2A95E2F736
:1012B0002091D3073091D407442339F0822B932B0C
:1012C0009093D4078093D307DBCF809590958223AA
:1012D0009323F6CF08951F93CF93DF93C7E0D0E019
:1012E00010E061E084E10E94E50183E10E94BC011D
:1012F0000C2E01C0880F0A94EAF7182B60E084E1F5
:101300000E94E501219768F7812FDF91CF911F910E
:101310000895CF92DF92EF92FF920F931F93CF9396
:10132000DF936C017B0160E085E10E94E501CBE485
:10133000D0E0CE010197F1F761E085E10E94E5017F
:10134000CE010197F1F70E946B09182F0E946B09DB
:101350001095F60110838095F701808360E085E1A8
:101360000E94E501CE010197F1F761E085E10E945D
:10137000E5012197F1F7C0E1D0E00FE010E060E077
:1013800084E10E94E501C8010197F1F761E084E181
:101390000E94E501C8010197F1F7219781F7DF91DC
:1013A000CF911F910F91FF90EF90DF90CF90089514
:1013B000FC0101900020E9F73197AF01481B590B60
:1013C000BC0182EF97E00C9415048F929F92AF922C
:1013D000BF920F931F93CF93DF93CDB7DEB7A19743
:1013E0000FB6F894DEBF0FBECDBF19A2423008F48D
:1013F0004AE08E010F5D1F4F842E912CB12CA12C41
:10140000A50194010E94E528E62FB901CA01EA303E
:10141000F4F4E05DD801EE938D01232B242B252BD2
:1014200079F790E080E0109719F0CD010E94D8097B
:10143000A1960FB6F894DEBF0FBECDBFDF91CF915E
:101440001F910F91BF90AF909F908F900895E95C8E
:10145000E1CFCF92DF92EF92FF92CF93DF936C01B7
:10146000990FEE08FF08F7FE19C06DE282EF97E0D2
:101470000E949A04EC0166277727CB016C197D093D
:101480008E099F094AE00E94E5098C0F9D1FDF919C
:10149000CF91FF90EF90DF90CF9008954AE0C70181
:1014A000B601DF91CF91FF90EF90DF90CF900C9439
:1014B000E509CF93DF930E94D809EC0189EE91E012
:1014C0000E94D8098C0F9D1FDF91CF91089500973E
:1014D00011F00C94D80990E080E00895EF92FF920B
:1014E0000F931F93CF93DF93CDB7DEB729970FB636
:1014F000F894DEBF0FBECDBF6091CD07CE0101963F
:101500000E9493078CEE91E00E94670ACE0101963B
:101510000E94670A88EC95E00E94670A6091CC07F8
:10152000CE0101960E94930781EF91E00E94670A25
:10153000CE0101960E94670A88EC95E00E94670A36
:10154000E090C207F090C3078091C0079091C10757
:10155000E81AF90A0091BE071091BF078091BC07F5
:101560009091BD07081B190B86EF91E00E94670A56
:10157000C7010E94290A88EC95E00E94670A8BEF58
:1015800091E00E94670AC8010E94290A88EC95E050
:101590000E94670A89EE91E00E94D8098091C207F3
:1015A0009091C3079093C1078093C0078091BE07B5
:1015B0009091BF079093BD078093BC070E9444039E
:1015C00029960FB6F894DEBF0FBECDBFDF91CF9145
:1015D0001F910F91FF90EF90089580E092E00E949C
:1015E000670A87E092E00E94670A85E192E00E9424
:1015F000670A85E292E00E94670A82E191E00E9418
:10160000670A88EC95E00E94670A89EE91E00C94E5
:10161000D8090C94BB288F929F92AF92BF92CF9221
:10162000DF92EF92FF920F931F93CF93DF935C01B2
:101630006B01FB0101900020E9F731978F01061B38
:10164000170B85E0E82EF12CD0E0C0E0C017D107E1
:10165000B4F040E0B701C5010E942B0881E0E81A10
:10166000F108A0F7DF91CF911F910F91FF90EF90BC
:10167000DF90CF90BF90AF909F908F900895F6012C
:10168000EC0FFD1F80818E3241F42196C017D107E7
:1016900004F7F601EC0FFD1F808144E08432D1F0A5
:1016A0004DE18F36B9F040E18936A1F045E18D3644
:1016B00089F04BE3893771F0082E000C990B0E94DA
:1016C0002C29805240E08A3328F4E82FF0E0E15CD6
:1016D000FE4F40814E018FEF881A980A80169106BE
:1016E00034F4CC0DDD1D89818E3209F44068B701D8
:1016F000C5010E942B08E401B1CF8091BB07811185
:1017000047C08091BA07811143C06AE272E081E369
:1017100091E00E945829892BD9F56AE272E085E2AE
:1017200091E00E945829892B99F586E0E0EDF1E0DF
:10173000A1E3B1E001900D928A95E1F71092370193
:1017400086E0E9ECF1E0A5E2B1E001900D928A9526
:10175000E1F710922B0161E371E090E080E00E94DC
:101760000B0B65E271E081E090E00E940B0B0E94A0
:1017700044036093B6077093B7078093B8079093BC
:10178000B90781E08093BA0781E392E00C94590A8B
:101790000895CF93DF93EB0144E150E0BC018BE26D
:1017A00097E00E94612910923F0744E150E0BE019A
:1017B00083E197E00E946129109227078BE297E06E
:1017C0000E94290721E007970CF420E020934007AE
:1017D00083E197E00E94290721E007970CF420E0BD
:1017E0002093280710922A071092290710921207B7
:1017F000109211070E9444036093410770934207BF
:10180000809343079093440750E040E06BE277E019
:1018100081E391E00E94FB0650E040E063E177E065
:1018200085E291E00E94FB0661E371E090E080E0D8
:101830000E940B0B65E271E081E090E0DF91CF91B7
:101840000C940B0BAF92BF92CF92DF92EF92FF926C
:101850000F931F93CF93DF93CDB7DEB76A970FB681
:10186000F894DEBF0FBECDBF24EF31E040E050E082
:101870000E94E52869017A01CA01B9012AE030E035
:1018800040E050E00E94E528162FC701B60126E08F
:1018900030E040E050E00E94E5286B019DE09E01B1
:1018A0002F5F3F4F5901D901E92F1D92EA95E9F7C2
:1018B000DE011E96FD0111929A95E9F7F12CE12CBB
:1018C00030E020E090E3910F7EE2A9014F5F5F4F8F
:1018D0008501020F131FF80190838D01020F131F62
:1018E000F8019083CE14DF0439F52E5F3F4F850158
:1018F000040F151FF80170834A0F5B1FFA017083F4
:10190000FFEFEF1AFF0A86E0E816F104F1F6BD01D9
:10191000C5010E94C90B6A960FB6F894DEBF0FBED0
:10192000CDBFDF91CF911F910F91FF90EF90DF908E
:10193000CF90BF90AF9008959A01E2CF2F923F923F
:101940004F925F926F927F928F929F92AF92BF92CF
:10195000CF92DF92EF92FF920F931F93CF93DF937B
:10196000CDB7DEB761970FB6F894DEBF0FBECDBF1F
:101970000E9444036B017C016CEC77E08DEC97E0F6
:101980000E9489090E9407060E9455052091CD07F3
:101990008091CB07281306C09091CC078091CA078D
:1019A000981741F18091C6079091C707A091C80789
:1019B000B091C907B701A601481B590B6A0B7B0BF5
:1019C0008091240190E0B0E0A0E0481759076A0731
:1019D0007B0780F0C092C607D092C707E092C80785
:1019E000F092C9072093CB078091CC078093CA0758
:1019F0000E947D0B80916E07811144C081E080932D
:101A00006E0710925D0710925C0710925B071092B0
:101A10005A078091C2079091C3079093590780930A
:101A20005807109257076CE572E083E692E00E9437
:101A3000C90BC0925307D0925407E0925507F09219
:101A40005607C0924F07D0925007E0925107F0928C
:101A5000520761960FB6F894DEBF0FBECDBFDF917F
:101A6000CF911F910F91FF90EF90DF90CF90BF909B
:101A7000AF909F908F907F906F905F904F903F902E
:101A80002F9008958091B1079091B207A091B3076C
:101A9000B091B40716012701281A390A4A0A5B0ACD
:101AA000D201C101803D9740A105B10590F280911E
:101AB000530790915407A0915507B0915607A7017D
:101AC0009601281B390B4A0B5B0BDA01C9018031E7
:101AD0009742A105B10530F11092D4071092D307B7
:101AE00010926D0710926C0710926B070E94D80835
:101AF0006AE272E0CB010E94C90B6AE272E090E0F8
:101B000080E00E940B0B6AE272E081E090E00E94AC
:101B10000B0B81E090E09093DA078093D907109245
:101B20006E0797CF80915A0790915B07009709F055
:101B300037C12091C2073091C30780915807909117
:101B40005907281B390B09F475C080914F079091F4
:101B50005007A0915107B0915207B701A601481B49
:101B6000590B6A0B7B0BDB01CA018C329140A1053A
:101B7000B10508F45FC080914B0790914C07A0918C
:101B80004D07B0914E07C816D906EA06FB0648F481
:101B90008091C2079091C30790935907809358078B
:101BA00050CF80915C0790915D07121613060CF0E0
:101BB000A9C0019690935D0780935C0780915C07B4
:101BC00090915D0797FF04C010925D0710925C072B
:101BD00080915C0790915D07049734F083E090E07A
:101BE00090935D0780935C078091C2079091C30733
:101BF0009093590780935807C0924F07D09250078F
:101C0000E0925107F0925207D701C6018C549F4FC2
:101C1000AF4FBF4F80934B0790934C07A0934D0756
:101C2000B0934E07C0925307D0925407E0925507E5
:101C3000F092560700915C0710915D070130110585
:101C400009F470C00CF060C06AE672E081E792E0CF
:101C50000115110509F463C08091CB0780FFA4C46E
:101C6000809157078111F5CE8091470790914807E1
:101C7000A0914907B0914A0716012701281A390A8D
:101C80004A0A5B0AD201C1018A3F9105A105B1054B
:101C900008F4DFCE81E080935707C0924707D092C7
:101CA0004807E0924907F0924A07C0925307D09242
:101CB0005407E0925507F092560701151105E1F51A
:101CC00021E030E030935B0720935A0710924607DB
:101CD0001092450780936E078091C2079091C307C9
:101CE00090935907809358070AEFC00ED11CE11C4E
:101CF000F11CC0924B07D0924C07E0924D07F09236
:101D00004E07A7CE019756CF0230110581F069E842
:101D100072E081E992E00330110509F09DCF0E9445
:101D2000C90B9ACF6AE672E089E792E0F8CF6AE2DF
:101D300072E081E892E0F3CF01301105D1F424E0A4
:101D400030E030935B0720935A07109246071092B9
:101D5000450780936E078091C2079091C3079093C7
:101D60005907809358071AEFC10ED11CE11CF11CD2
:101D7000C0CF0230110579F485E090E090935B07C5
:101D800080935A07C092B107D092B207E092B3078E
:101D9000F092B4075ECE0330110509F05ACE9CCE06
:101DA0008230910509F09AC180910607811111C016
:101DB00069E972E080EA92E00E94C90B0E94440344
:101DC00081E0809306076AEC77E08BEC97E00E9455
:101DD00089090E9444032B013C017BEC272E77E00C
:101DE000372E0E9444036B017C01BE016F5F7F4F61
:101DF000CE0109960E94890989848091CB078816B3
:101E0000A1F1882669E9A62E61E0B62E10E000E077
:101E1000912CC401002E02C0959587950A94E2F793
:101E200080FF18C0F50180819181298530E0002E66
:101E300002C0359527950A94E2F720FF35C167EA7D
:101E400072E00E94C90B41E061E0802F0E943009DE
:101E5000260137010F5F1F4FF4E0AF0EB11C0830B1
:101E60001105B9F689858093CB0789808091CA07CF
:101E70008816A1F1882659E7A52E51E0B52E10E06D
:101E800000E0912CC401002E02C0959587950A941C
:101E9000E2F780FF18C0F50180819181298130E04F
:101EA000002E02C0359527950A94E2F720FF02C163
:101EB00067EA72E00E94C90B41E062E0802F0E9455
:101EC0003009260137010F5F1F4FF4E0AF0EB11C40
:101ED00008301105B9F689818093CA078985811177
:101EE0001CC08981811119C0D701C60184199509C7
:101EF000A609B709883E9340A105B10570F069E9CC
:101F000072E080EA92E00E94C90B2601370110E1DD
:101F1000410E17E2511E611C711C0E9407060E94AF
:101F200055058091C2079091C307209158073091C1
:101F30005907821B930B0091BE071091BF07209198
:101F4000040730910507021B130B009709F444C0E6
:101F500040910007509101076091020770910307BB
:101F600046015701841A950AA60AB70AB501A401C9
:101F7000443B51056105710578F16EE472E0181675
:101F8000190614F065E572E085EB92E00E94C90B3A
:101F900068EE73E080E090E00E94120369E972E06D
:101FA00080EA92E00E94C90B8091C2079091C3071A
:101FB0009093590780935807C0920007D092010769
:101FC000E0920207F09203072601370120E1420E5A
:101FD00027E2521E611C711C0115110539F16EE4D6
:101FE00072E01016110614F065E572E08CEB92E0D9
:101FF0000E94C90B68EE73E080E090E00E9412033B
:1020000069E972E080EA92E00E94C90B8091BE0704
:102010009091BF079093050780930407260137012D
:1020200030E1430E37E2531E611C711C8985982FE5
:10203000917080FF4DC08091FF06811149C0409191
:10204000FB065091FC066091FD067091FE0646016C
:102050005701841A950AA60AB70AB501A401443F9C
:1020600051406105710560F568EC70E080E090E03A
:102070000E9412031092D4071092D30710926D079A
:1020800010926C0710926B070E94D8086AE272E007
:10209000CB010E94C90B10925B0710925A07109255
:1020A0006E0710920607D5CC6EEA72E00E94C90B4B
:1020B00040E0CACE6EEA72E00E94C90B40E0FDCE5D
:1020C000C092FB06D092FC06E092FD06F092FE065E
:1020D0009093FF06C1010197F1F783CE83309105FC
:1020E00009F0F0C080911007811119C063EC72E013
:1020F0008AEC92E00E94C90B68EE73E080E090E009
:102100000E94120381E0809310070E9444036093B1
:102110000C0770930D0780930E0790930F070E9492
:1021200044039924939499E4B92E2EE6A22E32E327
:10213000832E41E3742E0BEC17E00E9444036B01E5
:102140007C01BE01605F7F4FCE0141960E948909EC
:1021500080910C0790910D07A0910E07B0910F0789
:10216000A7019601281B390B4A0B5B0BDA01C90149
:10217000883E9340A105B10568F080910001892552
:1021800080930001C0920C07D0920D07E0920E07D9
:10219000F0920F0780910001B986AA868823B9F1D1
:1021A0007B8680E28C878989482F50E091E386FF07
:1021B00090E39D8787FF27C081E38E871F86FE01FE
:1021C000319685E090E09A01082E02C0359527955A
:1021D0000A94E2F720FF19C021E32193019798F7B1
:1021E0001F82BE016F5F7F4FCE0109960E94C90B0F
:1021F0008989982F917080FD2FC090930B07C8019B
:102200000197F1F79ACF80E3D8CF20E3E6CF8B8612
:1022100080E28C878889482F50E091E386FF90E325
:102220009D8787FF15C081E38E871F86FE0131964B
:1022300085E090E09A01082E02C0359527950A9412
:10224000E2F720FF07C021E32193019798F7C8CF59
:1022500080E3EACF20E3F8CF80910B078111CDCF47
:1022600040910707509108076091090770910A078C
:1022700016012701241A350A460A570AB201A1019C
:10228000443F514061057105A0F468EC70E080E0C6
:1022900090E00E9412036AE272E0CB010E94C90B37
:1022A00010925B0710925A0710926E071092100757
:1022B000D0CBC0920707D0920807E0920907F092AE
:1022C0000A079BCF8430910509F0EFC02091C20727
:1022D0003091C3078091580790915907281B390BFB
:1022E00009F46DC080914F0790915007A09151075C
:1022F000B0915207B701A601481B590B6A0B7B0B23
:10230000DB01CA018C329140A105B10508F457C028
:1023100080914B0790914C07A0914D07B0914E07CB
:10232000C816D906EA06FB0608F432CC80914507A8
:1023300090914607121613060CF096C001969093E2
:10234000460780934507809145079091460797FF80
:1023500004C010924607109245078091450790915E
:102360004607039734F082E090E09093460780930D
:1023700045078091C2079091C307909359078093B6
:102380005807C0924F07D0925007E0925107F09241
:102390005207D701C6018C549F4FAF4FBF4F809358
:1023A0004B0790934C07A0934D07B0934E07C092F4
:1023B0005307D0925407E0925507F09256070091C8
:1023C0004507109146070130110509F44FC002304E
:1023D000110509F452C06AE672E081ED92E0011540
:1023E000110509F447C08091CB0780FFDDC08091C3
:1023F000570781112ECB8091470790914807A091F4
:102400004907B0914A0716012701281A390A4A0AD2
:102410005B0AD201C1018A3F9105A105B10508F40B
:1024200018CB81E080935707C0924707D0924807A6
:10243000E0924907F0924A07C0925307D09254079E
:10244000E0925507F092560701151105D9F482E084
:1024500090E090935B0780935A076AEC77E08BECEF
:1024600097E00E9489098ECC019769CF63EC72E0F6
:1024700089ED92E00E94C90BB6CF6AE272E081EE6C
:1024800092E0F8CF0130110539F483E090E09093A9
:102490005B0780935A07DDCA0230110509F0D9CADB
:1024A00010925B0710925A073ACB8530910509F0DC
:1024B0007EC0EBE1F1E090E080E0219121110FC0BE
:1024C0009E012F5F3F4FF901E80FF91F80E2AF0136
:1024D000421B530B473051059CF48193F8CF873052
:1024E000910574F4203219F48430910534F7A1E099
:1024F000B0E0AC0FBD1FA80FB91F2C930196DDCF24
:102500001886A2E1B1E0FE01399690E080E02D91BD
:10251000211112C0E9E0F0E0EC0FFD1FE80FF91FF8
:1025200029E030E02C0F3D1F2A5F3F4F80E2E21789
:10253000F30741F08193FBCF8630910519F00196A6
:102540002193E5CF1F86BE01675F7F4FCE010196C5
:102550000E94C90B8091CB0780FF26C0809157074E
:10256000811177CA8091470790914807A091490748
:10257000B0914A0746015701881A990AAA0ABB0A6C
:10258000D501C4018A3F9105A105B10508F461CACE
:1025900081E080935707C0924707D0924807E092A6
:1025A0004907F0924A077CCF1092570752CA019709
:1025B00009F004C22091C2073091C30780915807E7
:1025C00090915907281B390B09F46DC080914F0772
:1025D00090915007A0915107B0915207B701A60101
:1025E000481B590B6A0B7B0BDB01CA018C329140F3
:1025F000A105B10508F457C080914B0790914C0795
:10260000A0914D07B0914E07C816D906EA06FB0601
:1026100008F4BECA8091450790914607121613062A
:102620000CF0A3C0019690934607809345078091D4
:1026300045079091460797FF04C0109246071092F5
:1026400045078091450790914607069734F085E04D
:1026500090E090934607809345078091C207909140
:10266000C3079093590780935807C0924F07D092A1
:102670005007E0925107F0925207D701C6018C54DF
:102680009F4FAF4FBF4F80934B0790934C07A09342
:102690004D07B0934E07C0925307D0925407E09273
:1026A0005507F092560700914507109146070230F2
:1026B000110509F470C00CF05AC00115110509F498
:1026C00065C066EF72E08DEF92E00130110509F40C
:1026D0005AC08091CB0780FF67CF80915707811147
:1026E000B8C98091470790914807A0914907B091D8
:1026F0004A0716012701281A390A4A0A5B0AD20139
:10270000C1018A3F9105A105B10508F4A2C9BB2406
:10271000B394B0925707C0924707D0924807E0920F
:102720004907F0924A07C0925307D0925407E092AB
:102730005507F092560701151105E1F5B0926A07A9
:1027400083E090E09093DA078093D9070E944403D6
:102750006093B1077093B2078093B3079093B40767
:1027600087E293E00E94590A74C901975CCF043054
:102770001105D9F0ACF06AE272E081EE92E005302A
:10278000110509F0A6CF0E94C90BA3CF68EE72E035
:102790008FEE92E0F8CF64E073E08BE093E0F3CF4C
:1027A0006AE672E082E193E0EECF69E173E080E2F5
:1027B00093E0E9CF0130110581F50E9444036B01DC
:1027C0007C011092D4071092D30710926D071092DB
:1027D0006C0710926B070E94D8080E9444036C1982
:1027E0007D098E099F09683873418105910578F448
:1027F0000E9444036C197D098E099F090E94220CD6
:1028000060E570E080E090E00E941203E6CF6AE2AB
:1028100072E0CB010E94C90B43CE0230110509F0D2
:1028200042C00E9444034B015C0164E073E088E312
:1028300093E00E94C90B68EE73E080E090E00E9494
:10284000120388E1C82E8CEFD82EEE24EA94FE2CD9
:10285000C818D908EA08FB080E94440368197909D6
:102860008A099B09683873418105910578F40E94B3
:1028700044036C0D7D1D8E1D9F1D0E94090964E699
:1028800070E080E090E00E941203E6CF1092D4073F
:102890001092D30710926D0710926C0710926B077D
:1028A0000E94D808FDCD03301105C1F50E944403F4
:1028B0006B017C016AE672E082E193E00E94C90B41
:1028C00068EE73E080E090E00E9412031092D4075B
:1028D0001092D30710926D0710926C0780E88093D6
:1028E0006B070E94D8080E9444036C197D098E0969
:1028F0009F09683873418105910508F088CF0E94CF
:1029000044036C197D098E099F090E94460862E301
:1029100070E080E090E00E941203E5CF04301105E2
:1029200009F047C00E9444036B017C016AE672E033
:102930008FE393E00E94C90B8FEF9FEF9093D40732
:102940008093D307B0926D07B0926C0780936B07AA
:102950000E94D8080E9444036C197D098E099F09C2
:10296000683873418105910578F40E9444036C191D
:102970007D098E099F090E948D0868E270E080E061
:1029800090E00E941203E6CF1092D4071092D30772
:1029900010926D0710926C0710926B070E94D80876
:1029A00086E493E00E94590A80910D010E94C308B9
:1029B00077CD0530110509F04CC872CD80914107E3
:1029C00090914207A0914307B0914407B701A60137
:1029D000481B590B6A0B7B0BDB01CA018C329140FF
:1029E000A105B10508F435C8C0924107D09242074D
:1029F000E0924307F092440780914007882341F119
:102A00008BE297E00E9429072091290730912A073D
:102A10002F5F3F4F8630910514F486E090E00697D3
:102A2000821793070CF443C030932A072093290799
:102A30004091290750912A076BE277E081E391E00A
:102A40000E94FB0661E371E090E080E00E940B0BC6
:102A500080912807882311F40C94290D83E197E0D5
:102A60000E94290720911107309112072F5F3F4FD5
:102A70008630910514F486E090E00697821793075C
:102A8000DCF0309312072093110740911107509109
:102A9000120763E177E085E291E00E94FB0665E2C0
:102AA00071E081E090E00E940B0B0C94290D1092D4
:102AB0002A0710922907BCCF109212071092110713
:102AC000E4CF882361F06BE673E082E793E00E9435
:102AD000C90B68EE73E080E090E00E9412030E9450
:102AE000160162E370E080E090E00E94120388E14A
:102AF00098E00FB6F894A895809360000FBE90936D
:102B00006000FFCF1F920F920FB60F9211242F93E8
:102B10003F938F939F93AF93BF938091DC079091E6
:102B2000DD07A091DE07B091DF073091DB0723E0DE
:102B3000230F2D3758F50196A11DB11D2093DB07FA
:102B40008093DC079093DD07A093DE07B093DF0747
:102B50008091E0079091E107A091E207B091E3072F
:102B60000196A11DB11D8093E0079093E107A0930A
:102B7000E207B093E307BF91AF919F918F913F918F
:102B80002F910F900FBE0F901F90189526E8230FDE
:102B90000296A11DB11DD2CF1F920F920FB60F92B8
:102BA00011242F933F934F935F936F937F938F9352
:102BB0009F93AF93BF93CF93EF93FF93C091E100A7
:102BC0008091E100837F8093E100C3FF0FC01092EA
:102BD000E90081E08093EB001092EC0082E38093A7
:102BE000ED001092F10788E08093F000C2FF1AC058
:102BF0000E94160180916307882341F0809163074A
:102C0000815080936307811101C05D988091F00726
:102C1000882341F08091F00781508093F007811163
:102C200001C02898C4FF23C08091E2008E7E81609D
:102C30008093E2008091E1008F7E8093E10080919B
:102C400064078E7E806180936407FF91EF91CF913E
:102C5000BF91AF919F918F917F916F915F914F91B4
:102C60003F912F910F900FBE0F901F901895C0FFAE
:102C7000ECCF8091E2008E7E80618093E2008091B3
:102C8000E1008E7E8093E100809164078E7E8160FA
:102C9000DACF1F920F920FB60F921124CF92DF92CC
:102CA000EF92FF920F931F932F933F934F935F9356
:102CB0006F937F938F939F93AF93BF93EF93FF9304
:102CC000CF93DF93CDB7DEB76C97DEBFCDBF109249
:102CD000E9008091E80083FF25C068E0CE014596B9
:102CE0000E94080482EF8093E8008D8987FF39C035
:102CF0009091E80090FFFCCF982F907609F034C1B6
:102D00009E894F89588D2F89F88C911131C0803858
:102D100061F5809165078093F1001092F1008EEFCC
:102D20008093E8006C960FB6F894DEBF0FBECDBF5F
:102D3000DF91CF91FF91EF91BF91AF919F918F91D3
:102D40007F916F915F914F913F912F911F910F91C3
:102D5000FF90EF90DF90CF900F900FBE0F901F90DD
:102D600018959EEF9093E800C7CF1092F100D5CF51
:102D7000913059F48111D3CF4130510581F68091C2
:102D800065078D7F80936507CACF933049F4811121
:102D9000C6CF4130510519F6809165078260F2CFA8
:102DA000953041F48091E80080FFFCCF20682093AB
:102DB000E300B5CF963009F0A9C00B8D1C8D22E041
:102DC0001092E9001092610710926007F2122EC073
:102DD00010925F0710925E070E94D7031F8299E04E
:102DE0009983FA8291E09E8390EA98879AEF998777
:102DF0002091600730916107275F3F4F3C832B8311
:102E00008D831092E9001092610710926007109371
:102E10005F0700935E0749E050E0BE016F5F7F4FA0
:102E200080E00E94B1030E94D70379CF10935F071F
:102E300000935E070E945C01DC0112960D911C91CB
:102E40000115110509F451C1D801ED91FC910480DF
:102E5000F581E02DBE016B5E7F4FC801099500979B
:102E600009F03EC1F80100851185EACFF3E0FF12B9
:102E70000EC08F89882309F440C0823061F440E895
:102E80006DE080E191E00E947E03811148CF81E2F4
:102E90008093EB0047CF813029F440E86BE084E079
:102EA00091E0F1CF833099F70E945C01DC0112962A
:102EB000ED90FC908E010F5F1F4F6801E114F1044B
:102EC00079F0D701ED91FC910680F781E02DB801F2
:102ED000C7010995080F111DF701E084F184EECFB9
:102EE000D8011C92F60101900020E9F73197BF014B
:102EF0006C197D0940E0C601C6CF6EEE70E0FB01A3
:102F0000449150E080E80E94B10309CF973009F462
:102F1000BECF983021F481E08093F10000CF99304A
:102F200009F0FDCE837009F0B2CFEAEBF1E081E069
:102F300031E096E32191222371F08093E9003093F0
:102F4000EB00DF0111972C912093EC009093ED00A2
:102F50008F5F873079F78EE78093EA001092EA005E
:102F60008F898093F107DBCE8B8D9C8D1092E900C9
:102F7000109261071092600790935F0780935E073D
:102F8000898D811192C08E899D89913A49F481324F
:102F900009F07DCF47E050E065E071E080E0B3CF1D
:102FA000913209F074CF833269F48F89988DB0E043
:102FB000A0E08093010190930201A0930301B093DC
:102FC0000401ADCE803269F48091E80082FFFCCF2D
:102FD00067E085E091E00E9408048BEF8093E800B1
:102FE0009ECE823209F09BCE8F8980930C01EEEF4A
:102FF000FFE7859194918B3F9C4D51F1E0E0F8E023
:103000008091050190910601A0910701B0910801FE
:10301000803B9440A105B105F1F480910C0180FD45
:103020001AC0EE3F8AE0F80789F587E797E79183B2
:103030008083809160008093620788E19BE00FB6F7
:10304000F894A895809360000FBE9093600067CEBF
:10305000EEEFFAE0D5CF808191818737974709F06D
:103060005ECEA89580916000886180936000809119
:10307000620780936000EE3F2AE0F20789F08091BA
:10308000FE0A9091FF0A9183808349CE80819181CD
:103090008737980751F29093FF0A8093FE0AC5CFB5
:1030A0001092FF0A1092FE0A3ACE0E945C01DC01E7
:1030B00012960D911C910115110509F4E8CED80165
:1030C000ED91FC910190F081E02DBE016B5E7F4F90
:1030D000C8010995811123CEF80100851185EBCF38
:1030E000181619060CF41BCED2CEF1E0FF12BECE9C
:1030F00062EF70E004CFFC01DB019D91BD019923DB
:1031000079F021918FE9820F8A3108F420528FE9FA
:10311000890F8A3108F49052291771F380E00895DD
:1031200081E008950C94C328FF920F931F93CF93CF
:10313000DF93EC01F62E08811981C8010E94BB289B
:10314000F81621F06F2DC8010E94C328CE01DF912F
:10315000CF911F910F91FF900895CF93DF9310921D
:10316000F5071092F40788EE93E0A0E0B0E08093BA
:10317000F6079093F707A093F807B093F9078BED44
:1031800091E09093F3078093F2078FEF9FEF909376
:10319000FF078093FE07C2E1D0E0D0939508C0936B
:1031A000940882E090E090939708809396082FE02F
:1031B00030E0309399082093980890939B0880936F
:1031C0009A0861E082E10E94130261E08091960812
:1031D0000E94130261E0809198080E94130261E04E
:1031E000809198080E94E501D0939508C0939408B7
:1031F000E4E5F8E0119288E0E439F807D9F7D0E087
:10320000C0E080919A0890919B08C817D90774F57F
:1032100040E06FE0CE010E94C90780919A0890912A
:103220009B08C817D9072CF447E06BE0CE010E9439
:10323000C90740E069E0CE010E94C90780919A0861
:1032400090919B08C817D9071CF4CE010E940B0867
:1032500080919A0890919B08C817D9072CF440E0F8
:103260006CE0CE010E94C9072196CBCF80913E0130
:10327000982F93709093430890E095958795959536
:103280008795837080934208DF91CF910895CF9303
:10329000DF93CDB7DEB7C75BD1090FB6F894DEBFB9
:1032A0000FBECDBF789484B5826084BD84B5816043
:1032B00084BD85B5826085BD85B5816085BD809101
:1032C0006E00816080936E00109281008091810079
:1032D0008260809381008091810081608093810071
:1032E0008091800081608093800080919100826055
:1032F00080939100809191008160809391008091F2
:1033000090008160809390008091C10084608093E0
:10331000C1008091C10082608093C1008091C10092
:1033200081608093C1008091C30081608093C3005D
:103330008091C00082608093C0008091C200816053
:103340008093C20080917A00846080937A0080919B
:103350007A00826080937A0080917A008160809305
:103360007A0080917A00806880937A001092F10749
:1033700010926507109264078091D7008160809356
:10338000D70080EA8093D80089B5806189BD89B56E
:10339000826089BD09B400FEFDCF61E070E080E08D
:1033A00090E00E9412038091D8008F7C806180930E
:1033B000D8008091E000807F8093E0008091E10060
:1033C0008E7E8093E1008DE08093E200559A209AF2
:1033D0005D9828980FB6F894A89580916000886150
:1033E00080936000109260000FBE8FEF9FEF90936C
:1033F000FF078093FE0761E084E00E94130261E012
:1034000085E00E94130261E086E00E94130261E001
:103410008EE00E94130261E080E10E94130261E0ED
:1034200083E00E94130260E083E10E94130261E0E6
:1034300084E10E94130261E085E10E94130262E0D0
:1034400087E00E94130262E088E00E94130262E0BB
:1034500089E00E94130262E08AE00E9413028091D8
:103460009A0890919B081816190634F441E06CE014
:1034700090E080E00E94C90700910D0110E0B801C2
:1034800090E080E00E947E0880919A0890919B08CD
:103490001816190624F490E080E00E940B08809131
:1034A0009A0890919B08029734F041E06CE081E02B
:1034B00090E00E94C907B80181E090E00E947E0878
:1034C00080919A0890919B08029724F081E090E007
:1034D0000E940B0890E080E00E94090B182F81E009
:1034E00090E00E94090B982F812F8A35954A29F088
:1034F00088E793E00E94590A17C082E090E00E949A
:10350000090B182F823009F4C0C082E993E00E94B1
:10351000670A612F70E090E080E04AE00E94E509D0
:1035200089EE91E00E94D8090E9434071092D407D6
:103530001092D30710926D0710926C0710926B07D0
:103540000E94D80888ED93E00E94670A60913E01CE
:1035500070E090E080E042E00E94E5098DEF93E0AA
:103560000E94670A6091430870E090E080E042E0CA
:103570000E94E50984E094E00E94670A6091420895
:1035800070E090E080E042E00E94E5098BE094E08A
:103590000E94590A8EE094E00E94670A609124011B
:1035A00070E090E080E04AE00E94E5098EE194E05E
:1035B0000E94670A609110017091110190E080E013
:1035C0004AE00E94E50987E294E00E94670A609160
:1035D0000E0170910F0190E080E04AE00E94E50941
:1035E00080E394E00E94670A82E191E00E94590A18
:1035F0001092DA071092D9070E944403609366077D
:103600007093670780936807909369076E01F1E4F0
:10361000CF0ED11C4E0121EA820E911C0E94440360
:103620002B013C018091D9079091DA07009709F0AE
:10363000C4C10E944403009166071091670720915E
:10364000680730916907DC01CB01801B910BA20B4D
:10365000B30B86399105A105B10508F093C08AEA3C
:103660009AEA9093D4078093D30781E080936D0703
:1036700010926C0788EC80936B070E94D8086AE26E
:1036800072E0CB010E94C90B90C16E0131E4C30E00
:10369000D11C760103E010E0C8010E94090BD7019C
:1036A0008D937D010F5F1F4F0B301105A9F7F601B8
:1036B00010869E012F5F3F4F79015901C8010E947A
:1036C000090BD5018D935D010F5F1F4F033111056C
:1036D000A9F7198683E190E00E94090B182FB70122
:1036E000C6010E94FE00181719F08FEA93E002CF7E
:1036F000A601485F5F4F90E080E0F60121916F01E5
:10370000322F3F7D29F0FC01EE5EFE4F20830196B3
:103710004C155D0591F7009761F18E5E9E4FDC01BF
:103720001C92ABE1B1E0A70190E080E0FA01319199
:10373000AF01232F2F7D01F5FC01EE0DFF1D21911F
:103740002F7DD1F4BF016E197F0968307105BCF37C
:10375000009711F40C9491289C0121503109F90132
:10376000E55EFE4F4081403211F00C947B28C90188
:10377000EFCF10921201D5CF01963D93883091057D
:10378000A9F6E6CF8C3231E09307A105B10560F4CC
:1037900085E595E59093D4078093D30710926D0744
:1037A00081E080936C0766CF823C41E09407A105DD
:1037B000B105A8F48FEF9FEF9093D4078093D307C0
:1037C00081E080936D0780936C0788EC80936B0792
:1037D0000E94D80869E374E080E494E053CF883510
:1037E00052E09507A105B10528F469E374E087E488
:1037F00094E048CF8E3EE2E09E07A105B10528F493
:1038000069E374E08EE494E03DCF8438F3E09F07F1
:10381000A105B10528F469E374E085E594E032CFB1
:103820008A3124E09207A105B10528F469E374E028
:103830008CE594E027CF803B34E09307A105B105E8
:1038400028F469E374E083E694E01CCF863445E015
:103850009407A105B10528F469E374E08AE694E0D1
:1038600011CF8C3D55E09507A105B10528F469E31A
:1038700074E081E794E006CF8237E6E09E07A10579
:10388000B10528F469E374E088E794E0FBCE883062
:10389000F7E09F07A105B10528F469E374E08FE71D
:1038A00094E0F0CE8E3927E09207A105B10528F407
:1038B00069E374E086E894E0E5CE82399940A10599
:1038C000B10508F04CC0EBE1F1E090E080E021911F
:1038D00021110FC09E012F5F3F4FF901E80FF91F23
:1038E00080E2AF01421B530B473051059CF481939A
:1038F000F8CF8730910574F4203219F484309105A3
:1039000034F7A1E0B0E0AC0FBD1FA80FB91F2C9396
:103910000196DDCF1886A2E1B1E090E080E02D9124
:1039200021110CC0F601E80FF91F96012A5F3F4FE5
:1039300080E2E217F30761F08193FBCF86309105B7
:1039400039F00196FC013197EC0DFD1D2083E7CF86
:10395000D60116961C92B601CE01019693CE109216
:10396000D4071092D30710926D0710926C07109233
:103970006B070E94D8086AE272E0CB010E94C90B73
:1039800081E090E09093DA078093D90780917007E7
:1039900081110BC066E970E080E090E00E941203A4
:1039A0000E94ED0A81E08093700780E090E0892B0F
:1039B00009F434CE0E94000031CE8230910519F412
:1039C0000E949E0CF2CF039709F09AC10E94440313
:1039D0000091B1071091B2072091B3073091B4075D
:1039E0002B013C01401A510A620A730AB0ED4B16D2
:1039F000B7E05B066104710488F41092D40710925A
:103A0000D30710926D0710926C0710926B070E94FB
:103A1000D8086DE874E083E692E034CEE8E54E160F
:103A2000EBE15E0661047104A8F41092D4071092D1
:103A3000D30710926D0710926C0710926B070E94CB
:103A4000D808C301B201605D7740810991090E94E5
:103A5000220CABCFF0E14F16F7E25F066104710470
:103A6000A8F48FEF9FEF9093D4078093D30781E062
:103A700080936D0780936C078FEF80936B070E9494
:103A8000D80864E974E08BE994E0FCCD28E942169B
:103A90002AE352066104710408F072C01092D40740
:103AA0001092D30710926D0710926C0780E88093F4
:103AB0006B070E94D808B401CE0187559F4F0E9422
:103AC0008909C755DF4F4881C95AD04050E0FE01EF
:103AD000EF57FF4F27E030E0CF01BA01022E02C0BE
:103AE000759567950A94E2F760FF46C061E36193BC
:103AF000215031092130310581F7DC0116961C92E5
:103B0000F401408150E0FE01EF59FF4F27E030E023
:103B1000BF01DA01022E02C0B595A7950A94E2F71B
:103B2000A0FF2CC0A1E3A193215031092130310520
:103B300081F7DB0116961C920E94C90BC755DF4F17
:103B40006881C95AD040C6010E949307F401608180
:103B5000CE0101960E94930782EA94E00E94670AD0
:103B6000C6010E94670A8CEA94E00E94670ACE01AF
:103B700001960E94590A19CF60E3B9CFA0E3D3CFD1
:103B8000F0E24F16FEE45F066104710478F46AE621
:103B900072E088E393E00E94C90BC301B201685947
:103BA0007A43810991090E940909FFCE28EA421649
:103BB00021E652066104710410F51092D4071092A8
:103BC000D30710926D0710926C0780E880936B0703
:103BD0000E94D8086AE672E082E193E030EF431673
:103BE00035E553066104710408F44CCDC301B201FC
:103BF00068507245810991090E944608D6CE40E37B
:103C0000441645E7540661047104F8F46AE672E06C
:103C10008FE393E00E94C90B8FEF9FEF9093D4073F
:103C20008093D30781E080936D0780936C078FEFBB
:103C300080936B070E94D808C301B201685A71468D
:103C4000810991090E948D08B0CE58EE451650E8C2
:103C500055066104710480F41092D4071092D307C2
:103C600010926D0710926C0780E880936B070E949A
:103C7000D80862EB74E0CFCE80910D010E94C3089A
:103C80001092D4071092D30710926D0710926C0710
:103C900010926B070E94D8086AE272E0CB010E9482
:103CA000C90B80916A07882321F10E94D8086AE233
:103CB00072E0CB010E94C90B6AE272E090E080E002
:103CC0000E940B0B6AE272E081E090E00E940B0B15
:103CD00082E090E09093DA078093D90710926E0704
:103CE00010926A071092B5071092BA0789EB94E018
:103CF00040CF81E090E09093DA078093D907F2CF2C
:103D00008091D5079091D607A091D707B091D80799
:103D1000481659066A067B0608F447CE82EF97E0FC
:103D20000E94F804892B11F40C94C62682EF97E0C8
:103D30000E94B6048D3091F38A3009F48BE3E1E7F9
:103D4000F7E001900020E9F7E257F740EF33F10583
:103D500020F4EF58F84F80831182CE0101961C01A8
:103D60006BE370E081E797E00E944D290097B1F284
:103D7000DC011C92A1E7B7E0AD014F5F5F4F2C91D2
:103D80002032A9F07E01E1E8EE0EF11C970170E00F
:103D900060E0BE2CAF2C4D91442359F06F3171057A
:103DA00041F0F90141939F016F5F7F4FF4CFDA013A
:103DB000E3CFFB01EE0DFF1D1082EE16FF0619F09A
:103DC00022912032C9F3BC016F5F7F4FDB010D9060
:103DD0000020E9F7AD01461B570B81E797E00E94F1
:103DE0003429F7018081882309F4BACFFE01EF5905
:103DF000FF4F90E080E08F01D7012D917D012223BC
:103E000059F08F31910541F03FE9320F3A3108F412
:103E1000205221930196F0CF800F911FFC01108258
:103E200068EC74E0C8010E945829892B79F06CEC89
:103E300074E0C8010E945829892B41F064ED74E0B8
:103E4000C8010E945829892B09F055C00E94ED0A2B
:103E500081E08093700785EC91E09F938F938AEDCA
:103E600094E09F938F931F9288E08F93DF92CF927D
:103E70000E94702960E270E08BE191E00E944D2980
:103E80000FB6F894DEBF0FBECDBF009789F1019643
:103E90009F938F9381EE94E09F938F931F9288E07E
:103EA0008F933F922F920E947029B101C6010E9408
:103EB000C90B68E873E180E090E00E9412036AE2B7
:103EC00072E0CB010E94C90B0E94440368537F4FEC
:103ED0008F4F9F4F6093D5077093D6078093D70776
:103EE0009093D8070FB6F894DEBF0FBECDBF38CF82
:103EF0008BE191E0CDCF68EE74E0C8010E945829B3
:103F0000892B39F410926F078CE395E00E94590ACF
:103F100027CF6DEE74E0C8010E945829892B01F566
:103F200081EF94E00E94670A60E270E08BE191E02B
:103F30000E944D298C01009781F0DC0111968C9133
:103F4000882359F086EF94E00E94670AC801019621
:103F50000E94670A87EC95E0D9CF8BE191E0F8CF1A
:103F600068EF74E0C8010E945829892B39F48EEF5C
:103F700094E00E94590A81E00E94611569E075E0B1
:103F8000C8010E945829892B19F40E946E0AE8CEB4
:103F90006DE075E0C8010E945829892BE1F48091F9
:103FA000D9079091DA07019709F0DACE82E090E024
:103FB0009093DA078093D9070E9444036093B10776
:103FC0007093B2078093B3079093B40710926E0773
:103FD00082E195E09BCF6AE370E08B2D9A2D0E94E1
:103FE0004D29892B09F4BCCEAF92BF9283E295E0B4
:103FF0009F938F931F9280E48F933F922F920E9402
:104000007029CA54DF4F39822882C65BD0400FB670
:10401000F894DEBF0FBECDBF90E080E0CA54DF4F02
:10402000A881B981C65BD040ED91CA54DF4FB983F6
:10403000A883C65BD040CB54DF4FE883C55BD0403C
:10404000EB3311F40C94B728EE2311F40C949D2853
:104050008F3191051CF7F601E80FF91FCB54DF4FA4
:104060003881C55BD04030830196D8CF7F01CD54D5
:10407000DF4FF982E882C35BD040F7018191803243
:10408000A9F3811109C0CB54DF4FB881C55BD04083
:10409000BB2309F465CEC0CF6AE370E0C7010E947C
:1040A0004D29009709F0D9C068EC74E0C7010E945F
:1040B0003B0581110EC06CEC74E0C7010E943B050A
:1040C000811107C064ED74E0C7010E943B0588239D
:1040D00059F00E94ED0ACB54DF4FE881C55BD04018
:1040E000EE2309F43DCE98CF69E075E0C7010E9448
:1040F0003B05882319F00E946E0AEDCF6DE075E054
:10410000C7010E943B058823D9F08091D90790917F
:10411000DA07019701F782E090E09093DA07809345
:10412000D9070E9444036093B1077093B20780934C
:10413000B3079093B40787E295E00E94590ACBCF6A
:1041400063E375E0C7010E947B18882321F2E4E055
:10415000EE0EF11C8701FFEFEF1AFF0AD8018C91D8
:104160008032C1F368EE74E0C8010E947B18882396
:1041700029F010926F0788E395E0DFCF66E475E0E1
:10418000C8010E947B18882309F4A5CF80916F078E
:10419000882309F45FC06BE171E082E191E00E9445
:1041A000FE00F82E32E1A32E31E0B32E10E000E045
:1041B0006501F60101900020E9F7CF01835191409C
:1041C00060E00817190714F4D5016C91C801039633
:1041D0000E9492180F5F1F4FBFEFAB1ABB0A083047
:1041E000110539F72BE1A22E21E0B22E10E000E0FC
:1041F0006501F60101900020E9F7CF018C51914053
:1042000060E00817190714F4D5016C91C8010B96EA
:104210000E9492180F5F1F4FBFEFAB1ABB0A083006
:10422000110539F76F2D83E190E00E9492181092EA
:104230006F076CE475E0CB010E94C90B68EE73E078
:1042400080E090E00E94120382E595E00E94590A06
:1042500080E092CE8DE595E070CFDC011D92F701F4
:1042600001900020E9F73197EE16FF0629F08291C0
:10427000803211F41082F8CF5701FFEFEF1AFF0AD6
:10428000F50180818032C1F38D01780198012F5FA3
:104290003F4FD8018C91803269F0F80101900020E5
:1042A000E9F731970E171F0739F08291803221F418
:1042B0001082F8CF8901E9CF6CE675E0C5010E9454
:1042C0003B058823B1F0C8010E947F079091D30776
:1042D0008927982789279093D4078093D3070E9432
:1042E000D808CB54DF4F2881C55BD040211194CE34
:1042F00037CD61E775E0C5010E943B05882331F0A9
:10430000C8010E947F078093D307E9CF66E775E075
:10431000C5010E943B05882361F0C8010E947F0708
:10432000982F917090936D078695817080936C079C
:10433000D6CF60E875E0C5010E943B05882381F077
:10434000C8010E94120597FD07C08F3F910509F033
:104350002CF480936B07C3CF80E0FBCF8FEFF9CFB6
:104360006BE775E0C5010E943B05882331F0C80169
:104370000E9412050E94C308B4CF63E875E0C5012E
:104380000E943B05882309F4BFC0C8010E941205A2
:104390005C016EE270E0C8010E944D299C01909181
:1043A000D207992321F080913D0181119ACFBFEF6F
:1043B000AB16BB0699F4232B09F061C010E000E0B6
:1043C00040E0B80190E080E00E942B080F5F1F4F93
:1043D00006301105A9F71092310183CF232B09F084
:1043E0004EC0E8E6AE16E1E0BE0608F048C0809197
:1043F000D30786FF26C080E28093310183E4809357
:1044000032018DE280933301BF92AF9288E895E04C
:104410009F938F931F9284E08F9384E391E09F9307
:104420008F930E9470291092370161E371E090E050
:1044300080E00E940B0B0FB6F894DEBF0FBECDBF1D
:1044400050CFA114B10471F440E0B50190E080E0D8
:104450000E942B083FEFA31AB30A46E0A416B1044A
:1044600099F7B9CFB12CA12CD8018D918D0188235A
:1044700031F18E32C9F3BFEFAB1ABB0AF5CF9923E6
:1044800089F080913D01B12CA12C81110DC0F80162
:1044900081918F01882399F08E32C9F3FFEFAF1A13
:1044A000BF0AF5CFB12CA12CD8018D918D018823A5
:1044B00031F08E32C9F3BFEFAB1ABB0AF5CF06E07D
:1044C00010E00A191B094CE050E0B70181E391E0CC
:1044D0001016110674F4A80160E270E081E391E027
:1044E0000E944629A5014A5F5F4FB701C8018F5C52
:1044F0009E4F0E94612910923C0161E371E090E0BF
:1045000080E00E940B0BEDCE6DE875E0C5010E94C6
:104510003B05882309F4B7C0C8010E9412055C015D
:104520006EE270E0C8010E944D299C019091D20773
:10453000992329F080913D01882309F4D2CEEFEF31
:10454000AE16BE0699F4232B09F05AC010E000E025
:1045500040E0B80181E090E00E942B080F5F1F4F00
:1045600006301105A9F710922501BBCE232B09F0C7
:1045700047C0F8E6AF16F1E0BF0608F041C08091F1
:10458000D30786FF1FC080E28093250183E48093D8
:1045900026018DE280932701BF92AF9288E895E0D3
:1045A0009F938F931F9284E08F9388E291E09F9373
:1045B0008F930E94702910922B0165E271E081E0D7
:1045C00090E037CFA114B10471F440E0B50181E06F
:1045D00090E00E942B083FEFA31AB30A46E0A4160E
:1045E000B10499F7C0CFB12CA12CD8018D918D01C8
:1045F000882331F18E32C9F3BFEFAB1ABB0AF5CF76
:10460000992389F080913D01B12CA12C882369F078
:10461000F80181918F01882399F08E32C9F3FFEF61
:10462000AF1ABF0AF5CFB12CA12CD8018D918D0105
:10463000882331F08E32C9F3BFEFAB1ABB0AF5CF36
:1046400006E010E00A191B094CE050E0B70185E2D2
:1046500091E01016110674F4A80160E270E085E2A2
:1046600091E00E944629A5014A5F5F4FB701C8014A
:104670008B5D9E4F0E9461291092300165E271E0CE
:1046800081E090E03ECF62E975E0C5010E943B0504
:10469000882361F168E975E0C8010E945829892BD7
:1046A000D9F4E1E0E093BB0760ED71E081E391E0D4
:1046B0000E945829892B09F014CE69EC71E085E23B
:1046C00091E00E945829892B09F00BCE6AE272E032
:1046D000CB010E94C90B05CE69E975E0C8010E94B3
:1046E0005829892BF1F21092BB07FBCD69E075E0E8
:1046F000C5010E943B058111F4CD68EC74E0C50151
:104700000E943B05882319F00E94ED0AEACD6BE96F
:1047100075E0C5010E943B05882309F4C9C0D70193
:104720008C91882309F4DDCD97017901F90180810D
:104730002F5F3F4F8032C9F38B33B9F3882309F4DD
:10474000D0CD6BE370E0C7010E944D298C0100972A
:1047500011F0DC011C926FE975E0C7010E947B1823
:10476000882349F0F70101900020E9F73197EE190D
:10477000FF09379718F563EA75E0C7010E947B18B7
:1047800081114DC067EA75E0C7010E947B1888233C
:1047900009F45BC0C70103960E9412058436910597
:1047A0000CF44DC08131E7E29E070CF04BC0282F7E
:1047B000892F209310018093110126C0F701858174
:1047C000813359F582E091E0D70116962C9121337F
:1047D00009F090E0982BF701838122E0813309F002
:1047E00020E081E0D70114963C91313309F080E05C
:1047F000822BB4E08B9F90011124292B20933E0142
:1048000090934308809342080115110509F48CC464
:10481000D801EBE3ED937D0182CF80E0D4CFC701D7
:1048200003960E94120597FD06C0843691052CF46C
:1048300080932401E9CF80E0FBCF83E6F9CF24E623
:1048400080E0B7CF20E187E2B4CF6BEA75E0C70123
:104850000E947B188823C1F0C70103960E941205AD
:10486000843691055CF08131F7E29F0754F4282FDC
:10487000892F20930E0180930F01C6CF24E680E09C
:10488000F8CF20E187E2F5CF65E272E0C7010E9430
:104890007B18882309F4B8CF48E050E0B7016C5F7B
:1048A0007F4F82E191E00E94612910921A01ACCF02
:1048B00063E375E0CD54DF4F88819981C35BD040BD
:1048C0000E947B18882309F40CCDCD54DF4F8881DA
:1048D0009981C35BD04004967C010196D7012C914D
:1048E0002032D1F36FEA75E0C7010E947B1888235C
:1048F000F1F060EC71E0C8010E945829892B71F435
:10490000B1E0B0936F0763EB75E089EB95E00E942F
:10491000C90B8FEB95E00E94590AE3CC6AEC75E075
:1049200089EB95E00E94C90B80ED95E0F4CF6FED27
:1049300075E0C7010E947B18882321F080916F07E2
:1049400081116EC062EE75E0C7010E947B18811173
:10495000DFC068EE74E0C7010E947B18811137C187
:1049600063E476E0C7010E947B18882321F08091E0
:104970006F07811131C166E475E0C7010E947B18A1
:10498000882309F4AECC80916F07882309F4FBC11A
:104990006BE171E082E191E00E94FE00F82E92E16D
:1049A000A92E91E0B92E10E000E06501D6010D902E
:1049B0000020E9F7CD018351914060E00817190705
:1049C00014F4F5016081C80103960E9492180F5FEC
:1049D0001F4FFFEFAF1ABF0A0830110539F78BE1FF
:1049E000A82E81E0B82E10E000E06501D6010D9000
:1049F0000020E9F7CD018C51914060E008171907BC
:104A000014F4F5016081C8010B960E9492180F5FA3
:104A10001F4FFFEFAF1ABF0A0830110539F702CC5C
:104A200058010F5F1F4FF50180818032C9F36EE29C
:104A300070E0C5010E944D298C01009709F465C002
:104A4000A816B90608F061C0D5010D900020E9F75D
:104A5000CD0102970817190708F057C0F801119205
:104A60007F01C5010E941205CD54DF4F99838883D1
:104A7000C35BD040C7010E9412052EE2D8012C93DF
:104A8000CD54DF4F28813981C35BD040215031099B
:104A900029303105B8F58A309105A0F59F938F93A1
:104AA000CC54DF4FB881C45BD040BF93CD54DF4FAF
:104AB000E881C35BD040EF9387EE95E09F938F939F
:104AC0001F9289E08F938BE191E09F938F930E94D7
:104AD00070290E943407BF92AF9281EE94E09F93B9
:104AE0008F931F9288E08F939F928F920E947029DC
:104AF00061EF75E0C4010E94C90B88EF95E00E9448
:104B0000590A99CC84E096E006CF83E196E003CF82
:104B100080916F07882309F41CCFD801ED917D01A6
:104B2000CD54DF4FE883C35BD040E032E9F1F801B8
:104B300001900020E9F731975F01A01AB10AC50181
:104B40000397069708F040C06DE270E0C8010E942C
:104B50004D290097C9F18E159F05B1F5CD54DF4F52
:104B6000F881C35BD0408F2FFF0F990B0E9424293F
:104B700021E0892B09F420E0780132E0E30EF11CFA
:104B8000A00EB11EAE14BF0489F02223E9F0D701B4
:104B90008D917D01082E000C990B0E94242921E0A3
:104BA000892B81F720E0EECF8701B7CF222361F078
:104BB00048E050E0B80182E191E00E946129109242
:104BC0001A0183E296E0A7CE81E396E0A4CE10928C
:104BD0006F0788E395E09FCEC8010F5F1F4FFC0170
:104BE00020812032C9F367E476E00E943B058823E8
:104BF00009F4C6C082E191E0DC010D900020E9F7E4
:104C0000CD0183519140A2E1B1E07E01E9EAEE0ECF
:104C1000F11CF70130E020E0670140E22817390776
:104C20000CF0AAC05C9150832F5F3F4F11963196D4
:104C30002830310599F7EBE1F1E001900020E9F728
:104C4000BF016C5171402BE131E05E01F1EAAF0E22
:104C5000B11CD50190E080E0450140E2861797073E
:104C60000CF08CC0F90150815C9301962F5F3F4F8F
:104C700011968830910591F7CF54DF4F1982188231
:104C8000C15BD0406AE5CE018F549F4F0E949418BB
:104C900081E090E0CF54DF4F99838883C15BD0409F
:104CA00065EACE018F549F4F0E94941882E090E0F5
:104CB000CF54DF4F99838883C15BD04062E0CE013F
:104CC0008F549F4F0E94941803E010E0D7016D911C
:104CD0007D01CF54DF4F19830883C15BD040CE01E3
:104CE0008F549F4F0E9494180F5F1F4F0B30110578
:104CF00069F7F50161915F01CF54DF4F1983088394
:104D0000C15BD040CE018F549F4F0E9494180F5F1B
:104D10001F4F0331110569F7B401C6010E94FE005F
:104D2000CF54DF4F19830883C15BD040682FCE0179
:104D30008F549F4F0E9494188BE496E00E94670A5C
:104D400082E191E00E94670A82ED93E00E94670A87
:104D50008BE191E00E94590A10926F076CE475E0B4
:104D6000CB010E94C90B68EE73E080E090E00E94E6
:104D700012038AE596E06ACA408356CF4C9375CFFA
:104D800087E696E0C8CD8DE595E0C5CD8091D20748
:104D90009091D30792FF43C1811116C081E08093A7
:104DA000D20780933D0186E0E8E7F6E0A1E3B1E0B9
:104DB00001900D928A95E1F71092370161E371E05D
:104DC00090E080E00E940B0B8091CE079091CF077E
:104DD000A091D007B091D107A3019201281B390BF4
:104DE0004A0B5B0BDA01C9010A97A105B10510F462
:104DF0000C94D51C4092CE075092CF076092D007FA
:104E00007092D1076CEC77E08DEC97E00E948909F5
:104E10008091D207882311F18091CD0780FF1EC0B9
:104E20008091CB0780FD1AC080913D0191E08927D8
:104E300080933D01882309F4F8C086E0E8E7F6E0B6
:104E4000A1E3B1E001900D928A95E1F7109237014C
:104E500061E371E090E080E00E940B0B8091CD0750
:104E60009091CB07891306C02091CC079091CA0777
:104E70002917D1F14091C6075091C7076091C80723
:104E80007091C90793018201041B150B260B370B88
:104E90004091240150E070E060E0041715072607F8
:104EA000370710F14092C6075092C7076092C807B3
:104EB0007092C9078093CB079091CC079093CA0753
:104EC0002091C507821304C08091C407981751F040
:104ED0000E947D0B8091CD078093C5078091CC0700
:104EE0008093C4070E946E0A8091CD07823029F416
:104EF00081E09091CC07913109F080E02091D907B1
:104F00003091DA072130310509F09FC0882309F478
:104F10009EC08091B507811117C082E090E0909308
:104F2000DA078093D9070E9444036093B107709316
:104F3000B2078093B3079093B40787E295E00E948D
:104F4000590A81E08093B5070E9407060E94550523
:104F50002091C2073091C3078091C0079091C1078B
:104F60002817390759F42091BE073091BF07809167
:104F7000BC079091BD072817390711F00E946E0AEF
:104F80000E9444032B013C018091BB078111AFC0FB
:104F90008091BA0781115EC06AE272E081E391E01C
:104FA0000E945829892B11F00C94D51C6AE272E0FA
:104FB00085E291E00E945829892B11F00C94D51CB0
:104FC00086E0E0EDF1E0A1E3B1E001900D928A9579
:104FD000E1F71092370186E0E9ECF1E0A5E2B1E0FB
:104FE00001900D928A95E1F710922B0161E371E037
:104FF00090E080E00E940B0B65E271E081E090E0C0
:105000000E940B0B4092B6075092B7076092B80708
:105010007092B90781E08093BA070C94D51C88235D
:1050200009F4D2CE1092D207CFCE86E0E8E7F6E0C0
:10503000A5E2B1E001900D928A95E1F710922B0163
:1050400065E271E081E090E007CF81117DCF1092A1
:10505000B5077ACF8091B6079091B707A091B807AE
:10506000B091B907481A590A6A0A7B0A30E1431617
:1050700037E253066104710410F40C94D51C60ED02
:1050800071E081E391E00E945829892B11F00C9482
:10509000D51C69EC71E085E291E00E945829892BCA
:1050A00011F00C94D51C86E0EAE2F2E0A1E3B1E055
:1050B00001900D928A95E1F71092370186E0EAE2BD
:1050C000F2E0A5E2B1E001900D928A95E1F710922D
:1050D0002B0161E371E090E080E00E940B0B65E240
:1050E00071E081E090E00E940B0B0C94D51C1092B3
:1050F000BA070C94D51C855E9E4FDC011C920E9461
:10510000340784EC93E00E94670A82E191E00E94F8
:10511000670A82ED93E00E94670A8BE191E00C94AC
:105120007A1A10921B01EBCFF70101900020E9F7EA
:105130009F01215031097901F2CA009711F40C94B2
:10514000B01E8C0D9D1DDC011C92F601019000200B
:10515000E9F731977601EC15FD0511F40C94372031
:105160008291803211F00C9437201082F4CF009796
:1051700041F70C940C20F999FECF92BD81BDF89AAD
:10518000992780B50895262FF999FECF1FBA92BDB1
:1051900081BD20BD0FB6F894FA9AF99A0FBE019618
:1051A000089597FB072E16F4009407D077FD09D0D9
:1051B0000E940D2907FC05D03EF4909581959F4FE4
:1051C0000895709561957F4F0895A1E21A2EAA1B4C
:1051D000BB1BFD010DC0AA1FBB1FEE1FFF1FA217A7
:1051E000B307E407F50720F0A21BB30BE40BF50BA4
:1051F000661F771F881F991F1A9469F7609570952D
:10520000809590959B01AC01BD01CF010895EE0FF3
:10521000FF1F0590F491E02D0994AA1BBB1B51E1DF
:1052200007C0AA1FBB1FA617B70710F0A61BB70B16
:10523000881F991F5A95A9F780959095BC01CD01BB
:10524000089585FD0C947A2B806291110C947A2B31
:1052500081568A51D8F708959111089581568A513F
:1052600008F48052855808956817790768F4FB019F
:10527000DC01E40FF51FA40FB51F02C002900E92CF
:1052800041505040D8F708950C94882BDC0101C0A0
:105290006D9341505040E0F70895FC0181918617CD
:1052A00021F08823D9F7992708953197CF010895E0
:1052B000FB01DC018D91019080190110D9F3990B4C
:1052C0000895FB01DC014150504048F001900D92DF
:1052D0000020C9F701C01D9241505040E0F70895E9
:1052E000AEE0B0E0E6E7F9E20C94382C0D891E89B7
:1052F0008F89988D26E02C831A83098397FF02C03B
:1053000080E090E801979E838D83AE01455E5F4FFC
:10531000698D7A8DCE0101960E94A0294D815E8112
:1053200057FD0AC02F813885421753070CF49A01A4
:10533000020F131FF80110822E96E4E00C94542CF7
:10534000ABE0B0E0E6EAF9E20C942A2C7C013B01E8
:105350008A01FC0117821682838181FFC8C1CE01B8
:1053600001965C01F7019381F30193FD859193FF11
:1053700081913F01882309F453C1853239F493FDAB
:10538000859193FF81913F01853229F4B70190E027
:105390000E949C2BE7CF912C212C312CFFE1F3159F
:1053A00038F08B3211F190F4803209F1833229F117
:1053B00037FC3CC020ED280F2A3050F536FE20C0C7
:1053C0008AE0989E200D1124922E06C08D3291F015
:1053D000803371F7689430F8F30193FD859193FF62
:1053E00081913F018111DACF21C0689431F868942E
:1053F00032F8F2CF689433F8EFCF689434F8ECCFFA
:10540000EAE02E9E200D1124222E689435F8E4CF78
:105410008E3229F436FC04C1689436F8DDCF8C3620
:1054200019F4689437F8D8CF8836B1F2982F9F7D59
:1054300095549330E0F08336A1F18337C1F1833581
:1054400009F063C02801F2E04F0E511CF801C08042
:10545000D180692D70E036FC02C06FEF7FEFC6018E
:105460000E947D2B4C01689437F882010AC00C5FC2
:105470001F4FFFE3F98388248394912C6501E894FE
:1054800037F833FE2DC0522C8114910471F555204C
:1054900009F468CFB70180E290E00E949C2B5A94F7
:1054A000F6CFF801808189830E5F1F4FE4CF28017A
:1054B000F2E04F0E511CF801C080D180692D70E0E0
:1054C00036FC02C06FEF7FEFC6010E94912B4C01AA
:1054D0008201D5CFB70180E290E00E949C2B2A94F4
:1054E0002814190409F0B0F7CECFF60137FC8591E6
:1054F00037FE81916F01B70190E00E949C2B511003
:105500005A94F1E08F1A9108BFCF843619F089368A
:1055100009F077C0F80137FE6BC06081718182812C
:1055200093810C5F1F4FF32DFF763F2E97FF09C02D
:1055300090958095709561957F4F8F4F9F4F6894A0
:1055400037F82AE030E0A5010E94CC2BC82ECA18FB
:105550008C2C432C36FE0CC0E89440F8C91440F45F
:1055600034FE05C032FC03C0F32DFE7E4F2E892C85
:1055700044FE95C0FE01EC0DF11D8081803309F0E1
:1055800087C0242D297E422E842D8870582E43FCFE
:1055900095C040FE8FC09C2C821418F42C0C922CC9
:1055A000981844FE91C0B70180E390E00E949C2BC4
:1055B00042FE09C088E790E041FE02C088E590E025
:1055C000B7010E949C2BC91408F48AC0CA94D12C3C
:1055D0009FEFC91AD90ACA0CDB1CF60182916F0130
:1055E000B70190E00E949C2BAC14BD04B1F74FCFE3
:1055F00060817181072E000C880B990B0E5F1F4F85
:1056000092CFD32CE894D4F82AE030E0853739F1F2
:10561000232D297FD22E8F3601F148F48835A9F049
:10562000F701868197812B96E2E10C94462C803716
:1056300049F08837A9F7D4FE02C06894D2F820E177
:1056400030E00DC06894D4F8F6CF34FE03C0822F4A
:105650008660D82E20E132E002C028E030E0F80178
:10566000D7FE0FC060817181828193810C5F1F4FD3
:10567000A5010E94CC2BC82ECA183D2CE89437F8FF
:1056800067CF6081718190E080E00E5F1F4FF0CFA7
:1056900042FC02C0839478CF8394839475CF842D89
:1056A000867809F471CFF6CFB70180E290E00E94CE
:1056B0009C2B83948214C0F3512C73CF522C581816
:1056C000821408F46ECFF8CF842D867809F47BCF4E
:1056D0008BE241FE80E247FC8DE2B70190E071CFA2
:1056E000B70180E390E00E949C2B9A946CCF8FEFDF
:1056F0009FEF99CF992788270895FC010590615065
:1057000070400110D8F7809590958E0F9F1F0895D7
:10571000FB01DC0102C001900D9241505040D8F7CE
:105720000895FC016150704001900110D8F78095F8
:1057300090958E0F9F1F08950F931F93CF93DF9324
:10574000182F092FEB018B8181FD09C01FEF0FEF8F
:10575000812F902FDF91CF911F910F91089582FF9C
:1057600014C02E813F818C819D81281739073CF41C
:10577000E881F981CF0101969983888310838E8116
:105780009F8101969F838E83E3CFE885F985812FE2
:105790000995892BA1F3DACFFA01AA27283051F114
:1057A000203181F1E8946F936E7F6E5F7F4F8F4F52
:1057B0009F4FAF4FB1E03ED0B4E03CD0670F781FB1
:1057C000891F9A1FA11D680F791F8A1F911DA11D96
:1057D0006A0F711D811D911DA11D20D009F46894CF
:1057E0003F912AE0269F11243019305D3193DEF677
:1057F000CF010895462F4770405D4193B3E00FD02D
:10580000C9F7F6CF462F4F70405D4A3318F0495D17
:1058100031FD4052419302D0A9F7EACFB4E0A695FA
:105820009795879577956795BA95C9F7009761051C
:10583000710508959B01AC010A2E06945795479572
:1058400037952795BA95C9F7620F731F841F951F67
:10585000A01D08952F923F924F925F926F927F9278
:105860008F929F92AF92BF92CF92DF92EF92FF9270
:105870000F931F93CF93DF93CDB7DEB7CA1BDB0B1C
:105880000FB6F894DEBF0FBECDBF09942A883988C1
:1058900048885F846E847D848C849B84AA84B984C8
:1058A000C884DF80EE80FD800C811B81AA81B981D4
:1058B000CE0FD11D0FB6F894DEBF0FBECDBFED01E8
:0658C0000895F894FFCFEB
:1058C60001FFFFFFFF00E10000000000000FB00431
:1058D600B004442D413332300000005043422031A1
:1058E6002E3000000C202020202020000000000088
:1058F60000202020202020000000000000010A00D7
:105906000000000000000000000000000100007E12
:10591600306D79335B5F707F7B0000000000000014
:10592600771F4E3D4F475E37303C000E15157E679C
:1059360000055B0F3E0000373B7F06020686060227
:10594600078D060002940600039C060106A30600C6
:1059560000AA060000AA060000B1060000B806026A
:1059660000BF060201C6060202CD060203D40600E7
:1059760000DB060204E306020500C1808100000088
:105986003038313500312E34006F6E4C696E45006B
:105996006E6F2046532000000000009A041504B2E2
:1059A60004B004F804B604D4040D0A00494E313A92
:1059B60000494E323A005254313A005254323A00BB
:1059C6004944454E543A00524D502C2076312E34DF
:1059D600204D4151003B53544154453A52554E4E89
:1059E600494E473B005245473A00202020202020C0
:1059F600004F46464C494E453A4D4553534147455F
:105A06005F52454143544956415445443B00494E33
:105A16004320202000644543202020006E24456E4C
:105A260075200064494147202000744553742020A6
:105A360000312E204C45442000322E206275746EB3
:105A460000332E20496E666F00746F2052554E202B
:105A560000342E204578697400625574746F6E00A8
:105A660050724553532000507245534564007245A9
:105A76004C53456400726F7431202000726F74328B
:105A86002020007245472020200053684946742094
:105A960000625574746F6E20005368494674202066
:105AA600006241434B202000414C4C2020200052F4
:105AB600554E2020200074457374202000644953FD
:105AC600506C790077414C4B2020004C45442020F7
:105AD6002000534547202020006E455353202000C8
