:100000000C9457010C9488010C9488010C9488017D
:100010000C9488010C9488010C9488010C9488013C
:100020000C9488010C9488010C9488010C9488012C
:100030000C9488010C9488010C9488010C9488011C
:100040000C9488010C9488010C9488010C9488010C
:100050000C9488010C9488010C9488010C944F0D29
:100060000C9488010C94C30D0C94990D0C94880188
:100070000C9488010C9488010C9488010C948801DC
:100080000C9488010C9488010C9488010C948801CC
:100090000C9488010C9488010C9488010C948801BC
:1000A0000C9488010C9488010C9488010C948801AC
:1000B0000C9488010C9488010C9488010C9488019C
:1000C0000C9488010C9488010C9488010C9488018C
:1000D0000C9488010C9488010C9488010C9488017C
:1000E0000C9488010C94D7020C94FF030C94130415
:1000F0000C9421040C94F5010C94EB010C94C302B4
:100100000C94F9010C94FB020C940C020C94CC019D
:100110000C941E030C9411020C94FF010C94D20158
:100120000C9459040C94DF020C9446030C94CD02F9
:100130000C94B4020C94A6040C94F1010C94F003FA
:100140000C94E7020C94B9020C9407020C9405037A
:100150000C94E1010C9414030C94AC020C94F11176
:100160000C9403020C94F1020C943C030C94E701F0
:100170000C94DE010C9432030C9428030C94BA0303
:100180000C940D020C94D6010C94DA0100002100AD
:10019000240027002A002D00300033000101000058
:1001A000040107010A0100002200250028002B009D
:1001B0002E003100340002010000050108010B018E
:1001C000000020002300260029002C002F00320010
:1001D00000010000030106010901050505050705E9
:1001E00008080808020202020A0A080804040404B3
:1001F00001010101010101010303030303030303DF
:10020000040707070C0C0C0C0C0C0C0C020202026D
:1002100006060606060606060B0B0B0B0B0B0B0B56
:100220000102102020080810204010204080020108
:1002300002010804020101020408102040808040ED
:1002400020100804020180040201804020100804EC
:10025000020108040201010204081020408001028A
:1002600004081020408000000A0B02090C0D0E0843
:10027000070304010000000000000000000000006F
:10028000000000000000000000000000000000006E
:10029000000012111000000000000000000000002B
:1002A000000000000000000000000000F111112417
:1002B0001FBECFEFD1E2DEBFCDBF00E00CBF14E028
:1002C000A0E0B2E0E4E5F2E300E00BBF02C007907B
:1002D0000D92A231B107D9F725E0A2E1B4E001C047
:1002E0001D92A139B207E1F711E0C7E5D1E000E0C6
:1002F00006C021970109802FFE010E947813C635A0
:10030000D10780E00807A9F70E94F90D0C9428197D
:100310000C940000CF93DF93FC01389623E030E08B
:10032000EC01A991CE012A0F311DEC17FD07C1F791
:10033000FB01CB0108966191260F311D8E179F0797
:10034000D1F7FA01CA0109964191240F311D8E1788
:100350009F07D1F7822FDF91CF910895815082318D
:1003600008F05AC0E82FF0E08827E654FE4F8F4F80
:100370000C947813DA01DE01CC01D201D6010C0213
:10038000E101E701EB01F101F501F901FF010302D0
:100390000C0207020D021102809180008F7780937A
:1003A00080000895809180008F7DF9CF809180003A
:1003B000877FF5CF84B58F7784BD089584B58F7D11
:1003C000FBCF8091B0008F778093B000089580912B
:1003D000B0008F7DF9CF809190008F77809390004F
:1003E0000895809190008F7DF9CF80919000877F54
:1003F000F5CF8091A0008F778093A0000895809121
:10040000A0008F7DF9CF8091A000877FF5CF8091EC
:1004100020018F77809320010895809120018F7DA6
:10042000F9CF80912001877FF5CF1F93CF93DF9382
:10043000282F30E0F901EA59FD4F8491F901E05E7F
:10044000FD4FD491F901E652FE4FC491CC23A9F09F
:10045000162F81110E94AE01EC2FF0E0EE0FFF1F6E
:10046000EA55FE4FA591B4918FB7F894EC91111114
:1004700008C0D095DE23DC938FBFDF91CF911F9111
:100480000895DE2BF8CFCF93DF9390E0FC01E05E80
:10049000FD4F249186529E4FFC0184918823D1F018
:1004A00090E0880F991FFC01E457FE4FA591B4918D
:1004B000FC01EA55FE4FC591D49161110EC09FB762
:1004C000F8948C91E22FE0958E238C932881E2237F
:1004D000E8839FBFDF91CF9108958FB7F894EC9197
:1004E000E22BEC938FBFF6CF1F93CF93DF93182FA0
:1004F000EB0161E00E944302209739F460E0812F14
:10050000DF91CF911F910C941502CF3FD10511F4CB
:1005100061E0F5CFE12FF0E0EA59FD4FE491E150C1
:10052000E23108F0B3C0F0E08827E656FD4F8F4F68
:100530000C947813AC02B402B902C302CD02460394
:10054000D702DF02E702F102FB02050314031E03D8
:100550004603280332033C0384B5806884BDC7BDCD
:10056000DF91CF911F91089584B5806284BDC8BD8D
:10057000F7CF80918000806880938000D0938900BD
:10058000C0938800EDCF80918000806280938000CE
:10059000D0938B00C0938A00E3CF80918000886065
:1005A00080938000D0938D00C0938C00D9CF809130
:1005B000B00080688093B000C093B300D1CF809129
:1005C000B00080628093B000C093B400C9CF809126
:1005D0009000806880939000D0939900C093980019
:1005E000BFCF80919000806280939000D0939B0059
:1005F000C0939A00B5CF809190008860809390005E
:10060000D0939D00C0939C00ABCF8091A0008068E8
:100610008093A0008091A0008F7B8093A000D09356
:10062000A900C093A8009CCF8091A0008062809315
:10063000A000D093AB00C093AA0092CF8091A000FD
:1006400088608093A000D093AD00C093AC0088CFA9
:1006500080912001806880932001D0932901C0936C
:1006600028017ECF80912001806280932001D09369
:100670002B01C0932A0174CF809120018860809360
:100680002001D0932D01C0932C016ACFC038D10531
:100690000CF03ECF33CF90917B00986090937B001D
:1006A00086538770806480937C0080917A00806498
:1006B00080937A0080917A0086FDFCCF809178004B
:1006C0009091790008953FB7F8948091E204909159
:1006D000E304A091E404B091E50426B5A89B05C00D
:1006E0002F3F19F00196A11DB11D3FBFBA2FA92FB1
:1006F000982F8827BC01CD01620F711D811D911DAE
:1007000042E0660F771F881F991F4A95D1F7089519
:100710008F929F92AF92BF92CF92DF92EF92FF9211
:100720004B015C010E9463036B017C010E94630327
:100730006C197D098E099F09683E734081059105FA
:10074000A8F321E0821A9108A108B10888EEC80E2A
:1007500083E0D81EE11CF11C81149104A104B104B2
:1007600029F7FF90EF90DF90CF90BF90AF909F90D0
:100770008F900895AF92BF92CF92DF92EF92FF9247
:100780000F931F93CF93DF936C017B018B01040FB9
:10079000151FEB015E01AE18BF08C017D10759F055
:1007A0006991D601ED91FC910190F081E02DC60197
:1007B0001995892B79F7C501DF91CF911F910F9181
:1007C000FF90EF90DF90CF90BF90AF900895FC0125
:1007D000448155816081718186EE94E00C94BA0366
:1007E000FC01538D448D252F30E0842F90E0821B37
:1007F000930B541710F0CF96089501970895FC01BC
:10080000918D828D981761F0A28DAE0FBF2FB11D13
:100810005D968C91928D9F5F9F73928F90E008956B
:100820008FEF9FEF0895FC01918D828D981731F025
:10083000828DE80FF11D858D90E008958FEF9FEF79
:100840000895FC01918D228D892F90E0805C9F4F4F
:10085000821B91098F739927089586EE94E00E9478
:10086000210421E0892B09F420E0822F0895FC0166
:10087000A48DA80FB92FB11DA35ABF4F2C91848D01
:1008800090E001968F739927848FA689B7892C935E
:10089000A089B1898C91837080648C93938D848DB1
:1008A000981306C00288F389E02D80818F7D8083B4
:1008B0000895EF92FF920F931F93CF93DF93EC0174
:1008C00081E0888F9B8D8C8D98131AC0E889F989F7
:1008D000808185FF15C09FB7F894EE89FF896083FA
:1008E000E889F98980818370806480839FBF81E07B
:1008F00090E0DF91CF911F910F91FF90EF900895BD
:10090000F62E0B8D10E00F5F1F4F0F731127E02E97
:100910008C8D8E110CC00FB607FCFACFE889F989CF
:10092000808185FFF5CFCE010E943704F1CFEB8D9A
:10093000EC0FFD2FF11DE35AFF4FF0829FB7F894A3
:100940000B8FEA89FB8980818062CFCFCF93DF93C1
:10095000EC01888D8823B9F0AA89BB89E889F989D7
:100960008C9185FD03C0808186FD0DC00FB607FC0C
:10097000F7CF8C9185FFF2CF808185FFEDCFCE013F
:100980000E943704E9CFDF91CF91089580E090E095
:10099000892B29F00E942D0481110E94000080E023
:1009A00090E0892B49F080E090E0892B29F00E94AB
:1009B000000081110E94000080E090E0892B49F046
:1009C00080E090E0892B29F00E94000081110E94B4
:1009D000000080E090E0892B49F080E090E0892BD6
:1009E00029F00E94000081110C9400000895FC0180
:1009F00080E04191442371F090ED940F9230C8F75C
:100A0000282F30E0220F331F81E0413309F080E0CE
:100A1000822BEFCF0895CF93DF93D82FC8E06D2FAF
:100A2000661F6627661F84E00E941502DD0F61E0E5
:100A300083E00E94150260E083E00E941502C1502D
:100A400071F7DF91CF910895FF920F931F93CF938A
:100A5000DF931091D20480911204D091D504C091FB
:100A6000D404811106C0D0E0C0E0112311F0DFEF03
:100A7000CFEFF090D3040091D60460E082E00E94B2
:100A800015028F2D0E940B058C2F0E940B058D2FB8
:100A90000E940B05802F0E940B0561E082E00E94FE
:100AA00015026FEF70E0611B710986E00E9474020D
:100AB0006091D10470E085E0DF91CF911F910F919B
:100AC000FF900C947402CF92EF920F93E0919F04E9
:100AD000F091A004EF2B11F0CC2089F08093D60484
:100AE0006093D5044093D4042093D3040093D2049C
:100AF000E092D1040F91EF90CF900C9424050F91C8
:100B0000EF90CF9008959F92AF92BF92CF92DF92D5
:100B1000EF92FF920F931F93CF93DF93C7E0D0E044
:100B2000B12C06E712E090E3E92E92E0F92E2AEECE
:100B3000C22E21E0D22E61E08FE00E941502F80162
:100B40008491F701A490F6019490992051F18111BC
:100B50000E94AE01E92DF0E0EE0FFF1FE054FE4FC2
:100B6000A591B4918C91A82231E009F430E0832F53
:100B70000C2E01C0880F0A94EAF7B82A60E08FE0D3
:100B80000E9415022197B8F68B2DDF91CF911F910E
:100B90000F91FF90EF90DF90CF90BF90AF909F901C
:100BA000089580E0E5CFCF92DF92EF92FF920F930E
:100BB0001F93CF93DF93CDB7DEB761970FB6F8944D
:100BC000DEBF0FBECDBF8FE30E944B038C0180E4DC
:100BD0000E944B037C010E94630398012E0D3F1D70
:100BE0008901330F220B330B600F711F821F931F7C
:100BF000611571058105910511F00E94B91281E11D
:100C0000ECE4F2E0DE01119601900D928A95E1F795
:100C100003E815E080E1C82ED12CE12CF12C0E94D4
:100C20006A12A70196010E94011321E030E02C0F07
:100C30003D1F620F731FFB018081F80181938F01BB
:100C4000F5E00B381F0759F710928B0561960FB628
:100C5000F894DEBF0FBECDBFDF91CF911F910F91F2
:100C6000FF90EF90DF90CF900895FC01019000205D
:100C7000E9F73197AF01481B590BBC0186EE94E0B0
:100C80000C94BA03009711F00C94350690E080E0C4
:100C90000895CF92DF92EF92FF920F931F93CF931D
:100CA000DF93CDB7DEB7A1970FB6F894DEBF0FBEC6
:100CB000CDBF8DE592E00E94420684E692E00E945C
:100CC000420680918305882361F083E792E00E94C9
:100CD00042068FE292E00E94420683E895E00E947D
:100CE000420689E792E00E94420689E892E00E946B
:100CF00042062091000230E050E040E019A28E014F
:100D00000F5D1F4F8AE0C82ED12CE12CF12CCA01B7
:100D1000B901A70196010E943313605DF801629347
:100D20008F01211531054105510589F7309719F0DB
:100D3000CF010E94350687E093E00E94420680E9D9
:100D400092E00E943506A1960FB6F894DEBF0FBE62
:100D5000CDBFDF91CF911F910F91FF90EF90DF906A
:100D6000CF900895CF93DF930E943506EC0180E980
:100D700092E00E9435068C0F9D1FDF91CF91089560
:100D8000CF92EF920F931F93CF93DF9381E08093E5
:100D9000120483E992E00E94B206D0E0C0E011E0C4
:100DA00080E0C830D10534F4812F0C2E01C0880FAB
:100DB0000A94EAF79E012850310960E02830310595
:100DC00028F4612F01C0660F2A95EAF79E01205191
:100DD000310940E02830310528F4412F01C0440F8B
:100DE0002A95EAF79E01285131092830310508F08B
:100DF00062C0912F01C0990F2A95EAF7292FCC24C0
:100E0000C39492E3E92E02E30E9463056CE370E071
:100E100080E090E00E9488032196C032D10509F05D
:100E2000BFCF88ECE82E08EC2AEA4AEA6AEA8AEAA6
:100E30000E94630568EC70E080E090E00E94880307
:100E400025E545E565E585E50E94630568EC70E00C
:100E500080E090E00E9488032FEF4FEF6FEF8FEF5D
:100E60000E94630568EC70E080E090E00E948803D7
:100E7000EE24EA940FEF2FEF4FEF6FEF8FEF0E940A
:100E800063056CE271E080E090E00E948803E12C51
:100E900000E020E040E060E080E00E946305109206
:100EA00012048EE992E0DF91CF911F910F91EF90A4
:100EB000CF900C94B20620E0A2CF0F931F93CF9354
:100EC000DF93EC0188819981009759F02A813B8159
:100ED0002617370730F081E0DF91CF911F910F91F6
:100EE00008958B016F5F7F4F0E94B914009759F0EE
:100EF000998388831B830A832C813D81232B59F797
:100F0000FC011082E8CF80E0E7CFFC018081918175
:100F1000009711F00C94301408951F93CF93DF9332
:100F2000EC01162F0E94EB12181739F0612FCE0139
:100F3000DF91CF911F910C94F312DF91CF911F910C
:100F400008954F925F926F927F928F929F92AF928D
:100F5000BF92CF92DF92EF92FF920F931F93CF93A6
:100F6000DF93CDB7DEB769970FB6F894DEBF0FBE3B
:100F7000CDBF2AE032E0F90101900020E9F79F019E
:100F80002B5032405E01FAE0AF0EB11CF50190E04B
:100F900080E0450140E28217930724F4DC01A65F5C
:100FA000BD4F4C91419301968830910599F721E00E
:100FB00032E0F90101900020E9F79F012250324010
:100FC0006E01F2E1CF0ED11CF60190E080E0360117
:100FD00040E28217930724F4DC01AF5FBD4F4C91D0
:100FE000419301968830910599F723E835E0F9019E
:100FF00001900020E9F79F0124583540CE01019669
:101000007C01FC0190E080E0270140E28217930719
:1010100024F4DC01AD57BA4F4C91419301968830CE
:10102000910599F719866AE58AE090E00E948D079C
:1010300065EA8BE090E00E948D0763E08CE090E031
:101040000E948D070DE010E0F50161915F01C8017C
:101050000E948D070F5F1F4F05311105A9F7F6019B
:1010600061916F01C8010E948D070F5F1F4F0D3105
:101070001105A9F7F70161917F01C8010E948D0751
:101080000F5F1F4F06321105A9F7A201B301C4017A
:101090000E948A01682F86E290E00E948D0769967F
:1010A0000FB6F894DEBF0FBECDBFDF91CF911F9179
:1010B0000F91FF90EF90DF90CF90BF90AF909F90F7
:1010C0008F907F906F905F904F9008950C94EB12EB
:1010D0005F926F927F928F929F92AF92BF92CF92C8
:1010E000DF92EF92FF920F931F93CF93DF93CDB7D1
:1010F000DEB7C058D1090FB6F894DEBF0FBECDBF22
:101100009BE1692E93E0792E21E0A22E22E0B22EFF
:1011100086EE94E00E942104892B09F400C386EE38
:1011200094E00E94FF038D3099F38A3009F48BE339
:1011300020919804309199042F3731057CF4A9014E
:101140004F5F5F4F5093990440939804285E3B4F44
:10115000F9018083485E5B4FFA0110825524539455
:101160006BE370E088E194E00E94D3157C01009766
:1011700079F2FC0110824FE750E068E174E0CE01A3
:1011800001960E940616C058DF4F1882C058D04002
:10119000C701885194400091980410919904081B4C
:1011A000190B01501109B7016F5F7F4FA80188E14A
:1011B00094E00E94AE15F801E85EFB4F1082109398
:1011C0009904009398048981882351F2CE010196F5
:1011D0007C01F7018191803299F0893089F0F70123
:1011E00001900020E9F73197EE16FF0609F4B8CF19
:1011F0008291803219F0893009F065C21082F4CFF3
:101200007F01E7CF63EB72E0C7010E94C015892B15
:1012100019F450929A04A4CF67EB72E0C7010E94C0
:10122000C015892B09F09CCF0E94C00699CFF80108
:1012300011926F016CEB72E0C7010E94C015892BFF
:10124000A1F4E090D1040091D2049090D304F090E6
:10125000D4041091D504C6010E94F704C12C292D95
:101260004F2D612F0E9463057BCF61EC72E0C701B7
:101270000E94C015892B69F4C12CE090D104009123
:10128000D2042091D3044091D40460E08091D6042C
:10129000E9CF66EC72E0C7010E94C015892B59F4B2
:1012A000C12CE090D1040091D2042091D30440E0FD
:1012B0006091D504EBCF6BEC72E0C7010E94C015C2
:1012C000892B61F4E090D1040091D204C6010E9400
:1012D000F704C12C282F4091D404EACF60ED72E0CE
:1012E000C7010E94C015892B91F4C6010E94C21249
:1012F0008F3F910519F014F08FEF90E097FD80E09B
:10130000C12CE090D104082F2091D304E4CF63EDE9
:1013100072E0C7010E94C015892B81F4C6010E94AA
:10132000C2128F3F910519F014F08FEF90E097FDF6
:1013300080E0C12CE82E0091D204E6CF66ED72E089
:10134000C7010E94C015892B91F4C6010E94C212E8
:101350008536910514F084E690E01816190614F00D
:1013600081E090E09093140280931302F9CE6EED29
:1013700072E0C7010E94C015892B91F4C6010E943A
:10138000C2128930910514F088E090E01816190611
:1013900014F081E090E09093240280932302E0CE49
:1013A00066EE72E0C7010E94C015892B09F4D8CE01
:1013B0006EEE72E0C7010E94C015892B89F4C60148
:1013C0000E94C212893C910514F088EC90E097FFCE
:1013D00002C090E080E09093160280931502C0CE88
:1013E00067EB72E0C7010E94C015892B09F41CCF7E
:1013F00044E050E065EF72E0C7010E94EE15892BD2
:1014000009F0AECEF4E0EF0EF11C47018FEFE81AC1
:10141000F80AF40180818032C1F343E050E06AEFC2
:1014200072E0C4010E94EE15892B89F465E372E035
:10143000C6010E94DE15892B39F4509213048EEFF9
:1014400092E00E94B2068CCE89E093E0FACF42E0AF
:1014500050E068E173E0C4010E94EE15892B09F0A9
:101460004AC080911304882309F445C06EE270E0FD
:10147000C6010E94D3157C010097D1F1C816D90688
:10148000B8F5F60101900020E9F73197EC19FD0954
:101490000E0F1F1F8017910758F5C6010E94C21238
:1014A0008C01C70101960E94C21298012150310996
:1014B00029303105D0F48A309105B8F49F938F9389
:1014C0001F930F937F926F921F9289E08F93BF9229
:1014D000AF920E94151685E293E00E94B2060FB605
:1014E000F894DEBF0FBECDBF3BCE81E393E0A9CF22
:1014F00080E493E0A6CF44E050E060E573E0C401EF
:101500000E94EE15892BA9F580911304882389F197
:10151000F60101900020E9F731977F01EC18FD08F2
:10152000C7010397069710F5F80182818D32F1F417
:101530008181082E000C990B0E949D15892BB1F01A
:1015400082E0882E912CE814F90409F4D7C0F80140
:101550008381082E000C990B0E949D150F5F1F4F71
:10156000892B21F0FFEF8F1A9F0AEDCF85E593E0DD
:1015700068CF42E050E067E673E0C4010E94EE15D8
:10158000892B09F046C090911304992309F441C0B6
:10159000F60101900020E9F79F0129503109075F0A
:1015A0001F4FD6012C153D0529F085E793E049CF63
:1015B0008630D8F78D9120ED280F2A3008F4AAC084
:1015C0008F7D815421E0863008F020E00A171B0748
:1015D00079F7922F992349F323E835E0F6018191B9
:1015E0006F019FE9980F963008F48052F9018193BA
:1015F0009F01AC15BD0591F710928B058AE693E02B
:101600000E9442068FE292E00E94420683E895E043
:1016100018CF44E050E065E873E0C4010E94EE1585
:10162000892B29F4109213048AE893E00ACF43E04F
:1016300050E068E973E0C4010E94EE15892B59F56A
:1016400080911304882339F16CE973E0C6010E948C
:10165000C015892BE9F40E94A1071092130480EAB7
:1016600093E00E94B20686EE94E00E94A60462E334
:1016700070E080E090E00E94880388E198E00FB677
:10168000F894A895809360000FBE90936000FFCF00
:101690008DEA93E0D6CE45E050E06EEB73E0C401F6
:1016A0000E94EE15892B09F05BCD809113048823ED
:1016B00039F00E94A1071092130484EC93E0C1CE8C
:1016C0008FEC93E0BECE6AE370E0C7010E94D315B1
:1016D0008C01892B09F0ABCD67EA72E0C7010E944B
:1016E000C015892B41F06BEA72E0C7010E94C0155A
:1016F000892B09F087CD0E94490632CD48E050E0A1
:10170000B6018AE092E00E940616109212028EED57
:1017100093E097CE0A171B0709F04CCF5BCFC05858
:10172000DF4F0FB6F894DEBF0FBECDBFDF91CF9174
:101730001F910F91FF90EF90DF90CF90BF90AF90EF
:101740009F908F907F906F905F900895AF92BF921F
:10175000CF92DF92EF92FF920F931F93CF93DF937D
:101760001F921F92CDB7DEB78C01A62EFC0111820D
:101770001082138212821582148270E060E00E944F
:101780005D07F8012081318181114AC021153105A1
:1017900019F0C9010E943014F801118210821582DB
:1017A00014821382128287E0E82EF12CB12CC5013D
:1017B0000E2C02C0959587950A94E2F780FD38C0FB
:1017C00080E389831A82F801C480D580FFEFCF1AA5
:1017D000DF0AB601C8010E945D07882379F0F8018D
:1017E0002081318184819581BE016F5F7F4F820F9F
:1017F000931F0E94E715F801D582C482F1E0EF1A29
:10180000F108A8F6C8010F900F90DF91CF911F91BA
:101810000F91FF90EF90DF90CF90BF90AF90089521
:101820001582148262E972E0C9010E94E715BBCFFC
:1018300081E3C7CFCF92DF92EF92FF920F931F9376
:10184000CF93DF9300D000D01F921F92CDB7DEB7A9
:101850008C01611584E0780714F06FEF73E077FF77
:1018600002C070E060E07F936F938CEE93E09F93F3
:101870008F93FE0131966F01FF93EF930E945216F2
:10188000F801118210821382128215821482F601ED
:1018900001900020E9F731977F01EC18FD08B701AE
:1018A000C8010E945D070F900F900F900F900F904E
:1018B0000F90F8012081318181111DC02115310562
:1018C00019F0C9010E943014F801118210821582AA
:1018D000148213821282C80128960FB6F894DEBFD4
:1018E0000FBECDBFDF91CF911F910F91FF90EF9071
:1018F000DF90CF900895F582E482B601C9010E947D
:10190000E715E9CFCF92DF92EF92FF92CF93DF936B
:1019100000D000D0CDB7DEB78FB7F894C090DE040A
:10192000D090DF04E090E004F090E1048FBF80915C
:101930009A04811115C08091140490911504A0910E
:101940001604B0911704A7019601281B390B4A0B06
:101950005B0BDA01C9010A97A105B10508F492C031
:1019600081EF93E00E9442066091B9047091BA043D
:10197000CE0101960E941A0CCE0101960E94E70347
:10198000CE0101960E94850787E093E00E944206FF
:1019900087EF93E00E9442066091A5047091A6042F
:1019A000CE0101960E941A0CCE0101960E94E70317
:1019B000CE0101960E94850787E093E00E944206CF
:1019C0008DEF93E00E94420660912202CE010196C3
:1019D0000E94A60BCE0101960E94E703CE0101965C
:1019E0000E94850787E093E00E94420682E094E02F
:1019F0000E94420660912102CE0101960E94A60B30
:101A0000CE0101960E94E703CE0101960E94850750
:101A100087E093E00E94420687E094E00E9442063D
:101A200060912002CE0101960E94A60BCE01019684
:101A30000E94E703CE0101960E94850787E093E0AC
:101A40000E9442068CE094E00E94420660911F02D0
:101A5000CE0101960E94A60BCE0101960E94E703DB
:101A600080E992E00E943506CE0101960E9485072A
:101A7000C0921404D0921504E0921604F092170458
:101A800010929A0426960FB6F894DEBF0FBECDBF13
:101A9000DF91CF91FF90EF90DF90CF9008951F924C
:101AA0000F920FB60F9211242F933F938F939F9312
:101AB000AF93BF938091DE049091DF04A091E00486
:101AC000B091E1043091DD0423E0230F2D3758F568
:101AD0000196A11DB11D2093DD048093DE04909337
:101AE000DF04A093E004B093E1048091E2049091BC
:101AF000E304A091E404B091E5040196A11DB11D99
:101B00008093E2049093E304A093E404B093E5048B
:101B1000BF91AF919F918F913F912F910F900FBEE9
:101B20000F901F90189526E8230F0296A11DB11D56
:101B3000D2CF1F920F920FB60F9211240BB60F92B5
:101B40002F933F934F935F936F937F938F939F93C5
:101B5000AF93BF93EF93FF9386EE94E00E94370418
:101B6000FF91EF91BF91AF919F918F917F916F9175
:101B70005F914F913F912F910F900BBE0F900FBE31
:101B80000F901F9018951F920F920FB60F9211246D
:101B90000BB60F922F938F939F93EF93FF93E09148
:101BA000F604F091F7048081E091FC04F091FD04CB
:101BB00082FD1DC090818091FF048F5F8F73209103
:101BC0000005821741F0E091FF04F0E0EA51FB4F7D
:101BD000958F8093FF04FF91EF919F918F912F91AB
:101BE0000F900BBE0F900FBE0F901F901895808125
:101BF000F2CFCF93DF93CDB7DEB7A0970FB6F894AF
:101C0000DEBF0FBECDBF789484B5826084BD84B53D
:101C1000816084BD85B5826085BD85B5816085BDE7
:101C200080916E00816080936E001092810080919F
:101C30008100826080938100809181008160809327
:101C40008100809180008160809380008091B1004C
:101C500084608093B1008091B00081608093B00077
:101C600080919100826080939100809191008160C9
:101C7000809391008091900081608093900080918A
:101C8000A10082608093A1008091A1008160809377
:101C9000A1008091A00081608093A000809121012B
:101CA00082608093210180912101816080932101D4
:101CB0008091200181608093200180917A0084606E
:101CC00080937A0080917A00826080937A0080917C
:101CD0007A00816080937A0080917A008068809396
:101CE0007A001092C100E091F604F091F70482E0CE
:101CF0008083E091F204F091F3041082E091F40407
:101D0000F091F50480E180831092FE04E091FA04E2
:101D1000F091FB0486E08083E091F804F091F904EF
:101D2000808180618083E091F804F091F9048081E2
:101D300088608083E091F804F091F90480818068E4
:101D40008083E091F804F091F90480818F7D808395
:101D500090E080E00E946608482F4150550B4230C9
:101D6000510508F0B4C0809300028AE090E00E9420
:101D70006608182F8BE090E00E946608982F812F4C
:101D80008A35954A09F4ACC00E94D3050E94A10788
:101D900061E082E00E94430261E083E00E9443022E
:101DA00061E084E00E94430261E086E00E94430219
:101DB00061E085E00E94430260E080E10E9443020E
:101DC00061E08FE00E94430261E08EE00E944302E6
:101DD00070E060E086E00E94740270E060E085E000
:101DE0000E947402A9EAB4E0EDEBF4E011921192C2
:101DF0001D921D9224E0ED3CF207C1F71092D7042A
:101E00002FB7F8948091DE049091DF04A091E00454
:101E1000B091E1042FBF8093D8049093D904A0938C
:101E2000DA04B093DB040E94490681E080939A04AF
:101E30001092990410929804109218046BE4662E84
:101E4000712C7AEAA72EE8ECBE2E15E58FB7F89430
:101E5000C090DE04D090DF04E090E004F090E10454
:101E60008FBF0091DC04011106C18091D8049091CC
:101E7000D904A091DA04B091DB0416012701281AD5
:101E8000390A4A0A5B0AD201C101883C9105A105C1
:101E9000B105C0F0C092D804D092D904E092DA041F
:101EA000F092DB040091D704023009F4CCC008F0B2
:101EB000A9C0002309F4AFC0013009F4BBC00F5F13
:101EC0000093D7040E9468080E94C604BFCF81E037
:101ED0008093000261E090E080E00E948D0745CF92
:101EE0008CE090E00E946608782E6E0184E1C80EB6
:101EF000D11C7E019BE0E90EF11C570146010DE06B
:101F000010E0C8010E946608F40181934F01C801E6
:101F100008960E946608F50181935F010F5F1F4FCD
:101F20000531110571F71C8E1B8AF3E07F122CCF4F
:101F30008E010F5F1F4F4801FDE1AF2EB12CC5018F
:101F40000E946608F40181934F01FFEFAF1ABF0AA8
:101F500026E2A216B10499F71A8686E290E00E9462
:101F60006608B82EA801B701C6010E948A01B812FE
:101F70000BCFA601485F5F4F90E080E0F601219112
:101F80006F01322F3F7D29F0FC01E65FFD4F20837A
:101F900001964C155D0591F7865F9D4FFC011082FF
:101FA000A701485F5F4F90E080E0F70121917F013A
:101FB000322F3F7D29F0FC01EF5FFD4F208301961A
:101FC0004E155F0591F78F5F9D4FFC011082A801B0
:101FD000485F5F4F90E080E0F80121918F01322F40
:101FE0003F7D29F0FC01ED57FA4F2083019604173D
:101FF000150791F7FC01ED57FA4F1082892B09F074
:10200000C7CEC2CE033071F1043009F058CF81E061
:102010008093DC0454CFA092D604A092D504A09261
:10202000D404A092D304B092D204B092D1040E94FE
:10203000240545CF1093D6041093D5041093D404EF
:102040001093D304F0CF33243A943092D6043092D4
:10205000D5043092D4043092D3041092D20410925A
:10206000D104E5CF1092D6041092D5041092D40476
:102070001092D304F2CF0E9468088091CD04909111
:10208000CE04A091CF04B091D004A7019601281BE3
:10209000390B4A0B5B0BDA01C9010A97A105B1059F
:1020A00008F412CFC092CD04D092CE04E092CF04B7
:1020B000F092D0048FE30E944B0380902302909013
:1020C00024022091BB043091BC04F901EE0FFF1FE4
:1020D000E354FB4F91838083C9010196B4010E94B0
:1020E00064139093BC048093BB04EDEBF4E030E008
:1020F00020E060E070E0CB01281539056CF42190F8
:102100003190032C000C44085508620D731D841D8A
:10211000951D2F5F3F4FF0CF1401092C000C440890
:102120005508A20191010E9401133093BA04209333
:10213000B90480E40E944B032091A7043091A804C5
:10214000F901EE0FFF1FE755FB4F91838083C90113
:102150000196B4010E9464139093A8048093A7048D
:10216000E9EAF4E0B0E0A0E060E070E0CB01A8159F
:10217000B9056CF4419151919A01032E000C440B66
:10218000550B620F731F841F951F1196F0CFA2018C
:1021900091010E9401133093A6042093A50460E0EE
:1021A0008EE00E941502C3010197F1F761E08EE015
:1021B0000E941502C3010197F1F70E9483058095E3
:1021C000809322020E9483058095809321020E94C1
:1021D00083058095809320020E94830580958093DB
:1021E0001F0260E08EE00E941502C3010197F1F723
:1021F00061E08EE00E941502C3010197F1F780E2D1
:10220000882E912C60E08FE00E9415028FE090E014
:102210000197F1F761E08FE00E9415028FE090E0F6
:102220000197F1F731E0831A910861F7809122025A
:1022300090911E02891312C02091210290911D02DB
:1022400029130CC02091200290911C02291306C072
:1022500020911F0290911B02291769F14091A1045E
:102260005091A2046091A3047091A4041601270167
:10227000241A350A460A570AB201A1014C30510509
:1022800061057105C0F0C092A104D092A204E09251
:10229000A304F092A40480931E02809121028093F3
:1022A0001D028091200280931C0280911F02809366
:1022B0001B020E94820CE091B904F091BA04809153
:1022C000190290911A029F01281B390B37FF03C096
:1022D0003195219531096091A5047091A6048091F2
:1022E0001702909118022B01481A590AC20157FE91
:1022F00003C0919581959109409115025091160264
:10230000241735070CF467C0A0911302B091140292
:102310002A173B070CF45FC0F0931A02E0931902EE
:10232000841795075CF020911302309114028217F4
:1023300093073CF070931802609317020E94820C7E
:1023400002C00111FBCF8091220281111AC080913D
:1023500021028932B1F480919F049091A004892BCD
:1023600081F421E030E03093A00420939F04C092D8
:102370009B04D0929C04E0929D04F0929E040E94E3
:10238000C00680919F049091A004019709F09CCD14
:1023900080919B0490919C04A0919D04B0919E0417
:1023A000C81AD90AEA0AFB0A38E9C3163AE3D3067F
:1023B000E104F10408F488CD1092A00410929F0467
:1023C000CC24C394E12C00E020E040E060E080E019
:1023D0000E94630579CD00E0841795070CF0A3CF28
:1023E000B2CFE6EEF4E01382128288EE93E0A0E032
:1023F000B0E084839583A683B7838EE392E09183D4
:10240000808385EC90E09587848784EC90E09787C3
:10241000868780EC90E0918B808B81EC90E0938BB1
:10242000828B82EC90E0958B848B86EC90E0978B8E
:10243000868B118E128E138E148E08958F929F921A
:10244000AF92BF92CF92DF92EF92FF92CF93DF9342
:10245000EC01688179818A819B8161157105810513
:10246000910521F464E279ED8BE597E02DE133EFFE
:1024700041E050E00E94011349015A019B01AC0167
:10248000A7EAB1E40E9420136B017C01ACEEB4EF2B
:10249000A50194010E942E13C60ED71EE81EF91E38
:1024A000F7FE06C081E0C81AD108E10880E8F80A02
:1024B000C882D982EA82FB82C701B6019F77DF9189
:1024C000CF91FF90EF90DF90CF90BF90AF909F9013
:1024D0008F9008958F929F92AF92BF92CF92DF928A
:1024E000EF92FF926091250270912602809127025F
:1024F00090912802611571058105910521F464E22E
:1025000079ED8BE597E02DE133EF41E050E00E945B
:10251000011349015A019B01AC01A7EAB1E40E94F1
:1025200020136B017C01ACEEB4EFA50194010E9475
:102530002E13C60ED71EE81EF91EF7FE06C081E058
:10254000C81AD108E10880E8F80AC0922502D092A2
:102550002602E0922702F0922802C701B6019F7777
:10256000FF90EF90DF90CF90BF90AF909F908F90B3
:10257000089560932502709326028093270290931A
:1025800028020895FC0188279927E8942191203298
:10259000E9F3293010F02E30C8F32B3241F02D3200
:1025A00039F4689404C00E94E012820F911D2191B9
:1025B00020532A30C0F31EF4909581959F4F0895C3
:1025C0007AE0979F902D879F802D910D112408957B
:1025D000992788270895F999FECF92BD81BDF89A71
:1025E000992780B50895262FF999FECF1FBA92BD7D
:1025F00081BD20BD0FB6F894FA9AF99A0FBE0196E4
:102600000895052E97FB1EF400940E94181357FDA1
:1026100007D00E94331307FC03D04EF40C94181318
:1026200050954095309521953F4F4F4F5F4F0895FE
:1026300090958095709561957F4F8F4F9F4F08952E
:102640000E945513A59F900DB49F900DA49F800DDF
:10265000911D11240895B7FF0C9420130E9420139C
:10266000821B930B0895A1E21A2EAA1BBB1BFD012E
:102670000DC0AA1FBB1FEE1FFF1FA217B307E40761
:10268000F50720F0A21BB30BE40BF50B661F771FB9
:10269000881F991F1A9469F7609570958095909599
:1026A0009B01AC01BD01CF010895A29FB001B39F72
:1026B000C001A39F700D811D1124911DB29F700D4B
:1026C000811D1124911D089597FB072E16F4009487
:1026D00007D077FD09D00E94801307FC05D03EF497
:1026E000909581959F4F0895709561957F4F0895BE
:1026F000EE0FFF1F881F8BBF0790F691E02D1994F6
:10270000AA1BBB1B51E107C0AA1FBB1FA617B70717
:1027100010F0A61BB70B881F991F5A95A9F7809533
:102720009095BC01CD0108950F931F93CF93DF9334
:102730008230910510F482E090E0E0918F05F091F5
:10274000900530E020E0B0E0A0E0309799F421154A
:10275000310509F44AC0281B390B24303105D8F55E
:102760008A819B816115710589F1FB0193838283C5
:10277000FE0111C040815181028113814817590720
:10278000E0F04817590799F4109761F012960C93EE
:10279000129713961C933296CF01DF91CF911F9120
:1027A0000F91089500938F0510939005F4CF211594
:1027B000310551F04217530738F0A901DB019A01A6
:1027C000BD01DF01F801C1CFEF01F9CF9093900572
:1027D00080938F05CDCFFE01E20FF31F819391937C
:1027E0002250310939832883D7CF20918D0530912C
:1027F0008E05232B41F420912B0230912C02309333
:102800008E0520938D052091290230912A022115F1
:10281000310541F42DB73EB740912D0250912E0263
:10282000241B350BE0918D05F0918E05E217F3071F
:10283000A0F42E1B3F0B2817390778F0AC014E5F30
:102840005F4F2417350748F04E0F5F1F50938E05DA
:1028500040938D05819391939FCFF0E0E0E09CCF72
:10286000CF93DF930097E9F0FC0132971382128235
:10287000A0918F05B0919005ED0130E020E0109718
:10288000A1F420813181820F931F20918D05309119
:102890008E052817390709F061C0F0938E05E09383
:1028A0008D05DF91CF910895EA01CE17DF07E8F596
:1028B0004A815B819E0141155105B1F7E901FB8316
:1028C000EA8349915991C40FD51FEC17FD0761F4B4
:1028D000808191810296840F951FE90199838883F5
:1028E000828193819B838A83F0E0E0E012968D9150
:1028F0009C9113970097B9F52D913C911197CD01BB
:102900000296820F931F20918D0530918E05281716
:10291000390739F6309751F51092900510928F05CE
:10292000B0938E05A0938D05BCCFD383C283408125
:102930005181840F951FC817D90761F44E5F5F4F0F
:1029400088819981480F591F518340838A819B81D7
:10295000938382832115310509F0B0CFF093900560
:10296000E0938F059ECFFD01DC01C0CF1382128260
:10297000D7CF4F925F926F927F928F929F92AF923A
:10298000BF92CF92DF92EF92FF920F931F93CF935C
:10299000DF938C01009799F4CB01DF91CF911F91C8
:1029A0000F91FF90EF90DF90CF90BF90AF909F90EE
:1029B0008F907F906F905F904F900C949413FC01D8
:1029C000E60FF71F9C0122503109E217F30708F4C4
:1029D000AEC0D901CD91DC911197C617D70720F170
:1029E000C530D10578F0CE0104978617970750F0CF
:1029F000C61BD70B2297C193D1936D937C93CF01C4
:102A00000E943014C801DF91CF911F910F91FF9068
:102A1000EF90DF90CF90BF90AF909F908F907F907E
:102A20006F905F904F9008955B01AC1ABD0A4C0106
:102A30008C0E9D1EA0918F05B0919005512C412CBC
:102A4000F12CE12C109731F580918D0590918E0538
:102A50008815990509F05CC04616570608F058C05D
:102A60008091290290912A02009741F48DB79EB778
:102A700040912D0250912E02841B950BE817F90707
:102A800008F055C0F0938E05E0938D05F901718330
:102A90006083B8CF8D919C91119712966C9012978C
:102AA00013967C901397A815B90559F56C0142E06F
:102AB000C40ED11CCA14DB0420F1AC014A195B0915
:102AC000DA011296159780F06282738251834083F7
:102AD000D9016D937C93E114F10471F0D701139641
:102AE000FC93EE9312978ECF22968C0F9D1FF901C7
:102AF00091838083F301EFCFF0939005E0938F05EE
:102B000081CF4816590608F42C017D01D3019ACFD4
:102B1000CB010E9494137C01009749F0AE01B801EB
:102B20000E94A515C8010E94301487016BCF10E0E8
:102B300000E068CF85FD0C94E812806291110C943E
:102B4000E81281568A51D8F70895FB01DC0102C0D2
:102B500001900D9241505040D8F7089568177907B9
:102B600068F4FB01DC01E40FF51FA40FB51F02C0E0
:102B700002900E9241505040D8F708950C94A5153C
:102B8000FB01DC018D9181341CF08B350CF4805EEF
:102B9000619161341CF06B350CF4605E861B611131
:102BA00089F3990B0895FC018191861721F0882300
:102BB000D9F7992708953197CF010895FB01DC01DA
:102BC0008D91019080190110D9F3990B0895FB01A3
:102BD000DC0101900D920020E1F70895FB01DC017A
:102BE0004150504088F08D9181341CF08B350CF4AD
:102BF000805E619161341CF06B350CF4605E861B65
:102C0000611171F3990B0895881BFCCFFB01DC0166
:102C10004150504048F001900D920020C9F701C08A
:102C20001D9241505040E0F708950F931F93CF93AA
:102C3000DF93CDB7DEB72E970FB6F894DEBF0FBE89
:102C4000CDBF0E891F89888D998D26E02C831A832C
:102C5000098397FF02C080E090E801979E838D83EF
:102C6000AE01445E5F4F6A8D7B8DCE0101960E945E
:102C700082164D815E8157FD0AC02F81388542172B
:102C800053070CF49A01020F131FF80110822E96BD
:102C90000FB6F894DEBF0FBECDBFDF91CF911F916D
:102CA0000F9108950F931F93CF93DF93CDB7DEB7A6
:102CB0002E970FB6F894DEBF0FBECDBF0E891F89C9
:102CC00086E08C831A8309838FEF9FE79E838D8331
:102CD000AE01465E5F4F688D798DCE0101960E94F0
:102CE00082162F813885020F131FF80110822E964D
:102CF0000FB6F894DEBF0FBECDBFDF91CF911F910D
:102D00000F9108952F923F924F925F926F927F9210
:102D10008F929F92AF92BF92CF92DF92EF92FF92EB
:102D20000F931F93CF93DF9300D000D000D01F925A
:102D30001F92CDB7DEB77C013B018A01FC011782EF
:102D40001682838181FFDDC1CE0101965C01F7010E
:102D50009381F30193FD859193FF81913F01882336
:102D600009F453C1853239F493FD859193FF819124
:102D70003F01853229F4B70190E00E949A18E7CF0D
:102D8000912C212C312CFFE1F31538F08B3211F10D
:102D900090F4803209F1833229F137FC3CC020EDF8
:102DA000280F2A3050F536FE20C08AE0989E200D6C
:102DB0001124922E06C08D3291F0803371F7689401
:102DC00030F8F30193FD859193FF81913F018111CB
:102DD000DACF21C0689431F8689432F8F2CF689461
:102DE00033F8EFCF689434F8ECCFEAE02E9E200D54
:102DF0001124222E689435F8E4CF8E3229F436FC63
:102E000004C1689436F8DDCF8C3619F4689437F82D
:102E1000D8CF8836B1F2982F9F7D95549330E0F04B
:102E20008336A1F18337C1F1833509F063C02801EE
:102E3000F2E04F0E511CF801C080D180692D70E086
:102E400036FC02C06FEF7FEFC6010E9484184C0170
:102E5000689437F882010AC00C5F1F4FFFE3F983C3
:102E600088248394912C6501E89437F833FE2DC0B3
:102E7000522C8114910471F5552009F468CFB701E3
:102E800080E290E00E949A185A94F6CFF80180816F
:102E900089830E5F1F4FE4CF2801F2E04F0E511CD3
:102EA000F801C080D180692D70E036FC02C06FEF60
:102EB0007FEFC6010E948F184C018201D5CFB70168
:102EC00080E290E00E949A182A942814190409F0CC
:102ED000B0F7CECFF60137FC859137FE81916F01B7
:102EE000B70190E00E949A1851105A94F1E08F1A9D
:102EF0009108BFCF843619F0893609F077C0F80100
:102F000037FE6BC060817181828193810C5F1F4F9E
:102F1000F32DFF763F2E97FF09C090958095709511
:102F200061957F4F8F4F9F4F689437F82AE030E0CC
:102F3000A5010E94CA18C82ECA188C2C432C36FE34
:102F40000CC0E89440F8C91440F434FE05C032FCCB
:102F500003C0F32DFE7E4F2E892C44FEAAC0FE0135
:102F6000EC0DF11D8081803309F09CC0242D297E59
:102F7000422E842D8870582E43FCAAC040FEA4C067
:102F80009C2C821418F42C0C922C981844FEA6C089
:102F9000B70180E390E00E949A1842FE09C088E7DA
:102FA00090E041FE02C088E590E0B7010E949A18C7
:102FB000C91408F49FC0CA94D12C9FEFC91AD90A2A
:102FC000CA0CDB1CF60182916F01B70190E00E94F0
:102FD0009A18AC14BD04B1F74FCF60817181072EF0
:102FE000000C880B990B0E5F1F4F92CFD32CE894E7
:102FF000D4F82AE030E08537E1F1232D297FD22E65
:103000008F36A9F1F0F4883551F1F7018681978167
:103010002B960FB6F894DEBF0FBECDBFDF91CF91D8
:103020001F910F91FF90EF90DF90CF90BF90AF90E6
:103030009F908F907F906F905F904F903F902F90D8
:103040000895803749F0883701F7D4FE02C06894AC
:10305000D2F820E130E00DC06894D4F8F6CF34FE09
:1030600003C0822F8660D82E20E132E002C028E023
:1030700030E0F801D7FE0FC06081718182819381B9
:103080000C5F1F4FA5010E94CA18C82ECA183D2CFC
:10309000E89437F852CF6081718190E080E00E5F54
:1030A0001F4FF0CF42FC02C0839463CF839483947C
:1030B00060CF842D867809F45CCFF6CFB70180E22B
:1030C00090E00E949A1883948214C0F3512C5ECF32
:1030D000522C5818821408F459CFF8CF842D8678D2
:1030E00009F466CF8BE241FE80E247FC8DE2B70136
:1030F00090E05CCFB70180E390E00E949A189A9428
:1031000057CF8FEF9FEF84CFFC0105906150704047
:103110000110D8F7809590958E0F9F1F0895FC01A0
:103120006150704001900110D8F7809590958E0FF6
:103130009F1F08950F931F93CF93DF93182F092F8D
:10314000EB018B8181FD09C01FEF0FEF812F902FC5
:10315000DF91CF911F910F91089582FF14C02E81AE
:103160003F818C819D81281739073CF4E881F981E2
:10317000CF0101969983888310838E819F81019668
:103180009F838E83E3CFE885F985812F1995892B5D
:10319000A1F3DACFFA01AA27283051F1203181F1C9
:1031A000E8946F936E7F6E5F7F4F8F4F9F4FAF4F4F
:1031B000B1E03ED0B4E03CD0670F781F891F9A1F62
:1031C000A11D680F791F8A1F911DA11D6A0F711D16
:1031D000811D911DA11D20D009F468943F912AE022
:1031E000269F11243019305D3193DEF6CF0108950A
:1031F000462F4770405D4193B3E00FD0C9F7F6CF3B
:10320000462F4F70405D4A3318F0495D31FD405202
:10321000419302D0A9F7EACFB4E0A6959795879598
:1032200077956795BA95C9F7009761057105089577
:103230009B01AC010A2E0694579547953795279523
:10324000BA95C9F7620F731F841F951FA01D0895BB
:04325000F894FFCF20
:103254000150434220312E300000442D413332309E
:103264000000000A000A00F1D8F1D8FFFFFFFFFFB9
:10327400FFFFFF04000100000000009105800045ED
:1032840043414D2D00303831350000000000590411
:10329400BA03F003A6042104FF03130430313233CC
:1032A400343536373839414243444546004944456C
:1032B4004E543A004543414D2C2076312E33204D57
:1032C4004151002C20534E3A003B53544154453A4B
:1032D40052554E4E494E473B0048575245563A00C8
:1032E4000D0A004449414720535441525400444973
:1032F400414720454E4400564552005645525349D5
:103304004F4E005245510044494147004C45443119
:10331400004C454432004C454433004C4544340091
:10332400424C00414E00534D4F5F54485200534DA0
:103334004F5F53414D00534D4F5F444C5900504F24
:10334400545F4442005345542000454E41005345C8
:103354005420454E413E203B0053455420454E41A8
:103364003A4641494C203B004657005043622025D1
:10337400642E2564005345542046573A4F4B203B56
:10338400005345542046573A52414E4745203B008E
:103394005345542046573A464F524D4154203B0022
:1033A400414349440053455420414349443A464F1C
:1033B400524D4154203B00534E0053455420534E2C
:1033C4003A4F4B3A0053455420534E3A464F524DD0
:1033D4004154203B00455849540053455420455816
:1033E40049543A4F4B203B0057524900594553002A
:1033F400534554205752493A4F4B203B00534554B0
:10340400205752493A464F524D4154203B0057529F
:103414004954450057524954453A4F4B203B0057B5
:10342400524954453A4C4F434B4544203B00534585
:103434005420414349443A4F4B203B0025303464E7
:1034440000504F54313A00504F54323A00494E31F3
:103454003A00494E323A00494E333A00494E343A22
:02346400000066
:00000001FF
