:100000000C94DA000C9402010C9402010C9402018D
:100010000C9402010C9402010C9402010C94020154
:100020000C9402010C9402010C947A0A0C94F70AC5
:100030000C9402010C9402010C9402010C94020134
:100040000C9402010C9402010C9402010C94020124
:100050000C9402010C9402010C9402010C94300ADD
:100060000C9402010C9402010C9402010C94020104
:100070000C9402010C9402010C9402010C940201F4
:100080000C9402010C9402010C9402010C940201E4
:100090000C9402010C9402010C9402010C940201D4
:1000A0000C9402010C9402010C940201080B000252
:1000B0000202000009040000010202000005240001
:1000C0001001052401010104240206052406000193
:1000D0000705810310004009040100020A00000026
:1000E00007050202400000070583024000000403E8
:1000F000090412010002EF02014041233780000190
:100100000102030141726475696E6F204C4C43001B
:1001100041726475696E6F204D6963726F000706E6
:1001200005040100080A0B0C0D0900000000240062
:1001300027002A002D0030000000000025002800C4
:100140002B002E00310000000000230026002900B3
:100150002C002F000404040404030405020202021C
:100160000403020202020606060606060404020250
:100170000204040408020110408040102040804026
:1001800080080204018040201002011080102040ED
:1001900040200000000200090F0000030401000CD1
:1001A000000000000000000000000000000000004F
:1001B0000000151411241FBECFEFDAE0DEBFCDBF63
:1001C00013E0A0E0B1E0EAE0F6E302C005900D9292
:1001D000A432B107D9F724E0A4E2B3E001C01D9234
:1001E000AC36B207E1F710E0CAEDD0E004C02197C9
:1001F000FE010E94BB15C93DD107C9F70E94290D18
:100200000C94031B0C940000CF93DF93FC013896F1
:1002100023E030E0EC01A991CE012A0F311DEC174B
:10022000FD07C1F7FB01CB0108966191260F311D37
:100230008E179F07D1F7FA01CA0109964191240F41
:10024000311D8E179F07D1F7822FDF91CF9108952F
:1002500083E08093E9008091F200882319F08AE31B
:100260008093E8000895FC0180910D04882311F12A
:100270003FB7F89482E08093E9002091F200822F4A
:1002800090E01816190614F481E090E0882339F004
:10029000289A44E640930C044091F10040832223C5
:1002A00039F02091F200211103C02BE62093E800E1
:1002B0003FBF08958FEF9FEF08952FB7F89483E025
:1002C0008093E9009091E800892F807295FF04C027
:1002D0009091F20080E4891B2FBF0895809104045F
:1002E00081110DC082E08093000484E080930104BA
:1002F000109203041092020481E08093040480E0D1
:1003000094E0089581508F3008F047C0E82FF0E066
:10031000E457FE4F0C94BB15A901AD019B01A1014F
:10032000A501CD01CD01CD01B001B601BA01BE01DB
:10033000C401CD01C801809180008F778093800037
:100340000895809180008F7DF9CF80918000877F14
:10035000F5CF84B58F7784BD089584B58F7DFBCFAD
:10036000809190008F778093900008958091900005
:100370008F7DF9CF80919000877FF5CF8091C0006D
:100380008F778093C00008958091C0008F7DF9CF52
:100390008091C200877F8093C20008951F93CF93FE
:1003A000DF93282F30E0F901EE56FE4F8491F901DA
:1003B000ED58FE4FD491F901EC5AFE4FC491CC2375
:1003C000A9F0162F81110E948201EC2FF0E0EE0FB0
:1003D000FF1FE85CFE4FA591B4918FB7F894EC91A4
:1003E000111108C0D095DE23DC938FBFDF91CF9130
:1003F0001F910895DE2BF8CFCF93DF9390E0FC019F
:10040000ED58FE4F24918C5A9E4FFC018491882315
:10041000D1F090E0880F991FFC01E65DFE4FA59199
:10042000B491FC01E85CFE4FC591D49161110EC0FE
:100430009FB7F8948C91E22FE0958E238C932881BE
:10044000E223E8839FBFDF91CF9108958FB7F8949F
:10045000EC91E22BEC938FBFF6CF1F93CF93DF93FA
:10046000182FEB0161E00E94FC01209739F460E055
:10047000812FDF91CF911F910C94CE01CF3FD105F9
:1004800011F461E0F5CFE12FF0E0EE56FE4FE4917C
:10049000E150EF3008F07FC0F0E0EF5AFD4F0C94D0
:1004A000BB15600268026D0277028102CB02CB02AB
:1004B000CB028B0295029F02A902B602CB02BE02BA
:1004C00084B5806884BDC7BDDF91CF911F91089529
:1004D00084B5806284BDC8BDF7CF809180008068FC
:1004E00080938000D0938900C0938800EDCF8091E5
:1004F0008000806280938000D0938B00C0938A003C
:10050000E3CF80918000886080938000D0938D003D
:10051000C0938C00D9CF8091900080688093900028
:10052000D0939900C0939800CFCF809190008062C3
:1005300080939000D0939B00C0939A00C5CF809188
:100540009000886080939000D0939D00C0939C00A1
:10055000BBCF8091C00080688093C0008091C000B4
:100560008F7B8093C000C093CF00AECF8091C0003E
:1005700080628093C000C093D000A6CF8091C2005B
:1005800088608093C2008091C2008B7F8093C200FC
:10059000C093D20099CFC038D1050CF072CF67CF8D
:1005A0008251E82FF0E0E25EFE4FE49190917B00F3
:1005B0008E2F880F880F80729F7D892B80937B0000
:1005C000E770E064E0937C0080917A00806480931F
:1005D0007A0080917A0086FDFCCF8091780090911E
:1005E000790008953FB7F8948091FC039091FD0342
:1005F000A091FE03B091FF0326B5A89B05C02F3F35
:1006000019F00196A11DB11D3FBFBA2FA92F982F38
:100610008827BC01CD01620F711D811D911D42E033
:10062000660F771F881F991F4A95D1F708958F92FB
:100630009F92AF92BF92CF92DF92EF92FF924B01C7
:100640005C010E94F2026B017C010E94F2026C19B3
:100650007D098E099F09683E734081059105A8F3C5
:1006600021E0821A9108A108B10888EEC80E83E043
:10067000D81EE11CF11C81149104A104B10429F7D6
:10068000FF90EF90DF90CF90BF90AF909F908F90B2
:1006900008950C94280140912B0350912C03209134
:1006A000290330912A0342175307B4F49091E800CC
:1006B0009570E1F39091E80092FD19C08093F100EC
:1006C00080912B0390912C0301968F739927892B8E
:1006D00019F48EEF8093E80080912B0390912C0306
:1006E000019690932C0380932B0381E0089580E082
:1006F0000895EF92FF920F931F93CF93DF93F82EFD
:10070000192FE62E042F81E0860F880F0E944B03DD
:1007100083E00E944B03CF2DD12FEC0EFD2EF11C58
:10072000CE15DF05B9F007FF13C0FE0184910E94CA
:100730004B03182F80E00E944B03812321968111E7
:10074000EFCFDF91CF911F910F91FF90EF90089520
:100750008881EDCF81E0F5CFDF92EF92FF920F938A
:100760001F93CF93DF93D82E8A01EB017B01E40E18
:10077000F51ECE15DF0559F0D7FE12C0FE0184919B
:100780000E944B0321968111F4CF0FEF1FEFC80198
:10079000DF91CF911F910F91FF90EF90DF9008951F
:1007A0008881EECF0F931F93CF93DF931F92CDB726
:1007B000DEB782E0898342E450E06CEA70E080E8D2
:1007C0000E94AC030E946E01DC0112960D911C91F7
:1007D0000115110589F0D801ED91FC910280F3819A
:1007E000E02DBE016F5F7F4FC801099597FD04C0E2
:1007F000F80100851185ECCF89810F90DF91CF91B1
:100800001F910F910895615030F02091F100FC018B
:1008100020830196F8CF289A84E680930C040895EB
:100820008F929F92AF92BF92CF92DF92EF92FF9200
:100830000F931F93CF93DF936C017B018A0180910B
:100840000B01882309F45CC080910D04882309F40E
:1008500057C080912F0380FF05C08091E000826027
:100860008093E000E801B12C8AEFA82E93E0892E56
:100870002AE3922E209711F4BB20D9F10E945D014A
:1008800081110AC0AA94AA20D9F161E070E080E049
:1008900090E00E941703EECF8C171D0611F00CF0AC
:1008A0008C2F9FB7F8948092E9002091E80025FDF5
:1008B00002C09FBFDFCF282F30E0C21BD30BF70150
:1008C000815020F041914093F100FACFE20EF31EE7
:1008D000BB2021F09092E800B12CEBCF8091E80092
:1008E00085FDE7CF9092E800BB24B394209709F3ED
:1008F000F3CF5D9A84E680932E03101611063CF028
:1009000081E090E0F6019383828310E000E0C8016B
:10091000DF91CF911F910F91FF90EF90DF90CF90DB
:10092000BF90AF909F908F900895FC0144815581B6
:10093000608171818EE094E00C941004CF93DF937A
:100940001F92CDB7DEB76983DC01ED91FC91028087
:10095000F381E02D41E050E0BE016F5F7F4F0995CC
:100960000F90DF91CF9108950E945D0190E008956E
:10097000CF93DF931F92CDB7DEB7FC0184859585B9
:1009800097FD08C02FEF3FEF358724870F90DF9149
:10099000CF910895CE0101960E943301019719F479
:1009A000898190E0F3CF8FEF9FEFF0CF0F931F93EC
:1009B000CF93DF931F92CDB7DEB78C01FC01848506
:1009C000958597FF0BC0CE0101960E9433010197D8
:1009D00071F4898190E0F80195878487F801848516
:1009E00095850F90DF91CF911F910F9108958FEF13
:1009F0009FEFF1CFFC018485958597FD0BC09FB7D4
:100A0000F89482E08093E9008091F2009FBF90E02B
:100A1000019608959FB7F89482E08093E900809151
:100A2000F2009FBF90E00895FC0180E041914423D3
:100A300071F090ED940F9230C8F7282F30E0220F1C
:100A4000331F81E0413309F080E0822BEFCF08951E
:100A5000CF93DF93D82FC8E06D2F661F6627661FE0
:100A600084E00E94CE01DD0F61E083E00E94CE01B0
:100A700060E083E00E94CE01C15071F7DF91CF9119
:100A80000895FF920F931F93CF93DF931091F0037C
:100A900080912403D0913403C0913503811106C0A5
:100AA000D0E0C0E0112311F0DFEFCFEFF09036037C
:100AB0000091330360E082E00E94CE018F2D0E94FE
:100AC00028058C2F0E9428058D2F0E942805802F35
:100AD0000E94280561E082E00E94CE016FEF70E085
:100AE000611B710986E00E942D026091370370E05E
:100AF00085E0DF91CF911F910F91FF900C942D0213
:100B0000CF92EF920F93E091BE03F091BF03EF2BD2
:100B100011F0CC2089F08093330360933403409329
:100B20003503209336030093F003E09237030F91CF
:100B3000EF90CF900C9441050F91EF90CF900895D6
:100B40009F92AF92BF92CF92DF92EF92FF920F935C
:100B50001F93CF93DF93C7E0D0E0B12C02EA11E0FE
:100B600093E8E92E91E0F92E24E6C22E21E0D22E60
:100B700061E08FE00E94CE01F8018491F701A4901A
:100B8000F6019490992051F181110E948201E92D82
:100B9000F0E0EE0FFF1FEA5BFE4FA591B4918C9140
:100BA000A82231E009F430E0832F0C2E01C0880F19
:100BB0000A94EAF7B82A60E08FE00E94CE012197FC
:100BC000B8F68B2DDF91CF911F910F91FF90EF9091
:100BD000DF90CF90BF90AF909F90089580E0E5CFD9
:100BE000CF92DF92EF92FF920F931F93CF93DF93F9
:100BF000CDB7DEB761970FB6F894DEBF0FBECDBF9D
:100C00008BE10E94D0028C018CE10E94D0027C0119
:100C10000E94F20298012E0D3F1D8901330F220B15
:100C2000330B600F711F821F931F611571058105C2
:100C3000910511F00E94C51481E1EFE5F1E0DE01BC
:100C4000119601900D928A95E1F70EE514E080E18E
:100C5000C82ED12CE12CF12C0E947614A70196010C
:100C60000E940D1521E030E02C0F3D1F620F731F15
:100C7000FB018081F80181938F01F4E006361F07A4
:100C800059F71092660461960FB6F894DEBF0FBE56
:100C9000CDBFDF91CF911F910F91FF90EF90DF902B
:100CA000CF900895FC0101900020E9F73197AF0142
:100CB000481B590BBC018EE094E00C941004009783
:100CC00011F00C94520690E080E00895CF92DF92EC
:100CD000EF92FF920F931F93CF93DF93CDB7DEB7C1
:100CE000A1970FB6F894DEBF0FBECDBF80E791E0AD
:100CF0000E945F0687E791E00E945F0680915E0494
:100D0000882361F086E891E00E945F0684E591E027
:100D10000E945F068EE594E00E945F068CE891E0F9
:100D20000E945F068CE991E00E945F0620910C0111
:100D300030E050E040E019A28E010F5D1F4F8AE0C5
:100D4000C82ED12CE12CF12CCA01B901A7019601C2
:100D50000E947615605DF80162938F0121153105BF
:100D60004105510589F7309719F0CF010E945206CD
:100D70008FE392E00E945F0683EA91E00E945206B0
:100D8000A1960FB6F894DEBF0FBECDBFDF91CF9115
:100D90001F910F91FF90EF90DF90CF900895CF9328
:100DA000DF930E945206EC0183EA91E00E94520612
:100DB0008C0F9D1FDF91CF910895CF92EF920F93EB
:100DC0001F93CF93DF9381E08093240386EA91E021
:100DD0000E94CF06D0E0C0E011E080E0C830D1052D
:100DE00034F4812F0C2E01C0880F0A94EAF79E017B
:100DF0002850310960E02830310528F4612F01C006
:100E0000660F2A95EAF79E012051310940E028300B
:100E1000310528F4412F01C0440F2A95EAF79E01BD
:100E2000285131092830310508F062C0912F01C0E6
:100E3000990F2A95EAF7292FCC24C39492E3E92E3F
:100E400002E30E9480056CE370E080E090E00E9485
:100E500017032196C032D10509F0BFCF88ECE82EE8
:100E600008EC2AEA4AEA6AEA8AEA0E94800568EC03
:100E700070E080E090E00E94170325E545E565E518
:100E800085E50E94800568EC70E080E090E00E94BB
:100E900017032FEF4FEF6FEF8FEF0E94800568EC85
:100EA00070E080E090E00E941703EE24EA940FEFD8
:100EB0002FEF4FEF6FEF8FEF0E9480056CE271E034
:100EC00080E090E00E941703E12C00E020E040E089
:100ED00060E080E00E9480051092240381EB91E0A5
:100EE000DF91CF911F910F91EF90CF900C94CF068F
:100EF00020E0A2CF0F931F93CF93DF93EC01888163
:100F00009981009759F02A813B812617370730F0E5
:100F100081E0DF91CF911F910F9108958B016F5F59
:100F20007F4F0E94FA16009759F0998388831B839C
:100F30000A832C813D81232B59F7FC011082E8CFD5
:100F400080E0E7CFFC0180819181009711F00C9443
:100F5000711608951F93CF93DF93EC01162F0E9413
:100F6000F714181739F0612FCE01DF91CF911F913F
:100F70000C94FF14DF91CF911F9108954F925F92CF
:100F80006F927F928F929F92AF92BF92CF92DF9299
:100F9000EF92FF920F931F93CF93DF93CDB7DEB7FE
:100FA00069970FB6F894DEBF0FBECDBF2DE031E0DC
:100FB000F90101900020E9F79F012E5031405E01B8
:100FC000FAE0AF0EB11CF50190E080E0450140E28F
:100FD0008217930724F4DC01A35FBE4F4C91419329
:100FE00001968830910599F726E131E0F9010190E9
:100FF0000020E9F79F01275131406E01F2E1CF0E49
:10100000D11CF60190E080E0360140E282179307A0
:1010100024F4DC01AA5EBE4F4C91419301968830C6
:10102000910599F72EE534E0F90101900020E9F7E8
:101030009F012F553440CE0101967C01FC0190E0C8
:1010400080E0270140E28217930724F4DC01A25AD2
:10105000BB4F4C91419301968830910599F71986C1
:101060006AE58AE090E00E94AA0765EA8BE090E0DA
:101070000E94AA0763E08CE090E00E94AA070DE0BE
:1010800010E0F50161915F01C8010E94AA070F5F9E
:101090001F4F05311105A9F7F60161916F01C801D4
:1010A0000E94AA070F5F1F4F0D311105A9F7F70125
:1010B00061917F01C8010E94AA070F5F1F4F06328E
:1010C0001105A9F7A201B301C4010E940401682F10
:1010D00086E290E00E94AA0769960FB6F894DEBFF8
:1010E0000FBECDBFDF91CF911F910F91FF90EF9079
:1010F000DF90CF90BF90AF909F908F907F906F9038
:101100005F904F9008950C94F714AF92BF92CF92D6
:10111000DF92EF92FF920F931F93CF93DF9300D054
:10112000CDB7DEB78C01A62EFC011182108213828E
:1011300012821582148270E060E00E947A07F80142
:101140002081318181114AC02115310519F0C90171
:101150000E947116F8011182108215821482138286
:10116000128287E0E82EF12CB12CC5010E2C02C0B2
:10117000959587950A94E2F780FD38C080E38983CE
:101180001A82F801C480D580FFEFCF1ADF0AB601BA
:10119000C8010E947A07882379F0F8012081318103
:1011A00084819581BE016F5F7F4F820F931F0E94E4
:1011B0000418F801D582C482F1E0EF1AF108A8F60C
:1011C000C8010F900F90DF91CF911F910F91FF9069
:1011D000EF90DF90CF90BF90AF900895158214826A
:1011E00065EA71E0C9010E940418BBCF81E3C7CF53
:1011F000CF92DF92EF92FF920F931F93CF93DF93E3
:10120000CDB7DEB728970FB6F894DEBF0FBECDBFBF
:101210008C01611584E0780714F06FEF73E077FFBD
:1012200002C070E060E07F936F938AEB91E09F9340
:101230008F93FE0131966F01FF93EF930E94621826
:10124000F801118210821382128215821482F60133
:1012500001900020E9F731977F01EC18FD08B701F4
:10126000C8010E947A070F900F900F900F900F9077
:101270000F90F8012081318181111DC021153105A8
:1012800019F0C9010E947116F801118210821582AD
:10129000148213821282C80128960FB6F894DEBF1A
:1012A0000FBECDBFDF91CF911F910F91FF90EF90B7
:1012B000DF90CF900895F582E482B601C9010E94C3
:1012C0000418E9CFCF92DF92EF92FF92CF93DF9392
:1012D00000D000D000D0CDB7DEB78FB7F894C09063
:1012E000F803D090F903E090FA03F090FB038FBF6E
:1012F00080913103811115C08091250390912603BF
:10130000A0912703B0912803A7019601281B390B50
:101310004A0B5B0BDA01C9010A97A105B10508F474
:1013200092C08FEB91E00E945F066091D8037091AC
:10133000D903CE0101960E94F808CE0101960E94C1
:101340009504CE0101960E94A2078FE392E00E94CD
:101350005F0685EC91E00E945F066091C403709186
:10136000C503CE0101960E94F808CE0101960E94A5
:101370009504CE0101960E94A2078FE392E00E949D
:101380005F068BEC91E00E945F0660912E01CE011A
:1013900001960E948508CE0101960E949504CE0117
:1013A00001960E94A2078FE392E00E945F0680ED03
:1013B00091E00E945F0660912D01CE0101960E948E
:1013C0008508CE0101960E949504CE0101960E94E7
:1013D000A2078FE392E00E945F0685ED91E00E94F4
:1013E0005F0660912C01CE0101960E948508CE0116
:1013F00001960E949504CE0101960E94A2078FE3F8
:1014000092E00E945F068AED91E00E945F06609183
:101410002B01CE0101960E948508CE0101960E9403
:10142000950483EA91E00E945206CE0101960E9443
:10143000A207C0922503D0922603E0922703F092E0
:1014400028031092310326960FB6F894DEBF0FBE24
:10145000CDBFDF91CF91FF90EF90DF90CF900895B7
:101460001F920F920FB60F9211242F933F938F93D9
:101470009F93AF93BF938091F8039091F903A0914C
:10148000FA03B091FB033091F70323E0230F2D37CC
:1014900058F50196A11DB11D2093F7038093F80321
:1014A0009093F903A093FA03B093FB038091FC039C
:1014B0009091FD03A091FE03B091FF030196A11D41
:1014C000B11D8093FC039093FD03A093FE03B093A2
:1014D000FF03BF91AF919F918F913F912F910F90FB
:1014E0000FBE0F901F90189526E8230F0296A11D9E
:1014F000B11DD2CF1F920F920FB60F9211242F93CE
:101500003F934F935F936F937F938F939F93AF938B
:10151000BF93CF93EF93FF93C091E1008091E100DF
:10152000837F8093E100C3FF0FC01092E90081E048
:101530008093EB001092EC0082E38093ED00109218
:101540000D0488E08093F000C2FF1AC00E942801B9
:1015500080912E03882341F080912E038150809347
:101560002E03811101C05D9880910C04882341F005
:1015700080910C04815080930C04811101C0289843
:10158000C4FF23C08091E2008E7E81608093E200E0
:101590008091E1008F7E8093E10080912F038E7E09
:1015A000806180932F03FF91EF91CF91BF91AF9115
:1015B0009F918F917F916F915F914F913F912F916B
:1015C0000F900FBE0F901F901895C0FFECCF809129
:1015D000E2008E7E80618093E2008091E1008E7E49
:1015E0008093E10080912F038E7E8160DACF1F927D
:1015F0000F920FB60F921124CF92DF92EF92FF92CB
:101600000F931F932F933F934F935F936F937F930A
:101610008F939F93AF93BF93EF93FF93CF93DF93FA
:10162000CDB7DEB76C97DEBFCDBF1092E9008091D9
:10163000E80083FF25C068E0CE0145960E940304C0
:1016400082EF8093E8008D8987FF39C09091E80090
:1016500090FFFCCF982F907609F034C19E894F8976
:10166000588D2F89F88C911131C0803861F58091A7
:1016700030038093F1001092F1008EEF8093E80028
:101680006C960FB6F894DEBF0FBECDBFDF91CF9141
:10169000FF91EF91BF91AF919F918F917F916F914A
:1016A0005F914F913F912F911F910F91FF90EF907C
:1016B000DF90CF900F900FBE0F901F9018959EEF68
:1016C0009093E800C7CF1092F100D5CF913059F434
:1016D0008111D3CF4130510581F6809130038D7F48
:1016E00080933003CACF933049F48111C6CF413083
:1016F000510519F6809130038260F2CF953041F4A4
:101700008091E80080FFFCCF20682093E300B5CFF4
:10171000963009F0A9C00B8D1C8D22E01092E900D3
:1017200010922C0310922B03F2122EC010922A0357
:10173000109229030E94D2031F8299E09983FA82B2
:1017400091E09E8390EA98879AEF998720912B03E6
:1017500030912C03275F3F4F3C832B838D83109266
:10176000E90010922C0310922B0310932A0300938C
:10177000290349E050E0BE016F5F7F4F80E00E9487
:10178000AC030E94D20379CF10932A03009329035C
:101790000E946E01DC0112960D911C91011511053C
:1017A00009F451C1D801ED91FC910480F581E02D3F
:1017B000BE016B5E7F4FC8010995009709F03EC1DD
:1017C000F80100851185EACFF3E0FF120EC08F8982
:1017D000882309F440C0823061F440E86DE080E184
:1017E00091E00E947903811148CF81E28093EB0060
:1017F00047CF813029F440E86BE084E091E0F1CFFD
:10180000833099F70E946E01DC011296ED90FC90F6
:101810008E010F5F1F4F6801E114F10479F0D701C9
:10182000ED91FC910680F781E02DB801C701099583
:10183000080F111DF701E084F184EECFD8011C924E
:10184000F60101900020E9F73197BF016C197D097D
:1018500040E0C601C6CF6EEE70E0FB01449150E05F
:1018600080E80E94AC0309CF973009F4BECF9830CE
:1018700021F481E08093F10000CF993009F0FDCE92
:10188000837009F0B2CFEEE4F1E081E031E096E35D
:101890002191222371F08093E9003093EB00DF0166
:1018A00011972C912093EC009093ED008F5F87307F
:1018B00079F78EE78093EA001092EA008F8980938F
:1018C0000D04DBCE8B8D9C8D1092E90010922C03C1
:1018D00010922B0390932A0380932903898D811101
:1018E00092C08E899D89913A49F4813209F07DCF69
:1018F00047E050E064E071E080E0B3CF913209F05E
:1019000074CF833269F48F89988DB0E0A0E0809322
:10191000000190930101A0930201B0930301ADCEA9
:10192000803269F48091E80082FFFCCF67E084E0B8
:1019300091E00E9403048BEF8093E8009ECE8232F8
:1019400009F09BCE8F8980930B01EEEFFFE7859125
:1019500094918B3F9C4D51F1E0E0F8E080910401BF
:1019600090910501A0910601B0910701803B944040
:10197000A105B105F1F480910B0180FD1AC0EE3F85
:101980008AE0F80789F587E797E79183808380915C
:10199000600080932D0388E19BE00FB6F894A89532
:1019A000809360000FBE9093600067CEEEEFFAE088
:1019B000D5CF808191818737974709F05ECEA89572
:1019C0008091600088618093600080912D038093F6
:1019D0006000EE3F2AE0F20789F08091FE0A9091C4
:1019E000FF0A9183808349CE808191818737980750
:1019F00051F29093FF0A8093FE0AC5CF1092FF0A1E
:101A00001092FE0A3ACE0E946E01DC0112960D91F0
:101A10001C910115110509F4E8CED801ED91FC9156
:101A20000190F081E02DBE016B5E7F4FC8010995EA
:101A3000811123CEF80100851185EBCF1816190608
:101A40000CF41BCED2CEF1E0FF12BECE62EF70E0FE
:101A500004CFCF93DF93CDB7DEB7C259D1090FB60C
:101A6000F894DEBF0FBECDBF789484B5826084BD8C
:101A700084B5816084BD85B5826085BD85B5816092
:101A800085BD80916E00816080936E001092810010
:101A900080918100826080938100809181008160CB
:101AA000809381008091800081608093800080918C
:101AB0009100826080939100809191008160809379
:101AC0009100809190008160809390008091C1008E
:101AD00084608093C1008091C10082608093C100C6
:101AE0008091C10081608093C1008091C3008160BA
:101AF0008093C3008091C00082608093C000809179
:101B0000C20081608093C20080917A0084608093DB
:101B10007A0080917A00826080937A0080917A00C6
:101B2000816080937A0080917A00806880937A0047
:101B300010920D041092300310922F038091D70061
:101B400081608093D70080EA8093D80089B5806156
:101B500089BD89B5826089BD09B400FEFDCF61E011
:101B600070E080E090E00E9417038091D8008F7CA5
:101B700080618093D8008091E000807F8093E000B6
:101B80008091E1008E7E8093E1008DE08093E20001
:101B9000559A209A5D9828988FEF9FEF90931B0499
:101BA00080931A0490E080E00E948308082F01507F
:101BB000110B0230110508F0B0C080930C018AE0CF
:101BC00090E00E948308182F8BE090E00E94830829
:101BD000982F812F8A35954A09F4A8C00E94F005F4
:101BE0000E94BE0761E082E00E94FC0161E083E0A8
:101BF0000E94FC0161E084E00E94FC0161E086E05B
:101C00000E94FC0161E085E00E94FC0160E080E14F
:101C10000E94FC0161E08FE00E94FC0161E08EE027
:101C20000E94FC0170E060E086E00E942D0270E0FE
:101C300060E085E00E942D028CEE93E0A8ECB3E01A
:101C4000ECEDF3E0119211921D921D928E179F07F9
:101C5000C9F781E090E09093F6038093F5032FB7E6
:101C6000F8948091F8039091F903A091FA03B09150
:101C7000FB032FBF8093F1039093F203A093F30330
:101C8000B093F4031092F0030E9441050E9466068F
:101C900081E0809331031092B9031092B80310923F
:101CA000380376E1272E71E0372E8FB7F8944090F5
:101CB000F8035090F9036090FA037090FB038FBF14
:101CC0008091F5039091F603019709F0ECC08091A3
:101CD000F1039091F203A091F303B091F403A301F7
:101CE0009201281B390B4A0B5B0B283BBBE03B07DF
:101CF0004105510508F4B2C01092F0030E9441055D
:101D000082E090E09093F6038093F50380E090E00A
:101D1000892B59F20E940000C8CF81E080930C010A
:101D200061E090E080E00E94AA0749CF8CE090E05B
:101D30000E948308782E7E012AE8E20EF11C8E01B3
:101D40000F571F4F58014701FDE0CF2ED12CC60180
:101D50000E948308D4018D934D01C60108960E940C
:101D60008308F50181935F01FFEFCF1ADF0A25E1B8
:101D7000C216D10461F7D70118961C92F80110869B
:101D8000F3E07F122BCF9E012F5F3F4F6901490186
:101D9000EDE1AE2EB12CC5010E948308D4018D93D4
:101DA0004D01BFEFAB1ABB0AE6E2AE16B10499F7DC
:101DB0001A8686E290E00E948308B82EA601B80138
:101DC000C7010E940401B81209CFA701485F5F4F05
:101DD00090E080E0D7012D917D01322F3F7D29F0E9
:101DE000FC01E35FFE4F208301964E155F0591F7DE
:101DF000835F9E4FFC011082A801485F5F4F90E017
:101E000080E0D8012D918D01322F3F7D29F0FC011A
:101E1000EA5EFE4F208301964017510791F78A5ED4
:101E20009E4FFC011082A601485F5F4F90E080E06A
:101E3000D6012D916D01322F3F7D29F0FC01E25A30
:101E4000FB4F208301964C155D0591F7FC01E25A8A
:101E5000FB4F1082892B09F0C5CEC0CE2C3DE5E0AA
:101E60003E074105510578F4AFEFB0E00E942C1514
:101E70002CED35E040E050E00E9476152093F00311
:101E80000E94410543CF2C5D354041095109AFEF18
:101E9000B0E00E942C152CED35E040E050E00E94AF
:101EA00076152095EBCF8EE094E00E94FA047C0139
:101EB000892B09F4D7C28EE094E00E94B8048D30DB
:101EC00091F38A3009F48BE32091B8033091B90380
:101ED0002F3731057CF4A9014F5F5F4F5093B90351
:101EE0004093B803285C3C4FD9018C93485C5C4F0D
:101EF000FA011082992493946BE370E088E393E0F5
:101F00000E94F0177C01009771F2DC011C924FE7F0
:101F100050E068E373E0CE0101960E942318C05898
:101F2000DF4F1882C058D040C701885393400091BA
:101F3000B8031091B903081B190B01501109B7011F
:101F40006F5F7F4FA80188E393E00E94CB17F801F1
:101F5000E85CFC4F10821093B9030093B8038981A9
:101F60008E010F5F1F4F882339F2F8018191803273
:101F700099F0893089F0F80101900020E9F7319754
:101F80000E171F0709F4B8CF8291803219F08930FB
:101F900009F00DC41082F4CF8F01E7CF6BEE71E032
:101FA000C8010E94DD17892B19F490923103A4CF48
:101FB0006FEE71E0C8010E94DD17892B09F09CCFFC
:101FC0000E94DD0699CFF70111926F0164EF71E075
:101FD000C8010E94DD17892BA1F4E090370300911E
:101FE000F003B0903603F090350310913403C6012E
:101FF0000E941405C12C2B2D4F2D612F0E948005AE
:102000007BCF69EF71E0C8010E94DD17892B69F46D
:10201000C12CE09037030091F003209136034091EA
:10202000350360E080913303E9CF6EEF71E0C801C2
:102030000E94DD17892B59F4C12CE09037030091E1
:10204000F0032091360340E060913403EBCF63E06E
:1020500072E0C8010E94DD17892B61F4E09037031C
:102060000091F003C6010E941405C12C282F409155
:102070003503EACF68E072E0C8010E94DD17892BC2
:1020800091F4C6010E94CE148F3F910519F014F00F
:102090008FEF90E097FD80E0C12CE0903703082F90
:1020A00020913603E4CF6BE072E0C8010E94DD1797
:1020B000892B81F4C6010E94CE148F3F910519F03F
:1020C00014F08FEF90E097FD80E0C12CE82E009196
:1020D000F003E6CF6EE072E0C8010E94DD17892BA5
:1020E00091F4C6010E94CE148536910514F084E661
:1020F00090E01816190614F081E090E0909320010A
:1021000080931F01F9CE66E172E0C8010E94DD17DD
:10211000892B91F4C6010E94CE148930910514F0E8
:1021200088E090E01816190614F081E090E0909392
:10213000300180932F01E0CE6EE172E0C8010E9471
:10214000DD17892B09F4D8CE66E272E0C8010E943F
:10215000DD17892B89F4C6010E94CE14893C9105B4
:1021600014F088EC90E097FF02C090E080E090933C
:10217000220180932101C0CE6FEE71E0C8010E9460
:10218000DD17892B09F41CCF44E050E06DE272E0CA
:10219000C8010E940B18892B09F0AECE0C5F1F4FAF
:1021A00058010F5F1F4FD5018C918032C9F343E076
:1021B00050E062E372E0C5010E940B18892B89F49C
:1021C0006AE571E0C6010E94FB17892B39F49092F1
:1021D000320386E392E00E94CF068ECE81E492E045
:1021E000FACF42E050E060E572E0C5010E940B18B2
:1021F000892B09F04CC080913203882309F447C031
:102200006EE270E0C6010E94F0178C010097E1F1C8
:10221000C816D906C8F5F60101900020E9F73197F4
:10222000EC19FD09EE0EFF1E8E159F0568F5C6011F
:102230000E94CE147C01C80101960E94CE14970121
:102240002150310929303105E0F48A309105C8F474
:102250009F938F93FF92EF92E3E5F2E0FF93EF936A
:102260001F9289E08F933F922F920E9432188DE542
:1022700092E00E94CF060FB6F894DEBF0FBECDBF2E
:102280003BCE89E692E0A7CF88E792E0A4CF44E076
:1022900050E068E872E0C5010E940B18892BC9F56F
:1022A000809132038823A9F1F60101900020E9F71B
:1022B00031978F010C191D09C8010397069790F4F7
:1022C000D70112968C9112978D3261F411968C91F0
:1022D000082E000C990B0E94BA1762E0A62EB12CB2
:1022E000892B19F48DE892E076CF0A151B0509F4C5
:1022F00079C2F7018381082E000C990B0E94BA174E
:10230000FFEFEF1AFF0A892B69F32FEFA21AB20A27
:10231000ECCF42E050E06FE972E0C5010E940B187B
:10232000892B09F047C090913203992309F442C0E8
:10233000D6010D900020E9F79D0129503109B9E03F
:10234000EB0EF11CF6012C153D0529F08DEA92E00B
:1023500042CF8630D8F7819120ED280F2A3008F43B
:102360005FC28F7D815421E0863008F020E0EE15B9
:10237000FF0579F7922F992349F32EE534E0D60132
:102380008D916D019FE9980F963008F48052D90124
:102390008D939D01CE16DF0691F71092660482EAB6
:1023A00092E00E945F0684E591E00E945F068EE560
:1023B00094E011CF44E050E06DEB72E0C5010E9463
:1023C0000B18892B29F41092320382EC92E003CF90
:1023D00043E050E060ED72E0C5010E940B18892BCC
:1023E00049F580913203882329F164ED72E0C6013A
:1023F0000E94DD17892BD9F40E94BE071092320388
:1024000088ED92E00E94CF060E94280162E370E00E
:1024100080E090E00E94170388E198E00FB6F894FE
:10242000A895809360000FBE90936000FFCF85EE6B
:1024300092E0D1CE45E050E066EF72E0C5010E9427
:102440000B18892B09F058CD80913203882339F07D
:102450000E94BE07109232038CEF92E0BCCE87E060
:1024600093E0B9CE8091EC039091ED03A091EE033F
:10247000B091EF0393018201081B190B2A0B3B0B50
:10248000D901C8010A97A105B10508F43FCC4092D3
:10249000EC035092ED036092EE037092EF038BE138
:1024A0000E94D00200912F01109130012091DA0397
:1024B0003091DB03F901EE0FFF1FE452FC4F9183D3
:1024C0008083C9010196B8010E94A7159093DB0390
:1024D0008093DA03ECEDF3E030E020E060E070E0C0
:1024E000CB01201731076CF481909190092C000CDE
:1024F000AA08BB08680D791D8A1D9B1D2F5F3F4FE1
:10250000F0CF4801012E000CAA08BB08A5019401D8
:102510000E940D153093D9032093D8038CE10E94BB
:10252000D0022091C6033091C703F901EE0FFF1FBF
:10253000E853FC4F91838083C9010196B8010E9442
:10254000A7159093C7038093C603E8ECF3E060E01F
:1025500070E0CB01E016F10674F421913191032E65
:10256000000C440B550B620F731F841F951F2FEF38
:10257000E21AF20AEFCFA50194010E940D153093E3
:10258000C5032093C40360E08EE00E94CE010BE4FB
:1025900010E0C8010197F1F761E08EE00E94CE01E2
:1025A000C8010197F1F70E94A005809580932E0144
:1025B0000E94A005809580932D010E94A005809522
:1025C00080932C010E94A005809580932B0160E0F0
:1025D0008EE00E94CE01C8010197F1F761E08EE024
:1025E0000E94CE01C8010197F1F700E210E08FE0F0
:1025F000E82EF12C60E08FE00E94CE01C701019728
:10260000F1F761E08FE00E94CE01C7010197F1F779
:102610000150110979F780912E0190912A018913B7
:1026200012C020912D019091290129130CC02091F5
:102630002C0190912801291306C020912B01909123
:102640002701291769F14091C0035091C10360919E
:10265000C2037091C30393018201041B150B260B67
:10266000370BB901A8014C30510561057105C0F067
:102670004092C0035092C1036092C2037092C303A0
:1026800080932A0180912D018093290180912C0152
:102690008093280180912B01809327010E94620979
:1026A000E091D803F091D903809125019091260102
:1026B0009F01281B390B37FF03C031952195310944
:1026C0006091C4037091C50380912301909124010E
:1026D000AB01481B590BCA0157FF03C09195819567
:1026E00091094091210150912201241735070CF4E2
:1026F00085C0A0911F01B09120012A173B070CF45F
:102700007DC0F0932601E093250121E08417950711
:102710000CF079C00E94620902C02111FBCF8091A8
:102720002E0181111AC080912D018932B1F480915E
:10273000BE039091BF03892B81F481E090E09093D8
:10274000BF038093BE034092BA035092BB036092D2
:10275000BC037092BD030E94DD068091BE03909180
:10276000BF03019709F0D2CA8091BA039091BB03CD
:10277000A091BC03B091BD03481A590A6A0A7B0AAA
:1027800058E945165AE355066104710408F4BECAB7
:102790001092BF031092BE03CC24C394E12C00E03E
:1027A00020E040E060E080E00E948005AFCA6AE37C
:1027B00070E0C8010E94F0177C01892B09F003CC5E
:1027C0006FED71E0C8010E94DD17892B41F063EEC7
:1027D00071E0C8010E94DD17892B09F0DFCB0E9450
:1027E00066068ACB48E050E0B6018DE091E00E9499
:1027F00023181092150186E193E0EDCC20E08417B8
:1028000095070CF48CCF40911F0150912001841743
:1028100095070CF482CF70932401609323017ACF43
:10282000EE15FF0509F097CDA6CDEEE0F4E013829A
:10283000128288EE93E0A0E0B0E084839583A683C3
:10284000B7838FE391E0918380838FEF9FEF95872C
:10285000848708958F929F92AF92BF92CF92DF921A
:10286000EF92FF92CF93DF93EC01688179818A81A7
:102870009B81611571058105910521F464E279ED73
:102880008BE597E02DE133EF41E050E00E940D151C
:1028900049015A019B01AC01A7EAB1E40E942C1541
:1028A0006B017C01ACEEB4EFA50194010E943A15D6
:1028B000C60ED71EE81EF91EF7FE06C081E0C81A34
:1028C000D108E10880E8F80AC882D982EA82FB824E
:1028D000C701B6019F77DF91CF91FF90EF90DF9016
:1028E000CF90BF90AF909F908F9008958F929F92BE
:1028F000AF92BF92CF92DF92EF92FF92609131013F
:10290000709132018091330190913401611571050C
:102910008105910521F464E279ED8BE597E02DE1E5
:1029200033EF41E050E00E940D1549015A019B012F
:10293000AC01A7EAB1E40E942C156B017C01ACEE5E
:10294000B4EFA50194010E943A15C60ED71EE81EE9
:10295000F91EF7FE06C081E0C81AD108E10880E838
:10296000F80AC0923101D0923201E0923301F09224
:102970003401C701B6019F77FF90EF90DF90CF90B1
:10298000BF90AF909F908F900895609331017093A6
:10299000320180933301909334010895FC0188271C
:1029A0009927E89421912032E9F3293010F02E3054
:1029B000C8F32B3241F02D3239F4689404C00E94E0
:1029C000EC14820F911D219120532A30C0F31EF484
:1029D000909581959F4F08957AE0979F902D879FBE
:1029E000802D910D11240895992788270895F9992C
:1029F000FECF92BD81BDF89A992780B50895262F04
:102A0000F999FECF1FBA92BD81BD20BD0FB6F894D3
:102A1000FA9AF99A0FBE01960895052E97FB1EF4B7
:102A200000940E94241557FD07D00E94761507FCDC
:102A300003D04EF40C942415509540953095219573
:102A40003F4F4F4F5F4F08959095809570956195DA
:102A50007F4F8F4F9F4F08950E949815A59F900D0F
:102A6000B49F900DA49F800D911D11240895B7FF70
:102A70000C942C150E942C15821B930B08952F92F9
:102A80003F924F925F926F927F928F929F92AF92FE
:102A9000BF92CF92DF92EF92FF920F931F93CF934B
:102AA000DF93CDB7DEB7CA1BDB0B0FB6F894DEBFE2
:102AB0000FBECDBF09942A88398848885F846E8408
:102AC0007D848C849B84AA84B984C884DF80EE8052
:102AD000FD800C811B81AA81B981CE0FD11D0FB65B
:102AE000F894DEBF0FBECDBFED010895A1E21A2E0E
:102AF000AA1BBB1BFD010DC0AA1FBB1FEE1FFF1FA2
:102B0000A217B307E407F50720F0A21BB30BE40BF1
:102B1000F50B661F771F881F991F1A9469F7609538
:102B20007095809590959B01AC01BD01CF010895F2
:102B3000A29FB001B39FC001A39F700D811D1124FE
:102B4000911DB29F700D811D1124911D089597FB59
:102B5000072E16F4009407D077FD09D00E94C11506
:102B600007FC05D03EF4909581959F4F0895709590
:102B700061957F4F0895EE0FFF1F0590F491E02DB2
:102B80000994AA1BBB1B51E107C0AA1FBB1FA617B4
:102B9000B70710F0A61BB70B881F991F5A95A9F706
:102BA00080959095BC01CD0108950F931F93CF930D
:102BB000DF938230910510F482E090E0E0916A04A6
:102BC000F0916B0430E020E0B0E0A0E0309799F4A1
:102BD0002115310509F44AC0281B390B2430310571
:102BE000D8F58A819B816115710589F1FB01938379
:102BF0008283FE0111C040815181028113814817F7
:102C00005907E0F04817590799F4109761F01296A8
:102C10000C93129713961C933296CF01DF91CF91AC
:102C20001F910F91089500936A0410936B04F4CFE1
:102C30002115310551F04217530738F0A901DB0186
:102C40009A01BD01DF01F801C1CFEF01F9CF9093E7
:102C50006B0480936A04CDCFFE01E20FF31F8193D2
:102C600091932250310939832883D7CF209168046A
:102C700030916904232B41F42091370130913801C0
:102C80003093690420936804209135013091360116
:102C90002115310541F42DB73EB7409139015091CE
:102CA0003A01241B350BE0916804F0916904E217A6
:102CB000F307A0F42E1B3F0B2817390778F0AC015F
:102CC0004E5F5F4F2417350748F04E0F5F1F50933C
:102CD000690440936804819391939FCFF0E0E0E012
:102CE0009CCFCF93DF930097E9F0FC0132971382DA
:102CF0001282A0916A04B0916B04ED0130E020E0F3
:102D00001097A1F420813181820F931F20916804D4
:102D1000309169042817390709F061C0F0936904FC
:102D2000E0936804DF91CF910895EA01CE17DF07A1
:102D3000E8F54A815B819E0141155105B1F7E90132
:102D4000FB83EA8349915991C40FD51FEC17FD0706
:102D500061F4808191810296840F951FE901998326
:102D60008883828193819B838A83F0E0E0E01296DE
:102D70008D919C9113970097B9F52D913C911197E6
:102D8000CD010296820F931F20916804309169044F
:102D90002817390739F6309751F510926B041092C5
:102DA0006A04B0936904A0936804BCCFD383C28340
:102DB00040815181840F951FC817D90761F44E5F78
:102DC0005F4F88819981480F591F518340838A81C1
:102DD0009B81938382832115310509F0B0CFF09355
:102DE0006B04E0936A049ECFFD01DC01C0CF138227
:102DF0001282D7CFB0E0A0E0E0E0F7E10C944115FB
:102E00008C01009751F4CB010E94D5158C01C801AB
:102E1000CDB7DEB7E0E10C945D15FC01E60FF71FBE
:102E20009C0122503109E217F30708F49DC0D90133
:102E3000CD91DC911197C617D70798F0C530D10511
:102E400030F3CE0104978617970708F3C61BD70BFC
:102E50002297C193D1936D937C93CF010E947116F9
:102E6000D6CF5B01AC1ABD0A4C018C0E9D1EA09101
:102E70006A04B0916B04512C412CF12CE12C109779
:102E800031F580916804909169048815990509F0DD
:102E90005CC04616570608F058C0809135019091E5
:102EA0003601009741F48DB79EB74091390150919A
:102EB0003A01841B950BE817F90708F055C0F09309
:102EC0006904E0936804F90171836083A0CF8D9158
:102ED0009C91119712966C90129713967C90139771
:102EE000A815B90559F56C0142E0C40ED11CCA14ED
:102EF000DB0420F1AC014A195B09DA01129615973F
:102F000080F06282738251834083D9016D937C93F8
:102F1000E114F10471F0D7011396FC93EE9312972C
:102F200076CF22968C0F9D1FF90191838083F30148
:102F3000EFCFF0936B04E0936A0469CF481659060B
:102F400008F42C017D01D3019ACFCB010E94D51545
:102F50007C01009749F0AE01B8010E94C217C80178
:102F60000E947116870153CF10E000E050CF85FD1D
:102F70000C94F414806291110C94F41481568A51CB
:102F8000D8F70895FB01DC0102C001900D92415079
:102F90005040D8F708956817790768F4FB01DC0101
:102FA000E40FF51FA40FB51F02C002900E9241500E
:102FB0005040D8F708950C94C217FB01DC018D91A5
:102FC00081341CF08B350CF4805E619161341CF00F
:102FD0006B350CF4605E861B611189F3990B0895C3
:102FE000FC018191861721F08823D9F7992708954C
:102FF0003197CF010895FB01DC018D91019080197B
:103000000110D9F3990B0895FB01DC0101900D9299
:103010000020E1F70895FB01DC014150504088F0A9
:103020008D9181341CF08B350CF4805E619161349C
:103030001CF06B350CF4605E861B611171F3990B0B
:103040000895881BFCCFFB01DC014150504048F043
:1030500001900D920020C9F701C01D9241505040CF
:10306000E0F70895AEE0B0E0E8E3F8E10C944D1528
:103070000D891E898F89988D26E02C831A830983F8
:1030800097FF02C080E090E801979E838D83AE0198
:10309000455E5F4F698D7A8DCE0101960E9485183D
:1030A0004D815E8157FD0AC02F8138854217530735
:1030B0000CF49A01020F131FF80110822E96E4E01F
:1030C0000C946915AEE0B0E0E8E6F8E10C944D151B
:1030D0000D891E8986E08C831A8309838FEF9FE711
:1030E0009E838D83AE01475E5F4F6F89788DCE01E1
:1030F00001960E9485182F813885020F131FF80151
:1031000010822E96E4E00C946915ABE0B0E0EBE899
:10311000F8E10C943F157C013B018A01FC01178208
:103120001682838181FFC8C1CE0101965C01F7013F
:103130009381F30193FD859193FF81913F01882352
:1031400009F453C1853239F493FD859193FF819140
:103150003F01853229F4B70190E00E94751AE7CF4C
:10316000912C212C312CFFE1F31538F08B3211F129
:1031700090F4803209F1833229F137FC3CC020ED14
:10318000280F2A3050F536FE20C08AE0989E200D88
:103190001124922E06C08D3291F0803371F768941D
:1031A00030F8F30193FD859193FF81913F018111E7
:1031B000DACF21C0689431F8689432F8F2CF68947D
:1031C00033F8EFCF689434F8ECCFEAE02E9E200D70
:1031D0001124222E689435F8E4CF8E3229F436FC7F
:1031E00004C1689436F8DDCF8C3619F4689437F84A
:1031F000D8CF8836B1F2982F9F7D95549330E0F068
:103200008336A1F18337C1F1833509F063C028010A
:10321000F2E04F0E511CF801C080D180692D70E0A2
:1032200036FC02C06FEF7FEFC6010E945F1A4C01AF
:10323000689437F882010AC00C5F1F4FFFE3F983DF
:1032400088248394912C6501E89437F833FE2DC0CF
:10325000522C8114910471F5552009F468CFB701FF
:1032600080E290E00E94751A5A94F6CFF8018081AE
:1032700089830E5F1F4FE4CF2801F2E04F0E511CEF
:10328000F801C080D180692D70E036FC02C06FEF7C
:103290007FEFC6010E946A1A4C018201D5CFB701A7
:1032A00080E290E00E94751A2A942814190409F00B
:1032B000B0F7CECFF60137FC859137FE81916F01D3
:1032C000B70190E00E94751A51105A94F1E08F1ADC
:1032D0009108BFCF843619F0893609F077C0F8011C
:1032E00037FE6BC060817181828193810C5F1F4FBB
:1032F000F32DFF763F2E97FF09C09095809570952E
:1033000061957F4F8F4F9F4F689437F82AE030E0E8
:10331000A5010E94A51AC82ECA188C2C432C36FE73
:103320000CC0E89440F8C91440F434FE05C032FCE7
:1033300003C0F32DFE7E4F2E892C44FE95C0FE0166
:10334000EC0DF11D8081803309F087C0242D297E8A
:10335000422E842D8870582E43FC95C040FE8FC0AD
:103360009C2C821418F42C0C922C981844FE91C0BA
:10337000B70180E390E00E94751A42FE09C088E719
:1033800090E041FE02C088E590E0B7010E94751A06
:10339000C91408F48AC0CA94D12C9FEFC91AD90A5B
:1033A000CA0CDB1CF60182916F01B70190E00E940C
:1033B000751AAC14BD04B1F74FCF60817181072E2F
:1033C000000C880B990B0E5F1F4F92CFD32CE89403
:1033D000D4F82AE030E0853739F1232D297FD22E29
:1033E0008F3601F148F48835A9F0F701868197817D
:1033F0002B96E2E10C945B15803749F08837A9F7EA
:10340000D4FE02C06894D2F820E130E00DC0689488
:10341000D4F8F6CF34FE03C0822F8660D82E20E188
:1034200032E002C028E030E0F801D7FE0FC0608132
:103430007181828193810C5F1F4FA5010E94A51AA3
:10344000C82ECA183D2CE89437F867CF6081718187
:1034500090E080E00E5F1F4FF0CF42FC02C08394EB
:1034600078CF8394839475CF842D867809F471CFB7
:10347000F6CFB70180E290E00E94751A839482141F
:10348000C0F3512C73CF522C5818821408F46ECF0D
:10349000F8CF842D867809F47BCF8BE241FE80E261
:1034A00047FC8DE2B70190E071CFB70180E390E077
:1034B0000E94751A9A946CCF8FEF9FEF99CFFC0101
:1034C0000590615070400110D8F7809590958E0F4F
:1034D0009F1F0895FC016150704001900110D8F7C2
:1034E000809590958E0F9F1F08950F931F93CF93F4
:1034F000DF93182F092FEB018B8181FD09C01FEF8E
:103500000FEF812F902FDF91CF911F910F91089591
:1035100082FF14C02E813F818C819D81281739073D
:103520003CF4E881F981CF01019699838883108367
:103530008E819F8101969F838E83E3CFE885F985F5
:10354000812F0995892BA1F3DACFFA01AA27283018
:1035500051F1203181F1E8946F936E7F6E5F7F4F60
:103560008F4F9F4FAF4FB1E03ED0B4E03CD0670FDC
:10357000781F891F9A1FA11D680F791F8A1F911D2F
:10358000A11D6A0F711D811D911DA11D20D009F47F
:1035900068943F912AE0269F11243019305D3193C1
:1035A000DEF6CF010895462F4770405D4193B3E0AA
:1035B0000FD0C9F7F6CF462F4F70405D4A3318F051
:1035C000495D31FD4052419302D0A9F7EACFB4E002
:1035D000A6959795879577956795BA95C9F70097BA
:1035E0006105710508959B01AC010A2E069457955B
:1035F000479537952795BA95C9F7620F731F841FB2
:0A360000951FA01D0895F894FFCF58
:10360A00FFFFFFFF00E100000000000001442D4120
:10361A0033323000000050434220312E3000000A7D
:10362A00000A00F1D8F1D8FFFFFFFFFFFFFFFF04F8
:10363A00000100000000006C048000000000009EF1
:10364A00041004B4044903FA04B804D60400C1807F
:10365A00810000004543414D2D003038313500309E
:10366A0031323334353637383941424344454600DE
:10367A004944454E543A004543414D2C2076312E5B
:10368A0033204D4151002C20534E3A003B535441B4
:10369A0054453A52554E4E494E473B0048575245BB
:1036AA00563A000D0A0044494147205354415254A6
:1036BA00004449414720454E4400253034640050B7
:1036CA004F54313A00504F54323A00494E313A0081
:1036DA00494E323A00494E333A00494E343A00567E
:1036EA0045520056455253494F4E005245510044E7
:1036FA00494147004C454431004C454432004C4551
:10370A004433004C45443400424C00414E00534D72
:10371A004F5F54485200534D4F5F53414D00534D34
:10372A004F5F444C5900504F545F44420053455434
:10373A002000454E410053455420454E413E203B12
:10374A000053455420454E413A4641494C203B00DE
:10375A004657005043622025642E25640053455481
:10376A002046573A4F4B203B005345542046573A80
:10377A0052414E4745203B005345542046573A464E
:10378A004F524D4154203B00414349440053455454
:10379A0020414349443A464F524D4154203B00533D
:1037AA004E0053455420534E3A4F4B3A005345541A
:1037BA0020534E3A464F524D4154203B00455849FA
:1037CA00540053455420455849543A4F4B203B0026
:1037DA005752490059455300534554205752493AC4
:1037EA004F4B203B00534554205752493A464F52BB
:1037FA004D4154203B0057524954450057524954B1
:10380A00453A4F4B203B0057524954453A4C4F4397
:10381A004B4544203B0053455420414349443A4FC9
:04382A004B203B00F4
:00000001FF
