:020000040000FA
:100000000C945A010C948B010C948B010C948B0171
:100010000C948B010C948B010C948B010C948B0130
:100020000C948B010C948B010C948B010C948B0120
:100030000C948B010C948B010C948B010C948B0110
:100040000C948B010C948B010C948B010C948B0100
:100050000C948B010C948B010C948B010C94B516B1
:100060000C948B010C9429170C94FF160C948B01A3
:100070000C948B010C948B010C948B010C948B01D0
:100080000C948B010C948B010C948B010C948B01C0
:100090000C948B010C948B010C948B010C948B01B0
:1000A0000C948B010C948B010C948B010C948B01A0
:1000B0000C948B010C948B010C948B010C948B0190
:1000C0000C948B010C948B010C948B010C948B0180
:1000D0000C948B010C948B010C948B010C948B0170
:1000E0000C948B010C9449040C9426040C94CA01C2
:1000F0000C94DC040C94B1010C94BF020C94EB0141
:100100000C94E0020C94B9010C94F0010C94AB0136
:100110000C9427030C9459030C94E2010C940E03E5
:100120000C94F2020C9431030C94FA020C94BD016D
:100130000C9457040C94C6010C94CC020C94350416
:100140000C94D8010C94D4010C94E6010C94F31F88
:100150000C94B5170C94F0030C94B5010C943B036C
:100160000C94DE010C94C7020C94EA020C94D001AA
:100170000C948F040C9445030C94D6020C94C0018B
:100180000C9418030C9404030C944F030C94EC018E
:1001900000002100240027002A002D003000330039
:1001A00001010000040107010A01000022002500EE
:1001B00028002B002E003100340002010000050150
:1001C00008010B01000020002300260029002C005C
:1001D0002F0032000001000003010601090105059E
:1001E0000505070508080808020202020A0A0808AD
:1001F00004040404010101010101010103030303DB
:1002000003030303040707070C0C0C0C0C0C0C0C69
:100210000202020206060606060606060B0B0B0B7A
:100220000B0B0B0B0102102020080810204010209F
:1002300040800201020108040201010204081020AA
:1002400040808040201008040201800402018040A8
:100250002010080402010804020101020408102011
:100260004080010204081020408000000A0B0209AF
:100270000C0D0E0807030401000000000000000040
:10028000000000000000000000000000000000006E
:10029000000000000000121110000000000000002B
:1002A000000000000000000000000000000000004E
:1002B000B517F31F11241FBECFEFD1E2DEBFCDBFB4
:1002C00000E00CBF28E0AEE0B7E001C01D92AD3702
:1002D000B207E1F717E0A0E0B2E0E4E7FCE400E0F9
:1002E0000BBF02C007900D92AE30B107D9F711E0F5
:1002F000C9E5D1E000E006C021970109802FFE0189
:100300000E949020C835D10780E00807A9F70E9415
:1003100080180C9428260C9400008150823108F03B
:100320005AC0E82FF0E08827E756FE4F8F4F0C9415
:100330009020B901BD01AB01B101B501EB01C001D4
:10034000C601CA01D001D401D801DE01E201EB01EE
:10035000E601EC01F001809180008F7780938000AE
:100360000895809180008F7DF9CF80918000877FF4
:10037000F5CF84B58F7784BD089584B58F7DFBCF8D
:100380008091B0008F778093B00008958091B00085
:100390008F7DF9CF809190008F77809390000895A2
:1003A000809190008F7DF9CF80919000877FF5CF6D
:1003B0008091A0008F778093A00008958091A00085
:1003C0008F7DF9CF8091A000877FF5CF80912001AC
:1003D0008F77809320010895809120018F7DF9CF40
:1003E00080912001877FF5CFCF93DF93282F30E0D6
:1003F000F901E659FD4F8491F901EC5DFD4FD4916F
:10040000F901E252FE4FC491CC23A1F081110E9468
:100410008D01EC2FF0E0EE0FFF1FEC53FE4FA59186
:10042000B491EC91ED2381E090E009F480E0DF915C
:10043000CF91089580E090E0FACF1F93CF93DF93A0
:10044000282F30E0F901E659FD4F8491F901EC5D68
:10045000FD4FD491F901E252FE4FC491CC23A9F093
:10046000162F81110E948D01EC2FF0E0EE0FFF1F7F
:10047000E655FE4FA591B4918FB7F894EC91111108
:1004800008C0D095DE23DC938FBFDF91CF911F9101
:100490000895DE2BF8CFCF93DF9390E0FC01EC5D65
:1004A000FD4F249182529E4FFC0184918823C9F014
:1004B00090E0880F991FFC01E057FE4FA591B49181
:1004C000FC01E655FE4FC591D49161110DC09FB757
:1004D000F8948C91209582238C93888128232883FB
:1004E0009FBFDF91CF910895623051F49FB7F89488
:1004F0003C91822F809583238C93E8812E2BEFCF24
:100500008FB7F894EC912E2B2C938FBFEACF1F93CB
:10051000CF93DF93182FEB0161E00E944B022097ED
:1005200039F460E0812FDF91CF911F910C941D026F
:10053000CF3FD10511F461E0F5CFE12FF0E0E659AE
:10054000FD4FE491E150E23108F0B3C0F0E08827BC
:10055000E355FD4F8F4F0C949020BF02C702CC0291
:10056000D602E0025903EA02F202FA0204030E0381
:1005700018032703310359033B0345034F0384B595
:10058000806884BDC7BDDF91CF911F91089584B568
:10059000806284BDC8BDF7CF809180008068809361
:1005A0008000D0938900C0938800EDCF80918000B7
:1005B000806280938000D0938B00C0938A00E3CF49
:1005C00080918000886080938000D0938D00C093DC
:1005D0008C00D9CF8091B00080688093B000C09328
:1005E000B300D1CF8091B00080628093B000C093FF
:1005F000B400C9CF80919000806880939000D09320
:100600009900C0939800BFCF809190008062809342
:100610009000D0939B00C0939A00B5CF809190003A
:10062000886080939000D0939D00C0939C00ABCFD6
:100630008091A00080688093A0008091A0008F7BB3
:100640008093A000D093A900C093A8009CCF809174
:10065000A00080628093A000D093AB00C093AA005A
:1006600092CF8091A00088608093A000D093AD00CD
:10067000C093AC0088CF80912001806880932001D6
:10068000D0932901C09328017ECF80912001806200
:1006900080932001D0932B01C0932A0174CF8091C5
:1006A0002001886080932001D0932D01C0932C01FC
:1006B0006ACFC038D1050CF03ECF33CF863308F077
:1006C000865320917B00982F9870277F922B9093D0
:1006D0007B008770806480937C0080917A008064C6
:1006E00080937A0080917A0086FDFCCF809178001B
:1006F0009091790008953FB7F894809168079091A0
:100700006907A0916A07B0916B0726B5A89B05C041
:100710002F3F19F00196A11DB11D3FBFBA2FA92F80
:10072000982F8827BC01CD01620F711D811D911D7D
:1007300042E0660F771F881F991F4A95D1F70895E9
:100740008F929F92AF92BF92CF92DF92EF92FF92E1
:100750004B015C010E947B036B017C010E947B03C7
:100760006C197D098E099F09683E734081059105CA
:10077000A8F321E0821A9108A108B10888EEC80EFA
:1007800083E0D81EE11CF11C81149104A104B10482
:1007900029F7FF90EF90DF90CF90BF90AF909F90A0
:1007A0008F9008952FB7F894609164077091650752
:1007B00080916607909167072FBF0895FC012481FF
:1007C00035816217730748F480819181009729F081
:1007D000860F971FFC018081089580E00895089599
:1007E000AF92BF92CF92DF92EF92FF920F931F933F
:1007F000CF93DF936C017B018B01040F151FEB017D
:100800005E01AE18BF08C017D10759F06991D60133
:10081000ED91FC910190F081E02DC6011995892B95
:1008200079F7C501DF91CF911F910F91FF90EF9064
:10083000DF90CF90BF90AF900895FC014481558127
:10084000608171818CE697E00C94F003FC01538D7C
:10085000448D252F30E0842F90E0821B930B54179A
:1008600010F0CF96089501970895FC01918D828D27
:10087000981761F0A28DAE0FBF2FB11D5D968C91C0
:10088000928D9F5F9F73928F90E008958FEF9FEFFF
:100890000895FC01918D828D981731F0828DE80FBB
:1008A000F11D858D90E008958FEF9FEF0895FC0175
:1008B000918D228D892F90E0805C9F4F821B910942
:1008C0008F73992708958CE697E00E94570421E0E2
:1008D000892B09F420E0822F0895FC01A48DA80F34
:1008E000B92FB11DA35ABF4F2C91848D90E0019672
:1008F0008F739927848FA689B7892C93A089B18992
:100900008C91837080648C93938D848D981306C032
:100910000288F389E02D80818F7D80830895EF9296
:10092000FF920F931F93CF93DF93EC0181E0888FA9
:100930009B8D8C8D98131AC0E889F989808185FF79
:1009400015C09FB7F894EE89FF896083E889F9891B
:1009500080818370806480839FBF81E090E0DF911D
:10096000CF911F910F91FF90EF900895F62E0B8D70
:1009700010E00F5F1F4F0F731127E02E8C8D8E112B
:100980000CC00FB607FCFACFE889F989808185FF92
:10099000F5CFCE010E946D04F1CFEB8DEC0FFD2F52
:1009A000F11DE35AFF4FF0829FB7F8940B8FEA894D
:1009B000FB8980818062CFCFCF93DF93EC01888D5C
:1009C0008823B9F0AA89BB89E889F9898C9185FDCA
:1009D00003C0808186FD0DC00FB607FCF7CF8C9158
:1009E00085FFF2CF808185FFEDCFCE010E946D049F
:1009F000E9CFDF91CF91089580E090E0892B29F035
:100A00000E94630481110E94000080E090E0892B25
:100A100049F080E090E0892B29F00E9400008111CC
:100A20000E94000080E090E0892B49F080E090E097
:100A3000892B29F00E94000081110E94000080E0B3
:100A400090E0892B49F080E090E0892B29F00E940A
:100A5000000081110C9400000895CF92DF92EF9274
:100A6000FF920F931F93CF937C01FC01C480D5802C
:100A700010E000E0C0E00C151D05A1F0B801C701B1
:100A80000E94DE0390ED980F923048F42C2F30E056
:100A9000220F331FC1E0813309F0C0E0C22B0F5F8A
:100AA0001F4FE9CF8C2FCF911F910F91FF90EF90A7
:100AB000DF90CF9008950F931F93CF93DF93082F6C
:100AC000162FD42FC8E06D2F661F6627661F802F54
:100AD0000E941D02DD0F61E0812F0E941D0260E077
:100AE000812F0E941D02C15071F7DF91CF911F919C
:100AF0000F9108950F931F93CF93DF931F921F922F
:100B0000CDB7DEB769834A83880F991F00917708B4
:100B100010917808000F111FE1E2F8E09F012152C7
:100B200038402017310714F41192F8CF2981FC01C5
:100B3000EF5DF74F21838A81808360E080917508A3
:100B40000E941D02101611066CF401501109F801E3
:100B5000EF5DF74F408160917308809171080E94AA
:100B60005B05F0CF61E0809175080F900F90DF91E9
:100B7000CF911F910F910C941D02EF92FF920F9352
:100B80001F93CF937C018C0183E0000F111F8A9586
:100B9000E1F70F5C174FC1E0F80111928F0140E0BF
:100BA0006C2FC7010E947A05CF5FC930A9F7CF919A
:100BB0001F910F91FF90EF90089520917708309149
:100BC0007808821793078CF46830710571F0FC0186
:100BD00023E0EE0FFF1F2A95E1F7EF5DF74FE60FD9
:100BE000F71F408B6F5F0C947A0508951F93CF9386
:100BF000DF93182F1195D0E0C0E0412FBE0190E0A7
:100C000080E00E94DD052196C630D105B1F7D0E025
:100C1000C0E0412FBE0181E090E00E94DD052196F9
:100C2000C830D105B1F7DF91CF911F910895209180
:100C3000770830917808821793073CF4603171058A
:100C400024F4462F6AE00C947A0508958F929F92BF
:100C5000AF92BF92CF92DF92EF92FF920F931F93CA
:100C6000CF93DF93A0902907B0902A0760E082E03D
:100C70000E941D024B2D63E084E00E945B054A2D1B
:100C800063E084E00E945B0561E082E00E941D0257
:100C9000C0902507D0902607E0902707F0902807FE
:100CA00060E083E30E941D02A7016627772764E3C3
:100CB00085E30E945B0577276F2D5E2D4D2D64E344
:100CC00085E30E945B054C2D64E385E30E945B0590
:100CD00061E083E30E941D0203E612E0D0E0C0E081
:100CE00090902407F80180810E5F1F4F692D70E0FE
:100CF0000C2E02C0759567950A94E2F761700E9408
:100D00001D022196C830D10559F703E512E0D0E065
:100D1000C0E080902307F80180810E5F1F4F682D8F
:100D200070E00C2E02C0759567950A94E2F7617029
:100D30000E941D022196C830D10559F703E412E044
:100D4000D0E0C0E0F80180810E5F1F4F60911D0769
:100D500070E00C2E02C0759567950A94E2F76170F9
:100D60000E941D022196C830D10561F7109122071B
:100D7000612F70E08BE00E948702D09121076D2FD8
:100D800070E08AE00E948702C09120076C2F70E01B
:100D900089E00E948702A0921B07B0921C07C092B4
:100DA0001707D0921807E0921907F0921A0790924D
:100DB00016078092150710931407D0931307C0935A
:100DC0001207DF91CF911F910F91FF90EF90DF906D
:100DD000CF90BF90AF909F908F9008951F93CF9327
:100DE000DF93C7E0D0E010E061E082E40E941D02E2
:100DF00083E40E94F4010C2E01C0880F0A94EAF7E4
:100E0000182B60E082E40E941D02219768F7812F71
:100E1000DF91CF911F910895FC0101900020E9F727
:100E20003197AF01481B590BBC018CE697E00C943D
:100E3000F0038DEC92E00C940C07CF93DF930E94AB
:100E40001D04EC010E9419078C0F9D1FDF91CF91AB
:100E500008958F929F92AF92BF920F931F93CF935B
:100E6000DF93CDB7DEB7A1970FB6F894DEBF0FBE04
:100E7000CDBF19A2423008F44AE08E010F5D1F4F2A
:100E8000842E912CB12CA12CA50194010E946E20DE
:100E9000E62FB901CA01EA30F4F4E05DD801EE931F
:100EA0008D01232B242B252B79F790E080E01097E0
:100EB00019F0CD010E940C07A1960FB6F894DEBF81
:100EC0000FBECDBFDF91CF911F910F91BF90AF901B
:100ED0009F908F900895E95CE1CFCF92DF92EF92DF
:100EE000FF92CF93DF936C01990FEE08FF08F7FE96
:100EF00019C06DE28CE697E00E948F04EC01662732
:100F00007727CB016C197D098E099F094AE00E9461
:100F100029078C0F9D1FDF91CF91FF90EF90DF90FD
:100F2000CF9008954AE0C701B601DF91CF91FF90BD
:100F3000EF90DF90CF900C942907CF93DF93D0E010
:100F4000C0E0009719F00E940C07EC010E941907FD
:100F50008C0F9D1FDF91CF91089581E080936207F0
:100F60000E94D20360932B0770932C0780932D0768
:100F700090932E0780ED92E00C949D07009711F05E
:100F80000C940C0790E080E008958BED92E00E94B5
:100F9000BE0782EE92E00E94BE0780EF92E00E94C0
:100FA000BE078FE994E00E94BE07809101029091F4
:100FB00002020E946D0786E393E00E94BE070C9434
:100FC0001907AF92BF92CF92DF92EF92FF920F93E9
:100FD0001F93CF93DF93DC01CD90DC901197C11468
:100FE000D10439F01496CD91DC918C0176012097D3
:100FF00061F4DF91CF911F910F91FF90EF90DF90FF
:10100000CF90BF90AF90089575015701BFEFAB1A15
:10101000BB0AF7018081082E000C990B0E943F202B
:10102000892B91F72197CC0DDD1D8881082E000CAE
:10103000990B0E943F20892B29F0CE15DF0510F077
:101040002197F3CFAE014F5F5F4F4E195F09D80173
:1010500015965C934E931497CE14DF0420F4B701D9
:10106000C6010E94C922D801ED91FC9111971496F6
:101070008D919C91E80FF91F1082BBCFCF93DF9326
:10108000FC01C081D181209761F08991882349F0CA
:10109000082E000C990B0E94C122FE01319780831B
:1010A000F4CFDF91CF9108953F924F925F926F926C
:1010B0007F928F929F92AF92BF92CF92DF92EF92E8
:1010C000FF920F931F93CF93DF937C01EB015A01A3
:1010D000322E280180E390E00E94C1228052FE015E
:1010E00095012C0F3D1FA82FB0E0A75FBD4F90E0EA
:1010F0008A3308F49C9191932E173F07C1F7F701AB
:10110000C480D58010E000E0912C812C0C151D05C9
:1011100061F0B801C7010E94DE038E3219F0FFEFC3
:101120008F1A9F0A0F5F1F4FF1CF6501C818D908AA
:10113000D7FE02C0D12CC12C460110E000E0F7011F
:10114000648075800615170518F48A149B049CF0BA
:1011500010E000E00615170509F441C0B801C70109
:101160000E94DE03082E000C990BC0970A9780F1AD
:101170000F5F1F4FEFCFB801C7010E94DE038E3211
:1011800079F431100AC0C814D9043CF4F401319741
:10119000EC0FFD1F8081806880830F5F1F4FCFCFD2
:1011A0003E01680C791C082E000C990B0E94C1228C
:1011B00080528A3358F4E82FF0E0E75FFD4F8081DA
:1011C000F3018083FFEF8F1A9F0AE7CF80E0F8CF0B
:1011D000332029F0C40DD51D888180688883DF9174
:1011E000CF911F910F91FF90EF90DF90CF90BF9024
:1011F000AF909F908F907F906F905F904F903F90B7
:101200000895EF92FF920F931F93CF93DF93CDB783
:10121000DEB72E970FB6F894DEBF0FBECDBF10E03D
:1012200000E020E046E050E0BE016F5F7F4F85E1C7
:1012300098E00E9454088E010F5F1F4F25E0E22EB8
:10124000F12CF80141918F01B70190E080E00E94FC
:10125000DD05F1E0EF1AF108A0F702E010E021E06F
:1012600044E050E0BE01695F7F4F8BE198E00E944F
:1012700054088E01095F1F4F93E0E92EF12CF8010D
:1012800041918F01B70181E090E00E94DD05F1E01E
:10129000EF1AF108A0F702E010E021E044E050E08E
:1012A000BE01655F7F4F8FE098E00E9454088E0179
:1012B000055F1F4F87E0E82EF12CF80141918F0167
:1012C000B70181E090E00E94DD05F1E0EF1AF1083E
:1012D00083E0E816F10489F72E960FB6F894DEBF86
:1012E0000FBECDBFDF91CF911F910F91FF90EF9077
:1012F0000895CF93DF93FC01248135814217530772
:1013000088F4C081D181062E000C770BCE01840FAA
:10131000951F0E94D222009729F08C1B9D0BDF9114
:10132000CF9108958FEF9FEFFACFEF92FF920F9337
:101330001F93CF93DF938617970769F1FC012481F0
:101340003581FB014481558124173507E1F4232BB6
:1013500011F1FC0100811181FB01C081D181F801F3
:1013600081918F018823B9F0082E000C990B0E94FF
:10137000B9227C018991082E000C990B0E94B92298
:10138000E816F90661F380E0DF91CF911F910F918C
:10139000FF90EF90089581E0F7CFFC012481358123
:1013A000232B39F421E0FB018081882349F020E0E0
:1013B00007C0808191810E94DD2221E0892BB9F74D
:1013C000822F08950F931F93CF93DF938C01EB012E
:1013D000FC01808191810097E1F06881798161153C
:1013E0007105A9F0428153812C813D814217530739
:1013F00070F00E94E6228C819D81F80195838483A0
:101400001D821C82DF91CF911F910F9108950E9440
:101410004F2188819981F801918380838A819B8102
:10142000938382838C819D81958384831982188222
:101430001B821A82E5CFCF93DF93EC0188819981DB
:10144000009711F00E944F21198218821D821C8280
:101450001B821A82DF91CF910895FC0180819181D6
:10146000009711F00C944F2108950F931F93CF9381
:10147000DF93EC0188819981009759F02A813B81A3
:101480002617370730F081E0DF91CF911F910F9140
:1014900008958B016F5F7F4F0E94D821009759F00C
:1014A000998388831B830A832C813D81232B59F7E1
:1014B000FC011082E8CF80E0E7CFEF92FF920F931C
:1014C0001F93CF93DF931F921F92CDB7DEB78C018E
:1014D00069831A82FC01E480F580FFEFEF1AFF0AAE
:1014E000B7010E94350A882381F0F80120813181FB
:1014F00084819581BE016F5F7F4F820F931F0E9491
:10150000E622F801F582E48281E00F900F90DF91EE
:10151000CF911F910F91FF90EF900895EF92FF925E
:101520000F931F93CF93DF93EC017B018A01BA01E4
:101530000E94350A81110BC0CE010E941B0ACE0108
:10154000DF91CF911F910F91FF90EF9008951D8330
:101550000C83B701888199810E94E622F0CFFB01BC
:1015600001900020E9F73197AF01461B570B0C940F
:101570008E0A1092620710922A0710922907109281
:10158000250710922607109227071092280710921D
:10159000220710922107109220070E94260660E081
:1015A00073E08BE198E00E94AF0A65E073E085E1AB
:1015B00098E00E94AF0A6CE073E08FE098E00E9430
:1015C000AF0A0E94010981E193E00E949D0781E03A
:1015D00080931F070895CF93DF93EC01FB018617DB
:1015E000970749F0608171816115710541F044816F
:1015F00055810E948E0ACE01DF91CF9108950E94FD
:101600001B0AF9CFFC01118210821382128215820B
:101610001482FB0101900020E9F73197AF01461BCE
:10162000570B0C948E0AAF92BF92CF92DF92EF923B
:10163000FF920F931F93CF93DF936C015B017A01AD
:1016400089012417350720F48F2D7901042F182FD5
:101650006FEC72E0C6010E94020BD5011496CD9189
:10166000DC91EC16FD06E0F40C171D0708F4E80108
:10167000D501ED91FC911197EC0FFD1F10811082A7
:101680006D917C916E0D7F1DC60161157105A1F0F4
:101690000E94AF0AF50180819181C80FD91F18837C
:1016A000C601DF91CF911F910F91FF90EF90DF90D6
:1016B000CF90BF90AF9008950E941B0AEBCFCF93BD
:1016C000DF93EC01FB01248135810E94130BCE01D5
:1016D000DF91CF910895EF92FF920F931F93CF93D5
:1016E000DF938C01E62E6FEC72E00E94020BC7E0E4
:1016F000D0E0F12CC7010C2E02C0959587950A9475
:10170000E2F760E380FD61E3C8010E945D0A219772
:1017100088F7C801DF91CF911F910F91FF90EF9053
:1017200008958F929F92AF92BF92CF92DF92EF92E5
:10173000FF920F931F93CF93DF9300D000D0CDB7CC
:10174000DEB70E94D2034B015C0180911F0781111B
:1017500015C080910E0790910F07A0911007B091CE
:101760001107A5019401281B390B4A0B5B0BDA0109
:10177000C9010A97A105B10508F48AC087E494E07D
:101780000E94BE0760915807CE0101960E946B0B24
:10179000CE0101960E941D04CE0101960E942D0AE1
:1017A00086E393E00E94BE078DE494E00E94BE07AA
:1017B00060915707CE0101960E946B0BCE010196F6
:1017C0000E941D04CE0101960E942D0A86E393E03B
:1017D0000E94BE0793E5E92E97E0F92E03E010E0A2
:1017E00083E594E00E94BE07C8010E946D0785E46E
:1017F00093E00E94BE07F70161917F01CE0101963F
:101800000E946B0BCE0101960E941D04CE01019631
:101810000E942D0A86E393E00E94BE070F5F1F4FD0
:1018200007301105E9F680914307882329F183E702
:10183000E82E82E0F82E10E000E0F7018081F2E06F
:10184000EF0EF11C0E945E036C018BE193E00E949D
:10185000BE07C8010E946D0785E493E00E94BE07A1
:10186000C6010E946D0786E393E00E94BE070F5FEA
:101870001F4F0630110509F70E94190780920E07C5
:1018800090920F07A0921007B092110710921F07B5
:1018900026960FB6F894DEBF0FBECDBFDF91CF9175
:1018A0001F910F91FF90EF90DF90CF90BF90AF907E
:1018B0009F908F9008952F923F924F925F926F92D8
:1018C0007F928F929F92AF92BF92CF92DF92EF92D0
:1018D000FF920F931F93CF93DF93CDB7DEB7AD97F2
:1018E0000FB6F894DEBF0FBECDBF99A788A7312CE5
:1018F000212C8E010F5F1F4FA1016BE388A599A5D5
:101900000E9479097C0197FF02C00C949C169C01EF
:10191000A10168A579A5CE0146960E94130B170177
:101920002FEF221A320ACE0146960E94E1078A8DD5
:101930009B8D892B09F442C050E040E06AE3CE0160
:1019400046960E9479097C0197FF7AC06DE173E0A9
:10195000CE010A960E94020BBE01665F7F4FCE0148
:1019600046960E949509FF24F394811112C061E20A
:1019700073E0C8010E94020BB801CE0146960E9496
:101980009509FF24F394811101C0F12CC8010E9434
:101990002D0ACE010A960E942D0AFF20A1F00E9476
:1019A000C50781E0809361070E94D20360935D07C1
:1019B00070935E0780935F0790936007CE01469611
:1019C0000E942D0A99CF69E273E0C8010E94020BC0
:1019D000B801CE0146960E949509F82EC8010E94D2
:1019E0002D0AFF2021F081E080931F07E7CF6DE1F2
:1019F00076E0C8010E94020BB801CE0146960E9413
:101A00009509F82EC8010E942D0AFF20B9F28DE237
:101A100093E00E949D078CE697E00E94DC0462E35D
:101A200070E080E090E00E94A00388E198E00FB6AB
:101A3000F894A895809360000FBE90936000FFCF4C
:101A40009C0150E040E0BE016A5E7F4FCE014C96A3
:101A50000E94130BA7014F5F5F4FBE016A5E7F4F6D
:101A6000CE0182960E945F0BCE014C960E94E10748
:101A7000CE0182960E94E10768E373E0C8010E94EC
:101A8000020BB801CE014C960E949509F82EC801B0
:101A90000E942D0AFF2021F1CE0182960E942D0581
:101AA000809324070E94260680911E07882379F0E0
:101AB0008DE393E00E94BE0760912407C8010E9455
:101AC0006B0BC8010E941D07C8010E942D0ACE01A0
:101AD00082960E942D0ACE014C960E942D0A6ECF4E
:101AE00067E473E0C8010E94020BB801CE014C9676
:101AF0000E949509F82EC8010E942D0AFF2099F036
:101B0000CE0182960E942D05809323070E9426060F
:101B100080911E078823D9F28CE493E00E94BE07CF
:101B200060912307CBCF66E573E0C8010E94020BEA
:101B3000B801CE014C960E949509F82EC8010E946A
:101B40002D0AFF20A1F0CE0182960E942D058093E0
:101B50001D070E94260680911E07882309F4B7CF2F
:101B60008BE593E00E94BE0760911D07A7CF65E655
:101B700073E0C8010E94020BB801CE014C960E948E
:101B80009509F82EC8010E942D0AFF20C9F0CE0148
:101B900082960E942D05F82E809129079F2D909303
:101BA0002A07809329070E94260680911E07882312
:101BB00009F48DCF8AE693E00E94BE076F2D7ECF99
:101BC00064E773E0C8010E94020BB801CE014C9695
:101BD0000E949509F82EC8010E942D0AFF2089F065
:101BE000CE0182960E942D05F82E809329070E942F
:101BF000260680911E07882309F469CF89E793E0C0
:101C0000DBCF63E873E0C8010E94020BB801CE018C
:101C10004C960E949509F82EC8010E942D0AFF20BB
:101C200011F1CE0182960E942D05F82E8091250794
:101C300090912607A0912707B0912807AA27BB27D4
:101C4000AF298093250790932607A0932707B09389
:101C500028070E94260680911E07882309F437CFA3
:101C600088E893E0A9CF62E973E0C8010E94020B03
:101C7000B801CE014C960E949509F82EC8010E9429
:101C80002D0AFF2011F1CE0182960E942D05F82E1B
:101C90008091250790912607A0912707B0912807EA
:101CA0009927BB279F298093250790932607A09308
:101CB0002707B09328070E94260680911E078823D5
:101CC00009F405CF87E993E077CF61EA73E0C801B3
:101CD0000E94020BB801CE014C960E949509F82E85
:101CE000C8010E942D0AFF2011F1CE0182960E94A8
:101CF0002D05F82E8091250790912607A0912707A2
:101D0000B09128078827BB278F29809325079093B8
:101D10002607A0932707B09328070E9426068091E4
:101D20001E07882309F4D3CE86EA93E045CF68EBFB
:101D300073E0C8010E94020BB801CE014C960E94CC
:101D40009509F82EC8010E942D0AFF20A9F0CE01A6
:101D500082960E945F1797FD0BC06F3F710581054A
:101D6000910509F03CF4609321070E942606AFCE4E
:101D700060E0F9CF6FEFF7CF60EB73E0C8010E942E
:101D8000020BB801CE014C960E949509F82EC801AD
:101D90000E942D0AFF2099F0CE0182960E945F17C3
:101DA00097FD09C06F3F71058105910509F02CF47D
:101DB00060932207DACF60E0FBCF6FEFF9CF63EBE0
:101DC00073E0C8010E94020BB801CE014C960E943C
:101DD0009509F82EC8010E942D0AFF20F1F0CE01CE
:101DE00082960E945F1797FD14C0603171058105CE
:101DF00091058CF460930002E62EF12CB70190E07F
:101E000080E00E941706B70181E090E00E9417066B
:101E10005ECE60E0EFCF6FE0EDCF6BEB73E0C8011B
:101E20000E94020BB801CE014C960E949509F82E33
:101E3000C8010E942D0ABE016E5D7F4F8BE198E0C4
:101E4000F11015C06FEB73E0C8010E94020BB801DE
:101E5000CE014C960E949509F82EC8010E942D0AC9
:101E6000FF2051F0BE016E5D7F4F85E198E00E943A
:101E7000EB0A0E9401092BCE6CEB75E0C8010E94B1
:101E8000020BB801CE014C960E949509F82EC801AC
:101E90000E942D0ABE016E5D7F4F8FE098E0F11029
:101EA000E6CF63EC73E0C8010E94020BB801CE01DB
:101EB0004C960E949509F82EC8010E942D0AFF2019
:101EC00001F144E050E0BE016E5D7F4FC8010E9409
:101ED0008517B8018BE198E00E94E209C8010E94D1
:101EE0002D0A0E94010980911E07882309F4EFCD75
:101EF00088EC93E00E94BE078BE198E00E941D07EA
:101F0000E6CD62ED73E0C8010E94020BB801CE017C
:101F10004C960E949509F82EC8010E942D0AFF20B8
:101F2000F1F046E050E0BE016E5D7F4FC8010E94B7
:101F30008517B80185E198E00E94E209C8010E9476
:101F40002D0A0E94010980911E07882309F4BFCD44
:101F500087ED93E00E94BE0785E198E0CFCF61EE68
:101F600073E0C8010E94020BB801CE014C960E949A
:101F70009509F82EC8010E942D0AFF20F1F044E0D7
:101F800050E0BE016E5D7F4FC8010E948517B80109
:101F90008FE098E00E94E209C8010E942D0A0E9489
:101FA000010980911E07882309F491CD86EE93E004
:101FB0000E94BE078FE098E0A1CF60EF73E0C801F8
:101FC0000E94020BB801CE014C960E949509F82E92
:101FD000C8010E942D0AFF2009F4C1C050E040E072
:101FE0006AE3CE0182960E9479097C0118161906CF
:101FF0000CF06DCD9C0150E040E0BE016E5D7F4F66
:10200000CE010A960E94130BA7014F5F5F4FBE01DE
:102010006E5D7F4FC8010E945F0B6BEB73E0CE01DA
:1020200040960E94020BBE01605F7F4FCE010A9670
:102030000E949509F82ECE0140960E942D0AFF209D
:1020400031F144E050E0B801CE0140960E9485177E
:10205000BE01605F7F4F8BE198E00E94E209CE01F4
:1020600040960E942D0A0E94010980911E07882334
:1020700041F084EF93E00E94BE078BE198E00E945C
:102080001D07C8010E942D0ACE010A961ECD6FEBD6
:1020900073E0CE0140960E94020BBE01605F7F4F4D
:1020A000CE010A960E949509F82ECE0140960E9414
:1020B0002D0AFF20F9F046E050E0B801CE0140962D
:1020C0000E948517BE01605F7F4F85E198E00E9406
:1020D000E209CE0140960E942D0A0E9401098091DA
:1020E0001E07882371F281E094E00E94BE0785E11B
:1020F00098E0C5CF6CEB75E0CE0140960E94020BD4
:10210000BE01605F7F4FCE010A960E949509F82EAE
:10211000CE0140960E942D0AFF2009F4B2CF44E080
:1021200050E0B801CE0140960E948517BE01605F65
:102130007F4F8FE098E00E94E209CE0140960E9416
:102140002D0A0E94010980911E07882309F499CF66
:102150008EE094E00E94BE078FE098E090CF6AE1A5
:1021600074E0C8010E94020BB801CE014C960E9497
:102170009509F82EC8010E942D0AFF2061F16BE33A
:1021800073E0CE0182960E94CD09811121C060ECDE
:1021900076E0C8010E94020BB801CE0182960E942F
:1021A000950991E0811101C090E081E090931E07B4
:1021B000882319F0C8010E942D0A84E294E00E944D
:1021C000BE0780911E0781117FC487EA95E020C178
:1021D00080E091E0EBCF63E374E0C8010E94020B62
:1021E000B801CE014C960E949509F82EC8010E94B4
:1021F0002D0AFF2009F412C168E374E0C8010E94AF
:10220000020BB801CE0182960E949509F82EC801F2
:102210000E942D0AFF2019F00E94AD0758CC6AE0F9
:1022200076E0C8010E94020BB801CE0182960E949E
:102230009509F82EC8010E942D0AFF2019F00E946E
:10224000B90A45CC8CE394E00E94BE076091580720
:10225000C8010E946B0BC8010E941D04C8010E94A6
:102260002D0A8CE494E00E94BE0760915707C801D4
:102270000E946B0BC8010E941D04C8010E942D0A18
:1022800073E5C72E77E0D72EE3E0EE2EF12C82E542
:1022900094E00E94BE07C7010E946D0785E493E0A9
:1022A0000E94BE07F60161916F01C8010E946B0B8D
:1022B000C8010E941D04C8010E942D0AFFEFEF1AF9
:1022C000FF0A27E0E216F10411F786E594E00E9488
:1022D000BE0760911B0770911C0790E080E040E111
:1022E0000E94290780E694E00E94BE0760911707CC
:1022F000709118078091190790911A0740E10E9488
:10230000290789E694E00E94BE076091160770E0F5
:1023100090E080E040E10E94290785E794E00E9478
:10232000BE076091150770E090E080E040E10E94F8
:10233000290781E894E00E94BE076091140770E0CD
:1023400090E080E04AE00E9429078AE894E00E9439
:10235000BE076091130770E090E080E04AE00E94C1
:10236000290783E994E00E94BE076091120770E09C
:1023700090E080E04AE00E9429078EE994E00E9404
:10238000BE0780910102909102020E946D078AEAC5
:1023900094E00E94BE076091000270E090E080E04F
:1023A0004AE00E94290786EB94E00E94BE078091D4
:1023B0005207811130C087EA95E00E94BE078EEB7C
:1023C00094E00E94BE0760912F07709130078091C2
:1023D0003107909132074AE00E94290788EC94E087
:1023E0000E94BE078BE198E00E941D048EEC94E0F1
:1023F0000E94BE0785E198E00E941D0484ED94E0F0
:102400000E94BE078FE098E00E941D0486E393E0DF
:102410000E949D075CCB80EC96E0CFCF69ED74E025
:10242000C8010E94020BB801CE014C960E9495098A
:10243000E82EC8010E942D0AEE2009F410C18EA1D9
:102440009FA1892B19F48FED94E0E2CF1A821982B3
:102450001C821B821E821D82BE016E5D7F4FC801E1
:102460000E94EB0AC8010E943E0868E675E0CE01B2
:102470000A960E94020B4E855F858D819E8184178E
:10248000950780F089819A81009761F06A857B8544
:102490006115710539F00E94ED22FF24F394892B18
:1024A00009F0F12CCE010A960E942D0AFF2009F4B2
:1024B000D1C06CE775E0CE010A960E94020BBE0106
:1024C000665F7F4FC8010E946A177C01CE010A96A1
:1024D0000E942D0A61E875E0CE010A960E94020B67
:1024E000BE01665F7F4FC8010E946A176C01CE0172
:1024F0000A960E942D0A66E875E0CE010A960E94AF
:10250000020BBE01665F7F4FC8010E946A173C0143
:10251000CE010A960E942D0AF7FC1FC0A7014D5F4D
:102520005F4FBE016E5D7F4FCE010A960E945F0B2A
:10253000CE010A960E945F174B01CE010A960E94B7
:102540002D0A97FC81C03FEF8316910421F01CF007
:1025500088248A94912C80922207D7FC1FC0A60160
:102560004D5F5F4FBE016E5D7F4FCE010A960E94A8
:102570005F0BCE010A960E945F174B01CE010A96AF
:102580000E942D0A97FC62C04FEF8416910421F03F
:102590001CF088248A94912C8092210777FC1EC01D
:1025A000A3014B5F5F4FBE016E5D7F4FCE010A9668
:1025B0000E945F0BCE010A960E945F174B01CE016D
:1025C0000A960E942D0A97FC43C050E1851691049B
:1025D0001CF04FE0842E912C809200020E9426066F
:1025E000E0900002F12CB70190E080E00E94170615
:1025F000B70181E090E00E9417068FE695E00E9407
:10260000BE076091220770E090E080E04AE00E94FF
:10261000290780E895E00E94BE076091210770E0DD
:1026200090E080E04AE00E94290785E895E00E945A
:10263000BE076091000270E090E080E04AE00E94F6
:1026400029070E94190740CA812C85CF812CA4CF6D
:10265000812CC2CF8FED94E00E949D0735CA6CE8B3
:1026600075E0C8010E94020BB801CE014C960E9491
:102670009509F82EC8010E942D0AFF2009F44BC0CD
:102680006BE373E0CE0182960E94CD0981113CC0BC
:1026900060EC76E0C8010E94020BB801CE01829680
:1026A0000E949509FF24F394811101C0F12C81E06F
:1026B000F0925207882319F0C8010E942D0AFF20CA
:1026C00039F110922F0710923007109231071092B3
:1026D00032070E94D20360933307709334078093CC
:1026E00035079093360762E975E08BE198E00E9428
:1026F000AF0A62E975E08FE098E00E94AF0A88E9CE
:1027000095E00E949D07B5CB80E0FF24F394D0CFE5
:1027100081EA95E07DCE6BEA75E0CE010A960E94D3
:10272000020BBE01665F7F4FCE014C960E94950959
:10273000FF24F394811112C065EB75E0C8010E947B
:10274000020BB801CE014C960E949509FF24F39428
:10275000811101C0F12CC8010E942D0ACE010A96F8
:102760000E942D0AFF2009F4DDC01B861A861D86F3
:102770001C861F861E86BE016E5D7F4FCE010A96A7
:102780000E94EB0AEA85FB85309749F08081882317
:1027900031F08A3311F48EE280833196F7CF50E026
:1027A00040E06EE2CE010A960E9479097C0197FD15
:1027B000B4C04C019FEF891A990AA4016EE2CE01C0
:1027C0000A960E9479095C01E114F10409F4A5C09C
:1027D000E816F9060CF0A1C0970150E040E0BE01F8
:1027E000665F7F4FC8010E94130BC8010E945F17EC
:1027F0006B01C8010E942D0A9501A401BE01665F0C
:102800007F4FC8010E94130BC8010E945F172B0164
:10281000C8010E942D0AA5014F5F5F4FBE01665F90
:102820007F4FC8010E945F0BC8010E945F174B01D8
:10283000C8010E942D0AE8E1CE16D1041CF037E150
:10284000C32ED12CD7FE02C0D12CC12CFCE34F16D5
:1028500051041CF02BE3422E512C57FE02C0512C88
:10286000412C2CE3821691041CF09BE3892E912CC1
:1028700097FE02C0912C812C20E13EE0D6010E94FF
:1028800098206AA77BA78CA79DA72CE330E0D201F4
:102890000E9498202AA53BA54CA55DA5620F731F39
:1028A000841F951F9401092C000C440B550B620FDB
:1028B000731F841F951F60932F07709330078093B9
:1028C0003107909332079F928F925F924F92DF92DF
:1028D000CF928FEB95E09F938F931F930F930E945E
:1028E0005223B801CE0140960E94020BBE01605FE8
:1028F0007F4F85E198E00E94E209CE0140960E9458
:102900002D0A0E9401098EEC95E00E949D070FB6EA
:10291000F894DEBF0FBECDBFB7CB8BED95E00E9424
:102920009D07B2CB69EE75E0CE010A960E94020BBC
:10293000BE01665F7F4FCE014C960E949509FF2431
:10294000F394811112C063EF75E0C8010E94020B7D
:10295000B801CE014C960E949509FF24F394811191
:1029600001C0F12CC8010E942D0ACE010A960E94D6
:102970002D0AFF2031F081E08093500783EF95E02E
:1029800047CD6DEF75E0CE010A960E94020BBE01A5
:10299000665F7F4FCE014C960E949509FF24F39409
:1029A000811112C066E076E0C8010E94020BB801F6
:1029B000CE014C960E949509FF24F394811101C029
:1029C000F12CC8010E942D0ACE010A960E942D0A00
:1029D000FF2029F01092500786E096E019CD6FE0B5
:1029E00076E0CE010A960E94020BBE01665F7F4F21
:1029F000CE014C960E949509FF24F394811112C0D8
:102A000069E176E0C8010E94020BB801CE014C9644
:102A10000E949509FF24F394811101C0F12CC80193
:102A20000E942D0ACE010A960E942D0AFF20A9F0CD
:102A30001092500710924B0710924C0710924D07BE
:102A400010924E0762E975E08BE198E00E94AF0AB0
:102A50000E94010989E196E0DBCC63E276E0C801DF
:102A60000E94020BB801CE014C960E949509E82EF7
:102A7000C8010E942D0AEE2051F16BE373E0CE01F4
:102A800082960E94CD0991E0811110C060EC76E041
:102A9000C8010E94020BB801CE0182960E949509DE
:102AA00091E0811101C090E0FF24F39490934307DB
:102AB000FF2019F0C8010E942D0A8DE296E00E94C5
:102AC000BE07809143077FCB80EC96E0A1CC68E302
:102AD00076E0C8010E94020BB801CE014C960E941C
:102AE0009509F82EC8010E942D0AFF2031F1CE0170
:102AF00082960E945F171616170618061906BCF470
:102B00006536710581059105ACF4709302026093FE
:102B100001028FE994E00E94BE078091010290912A
:102B200002020E946D070E9419070C94670D61E074
:102B300070E0EBCF64E670E0E8CF62E476E0C801D5
:102B40000E94020BB801CE014C960E949509F82E06
:102B5000C8010E942D0AFF2009F449C060E081E409
:102B60000E941D028BE490E00197F1F761E081E49F
:102B70000E941D028BE490E00197F1F70E94EE069F
:102B8000E82E0E94EE06F82E8BE496E00E94BE0727
:102B90006E2DC8010E946B0BC8010E941D04C80164
:102BA0000E942D0A8AE596E00E94BE076F2DC8019B
:102BB0000E946B0BC8010E941D04C8010E942D0ACF
:102BC00081E696E00E94BE076E2D6095C8010E94C6
:102BD0006B0BC8010E941D04C8010E942D0A88E6E3
:102BE00096E00E94BE076F2D60950C945E0D6FE617
:102BF00076E0C8010E94020BB801CE014C960E94FB
:102C00009509F82EC8010E942D0AFF2009F448C03A
:102C10008EA19FA1892BE1F0CE0182960E945F17C1
:102C2000D62EC72E62E08D2D0E944B028D2D0E9464
:102C3000F4017C0189E796E00E94BE078D2D9C2D52
:102C40000E946D0786E696E00E94BE07C70169CF25
:102C500084E896E00E94BE078FE7E82E82E0F82E17
:102C60008DE096E00E94BE07F701D0809181F2E0EE
:102C7000EF0EF11C8D2D0E946D0785E493E00E94FC
:102C8000BE078D2D0E94F4010E946D0786E393E03C
:102C90000E94BE072BEB32E02E153F0509F743CF0C
:102CA00063E976E0C8010E94020BB801CE014C96A0
:102CB0000E949509F82EC8010E942D0AFF2029F1D3
:102CC0008DE996E00E949D07F12CE12C4FEFB701B2
:102CD00090E080E00E94DD053FEFE31AF30A46E052
:102CE000E416F10499F7F12CE12C4FEFB70181E0E4
:102CF00090E00E94DD055FEFE51AF50A88E0E8162E
:102D0000F10499F783EC96E083CB69E273E0C801A4
:102D10000E94020BB801CE014C960E949509F82E34
:102D2000C8010E942D0AFF2011F40C94670D81E068
:102D300080931F070C94670DAD960FB6F894DEBF15
:102D40000FBECDBFDF91CF911F910F91FF90EF90FC
:102D5000DF90CF90BF90AF909F908F907F906F90BB
:102D60005F904F903F902F9008951F920F920FB653
:102D70000F9211242F933F938F939F93AF93BF9301
:102D80008091640790916507A0916607B0916707ED
:102D90003091630723E0230F2D3758F50196A11DCD
:102DA000B11D209363078093640790936507A093F8
:102DB0006607B09367078091680790916907A091B3
:102DC0006A07B0916B070196A11DB11D809368073A
:102DD00090936907A0936A07B0936B07BF91AF9177
:102DE0009F918F913F912F910F900FBE0F901F9049
:102DF000189526E8230F0296A11DB11DD2CF1F9270
:102E00000F920FB60F9211240BB60F922F933F9390
:102E10004F935F936F937F938F939F93AF93BF93E2
:102E2000EF93FF938CE697E00E946D04FF91EF9182
:102E3000BF91AF919F918F917F916F915F914F91D2
:102E40003F912F910F900BBE0F900FBE0F901F90D0
:102E500018951F920F920FB60F9211240BB60F9276
:102E60002F938F939F93EF93FF93E0917C07F091C3
:102E70007D078081E0918207F091830782FD1DC06C
:102E80009081809185078F5F8F73209186078217CD
:102E900041F0E0918507F0E0E459F84F958F809379
:102EA0008507FF91EF919F918F912F910F900BBE0E
:102EB0000F900FBE0F901F9018958081F2CFFC01EC
:102EC00080819181009711F00C94032060E070E004
:102ED000CB010895CF93DF93DC0114962D913C91A3
:102EE0001597232B79F0FB01CD91DC9160817181E5
:102EF000CE010E94FB22009729F08C1B9D0BDF91D5
:102F0000CF9108958FEF9FEFFACFCF92DF92EF929C
:102F1000FF920F931F93CF93DF938C017B016A0184
:102F20006FEC72E00E94020BD0E0C0E0F7018481F8
:102F30009581C817D90778F4BE01C7010E94DE0346
:102F40008E3249F0CC15DD0531F0682FC8010E94A2
:102F50005D0A2196EBCFC801DF91CF911F910F91B0
:102F6000FF90EF90DF90CF900895CF93DF93109272
:102F70006F0710926E0788EE93E0A0E0B0E08093B8
:102F8000700790937107A0937207B09373078FEB4C
:102F900092E090936D0780936C0785EC90E090939E
:102FA00079078093780784EC90E090937B07809377
:102FB0007A0780EC90E090937D0780937C0781EC0A
:102FC00090E090937F0780937E0782EC90E090934F
:102FD00081078093800786EC90E09093830780932D
:102FE0008207109285071092860710928707109229
:102FF0008807CEE3D0E0D0937208C09371088FE3C6
:1030000090E0909374088093730880E490E090932C
:1030100076088093750882E090E09093780880931A
:10302000770861E08EE30E944B0261E080917308B3
:103030000E944B0261E0809175080E944B0261E0A2
:10304000809175080E941D02D0937208C093710888
:10305000E1E3F8E0119288E0E137F807D9F7D0E032
:10306000C0E08091770890917808C817D90774F567
:1030700040E06FE0CE010E947A0580917708909140
:103080007808C817D9072CF447E06BE0CE010E94FE
:103090007A0540E069E0CE010E947A0580917708C8
:1030A00090917808C817D9071CF4CE010E94BD057D
:1030B0008091770890917808C817D9072CF440E0E0
:1030C0006CE0CE010E947A052196CBCF60E073E0E0
:1030D0008BE198E00E94020B65E073E085E198E0E7
:1030E0000E94020B6CE073E08FE098E00E94020BFC
:1030F0006FEC72E089E098E0DF91CF910C94020BC5
:10310000CF93DF93CDB7DEB7A2970FB6F894DEBFAB
:103110000FBECDBF789484B5826084BD84B58160D4
:1031200084BD85B5826085BD85B5816085BD809192
:103130006E00816080936E0010928100809181000A
:103140008260809381008091810081608093810002
:10315000809180008160809380008091B1008460C4
:103160008093B1008091B00081608093B000809125
:1031700091008260809391008091910081608093A2
:103180009100809190008160809390008091A100D7
:1031900082608093A1008091A10081608093A10052
:1031A0008091A00081608093A000809121018260C5
:1031B0008093210180912101816080932101809180
:1031C000200181608093200180917A008460809347
:1031D0007A0080917A00826080937A0080917A00F0
:1031E000816080937A0080917A00806880937A0071
:1031F0001092C1000FB6F894A89580916000886184
:1032000080936000109260000FBEE0917C07F09107
:103210007D0782E08083E0917807F0917907108242
:10322000E0917A07F0917B0780E180831092840718
:10323000E0918007F091810786E08083E0917E072E
:10324000F0917F07808180618083E0917E07F0911B
:103250007F07808188608083E0917E07F0917F07FF
:10326000808180688083E0917E07F0917F07808174
:103270008F7D80836AE070E080E090E00E94A00390
:1032800061E08EE30E944B0261E08FE30E944B02FB
:1032900061E080E40E944B0261E082E00E944B0208
:1032A00061E083E00E944B0261E084E00E944B02F7
:1032B00061E083E30E944B0261E084E30E944B02E1
:1032C00061E085E30E944B0203E612E0D8018C9195
:1032D0000E5F1F4F61E00E944B02B2E003371B07F5
:1032E000A9F703E512E0B3E6EB2EB2E0FB2EF801FE
:1032F00080810E5F1F4F61E00E944B02E016F106D5
:10330000B1F703E412E0A3E5EA2EA2E0FA2ED80119
:103310008C910E5F1F4F61E00E944B02E016F10698
:10332000B1F761E08BE00E944B0261E08AE00E940D
:103330004B0261E089E00E944B0260E083E40E945E
:103340004B0261E082E40E944B0261E081E40E9452
:103350004B02FBEBEF2EF2E0FF2E0FE712E0F8013D
:1033600080810E5F1F4F62E00E944B02E016F10663
:10337000B1F7EFE7EE2EE2E0FE2E03E712E0D80110
:103380008C910E5F1F4F60E00E944B02E016F10629
:10339000B1F767E3E62E67E0F62E73E7272E72E0BB
:1033A000372EF1018081F2E02F0E311C0E945E0366
:1033B000D7018D939D937D010215130591F780919F
:1033C0007708909178081816190634F441E06CE0FB
:1033D00090E080E00E947A056AE070E080E090E092
:1033E0000E94A0038091770890917808181619061A
:1033F00034F445E06BE090E080E00E947A050091B3
:10340000000210E0B80190E080E00E941706809171
:103410007708909178081816190624F490E080E057
:103420000E94BD05F12CE12C40E0B70190E080E066
:103430000E94DD05BFEFEB1AFB0AE6E0EE16F10491
:1034400099F78091770890917808029734F041E0DD
:103450006CE081E090E00E947A056AE070E080E034
:1034600090E00E94A00380917708909178080297DD
:1034700034F047E06BE081E090E00E947A05B8010B
:1034800081E090E00E94170680917708909178087B
:10349000029724F081E090E00E94BD0510E000E07A
:1034A00040E0B80181E090E00E94DD050F5F1F4F12
:1034B00008301105A9F710922A07109229071092D7
:1034C00025071092260710922707109228071092BE
:1034D000220710922107109220070E94260660E022
:1034E00073E08BE198E00E94AF0A65E073E085E14C
:1034F00098E00E94AF0A6CE073E08FE098E00E94D1
:10350000AF0A0E9401090E94C5078E01005F1F4F8C
:103510009E012F5F3F4F79015CE3452E512C612CBA
:10352000712C0E94D2034B015C01809162078823B9
:1035300009F41AC20E94D20380902B0790902C07A6
:10354000A0902D07B0902E07DC01CB0188199909B6
:10355000AA09BB09803D37E09307A105B105A8F48E
:1035600063E374E08BE198E00E94AF0A6EED76E0D1
:1035700085E198E00E94AF0A63E374E08FE098E091
:103580000E94AF0A0E94010999C080344FE194075C
:10359000A105B10508F095C0BC01CD01605D774083
:1035A000810991092CE231E040E050E00E946E2058
:1035B000CA01B9012AE030E040E050E00E946E20EC
:1035C0004B016FEC72E0C8010E94020BD12CC12CA0
:1035D0009A8E898EC601880D991D6AE070E00E945E
:1035E0005A2060E3680FC8010E945D0A5FEFC51AA8
:1035F000D50A86E0C816D10469F76FEC72E0CE01F7
:103600000A960E94020BD12CC12CA98CBA8C96E090
:10361000A90EB11C4AE0842E912CC5018C0D9D1D74
:10362000B4010E945A2060E3680FCE010A960E94FE
:103630005D0AAFEFCA1ADA0AB4E0CB16D10469F713
:103640006FEC72E0C7010E94020BD12CC12CA98C37
:10365000BA8CE2E0AE0EB11C3AE0832E912CC5018B
:103660008C0D9D1DB4010E945A2060E3680FC701B4
:103670000E945D0AFFEFCF1ADF0A24E0C216D104D0
:1036800071F7B80185E198E00E94EB0ABE01665F20
:103690007F4F8BE198E00E94EB0AB7018FE098E042
:1036A0000E94EB0A0E940109C7010E942D0ACE0167
:1036B0000A960E942D0AC8010E942D0A0E94FC044D
:1036C00030CF803137E29307A105B10520F481E0C6
:1036D0000E94F605F3CF803E4EE29407A105B105A6
:1036E00098F5BC01CD01605177428109910924E62A
:1036F00030E040E050E00E946E2027703327BB246A
:10370000B39401C0BB0C2A95EAF7D12CC12C4B2DE8
:10371000B60190E080E00E94DD055FEFC51AD50A92
:1037200086E0C816D10499F7D12CC12C4B2DB601D7
:1037300081E090E00E94DD059FEFC91AD90AA8E058
:10374000CA16D10499F7BACF883DE9E59E07A105CD
:10375000B10508F003C1BC01CD01605E7E42810964
:10376000910928E730E040E050E00E946E20CA0155
:10377000B90128E330E040E050E00E946E206B0188
:1037800010922A07109229071092250710922607F7
:1037900010922707109228071092240710922307EF
:1037A000683071050CF06EC027E030E0261B370B47
:1037B00081E001C0880F2A95EAF7809324070E94D0
:1037C000260648E0C416D1040CF098C0D090240717
:1037D00081E01F928F9385EE96E09F938F931F92C7
:1037E00085E08F931F930F930E9415231F92DF9202
:1037F0008BEE96E09F938F931F9283E08F936E01E1
:1038000096E1C90ED11CDF92CF920E941523DF9260
:10381000CF9280EF96E09F938F931F9287E08F93D4
:10382000FF92EF920E941523B801CE010A960E94E2
:10383000020BBE01665F7F4F8BE198E00E94E209B8
:10384000CE010A960E942D0AB701CE010A960E9467
:10385000020BBE01665F7F4F85E198E00E94E2099E
:10386000CE010A960E942D0A67EF76E08FE098E07D
:103870000E94AF0A0E9401090FB6F894DEBF0FBE86
:10388000CDBF1CCF6031710564F42FE030E0261B02
:10389000370B81E001C0880F2A95EAF78093230750
:1038A0008ECF6032710584F42FE130E0261B370B98
:1038B00081E090E002C0880F991F2A95E2F790936B
:1038C0002A07809329077BCF6052710927E130E0F6
:1038D000261B370B81E090E0A0E0B0E004C0880F29
:1038E000991FAA1FBB1F2A95D2F780932507909393
:1038F0002607A0932707B093280761CF50E1C5168C
:10390000D10424F4D090230782E063CF80E2C8166C
:10391000D1044CF480912907D0902A07D1101AC005
:10392000D82E84E056CF8091250790912607A0914C
:103930002707B0912807DA2E492F5A2F6B2F7727A8
:10394000A1110AC0D82E87E0442309F442CFD42E17
:1039500086E03FCF83E03DCF85E03BCF80E00E9413
:10396000F6050E94B90AAACE8CE697E00E94570499
:10397000892B09F4C0C08CE697E00E9435048D3095
:1039800011F08A3009F48BE3682F89E098E00E94F7
:103990005D0A50E040E06BE389E098E00E9479091D
:1039A0006C0197FDE1CF9C0150E040E069E078E0D8
:1039B000C8010E94130BC8010E94E107A6014F5FD6
:1039C0005F4F69E078E0C7010E945F0BB70189E0B3
:1039D00098E00E94E209C7010E942D0A8C899D8906
:1039E000892B29F11B861A861D861C861F861E863A
:1039F000B801CE010A960E94EB0ACE010A960E94F7
:103A00003E086DE173E0CE010A960E94CD09811156
:103A100008C061E273E0CE010A960E94CD098823B6
:103A200051F00E94C507CE010A960E942D0AC801D6
:103A30000E942D0AAECF69E273E0CE010A960E9481
:103A4000CD09882319F00E94910BEDCF6DE176E04E
:103A5000CE010A960E94CD098823C9F08DE293E039
:103A60000E949D078CE697E00E94DC0462E370E010
:103A700080E090E00E94A00388E198E00FB6F894FF
:103A8000A895809360000FBE90936000FFCF50E038
:103A900040E06AE3C8010E94790997FDC4CF1A8209
:103AA00019821C821B821E821D82B801C7010E94DE
:103AB000EB0ACD80DE80BFEFCB1ADB0AB601C7016F
:103AC0000E94350A882399F029813A818D819E814F
:103AD00066E373E0820F931F0E94E622DE82CD82AE
:103AE000C7010E945B0CC7010E942D0A9CCFC70131
:103AF0000E941B0AF5CF809161078823B1F00E94D4
:103B0000D20320915D0730915E0740915F0750918D
:103B10006007621B730B840B950B683C7105810574
:103B2000910508F4CBCD10926107809159079091CF
:103B30005A07A0915B07B0915C07A5019401281B6F
:103B4000390B4A0B5B0BDA01C9010A97A105B105D4
:103B500008F4B4CD8092590790925A07A0925B075F
:103B6000B0925C0760E081E40E941D02EBE4CE2E7F
:103B7000D12CC6010197F1F761E081E40E941D029A
:103B8000C6010197F1F70E94EE06B82E0E94EE06DC
:103B9000B094B092580780958093570760E081E415
:103BA0000E941D02C6010197F1F761E081E40E94C5
:103BB0001D02C6010197F1F7F0E1CF2ED12CAFE045
:103BC000AA2EB12C60E082E40E941D02C50101977B
:103BD000F1F761E082E40E941D02C5010197F1F74F
:103BE00031E0C31AD10871F743E557E05E8F4D8F7E
:103BF0006FE7862E62E0962E5AA349A37EE1C72E78
:103C0000D12CD8A2CF8E99E0C916D10424F0A8E017
:103C1000B0E0B8A3AF8F9C8E8B8EB12CA12C198EE7
:103C2000EB8DFC8D80813296FC8FEB8F0E94F4012E
:103C3000892B51F481E090E00A2C01C0880F0A948E
:103C4000EAF7F98DF82BF98F2FEFA21AB20A4F8DF0
:103C500058A1A416B50624F3A9A1BAA1E98DED9344
:103C6000BAA3A9A3F8E0CF1AD10820E1820E911CD3
:103C70003EEFC3163FEFD30621F680915807CC24C0
:103C8000C394982F987083FFC12CDD24D394482FC0
:103C90004071B42E84FFD12C809152078823A1F16A
:103CA0009923B1F080915107811112C08091500782
:103CB00091E08927809350078CEF93E00E94BE0724
:103CC00080915007811189C18AE096E00E949D078A
:103CD000BB20D1F080914F07811116C01092500780
:103CE00010924B0710924C0710924D0710924E07FE
:103CF00062E975E08BE198E00E94AF0A0E94010939
:103D000089E196E00E949D07C0925107D0924F072B
:103D1000809158078871883109F062C180915607F7
:103D200084FF5EC180914A07811105C00E94AD07E2
:103D300081E080934A079091580780914907BB24FE
:103D4000B394981307C09091570780914807981330
:103D500001C0B12CE4E4F7E087E597E0B11010C0B2
:103D6000AD8DBE8D3D91BE8FAD8F2191BB24B3949F
:103D7000321301C0B12C2D8D3E8D8217930771F740
:103D800080914307882321F127E3822E27E0922E9A
:103D900033E7C32E32E0D32ED6018C91B2E0CB0EA6
:103DA000D11C0E945E03F401219131914F01821BCD
:103DB000930B97FF03C09195819591092091010282
:103DC00030910202821793072CF42C143D0421F742
:103DD000BB2081F180915807809349078091570754
:103DE000809348078091530780934407809154073C
:103DF0008093450780915507809346078091560729
:103E00008093470787E3A82E87E0B82E93E7C92E53
:103E100092E0D92ED6018C91B2E0CB0ED11C0E943B
:103E20005E03F501819391935F012C143D0491F79A
:103E30000E94910B80915207882309F43FCC0E9485
:103E4000D2038090330790903407A0903507B0904C
:103E500036079B01AC01281939094A095B09490158
:103E60005A0138EE831633E09306A104B10408F436
:103E700025CC609333077093340780933507909374
:103E8000360780902F0790903007A0903107B090B0
:103E900032074FEF841A940AA40AB40A80922F07BB
:103EA00090923007A0923107B0923207C501B40159
:103EB000A30192010E946E209F938F937F936F9333
:103EC000CA01B901A30192010E946E209F938F93B2
:103ED0007F936F93C501B40120E13EE040E050E0E4
:103EE0000E946E20CA01B90128E130E040E050E0B4
:103EF0000E946E209F938F937F936F938CEF96E039
:103F00009F938F93FF92EF920E945223B701CE01AD
:103F10000A960E94020BBE01665F7F4F85E198E022
:103F20000E94E209CE010A960E942D0A0FB6F8946B
:103F3000DEBF0FBECDBF80915007882309F422CB8E
:103F400060914B0770914C0780914D0790914E07FF
:103F5000A30192010E946E209F938F937F936F9392
:103F6000CA01B90124E630E040E050E00E946E2032
:103F70009F938F937F936F9382E097E09F938F93AC
:103F80001F930F930E945223B801CE010A960E94FC
:103F9000020BBE01665F7F4F8BE198E00E94E20951
:103FA000CE010A960E942D0A80914B0790914C07F2
:103FB000A0914D07B0914E070196A11DB11D8093B0
:103FC0004B0790934C07A0934D07B0934E070FB645
:103FD000F894DEBF0FBECDBFD5CA85ED92E076CE98
:103FE00010924A07A8CE89E098E00E942D0A8FE03F
:103FF00098E00E942D0A85E198E00E942D0A8BE14D
:1040000098E00C942D0A1F93FC0199278827BC0186
:10401000E89411911032E9F3193010F01E30C8F312
:104020001B3251F01D3249F4689406C00E942A20C8
:10403000610F711D811D911D119110531A30B0F344
:104040003EF490958095709561957F4F8F4F9F4F6F
:104050001F910895592F482F372F262F660F771F4E
:10406000881F991F660F771F881F991F620F731F84
:10407000841F951F660F771F881F991F0895911140
:104080000C944820803219F089508550C8F7089563
:10409000992788270895A29FB001B39FC001A39FCD
:1040A000700D811D1124911DB29F700D811D112471
:1040B000911D089597FB072E16F4009407D077FD05
:1040C00009D00E949F2007FC05D03EF49095819571
:1040D0009F4F0895709561957F4F0895A1E21A2E24
:1040E000AA1BBB1BFD010DC0AA1FBB1FEE1FFF1F9C
:1040F000A217B307E407F50720F0A21BB30BE40BEC
:10410000F50B661F771F881F991F1A9469F7609532
:104110007095809590959B01AC01BD01CF010895EC
:10412000EE0FFF1F881F8BBF0790F691E02D1994AB
:104130000E944B20B7FF0895821B930B0895AA1B82
:10414000BB1B51E107C0AA1FBB1FA617B70710F082
:10415000A61BB70B881F991F5A95A9F780959095B4
:10416000BC01CD0108950F931F93CF93DF9382304D
:10417000910510F482E090E0E0917B08F0917C08DA
:1041800030E020E0B0E0A0E0309799F4211531054F
:1041900009F44AC0281B390B24303105D8F58A812F
:1041A0009B816115710589F1FB0193838283FE0177
:1041B00011C0408151810281138148175907E0F0F5
:1041C0004817590799F4109761F012960C931297BB
:1041D00013961C933296CF01DF91CF911F910F91CF
:1041E000089500937B0810937C08F4CF21153105C6
:1041F00051F04217530738F0A901DB019A01BD01C4
:10420000DF01F801C1CFEF01F9CF90937C088093D3
:104210007B08CDCFFE01E20FF31F819391932250D3
:10422000310939832883D7CF2091790830917A08D2
:10423000232B41F4209105023091060230937A0835
:104240002093790820910302309104022115310551
:1042500041F42DB73EB74091070250910802241B4C
:10426000350BE0917908F0917A08E217F307A0F492
:104270002E1B3F0B2817390778F0AC014E5F5F4FBC
:104280002417350748F04E0F5F1F50937A0840936C
:104290007908819391939FCFF0E0E0E09CCFCF939A
:1042A000DF930097E9F0FC01329713821282A0910C
:1042B0007B08B0917C08ED0130E020E01097A1F47C
:1042C00020813181820F931F2091790830917A08E3
:1042D0002817390709F061C0F0937A08E09379084C
:1042E000DF91CF910895EA01CE17DF07E8F54A8103
:1042F0005B819E0141155105B1F7E901FB83EA831A
:1043000049915991C40FD51FEC17FD0761F48081C5
:1043100091810296840F951FE90199838883828198
:1043200093819B838A83F0E0E0E012968D919C91CB
:1043300013970097B9F52D913C911197CD010296F5
:10434000820F931F2091790830917A082817390736
:1043500039F6309751F510927C0810927B08B09393
:104360007A08A0937908BCCFD383C283408151815E
:10437000840F951FC817D90761F44E5F5F4F88817E
:104380009981480F591F518340838A819B81938370
:1043900082832115310509F0B0CFF0937C08E093BA
:1043A0007B089ECFFD01DC01C0CF13821282D7CFE4
:1043B0004F925F926F927F928F929F92AF92BF9235
:1043C000CF92DF92EF92FF920F931F93CF93DF93E1
:1043D0008C01009799F4CB01DF91CF911F910F9140
:1043E000FF90EF90DF90CF90BF90AF909F908F9015
:1043F0007F906F905F904F900C94B320FC01E60F7C
:10440000F71F9C0122503109E217F30708F4AEC0F0
:10441000D901CD91DC911197C617D70720F1C5308E
:10442000D10578F0CE0104978617970750F0C61B88
:10443000D70B2297C193D1936D937C93CF010E94A8
:104440004F21C801DF91CF911F910F91FF90EF9005
:10445000DF90CF90BF90AF909F908F907F906F90A4
:104460005F904F9008955B01AC1ABD0A4C018C0E11
:104470009D1EA0917B08B0917C08512C412CF12C01
:10448000E12C109731F58091790890917A08881580
:10449000990509F05CC04616570608F058C080918F
:1044A000030290910402009741F48DB79EB74091AA
:1044B000070250910802841B950BE817F90708F0D2
:1044C00055C0F0937A08E0937908F901718360830D
:1044D000B8CF8D919C91119712966C90129713966C
:1044E0007C901397A815B90559F56C0142E0C40EEC
:1044F000D11CCA14DB0420F1AC014A195B09DA01B2
:104500001296159780F06282738251834083D9019D
:104510006D937C93E114F10471F0D7011396FC9331
:10452000EE9312978ECF22968C0F9D1FF9019183E7
:104530008083F301EFCFF0937C08E0937B0881CF79
:104540004816590608F42C017D01D3019ACFCB01FE
:104550000E94B3207C01009749F0AE01B8010E948F
:10456000C922C8010E944F2187016BCF10E000E0F3
:1045700068CF9111089581548A5108F4805E855A5C
:1045800008959111089581568A5108F480528558F2
:104590000895FB01DC0102C001900D924150504092
:1045A000D8F70895FC018191861721F08823D9F767
:1045B000992708953197CF010895FB01DC018D9172
:1045C000019080190110D9F3990B0895FB01DC01CA
:1045D00001900D920020E1F70895FB01DC014150AC
:1045E000504030F08D910190801919F40020B9F7F6
:1045F000881B990B0895FB0151915523A9F0BF0128
:10460000DC014D9145174111E1F759F4CD010190BD
:10461000002049F04D9140154111C9F3FB014111B2
:10462000EFCF81E090E0019708950F931F93CF9310
:10463000DF93CDB7DEB72E970FB6F894DEBF0FBE6F
:10464000CDBF0E891F89888D998D26E02C831A8312
:10465000098397FF02C080E090E801979E838D83D5
:10466000AE01445E5F4F6A8D7B8DCE0101960E9444
:1046700082234D815E8157FD0AC02F813885421704
:1046800053070CF49A01020F131FF80110822E96A3
:104690000FB6F894DEBF0FBECDBFDF91CF911F9153
:1046A0000F9108950F931F93CF93DF93CDB7DEB78C
:1046B0002E970FB6F894DEBF0FBECDBF0E891F89AF
:1046C00086E08C831A8309838FEF9FE79E838D8317
:1046D000AE01465E5F4F688D798DCE0101960E94D6
:1046E00082232F813885020F131FF80110822E9626
:1046F0000FB6F894DEBF0FBECDBFDF91CF911F91F3
:104700000F9108952F923F924F925F926F927F92F6
:104710008F929F92AF92BF92CF92DF92EF92FF92D1
:104720000F931F93CF93DF9300D000D000D01F9240
:104730001F92CDB7DEB77C013B018A01FC011782D5
:104740001682838181FFDDC1CE0101965C01F701F4
:104750009381F30193FD859193FF81913F0188231C
:1047600009F453C1853239F493FD859193FF81910A
:104770003F01853229F4B70190E00E949A25E7CFE6
:10478000912C212C312CFFE1F31538F08B3211F1F3
:1047900090F4803209F1833229F137FC3CC020EDDE
:1047A000280F2A3050F536FE20C08AE0989E200D52
:1047B0001124922E06C08D3291F0803371F76894E7
:1047C00030F8F30193FD859193FF81913F018111B1
:1047D000DACF21C0689431F8689432F8F2CF689447
:1047E00033F8EFCF689434F8ECCFEAE02E9E200D3A
:1047F0001124222E689435F8E4CF8E3229F436FC49
:1048000004C1689436F8DDCF8C3619F4689437F813
:10481000D8CF8836B1F2982F9F7D95549330E0F031
:104820008336A1F18337C1F1833509F063C02801D4
:10483000F2E04F0E511CF801C080D180692D70E06C
:1048400036FC02C06FEF7FEFC6010E9484254C0149
:10485000689437F882010AC00C5F1F4FFFE3F983A9
:1048600088248394912C6501E89437F833FE2DC099
:10487000522C8114910471F5552009F468CFB701C9
:1048800080E290E00E949A255A94F6CFF801808148
:1048900089830E5F1F4FE4CF2801F2E04F0E511CB9
:1048A000F801C080D180692D70E036FC02C06FEF46
:1048B0007FEFC6010E948F254C018201D5CFB70141
:1048C00080E290E00E949A252A942814190409F0A5
:1048D000B0F7CECFF60137FC859137FE81916F019D
:1048E000B70190E00E949A2551105A94F1E08F1A76
:1048F0009108BFCF843619F0893609F077C0F801E6
:1049000037FE6BC060817181828193810C5F1F4F84
:10491000F32DFF763F2E97FF09C0909580957095F7
:1049200061957F4F8F4F9F4F689437F82AE030E0B2
:10493000A5010E94CA25C82ECA188C2C432C36FE0D
:104940000CC0E89440F8C91440F434FE05C032FCB1
:1049500003C0F32DFE7E4F2E892C44FEAAC0FE011B
:10496000EC0DF11D8081803309F09CC0242D297E3F
:10497000422E842D8870582E43FCAAC040FEA4C04D
:104980009C2C821418F42C0C922C981844FEA6C06F
:10499000B70180E390E00E949A2542FE09C088E7B3
:1049A00090E041FE02C088E590E0B7010E949A25A0
:1049B000C91408F49FC0CA94D12C9FEFC91AD90A10
:1049C000CA0CDB1CF60182916F01B70190E00E94D6
:1049D0009A25AC14BD04B1F74FCF60817181072EC9
:1049E000000C880B990B0E5F1F4F92CFD32CE894CD
:1049F000D4F82AE030E08537E1F1232D297FD22E4B
:104A00008F36A9F1F0F4883551F1F701868197814D
:104A10002B960FB6F894DEBF0FBECDBFDF91CF91BE
:104A20001F910F91FF90EF90DF90CF90BF90AF90CC
:104A30009F908F907F906F905F904F903F902F90BE
:104A40000895803749F0883701F7D4FE02C0689492
:104A5000D2F820E130E00DC06894D4F8F6CF34FEEF
:104A600003C0822F8660D82E20E132E002C028E009
:104A700030E0F801D7FE0FC060817181828193819F
:104A80000C5F1F4FA5010E94CA25C82ECA183D2CD5
:104A9000E89437F852CF6081718190E080E00E5F3A
:104AA0001F4FF0CF42FC02C0839463CF8394839462
:104AB00060CF842D867809F45CCFF6CFB70180E211
:104AC00090E00E949A2583948214C0F3512C5ECF0B
:104AD000522C5818821408F459CFF8CF842D8678B8
:104AE00009F466CF8BE241FE80E247FC8DE2B7011C
:104AF00090E05CCFB70180E390E00E949A259A9401
:104B000057CF8FEF9FEF84CFFC010590615070402D
:104B10000110D8F7809590958E0F9F1F0895FC0186
:104B20006150704001900110D8F7809590958E0FDC
:104B30009F1F08950F931F93CF93DF93182F092F73
:104B4000EB018B8181FD09C01FEF0FEF812F902FAB
:104B5000DF91CF911F910F91089582FF14C02E8194
:104B60003F818C819D81281739073CF4E881F981C8
:104B7000CF0101969983888310838E819F8101964E
:104B80009F838E83E3CFE885F985812F1995892B43
:104B9000A1F3DACFFA01AA27283051F1203181F1AF
:104BA000E8946F936E7F6E5F7F4F8F4F9F4FAF4F35
:104BB000B1E03ED0B4E03CD0670F781F891F9A1F48
:104BC000A11D680F791F8A1F911DA11D6A0F711DFC
:104BD000811D911DA11D20D009F468943F912AE008
:104BE000269F11243019305D3193DEF6CF010895F0
:104BF000462F4770405D4193B3E00FD0C9F7F6CF21
:104C0000462F4F70405D4A3318F0495D31FD4052E8
:104C1000419302D0A9F7EACFB4E0A695979587957E
:104C200077956795BA95C9F700976105710508955D
:104C30009B01AC010A2E0694579547953795279509
:104C4000BA95C9F7620F731F841F951FA01D0895A1
:104C500011E0C9E5D1E000E006C0802FFE010E940E
:104C600090202196011DCA35D10780E00807A9F7D9
:104C7000F894FFCF0F080000007D088000000000BE
:104C8000000400000000000000000100007E306D04
:104C900079335B5F707F7B00000000000000771FAE
:104CA0004E3D4F475E373038000E37157E670005A2
:104CB0005B0F3E0000003B3D00FFFFFFFFFFFFFFDB
:104CC000FFFFFFFFFFFFFF19001A001B001E00205F
:104CD000002C002E003C00050007000C0010001105
:104CE0000014001500180036003700380039003A6B
:104CF000003B00060008000D000E000F001200131C
:104D000000160017001C001D001F002100220023B8
:104D1000002400250026002700280029002A002B57
:104D2000002D002F0030003100320044004500000B
:104D30000000008F04F0032604DC04570435044906
:104D4000040D0A00444941473A5354415254004922
:104D500044454E543A004D49502C2076312E312096
:104D60004D4151003B53544154453A52554E4E49E2
:104D70004E473B004348522000555443202020001A
:104D80004554202000444941473A444F4E45004194
:104D9000005645520056455253494F4E0052455118
:104DA0000052455345543A4F4B203B004C4544314B
:104DB0000041434B3A4C4544313A004C45443200A3
:104DC00041434B3A4C4544323A004C45443800414B
:104DD000434B3A4C4544383A004C45443300414338
:104DE0004B3A4C4544333A004C4544340041434B24
:104DF0003A4C4544343A004C4544350041434B3A23
:104E00004C4544353A004C4544360041434B3A4CFE
:104E10004544363A004C4544370041434B3A4C45F3
:104E200044373A00414E00444953505F424C0043DE
:104E300048520055544300445350310041434B3ACB
:104E4000445350313A00445350320041434B3A44AA
:104E50005350323A00445350330041434B3A445389
:104E600050333A004453500041434B3A4453503A74
:104E70004348523A0041434B3A4453503A55544305
:104E80003A0041434B3A4453503A45543A00444562
:104E90004255475F41434B0041434B3A44454255DD
:104EA000475F41434B3A00444941470052554E0049
:104EB000444941473A53544154453B494E313A00E5
:104EC0003B494E323A003B494E003B4C45445F4221
:104ED000524B3A003B4C45445F424C3A003B4C45F8
:104EE000445F4750494F313A003B4C45445F47507F
:104EF000494F323A003B4252545F414E3A003B42E6
:104F000052545F424C3A003B4252545F4449535022
:104F10003A003B414E414C4F475F44423A003B49C7
:104F20004E54454E534954593A003B434C4F434B22
:104F30003A003B434C4B5F5345433A003B43485296
:104F40003A003B5554433A003B45543A00534554CC
:104F500055500053455455503A4D454E553B4954D4
:104F6000454D533A4252494748542C414E414C4FCB
:104F7000475F454E2C414E414C4F475F44422C43C6
:104F80004C4F434B3B434D44533A53455455503A91
:104F90004252494748543A414E3D302D3235352C26
:104FA000424C3D302D3235352C444953503D302D47
:104FB00031357C414E414C4F475F454E3A302F31A1
:104FC0007C414E414C4F475F44423A312D313030A5
:104FD0007C434C4F434B3A302F313B0042524947C0
:104FE00048540053455455503A4252494748543A60
:104FF000414E3D003B424C3D003B444953503D0037
:10500000434C4F434B0030302E303000434C4F4325
:105010004B3A4F4E00434C4F434B3A4F46460043AA
:105020004C4F434B5F53455400434C4F434B3A5313
:10503000455400253032642E253032642E2530321E
:105040006400434C4F434B3A5345543A4F4B004353
:105050004C4F434B3A5345543A4552520043485201
:105060005F5354415254004348523A5354415254AE
:10507000004348525F53544F50004348523A5354F0
:105080004F50004348525F524553455400434852E5
:105090003A524553455400414E414C4F475F454EAF
:1050A00000414E414C4F475F454E3A00414E414C06
:1050B0004F475F44420044454255475F53520044C6
:1050C000454255475F53523A524157313D003B529A
:1050D0004157323D003B494E56313D003B494E560B
:1050E000323D0044454255475F50494E00444542D9
:1050F00055475F50494E3A0044454255475F504935
:105100004E3A414C4C3D0044454255475F4D415855
:105110000044454255475F4D41583A2053657474E9
:10512000696E6720616C6C207365676D656E747362
:1051300020746F204F4E0044454255475F4D415803
:105140003A20416C6C207365676D656E7473204FF7
:105150004E00535441525420004C454425640025D0
:10516000303258002020257320200074453574000B
:105170002530326C752E2530326C752E2530326C10
:025180007500B8
:020000040003F7
:10E000000D9489F10D94B2F10D94B2F10D94B2F129
:10E010000D94B2F10D94B2F10D94B2F10D94B2F1F0
:10E020000D94B2F10D94B2F10D94B2F10D94B2F1E0
:10E030000D94B2F10D94B2F10D94B2F10D94B2F1D0
:10E040000D94B2F10D94B2F10D94B2F10D94B2F1C0
:10E050000D94B2F10D94B2F10D94B2F10D94B2F1B0
:10E060000D94B2F10D94B2F10D94B2F10D94B2F1A0
:10E070000D94B2F10D94B2F10D94B2F10D94B2F190
:10E080000D94B2F10D94B2F10D94B2F10D94B2F180
:10E090000D94B2F10D94B2F10D94B2F10D94B2F170
:10E0A0000D94B2F10D94B2F10D94B2F10D94B2F160
:10E0B0000D94B2F10D94B2F10D94B2F10D94B2F150
:10E0C0000D94B2F10D94B2F10D94B2F10D94B2F140
:10E0D0000D94B2F10D94B2F10D94B2F10D94B2F130
:10E0E0000D94B2F141546D656761323536300041AF
:10E0F000726475696E6F206578706C6F72657220DE
:10E1000073746B3530305632206279204D4C530099
:10E11000426F6F746C6F616465723E004875683F52
:10E1200000436F6D70696C6564206F6E203D200048
:10E130004350552054797065202020203D20005FF9
:10E140005F4156525F415243485F5F3D2000415658
:10E1500052204C696243205665723D20004743437C
:10E160002056657273696F6E203D20004350552024
:10E1700049442020202020203D20004C6F7720663D
:10E18000757365202020203D20004869676820665F
:10E190007573652020203D200045787420667573D6
:10E1A00065202020203D20004C6F636B2066757336
:10E1B000652020203D20004D617220203720323024
:10E1C000313300312E362E3800342E332E350056A2
:10E1D00023202020414444522020206F7020636F70
:10E1E00064652020202020696E73747275637469E1
:10E1F0006F6E2061646472202020496E74657272B3
:10E20000757074006E6F20766563746F7200726A49
:10E210006D702020006A6D70200057686174207056
:10E220006F72743A00506F7274206E6F7420737541
:10E2300070706F72746564004D7573742062652030
:10E2400061206C6574746572002000577269747483
:10E25000696E672045450052656164696E672045B7
:10E26000450045452065727220636E743D00504F35
:10E27000525400303D5A65726F2061646472003FF1
:10E280003D43505520737461747300403D454550C3
:10E29000524F4D207465737400423D426C696E6B41
:10E2A000204C454400453D44756D70204545505215
:10E2B0004F4D00463D44756D7020464C415348001B
:10E2C000483D48656C70004C3D4C69737420492F83
:10E2D0004F20506F72747300513D51756974005234
:10E2E0003D44756D702052414D00563D73686F7707
:10E2F00020696E7465727275707420566563746FF0
:10E30000727300593D506F727420626C696E6B00BD
:10E310002A0011241FBECFEFD1E2DEBFCDBF01E046
:10E320000CBF12E0A0E0B2E0EEE1FDEF03E00BBFB6
:10E3300002C007900D92A030B107D9F712E0A0E01B
:10E34000B2E001C01D92AE30B107E1F70F9460F367
:10E350000D948DFE01E20EBF0FEF0DBF11241FBE05
:10E360000D9460F30D9400F020E030E040ED57E0B4
:10E3700005C0FA013197F1F72F5F3F4F2817390792
:10E38000C0F308959C01260F311DC901A0E0B0E043
:10E390002F5F3F4FABBFFC018791882361F08093D3
:10E3A000C6008091C00086FFFCCF8091C0008064D1
:10E3B0008093C000EACF08958DE08093C6008091DD
:10E3C000C00086FFFCCF8091C00080648093C000B5
:10E3D0008AE08093C6008091C00086FFFCCF8091C8
:10E3E000C00080648093C00008950F94C2F10F9420
:10E3F000DCF10895FC019081992359F09093C600B7
:10E400008091C00086FFFCCF8091C0008064809323
:10E41000C0003196992379F70895282F982F929567
:10E420009F70892F805D8A3308F0895F8093C600D2
:10E430008091C00086FFFCCF8091C00080648093F3
:10E44000C000822F8F70982F905D9A3308F0995FEB
:10E450009093C6008091C00086FFFCCF8091C000E1
:10E4600080648093C00008959C01FB01853691056E
:10E470001CF46330710594F0C90164E670E00F94F8
:10E480002EFE605D7F4F6093C6008091C00086FFC6
:10E49000FCCF8091C00080648093C0002B30310598
:10E4A00014F43297B4F0C90164E670E00F942EFEC4
:10E4B0006AE070E00F942EFE605D7F4F6093C600AF
:10E4C0008091C00086FFFCCF8091C0008064809363
:10E4D000C000C9016AE070E00F942EFEC0968093E0
:10E4E000C6008091C00086FFFCCF8091C000806490
:10E4F0008093C00008951F93182F8EE692EE60E07F
:10E500000F94C2F11093C6008091C00086FFFCCF2B
:10E510008091C00080648093C0000F94DCF11F9153
:10E5200008952F923F924F925F926F927F928F92B7
:10E530009F92AF92BF92CF92DF92EF92FF920F9392
:10E540001F93DF93CF93CDB7DEB762970FB6F894E2
:10E55000DEBF0FBECDBF382E622ECA01DB015C01CB
:10E560006D01772420E2222E2E010894411C511CBB
:10E570008BC081E0A81680E0B80681E0C80680E084
:10E58000D80628F0C601AA27BB270F940DF2BB2797
:10E59000AD2D9C2D8B2D0F940DF28A2D0F940DF225
:10E5A0002092C6008091C00086FFFCCF8091C00001
:10E5B00080648093C0009DE29093C6008091C0006B
:10E5C00086FFFCCF8091C00080648093C0002092C1
:10E5D000C6008091C00086FFFCCF8091C00080649F
:10E5E0008093C00019828601750188249924A1E0D6
:10E5F0003A1651F03A1620F0B2E03B1661F409C029
:10E600000BBFF701779007C0C7010F9477FE782EF4
:10E6100002C0F7017080872D0F940DF22092C60082
:10E620008091C00086FFFCCF8091C0008064809301
:10E63000C000872D8052F401EF70F0708F3520F408
:10E64000E40DF51D708204C0E40DF51D8EE280839B
:10E650000894E11CF11C011D111D0894811C911CE2
:10E6600090E18916910409F0C2CF80E190E0A0E02A
:10E67000B0E0A80EB91ECA1EDB1E198AC2010F9493
:10E68000FAF10F94DCF16A94662009F072CF629679
:10E690000FB6F894DEBF0FBECDBFCF91DF911F91B3
:10E6A0000F91FF90EF90DF90CF90BF90AF909F9031
:10E6B0008F907F906F905F904F903F902F90089534
:10E6C0002F923F924F925F926F927F928F929F9282
:10E6D000AF92BF92CF92DF92EF92FF920F931F9370
:10E6E000DF93CF93CDB7DEB7CD53D1400FB6F894BB
:10E6F000DEBF0FBECDBF01E20EBF0FEF0DBF94B75F
:10E70000F894A89514BE80916000886180936000A1
:10E7100010926000789493FF05C0E0910002F091A0
:10E7200001021995279A2F9A8091C00082608093E8
:10E73000C00080E18093C40088E18093C1000000A4
:10E74000EE24FF24870144E0A42EB12CCC24DD2448
:10E7500024C0C5010197F1F70894E11CF11C011DCB
:10E76000111D21E2E2162EE4F20620E0020720E06D
:10E77000120718F031E0C32ED12CC801B70127ECE5
:10E780003BE140E050E00F9441FE611571058105C9
:10E79000910519F485B1805885B98091C00087FD35
:10E7A00003C0C114D104A9F2A6014F5F5F4FC25E3E
:10E7B000DE4F59834883CE51D140C25EDE4F8881FF
:10E7C0009981CE51D140019711F00D9410FEC05D9A
:10E7D000DE4F19821882C053D14060E0C15DDE4F28
:10E7E0001882CF52D14088249924C35DDE4F19820C
:10E7F0001882CD52D140C05EDE4F188219821A8233
:10E800001B82C052D140CE5CDE4F188219821A8220
:10E810001B82C253D140EE24FF2487010BBFF701B6
:10E8200007911691C45CDE4F19830883CC53D14005
:10E830000D940BFEC25EDE4F28813981CE51D1404E
:10E840002130310509F52091C600C25EDE4F1982E4
:10E850001882CE51D14022C02F5F3F4F4F4F5F4FA4
:10E86000213082E138078AE7480780E0580780F0C6
:10E87000C45CDE4FE881F981CC53D140EF5FFF4F9C
:10E8800019F0EE27FF27099420E030E040E050E047
:10E890008091C00087FFE0CF2091C600C35DDE4FAE
:10E8A00048815981CD52D1404F5F5F4FC35DDE4FEC
:10E8B00059834883CD52D140213209F063C64A3092
:10E8C000510508F05FC60894811C911C53E0851621
:10E8D000910409F059C600E010E018C081E280936D
:10E8E000C6008091C00086FFFCCF8091C00080648C
:10E8F0008093C0002F5F3F4F2931310579F70F9486
:10E90000DCF10F5F1F4F0530110519F020E030E0FA
:10E91000E5CF10920A0210920B0210920C02109294
:10E920000D02109206021092070210920802109235
:10E930000902109202021092030210920402109235
:10E9400005028FEE90EE60E00F94F5F180E191EE1C
