:100000000C9438010C9460010C9460010C94600114
:100010000C9460010C9460010C9460010C946001DC
:100020000C9460010C9460010C941E0D0C949B0DBB
:100030000C9460010C9460010C9460010C946001BC
:100040000C9460010C9460010C9460010C946001AC
:100050000C9460010C9460010C9460010C94D40C1D
:100060000C9460010C9460010C9460010C9460018C
:100070000C9460010C9460010C9460010C9460017C
:100080000C9460010C9460010C9460010C9460016C
:100090000C9460010C9460010C9460010C9460015C
:1000A0000C9460010C9460010C9460014E414E4927
:1000B0004E495459494E46CDCCCC3D0AD7233C1726
:1000C000B7D13877CC2B329595E6241FB14F0A0073
:1000D0000020410000C84200401C4620BCBE4CCA63
:1000E0001B0E5AAEC59D74080B00020202000009E7
:1000F0000400000102020000052400100105240193
:1001000001010424020605240600010705810310ED
:10011000004009040100020A000000070502024035
:1001200000000705830240000004030904120100D7
:1001300002EF020140412337800001010203014127
:10014000726475696E6F204C4C430041726475692E
:100150006E6F204D6963726F007E306D79335B5F27
:10016000707F7B771F0D3D4F4700000000000000AF
:10017000000000000000000000000000000000007F
:100180000000000000800180007E306D79335B5FED
:10019000707F7B00000000000000771F0D3D4F477F
:1001A00000370000000E00000067000000000000A3
:1001B00000000000000000000800771F0D3D4F47C1
:1001C00000370000000E00151D6700000000000051
:1001D0000000000000000000000706050401000800
:1001E0000A0B0C0D0900000000240027002A002D36
:1001F00000300000000000250028002B002E0031F8
:1002000000000000002300260029002C002F00041D
:1002100004040404030405020202020403020202AD
:100220000206060606060604040202020404040886
:1002300002011040804010204080408008020401EC
:10024000804020100201108010204040200000005B
:100250000200090F0000030401000C000000000070
:100260000000000000000000000000000310461A1B
:1002700011241FBECFEFDAE0DEBFCDBF13E0A0E058
:10028000B1E0E8EAF3E402C005900D92AA35B107A7
:10029000D9F724E0AAE5B3E001C01D92A937B2075F
:1002A000E1F711E0C7E3D1E004C02197FE010E940D
:1002B000771FC633D107C9F70E94AE100C94C7212F
:1002C0000C94000083E08093E9008091F200882381
:1002D00019F08AE38093E8000895FC018091A2035D
:1002E000882311F13FB7F89482E08093E9002091D0
:1002F000F200822F90E01816190614F481E090E0C5
:10030000882339F0289A44E64093A1034091F100F4
:100310004083222339F02091F200211103C02BE603
:100320002093E8003FBF08958FEF9FEF08952FB708
:10033000F89483E08093E9009091E800892F80721F
:1003400095FF04C09091F20080E4891B2FBF0895AF
:100350008091990381110DC082E08093950384E020
:1003600080939603109298031092970381E08093F4
:10037000990385E993E0089581508F3008F047C0D4
:10038000E82FF0E0EA53FE4F0C94771FE301E701FA
:10039000D501DB01DF01070207020702EA01F001D4
:1003A000F401F801FE0107020202809180008F77BC
:1003B000809380000895809180008F7DF9CF809197
:1003C0008000877FF5CF84B58F7784BD089584B58D
:1003D0008F7DFBCF809190008F7780939000089560
:1003E000809190008F7DF9CF80919000877FF5CF2D
:1003F0008091C0008F778093C00008958091C000E5
:100400008F7DF9CF8091C200877F8093C2000895CD
:100410001F93CF93DF93282F30E0F901E35BFD4F6B
:100420008491F901E25DFD4FD491F901E15FFD4F47
:10043000C491CC23A9F0162F81110E94BC01EC2F8E
:10044000F0E0EE0FFF1FED50FE4FA591B4918FB776
:10045000F894EC91111108C0D095DE23DC938FBF86
:10046000DF91CF911F910895DE2BF8CFCF93DF93CB
:1004700090E0FC01E25DFD4F2491815F9D4FFC0106
:1004800084918823D1F090E0880F991FFC01EB51F3
:10049000FE4FA591B491FC01ED50FE4FC591D49152
:1004A00061110EC09FB7F8948C91E22FE0958E23D6
:1004B0008C932881E223E8839FBFDF91CF91089539
:1004C0008FB7F894EC91E22BEC938FBFF6CF1F938C
:1004D000CF93DF93182FEB0161E00E943602209743
:1004E00039F460E0812FDF91CF911F910C940802C5
:1004F000CF3FD10511F461E0F5CFE12FF0E0E35BF0
:10050000FD4FE491E150EF3008F07FC0F0E0E55797
:10051000FD4F0C94771F9A02A202A702B102BB0200
:10052000050305030503C502CF02D902E302F00269
:100530000503F80284B5806884BDC7BDDF91CF9103
:100540001F91089584B5806284BDC8BDF7CF8091A6
:100550008000806880938000D0938900C0938800D9
:10056000EDCF80918000806280938000D0938B00DB
:10057000C0938A00E3CF80918000886080938000E0
:10058000D0938D00C0938C00D9CF8091900080686B
:1005900080939000D0939900C0939800CFCF809122
:1005A0009000806280939000D0939B00C0939A004B
:1005B000C5CF80919000886080939000D0939D007B
:1005C000C0939C00BBCF8091C00080688093C00026
:1005D0008091C0008F7B8093C000C093CF00AECFCE
:1005E0008091C00080628093C000C093D000A6CFED
:1005F0008091C20088608093C2008091C2008B7F8E
:100600008093C200C093D20099CFC038D1050CF0BE
:1006100072CF67CF8251E82FF0E0E752FE4FE491AE
:1006200090917B008E2F880F880F80729F7D892B81
:1006300080937B00E770E064E0937C0080917A0017
:10064000806480937A0080917A0086FDFCCF80914F
:1006500078009091790008953FB7F89480919103C4
:1006600090919203A0919303B091940326B5A89B17
:1006700005C02F3F19F00196A11DB11D3FBFBA2F34
:10068000A92F982F8827BC01CD01620F711D811DF4
:10069000911D42E0660F771F881F991F4A95D1F779
:1006A00008958F929F92AF92BF92CF92DF92EF9276
:1006B000FF924B015C010E942C036B017C010E94A4
:1006C0002C036C197D098E099F09683E73408105D2
:1006D0009105A8F321E0821A9108A108B10888EEDB
:1006E000C80E83E0D81EE11CF11C81149104A10402
:1006F000B10429F7FF90EF90DF90CF90BF90AF90BB
:100700009F908F9008952FB7F89460918D0370910A
:100710008E0380918F03909190032FBF08950C94C6
:1007200062010895FC01248135816217730748F442
:1007300080819181009729F0860F971FFC018081AD
:10074000089580E0089540916003509161032091E5
:100750005E0330915F0342175307B4F49091E800B1
:100760009570E1F39091E80092FD19C08093F1003B
:10077000809160039091610301968F739927892B73
:1007800019F48EEF8093E8008091600390916103EB
:100790000196909361038093600381E0089580E067
:1007A0000895EF92FF920F931F93CF93DF93F82E4C
:1007B000192FE62E042F81E0860F880F0E94A303D5
:1007C00083E00E94A303CF2DD12FEC0EFD2EF11C50
:1007D000CE15DF05B9F007FF13C0FE0184910E941A
:1007E000A303182F80E00E94A30381232196811187
:1007F000EFCFDF91CF911F910F91FF90EF90089570
:100800008881EDCF81E0F5CFDF92EF92FF920F93D9
:100810001F93CF93DF93D82E8A01EB017B01E40E67
:10082000F51ECE15DF0559F0D7FE12C0FE018491EA
:100830000E94A30321968111F4CF0FEF1FEFC8018F
:10084000DF91CF911F910F91FF90EF90DF9008956E
:100850008881EECF0F931F93CF93DF931F92CDB775
:10086000DEB782E0898342E450E067EE70E080E822
:100870000E9404040E94A801DC0112960D911C91B3
:100880000115110589F0D801ED91FC910280F381E9
:10089000E02DBE016F5F7F4FC801099597FD04C031
:1008A000F80100851185ECCF89810F90DF91CF9100
:1008B0001F910F910895615030F02091F100FC01DB
:1008C00020830196F8CF289A84E68093A1030895A7
:1008D0008F929F92AF92BF92CF92DF92EF92FF9250
:1008E0000F931F93CF93DF936C017B018A0180915B
:1008F0000B01882309F45CC08091A203882309F4CA
:1009000057C08091640380FF05C08091E000826041
:100910008093E000E801B12C8AEFA82E93E0892EA5
:100920002AE3922E209711F4BB20D9F10E9497015F
:1009300081110AC0AA94AA20D9F161E070E080E098
:1009400090E00E945103EECF8C171D0611F00CF0C1
:100950008C2F9FB7F8948092E9002091E80025FD44
:1009600002C09FBFDFCF282F30E0C21BD30BF7019F
:10097000815020F041914093F100FACFE20EF31E36
:10098000BB2021F09092E800B12CEBCF8091E800E1
:1009900085FDE7CF9092E800BB24B394209709F33C
:1009A000F3CF5D9A84E680936303101611063CF042
:1009B00081E090E0F6019383828310E000E0C801BB
:1009C000DF91CF911F910F91FF90EF90DF90CF902B
:1009D000BF90AF909F908F900895FC014481558106
:1009E000608171818DEA93E00C946804CF93DF936A
:1009F0001F92CDB7DEB76983DC01ED91FC910280D7
:100A0000F381E02D41E050E0BE016F5F7F4F09951B
:100A10000F90DF91CF9108950E94970190E0089583
:100A2000CF93DF931F92CDB7DEB7FC018485958508
:100A300097FD08C02FEF3FEF358724870F90DF9198
:100A4000CF910895CE0101960E946D01019719F48E
:100A5000898190E0F3CF8FEF9FEFF0CF0F931F933B
:100A6000CF93DF931F92CDB7DEB78C01FC01848555
:100A7000958597FF0BC0CE0101960E946D010197ED
:100A800071F4898190E0F80195878487F801848565
:100A900095850F90DF91CF911F910F9108958FEF62
:100AA0009FEFF1CFFC018485958597FD0BC09FB723
:100AB000F89482E08093E9008091F2009FBF90E07B
:100AC000019608959FB7F89482E08093E9008091A1
:100AD000F2009FBF90E0089590E0FB01685F7F4FB8
:100AE000A1918A0F911D6E177F07D1F7FA01485F18
:100AF0005F4F6191860F911D4E175F07D1F7F90186
:100B0000275F3F4F4191840F911D2E173F07D1F76B
:100B100008950F931F93CF93DF93082F162FD42F91
:100B2000C8E06D2F661F6627661F802F0E9408028F
:100B3000DD0F61E0812F0E94080260E0812F0E949A
:100B40000802C15071F7DF91CF911F910F91089565
:100B50000F931F93CF93DF9300D0CDB7DEB7698398
:100B60004A83880F991F00915F0410916004000F61
:100B7000111FE9E0F4E09F012950344020173107AC
:100B800014F41192F8CF2981FC01E75FFB4F218318
:100B90008A81808360E080915D040E9408021016C3
:100BA00011066CF401501109F801E75FFB4F408119
:100BB00060915B04809159040E948905F0CF61E047
:100BC00080915D040F900F90DF91CF911F910F9155
:100BD0000C940802EF92FF920F931F93CF937C0126
:100BE0008C0183E0000F111F8A95E1F7075E1B4F10
:100BF000C1E0F80111928F0140E06C2FC7010E9403
:100C0000A805CF5FC930A9F7CF911F910F91FF9031
:100C1000EF900895CF92DF92EF92FF92CF93C09121
:100C20008503C0906803D0906903E0906A03F09058
:100C30006B038091700381111EC081E0C11101C05E
:100C400080E0819590E0B0E0A0E0CC24DD24EE24AB
:100C5000C82AD92AEA2AFB2ABC0155274427C42AD4
:100C6000D52AE62AF72ABA2FA92F982F8827C82A2B
:100C7000D92AEA2AFB2A60E083E00E9408024F2D6D
:100C800055276627772764E085E00E948905A7013C
:100C90006627772764E085E00E94890577276F2D16
:100CA0005E2D4D2D64E085E00E9489054C2D64E0A9
:100CB00085E00E94890561E083E00E9408026FEFF1
:100CC00070E06C1B710989E00E9467026091660305
:100CD00070E08AE0CF91FF90EF90DF90CF900C947E
:100CE0006702AF92BF92CF92DF92EF92FF920F9383
:100CF0001F93CF937C016B01FB01A480B58010E0B2
:100D000000E0C0E0A016B10679F0B801C6010E946B
:100D10009203813329F4CC0FC1600F5F1F4FF2CFD4
:100D20008033D9F7CC0FF9CFC7010297039708F4A6
:100D3000C0E024E030E02E193F0983E0220F331F8A
:100D40008A95E1F78FEF90E0A0E0B0E0022E04C0BA
:100D5000880F991FAA1FBB1F0A94D2F78095909500
:100D6000A095B095409168035091690360916A0322
:100D700070916B03482359236A237B238C2F90E0C7
:100D8000B0E0A0E004C0880F991FAA1FBB1F2A95DE
:100D9000D2F7842B952BA62BB72B809368039093C7
:100DA0006903A0936A03B0936B03CF911F910F91D6
:100DB000FF90EF90DF90CF90BF90AF900C940A0619
:100DC0009F92AF92BF92CF92DF92EF92FF920F93DA
:100DD0001F93CF93DF93C7E0D0E0B12C0DE512E075
:100DE0009EE3E92E92E0F92E2FE1C22E22E0D22ED0
:100DF00061E08EE00E940802F8018491F701A4905E
:100E0000F6019490992051F181110E94BC01E92DC5
:100E1000F0E0EE0FFF1FEF5FFD4FA591B4918C91B5
:100E2000A82231E009F430E0832F0C2E01C0880F96
:100E30000A94EAF7B82A60E08EE00E94080221973F
:100E4000B8F68B2DDF91CF911F910F91FF90EF900E
:100E5000DF90CF90BF90AF909F90089580E0E5CF56
:100E6000CF92DF92EF92FF920F931F93CF93DF9376
:100E7000CDB7DEB761970FB6F894DEBF0FBECDBF1A
:100E800082E10E940A038C0183E10E940A03080F99
:100E9000191F84E10E940A03080F191F85E10E94AF
:100EA0000A037C010E942C0398012E0D3F1D89012D
:100EB000330F220B330B600F711F821F931F6115BD
:100EC00071058105910511F00E94F51A81E1EEE6A8
:100ED000F1E0DE01119601900D928A95E1F703EAA7
:100EE00013E080E1C82ED12CE12CF12C0E94A61A2F
:100EF000A70196010E94211E21E030E02C0F3D1F2A
:100F0000620F731FFB018081F80181938F01F3E071
:100F10000B3A1F0759F71092AB0361960FB6F8947E
:100F2000DEBF0FBECDBFDF91CF911F910F91FF901C
:100F3000EF90DF90CF900895FC0101900020E9F739
:100F40003197AF01481B590BBC018DEA93E00C941B
:100F50006804CF93DF930E949C07EC018FE791E038
:100F60000E949C078C0F9D1FDF91CF9108950097E1
:100F700011F00C949C0790E080E0089582E891E0E5
:100F80000E94B70789E891E00E94B7078091A30308
:100F9000882361F087E991E00E94B70787E591E037
:100FA0000E94B70783EA93E00E94B7078DE991E0BA
:100FB0000E94B7078DE694E00E94ED0489E692E076
:100FC0000E94B7078FE791E00C949C07FC012481F5
:100FD0003581232B39F421E0FB018081882349F0FE
:100FE00020E007C0808191810E94A92121E0892B06
:100FF000B9F7822F0895CF93DF93EC01888199810F
:10100000009711F00E943420198218821D821C82E0
:101010001B821A82DF91CF910895FC01808191811A
:10102000009711F00C9434200895FC018081918187
:10103000009711F00C94021B60E070E0CB01089562
:10104000AF92BF92CF92DF92EF92FF920F931F93D6
:10105000CF93DF93DC01CD90DC901197C114D104C4
:1010600039F01496CD91DC918C017601209761F4D2
:10107000DF91CF911F910F91FF90EF90DF90CF9074
:10108000BF90AF90089575015701BFEFAB1ABB0A2F
:10109000F7018081082E000C990B0E94B31C892B4C
:1010A00091F72197CC0DDD1D8881082E000C990B3E
:1010B0000E94B31C892B29F0CE15DF0510F0219773
:1010C000F3CFAE014F5F5F4F4E195F09D801159600
:1010D0005C934E931497CE14DF0420F4B701C6013D
:1010E0000E949521D801ED91FC91119714968D9154
:1010F0009C91E80FF91F1082BBCFCF93DF93FC01C7
:10110000C081D181209761F08991882349F0082E10
:10111000000C990B0E948D21FE0131978083F4CF42
:10112000DF91CF910895DC0114968D919C911597D4
:101130006817790750F4ED91FC911197E60FF71FAE
:1011400015967C936E93149710820895CF93DF9336
:10115000FC01248135814217530788F4C081D18175
:10116000062E000C770BCE01840F951F0E949E2146
:10117000009729F08C1B9D0BDF91CF9108958FEF85
:101180009FEFFACFFB0144815581FC012481358119
:101190002417350778F080819181009759F0FB0181
:1011A000608171816115710529F00E94B92121E0EA
:1011B000892B09F020E0822F08950F931F93CF937E
:1011C000DF93EC0188819981009759F02A813B8156
:1011D0002617370730F081E0DF91CF911F910F91F3
:1011E00008958B016F5F7F4F0E94BD20009759F0DB
:1011F000998388831B830A832C813D81232B59F794
:10120000FC011082E8CF80E0E7CFEF92FF920F93CE
:101210001F93CF93DF9341155105B1F07B01EC0192
:101220000C811D81040F151FB8010E94DD08882361
:1012300061F0288139818C819D81B701820F931FD4
:101240000E94B2211D830C8381E0DF91CF911F9119
:101250000F91FF90EF900895CF93DF9300D0CDB71B
:10126000DEB769831A8241E050E0BE016F5F7F4FB5
:101270000E9405090F900F90DF91CF910895EF9292
:10128000FF920F931F93CF93DF93EC017B018A01B1
:10129000BA010E94DD0881110BC0CE010E94FB073C
:1012A000CE01DF91CF911F910F91FF90EF900895A4
:1012B0001D830C83B701888199810E94B221F0CFF0
:1012C000CF93DF93EC01FB018617970749F060810C
:1012D00071816115710541F0448155810E943F097A
:1012E000CE01DF91CF9108950E94FB07F9CFFC0159
:1012F000118210821382128215821482FB010190E6
:101300000020E9F73197AF01461B570B0C943F09BA
:10131000AF92BF92CF92DF92EF92FF920F931F9303
:10132000CF93DF937C016B015A01890124173507A4
:1013300020F48B2D5901042F182F61E871E0C701AB
:101340000E947709D6011496CD91DC91AC16BD06AA
:1013500020F50C171D0708F4E801D601ED91FC916A
:101360001197EC0FFD1F108110826D917C916A0D19
:101370007B1D61157105E9F0FB0101900020E9F783
:101380003197AF01461B570BC7010E943F09F60179
:1013900080819181C80FD91F1883C701DF91CF9138
:1013A0001F910F91FF90EF90DF90CF90BF90AF9083
:1013B0000895C7010E94FB07EACFCF93DF93EC01AA
:1013C000FB01248135810E948809CE01DF91CF91F4
:1013D00008954F925F926F927F928F929F92AF92F9
:1013E000BF92CF92DF92EF92FF920F931F93CF9312
:1013F000DF93CDB7DEB7A1970FB6F894DEBF0FBE6F
:10140000CDBF182F0E9483034B015C01111115C041
:1014100080915A0390915B03A0915C03B0915D03AE
:10142000A5019401281B390B4A0B5B0BDA01C9019A
:101430000A97A105B10508F4A4C081EB91E00E94D0
:10144000B707E0907C0361E871E0CE0101960E944D
:10145000770907E010E0F12CC701002E02C0959536
:1014600087950A94E2F760E380FD61E3CE0101967F
:101470000E942C090150110978F7CE0101960E94B3
:10148000ED04CE0101960E940D0889E692E00E94CB
:10149000B70786EB91E00E94B707E0907B0361E815
:1014A00071E0CE0101960E94770907E010E0F12C6F
:1014B000C701002E02C0959587950A94E2F760E374
:1014C00080FD61E3CE0101960E942C0901501109B3
:1014D00078F7CE0101960E94ED04CE0101960E949C
:1014E0000D0889E692E00E94B7078BEB91E00E941D
:1014F000B70788EC91E00E94B707C0907903D090BD
:101500007A030D2C000CEE08FF08F7FE51C06DE2C7
:101510008DEA93E00E94F60422273327A9012C19B3
:101520003D094E095F0919A2CE0181967C019AE01E
:10153000492E512C612C712CCA01B901A3019201D1
:101540000E948A1E605DF70162937F0121153105BB
:101550004105510589F7E114F10419F0C7010E9412
:101560009C0789E692E00E94B7078FE791E00E940E
:101570009C0780925A0390925B03A0925C03B09206
:101580005D03A1960FB6F894DEBF0FBECDBFDF910D
:10159000CF911F910F91FF90EF90DF90CF90BF9070
:1015A000AF909F908F907F906F905F904F90089535
:1015B000A701960119A2CE0181967C018AE0482EEE
:1015C000512C612C712CCA01B901A30192010E9416
:1015D0008A1E605DF70162937F0121153105410587
:1015E000510589F7B8CF0C940B1E8F929F92AF9242
:1015F000BF92CF92DF92EF92FF920F931F93CF9300
:10160000DF938C01FC0180819181812C912C54010C
:1016100075016401009729F10E94FE1A4B015C01DB
:1016200020E030E0A9010E94E41C7501640187FFFD
:1016300004C0F7FAF094F7F8F09420E030E040EAC4
:1016400051E4C701B6010E945E1F18160CF461C078
:1016500020E030E0A901C701B6010E94E41C87FD2B
:101660005FC020E030E040E251E4C701B6010E94D3
:101670004A1D20E030E040E05FE30E94BC1E0E9473
:10168000281FEB012AE030E0CB01B9010E94631F63
:10169000F82ECB01B9010E94631FC82E20E030E074
:1016A000A901C501B4010E94E41C5CE4B52E87FDCC
:1016B00002C041E4B42E20E2D22EC436D10544F05B
:1016C000CE0164E670E00E94631F30E3D32ED60E95
:1016D000F0E3CF0E80E3A82EAF0CC4E0D0E094E09E
:1016E000E92EF12CC7018C1B9D0B82309105E1F096
:1016F0008330910509F45AC0019709F055C084E27E
:10170000D81609F45BC08D2D8F3609F050C04CE51A
:1017100027C0C12CD12C60EAE62E61E4F62EA1CFC1
:10172000C12CD12C76019DCF8C2D992493944BE321
:101730008937A1F04CE1853789F045E0823771F0B7
:10174000082E000C990B0E948D21805240E08A33B4
:1017500028F4E82FF0E0EA5EFE4F408191104068E7
:1017600080915F0490916004181619064CF4FE01F4
:10177000E75FFB4F47876C2F90E080E00E94A80551
:10178000219709F0AFCFB80183E094E0DF91CF91CA
:101790001F910F91FF90EF90DF90CF90BF90AF908F
:1017A0009F908F900C9460098B2DAECF8A2D40E1D5
:1017B0008936B1F2912C8D3609F0B9CF45E1D0CF01
:1017C000FF920F931F93CF93DF93EC01F62E0881C6
:1017D0001981C8010E940B1EF81621F06F2DC80157
:1017E0000E94131ECE01DF91CF911F910F91FF90A8
:1017F00008954F925F926F927F928F929F92AF92D5
:10180000BF92CF92DF92EF92FF920F931F93CF93ED
:10181000DF93CDB7DEB76B970FB6F894DEBF0FBE80
:10182000CDBFC0907104D09072045E018AE0A80E12
:10183000B11C750110E000E0350180E20C151D05BA
:1018400028F4B8018DE694E00E949203F701819399
:101850007F010F5F1F4F0830110579F780906B04EF
:1018600090906C046E01F2E1CF0ED11C760110E075
:1018700000E05C2C4D2C80E20815190528F4B80115
:1018800087E694E00E949203F70181937F010F5F46
:101890001F4F0830110579F723EA33E0F901019071
:1018A0000020E9F79F01245A3340CE0101967C01C4
:1018B000FC0190E080E0470140E28217930724F4A6
:1018C000DC01AD55BC4F4C91419301968830910598
:1018D00099F719861B8E1A8E6AE5CE014A960E94E8
:1018E000E00B81E090E09B8F8A8F65EACE014A96FB
:1018F0000E94E00B82E090E09B8F8A8F63E0CE0134
:101900004A960E94E00B03E010E0F50161915F014F
:101910001B8F0A8FCE014A960E94E00B0F5F1F4F6C
:101920000B30110591F7F60161916F011B8F0A8F42
:10193000CE014A960E94E00B0F5F1F4F0331110545
:1019400091F7F70161917F011B8F0A8FCE014A96B3
:101950000E94E00B0F5F1F4F0C31110591F79401AE
:10196000452D542DB30183E00E946C051B8F0A8F17
:10197000682FCE014A960E94E00B6B960FB6F89442
:10198000DEBF0FBECDBFDF91CF911F910F91FF90B2
:10199000EF90DF90CF90BF90AF909F908F907F900F
:1019A0006F905F904F9008951F920F920FB60F9215
:1019B00011242F933F938F939F93AF93BF93809165
:1019C0008D0390918E03A0918F03B091900330917D
:1019D0008C0323E0230F2D3758F50196A11DB11D6F
:1019E00020938C0380938D0390938E03A0938F0399
:1019F000B09390038091910390919203A0919303EF
:101A0000B09194030196A11DB11D80939103909311
:101A10009203A0939303B0939403BF91AF919F91CE
:101A20008F913F912F910F900FBE0F901F9018959F
:101A300026E8230F0296A11DB11DD2CF1F920F924F
:101A40000FB60F9211242F933F934F935F936F9391
:101A50007F938F939F93AF93BF93CF93EF93FF9316
:101A6000C091E1008091E100837F8093E100C3FF9A
:101A70000FC01092E90081E08093EB001092EC001F
:101A800082E38093ED001092A20388E08093F0003F
:101A9000C2FF1AC00E94620180916303882341F053
:101AA00080916303815080936303811101C05D982D
:101AB0008091A103882341F08091A10381508093FC
:101AC000A103811101C02898C4FF23C08091E200C6
:101AD0008E7E81608093E2008091E1008F7E809312
:101AE000E100809164038E7E806180936403FF91A6
:101AF000EF91CF91BF91AF919F918F917F916F9116
:101B00005F914F913F912F910F900FBE0F901F90BB
:101B10001895C0FFECCF8091E2008E7E80618093AB
:101B2000E2008091E1008E7E8093E1008091640369
:101B30008E7E8160DACF1F920F920FB60F92112422
:101B4000CF92DF92EF92FF920F931F932F933F93C9
:101B50004F935F936F937F938F939F93AF93BF93B5
:101B6000EF93FF93CF93DF93CDB7DEB76C97DEBFD4
:101B7000CDBF1092E9008091E80083FF25C068E0A6
:101B8000CE0145960E945B0482EF8093E8008D8928
:101B900087FF39C09091E80090FFFCCF982F907696
:101BA00009F034C19E894F89588D2F89F88C911185
:101BB00031C0803861F5809165038093F100109207
:101BC000F1008EEF8093E8006C960FB6F894DEBFBC
:101BD0000FBECDBFDF91CF91FF91EF91BF91AF913C
:101BE0009F918F917F916F915F914F913F912F9135
:101BF0001F910F91FF90EF90DF90CF900F900FBE4D
:101C00000F901F9018959EEF9093E800C7CF109209
:101C1000F100D5CF913059F48111D3CF4130510526
:101C200081F6809165038D7F80936503CACF9330E1
:101C300049F48111C6CF4130510519F680916503F1
:101C40008260F2CF953041F48091E80080FFFCCFB4
:101C500020682093E300B5CF963009F0A9C00B8D22
:101C60001C8D22E01092E900109261031092600333
:101C7000F2122EC010925F0310925E030E942A049B
:101C80001F8299E09983FA8291E09E8390EA988777
:101C90009AEF99872091600330916103275F3F4F4E
:101CA0003C832B838D831092E90010926103109284
:101CB000600310935F0300935E0349E050E0BE01B0
:101CC0006F5F7F4F80E00E9404040E942A0479CF56
:101CD00010935F0300935E030E94A801DC0112963B
:101CE0000D911C910115110509F451C1D801ED9117
:101CF000FC910480F581E02DBE016B5E7F4FC80131
:101D00000995009709F03EC1F80100851185EACFD9
:101D1000F3E0FF120EC08F89882309F440C082309F
:101D200061F440E86DE08BE491E00E94D103811101
:101D300048CF81E28093EB0047CF813029F440E81F
:101D40006BE08FE391E0F1CF833099F70E94A80117
:101D5000DC011296ED90FC908E010F5F1F4F680121
:101D6000E114F10479F0D701ED91FC910680F7813F
:101D7000E02DB801C7010995080F111DF701E08496
:101D8000F184EECFD8011C92F60101900020E9F712
:101D90003197BF016C197D0940E0C601C6CF69E2E9
:101DA00071E0FB01449150E080E80E94040409CFF7
:101DB000973009F4BECF983021F481E08093F10090
:101DC00000CF993009F0FDCE837009F0B2CFE1E584
:101DD000F1E081E031E096E32191222371F08093DC
:101DE000E9003093EB00DF0111972C912093EC0078
:101DF0009093ED008F5F873079F78EE78093EA004C
:101E00001092EA008F898093A203DBCE8B8D9C8D8C
:101E10001092E900109261031092600390935F03A7
:101E200080935E03898D811192C08E899D89913A3C
:101E300049F4813209F07DCF47E050E064E071E081
:101E400080E0B3CF913209F074CF833269F48F8987
:101E5000988DB0E0A0E08093000190930101A093E1
:101E60000201B0930301ADCE803269F48091E800A5
:101E700082FFFCCF67E084E091E00E945B048BEF7F
:101E80008093E8009ECE823209F09BCE8F898093AA
:101E90000B01EEEFFFE7859194918B3F9C4D51F143
:101EA000E0E0F8E08091040190910501A091060125
:101EB000B0910701803B9440A105B105F1F48091F8
:101EC0000B0180FD1AC0EE3F8AE0F80789F587E72D
:101ED00097E791838083809160008093620388E11B
:101EE0009BE00FB6F894A895809360000FBE909386
:101EF000600067CEEEEFFAE0D5CF80819181873721
:101F0000974709F05ECEA895809160008861809324
:101F100060008091620380936000EE3F2AE0F20748
:101F200089F08091FE0A9091FF0A9183808349CEC7
:101F3000808191818737980751F29093FF0A8093AF
:101F4000FE0AC5CF1092FF0A1092FE0A3ACE0E94F6
:101F5000A801DC0112960D911C910115110509F4DF
:101F6000E8CED801ED91FC910190F081E02DBE0109
:101F70006B5E7F4FC8010995811123CEF801008562
:101F80001185EBCF181619060CF41BCED2CEF1E05A
:101F9000FF12BECE6DE271E004CFEF92FF920F937D
:101FA0001F93CF93DF93CDB7DEB728970FB6F89482
:101FB000DEBF0FBECDBF7C01CB014AE08E010F5FBB
:101FC0001F4FB8010E94291BF80101900020E9F77A
:101FD0003197AF01401B510BB801C7010E940509A1
:101FE000811103C0C7010E94FB07C70128960FB6E5
:101FF000F894DEBF0FBECDBFDF91CF911F910F913F
:10200000FF90EF900895CF93DF931092B00310925A
:10201000AF0388EE93E0A0E0B0E08093B10390932B
:10202000B203A093B303B093B40380E691E090931E
:10203000AE038093AD038FEF9FEF9093BA0380932D
:10204000B9036DEC71E08DE694E00E94770964EDD0
:1020500071E087E694E00E9477096CED71E081E61B
:1020600094E00E947709C6E0D0E0D0935A04C09370
:10207000590488E090E090935C0480935B0487E0CF
:1020800090E090935E0480935D0481E090E09093F3
:10209000600480935F0461E086E00E94360261E0A4
:1020A00080915B040E94360261E080915D040E9491
:1020B000360261E080915D040E940802D0935A04C8
:1020C000C0935904E9E1F4E0119284E0E935F8079E
:1020D000D9F7D0E0C0E080915F0490916004C81708
:1020E000D90774F540E06FE0CE010E94A805809109
:1020F0005F0490916004C817D9072CF447E06BE0A7
:10210000CE010E94A80540E069E0CE010E94A8052A
:1021100080915F0490916004C817D9071CF4CE0128
:102120000E94EA0580915F0490916004C817D90766
:102130002CF440E06CE0CE010E94A8052196CBCFA4
:1021400066EE71E083E094E00E94770961E871E057
:102150008DEF93E0DF91CF910C947709CF93DF93CC
:10216000CDB7DEB7CD54D1090FB6F894DEBF0FBEA0
:10217000CDBF789484B5826084BD84B5816084BD10
:1021800085B5826085BD85B5816085BD80916E0015
:10219000816080936E001092810080918100826046
:1021A0008093810080918100816080938100809183
:1021B0008000816080938000809191008260809394
:1021C00091008091910081608093910080919000B6
:1021D0008160809390008091C10084608093C100F1
:1021E0008091C10082608093C1008091C1008160B4
:1021F0008093C1008091C30081608093C30080916F
:10220000C00082608093C0008091C2008160809392
:10221000C20080917A00846080937A0080917A0075
:10222000826080937A0080917A00816080937A0046
:1022300080917A00806880937A001092A2031092B5
:102240006503109264038091D70081608093D7006A
:1022500080EA8093D80089B5806189BD89B58260A4
:1022600089BD89B5282F21702E962FAF2E9780FF1C
:10227000F8CF61E070E080E090E00E94510380912F
:10228000D8008F7C80618093D8008091E000807FAF
:102290008093E0008091E1008E7E8093E1008DE0EC
:1022A0008093E200559A209A5D9828988FEF9FEFCF
:1022B0009093BA038093B90361E083E00E943602F1
:1022C00061E084E00E94360261E085E00E9436020F
:1022D00061E08EE00E94360261E08FE00E943602EB
:1022E00060E080E10E94360261E089E00E943602EF
:1022F00061E08AE00E94360280915F049091600460
:102300001816190634F441E06CE090E080E00E9479
:10231000A80580915F04909160041816190634F4A2
:102320004FE06AE090E080E00E94A80580915F04A1
:10233000909160041816190624F490E080E00E9441
:10234000EA056AE070E080E090E00E94510310929C
:1023500068031092690310926A0310926B030E9443
:102360000A06109266031092850370E060E089E02F
:102370000E94670270E060E08AE00E94670290E0DD
:1023800080E00E94F30A182F81E090E00E94F30A97
:10239000982F812F8A35954A09F44BC00E94300747
:1023A0000E94F90B0E94BE0781E090E090938B039E
:1023B00080938A030E94830360938603709387034C
:1023C0008093880390938903109285030E940A06E4
:1023D0000E9483036B017C0180918A0390918B039F
:1023E000019709F055C18091860390918703A091D0
:1023F0008803B0918903A7019601281B390B4A0B6A
:102400005B0B283BFBE03F074105510508F41BC16E
:10241000109285030E940A0682E090E090938B035D
:1024200080938A0380E090E0892B91F20E94000063
:10243000CFCF82E090E00E94F30A782E7E0144E143
:10244000E40EF11C8E01055F1F4F6801570143E048
:10245000842E912CC4010E94F30AF50181935F013F
:10246000C40108960E94F30AF60181936F01FFEF01
:102470008F1A9F0A2BE08216910461F71C8E1B8A2B
:1024800032E0371508F45DC083E190E00E94F30A62
:10249000D82E21EE31E0A801B701872D0E946C05EE
:1024A000D81291C761E871E0CE014D960E9477097C
:1024B000670148E0C40ED11CF70161917F01862FAE
:1024C0008F7D21F0CE014D960E942C09CE14DF04A1
:1024D00099F789A19AA1892B39F0BE01635E7F4FDC
:1024E0008DE694E00E94600961E871E0CE010196FA
:1024F0000E9477097801F8E0EF0EF11CF801619174
:102500008F01611101C060E2CE0101960E942C0989
:10251000E016F10699F70D811E810115110509F4E8
:102520004AC701501109B801CE0101960E949203D9
:10253000803209F039C7B801CE0101960E94930894
:10254000EACFF3E07F122ACF9E012F5F3F4F690150
:10255000590133E1832E912CC4010E94F30AF50145
:1025600081935F01FFEF8F1A9F0A2CE1821691047D
:1025700099F71A868CE190E00E94F30AB82E960132
:10258000A801B70183E00E946C05B81207CF61E88B
:1025900071E0CE0183960E947709570138E0A30EBF
:1025A000B11CF70161917F01862F8F7D21F0CE0153
:1025B00083960E942C09AE14BF0499F78FA198A5A9
:1025C000892B39F0BE016D5D7F4F8DE694E00E944E
:1025D000600961E871E0CE014D960E9477097801AB
:1025E000F8E0EF0EF11CF80161918F01611101C05B
:1025F00060E2CE014D960E942C09E016F10699F793
:1026000009A11AA10115110509F4F6C60150110915
:10261000B801CE014D960E949203803209F0E5C6C2
:10262000B801CE014D960E949308EACF8BEF91E05E
:102630000E94B70787E591E00E94B70783EA93E01D
:102640000E94A907F7C62C3D85E0380741055105D2
:1026500078F4AFEFB0E00E94401E2CED35E040E092
:1026600050E00E948A1E209385030E940A06DACE5B
:102670002C5D354041095109AFEFB0E00E94401E8A
:102680002CED35E040E050E00E948A1E2095EBCF13
:102690008DEA93E00E945205892B09F4DAC48DEA91
:1026A00093E00E9410058D3099F38A3009F48BE392
:1026B000682F8DEF93E00E942C0950E040E06BE31F
:1026C0008DEF93E00E94A6088C0197FDE1CF9C015D
:1026D00050E040E06DEF73E0CE01895B9F4F0E94B8
:1026E0008809CE01895B9F4F0E942008A8014F5F97
:1026F0005F4F6DEF73E0CE0101960E94DD0980917E
:10270000FD039091FE03009751F169817A81611573
:10271000710519F14091FF03509100042D813E8114
:1027200042175307D0F00E94B2218D819E81909371
:102730000204809301041E821D82CE0101960E9434
:102740000D082D968EAD9FAD2D97892BF9F4CE01F6
:10275000895B9F4F0E940D08B0CF0E943420898171
:102760009A819093FE038093FD038B819C819093CB
:1027700000048093FF038D819E81909302048093D7
:1027800001041A8219821C821B82D5CF23961FAEA8
:102790001EAE239725961FAE1EAE259727961FAE19
:1027A0001EAE2797BE01695B7F4FCE018F5B9F4FA7
:1027B0000E94600941E050E069E672E0CE018F5B63
:1027C0009F4F0E940509811105C0CE018F5B9F4F6D
:1027D0000E94FB07312C212CA1016BE3CE018F5B02
:1027E0009F4F0E94A6088C0197FD2DC49C01A1015A
:1027F000BE016F5B7F4FCE01CB960E948809180106
:102800009FEF291A390ACE01CB960E942008219603
:102810008EAD9FAD2197892B89F150E040E06AE3AE
:10282000CE01CB960E94A6088C0197FFB1C01D8AED
:102830001C8A1F8A1E8A198E188EBE01655C7F4F06
:10284000CE0144960E946009CE0144960E947D0804
:102850006AE072E0CE0144960E94E607811108C04A
:102860006EE072E0CE0144960E94E607882359F09C
:102870000E94BE07CE0144960E940D08CE01CB9661
:102880000E940D08A9CF66E172E0CE0144960E9435
:10289000E607882321F081E00E94E909EBCF6AE195
:1028A00072E0CE0144960E94E607882389F081E019
:1028B00090E090938403809383030E94830360934A
:1028C0006C0370936D0380936E0390936F03D2CF6C
:1028D0006FE172E0CE0144960E94E607882339F04A
:1028E000109267038CEC92E00E94A907C3CF64E2C8
:1028F00072E0CE0144960E94E607882309F4BACF1D
:1029000088E292E00E94B7071C861B861E861D8601
:10291000188A1F8667E674E0CE010B960E94600954
:10292000CE010B960E94200850E040E060E2CE010C
:102930000B960E94A60897FD07C02F853889215065
:1029400031098217930768F0CE010B960E94ED04BF
:1029500088E692E00E94A907CE010B960E940D081E
:1029600089CFAC014F5F5F4FBE01655F7F4FCE01E6
:1029700001960E94DD098DE292E00E94B707CE0128
:1029800001960E94ED04CE0101960E940D08E0CF51
:102990009C0150E040E0BE01655C7F4FCE01C596D2
:1029A0000E948809CE01C5960E942008CE01C596D6
:1029B0000E947D08A8014F5F5F4FBE01655C7F4F9D
:1029C000CE018F960E94DD09CE018F960E942008CD
:1029D0006FE272E0CE01C5960E94E607882371F08F
:1029E000BE01615D7F4F81E090E00E947106CE01E3
:1029F0008F960E940D08CE01C5963ECF64E372E02B
:102A0000CE01C5960E94E607882331F0BE01615DC4
:102A10007F4F82E090E0E9CF69E372E0CE01C59696
:102A20000E94E607882331F0BE01615D7F4F83E09D
:102A300090E0DBCF6EE372E0CE01C5960E94E60720
:102A4000882331F0BE01615D7F4F84E090E0CDCFFF
:102A500068E472E0CE01C5960E94E6078823B9F0CB
:102A6000CE018F960E94150897FD0DC06F3F71052E
:102A70008105910509F04CF460938503609366032A
:102A80000E940A06B4CF60E0F7CF6FEFF5CF63E4A2
:102A900072E0CE01C5960E94E6078823B1F0CE0110
:102AA0008F960E94150880915F049091600418161B
:102AB00019060CF09CCF462F603108F04FE06AE019
:102AC00090E080E00E94A80592CF6BE472E0CE0116
:102AD000C5960E94E607882329F0CE018F960E94B2
:102AE000F50A85CF60E572E0CE01C5960E94E60743
:102AF00081117DCF66E172E0CE01C5960E94E607A6
:102B0000882321F081E00E94E90971CF6AE072E038
:102B1000CE01C5960E94E607882319F00E94BE07E1
:102B200066CF66E572E0CE0101960E947709BE018C
:102B30006F5F7F4FCE01C5960E94C208182FCE014D
:102B400001960E940D08112309F451CF44E050E092
:102B5000BE01655C7F4FCE0189960E94DD09CE01E2
:102B600089960E9420086BE572E0CE0101960E94D2
:102B70007709BE016F5F7F4FCE0189960E94C20820
:102B8000182FCE0101960E940D08112379F144E01F
:102B900050E0BE01675D7F4FCE0101960E94DD09C6
:102BA000CE0101960E9420082D813E81809165040E
:102BB0009091660428173907B1F489819A81609150
:102BC000610470916204009709F448C461157105AD
:102BD00039F4232B09F450C4FC01808190E049C4EE
:102BE0000E94A92146C48BE692E04BC46AE772E0DA
:102BF000CE0101960E947709BE016F5F7F4FCE0123
:102C000089960E94C208B0906703811101C0B12C5F
:102C1000CE0101960E940D08BB2009F494C043E048
:102C200050E0BE01675D7F4FCE0183960E94DD09B3
:102C3000CE0183960E94200850E040E06EE2CE0173
:102C400083960E94A6088C011816190634F48FA1E9
:102C500098A501970817190748F08EE792E00E949F
:102C6000A907CE0183960E940D08E1C0980150E0AB
:102C700040E0BE016D5D7F4FCE014D960E948809F8
:102C8000A8014F5F5F4FBE016D5D7F4FCE0144963F
:102C90000E94DD09CE014D960E9415082B01CE0140
:102CA00044960E9415084B01C2010197099708F04C
:102CB00047C02AE08216910408F042C06EE872E034
:102CC000CE010B960E9477091A8219821C821B8200
:102CD0001E821D82BE01655F7F4FCE0101960E945C
:102CE0006009B201CE0101960E94CD0F8C0141E036
:102CF00050E063E972E00E940509811103C0C80138
:102D00000E94FB07B401C8010E94CD0FBC0187E6F9
:102D100094E00E946009CE0101960E940D08CE0148
:102D20000B960E940D0885E992E00E94A907CE014A
:102D300044960E940D08CE014D960E940D0891CF39
:102D400081EA92E0F2CF60EB72E0CE0101960E9440
:102D50007709BE016F5F7F4FCE0189960E94C2083E
:102D60008111B0906703CE0101960E940D08BB202F
:102D700009F443C045E050E0BE01675D7F4FCE01DE
:102D800001960E94DD09CE0101960E9420080D8166
:102D90001E81C8010397069718F086EB92E071C375
:102DA00050E040E06DE2CE0101960E94A608019736
:102DB000A1F770E060E0CE0101960E949203082E18
:102DC000000C990B0E947D21892B39F322E0A22E61
:102DD000B12CA016B10609F437C3B501CE01019696
:102DE0000E949203082E000C990B0E947D21892BD2
:102DF000A1F23FEFA31AB30AECCF6FE172E0CE016C
:102E000001960E947709BE016F5F7F4FCE018996C0
:102E10000E94C208782ECE0101960E940D087720EC
:102E200059F01092670388EC92E00E94A907CE0146
:102E300089960E940D08DBCD66ED72E0CE01019609
:102E40000E947709BE016F5F7F4FCE0189960E9475
:102E5000C2088111B0906703CE0101960E940D084F
:102E6000BB2009F463C044E050E0BE01675D7F4FC2
:102E7000CE010B960E94DD09CE010B960E94200820
:102E80006BED72E0CE0101960E9477098F859889DB
:102E90002D813E8182179307E9F4892B09F43BC009
:102EA000AB84BC8489809A80F50181915F0188237D
:102EB00091F1082E000C990B0E9485218C01F401E0
:102EC00081914F01082E000C990B0E948521081753
:102ED000190751F3CE0101960E940D087720F9F0F1
:102EE0000E94F90B109267038FED92E00E94A907F0
:102EF0000E94620162E370E080E090E00E94510372
:102F000088E198E00FB6F894A895809360000FBE12
:102F100090936000FFCF2E967FAC2E97DBCF8CEE88
:102F200092E00E94A907CE010B969DCE6DEF72E054
:102F3000CE0101960E947709BE016F5F7F4FCE01DF
:102F400089960E94C208182FCE0101960E940D0892
:102F5000112371F080916703882339F00E94F90BE7
:102F60001092670383E093E060CF8EE093E05DCF43
:102F700069E971E0CE0101960E947709BE016F5F99
:102F80007F4FCE0189960E94C2088111B0906703DD
:102F9000CE0101960E940D08BB2009F448CF43E002
:102FA00050E0BE01675D7F4FCE0101960E94DD09B2
:102FB000CE0101960E9420088D819E810897F1F52F
:102FC00010E000E0B801CE0101960E94920390ED5E
:102FD000980F9A30B0F18F7D815491E0863008F0DF
:102FE00090E00F5F1F4F0830110531F5992331F143
:102FF000CE0101960E947D0803EA13E0B12CA12CBA
:10300000B501CE0101960E949203F80181938F01D0
:10301000FFEFAF1ABF0A28E0A216B10489F7109299
:10302000AB038DE193E00E94B70787E591E00E9432
:10303000B70783EA93E025C29111C4CF88E293E0F9
:1030400020C29B2DCECFCE018F5B9F4F0E940D08DB
:103050007ECB00918303109184030130110509F0A8
:10306000F5C081E0809370030E948303C0906C03DD
:10307000D0906D03E0906E03F0906F036C197D09A2
:103080008E099F0960383CE073078105910550F572
:1030900024E630E040E050E00E948A1E81E090E0AB
:1030A000A0E0B0E004C0880F991FAA1FBB1F2A959B
:1030B000D2F78093680390936903A0936A03B09357
:1030C0006B030E940A0666EE71E0CE0101960E9433
:1030D0007709CE0101960E94F50ACE0101960E9461
:1030E0000D08A0C9683040E274078105910508F019
:1030F0003CC060587C408109910924EF31E040E0F8
:1031000050E00E948A1E022FC901297FDD24D3943A
:10311000232B19F0089709F0D12C94E0E92EF12C1B
:10312000005D10E0075A1E4F80915F04909160048B
:10313000181619066CF4F8014491D1104068F70193
:10314000E75FFB4F47876E2D90E080E00E94A80567
:10315000F1E0EF1AF10841F7109268031092690349
:1031600010926A0310926B0380CA603923E37207DE
:103170008105910548F5685070428109910928E55B
:1031800032E040E050E00E948A1E2770332701C0E1
:10319000000F2A95EAF784E0E82EF12C80915F0475
:1031A000909160041816190654F4F701E75FFB4F7D
:1031B0000787402F6E2D90E080E00E94A80531E047
:1031C000E31AF10859F7C8CF60367B4381059105B2
:1031D000D0F468E373E0CE0101960E947709CE0136
:1031E00001960E94F50ACE0101960E940D088FEF0C
:1031F0009FEFDC018093680390936903A0936A03B7
:10320000B0936B0332CA66EE71E0CE0101960E9464
:103210007709CE0101960E94F50ACE0101960E941F
:103220000D08109268031092690310926A031092BD
:103230006B030E940A06109270031092840310928E
:1032400083038DE393E00E94A907ECC860E08FE060
:103250000E9408020FE010E0C8010197F1F761E059
:103260008FE00E940802C8010197F1F70E94E00672
:10327000182F0E94E0061095082F009560E08FE05F
:103280000E94080280918203811304C0809181030F
:10329000801739F180917D0390917E03A0917F0387
:1032A000B0918003A7019601281B390B4A0B5B0BD9
:1032B000DA01C9010C97A105B10598F0C0927D0310
:1032C000D0927E03E0927F03F092800310938203FA
:1032D0000093810310937C0300937B0380E00E94A2
:1032E000E90985E10E940A038C0190937A03809397
:1032F00079038091770390917803A801481B590BBB
:10330000CA0157FF03C091958195910945970CF427
:1033100089C810937803009377032FEF30E0D8012A
:103320000E947D1F2FEF33E040E050E00E94211EFD
:1033300020938503622F70E089E00E9467028091EC
:10334000750390917603F801E81BF90BCF01F7FFA5
:1033500003C09195819591094597B4F480917103CB
:1033600090917203A0917303B0917403A701960129
:10337000281B390B4A0B5B0BDA01C901883C91050C
:10338000A105B10508F44EC8C0927103D092720332
:10339000E0927303F0927403109376030093750325
:1033A00081E00E94E9093EC8BE016F5F7F4F87E65A
:1033B00094E00E946009CE0101960E940D08CE01A2
:1033C0004D960E940D080E9430070E94F90B8BEE6B
:1033D00091E00E94B70787E591E00E94B70783EA72
:1033E00093E00E94A9070C94D211BE01635E7F4F47
:1033F00087E694E00E946009A601485F5F4F90E075
:1034000080E0F60121916F01322F3F7D29F0FC0110
:10341000ED55FC4F20830196C416D50691F7FC01AB
:10342000ED55FC4F1082892B09F000C90E9430072E
:103430000E94F90BCE014D960E940D08CE01839695
:103440000E940D080C94D211BE016F5F7F4F8DE674
:1034500094E00E9460098CE493E013C0611571054B
:1034600059F0232B49F0FB01808190E091958195E3
:103470009109892B09F0B7CBF1E0F093670380E65F
:1034800092E00E94A907CE010196EDCB8DEF93E06B
:103490000E940D0883E094E00E940D0881E694E00C
:1034A0000E940D0887E694E00E940D088DE694E0E6
:1034B0000C940D088F929F92AF92BF92CF92DF92A1
:1034C000EF92FF92CF93DF93EC01688179818A813B
:1034D0009B81611571058105910521F464E279ED07
:1034E0008BE597E02DE133EF41E050E00E94211E93
:1034F00049015A019B01AC01A7EAB1E40E94401EB8
:103500006B017C01ACEEB4EFA50194010E944E1E4C
:10351000C60ED71EE81EF91EF7FE06C081E0C81AC7
:10352000D108E10880E8F80AC882D982EA82FB82E1
:10353000C701B6019F77DF91CF91FF90EF90DF90A9
:10354000CF90BF90AF909F908F9008958F929F9251
:10355000AF92BF92CF92DF92EF92FF9260910C01F7
:1035600070910D0180910E0190910F01611571050F
:103570008105910521F464E279ED8BE597E02DE179
:1035800033EF41E050E00E94211E49015A019B01A6
:10359000AC01A7EAB1E40E94401E6B017C01ACEED5
:1035A000B4EFA50194010E944E1EC60ED71EE81E60
:1035B000F91EF7FE06C081E0C81AD108E10880E8CC
:1035C000F80AC0920C01D0920D01E0920E01F09227
:1035D0000F01C701B6019F77FF90EF90DF90CF906A
:1035E000BF90AF909F908F90089560930C0170935F
:1035F0000D0180930E0190930F01089566277727A0
:103600000C94631B1F93FC0199278827BC01E89445
:1036100011911032E9F3193010F01E30C8F31B324B
:1036200051F01D3249F4689406C00E94341B610FAA
:10363000711D811D911D119110531A30B0F33EF48C
:1036400090958095709561957F4F8F4F9F4F1F91FB
:103650000895BB274A3031F4992322F4BDE29095B6
:1036600081959F4F0C944A1B592F482F372F262F97
:10367000660F771F881F991F660F771F881F991F76
:10368000620F731F841F951F660F771F881F991F76
:103690000895BB27FB015527AA27880F991FAA1F4A
:1036A000A41710F0A41B83955051B9F7A05DAA335D
:1036B00008F0A95DA193009779F7B111B193119228
:1036C000CB010C94D41CB0E0A0E0E9E6FBE10C9443
:1036D000591E5C017B016115710519F0DB018D93A9
:1036E0009C9385010F5F1F4FF501D0818D2F90E0D6
:1036F0000E94B31C6C01892BB9F5DD32B9F50F5F5F
:103700001F4FD5011196DC91C1E05801F1E0AF1ACD
:10371000B10843E050E064EB70E0C5010E94BC1CBE
:10372000892B69F5680182E0C80ED11C45E050E0A4
:103730006FEA70E0C6010E94BC1C892B21F468016D
:1037400097E0C90ED11CE114F10419F0D701CD9214
:10375000DC9260E070E080E89FEFC111FFC060E0A4
:1037600070E080E89FE7FAC05801BBCFDB3229F454
:1037700085010E5F1F4FF501D181C0E0C6CF43E048
:1037800050E06CEA70E0C5010E94BC1C892BE9F096
:10379000F80110E000E020E030E0A9015F01B0EDA9
:1037A0008B2E8D0E89E08815C8F19C2E689491F8B7
:1037B0008C2F8870C2FF16C0811102C00F5F1F4F8F
:1037C0003196D501DC91C92DE9CFE114F10429F03E
:1037D0000E5F1F4FF7011183008360E070E080EC03
:1037E0009FE7BCC0882311F001501109A5E0B0E0AB
:1037F0000E94401E9B01AC01220F331F441F551F26
:10380000280D311D411D511D283999E939074907F6
:1038100099E15907A8F2C6609C2ED2CFAEEF8A126A
:1038200006C0C3FD3CC09C2E689493F8C9CFDF7DD1
:10383000D534A9F580818D3239F4C061DF0112964B
:10384000818162E070E006C0DF018B32C1F3119626
:1038500061E070E080535D01A61AB70A8A30F8F47F
:10386000E0E8CE16ECE0DE065CF4B601660F771FEA
:10387000660F771FC60ED71ECC0CDD1CC80ED11CE0
:103880005D01FFEFAF1ABF0A8C9180538A30A8F117
:10389000C4FF03C0D194C194D1080C0D1D1DC1FFFC
:1038A00009C0E114F10431F081E0A81AB108D70190
:1038B000AD92BC92CA01B9010E94E91CC370C33029
:1038C00009F490584B015C0120E030E0A9010E940E
:1038D000E41C882309F440C0C3EED0E017FF05C004
:1038E000119501951109CBECD0E06E01B8E1CB1A2E
:1038F000D10880E2E82EF12C0FC0D501B1CFFE0136
:1039000025913591459154910E191F09C501B401B6
:103910000E944A1D4B015C01D501C4010E151F0513
:1039200074F72497F594E794CC16DD06A9F78A2F4F
:10393000880F8B2F881F8F3F49F020E030E0A901CE
:10394000C501B4010E94E41C811106C082E290E02E
:103950009093740480937304C501B401CDB7DEB7AE
:10396000ECE00C94751E91110C94B71D803219F087
:1039700089508550C8F70895FB01DC014150504043
:1039800088F08D9181341CF08B350CF4805E65914C
:1039900061341CF06B350CF4605E861B611171F3B1
:1039A000990B0895881BFCCFDC01FC01672F7191F6
:1039B0007723E1F7329704C07C916D937083629115
:1039C000AE17BF07C8F308950E94261D08F481E0D2
:1039D0000895E89409C097FB3EF490958095709502
:1039E00061957F4F8F4F9F4F9923A9F0F92F96E94B
:1039F000BB279395F695879577956795B795F111C0
:103A0000F8CFFAF4BB0F11F460FF1BC06F5F7F4F5C
:103A10008F4F9F4F16C0882311F096E911C077236E
:103A200021F09EE8872F762F05C0662371F096E877
:103A3000862F70E060E02AF09A95660F771F881F46
:103A4000DAF7880F9695879597F90895990F0008EA
:103A5000550FAA0BE0E8FEEF16161706E807F90760
:103A6000C0F012161306E407F50798F0621B730BFB
:103A7000840B950B39F40A2661F0232B242B252B7C
:103A800021F408950A2609F4A140A6958FEF811D1F
:103A9000811D08950E945D1D0C94D11D0E94C31DBF
:103AA00038F00E94CA1D20F0952311F00C94BA1D25
:103AB0000C94C01D11240C94051E0E94E21D70F38D
:103AC000959FC1F3950F50E0551F629FF001729FC3
:103AD000BB27F00DB11D639FAA27F00DB11DAA1FD2
:103AE000649F6627B00DA11D661F829F2227B00D1F
:103AF000A11D621F739FB00DA11D621F839FA00DAA
:103B0000611D221F749F3327A00D611D231F849FF9
:103B1000600D211D822F762F6A2F11249F57504050
:103B20009AF0F1F088234AF0EE0FFF1FBB1F661FCB
:103B3000771F881F91505040A9F79E3F510580F094
:103B40000C94BA1D0C94051E5F3FE4F3983ED4F329
:103B5000869577956795B795F795E7959F5FC1F738
:103B6000FE2B880F911D9695879597F908959927B3
:103B70008827089597F99F6780E870E060E00895CE
:103B80009FEF80EC089500240A9416161706180675
:103B90000906089500240A94121613061406050651
:103BA0000895092E0394000C11F4882352F0BB0FE2
:103BB00040F4BF2B11F460FF04C06F5F7F4F8F4F45
:103BC0009F4F089557FD9058440F551F59F05F3F80
:103BD00071F04795880F97FB991F61F09F3F79F02F
:103BE00087950895121613061406551FF2CF4695B1
:103BF000F1DF08C0161617061806991FF1CF869533
:103C00007105610508940895E894BB276627772716
:103C1000CB0197F90895F999FECF92BD81BDF89A2D
:103C2000992780B50895262FF999FECF1FBA92BD26
:103C300081BD20BD0FB6F894FA9AF99A0FBE01968D
:103C40000895052E97FB1EF400940E94381E57FD20
:103C500007D00E948A1E07FC03D04EF40C94381E35
:103C600050954095309521953F4F4F4F5F4F0895A8
:103C700090958095709561957F4F8F4F9F4F0895D8
:103C80000E94AC1EA59F900DB49F900DA49F800D27
:103C9000911D11240895B7FF0C94401E0E94401EF0
:103CA000821B930B08952F923F924F925F926F92D7
:103CB0007F928F929F92AF92BF92CF92DF92EF92BC
:103CC000FF920F931F93CF93DF93CDB7DEB7CA1B3D
:103CD000DB0B0FB6F894DEBF0FBECDBF09942A8868
:103CE000398848885F846E847D848C849B84AA8410
:103CF000B984C884DF80EE80FD800C811B81AA819D
:103D0000B981CE0FD11D0FB6F894DEBF0FBECDBF67
:103D1000ED010895A1E21A2EAA1BBB1BFD010DC0E7
:103D2000AA1FBB1FEE1FFF1FA217B307E407F5076B
:103D300020F0A21BB30BE40BF50B661F771F881F47
:103D4000991F1A9469F760957095809590959B01DD
:103D5000AC01BD01CF010895A29FB001B39FC00186
:103D6000A39F700D811D1124911DB29F700D811DA7
:103D70001124911D08955058BB27AA270E94D31ED5
:103D80000C94D11D0E94C31D38F00E94CA1D20F062
:103D900039F49F3F19F426F40C94C01D0EF4E095FD
:103DA000E7FB0C94BA1DE92F0E94E21D58F3BA17E5
:103DB000620773078407950720F079F4A6F50C9441
:103DC000041E0EF4E0950B2EBA2FA02D0B01B901A5
:103DD00090010C01CA01A0011124FF27591B99F081
:103DE000593F50F4503E68F11A16F040A22F232F8D
:103DF000342F4427585FF3CF469537952795A795DD
:103E0000F0405395C9F77EF41F16BA0B620B730B83
:103E1000840BBAF09150A1F0FF0FBB1F661F771FF4
:103E2000881FC2F70EC0BA0F621F731F841F48F4A9
:103E3000879577956795B795F7959E3F08F0B0CF32
:103E40009395880F08F09927EE0F97958795089519
:103E50000E942F1F6894B1110C94051E08950E94B2
:103E6000EA1D88F09F5798F0B92F9927B751B0F005
:103E7000E1F0660F771F881F991F1AF0BA95C9F7EE
:103E800014C0B13091F00E94041EB1E008950C946A
:103E9000041E672F782F8827B85F39F0B93FCCF31D
:103EA000869577956795B395D9F73EF4909580956B
:103EB000709561957F4F8F4F9F4F08950E94261DEB
:103EC00008F48FEF089597FB072E16F4009407D09F
:103ED00077FD09D00E94841F07FC05D03EF4909521
:103EE00081959F4F0895709561957F4F0895EE0FCE
:103EF000FF1F0590F491E02D09940E94AC1EB7FFBE
:103F00000895821B930B0895AA1BBB1B51E107C0A8
:103F1000AA1FBB1FA617B70710F0A61BB70B881F59
:103F2000991F5A95A9F780959095BC01CD010895E8
:103F30000F931F93CF93DF938230910510F482E0AB
:103F400090E0E0917704F091780430E020E0B0E078
:103F5000A0E0309799F42115310509F44AC0281BD7
:103F6000390B24303105D8F58A819B8161157105A3
:103F700089F1FB0193838283FE0111C0408151814D
:103F80000281138148175907E0F04817590799F43F
:103F9000109761F012960C93129713961C93329619
:103FA000CF01DF91CF911F910F9108950093770476
:103FB00010937804F4CF2115310551F042175307BF
:103FC00038F0A901DB019A01BD01DF01F801C1CF81
:103FD000EF01F9CF9093780480937704CDCFFE0161
:103FE000E20FF31F81939193225031093983288383
:103FF000D7CF2091750430917604232B41F4209182
:1040000012013091130130937604209375042091AE
:104010001001309111012115310541F42DB73EB742
:104020004091140150911501241B350BE09175044A
:10403000F0917604E217F307A0F42E1B3F0B28172C
:10404000390778F0AC014E5F5F4F2417350748F011
:104050004E0F5F1F509376044093750481939193A4
:104060009FCFF0E0E0E09CCFCF93DF930097E9F0A3
:10407000FC01329713821282A0917704B0917804E8
:10408000ED0130E020E01097A1F420813181820F12
:10409000931F20917504309176042817390709F091
:1040A00061C0F0937604E0937504DF91CF91089599
:1040B000EA01CE17DF07E8F54A815B819E014115D1
:1040C0005105B1F7E901FB83EA8349915991C40F86
:1040D000D51FEC17FD0761F4808191810296840F52
:1040E000951FE90199838883828193819B838A83C9
:1040F000F0E0E0E012968D919C9113970097B9F54E
:104100002D913C911197CD010296820F931F209122
:104110007504309176042817390739F6309751F530
:104120001092780410927704B0937604A0937504EB
:10413000BCCFD383C28340815181840F951FC817A0
:10414000D90761F44E5F5F4F88819981480F591FED
:10415000518340838A819B8193838283211531051A
:1041600009F0B0CFF0937804E09377049ECFFD017F
:10417000DC01C0CF13821282D7CFB0E0A0E0E3EC25
:10418000F0E20C94551E8C01009751F4CB010E9473
:10419000981F8C01C801CDB7DEB7E0E10C94711E09
:1041A000FC01E60FF71F9C0122503109E217F307CB
:1041B00008F49DC0D901CD91DC911197C617D7079E
:1041C00098F0C530D10530F3CE01049786179707D4
:1041D00008F3C61BD70B2297C193D1936D937C93A1
:1041E000CF010E943420D6CF5B01AC1ABD0A4C012E
:1041F0008C0E9D1EA0917704B0917804512C412C17
:10420000F12CE12C109731F5809175049091760492
:104210008815990509F05CC04616570608F058C085
:104220008091100190911101009741F48DB79EB7D4
:104230004091140150911501841B950BE817F90763
:1042400008F055C0F0937604E0937504F90171838A
:104250006083A0CF8D919C91119712966C901297CC
:1042600013967C901397A815B90559F56C0142E097
:10427000C40ED11CCA14DB0420F1AC014A195B093D
:10428000DA011296159780F062827382518340831F
:10429000D9016D937C93E114F10471F0D701139669
:1042A000FC93EE93129776CF22968C0F9D1FF90107
:1042B00091838083F301EFCFF0937804E093770448
:1042C00069CF4816590608F42C017D01D3019ACF15
:1042D000CB010E94981F7C01009749F0AE01B80104
:1042E0000E949521C8010E943420870153CF10E01D
:1042F00000E050CF85FD0C94B71D806291110C94A5
:10430000B71D81568A51D8F70895911108958154A7
:104310008A5108F4805E855A089591110895815656
:104320008A5108F4805285580895FB01DC0102C0CF
:1043300001900D9241505040D8F70895FC018191B1
:10434000861721F08823D9F7992708953197CF014F
:104350000895FB01DC018D91019080190110D9F3C2
:10436000990B0895FB01DC0101900D920020E1F70B
:104370000895FB01DC014150504030F08D910190D7
:10438000801919F40020B9F7881B990B089511E0E2
:10439000C7E3D1E004C0FE010E94771F2196C83315
:0843A000D107C9F7F894FFCF23
:1043A800FFFFFFFF00E10000000000000100000027
:1043B80000007904800000000000000000000000F8
:1043C8000000000100007E306D79335B5F707F7BF9
:1043D80000000000000000771F4E3D4F475E373059
:1043E8003C000E15157E6700775B0F3E0000373BDB
:1043F80000C180810000005255442D0000000000DB
:10440800F60468040C058F03520510052E0530319B
:104418003233343536373839414243444546000D46
:104428000A004944454E543A005255442C207631EE
:104438002E34204D4151002C20534E3A003B53540A
:104448004154453A52554E4E494E473B5245473ADC
:1044580000494E313A00494E323A005254313A300E
:104468003B5254323A303B00504F543A00442D41AD
:104478003332300050434220312E3000303831354D
:1044880000202020202020202020004346473A53A7
:104498004E3A555047524144453A004346473A53ED
:1044A8004E3A4C4F414445443A0056455200564511
:1044B8005253494F4E005245510044494147004527
:1044C80058495400504342005043423A0076004C49
:1044D800454431004C454432004C454433004C457A
:1044E800443400444953505F424C00445350310017
:1044F8005354415445005345542000454E413A0019
:1045080053455420454E413E203B005345542045D9
:104518004E413A4641494C203B0046573A005345E4
:10452800542046573A464F524D4154203B00504381
:104538006220002E005345542046573A4F4B203BEB
:10454800005345542046573A52414E4745203B00B8
:10455800414349443A0053455420414349443A466B
:104568004F524D4154203B0053455420455849541F
:104578003A4F4B203B005752493A00594553005394
:104588004554205752493A4F4B203B00534554203D
:104598005752493A464F524D4154203B00575249D1
:1045A80054450057524954453A4F4B203B00575207
:1045B8004954453A4C4F434B4544203B00534554DE
:1045C80020534E3A4F4B3A0053455420534E3A46E7
:1045D8004F524D4154203B00383838380044494147
:1045E800473A434F4D504C4554453B0053455420A2
:0A45F800414349443A4F4B203B0079
:00000001FF
